:100000000C94180D0C94490D0C94490D0C94490D49
:100010000C94490D0C94490D0C94490D0C94490D08
:100020000C94490D0C94490D0C94490D0C94490DF8
:100030000C94490D0C94490D0C94490D0C94490DE8
:100040000C94490D0C948AD50C94490D0C94490DCF
:100050000C94490D0C94490D0C94A3E80C9467F191
:100060000C94490D0C9490F50C94C6F50C94490D24
:100070000C94490D0C94490D0C94490D0C94490DA8
:100080000C94490D0C94490D0C94490D0C94490D98
:100090000C94490D0C94490D0C94490D0C9436F0B8
:1000A0000C94490D0C94490D0C94490D0C94490D78
:1000B0000C94490D0C94490D0C94490D0C94490D68
:1000C0000C94490D0C94490D0C94490D0C943DF67B
:1000D0000C9473F60C94490D0C94490D0C94490D35
:1000E0000C94490D2BE938E954E961E97BE988E989
:1000F000A2E9A4E9A6E9A8E9B0E990F295F29AF29A
:10010000A4F2AEF227F3B8F2C0F2C8F2D2F2DCF2F7
:10011000E6F2F5F2FFF227F309F313F31DF349F3C7
:100120004CF33BF33FF345F383F350F354F35AF3AB
:100130005EF362F368F36CF370F383F376F37AF3B0
:100140007EF3084AD73B3BCE016E84BCBFFDC12F76
:100150003D6C74319ABD56833DDA3D00C77F11BEB8
:10016000D9E4BB4C3E916BAAAABE000000803F05BB
:10017000A84CCDB2D44EB93836A9020C50B99186EC
:1001800088083CA6AAAA2ABE000000803F000C9462
:1001900027F30C94A7F40C9427F40C94CAEF0C9456
:1001A000FFF20C94A4E90C947EF30C9409F30C94E4
:1001B00068F30C94FAF60C943F3C0C94A7F60C945C
:1001C000C0F20C94F0F50C9472EF0C94A6E90C9428
:1001D0001DF30C9449F40C9413F30C949AF20C94C0
:1001E00061E90C94E6F20C94A8E90C94C9F40C941F
:1001F00054E90C94AEF20C941CF40C947AF30C9425
:100200005C5D0C9470F30C944CF30C94F5F20C942C
:1002100090F20C94705D0C94DCF20C9495F20C94BA
:1002200038E90C945AF30C949CEF0C94B0E90C94BC
:10023000C8F20C94A2E90C949DEF0C94A4F20C94D7
:1002400062F30C942AD00C9449F30C947AEF0C943A
:100250002BE90C9476F30C943BF30C946CF30C9414
:10026000D2F20C948DEF0C94B8F20C9435F40C94FB
:100270007BE90C9409F00C9485230C9488E90C9488
:1002800045F30C949DF60C945EF30C9454F30C948B
:1002900050F30C9483F30C94FAF50C943FF34D381F
:1002A0003420582059205A2045005430004D323413
:1002B000004D3233202573006175746F25692E67F8
:1002C000006572726F722077726974696E6720744C
:1002D0006F2066696C65004E6F7420534420707205
:1002E000696E74696E67002F005344207072696EE6
:1002F00074696E67206279746520002E0044656C15
:100300006574696F6E206661696C65642C2046694E
:100310006C653A200046696C652064656C6574659F
:10032000643A002E006F70656E206661696C6564CA
:100330002C2046696C653A200057726974696E67B3
:1003400020746F2066696C653A20002E006F70651E
:100350006E206661696C65642C2046696C653A2084
:10036000002E006F70656E206661696C65642C20DC
:1003700046696C653A200046696C652073656C655A
:1003800063746564002053697A653A200046696C9D
:1003900065206F70656E65643A20002E006F706591
:1003A0006E206661696C65642C2046696C653A2034
:1003B000004E6F772066726573682066696C653AD7
:1003C00020004E6F7720646F696E672066696C65E8
:1003D0003A20002220706F73002220706172656ED7
:1003E000743A2200535542524F5554494E452043CA
:1003F000414C4C207461726765743A2200747279C2
:10040000696E6720746F2063616C6C207375622D58
:1004100067636F64652066696C65732077697468CB
:1004200020746F6F206D616E79206C6576656C73DA
:100430002E204D4158206C6576656C2069733A001A
:1004400053442063617264206F6B006F70656E525D
:100450006F6F74206661696C656400766F6C756D92
:10046000652E696E6974206661696C656400534429
:1004700020696E6974206661696C006563686F3A13
:10048000004572726F723A0048617264636F64650E
:10049000642044656661756C742053657474696E7C
:1004A0006773204C6F616465640053746F72656498
:1004B0002073657474696E67732072657472696500
:1004C000766564002044002049002020204D333010
:1004D000312050005049442073657474696E67730D
:1004E0003A00205A0020590020204D323036205842
:1004F00000486F6D65206F666673657420286D6DAA
:10050000293A00204500205A0020580020420020AF
:10051000540020204D323035205300416476616E06
:10052000636564207661726961626C65733A205319
:100530003D4D696E20666565647261746520286D45
:100540006D2F73292C20543D4D696E207472617695
:10055000656C20666565647261746520286D6D2F19
:1005600073292C20423D6D696E696D756D20736530
:10057000676D656E742074696D6520286D73292C14
:1005800020583D6D6178696D756D205859206A65F8
:10059000726B20286D6D2F73292C20205A3D6D61C0
:1005A00078696D756D205A206A65726B20286D6DB3
:1005B0002F73292C2020453D6D6178696D756D2064
:1005C00045206A65726B20286D6D2F7329002054B9
:1005D0000020204D323034205300416363656C6548
:1005E000726174696F6E3A20533D616363656C6537
:1005F000726174696F6E2C20543D72657472616310
:100600007420616363656C65726174696F6E00204C
:100610004500205A0020590020204D32303120580A
:10062000004D6178696D756D20416363656C65721D
:100630006174696F6E20286D6D2F7332293A002026
:100640004500205A0020590020204D3230332058D8
:10065000004D6178696D756D2066656564726174C1
:10066000657320286D6D2F73293A00204500205AAC
:100670000020590020204D393220580053746570F5
:10068000732070657220756E69743A0053657474D6
:10069000696E67732053746F726564006563686F79
:1006A0003A005072696E7465722068616C7465649A
:1006B0002E206B696C6C28292063616C6C65642149
:1006C000006F6B00526573656E643A20000A00206B
:1006D0007A3A200020793A200020783A20004265BA
:1006E00064002200556E6B6E6F776E20636F6D6DC8
:1006F000616E643A202200486F74656E64206F66F4
:1007000066736574733A005A204F66667365742089
:100710003A20007A5F6D61783A20007A5F6D696EE9
:100720003A20005A204F6666736574005A204F665F
:1007300066736574206F6B00486F74656E64206F1C
:100740006666736574733A007A5F6D696E3A20006D
:10075000795F6D61783A2000785F6D61783A2000AA
:10076000785F6D696E3A2000205A3A0020593A00AD
:1007700020436F756E7420583A200020453A0020BF
:100780005A3A0020593A00583A004649524D5741CA
:1007900052455F4E414D453A4D61726C696E20562F
:1007A000313B20537072696E7465722F6772626C90
:1007B000206D617368757020666F722067656E3694
:1007C000204649524D574152455F55524C3A687444
:1007D0007470733A2F2F6769746875622E636F6D3A
:1007E0002F4572696B5A616C6D2F4D61726C696E29
:1007F0002F2050524F544F434F4C5F564552534950
:100800004F4E3A312E30204D414348494E455F54BA
:100810005950453A4D656E64656C204558545255A3
:100820004445525F434F554E543A32205555494442
:100830003A30303030303030302D303030302D30B4
:100840003030302D303030302D30303030303030AE
:1008500030303030300A0020423A0020453A00540F
:100860003A0020573A0020453A00543A00204240CE
:100870003A0020403A00202F003A00205400202F58
:100880000020423A00202F006F6B20543A000A0AE1
:10089000005374616E6461726420446576696174AA
:1008A000696F6E3A20000A004D65616E3A20000AB9
:1008B000002020207A3A200000793A2000783A205F
:1008C000003F537065636966696564206E756D628B
:1008D0006572206F66206C65677320696E206D6F8E
:1008E00076656D656E74206E6F7420706C617573C3
:1008F00061626C652E0A003F5370656369666965C5
:1009000064205920706F736974696F6E206F7574FD
:10091000206F662072616E67652E0A003F53706516
:10092000636966696564205820706F736974696FC4
:100930006E206F7574206F662072616E67652E0A77
:10094000003F5370656369666965642073616D700B
:100950006C652073697A65206E6F7420706C6175A8
:100960007361626C652E0A0046756C6C207375703D
:10097000706F72742061743A20687474703A2F2F0B
:1009800033647072696E74626F6172642E636F6D2E
:100990002F666F72756D2E7068700A004D343820A6
:1009A0005A2D50726F626520526570656174616284
:1009B000696C69747920746573742E2020205665E3
:1009C0007273696F6E20322E30300A003F566572A6
:1009D000626F7365204C6576656C206E6F74207055
:1009E0006C61757361626C652E0A002569206D6902
:1009F0006E2C2025692073656300456E642066694E
:100A00006C65206C69737400426567696E20666965
:100A10006C65206C697374000A00205A3A2000202B
:100A2000593A200020583A200042656400486F6D12
:100A30006520582F59206265666F7265205A000A3A
:100A40000020616E7469686F726172690A3A2000F1
:100A500020686F726172690A20002F3800766F6C0F
:100A6000746573200020566F6C7465732063617227
:100A7000676F6C20333A200020616E7469686F7272
:100A80006172690A3A200020686F726172690A20F7
:100A9000002F3800766F6C746573200020566F6CE1
:100AA00074657320636172676F6C20323A20002096
:100AB000616E7469686F726172690A3A2000206819
:100AC0006F726172690A20002F3800766F6C74654E
:100AD00073200020566F6C74657320636172676FBA
:100AE0006C20313A20000A0020647A333A2000203A
:100AF000647A323A200020647A313A20000A0020D9
:100B00007A633A2000486F6D6520582F592062653E
:100B1000666F7265205A00486F6D6520582F592006
:100B20006265666F7265205A00473238205830205F
:100B3000593000473238205830205930002569207C
:100B4000686F757273202569206D696E75746573A1
:100B500000446F6E65207072696E74696E672066FE
:100B6000696C6500473639005072696E7465722091
:100B700073746F707065642064756520746F206590
:100B800072726F72732E20466978207468652065D2
:100B900072726F7220616E6420757365204D3939F1
:100BA0003920746F20726573746172742E2028541A
:100BB000656D706572617475726520697320726508
:100BC0007365742E205365742069742061667465A2
:100BD000722072657374617274696E6729006F6B3D
:100BE000004E6F204C696E65204E756D62657220F7
:100BF0007769746820636865636B73756D2C204C2E
:100C0000617374204C696E653A20004E6F20436812
:100C100065636B73756D2077697468206C696E65A8
:100C2000206E756D6265722C204C617374204C6966
:100C30006E653A2000636865636B73756D206D693E
:100C4000736D617463682C204C617374204C696E01
:100C5000653A20004C696E65204E756D62657220A4
:100C60006973206E6F74204C617374204C696E65DB
:100C7000204E756D6265722B312C204C617374208F
:100C80004C696E653A20004D31313000446F6E651D
:100C900020736176696E672066696C652E006F6BE4
:100CA000004D323900737461727400765F30312DFB
:100CB000312E302E30002200656E717565696E67C9
:100CC0002022002200656E717565696E6720220022
:100CD0004D383420582059205A20450047343300DD
:100CE0004732380047343000473238004732382026
:100CF00058302059300047323820583020593000C1
:100D00004D35303000473431004D353030004734F8
:100D10003000473238005430004D35303000473411
:100D200033005431004D353030004D353030004DFA
:100D3000353030004D353030004D353030004D35D8
:100D40003030004D353030004D353030004D3530CD
:100D500030004D35303000473431004D35303000F3
:100D6000473431004D35303000473431004D353097
:100D70003000473431004D35303000473431004DBC
:100D800035303000473431004D3530300047343194
:100D9000004D35303000473431004D35303000479C
:100DA0003431004D35303000473431004D3530306E
:100DB0000054300054300047333400543000473280
:100DC000380047333400543000473238004733345A
:100DD0000054300047323800473334005430004765
:100DE0003238004734330047333400543000473240
:100DF00038004D3234004D3233202573004D3834E5
:100E000020582059205A20450054300047323820BD
:100E100058302059300054300054310047373000EA
:100E20004D383420582059205A204500543000476E
:100E300032382058302059300047323800FF01FF47
:100E40000000A0400000A0400000004033339C435D
:100E50000080934300005243000000000080934351
:100E60000000000033339C43008093430000524352
:100E70000000000000000000000000006563686FD3
:100E80003A004572726F723A0020636F6C6420659D
:100E90007874727573696F6E2070726576656E74A2
:100EA0006564006563686F3A007C3C3E5E2B3D3FA5
:100EB0002F5B5D3B2C2A225C00205A3A0020593AD5
:100EC0000020583A00656E6473746F70732068690F
:100ED000743A200024F4D43050C38E20C2A24017AC
:100EE000828B7011127A910D816CD90AA861E10888
:100EF000C7586607615143061E4B5D05C145A704EF
:100F00001A411104093D9803713931034036DB025F
:100F100065339102D4305402802E1D02632CEE0101
:100F2000752AC501B028A001102781018F25640111
:100F30002B244B01E0223401AC211F018D200D0137
:100F4000801FFC00841EED00971DDF00B81CD2003E
:100F5000E61BC600201BBC00641AB200B219A80030
:100F60000A19A0006A189900D117910040178B0048
:100F7000B516840031167E00B31579003A1573005A
:100F8000C7146F0058146A00EE13660088136300DC
:100F900025135E00C7125B006C1257001512540037
:100FA000C111510070114F0021114B00D6104900A2
:100FB0008D1047004610440002104200C00F400050
:100FC000800F3E00420F3C00060F3B00CB0E380066
:100FD000930E37005C0E3500270E3400F30D3200FF
:100FE000C10D3100900D3000600D2E00320D2D002E
:100FF000050D2C00D90C2B00AE0C2900850C290006
:101000005C0C2700350C27000E0C2600E80B240092
:10101000C40B2400A00B23007D0B23005A0B2100DE
:10102000390B2100180B2000F80A1F00D90A1E00F6
:10103000BB0A1E009D0A1D00800A1D00630A1C00D9
:10104000470A1B002C0A1B00110A1A00F7091A0094
:10105000DD091900C4091900AB091900920917002C
:101060007B091800630917004C09160036091600A1
:10107000200916000A091500F5081500E0081400FB
:10108000CC081400B8081400A40814009008130039
:101090007D0812006B081300580812004608120061
:1010A0003408110023081100120811000108110072
:1010B000F0071000E0071000D0071000C007100074
:1010C000B0070F00A107100091070E0083070F0063
:1010D00074070F0065070E0057070E0049070E0042
:1010E0003B070D002E070E0020070D0013070D0013
:1010F00006070D00F9060C00ED060D00E0060C00D9
:10110000D4060C00C8060C00BC060C00B0060C008F
:10111000A4060B0099060C008D060B0082060B003E
:1011200077060B006C060B0061060A0057060B00E1
:101130004C060A0042060A0038060A002E060A007B
:1011400024060A001A060A001006090007060A000B
:10115000FD050900F4050900EB050900E205090099
:10116000D9050900D0050900C7050900BE05090019
:10117000B5050800AD050800A50509009C05080097
:10118000940508008C050800840508007C0508000B
:10119000740508006C050700650508005D0507007B
:1011A000560508004E0507004705070040050800E2
:1011B00038050700310507002A0507002305070049
:1011C0001C050600160507000F05070008050600A8
:1011D00002050700FB040600F5040700EE04060004
:1011E000E8040600E2040700DB040600D50406005C
:1011F000CF040600C9040600C3040600BD040600AF
:10120000B7040600B1040500AC040600A6040600FD
:10121000A00405009B040600950405009004060048
:101220008A04050085040500800406007A04050090
:1012300075040500700405006B04050066040500D4
:10124000610405005C040500570405005204050014
:101250004D04050048040500430405003E04040055
:101260003A04050035040500300404002C04050090
:1012700027040400230405001E0404001A040400CB
:1012800016040500110404000D04040009040500FF
:101290000404040000040400FC030400F803040038
:1012A000F4030400F0030400EC030400E80304006A
:1012B000E4030400E0030400DC030400D80304009A
:1012C000D4030400D0030400CC030400C8030300CB
:1012D000C503030024F404D9201BC40C5C0E98043D
:1012E000C4095F0265077101F405F900FB04B3004E
:1012F00048048700C10369005803550003034500F3
:10130000BE023A008402310053022A00290225005D
:1013100004022000E4011C00C8011900AF011700FD
:101320009801140084011300710110006101100084
:1013300051010E0043010D0036010B002B010B0083
:1013400020010B00150109000C0109000301080030
:10135000FB000800F3000800EB000700E4000600B3
:10136000DE000600D8000600D2000600CC00050012
:10137000C7000500C2000500BD000400B90004005C
:10138000B5000400B1000400AD000400A900040091
:10139000A5000300A20003009F0004009B000300BF
:1013A00098000300950002009300030090000300E2
:1013B0008D0002008B0003008800020086000200FE
:1013C00084000300810002007F0002007D00020013
:1013D0007B00020079000200770001007600020025
:1013E0007400020072000100710002006F00020030
:1013F0006D0001006C0002006A000100690002003B
:101400006700010066000100650001006400020041
:101410006200010061000100600001005F00020045
:101420005D0001005C0001005B0001005A0001004A
:10143000590001005800010057000100560001004A
:10144000550001005400010053000000530001004A
:101450005200010051000100500001004F00010046
:101460004E0000004E0001004D0001004C00010044
:101470004B0000004B0001004A0001004900010040
:10148000480000004800010047000100460000003D
:101490004600010045000000450001004400010035
:1014A0004300000043000100420000004200010030
:1014B0004100000041000100400001003F00000029
:1014C0003F0001003E0000003E0001003D00000022
:1014D0003D0001003C0000003C0000003C00010019
:1014E0003B0000003B0001003A0000003A00010010
:1014F0003900000039000100380000003800000009
:1015000038000100370000003700010036000000FD
:1015100036000000360001003500000035000000F4
:1015200035000100340000003400000034000100E8
:1015300033000000330000003300010032000000DF
:1015400032000000320001003100000031000000D4
:1015500031000100300000003000000030000100C8
:101560002F0000002F0000002F0000002F000100BE
:101570002E0000002E0000002E0001002D000000B3
:101580002D0000002D0000002D0001002C000000A7
:101590002C0000002C0000002C0001002B0000009B
:1015A0002B0000002B0000002B0001002A0000008F
:1015B0002A0000002A0000002A0001002900000083
:1015C0002900000029000000290000002900010076
:1015D000280000002800000028000000280000006B
:1015E000280001002700000027000000270000005D
:1015F0002700000027000100260000002600000050
:101600002600000026000000260001002500000042
:101610002500000025000000250000002500000036
:101620002500010024000000240000002400000028
:10163000240000002400010023000000230000001B
:10164000230000002300000023000000230000000E
:101650002300010022000000220000002200000000
:1016600022000000220000002200010021000000F2
:1016700021000000210000002100000021000000E6
:1016800021000000210001002000000020000000D7
:1016900020000000200000002000000020000000CA
:1016A00020000000200001001F0000001F000000BB
:1016B0001F0000001F0000001F0000001F000000AE
:1016C0001F0001001E0000001E0000001E000000A0
:1016D0001E0000006563686F3A0050494420417560
:1016E000746F74756E652066696E697368656421D0
:1016F0002050757420746865206C617374204B7081
:101700002C204B6920616E64204B6420636F6E73E4
:1017100074616E74732066726F6D2061626F76659E
:1017200020696E746F20436F6E66696775726174AD
:10173000696F6E2E6800504944204175746F74754E
:101740006E65206661696C6564212074696D656FE2
:1017500075740020403A006F6B20543A006F6B2084
:10176000423A00504944204175746F74756E65208B
:101770006661696C6564212054656D706572617481
:1017800075726520746F6F206869676800204B640C
:101790003A2000204B693A2000204B703A2000206C
:1017A000436C617373696320504944200020547571
:1017B0003A2000204B753A2000206D61783A2000D5
:1017C000206D696E3A200020643A20002062696131
:1017D000733A200070012C0190012701B001220111
:1017E000C0011D01F00118011002130130020E01A9
:1017F0006002090190020401C002FF000003FA0028
:101800004003F5008003F000D003EB002004E60065
:101810007004E100E004DC004005D700C005D20000
:101820004006CD00D006C8008007C3003008BE00C7
:10183000F008B900C009B400B00AAF00B00BAA00AC
:10184000D00CA500000EA000500F9B00C010960009
:101850005012910000148C00C0158700B017820050
:10186000B0197D00D01B7800001E730040206E0070
:1018700090226900F024640040275F0090295A00FC
:10188000E02B5500102E500020304B001032460047
:10189000E033410090353C0010373700703832009B
:1018A000A0392D00B03A2800A03B2300603C1E0068
:1018B000103D1900903D1400103E0F00703E0A00CC
:1018C000C03E0500003F000000000A0B02090C0D9D
:1018D0000E080703040100000000000000000000E3
:1018E00000000000000000000000000000000000F8
:1018F00000000000121110000000000000000000B5
:1019000000000000000000000000000000000102D4
:101910001020200808102040102040800201020101
:1019200008040201010204081020408080402010B9
:101930000804020180040201804020100804020112
:10194000080402010102040810204080010204087A
:101950001020408005050505070508080808020253
:1019600002020A0A08080404040401010101010139
:1019700001010303030303030303040707070C0C1C
:101980000C0C0C0C0C0C02020202060606060606E3
:1019900006060B0B0B0B0B0B0B0B000020002300A0
:1019A000260029002C002F00320000010000030156
:1019B0000601090100002200250028002B002E004E
:1019C0003100340002010000050108010B01000094
:1019D0002100240027002A002D00300033000101DF
:1019E0000000040107010A014E414E494E49545975
:1019F000494E46CDCCCC3D0AD7233C17B7D13877DA
:101A0000CC2B329595E6241FB14F0A0000204100EF
:101A100000C84200401C4620BCBE4CCA1B0E5AAE39
:101A2000C59D740085235C5D09F0FAF5A7F6705D2D
:101A300011241FBECFEFD1E2DEBFCDBF00E00CBF4F
:101A40001BE0A0E0B2E0EEE1FFE002E00BBF02C06D
:101A500007900D92A238B107D9F72BE1A2E8BBE0BD
:101A600001C01D92A139B207E1F71AE1CEE2DAE135
:101A700000E006C022970109FE010BBF0E94FBFE99
:101A8000C432D10780E00807A9F70E94EBF60D9455
:101A90007D070C940000DC01ED91FC910190F08138
:101AA000E02D1994FC0114821782138212828AEFAE
:101AB0009AE09183808308952AEF3AE0FC01318314
:101AC00020832781222319F004960C9484CB089557
:101AD000CF92DF92EF92FF920F931F93CF93DF93FA
:101AE000EC01C0960E94520DCE018F5A9F4F0E946A
:101AF000520D7E0120E7E20EF11C87016E013AE5EE
:101B0000C31A3EEFD30AC8010E94520D015E1F4F57
:101B10000C151D05C1F7FE01E855FE4F89E18183D3
:101B200014823596178ACE0185539E4F0E94520D1E
:101B3000FE01E458FD4F1082118212821382389602
:101B400010821182128213821A821B821C821882D6
:101B500019826E0180E8C81A8DEFD80AF60110824A
:101B6000118212821382F80111821082FE01E65165
:101B7000FE4F108286E391E0F7019C011192215003
:101B80003040E1F7FE01E857FD4F81E080831FA65A
:101B90001EA60E94B1F168577C4E8F4F9F4FF601F1
:101BA0006083718382839383DF91CF911F910F9123
:101BB000FF90EF90DF90CF900895FC0120E03EE28F
:101BC000DB014C91403241F0283011F430833196E2
:101BD000DB014C91408331962F5F6F5F7F4F2B303D
:101BE00079F7108208952F923F924F925F926F92F1
:101BF0007F928F929F92AF92BF92CF92DF92EF929D
:101C0000FF920F931F93CF93DF93CDB7DEB7C658E4
:101C1000D1090FB6F894DEBF0FBECDBF8C016B01AA
:101C20007A01CA57DF4F1882C658D04084E0E80EC8
:101C3000F11C1801E2E12E0E311C5801F7E7AF1A32
:101C4000FDEFBF0A380185E7681A8DEF780A80E456
:101C5000482E512C4C0E5D1EE4E04E0E511CA1018D
:101C6000BE016F5F7F4FC7010E94E9C918160CF0D3
:101C70000EC12C85322F3871303109F099C0F50131
:101C8000808191810197029708F492C0BE016F5F35
:101C90007F4FCE0187589F4F0E94DD0DA0961FAE4B
:101CA000A097F6018081811107C061EF72E0CE013B
:101CB000815A9F4F0F942204B601CE01815A9F4F43
:101CC0000F942204BE0167587F4FCE01815A9F4F67
:101CD0000F94220461EF72E0CE01815A9F4F0F945E
:101CE0002204CE01805C9F4F0E94520D21E0AE0184
:101CF00047585F4FB701C2010E948DCD811131C09D
:101D0000F50180819181892B61F5EBE7F4E0649125
:101D10004F01662369F0772767FD709581E59AE1A9
:101D20000E944B0DFFEF8F1A9F0AF4016491F1CFCF
:101D300063EF72E081E59AE10E9438F76AE070E0B3
:101D400081E59AE10E944B0DBE0167587F4F81E506
:101D50009AE10E9438F76AE070E081E59AE10E941A
:101D60004B0D8BE1FE01EC5BFF4FDE019596019080
:101D70000D928A95E1F724968EAD9FAD24979CA392
:101D80008BA38AEF9AE09AA389A3AE014F5D5F4FC0
:101D9000BE01615A7F4FC8010E94F30DCE018196AA
:101DA0000E945C0DCE01805C9F4F0E945C0D57CF5E
:101DB0008981882309F46BC0853E09F450CF8E32A7
:101DC00009F44DCF8F3509F44ACFF8018289882371
:101DD00031F08E3209F443CF8F3509F440CF23FD23
:101DE0003ECF81E0303109F080E0F80185A7811114
:101DF00008C08985873409F032CF8A858E3709F487
:101E00002ECF4801F5E08F0E911CBE016F5F7F4F12
:101E1000C4010E94DD0DF50180819181009789F454
:101E2000B60181E59AE10E9438F7B40181E59AE1B3
:101E30000E9438F76AE070E081E59AE10E944B0D5C
:101E40000ECF8130910539F4F301808191810196A3
:101E50009183808304CF029709F001CFCA57DF4FE7
:101E6000F881C658D0402F2F30E0F3018081918156
:101E70002817390761F0CA57DF4FF881C658D0409C
:101E8000FF5FCA57DF4FF883C658D040E8CECA5725
:101E9000DF4F0FB6F894DEBF0FBECDBFDF91CF91FD
:101EA0001F910F91FF90EF90DF90CF90BF90AF9078
:101EB0009F908F907F906F905F904F903F902F906A
:101EC0000895EF92FF920F931F93CF93DF93CDB7B7
:101ED000DEB76F970FB6F894DEBF0FBECDBF8C0193
:101EE000FC01E757FD4F118210827C0184E3E80E6C
:101EF000F11C40E050E0BA01C7010E949ECA8BE18C
:101F0000F701DE01159601900D928A95E1F7F8012F
:101F100082A993A99C838B838AEF9AE09A83898311
:101F2000AE014F5F5F4F63EE79E0C8010E94F30D91
:101F3000CE0101960E945C0D6F960FB6F894DEBF3D
:101F40000FBECDBFDF91CF911F910F91FF90EF900A
:101F500008952BE1FB013496DC01149601900D925B
:101F60002A95E1F7FB0122813381FC01338322832F
:101F70000895EF92FF920F931F93CF93DF93EC019D
:101F80001C828FA9882321F0CE01C4960E9484CBA5
:101F90007E0188E5E81A8EEFF80A45E360E0C701A4
:101FA0000E94DCC581113EC0EBE7F4E064918F0133
:101FB000662361F0772767FD709581E59AE10E94BD
:101FC0004B0D0F5F1F4FF8016491F2CFEEE6F4E086
:101FD00064918F01662361F0772767FD709581E535
:101FE0009AE10E944B0D0F5F1F4FF8016491F2CFF1
:101FF0006AE070E081E59AE10E944B0D8E01005D80
:102000001F4FB801CE018F5A9F4F0E94A90FC15B8D
:10201000DF4F19830883DF91CF911F910F91FF90BC
:10202000EF9008958E0103551E4F41E0B701C8019E
:102030000E949ED381112CC040E0B701C8010E94CC
:102040009ED3811125C0E1E8F4E064918F016623FD
:1020500061F0772767FD709581E59AE10E944B0D4D
:102060000F5F1F4FF8016491F2CFEBE5F4E064914C
:102070008F01662309F4BCCF772767FD709581E552
:102080009AE10E944B0D0F5F1F4FF8016491F1CF51
:10209000B801CE01C4960E9489C8811125C0E1E82B
:1020A000F4E064918F01662361F0772767FD7095F6
:1020B00081E59AE10E944B0D0F5F1F4FF80164917B
:1020C000F2CFEBE4F4E064918F01662309F490CF42
:1020D000772767FD709581E59AE10E944B0D0F5FB0
:1020E0001F4FF8016491F1CF81E08C83EBE7F4E0BE
:1020F00064918F01662361F0772767FD709581E514
:102100009AE10E944B0D0F5F1F4FF8016491F2CFCF
:10211000E0E4F4E064918F01662309F469CF772746
:1021200067FD709581E59AE10E944B0D0F5F1F4F8F
:10213000F8016491F1CFFC01128214820895FC0130
:102140008481882319F081E0828313820895FC0141
:102150008281882319F0128281E083830895AF92EF
:10216000BF92CF92DF92EF92FF920F931F93CF9384
:10217000DF931F92CDB7DEB78C018FE2FB01819315
:102180005F01D12C41E07801FAE5EF1AFEEFFF0A7A
:102190009FE1C92E2D2D30E0F70180819181281714
:1021A0003907D8F4C29EC001C39E900D11248C58EB
:1021B0009F4FB501800F911F49830E942EC8C50112
:1021C00049815C010196F5012081222321F04D38DF
:1021D00010F44F5FF6CFD394DDCF47FD11C0B501AA
:1021E000C80181539E4F0F90DF91CF911F910F91A6
:1021F000FF90EF90DF90CF90BF90AF900C942EC8DF
:10220000F50110820F90DF91CF911F910F91FF90F8
:10221000EF90DF90CF90BF90AF9008953F924F9294
:102220005F926F927F928F929F92AF92BF92CF9266
:10223000DF92EF92FF920F931F93CF93DF93CDB76F
:10224000DEB7AC970FB6F894DEBF0FBECDBF8C01E2
:102250006B01342EFC018481882309F4EDC2EE5217
:10226000FE4F8081882309F413C12111DAC078015F
:10227000F6E1EF1AFEEFFF0AF7018081882309F4E7
:1022800035C0E1E8F4E064918F01662361F07727BF
:1022900067FD709581E59AE10E944B0D0F5F1F4F1E
:1022A000F8016491F2CFEDEFF3E064918F016623C2
:1022B00061F0772767FD709581E59AE10E944B0DEB
:1022C0000F5F1F4FF8016491F2CF4AE050E061E0E8
:1022D00070E081E59AE10E940AF86AE070E081E529
:1022E0009AE10E944B0D0E94FE37A6C2EBE7F4E094
:1022F00064915F01662369F0772767FD709581E53A
:102300009AE10E944B0DFFEFAF1ABF0AF5016491ED
:10231000F1CFE4EEF3E064915F01662369F0772783
:1023200067FD709581E59AE10E944B0DFFEFAF1AB2
:10233000BF0AF5016491F1CFB60181E59AE10E94EF
:1023400038F7E9EDF3E064915F01662369F07727E0
:1023500067FD709581E59AE10E944B0DFFEFAF1A82
:10236000BF0AF5016491F1CFF70180812DE8B22E0B
:10237000B801B89E600D711D112461517E4FC801D6
:102380000E94AF10F7018081B801B89E600D711DE9
:10239000112461517E4F81E59AE10E9438F7E3ED07
:1023A000F3E064915F01662369F0772767FD70951C
:1023B00081E59AE10E944B0DFFEFAF1ABF0AF501CC
:1023C0006491F1CF5801FCE7AF1AFDEFBF0AF501A8
:1023D00040815181628173812AE030E081E59AE198
:1023E0000E942AF86AE070E081E59AE10E944B0DB4
:1023F000F7012081F80184E0289FE00DF11D1124F0
:10240000AF0145515E4FF50180819181A281B38179
:10241000FA0180839183A283B3832F5FF701208326
:1024200031C0EBE7F4E064917F01662369F0772720
:1024300067FD709581E59AE10E944B0DFFEFEF1A61
:10244000FF0AF7016491F1CFE2ECF3E064917F01C0
:10245000662369F0772767FD709581E59AE10E9410
:102460004B0DFFEFEF1AFF0AF7016491F1CFB601B0
:1024700081E59AE10E9438F76AE070E081E59AE12F
:102480000E944B0DC80181539E4F0E9484CB35C0E2
:10249000F801E651FE4F1082EBE7F4E064917F0112
:1024A000662369F0772767FD709581E59AE10E94C0
:1024B0004B0DFFEFEF1AFF0AF7016491F1CFE1EB4B
:1024C000F3E064917F01662369F0772767FD7095DB
:1024D00081E59AE10E944B0DFFEFEF1AFF0AF70129
:1024E0006491F1CFB60181E59AE10E9438F76AE084
:1024F00070E081E59AE10E944B0DF8011282CE0155
:1025000001965C010E94520D28019FE4490E511C66
:10251000C801C096F20191838083F60180818F32D9
:1025200009F07EC06FE270E0C6010F942D040196A1
:102530007C01E114F10409F479C06FE270E0C70195
:102540000F942D044C01009709F471C0E816F906A8
:1025500008F06DC03C016E187F08A301B701CE01E1
:1025600080960F945604E0E2F0E0EC0FFD1FE60DBC
:10257000F71D1082BE01605E7F4F81E59AE10E94E7
:1025800038F76AE070E081E59AE10E944B0DF201B4
:10259000608171816115710519F06C5F7F4F02C018
:1025A00060E070E021E0AE01405E5F4FCE01059635
:1025B0000E948DCD81112CC0EDE9F3E064918F0173
:1025C000662361F0772767FD709581E59AE10E94A7
:1025D0004B0D0F5F1F4FF8016491F2CFBE01605E9B
:1025E0007F4F81E59AE10E9438F7EBE9F3E06491CF
:1025F0008F01662309F417C1772767FD709581E580
:102600009AE10E944B0D0F5F1F4FF8016491F1CFCB
:10261000F201B182A0827401FFEFEF1AFF0A89CFA5
:10262000C8018F5A9F4FF201918380837601C801C0
:1026300081539E4F4C01F20160817181332009F476
:10264000A0C06115710519F06C5F7F4F02C060E09A
:1026500070E021E0A701C4010E948DCD882309F418
:1026600066C0F40181899289A389B489F801E4588C
:10267000FD4F80839183A283B383EDE8F3E06491FF
:102680004F01C80184589D4F6C01662369F077277C
:1026900067FD709581E59AE10E944B0D9FEF891AC5
:1026A000990AF4016491F1CFB70181E59AE10E94A2
:1026B00038F7E5E8F3E064917F01662369F0772756
:1026C00067FD709581E59AE10E944B0DFFEFEF1ACF
:1026D000FF0AF7016491F1CFF601408151816281D7
:1026E00073812AE030E081E59AE10E942AF86AE0ED
:1026F00070E081E59AE10E944B0DF801EC57FD4F27
:102700001082118212821382E7E7F3E064918F0155
:10271000662309F488C0772767FD709581E59AE103
:102720000E944B0D0F5F1F4FF8016491F1CFE3E65C
:10273000F3E064918F01662361F0772767FD709560
:1027400081E59AE10E944B0D0F5F1F4FF8016491E4
:10275000F2CFB70181E59AE10E9438F7E1E6F3E0B4
:1027600064918F01662309F45EC0772767FD709539
:1027700081E59AE10E944B0D0F5F1F4FF8016491B4
:10278000F1CF6115710519F06C5F7F4F02C060E0F9
:1027900070E026E5A701C4010E948DCD811129C0FA
:1027A000EDE4F3E064918F01662361F0772767FD24
:1027B000709581E59AE10E944B0D0F5F1F4FF80164
:1027C0006491F2CFB70181E59AE10E9438F7EBE41A
:1027D000F3E064918F01662331F1772767FD7095EF
:1027E00081E59AE10E944B0D0F5F1F4FF801649144
:1027F000F2CF81E0F8018083E9E3F3E064918F0197
:10280000662361F0772767FD709581E59AE10E9464
:102810004B0D0F5F1F4FF8016491F2CFB60181E5B8
:102820009AE10E9438F76AE070E081E59AE10E943F
:102830004B0DC5010E945C0DAC960FB6F894DEBF3F
:102840000FBECDBFDF91CF911F910F91FF90EF9001
:10285000DF90CF90BF90AF909F908F907F906F90C0
:102860005F904F903F90089521E0FC01218340E06C
:102870000C940E114F925F926F927F928F929F9263
:10288000AF92BF92CF92DF92EF92FF920F931F937E
:10289000CF93DF93CDB7DEB7AC970FB6F894DEBF1A
:1028A0000FBECDBF7C015B01FC018481882309F44C
:1028B00002C1C70181539E4F0E9484CBF70112824F
:1028C000CE0101966C010E94520D27019FE4490E32
:1028D000511CC701C096F20191838083F50180816C
:1028E0008F3209F07AC06FE270E0C5010F942D04B9
:1028F0008C010F5F1F4F09F476C06FE270E0C801D2
:102900000F942D044C01009709F46EC008171907A5
:1029100008F06AC03C01601A710AA301B801CE0137
:1029200080960F945604E0E2F0E0EC0FFD1FE60DF8
:10293000F71D1082BE01605E7F4F81E59AE10E9423
:1029400038F76AE070E081E59AE10E944B0DF201F0
:10295000608171816115710519F06C5F7F4F02C054
:1029600060E070E021E0AE01405E5F4FCE01059671
:102970000E948DCD81112CC0E5E2F3E064918F01BE
:10298000662361F0772767FD709581E59AE10E94E3
:102990004B0D0F5F1F4FF8016491F2CFBE01605ED7
:1029A0007F4F81E59AE10E9438F7E3E2F3E064911A
:1029B0008F01662309F476C0772767FD709581E55E
:1029C0009AE10E944B0D0F5F1F4FF8016491F1CF08
:1029D000F201D182C08284018CCFC7018F5A9F4FF0
:1029E000F201918380838501F201808191810097BA
:1029F00011F0049602C080E090E0B8010E946DCE14
:102A0000882331F1E5E1F3E064915F01662369F029
:102A1000772767FD709581E59AE10E944B0DFFEFE6
:102A2000AF1ABF0AF5016491F1CFB80181E59AE1CF
:102A30000E9438F76AE070E081E59AE10E944B0D50
:102A4000F701EC57FD4F108211821282138230C0C1
:102A5000EDEFF2E064917F01662369F0772767FD6F
:102A6000709581E59AE10E944B0DFFEFEF1AFF0A86
:102A7000F7016491F1CFB80181E59AE10E9438F73E
:102A8000EBEFF2E064918F01662361F0772767FD39
:102A9000709581E59AE10E944B0D0F5F1F4FF80181
:102AA0006491F2CF6AE070E081E59AE10E944B0DFB
:102AB000C6010E945C0DAC960FB6F894DEBF0FBE47
:102AC000CDBFDF91CF911F910F91FF90EF90DF90DD
:102AD000CF90BF90AF909F908F907F906F905F90BE
:102AE0004F9008950F931F93CF93DF93EC018C8148
:102AF000882309F43EC0E9EEF2E064918F01662379
:102B000061F0772767FD709581E59AE10E944B0D92
:102B10000F5F1F4FF8016491F2CFFE01EC57FD4F9C
:102B200040815181628173812AE030E081E59AE140
:102B30000E942AF8E7EEF2E064918F01662361F0CB
:102B4000772767FD709581E59AE10E944B0D0F5F35
:102B50001F4FF8016491F2CFC458DD4F488159816D
:102B60006A817B812AE030E081E59AE10E942AF8BF
:102B700011C0E7EDF2E06491EF01662359F0772789
:102B800067FD709581E59AE10E944B0D2196FE014B
:102B90006491F3CF6AE070E081E59AE1DF91CF9133
:102BA0001F910F910C944B0DAF92BF92CF92DF9279
:102BB000EF92FF920F931F93CF93DF935C01EB0192
:102BC000FB0101900020E9F78F0101501109061B5C
:102BD000170B6C01F1E3CF1AFEEFDF0AF60110824A
:102BE0006EE470E0CE010F942D047C01009729F46F
:102BF000F8013197EC0FFD1F0DC060E270E00F94FB
:102C00002D04EC0121966AE270E0C7010F942D04B7
:102C1000FC0131978DE081838AE082831382BE01BB
:102C2000C50185539E4F0E943CD0F60180818823C8
:102C300091F1E1E8F4E06491EF01662359F0772720
:102C400067FD709581E59AE10E944B0D2196FE018A
:102C50006491F3CFE1ECF2E06491EF01662359F067
:102C6000772767FD709581E59AE10E944B0D2196CB
:102C7000FE016491F3CF6AE070E081E59AE1DF91B3
:102C8000CF911F910F91FF90EF90DF90CF90BF9069
:102C9000AF900C944B0DDF91CF911F910F91FF904E
:102CA000EF90DF90CF90BF90AF9008952F923F921A
:102CB0004F925F926F927F928F929F92AF92BF924C
:102CC000CF92DF92EF92FF920F931F93CF93DF93F8
:102CD000CDB7DEB7CC55D1090FB6F894DEBF0FBE25
:102CE000CDBF8C0188579D4F5C01662339F0F501FB
:102CF0001082F801848181111EC015C0FC01808101
:102D0000882309F4AEC0F801E058FD4FC080D1809F
:102D1000E280F3800E94B1F1C616D706E806F906F4
:102D200008F49FC0E4CFC8010E94B90FF801848164
:102D3000882309F496C0F80187A58F9386A58F9301
:102D400088EB92E09F938F937E01FFE3EF0EF11CDF
:102D5000FF92EF920F9494040F900F900F900F90AA
:102D60000F900F90B12CF70101900020E9F73197F7
:102D7000EE19FF09BE1684F46701CB0CD11CB7FC19
:102D8000DA94F6018081992787FD90950F94CB0303
:102D9000F6018083B394E7CF4801F4E38F0E911CD2
:102DA00040E050E0BA01C4010E949ECA512CCE01FD
:102DB00001966C0131EB632E32E0732E5E0191E2DD
:102DC000A90EB11C40E050E0B601C4010E94E9C95F
:102DD0001816DCF5412CF60101900020E9F7319737
:102DE000EC19FD094E1674F41601240C311C47FC35
:102DF0003A94F101808190E00F94CB03F10180833C
:102E00004394E9CF8A858E37E9F245E050E0B70177
:102E1000C6010F944804892BA9F6FF92EF927F9286
:102E20006F92BF92AF920F949404C5010E94F8294B
:102E30008DEA92E00E94742A0F900F900F900F90ED
:102E40000F900F9055245394BDCF511004C08FEFB5
:102E50009FEFF80104C0F80186A597A5019697A7F2
:102E600086A7C45ADF4F0FB6F894DEBF0FBECDBFA2
:102E7000DF91CF911F910F91FF90EF90DF90CF9056
:102E8000BF90AF909F908F907F906F905F904F908A
:102E90003F902F9008950F931F93CF93DF93EC01F2
:102EA0008C0101531E4FC8010E9438CBC8010E94FB
:102EB00084CB18821982DF91CF911F910F910895D1
:102EC000EF92FF920F931F93CF93DF93CDB7DEB7AF
:102ED0006F970FB6F894DEBF0FBECDBF8C017C019B
:102EE0008FE4E80EF11CC8018F5A9F4FF7019183C0
:102EF0008083E65CFD4F22E030E031832083329610
:102F000070E07183608340E050E0BA0104960E9453
:102F10009ECAF701808191812BE1FC013496DE018C
:102F2000159601900D922A95E1F7FC01828193811B
:102F30009C838B838AEF9AE09A838983AE014F5FEB
:102F40005F4F63EE79E0C8010E94F30DCE01019658
:102F50000E945C0D6F960FB6F894DEBF0FBECDBF1A
:102F6000DF91CF911F910F91FF90EF900895CF9235
:102F7000DF92EF92FF920F931F93CF93DF93CDB722
:102F8000DEB76F970FB6F894DEBF0FBECDBF8C01D2
:102F90006C012FE4C20ED11C8F5A9F4FF601918312
:102FA0008083E65CFD4F21E030E0318320837801AF
:102FB000F5E7EF1AFDEFFF0AF7011182108240E0FA
:102FC00050E0BA0104960E949ECAF6018081918168
:102FD0002BE1FC013496DE01159601900D922A95A5
:102FE000E1F7FC01828193819C838B838AEF9AE0D5
:102FF0009A838983AE014F5F5F4F63EE79E0C8012A
:103000000E94F30DCE0101960E945C0DF7018081B4
:1030100091816F960FB6F894DEBF0FBECDBFDF91E2
:10302000CF911F910F91FF90EF90DF90CF90089577
:10303000EF92FF920F931F93CF93DF93EC010E94C7
:103040001EDD8E0106511E4FF80180819E01215325
:103050003E4F79018823A9F1C9010E9484CBF80170
:10306000808181508083BE01FDE88F9F600D711DBE
:10307000112461517E4F21E041E0CE010E940E11EA
:10308000F8018081FE0124E0829FE00DF11D1124F2
:10309000E551FE4F4081518162817381FE01EC5701
:1030A000FD4F4083518362837383C7010E949ECA90
:1030B000CE01DF91CF911F910F91FF90EF900C9473
:1030C0009F100E94B1DDC7010E9484CB1A8221E0CB
:1030D00030E045E050E06AE070E080EB90E10E9473
:1030E000DD218AEA92E00E94742A8EE992E00E9431
:1030F000742A809112168823F9F010921216C0914A
:10310000BC0DD0E0CC0FDD1FCB57D64E6881798146
:10311000882777FD8095982F0E946CFB209165028F
:103120003091660240916702509168020E94CDFC86
:10313000181614F419821882DF91CF911F910F9104
:10314000FF90EF900895EF92FF920F931F93CF930C
:10315000DF931F92CDB7DEB78C017B01460FF701DD
:1031600061917F01F8018081918149830F94C606A6
:10317000F8018081918101969183808349814E116C
:10318000EECF0F90DF91CF911F910F91FF90EF90B5
:103190000895EF92FF920F931F93CF93DF931F92A7
:1031A000CDB7DEB78C017B01460FF801808191819C
:1031B00049830F94BE06F70181937F01F801808156
:1031C000918101969183808349814E11EECF0F90BA
:1031D000DF91CF911F910F91FF90EF9008950F9382
:1031E0001F93CF93DF93CDB7DEB768970FB6F894F0
:1031F000DEBF0FBECDBF80E390E3A0E3B0E08D83E0
:103200009E83AF83B88704E610E0188F0F8B44E0ED
:10321000BE016B5F7F4FCE0147960E94A31840E12D
:1032200063E776E1CE0147960E94A31840E163E888
:1032300076E1CE0147960E94A31840E163E676E16D
:10324000CE0147960E94A31844E06BE576E1CE01DB
:1032500047960E94A31844E067E576E1CE014796C1
:103260000E94A31844E06FE576E1CE0147960E94E4
:10327000A31844E067E476E1CE0147960E94A318C4
:1032800044E063E976E1CE0147960E94A31844E04A
:1032900063E576E1CE0147960E94A31844E06FE40F
:1032A00076E1CE0147960E94A31844E06BE476E1F4
:1032B000CE0147960E94A3184CE060ED7DE0CE0160
:1032C00047960E94A31887ED90E09E8B8D8B8DE230
:1032D00090E09C8B8B8B1A8A198A80EF90E0988BF8
:1032E0008F8786E490E09E878D871C861B8642E050
:1032F000BE016B5E7F4FCE0147960E94A31842E04D
:10330000BE016D5E7F4FCE0147960E94A31842E03A
:10331000BE016F5E7F4FCE0147960E94A31842E028
:10332000BE01615F7F4FCE0147960E94A31842E025
:10333000BE01635F7F4FCE0147960E94A31842E013
:10334000BE01655F7F4FCE0147960E94A31844E0FF
:103350006DEB7DE0CE0147960E94A31844E06EE13C
:1033600072E0CE0147960E94A31844E066E272E044
:10337000CE0147960E94A31844E06EE272E0CE01AF
:1033800047960E94A31844E068EB72E0CE0147968E
:103390000E94A31844E064EB72E0CE0147960E94BD
:1033A000A31844E060EB72E0CE0147960E94A31898
:1033B00080E290E09A87898742E0BE01675F7F4F95
:1033C000CE0147960E94A31886E591E3A0E3B0E002
:1033D00089839A83AB83BC83188F0F8B44E0BE0133
:1033E0006F5F7F4FCE0147960E94A318ECE9F6E08D
:1033F00064918F01662361F0772767FD709581E501
:103400009AE10E944B0D0F5F1F4FF8016491F2CFBC
:10341000ECE8F6E064918F01662361F0772767FDA1
:10342000709581E59AE10E944B0D0F5F1F4FF801E7
:103430006491F2CF6AE070E081E59AE10E944B0D61
:1034400068960FB6F894DEBF0FBECDBFDF91CF9167
:103450001F910F9108950F931F93CF93DF93CCE9A2
:10346000D6E0FE0164918E01662361F0772767FD47
:10347000709581E59AE10E944B0D0F5F1F4FF80197
:103480006491F2CFECE7F6E064918F01662361F07E
:10349000772767FD709581E59AE10E944B0D0F5FDC
:1034A0001F4FF8016491F2CF6AE070E081E59AE184
:1034B0000E944B0DFE0164910CE916E0662361F059
:1034C000772767FD709581E59AE10E944B0D0F5FAC
:1034D0001F4FF8016491F2CF40917316509174160A
:1034E000609175167091761684E796E00E948C299B
:1034F00040917716509178166091791670917A16EE
:1035000081E796E00E948C2940917B1650917C16B1
:1035100060917D1670917E168EE696E00E948C2951
:1035200040917F165091801660918116709182169D
:103530008BE696E00E948C2963EE79E081E59AE1C2
:103540000E9438F76AE070E081E59AE10E944B0D35
:10355000FE0164910CE916E0662361F0772767FDB0
:10356000709581E59AE10E944B0D0F5F1F4FF801A6
:103570006491F2CFE1E5F6E064918F01662361F09A
:10358000772767FD709581E59AE10E944B0D0F5FEB
:103590001F4FF8016491F2CF6AE070E081E59AE193
:1035A0000E944B0DFE0164910CE916E0662361F068
:1035B000772767FD709581E59AE10E944B0D0F5FBB
:1035C0001F4FF8016491F2CF4091831650918416F9
:1035D000609185167091861688E496E00E948C2989
:1035E00040918716509188166091891670918A16BD
:1035F00085E496E00E948C2940918B1650918C16A0
:1036000060918D1670918E1682E496E00E948C294E
:1036100040918F165091901660919116709192166C
:103620008FE396E00E948C2963EE79E081E59AE1D0
:103630000E9438F76AE070E081E59AE10E944B0D44
:10364000FE0164910CE916E0662361F0772767FDBF
:10365000709581E59AE10E944B0D0F5F1F4FF801B5
:103660006491F2CFE1E2F6E064918F01662361F0AC
:10367000772767FD709581E59AE10E944B0D0F5FFA
:103680001F4FF8016491F2CF6AE070E081E59AE1A2
:103690000E944B0DFE0164910CE916E0662361F077
:1036A000772767FD709581E59AE10E944B0D0F5FCA
:1036B0001F4FF8016491F2CF409163165091641648
:1036C000609165167091661688E196E00E94D42993
:1036D00040916716509168166091691670916A164C
:1036E00085E196E00E94D42940916B1650916C16AA
:1036F00060916D1670916E1682E196E00E94D42959
:1037000040916F16509170166091711670917216FB
:103710008FE096E00E94D42963EE79E081E59AE19A
:103720000E9438F76AE070E081E59AE10E944B0D53
:10373000FE0164910CE916E0662361F0772767FDCE
:10374000709581E59AE10E944B0D0F5F1F4FF801C4
:103750006491F2CFEAEDF5E064918F01662361F0A8
:10376000772767FD709581E59AE10E944B0D0F5F09
:103770001F4FF8016491F2CF6AE070E081E59AE1B1
:103780000E944B0DFE0164910CE916E0662361F086
:10379000772767FD709581E59AE10E944B0D0F5FD9
:1037A0001F4FF8016491F2CF40915B1650915C1667
:1037B00060915D1670915E1681ED95E00E948C29F6
:1037C00040915716509158166091591670915A169B
:1037D0008EEC95E00E948C2963EE79E081E59AE118
:1037E0000E9438F76AE070E081E59AE10E944B0D93
:1037F000FE0164910CE916E0662361F0772767FD0E
:10380000709581E59AE10E944B0D0F5F1F4FF80103
:103810006491F2CFEBE1F5E064918F01662361F0F2
:10382000772767FD709581E59AE10E944B0D0F5F48
:103830001F4FF8016491F2CF6AE070E081E59AE1F0
:103840000E944B0DFE0164910CE916E0662361F0C5
:10385000772767FD709581E59AE10E944B0D0F5F18
:103860001F4FF8016491F2CF40915F16509160169E
:10387000609161167091621682E195E00E948C2938
:1038800040914716509148166091491670914A161A
:103890008FE095E00E948C294091931650919416E8
:1038A00060919516709196168CE095E00E94D4294F
:1038B00040915316509154166091551670915616BA
:1038C00089E095E00E948C2940914F165091501646
:1038D000609151167091521686E095E00E948C29F5
:1038E00040914B1650914C1660914D1670914E16AA
:1038F00083E095E00E948C2963EE79E081E59AE10E
:103900000E9438F76AE070E081E59AE10E944B0D71
:10391000FE0164910CE916E0662361F0772767FDEC
:10392000709581E59AE10E944B0D0F5F1F4FF801E2
:103930006491F2CFE1EFF4E064918F01662361F0CE
:10394000772767FD709581E59AE10E944B0D0F5F27
:103950001F4FF8016491F2CF6AE070E081E59AE1CF
:103960000E944B0DFE0164910CE916E0662361F0A4
:10397000772767FD709581E59AE10E944B0D0F5FF7
:103980001F4FF8016491F2CF4091D00D5091D10DAD
:103990006091D20D7091D30D88EE94E00E948C2935
:1039A0004091D40D5091D50D6091D60D7091D70DE9
:1039B00085EE94E00E948C294091D80D5091D90D4C
:1039C0006091DA0D7091DB0D82EE94E00E948C29FB
:1039D00063EE79E081E59AE10E9438F76AE070E0F1
:1039E00081E59AE10E944B0DFE0164910CE916E01D
:1039F000662361F0772767FD709581E59AE10E9463
:103A00004B0D0F5F1F4FF8016491F2CFE4EDF4E02E
:103A100064918F01662361F0772767FD709581E5DA
:103A20009AE10E944B0D0F5F1F4FF8016491F2CF96
:103A30006AE070E081E59AE10E944B0DFE01C491BD
:103A40000CE916E0CC2369F06C2F772767FD7095A1
:103A500081E59AE10E944B0D0F5F1F4FF801C49161
:103A6000F1CF4091B8025091B9026091BA027091C1
:103A7000BB028AEC94E00E948C296091B4027091A0
:103A8000B5028091B6029091B7020E941DEAAB0187
:103A9000BC0187EC94E00E948C296091B002709187
:103AA000B1028091B2029091B3020E942BEAAB0165
:103AB000BC0184EC94E00E948C2963EE79E081E5FE
:103AC0009AE10E9438F76AE070E081E59AE1DF91BF
:103AD000CF911F910F910C944B0DAF92BF92CF924B
:103AE000DF92EF92FF920F931F93CF93DF93CDB7A7
:103AF000DEB7E0970FB6F894DEBF0FBECDBF80E112
:103B0000ECEBF2E0DE01919601900D928A95E1F7DF
:103B100080E1ECECF2E0DE01519601900D928A9585
:103B2000E1F780E1ECEDF2E0DE01119601900D92FB
:103B30008A95E1F76E0181E2C80ED11C83E7E82E79
:103B400086E1F82E8E010F5E1F4F63E876E1AE012D
:103B50004F5F5F4F93E6A92E96E1B92E20E030E04B
:103B6000F60181919191A191B1916F01F70181933A
:103B70009193A193B1937F01F80181919191A191CA
:103B8000B1918F01FB0181939193A193B193BF01F7
:103B9000FA0181919191A191B191AF01F5018193C8
:103BA0009193A193B1935F012F5F3F4F2430310573
:103BB000B9F60E949AC480E090E8ABEBB4E480933D
:103BC0005B1690935C16A0935D16B0935E1680E032
:103BD00090E0AAEFB4E48093571690935816A09300
:103BE0005916B0935A1610925F16109260161092E2
:103BF00061161092621680E29EE4A0E0B0E080932D
:103C0000931690939416A0939516B09396161092CF
:103C10004716109248161092491610924A1680E0E4
:103C200090E0A0EAB0E48093531690935416A093CA
:103C30005516B09356164DEC5CEC6CEC7EE340935D
:103C40004F165093501660935116709352168093EE
:103C50004B1690934C16A0934D16B0934E1610929F
:103C6000D80D1092D90D1092DA0D1092DB0D109232
:103C7000D40D1092D50D1092D60D1092D70D109232
:103C8000D00D1092D10D1092D20D1092D30D8AE961
:103C900099E9A9E3B0EC8093BD0D9093BE0DA0937C
:103CA000BF0DB093C00D83E393E3ACE9B3E480931D
:103CB0001E0290931F02A0932002B09321028AE972
:103CC00099E9A9E1BEEB8093260290932702A09385
:103CD0002802B09329028DEC9CECACECBDEB8093F8
:103CE0002E0290932F02A0933002B09331028FE105
:103CF00095E8AFE9B1E48093B8029093B902A0933C
:103D0000BA02B093BB0260E070E080E590E40E94EC
:103D100016EA6093B4027093B5028093B602909352
:103D2000B7026DE37AE085EF91E40E9424EA6093A4
:103D3000B0027093B1028093B2029093B3020E94DA
:103D40009ADF80E090E0A0E8BFE38093AC0290931C
:103D5000AD02A093AE02B093AF02ECE9F6E064913D
:103D60008F01662361F0772767FD709581E59AE101
:103D70000E944B0D0F5F1F4FF8016491F2CFE8E8EE
:103D8000F4E064918F01662361F0772767FD7095F9
:103D900081E59AE10E944B0D0F5F1F4FF80164917E
:103DA000F2CF6AE070E081E59AE1E0960FB6F89410
:103DB000DEBF0FBECDBFDF91CF911F910F91FF905E
:103DC000EF90DF90CF90BF90AF900C944B0D0F937E
:103DD0001F93CF93DF93CDB7DEB768970FB6F894F4
:103DE000DEBF0FBECDBF84E690E0988F8F8B86E557
:103DF00091E3A0E3B0E089839A83AB83BC8344E082
:103E0000BE016B5F7F4FCE0147960E94C91843E009
:103E100050E0BE016B5F7F4FCE0101960F944804C6
:103E2000892B09F0ECC040E163E776E1CE014796CB
:103E30000E94C91840E163E876E1CE0147960E94EE
:103E4000C91840E163E676E1CE0147960E94C918A1
:103E50000E949AC444E06BE576E1CE0147960E9449
:103E6000C91844E067E576E1CE0147960E94C9187B
:103E700044E06FE576E1CE0147960E94C91844E020
:103E800067E476E1CE0147960E94C91844E063E9F1
:103E900076E1CE0147960E94C91844E063E576E1D9
:103EA000CE0147960E94C91844E06FE476E1CE0146
:103EB00047960E94C91844E06BE476E1CE0147962C
:103EC0000E94C9184CE060ED7DE0CE0147960E944B
:103ED000C91842E0BE016B5E7F4FCE0147960E943B
:103EE000C91842E0BE016D5E7F4FCE0147960E9429
:103EF000C91842E0BE016F5E7F4FCE0147960E9417
:103F0000C91842E0BE01615F7F4FCE0147960E9413
:103F1000C91842E0BE01635F7F4FCE0147960E9401
:103F2000C91842E0BE01655F7F4FCE0147960E94EF
:103F3000C91844E06DEB7DE0CE0147960E94C91898
:103F400044E06EE172E0CE0147960E94C91844E059
:103F500066E272E0CE0147960E94C91844E06EE224
:103F600072E0CE0147960E94C91844E068EB72E007
:103F7000CE0147960E94C91844E064EB72E0CE017E
:103F800047960E94C91844E060EB72E0CE01479664
:103F90000E94C91842E0BE01675F7F4FCE0147967D
:103FA0000E94C9180E949ADFECE9F6E064918F0143
:103FB000662361F0772767FD709581E59AE10E949D
:103FC0004B0D0F5F1F4FF8016491F2CFEAEAF4E066
:103FD00064918F01662361F0772767FD709581E515
:103FE0009AE10E944B0D0F5F1F4FF8016491F2CFD1
:103FF0006AE070E081E59AE10E944B0D02C00E94E8
:104000006D1D68960FB6F894DEBF0FBECDBFDF9171
:10401000CF911F910F910895FC01EB58FF4F118232
:1040200010823D979C012D593F4F3183208332965A
:1040300028EE33E03183208332961182108232964B
:104040001182108232961082319611821082089568
:10405000FB01838190E0982F88272481820F911D96
:104060000895FC01E859FF4FA081B1818D599F4F00
:104070008A179B0780F48FEF8C9380819181019741
:10408000918380838091890B90918A0B0197909303
:104090008A0B8093890B08950F931F93CF93DF931F
:1040A0008C01EC01CD58DF4F88819981DC01ED91C5
:1040B000FC910480F581E02D1995892B41F4F801DC
:1040C000E259FF4F8DEF9FEF918380830AC0888173
:1040D0009981DC01ED91FC910680F781E02D199525
:1040E0009927DF91CF911F910F910895FC01E2591B
:1040F000FF4F118210820E944C200895CF93DF93CE
:10410000EC01CE59DF4F28812223D1F09C01205AA7
:104110003F4FF901508146E0FC01459FE00DF11D44
:104120001124DB0101900D924A95E1F7F90180819C
:104130008F5F8F70808388818150888381E001C088
:1041400080E0DF91CF910895CF93DF93EC01CE59BA
:10415000DF4F28812E30D0F49C012F593F4FF901B9
:10416000508146E0DC01459FA00DB11D1124FB01EB
:1041700001900D924A95E1F7F90180818F5F8F7070
:10418000808388818F5F888381E008C0FC01E259C9
:10419000FF4F2BEF3FEF3183208380E0DF91CF9102
:1041A0000895FC01E859FF4F0190F081E02D6083F4
:1041B000635071096230710520F4FC01E059FF4F32
:1041C000108208952091890B30918A0B2F5F3F4F09
:1041D00030938A0B2093890BFC01E859FF4F208113
:1041E00031812F5F3F4F3183208370E00C94D120C9
:1041F000CF92DF92EF92FF921F93CF93DF93EC0168
:104200000E947620182F6E018EE6C80ED11CD601B2
:104210002D913C912D3F3F4F81F4FE01EE59FF4F10
:104220008081882309F45EC0C958DF4FE881F98195
:10423000309709F457C0199555C07E01E8E6EE0E97
:10424000F11CD701ED91FC918081813021F0B0F01B
:10425000823091F01EC0173099F0153121F01630E0
:1042600009F04AC03BC0CE010E9431208CEF9FEF85
:10427000F6019183808340C0153021F01730E1F5BD
:1042800064E004C0CE010E94312063E0CE010E94B0
:10429000E220D701ED91FC9180818350823008F0BB
:1042A00030C07E01F0E7EF0EF11CD7012C912223E4
:1042B00031F18091880B81278093880BE22FF0E009
:1042C000EE57F44F10832530A1F481110DC062E840
:1042D0007BE0CE010E94A420F7011082CE010E9453
:1042E00031200AC080E009C088EF9FEFD6018D938E
:1042F0009C932F5FF701208381E090E002C0812F23
:10430000DBCFDF91CF911F91FF90EF90DF90CF90A7
:104310000895AF92BF92CF92DF92EF92FF920F93E8
:104320001F93CF93DF93EC010E94B1F16B017C01ED
:104330008E0106591F4FD8018D919C91AA2797FD98
:10434000A095BA2FC80ED91EEA1EFB1E5E01B8E664
:10435000AB0EB11C0E94B1F16C157D058E059F0559
:10436000D8F4CE010E94F820019779F40E94B1F1AF
:104370006B017C01F80180819181AA2797FDA095AE
:10438000BA2FC80ED91EEA1EFB1ED501ED91FC9175
:1043900080818111DFCF06C0C259DF4F8FEF9FEFC1
:1043A00099838883DF91CF911F910F91FF90EF90B8
:1043B000DF90CF90BF90AF900895BF92CF92DF92E1
:1043C000EF92FF920F931F93CF93DF938C01D62E22
:1043D000C42E79010E948921F801E259FF4F118210
:1043E0001082E801CD58DF4F88819981DC01ED9181
:1043F000FC910190F081E02D61E01995888199810F
:10440000DC01ED91FC910190F081E02D6D2D19956D
:1044100088819981DC01ED91FC910190F081E02D82
:104420006C2D1995BB24B394BC24BD24888199813B
:10443000DC01ED91FC910190F081E02D6F2D19953B
:10444000BF2488819981FF24DC01ED91FC910190CA
:10445000F081E02D6E2D199588819981DC01ED9117
:10446000FC916B2D6E250190F081E02D199561E096
:10447000C8010E94E220DF91CF911F910F91FF9020
:10448000EF90DF90CF90BF900895AF92BF92CF9200
:10449000DF92EF92FF920F931F93CF93DF935C0114
:1044A0006B017A01EA0109900020E9F72197C41B0A
:1044B000D50BCF3FD10511F00CF04AC00E948921E5
:1044C00085010D581F4FD8018D919C91DC01ED9114
:1044D000FC910190F081E02D62E01995F801808156
:1044E0009181DC01ED91FC910190F081E02D6C2D2A
:1044F0001995B2E0CB26F80180819181DC01ED9124
:10450000FC910190F081E02D6C2F1995CC26DD26D1
:10451000D7016C91F80180819181DC01ED91FC91D2
:104520000190F081E02D662351F01995F7018191FA
:104530007F01992787FD9095C826D926E9CF6C2D54
:10454000199561E0C5010E94E22080E090E002C080
:104550008FEF9FEFDF91CF911F910F91FF90EF9021
:10456000DF90CF90BF90AF90089589589F4FFC0186
:10457000718360830895CF93DF93EC01FC01ED58C4
:10458000FF4F7183608360E00E94E220FE01E05AE9
:10459000FF4F108231961082CE59DF4F1882DF9183
:1045A000CF9108950F931F93CF93DF938C01C3E7AF
:1045B000D6E1F80161917191819191918F012991D9
:1045C0003991499159910E949FFD0E9439FBF80150
:1045D0006487758786879787F6E1C338DF0749F7D1
:1045E000DF91CF911F910F9108952F923F924F929B
:1045F0005F926F927F928F929F92AF92BF92CF9273
:10460000DF92EF92FF920F931F93CF93DF93CDB77B
:10461000DEB73C01CB01BA0118012901F301608327
:104620007183828393830483158326833783C086B3
:10463000D186E286F38684869586A686B78611E0C3
:1046400020E030E0A9010E94CAFA811101C010E007
:1046500020E030E0A901C201B1010E94CAFA88231A
:1046600011F092E001C090E0192B20E030E0A901A8
:10467000C701B6010E94CAFA882311F094E001C074
:1046800090E0192B20E030E0A901C501B4010E949F
:10469000CAFA882311F088E001C080E0182BF301EA
:1046A00011A3C301DF91CF911F910F91FF90EF9064
:1046B000DF90CF90BF90AF909F908F907F906F9042
:1046C0005F904F903F902F900C94D2228F929F92A8
:1046D000AF92BF92CF92DF92EF92FF920F931F9310
:1046E000CF93DF93CDB7DEB7FC0110A20E94F52275
:1046F000DF91CF911F910F91FF90EF90DF90CF90BE
:10470000BF90AF909F908F9008958F929F92AF929D
:10471000BF92CF92DF92EF92FF920F931F93812C63
:10472000912C5401750164010AE919E929E13EE37C
:10473000B501A4018BE89BE00E9466231F910F91B5
:10474000FF90EF90DF90CF90BF90AF909F908F90B1
:104750000895FC01659175918591949108954F920A
:104760005F926F927F928F929F92AF92BF92CF9201
:10477000DF92EF92FF920F931F934090150250909B
:1047800016026090170270901802812C912CEAEFAB
:10479000AE2EE5E4BE2E8092150290921602A092F3
:1047A0001702B09218026093EC0D7093ED0D809398
:1047B000EE0D9093EF0D2093F00D3093F10D40939B
:1047C000F20D5093F30DE092F40DF092F50D00937D
:1047D000F60D1093F70DECEBFDE0FF93EF93F5E58D
:1047E0008F2E982CF5E0AF2EF3E4BF2EA8EFCA2E43
:1047F000ADE0DA2E0E9433B90E941EDD4092150210
:104800005092160260921702709218020F900F9049
:104810001F910F91FF90EF90DF90CF90BF90AF90DE
:104820009F908F907F906F905F904F9008958091B0
:10483000150290911602A0911702B0911802809370
:10484000900D9093910DA093920DB093930D809144
:104850004C0290914D029093FD0D8093FC0D84E6E7
:1048600090E090934D0280934C020E94B1F16093CE
:10487000EF0B7093F00B8093F10B9093F20B81E0B0
:104880000C9481D580E00E9481D58091900D90910B
:10489000910DA091920DB091930D8093150290937C
:1048A0001602A0931702B09318028091FC0D90910C
:1048B000FD0D90934D0280934C020E94B1F16093E4
:1048C000EF0B7093F00B8093F10B9093F20B089524
:1048D0002F923F924F925F926F927F928F929F9210
:1048E000AF92BF92CF92DF92EF92FF920F931F93FE
:1048F000CF93DF938DE692E00E9483EDE6E5F2E050
:104900006081718182819381609315027093160298
:10491000809317029093180220E030E040E752E4C1
:104920000E94D1FA4B015C01C0EFDDE028813981A2
:104930004A815B81ECEEFDE060817181828193812F
:10494000BCEB2B2EBDE03B2E3F922F9218EFC12ED9
:104950001DE0D12EE12CF12C00E211EC0E9433B9C4
:104960000E941EDD82E00E9487DD4B015C012881F0
:1049700039814A815B81ECEEFDE060817181828149
:104980009381850174010E9493C388E49EE00E9494
:10499000A9239B01AC01C501B4010E94F1F92B01CF
:1049A0003C0120E030E040E752E460911502709154
:1049B000160280911702909118020E94D1FA4B01C1
:1049C0005C01288139814A815B81ECEEFDE06081E8
:1049D0007181828193813F922F92830172010E94A3
:1049E00033B90E941EDD20E030E040E85EE3E6E5FA
:1049F000F2E060817181828193810E949FFD4B0171
:104A00005C016093150270931602809317029093D5
:104A1000180288E49EE00E94A9236B017C0120E03B
:104A200030E040E752E4C501B4010E94D1FA4B01E5
:104A30005C01A7019601C701B6010E94F1F99B0133
:104A4000AC01C301B2010E94F0F97B018C01288105
:104A500039814A815B81ECEEFDE060817181828168
:104A600093813F922F92F8EFCF2EFDE0DF2E0E9430
:104A700033B90E941EDD82E00E9487DD7B018C013C
:104A80006093F40D7093F50D8093F60D9093F70DF0
:104A9000288139814A815B81ECEEFDE06081718182
:104AA000828193810E9493C30F900F900F900F907B
:104AB0000F900F90DF91CF911F910F91FF90EF908A
:104AC000DF90CF90BF90AF909F908F907F906F902E
:104AD0005F904F903F902F90089588E59EE00E9450
:104AE000A9232091D00D3091D10D4091D20D50913C
:104AF000D30D0E94F1F90895CF92DF92EF92FF92C9
:104B0000892B31F4FF90EF90DF90CF900C946D25BE
:104B1000C0901E02D0901F02E0902002F09021026F
:104B200020E030E0A901C701B6010E94CDFC1816B3
:104B30003CF0A3E3CA2EDC2CACE9EA2EA3E4FA2E67
:104B4000C701B601FF90EF90DF90CF9008958F924C
:104B50009F92AF92BF92CF92DF92EF92FF920F930C
:104B60001F93CF93DF93009709F0CEC02091BC0D27
:104B7000222329F1822F90E00E947C256093EC0D86
:104B80007093ED0D8093EE0D9093EF0D1092C40D88
:104B90001092C50D1092C60D1092C70D80911E0285
:104BA00090911F02A0912002B091210280933202C5
:104BB00090933302A0933402B0933502E9C0209160
:104BC0000E0230910F022230310509F09DC088E5B8
:104BD0009EE00E94A9232091D00D3091D10D4091EB
:104BE000D20D5091D30D0E94F1F96093EC0D7093AA
:104BF000ED0D8093EE0D9093EF0D80E79EE00E9407
:104C0000A9232091D00D3091D10D4091D20D50911A
:104C1000D30D0E94F1F96093C40D7093C50D80937C
:104C2000C60D9093C70D84E69EE00E94A9232091B3
:104C3000D00D3091D10D4091D20D5091D30D0E94E5
:104C4000F1F94B015C0100911E0210911F02D091FD
:104C50002002C091210223E333E34CE953E4B8017D
:104C60008D2F9C2F0E94CDFC18162CF0B3E3A3E3EC
:104C7000FCE9E3E403C0B02FA12FFE01C0900602BF
:104C8000D0900702E0900802F0900902A701960177
:104C90006B2F7A2F8F2F9E2F0E94F0F99B01AC0172
:104CA000C501B4010E94CAFA87FF0FC084E69EE0E6
:104CB0000E94A9232091D00D3091D10D4091D20DA9
:104CC0005091D30D0E94F1F916C023E333E34CE970
:104CD00053E4B8018D2F9C2F0E94CDFC181624F0B0
:104CE00003E313E3DCE9C3E4A7019601B8018D2FC8
:104CF0009C2F0E94F0F960933202709333028093EC
:104D000034029093350244C0EC01CC0FDD1FCC0F70
:104D1000DD1FCE01885A914F0E94A9239E01245184
:104D2000324F79018E010053124FF80120813181F9
:104D3000428153810E94F1F9F7016083718382837C
:104D40009383CE018059914F0E94A9239E012C5339
:104D5000324F7901F80120813181428153810E94D3
:104D6000F1F9F7016083718382839383CE018C59BB
:104D7000914F0E94A923CE5CDD4FF8012081318143
:104D8000428153810E94F1F9688379838A839B83EE
:104D9000DF91CF911F910F91FF90EF90DF90CF9017
:104DA000BF90AF909F908F9008952F923F924F9217
:104DB0005F926F927F928F929F92AF92BF92CF92AB
:104DC000DF92EF92FF920F931F93CF93DF93CDB7B4
:104DD000DEB728970FB6F894DEBF0FBECDBF1C011B
:104DE000FC01E35CF14F6490009721F0772467FCAD
:104DF00070940BC08091BC0D811104C066246A942C
:104E0000762C03C066246394712CC101880F991F0E
:104E1000880F991F98878F838451924F9C838B832F
:104E2000DC011D921D921D921C921397E090F40DCF
:104E3000F090F50D0091F60D1091F70D2091F00D09
:104E40003091F10D4091F20D5091F30D6091EC0D08
:104E50007091ED0D8091EE0D9091EF0DE8EFCE2E5B
:104E6000EDE0DE2E0E9493C38F819885845B914F85
:104E70000E94A9236B017C01B301882777FD8095EF
:104E8000982F0E946CFB2B013C01EF81F885E755C0
:104E9000F24FFA83E98320E030E040EC5FE3C701A2
:104EA000B6010E949FFDA30192010E949FFDA9816E
:104EB000BA816D937D938D939C931397EF81F885C1
:104EC000E25BFD4FFE83ED8360817181828193817E
:104ED0006093150270931602809317029093180244
:104EE00020E030E040E752E40E94D1FA4B015C013F
:104EF000E090B10DF090B20D0091B30D1091B40D92
:104F00002091AD0D3091AE0D4091AF0D5091B00D8F
:104F10006091A90D7091AA0D8091AB0D9091AC0D8F
:104F2000ACEBBDE0BF93AF93F5EBCF2EFDE0DF2EF2
:104F30000E9433B90E941EDDAB81BC811D921D927F
:104F40001D921C921397E090F40DF090F50D0091D6
:104F5000F60D1091F70D2091F00D3091F10D40916B
:104F6000F20D5091F30D6091EC0D7091ED0D80916B
:104F7000EE0D9091EF0DA8EFCA2EADE0DA2E0E9453
:104F800093C3EF81F885E05CF14FF887EF83CF01A1
:104F90000E94A9239058A30192010E949FFDA9811C
:104FA000BA816D937D938D939C93139720E030E0AD
:104FB00040E752E460911502709116028091170249
:104FC000909118020E94D1FA4B015C01E090B10D62
:104FD000F090B20D0091B30D1091B40D2091AD0D74
:104FE0003091AE0D4091AF0D5091B00D6091A90D73
:104FF0007091AA0D8091AB0D9091AC0DACEBBDE022
:10500000BF93AF93B5EBCB2EBDE0DB2E0E9433B93F
:105010000E941EDD8F8198850E94A9239B01AC010F
:105020000E94F1F9A30192010E949FFDA981BA811A
:105030006D937D938D939C93139720E030E040E037
:105040005FE3ED81FE8160817181828193810E94A5
:105050009FFD609315027093160280931702909340
:10506000180220E030E040E752E40E94D1FA4B0100
:105070005C01E090B10DF090B20D0091B30D109174
:10508000B40D2091AD0D3091AE0D4091AF0D50910A
:10509000B00D6091A90D7091AA0D8091AB0D90910A
:1050A000AC0DACEBBDE0BF93AF930E9433B90E944F
:1050B0001EDDC1010E94A725EB81FC8180819181C9
:1050C000A281B381E981FA8180839183A283B38332
:1050D00010921502109216021092170210921802E6
:1050E0000E947AD5F101EF53F24F81E080830F9057
:1050F0000F900F900F900F900F9028960FB6F89486
:10510000DEBF0FBECDBFDF91CF911F910F91FF90FA
:10511000EF90DF90CF90BF90AF909F908F907F9057
:105120006F905F904F903F902F9008954F925F92B5
:105130006F927F928F929F92AF92BF92CF92DF92A7
:10514000EF92FF920F931F93CF93DF9300D01F92A4
:10515000CDB7DEB72B013C0149015A012091F00D7A
:105160003091F10D4091F20D5091F30D6091EC0DE5
:105170007091ED0D8091EE0D9091EF0D0E94AF2397
:105180008091BC0DC090F40DD090F50DE090F60D1F
:10519000F090F70D20E030E040EC51E4811111C0B7
:1051A000C501B4010E94F0F969837A838B839C83E3
:1051B00020E030E044E951E4C301B2010E94F0F97B
:1051C00010C0C501B4010E94F0F969837A838B8312
:1051D0009C8320E030E04CE851E4C301B2010E941E
:1051E000F1F98701760129813A814B815C810E9426
:1051F000AF230E946824C090F40DD090F50DE0908C
:10520000F60DF090F70DEEEDF6E064918F01662358
:1052100061F0772767FD709581E59AE10E944B0D5B
:105220000F5F1F4FF8016491F2CFE9EDF6E0649152
:105230008F01662361F0772767FD709581E59AE11C
:105240000E944B0D0F5F1F4FF8016491F2CF22E0D7
:1052500030E0B301A20181E59AE10E943FF9E4ED5B
:10526000F6E064918F01662361F0772767FD709502
:1052700081E59AE10E944B0D0F5F1F4FF801649189
:10528000F2CF22E030E0B501A40181E59AE10E946D
:105290003FF9EFECF6E064918F01662361F0772728
:1052A00067FD709581E59AE10E944B0D0F5F1F4FDE
:1052B000F8016491F2CF22E030E0B701A60181E568
:1052C0009AE10E943FF9EDECF6E064918F016623CC
:1052D00061F0772767FD709581E59AE10E944B0D9B
:1052E0000F5F1F4FF8016491F2CFC701B6010F9015
:1052F0000F900F900F90DF91CF911F910F91FF9022
:10530000EF90DF90CF90BF90AF909F908F907F9065
:105310006F905F904F900895CF92DF92EF92FF923F
:10532000CF93DF93EC016A017B01FE016491662358
:1053300049F0772767FD709581E59AE10E944B0D52
:105340002196F3CF22E030E0B701A60181E59AE192
:10535000DF91CF91FF90EF90DF90CF900C943FF9C9
:10536000CF92DF92EF92FF92CF93DF93EC016A012D
:105370007B01FE016491662349F0772767FD7095F4
:1053800081E59AE10E944B0D2196F3CF22E030E0B7
:10539000B701A60181E59AE1DF91CF91FF90EF90EF
:1053A000DF90CF900C943FF9CF92DF92EF92FF9273
:1053B000CF93DF93EC016A017B01FE0164916623C8
:1053C00049F0772767FD709581E59AE10E944B0DC2
:1053D0002196F3CF2AE030E0B701A60181E59AE1FA
:1053E000DF91CF91FF90EF90DF90CF900C942AF84F
:1053F000CF93DF932091F90B3091FA0B24303105D4
:105400000CF06FC04091FB0B5091FC0B60E6649F69
:105410009001659F300D1124BC01C9018D5F934F30
:105420000F944104ECE7FEE06491EF01662359F02C
:10543000772767FD709581E59AE10E944B0D2196D3
:10544000FE016491F3CFE5ECFCE06491EF0166238B
:1054500059F0772767FD709581E59AE10E944B0D21
:105460002196FE016491F3CF8091FB0B9091FC0B90
:1054700020E6289FB001299F700D11246D5F734FA6
:1054800081E59AE10E9438F7E3ECFCE06491EF01DA
:10549000662359F0772767FD709581E59AE10E94B0
:1054A0004B0D2196FE016491F3CF6AE070E081E537
:1054B0009AE10E944B0D8091FB0B9091FC0B0196A1
:1054C00064E070E00E948DFE9093FC0B8093FB0BD8
:1054D0008091F90B9091FA0B01969093FA0B8093BF
:1054E000F90BDF91CF910895CF93DF932091F90BC2
:1054F0003091FA0B243031050CF06FC04091FB0B5A
:105500005091FC0B60E6649F9001659F300D112463
:10551000BC01C9018D5F934F0F94D303ECE7FEE00C
:105520006491EF01662359F0772767FD709581E557
:105530009AE10E944B0D2196FE016491F3CFE8EBB6
:10554000FCE06491EF01662359F0772767FD7095C1
:1055500081E59AE10E944B0D2196FE016491F3CF03
:105560008091FB0B9091FC0B20E6289FB001299FB6
:10557000700D11246D5F734F81E59AE10E9438F739
:10558000E6EBFCE06491EF01662359F0772767FDB5
:10559000709581E59AE10E944B0D2196FE01649180
:1055A000F3CF6AE070E081E59AE10E944B0D8091B3
:1055B000FB0B9091FC0B019664E070E00E948DFE65
:1055C0009093FC0B8093FB0B8091F90B9091FA0B5D
:1055D00001969093FA0B8093F90BDF91CF91089588
:1055E000CF93DF9326E040E950ED63E070E081E582
:1055F0009AE10E942EF5EBEAFCE06491EF0166234C
:1056000059F0772767FD709581E59AE10E944B0D6F
:105610002196FE016491F3CF6AE070E081E59AE1A2
:105620000E944B0DECE7FEE06491EF01662359F018
:10563000772767FD709581E59AE10E944B0D2196D1
:10564000FE016491F3CFE5EAFCE06491EF0166238B
:1056500059F0772767FD709581E59AE10E944B0D1F
:105660002196FE016491F3CF6AE070E081E59AE152
:105670000E944B0D6DE273E081E59AE10E9455F7BF
:1056800026E040E45DE063E070E08EEE9AE10E9487
:105690002EF56EEE7AE180EB90E10E94BB226FE383
:1056A0007CE380EB90E10E94B52261E089E00E94FA
:1056B00084F360E089E00E94BDF364E670E080E07E
:1056C00090E00E94E0F161E089E00E94BDF36CEAA5
:1056D0007DE080E090E00E94E0F168EE73E080E021
:1056E00090E00E94E0F120E030E045E050E06AE028
:1056F00070E080EB90E10E94DD211092FF0B109290
:10570000000C1092010C1092020C0E94E71E61E046
:105710008AE00E9484F360E08AE00E94BDF361E0C9
:105720008AE00E94BDF36FEF70E08CE00E946AF2A5
:105730006FEF70E08BE00E946AF26FEF70E08DE037
:105740000E946AF20E94D8E20E9478B7DF91CF915E
:105750000C947EDCAF92BF92CF92DF92EF92FF92D9
:105760000F931F93CF93DF93CDB7DEB7DA950FB6C4
:10577000F894DEBF0FBECDBF8091D80B81110DC054
:105780000E94B1F16093B20B7093B30B8093B40B92
:105790009093B50B81E08093D80B8091230E8823E2
:1057A00009F4D5C00E94B1F10091B20B1091B30B76
:1057B0002091B40B3091B50B6017710782079307E6
:1057C00008F4F1C160917B1970917C1980917D1969
:1057D00090917E190E9439FBD62EC72E20E030E032
:1057E00040E05FE3609171197091721980917319B3
:1057F000909174190E94F1F90E9439FBB62EA72EE0
:1058000060917719709178198091791990917A192E
:105810000E9439FB7F936F932DE3E22E23E0F22E5B
:10582000FF92EF928E010F5F1F4F1F930F930F9404
:105830006504A80160E070E080EB90E10E944522E1
:10584000CF92DF92FF92EF921F930F930F94650414
:10585000A80162E270E080EB90E10E944522AF92E5
:10586000BF9282E493E09F938F931F930F930F94C3
:105870006504A80169E070E080EB90E10E94452298
:105880000FB6F894DEBF0FBECDBF8091F30F882313
:1058900019F180919D1090919E10A0919F10B09150
:1058A000A0100097A105B105B9F0BC01CD016D595B
:1058B0007F4F8F4F9F4F24E630E040E050E00E9442
:1058C000A1FE6091A5107091A6108091A7109091F3
:1058D000A8100E94A1FE01C020E01F922F9397E420
:1058E000E92E93E0F92EFF92EF921F930F930F94FE
:1058F0006504A80165E270E080EB90E10E9445221A
:1059000080914D028F9380914C028F93FF92EF9282
:105910001F930F930F946504A80164E270E080EB7D
:1059200090E10E9445220E94B1F168577C4E8F4F52
:105930009F4F6093B20B7093B30B8093B40B909313
:10594000B50B0FB6F894DEBF0FBECDBF2CC1809152
:10595000200E882309F427C10E94B1F10091B20BF7
:105960001091B30B2091B40B3091B50B60177107F8
:105970008207930708F417C160917B1970917C1915
:1059800080917D1990917E190E9439FBD62EC72EE9
:1059900020E030E040E05FE360917119709172198E
:1059A00080917319909174190E94F1F90E9439FB4A
:1059B000B62EA72E60917719709178198091791978
:1059C00090917A190E9439FB7F936F938DE3E82EB3
:1059D00083E0F82EFF92EF928E010F5F1F4F1F930F
:1059E0000F930F946504A80168E270E080EB90E1EA
:1059F0000E944522CF92DF92FF92EF921F930F9366
:105A00000F946504A8016AE270E080EB90E10E94C7
:105A10004522AF92BF9282E493E09F938F931F93AE
:105A20000F930F946504A80169E270E080EB90E1A8
:105A30000E9445226091EC0D7091ED0D8091EE0D6C
:105A40009091EF0D0E943EFB9B0140E050E06FE023
:105A500070E080EB90E10E94DD216091F00D70918B
:105A6000F10D8091F20D9091F30D0E943EFB9B0190
:105A700041E050E06FE070E080EB90E10E94DD21BA
:105A80006091F40D7091F50D8091F60D9091F70DE8
:105A90000E943EFB9B0142E050E06FE070E080EB33
:105AA00090E10E94DD216091851970918619882707
:105AB00077FD8095982F0E946CFB20E030E040EA53
:105AC00050E40E94F0F99B01AC010FB6F894DEBFE0
:105AD0000FBECDBF609177197091781980917919B7
