:100000000C94480D0C94790D0C94790D0C94790D89
:100010000C94790D0C94790D0C94790D0C94790D48
:100020000C94790D0C94790D0C94790D0C94790D38
:100030000C94790D0C94790D0C94790D0C94790D28
:100040000C94790D0C9493E40C94790D0C94790D27
:100050000C94790D0C94790D0C94ACF70D94700000
:100060000C94790D0D9499040D94CF040C94790D92
:100070000C94790D0C94790D0C94790D0C94790DE8
:100080000C94790D0C94790D0C94790D0C94790DD8
:100090000C94790D0C94790D0C94790D0C943FFF10
:1000A0000C94790D0C94790D0C94790D0C94790DB8
:1000B0000C94790D0C94790D0C94790D0C94790DA8
:1000C0000C94790D0C94790D0C94790D0D944605D2
:1000D0000D947C050C94790D0C94790D0C94790D8C
:1000E0000C94790D34F841F85DF86AF884F891F8C9
:1000F000ABF8ADF8AFF8B1F8B9F825014B01F50050
:100100001701C9000D01E700F1001501DB001D0119
:100110001301FB00D3000D013D0111010B0123016F
:10012000DD00F7004D011901EF00FD002D012F0149
:10013000D500C7004101EB00F900EF003101CB0011
:100140003F01084AD73B3BCE016E84BCBFFDC12FA7
:100150003D6C74319ABD56833DDA3D00C77F11BEB8
:10016000D9E4BB4C3E916BAAAABE000000803F05BB
:10017000A84CCDB2D44EB93836A9020C50B99186EC
:1001800088083CA6AAAA2ABE000000803F000D9461
:100190006B020D94B7010D9483020D94D2030D945C
:1001A000B0030C945DF80D9408020D9467020D9451
:1001B00030030D943E030D94DB010D9455020D9414
:1001C000F9040C9484F80C9496FE0C94ABF80D94FE
:1001D000C1010C9483FE0D9475020C9412FF0D94D2
:1001E0008C020D94C9010C94D3FE0D94A3010D94BF
:1001F00044020D9479020D94FE010D9459020D9460
:10020000A6050D9403050D9452030C947BFE0C94EB
:100210006A680C9491F80D9426020D9430020C94A7
:1002200041F80D941C020D94EF010D94D1010D9431
:10023000AD010D944E020C94B1F80D94E5010C94AF
:1002400056680C946AF80D9452020D9499010C941E
:10025000AFF80C94A6FE0C94F43C0D945D020D9442
:1002600063020D947F020C9434F80D9425030C94D2
:1002700033DF0C9438240D94B0050D9412020D94C4
:1002800087020D9471020C94B9F80D9403060C9436
:10029000ADF80C94A5FE0D949E010D9448024D38C6
:1002A0003420582059205A2045005430004D323413
:1002B000004D3233202573006175746F25692E67F8
:1002C000006572726F722077726974696E6720744C
:1002D0006F2066696C65004E6F7420534420707205
:1002E000696E74696E67002F005344207072696EE6
:1002F00074696E67206279746520002E0044656C15
:100300006574696F6E206661696C65642C2046694E
:100310006C653A200046696C652064656C6574659F
:10032000643A002E006F70656E206661696C6564CA
:100330002C2046696C653A200057726974696E67B3
:1003400020746F2066696C653A20002E006F70651E
:100350006E206661696C65642C2046696C653A2084
:10036000002E006F70656E206661696C65642C20DC
:1003700046696C653A200046696C652073656C655A
:1003800063746564002053697A653A200046696C9D
:1003900065206F70656E65643A20002E006F706591
:1003A0006E206661696C65642C2046696C653A2034
:1003B000004E6F772066726573682066696C653AD7
:1003C00020004E6F7720646F696E672066696C65E8
:1003D0003A20002220706F73002220706172656ED7
:1003E000743A2200535542524F5554494E452043CA
:1003F000414C4C207461726765743A2200747279C2
:10040000696E6720746F2063616C6C207375622D58
:1004100067636F64652066696C65732077697468CB
:1004200020746F6F206D616E79206C6576656C73DA
:100430002E204D4158206C6576656C2069733A001A
:1004400053442063617264206F6B006F70656E525D
:100450006F6F74206661696C656400766F6C756D92
:10046000652E696E6974206661696C656400534429
:1004700020696E6974206661696C006563686F3A13
:10048000004572726F723A0048617264636F64650E
:10049000642044656661756C742053657474696E7C
:1004A0006773204C6F616465640053746F72656498
:1004B0002073657474696E67732072657472696500
:1004C00076656400205A2000205920002058200022
:1004D0004F66667365747320286D6D293A00204459
:1004E000002049002020204D333031205000504959
:1004F000442073657474696E67733A00205A002053
:10050000590020204D323036205800486F6D65204C
:100510006F666673657420286D6D293A002045006A
:10052000205A0020580020420020540020204D3244
:100530003035205300416476616E636564207661D6
:10054000726961626C65733A20533D4D696E206635
:100550006565647261746520286D6D2F73292C2088
:10056000543D4D696E2074726176656C20666565D8
:10057000647261746520286D6D2F73292C20423DB3
:100580006D696E696D756D207365676D656E74203C
:1005900074696D6520286D73292C20583D6D617834
:1005A000696D756D205859206A65726B20286D6DD4
:1005B0002F73292C20205A3D6D6178696D756D204F
:1005C0005A206A65726B20286D6D2F73292C2020AC
:1005D000453D6D6178696D756D2045206A65726B6A
:1005E00020286D6D2F73290020540020204D3230BB
:1005F00034205300416363656C65726174696F6E8A
:100600003A20533D616363656C65726174696F6E16
:100610002C20543D7265747261637420616363655C
:100620006C65726174696F6E00204500205A00206D
:10063000590020204D3230312058004D6178696DCD
:10064000756D20416363656C65726174696F6E20BE
:10065000286D6D2F7332293A00204500205A002062
:10066000590020204D3230332058004D6178696D9B
:10067000756D2066656564726174657320286D6DA3
:100680002F73293A00204500205A002059002020CD
:100690004D39322058005374657073207065722094
:1006A000756E69743A0053657474696E677320538C
:1006B000746F726564006563686F3A005072696EAA
:1006C0007465722068616C7465642E206B696C6C53
:1006D00028292063616C6C656421006F6B00526592
:1006E00073656E643A20000A00207A3A200020796F
:1006F0003A200020783A2000426564002200556EBE
:100700006B6E6F776E20636F6D6D616E643A202241
:1007100000486F74656E64206F6666736574733A23
:10072000005A204F6666736574203A20007A5F6D28
:1007300061783A20007A5F6D696E3A20005A204F46
:100740006666736574005A204F6666736574206F21
:100750006B00486F74656E64206F666673657473B2
:100760003A007A5F6D696E3A2000795F6D61783A80
:100770002000785F6D61783A2000785F6D696E3A8D
:100780002000205A3A0020593A0020436F756E74B9
:1007900020583A200020453A00205A3A0020593A81
:1007A00000583A004649524D574152455F4E414D1F
:1007B000453A4D61726C696E2056313B2053707220
:1007C000696E7465722F6772626C206D61736875F3
:1007D0007020666F722067656E36204649524D570D
:1007E0004152455F55524C3A68747470733A2F2FDA
:1007F0006769746875622E636F6D2F4572696B5AF5
:10080000616C6D2F4D61726C696E2F2050524F5488
:100810004F434F4C5F56455253494F4E3A312E305D
:10082000204D414348494E455F545950453A4D6526
:100830006E64656C2045585452554445525F434F91
:10084000554E543A3220555549443A3030303030C4
:100850003030302D303030302D303030302D3030A1
:1008600030302D3030303030303030303030300AB1
:100870000020423A0020453A00543A0020573A00FE
:1008800020453A00543A002042403A0020403A00C5
:10089000202F003A00205400202F0020423A002050
:1008A0002F006F6B20543A000A0A005374616E6483
:1008B00061726420446576696174696F6E3A2000E4
:1008C0000A004D65616E3A20000A002020207A3A25
:1008D000200000793A2000783A20003F5370656389
:1008E0006966696564206E756D626572206F662049
:1008F0006C65677320696E206D6F76656D656E74CB
:10090000206E6F7420706C61757361626C652E0A65
:10091000003F537065636966696564205920706F94
:10092000736974696F6E206F7574206F66207261D1
:100930006E67652E0A003F5370656369666965647A
:10094000205820706F736974696F6E206F75742002
:100950006F662072616E67652E0A003F5370656393
:1009600069666965642073616D706C652073697A6E
:1009700065206E6F7420706C61757361626C652E9A
:100980000A0046756C6C20737570706F727420610C
:10099000743A20687474703A2F2F33647072696EE1
:1009A00074626F6172642E636F6D2F666F72756D06
:1009B0002E7068700A004D3438205A2D50726F62C4
:1009C00065205265706561746162696C6974792033
:1009D000746573742E20202056657273696F6E20C3
:1009E000322E30300A003F566572626F7365204CBC
:1009F0006576656C206E6F7420706C6175736162D2
:100A00006C652E0A002569206D696E2C20256920F1
:100A100073656300456E642066696C65206C69735C
:100A20007400426567696E2066696C65206C697345
:100A300074000A00205A3A200020593A2000205819
:100A40003A200042656400486F6D6520582F592098
:100A50006265666F7265205A000A0020616E7469D3
:100A6000686F726172690A3A200020686F72617261
:100A7000690A20002F3800766F6C7465732000209F
:100A8000566F6C74657320636172676F6C20333AC4
:100A9000200020616E7469686F726172690A3A2081
:100AA0000020686F726172690A20002F3800766F2B
:100AB0006C746573200020566F6C746573206361DD
:100AC00072676F6C20323A200020616E7469686F23
:100AD000726172690A3A200020686F726172690A55
:100AE00020002F3800766F6C746573200020566FDD
:100AF0006C74657320636172676F6C20313A2000FB
:100B00000A0020647A333A200020647A323A2000C6
:100B100020647A313A20000A00207A633A200048A3
:100B20006F6D6520582F59206265666F7265205A77
:100B300000486F6D6520582F59206265666F726599
:100B4000205A004732382058302059300047323878
:100B500020583020593000256920686F7572732045
:100B60002569206D696E7574657300446F6E65202C
:100B70007072696E74696E672066696C65004736CD
:100B800039005072696E7465722073746F7070658D
:100B9000642064756520746F206572726F72732EA5
:100BA0002046697820746865206572726F722061D2
:100BB0006E6420757365204D39393920746F207249
:100BC0006573746172742E202854656D706572614E
:100BD000747572652069732072657365742E205375
:100BE000657420697420616674657220726573741F
:100BF000617274696E6729006F6B004E6F204C69DB
:100C00006E65204E756D6265722077697468206329
:100C10006865636B73756D2C204C617374204C692F
:100C20006E653A20004E6F20436865636B73756D87
:100C30002077697468206C696E65206E756D6265D9
:100C4000722C204C617374204C696E653A200063ED
:100C50006865636B73756D206D69736D617463682E
:100C60002C204C617374204C696E653A20004C69ED
:100C70006E65204E756D626572206973206E6F74AB
:100C8000204C617374204C696E65204E756D6265F1
:100C9000722B312C204C617374204C696E653A20A4
:100CA000004D31313000446F6E6520736176696E9E
:100CB000672066696C652E006F6B004D32390073DA
:100CC000746172740030312D302E302E35002200C8
:100CD000656E717565696E672022002200656E7110
:100CE0007565696E672022004D38342058205920E0
:100CF0005A2045004734330047323800473430002B
:100D000047323800473238205830205930004732B7
:100D10003820583020593000473430005430004DCE
:100D200035303000473433005431004D3530300019
:100D300047343100473431004D35303000473431CD
:100D4000004D353030004D353030004D35303000FD
:100D50004D353030004D353030004D353030004DA0
:100D6000353030004D353030004D353030004D35A8
:100D70003030004D353030004734300047343000DB
:100D80004D35303000473430004D35303000473479
:100D900031004D35303000473431004D35303000B2
:100DA000473431004D35303000473431004D353057
:100DB0003000473431004D35303000473431004D7C
:100DC00035303000473431004D3530300047343154
:100DD000004D35303000473431004D35303000475C
:100DE0003431004D3530300054300054300047333A
:100DF0003400543000473238205830004733340034
:100E000054300047323820583000473334005430D3
:100E10000047323820583000473334005430004700
:100E200032380047343300473238205800473334D3
:100E300000473238004732382058302059300047B8
:100E40003238205830205930004D3234004D323382
:100E5000202573004D383420582059205A20450051
:100E60004D31303700543000473238205830205947
:100E70003000543000543100473730004D383420B2
:100E8000582059205A2045004D3130370054300049
:100E90004732382058302059300047323800FF019F
:100EA000FF0000A0400000A0400000004033F39786
:100EB00043008093430000524300000000008093F1
:100EC000430000000033F397430080934300005237
:100ED000430000000000000000000000006563689F
:100EE0006F3A004572726F723A0020636F6C642033
:100EF000657874727573696F6E2070726576656E51
:100F0000746564006563686F3A007C3C3E5E2B3D0F
:100F10003F2F5B5D3B2C2A225C00205A3A0020596F
:100F20003A0020583A00656E6473746F70732068DD
:100F300069743A200024F4D43050C38E20C2A240F9
:100F400017828B7011127A910D816CD90AA861E118
:100F500008C7586607615143061E4B5D05C145A78A
:100F6000041A411104093D9803713931034036DBFD
:100F70000265339102D4305402802E1D02632CEEA0
:100F800001752AC501B028A001102781018F2564B1
:100F9000012B244B01E0223401AC211F018D200DD7
:100FA00001801FFC00841EED00971DDF00B81CD2DD
:100FB00000E61BC600201BBC00641AB200B219A8D0
:100FC000000A19A0006A189900D117910040178BE8
:100FD00000B516840031167E00B31579003A1573FA
:100FE00000C7146F0058146A00EE1366008813637C
:100FF0000025135E00C7125B006C125700151254D7
:1010000000C111510070114F0021114B00D6104941
:10101000008D1047004610440002104200C00F40EF
:1010200000800F3E00420F3C00060F3B00CB0E3805
:1010300000930E37005C0E3500270E3400F30D329E
:1010400000C10D3100900D3000600D2E00320D2DCD
:1010500000050D2C00D90C2B00AE0C2900850C29A5
:10106000005C0C2700350C27000E0C2600E80B2432
:1010700000C40B2400A00B23007D0B23005A0B217E
:1010800000390B2100180B2000F80A1F00D90A1E96
:1010900000BB0A1E009D0A1D00800A1D00630A1C79
:1010A00000470A1B002C0A1B00110A1A00F7091A34
:1010B00000DD091900C4091900AB091900920917CC
:1010C000007B091800630917004C09160036091641
:1010D00000200916000A091500F5081500E008149B
:1010E00000CC081400B8081400A4081400900813D9
:1010F000007D0812006B0813005808120046081201
:101100000034081100230811001208110001081111
:1011100000F0071000E0071000D0071000C0071013
:1011200000B0070F00A107100091070E0083070F02
:101130000074070F0065070E0057070E0049070EE1
:10114000003B070D002E070E0020070D0013070DB2
:101150000006070D00F9060C00ED060D00E0060C78
:1011600000D4060C00C8060C00BC060C00B0060C2F
:1011700000A4060B0099060C008D060B0082060BDE
:101180000077060B006C060B0061060A0057060B81
:10119000004C060A0042060A0038060A002E060A1B
:1011A0000024060A001A060A001006090007060AAB
:1011B00000FD050900F4050900EB050900E2050939
:1011C00000D9050900D0050900C7050900BE0509B9
:1011D00000B5050800AD050800A50509009C050837
:1011E00000940508008C050800840508007C0508AB
:1011F00000740508006C050700650508005D05071B
:1012000000560508004E0507004705070040050881
:101210000038050700310507002A050700230507E8
:10122000001C050600160507000F05070008050647
:101230000002050700FB040600F5040700EE0406A3
:1012400000E8040600E2040700DB040600D50406FB
:1012500000CF040600C9040600C3040600BD04064E
:1012600000B7040600B1040500AC040600A604069D
:1012700000A00405009B04060095040500900406E8
:10128000008A04050085040500800406007A040530
:101290000075040500700405006B04050066040574
:1012A00000610405005C04050057040500520405B4
:1012B000004D04050048040500430405003E0404F5
:1012C000003A04050035040500300404002C040530
:1012D0000027040400230405001E0404001A04046B
:1012E0000016040500110404000D0404000904059F
:1012F000000404040000040400FC030400F80304D8
:1013000000F4030400F0030400EC030400E8030409
:1013100000E4030400E0030400DC030400D8030439
:1013200000D4030400D0030400CC030400C803036A
:1013300000C503030024F404D9201BC40C5C0E98E0
:1013400004C4095F0265077101F405F900FB04B3E9
:101350000048048700C10369005803550003034592
:1013600000BE023A008402310053022A00290225FD
:101370000004022000E4011C00C8011900AF01179D
:101380000098011400840113007101100061011024
:101390000051010E0043010D0036010B002B010B23
:1013A0000020010B00150109000C010900030108D0
:1013B00000FB000800F3000800EB000700E4000653
:1013C00000DE000600D8000600D2000600CC0005B2
:1013D00000C7000500C2000500BD000400B90004FC
:1013E00000B5000400B1000400AD000400A9000431
:1013F00000A5000300A20003009F0004009B00035F
:101400000098000300950002009300030090000381
:10141000008D0002008B000300880002008600029D
:101420000084000300810002007F0002007D0002B2
:10143000007B0002007900020077000100760002C4
:10144000007400020072000100710002006F0002CF
:10145000006D0001006C0002006A000100690002DA
:1014600000670001006600010065000100640002E1
:10147000006200010061000100600001005F0002E5
:10148000005D0001005C0001005B0001005A0001EA
:1014900000590001005800010057000100560001EA
:1014A00000550001005400010053000000530001EA
:1014B000005200010051000100500001004F0001E6
:1014C000004E0000004E0001004D0001004C0001E4
:1014D000004B0000004B0001004A000100490001E0
:1014E00000480000004800010047000100460000DD
:1014F00000460001004500000045000100440001D5
:1015000000430000004300010042000000420001CF
:10151000004100000041000100400001003F0000C8
:10152000003F0001003E0000003E0001003D0000C1
:10153000003D0001003C0000003C0000003C0001B8
:10154000003B0000003B0001003A0000003A0001AF
:1015500000390000003900010038000000380000A8
:10156000003800010037000000370001003600009D
:101570000036000000360001003500000035000094
:101580000035000100340000003400000034000188
:10159000003300000033000000330001003200007F
:1015A0000032000000320001003100000031000074
:1015B0000031000100300000003000000030000168
:1015C000002F0000002F0000002F0000002F00015E
:1015D000002E0000002E0000002E0001002D000053
:1015E000002D0000002D0000002D0001002C000047
:1015F000002C0000002C0000002C0001002B00003B
:10160000002B0000002B0000002B0001002A00002E
:10161000002A0000002A0000002A00010029000022
:101620000029000000290000002900000029000115
:10163000002800000028000000280000002800000A
:1016400000280001002700000027000000270000FC
:1016500000270000002700010026000000260000EF
:1016600000260000002600000026000100250000E2
:1016700000250000002500000025000000250000D6
:1016800000250001002400000024000000240000C8
:1016900000240000002400010023000000230000BB
:1016A00000230000002300000023000000230000AE
:1016B00000230001002200000022000000220000A0
:1016C0000022000000220000002200010021000092
:1016D0000021000000210000002100000021000086
:1016E0000021000000210001002000000020000077
:1016F000002000000020000000200000002000006A
:101700000020000000200001001F0000001F00005A
:10171000001F0000001F0000001F0000001F00004D
:10172000001F0001001E0000001E0000001E00003F
:10173000001E0000006563686F3A00504944204174
:1017400075746F74756E652066696E69736865641B
:10175000212050757420746865206C617374204B6F
:10176000702C204B6920616E64204B6420636F6E87
:101770007374616E74732066726F6D2061626F7630
:101780006520696E746F20436F6E6669677572615C
:1017900074696F6E2E6800504944204175746F74EF
:1017A000756E65206661696C6564212074696D657C
:1017B0006F75740020403A006F6B20543A006F6BD5
:1017C00020423A00504944204175746F74756E652B
:1017D000206661696C6564212054656D7065726175
:1017E0007475726520746F6F206869676800204B9C
:1017F000643A2000204B693A2000204B703A2000C8
:1018000020436C6173736963205049442000205465
:10181000753A2000204B753A2000206D61783A20FF
:1018200000206D696E3A200020643A200020626931
:1018300061733A200070012C0190012701B0012250
:1018400001C0011D01F00118011002130130020E48
:10185000016002090190020401C002FF000003FAC6
:10186000004003F5008003F000D003EB002004E605
:10187000007004E100E004DC004005D700C005D2A0
:10188000004006CD00D006C8008007C3003008BE67
:1018900000F008B900C009B400B00AAF00B00BAA4C
:1018A00000D00CA500000EA000500F9B00C01096A9
:1018B000005012910000148C00C0158700B01782F0
:1018C00000B0197D00D01B7800001E730040206E10
:1018D0000090226900F024640040275F0090295A9C
:1018E00000E02B5500102E500020304B00103246E7
:1018F00000E033410090353C00103737007038323B
:1019000000A0392D00B03A2800A03B2300603C1E07
:1019100000103D1900903D1400103E0F00703E0A6B
:1019200000C03E0500003F000000000A0B02090C49
:101930000D0E080703040100000000000000000075
:101940000000000000000000000000000000000097
:101950000000000000121110000000000000000054
:101960000000000000000000000000000000000176
:1019700002102020080810204010204080020102A0
:101980000108040201010204081020408080402068
:1019900010080402018004020180402010080402A3
:1019A0000108040201010204081020408001020421
:1019B00008102040800505050507050808080802ED
:1019C0000202020A0A0808040404040101010101D8
:1019D0000101010303030303030303040707070CC7
:1019E0000C0C0C0C0C0C0C0202020206060606067D
:1019F0000606060B0B0B0B0B0B0B0B00002000233A
:101A000000260029002C002F0032000001000003F6
:101A1000010601090100002200250028002B002EEC
:101A2000003100340002010000050108010B010033
:101A3000002100240027002A002D0030003300017F
:101A4000010000040107010A014E414E494E49546C
:101A500059494E46CDCCCC3D0AD7233C17B7D13897
:101A600077CC2B329595E6241FB14F0A0000204118
:101A70000000C84200401C4620BCBE4CCA1B0E5A87
:101A8000AEC59D743824566812FF01013B016A6897
:101A900011241FBECFEFD1E2DEBFCDBF00E00CBFEF
:101AA0001BE0A0E0B2E0E0E3FDE202E00BBF02C019
:101AB00007900D92A63FB107D9F72CE1A6EFBBE046
:101AC00001C01D92AE32B207E1F71AE1CEE8DAE1C9
:101AD00000E006C022970109FE010BBF0F94040E1F
:101AE000C438D10780E00807A9F70F94F4050D94D6
:101AF00086160C940000DC01ED91FC910190F081C0
:101B0000E02D1994FC0114821782138212828FE651
:101B10009BE09183808308952FE63BE0FC013183B5
:101B200020832781222319F004960C948DDA0895DE
:101B3000CF92DF92EF92FF920F931F93CF93DF9399
:101B4000EC01895A9F4F0E94820DCE0188589F4F09
:101B50000E94820D7E0127E9E20EF11C87016E01D1
:101B600033E3C31A3EEFD30AC8010E94820D015E1F
:101B70001F4F0C151D05C1F7FE01E153FE4F89E112
:101B8000818314823596178ACE018E509E4F0E9413
:101B9000820DFE01ED55FD4F1082118212821382DB
:101BA000389610821182128213821A821B821C8242
:101BB000188219826E0189E5C81A8DEFD80AF601DC
:101BC0001082118212821382F80111821082FE01AA
:101BD000EF5EFD4F108286E391E0F7019C011192C8
:101BE00021503040E1F7FE01E155FD4F81E0808357
:101BF000CB5ADF4F198218820F94BA0068577C4E77
:101C00008F4F9F4FF6016083718382839383DF91AF
:101C1000CF911F910F91FF90EF90DF90CF9008959B
:101C2000FC0120E03EE2DB014C91403241F02830E3
:101C300011F430833196DB014C91408331962F5F54
:101C40006F5F7F4F2B3079F7108208952F923F926C
:101C50004F925F926F927F928F929F92AF92BF92BC
:101C6000CF92DF92EF92FF920F931F93CF93DF9368
:101C7000CDB7DEB7C858D1090FB6F894DEBF0FBE96
:101C8000CDBF8C016B017A01CA57DF4F1882C6584D
:101C9000D04084E0E80EF11C180192E1290E311CBD
:101CA000F801EC5AFF4FC957DF4FF983E883C75853
:101CB000D0405801F0E5AF1AFDEFBF0A38018EE4BD
:101CC000681A8DEF780A80E4482E512C4C0E5D1E68
:101CD00094E0490E511CA101BE016F5F7F4FC70107
:101CE0000E94F2D818160CF013C12C85322F3871CF
:101CF000303109F099C0F5018081918101970297F7
:101D000008F492C0BE016F5F7F4FCE0187589F4F8E
:101D10000E94100EA0961FAEA097F601808181113F
:101D200007C063EF72E0CE01815A9F4F0F942B13CF
:101D3000B601CE01815A9F4F0F942B13BE016758F5
:101D40007F4FCE01815A9F4F0F942B1363EF72E0A8
:101D5000CE01815A9F4F0F942B13CE01805C9F4F71
:101D60000E94820D21E0AE0147585F4FB701C201CA
:101D70000E9496DC811131C0F50180819181892B0F
:101D800061F5EBE7F4E064914F01662369F0772792
:101D900067FD70958EEE9AE10E947B0DFFEF8F1A22
:101DA0009F0AF4016491F1CF65EF72E08EEE9AE143
:101DB0000F9441066AE070E08EEE9AE10E947B0D7E
:101DC000BE0167587F4F8EEE9AE10F9441066AE09C
:101DD00070E08EEE9AE10E947B0D8BE1FE01EC5BE0
:101DE000FF4FDE01959601900D928A95E1F72496BA
:101DF0008EAD9FAD24979CA38BA38FE69BE09AA307
:101E000089A3AE014F5D5F4FBE01615A7F4FC8018C
:101E10000E94260ECE0181960E948C0DCE01805C20
:101E20009F4F0E948C0D57CF8981882309F470C081
:101E3000853E09F450CF8E3209F44DCF8F3509F429
:101E40004ACFF8018289882331F08E3209F443CFDA
:101E50008F3509F440CF23FD3ECF81E0303109F0CA
:101E600080E0C957DF4FE881F981C758D0408083AF
:101E7000811108C08985873409F02DCF8A858E3776
:101E800009F429CF4801F5E08F0E911CBE016F5F68
:101E90007F4FC4010E94100EF5018081918100974F
:101EA00089F4B6018EEE9AE10F944106B4018EEEEC
:101EB0009AE10F9441066AE070E08EEE9AE10E948A
:101EC0007B0D09CF8130910539F4F3018081918137
:101ED000019691838083FFCE029709F0FCCECA570A
:101EE000DF4FF881C658D0402F2F30E0F3018081BA
:101EF00091812817390761F0CA57DF4FF881C6581A
:101F0000D040FF5FCA57DF4FF883C658D040E3CEBA
:101F1000C857DF4F0FB6F894DEBF0FBECDBFDF91BD
:101F2000CF911F910F91FF90EF90DF90CF90BF90D6
:101F3000AF909F908F907F906F905F904F903F9069
:101F40002F9008950F931F93CF93DF93CDB7DEB7F4
:101F50006F970FB6F894DEBF0FBECDBF8C01FC01AA
:101F6000E055FD4F1182108240E050E0BA01855AE1
:101F70009F4F0E94A7D9C801895A9F4F2BE1FC01AE
:101F80003496DE01159601900D922A95E1F7FC0139
:101F9000828193819C838B838FE69BE09A838983E4
:101FA000AE014F5F5F4F6CE97AE0C8010E94260ED8
:101FB000CE0101960E948C0D6F960FB6F894DEBF8D
:101FC0000FBECDBFDF91CF911F910F9108952BE1EF
:101FD000FB013496DC01149601900D922A95E1F7ED
:101FE000FB0122813381FC01338322830895EF9228
:101FF000FF920F931F93CF93DF93EC011C82FC01A0
:10200000E25AFF4F8081882329F0CE01855A9F4FE5
:102010000E948DDA7E0181E3E81A8EEFF80A45E32B
:1020200060E0C7010E94E5D481113EC0EBE7F4E017
:1020300064918F01662361F0772767FD70958EEEBE
:102040009AE10E947B0D0F5F1F4FF8016491F2CF60
:10205000EEE6F4E064918F01662361F0772767FD77
:1020600070958EEE9AE10E947B0D0F5F1F4FF80175
:102070006491F2CF6AE070E08EEE9AE10E947B0DEF
:102080008E01095A1F4FB801CE0188589F4F0E94F8
:10209000E70FCA58DF4F19830883DF91CF911F9153
:1020A0000F91FF90EF9008958E010C521E4F41E06A
:1020B000B701C8010E94A7E281112CC040E0B7011E
:1020C000C8010E94A7E2811125C0E1E8F4E0649113
:1020D0008F01662361F0772767FD70958EEE9AE198
:1020E0000E947B0D0F5F1F4FF8016491F2CFEBE56B
:1020F000F4E064918F01662309F4BCCF772767FD74
:1021000070958EEE9AE10E947B0D0F5F1F4FF801D4
:102110006491F1CFB801CE01855A9F4F0E9492D7AA
:10212000811125C0E1E8F4E064918F01662361F03C
:10213000772767FD70958EEE9AE10E947B0D0F5F09
:102140001F4FF8016491F2CFEBE4F4E064918F014A
:10215000662309F48FCF772767FD70958EEE9AE19D
:102160000E947B0D0F5F1F4FF8016491F1CF81E05A
:102170008C83EBE7F4E064918F01662361F07727AD
:1021800067FD70958EEE9AE10E947B0D0F5F1F4FE9
:10219000F8016491F2CFE0E4F4E064918F016623EA
:1021A00009F468CF772767FD70958EEE9AE10E945B
:1021B0007B0D0F5F1F4FF8016491F1CFFC0112827C
:1021C00014820895FC018481882319F081E08283C0
:1021D00013820895FC018281882319F0128281E024
:1021E00083830895AF92BF92CF92DF92EF92FF92D6
:1021F0000F931F93CF93DF931F92CDB7DEB78C0160
:102200008FE2FB0181935F01D12C41E07801F3E380
:10221000EF1AFEEFFF0A9FE1C92E2D2D30E0F701E6
:102220008081918128173907D8F4C29EC001C39ECE
:10223000900D112485569F4FB501800F911F498342
:102240000E9437D7C50149815C010196F5012081C3
:10225000222321F04D3810F44F5FF6CFD394DDCF19
:1022600047FD11C0B501C8018A509E4F0F90DF9104
:10227000CF911F910F91FF90EF90DF90CF90BF9083
:10228000AF900C9437D7F50110820F90DF91CF916A
:102290001F910F91FF90EF90DF90CF90BF90AF9084
:1022A00008953F924F925F926F927F928F929F928A
:1022B000AF92BF92CF92DF92EF92FF920F931F9354
:1022C000CF93DF93CDB7DEB7AC970FB6F894DEBFF0
:1022D0000FBECDBF8C016B01342EFC01848188239D
:1022E00009F4EEC2E750FE4F8081882309F413C140
:1022F0002111DAC07801FFEEEF1AFDEFFF0AF701B6
:102300008081882309F435C0E1E8F4E064918F010D
:10231000662361F0772767FD70958EEE9AE10E9443
:102320007B0D0F5F1F4FF8016491F2CFEDEFF3E0EB
:1023300064918F01662361F0772767FD70958EEEBB
:102340009AE10E947B0D0F5F1F4FF8016491F2CF5D
:102350004AE050E061E070E08EEE9AE10F941307DE
:102360006AE070E08EEE9AE10E947B0D0E94B33825
:10237000A7C2EBE7F4E064915F01662369F0772779
:1023800067FD70958EEE9AE10E947B0DFFEFAF1A0C
:10239000BF0AF5016491F1CFE4EEF3E064915F01CF
:1023A000662369F0772767FD70958EEE9AE10E94AB
:1023B0007B0DFFEFAF1ABF0AF5016491F1CFB601B3
:1023C0008EEE9AE10F944106E9EDF3E064915F012E
:1023D000662369F0772767FD70958EEE9AE10E947B
:1023E0007B0DFFEFAF1ABF0AF5016491F1CFF70142
:1023F00080812DE8B22EB801B89E600D711D1124A8
:102400006A5E7D4FC8010E94F210F7018081B80119
:10241000B89E600D711D11246A5E7D4F8EEE9AE1AB
:102420000F944106E3EDF3E064915F01662369F0E8
:10243000772767FD70958EEE9AE10E947B0DFFEF86
:10244000AF1ABF0AF5016491F1CF5801F5E5AF1A53
:10245000FDEFBF0AF50140815181628173812AE05D
:1024600030E08EEE9AE10F9433076AE070E08EEE72
:102470009AE10E947B0DF7012081F80184E0289FFA
:10248000E00DF11D1124AF014E5E5D4FF50180811D
:102490009181A281B381FA0180839183A283B38366
:1024A0002F5FF701208331C0EBE7F4E064917F01F7
:1024B000662369F0772767FD70958EEE9AE10E949A
:1024C0007B0DFFEFEF1AFF0AF7016491F1CFE2EC09
:1024D000F3E064917F01662369F0772767FD7095CB
:1024E0008EEE9AE10E947B0DFFEFEF1AFF0AF701D3
:1024F0006491F1CFB6018EEE9AE10F9441066AE045
:1025000070E08EEE9AE10E947B0DC8018A509E4FCA
:102510000E948DDA35C0F801EF5EFD4F1082EBE7C7
:10252000F4E064917F01662369F0772767FD709579
:102530008EEE9AE10E947B0DFFEFEF1AFF0AF70182
:102540006491F1CFE1EBF3E064917F01662369F0E0
:10255000772767FD70958EEE9AE10E947B0DFFEF65
:10256000EF1AFF0AF7016491F1CFB6018EEE9AE1FE
:102570000F9441066AE070E08EEE9AE10E947B0DB6
:10258000F8011282CE0101965C010E94820D2801A1
:1025900096E7490E511CC801895A9F4FF201918359
:1025A0008083F60180818F3209F07EC06FE270E097
:1025B000C6010F94361301967C01E114F10409F46D
:1025C00079C06FE270E0C7010F9436134C01009799
:1025D00009F471C0E816F90608F06DC03C016E18E8
:1025E0007F08A301B701CE0180960F945F13E0E24C
:1025F000F0E0EC0FFD1FE60DF71D1082BE01605EDE
:102600007F4F8EEE9AE10F9441066AE070E08EEE05
:102610009AE10E947B0DF201608171816115710563
:1026200019F06C5F7F4F02C060E070E021E0AE0106
:10263000405E5F4FCE0105960E9496DC81112CC052
:10264000EDE9F3E064918F01662361F0772767FD80
:1026500070958EEE9AE10E947B0D0F5F1F4FF8017F
:102660006491F2CFBE01605E7F4F8EEE9AE10F94CF
:102670004106EBE9F3E064918F01662309F417C189
:10268000772767FD70958EEE9AE10E947B0D0F5FB4
:102690001F4FF8016491F1CFF201B182A082740161
:1026A000FFEFEF1AFF0A89CFC80188589F4FF20148
:1026B000918380837601C8018A509E4F4C01F201BC
:1026C00060817181332009F4A0C06115710519F092
:1026D0006C5F7F4F02C060E070E021E0A701C401A1
:1026E0000E9496DC882309F466C0F40181899289EE
:1026F000A389B489F801ED55FD4F80839183A283AE
:10270000B383EDE8F3E064914F01C8018D559D4F0F
:102710006C01662369F0772767FD70958EEE9AE16C
:102720000E947B0D9FEF891A990AF4016491F1CF01
:10273000B7018EEE9AE10F944106E5E8F3E064916B
:102740007F01662369F0772767FD70958EEE9AE129
:102750000E947B0DFFEFEF1AFF0AF7016491F1CFA2
:10276000F60140815181628173812AE030E08EEE72
:102770009AE10F9433076AE070E08EEE9AE10E94CE
:102780007B0DF801E555FD4F1082118212821382F4
:10279000E7E7F3E064918F01662309F488C07727A7
:1027A00067FD70958EEE9AE10E947B0D0F5F1F4FC3
:1027B000F8016491F1CFE3E6F3E064918F016623C1
:1027C00061F0772767FD70958EEE9AE10E947B0D90
:1027D0000F5F1F4FF8016491F2CFB7018EEE9AE1BF
:1027E0000F944106E1E6F3E064918F01662309F45A
:1027F0005EC0772767FD70958EEE9AE10E947B0D93
:102800000F5F1F4FF8016491F1CF6115710519F049
:102810006C5F7F4F02C060E070E026E5A701C40155
:102820000E9496DC811129C0EDE4F3E064918F01F0
:10283000662361F0772767FD70958EEE9AE10E941E
:102840007B0D0F5F1F4FF8016491F2CFB7018EEE41
:102850009AE10F944106EBE4F3E064918F01662363
:1028600031F1772767FD70958EEE9AE10E947B0D1E
:102870000F5F1F4FF8016491F2CF81E0F801808370
:10288000E9E3F3E064918F01662361F0772767FD48
:1028900070958EEE9AE10E947B0D0F5F1F4FF8013D
:1028A0006491F2CFB6018EEE9AE10F9441066AE090
:1028B00070E08EEE9AE10E947B0DC5010E948C0DA6
:1028C000AC960FB6F894DEBF0FBECDBFDF91CF91AF
:1028D0001F910F91FF90EF90DF90CF90BF90AF903E
:1028E0009F908F907F906F905F904F903F90089552
:1028F00021E0FC01218340E00C9451114F925F9242
:102900006F927F928F929F92AF92BF92CF92DF92FF
:10291000EF92FF920F931F93CF93DF93CDB7DEB764
:10292000AC970FB6F894DEBF0FBECDBF7C015B0144
:10293000FC018481882309F403C1C7018A509E4F9A
:102940000E948DDAF7011282CE0101966C010E947D
:10295000820D270196E7490E511CC701895A9F4FE6
:10296000F20191838083F50180818F3209F07AC072
:102970006FE270E0C5010F9436138C010F5F1F4F9B
:1029800009F476C06FE270E0C8010F9436134C0171
:10299000009709F46EC00817190708F06AC03C01D7
:1029A000601A710AA301B801CE0180960F945F13DB
:1029B000E0E2F0E0EC0FFD1FE60DF71D1082BE0116
:1029C000605E7F4F8EEE9AE10F9441066AE070E000
:1029D0008EEE9AE10E947B0DF2016081718161159A
:1029E000710519F06C5F7F4F02C060E070E021E07C
:1029F000AE01405E5F4FCE0105960E9496DC8111CC
:102A00002CC0E5E2F3E064918F01662361F0772743
:102A100067FD70958EEE9AE10E947B0D0F5F1F4F50
:102A2000F8016491F2CFBE01605E7F4F8EEE9AE1B5
:102A30000F944106E3E2F3E064918F01662309F409
:102A400076C0772767FD70958EEE9AE10E947B0D28
:102A50000F5F1F4FF8016491F1CFF201D182C08264
:102A600084018CCFC70188589F4FF20191838083E6
:102A70008501F20180819181009711F0049602C0D6
:102A800080E090E0B8010E9476DD882331F1E5E135
:102A9000F3E064915F01662369F0772767FD709525
:102AA0008EEE9AE10E947B0DFFEFAF1ABF0AF5018F
:102AB0006491F1CFB8018EEE9AE10F9441066AE07D
:102AC00070E08EEE9AE10E947B0DF701E555FD4F17
:102AD000108211821282138230C0EDEFF2E0649115
:102AE0007F01662369F0772767FD70958EEE9AE186
:102AF0000E947B0DFFEFEF1AFF0AF7016491F1CFFF
:102B0000B8018EEE9AE10F944106EBEFF2E064918A
:102B10008F01662361F0772767FD70958EEE9AE14D
:102B20000E947B0D0F5F1F4FF8016491F2CF6AE0A6
:102B300070E08EEE9AE10E947B0DC6010E948C0D22
:102B4000AC960FB6F894DEBF0FBECDBFDF91CF912C
:102B50001F910F91FF90EF90DF90CF90BF90AF90BB
:102B60009F908F907F906F905F904F9008950F93FC
:102B70001F93CF93DF93EC018C81882309F43EC02F
:102B8000E9EEF2E064918F01662361F0772767FD3B
:102B900070958EEE9AE10E947B0D0F5F1F4FF8013A
:102BA0006491F2CFFE01E555FD4F40815181628174
:102BB00073812AE030E08EEE9AE10F943307E7EE5E
:102BC000F2E064918F01662361F0772767FD7095CD
:102BD0008EEE9AE10E947B0D0F5F1F4FF80164910A
:102BE000F2CFCD55DD4F488159816A817B812AE042
:102BF00030E08EEE9AE10F94330711C0E7EDF2E07A
:102C00006491EF01662359F0772767FD70958EEE8A
:102C10009AE10E947B0D2196FE016491F3CF6AE058
:102C200070E08EEE9AE1DF91CF911F910F910C949D
:102C30007B0DAF92BF92CF92DF92EF92FF920F93F4
:102C40001F93CF93DF935C01EB01FB010190002008
:102C5000E9F78F0101501109061B170B6C01FAE00F
:102C6000CF1AFEEFDF0AF60110826EE470E0CE01AB
:102C70000F9436137C01009729F4F8013197EC0F7B
:102C8000FD1F0DC060E270E00F943613EC01219639
:102C90006AE270E0C7010F943613FC0131978DE0B2
:102CA00081838AE082831382BE01C5018E509E4FCC
:102CB0000E9445DFF6018081882391F1E1E8F4E08C
:102CC0006491EF01662359F0772767FD70958EEECA
:102CD0009AE10E947B0D2196FE016491F3CFE1EC15
:102CE000F2E06491EF01662359F0772767FD709554
:102CF0008EEE9AE10E947B0D2196FE016491F3CF46
:102D00006AE070E08EEE9AE1DF91CF911F910F9112
:102D1000FF90EF90DF90CF90BF90AF900C947B0D21
:102D2000DF91CF911F910F91FF90EF90DF90CF90A7
:102D3000BF90AF9008952F923F924F925F926F9203
:102D40007F928F929F92AF92BF92CF92DF92EF923B
:102D5000FF920F931F93CF93DF93CDB7DEB7CC5580
:102D6000D1090FB6F894DEBF0FBECDBF4C018C0168
:102D700001551D4F662339F0F8011082F40184815A
:102D800081111EC015C0F8018081882309F4B0C0EC
:102D9000F401E955FD4FC080D180E280F3800F94AB
:102DA000BA00C616D706E806F90608F4A1C0E4CFB3
:102DB000C4010E94F70FF4018481882309F498C0AC
:102DC0007401F5E5EF0EF11CF70181818F9380818D
:102DD0008F9388EB92E09F938F938E01015C1F4F3E
:102DE0001F930F930F949D130F900F900F900F90C0
:102DF0000F900F90B12CF80101900020E9F7319766
:102E0000E01BF10BBE1684F46801CB0CD11CB7FC9F
:102E1000DA94F6018081992787FD90950F94D4125A
:102E2000F6018083B394E7CFFBE58F0E911C40E061
:102E300050E0BA01C4010E94A7D9512CCE010196DD
:102E40006C0131EB632E32E0732E5E0191E2A90E2C
:102E5000B11C40E050E0B601C4010E94F2D818163F
:102E6000DCF5412CF60101900020E9F73197EC19CF
:102E7000FD094E1674F41601240C311C47FC3A94DB
:102E8000F101808190E00F94D412F101808343948A
:102E9000E9CF8A858E37E9F245E050E0B801C601F6
:102EA0000F945113892BA9F61F930F937F926F9262
:102EB000BF92AF920F949D13C5010E94A3278DEA84
:102EC00092E00E941F280F900F900F900F900F908C
:102ED0000F9055245394BDCF511004C08FEF9FEF36
:102EE000F70104C0F701808191810196918380836D
:102EF000C45ADF4F0FB6F894DEBF0FBECDBFDF91CF
:102F0000CF911F910F91FF90EF90DF90CF90BF90E6
:102F1000AF909F908F907F906F905F904F903F9079
:102F20002F9008950F931F93CF93DF93EC018C01A3
:102F30000A501E4FC8010E9441DAC8010E948DDA72
:102F400018821982DF91CF911F910F910895EF920E
:102F5000FF920F931F93CF93DF93CDB7DEB76F9799
:102F60000FB6F894DEBF0FBECDBF8C017C0186E7A3
:102F7000E80EF11CC80188589F4FF70191838083A8
:102F8000E65CFD4F22E030E031832083329670E032
:102F90007183608340E050E0BA0104960E94A7D993
:102FA000F701808191812BE1FC013496DE011596B9
:102FB00001900D922A95E1F7FC01828193819C8317
:102FC0008B838FE69BE09A838983AE014F5F5F4FCF
:102FD0006CE97AE0C8010E94260ECE0101960E949B
:102FE0008C0D6F960FB6F894DEBF0FBECDBFDF918C
:102FF000CF911F910F91FF90EF900895CF92DF92A4
:10300000EF92FF920F931F93CF93DF93CDB7DEB76D
:103010006F970FB6F894DEBF0FBECDBF8C016C0169
:1030200026E7C20ED11C88589F4FF60191838083FA
:10303000E65CFD4F21E030E0318320837801FEE43F
:10304000EF1AFDEFFF0AF7011182108240E050E015
:10305000BA0104960E94A7D9F601808191812BE1E3
:10306000FC013496DE01159601900D922A95E1F748
:10307000FC01828193819C838B838FE69BE09A8302
:103080008983AE014F5F5F4F6CE97AE0C8010E940F
:10309000260ECE0101960E948C0DF7018081918150
:1030A0006F960FB6F894DEBF0FBECDBFDF91CF9104
:1030B0001F910F91FF90EF90DF90CF900895EF92C6
:1030C000FF920F931F93CF93DF93EC010E9427ECA5
:1030D0008E010F5E1D4FF80180819E012A503E4FE8
:1030E00079018823A9F1C9010E948DDAF801808154
:1030F00081508083BE01FDE88F9F600D711D1124FA
:103100006A5E7D4F21E041E0CE010E945111F8013D
:103110008081FE0124E0829FE00DF11D1124EE5E0E
:10312000FD4F4081518162817381FE01E555FD4F64
:103130004083518362837383C7010E94A7D9CE0164
:10314000DF91CF911F910F91FF90EF900C94E210BF
:103150000E94BAECC7010E948DDA1A8221E030E0A9
:1031600045E050E06AE070E082E591E10E94902243
:103170008AEA92E00E941F288EE992E00E941F28AE
:103180008091AF168823F9F01092AF16C091320EDD
:10319000D0E0CC0FDD1FCE5DD54E688179818827C8
:1031A00077FD8095982F0F94750A209167023091D2
:1031B00068024091690250916A020F94D60B18166A
:1031C00014F419821882DF91CF911F910F91FF9013
:1031D000EF900895EF92FF920F931F93CF93DF9399
:1031E0001F92CDB7DEB78C017B01460FF7016191CD
:1031F0007F01F8018081918149830F94CF15F801F7
:103200008081918101969183808349814E11EECF17
:103210000F90DF91CF911F910F91FF90EF90089544
:10322000EF92FF920F931F93CF93DF931F92CDB72F
:10323000DEB78C017B01460FF801808191814983C3
:103240000F94C715F70181937F01F8018081918167
:1032500001969183808349814E11EECF0F90DF91CB
:10326000CF911F910F91FF90EF9008950F931F93AF
:10327000CF93DF93CDB7DEB768970FB6F894DEBF74
:103280000FBECDBF80E390E3A0E3B0E08D839E83CB
:10329000AF83B88704E610E0188F0F8B44E0BE01BF
:1032A0006B5F7F4FCE0147960E94EA1840E160E1D4
:1032B00077E1CE0147960E94EA1840E160E277E1AB
:1032C000CE0147960E94EA1840E160E077E1CE0126
:1032D00047960E94EA1844E068EF76E1CE014796EF
:1032E0000E94EA1844E064EF76E1CE0147960E941E
:1032F000EA1844E06CEF76E1CE0147960E94EA18A6
:1033000044E064EE76E1CE0147960E94EA1844E07C
:1033100060E377E1CE0147960E94EA1844E060EF4F
:1033200076E1CE0147960E94EA1844E06CEE76E121
:10333000CE0147960E94EA1844E068EE76E1CE019D
:1033400047960E94EA184CE069E47EE0CE01479679
:103350000E94EA1887ED90E09E8B8D8B8DE290E0C5
:103360009C8B8B8B1A8A198A80EF90E0988B8F87C1
:1033700086E490E09E878D871C861B8642E0BE0116
:103380006B5E7F4FCE0147960E94EA1842E0BE0175
:103390006D5E7F4FCE0147960E94EA1842E0BE0163
:1033A0006F5E7F4FCE0147960E94EA1842E0BE0151
:1033B000615F7F4FCE0147960E94EA1842E0BE014E
:1033C000635F7F4FCE0147960E94EA1842E0BE013C
:1033D000655F7F4FCE0147960E94EA1844E066E39E
:1033E0007EE0CE0147960E94EA1844E06EE172E06A
:1033F000CE0147960E94EA1844E066E272E0CE01F0
:1034000047960E94EA1844E06EE272E0CE014796C9
:103410000E94EA1844E06AEB72E0CE0147960E94EF
:10342000EA1844E066EB72E0CE0147960E94EA1883
:1034300044E062EB72E0CE0147960E94EA1880E217
:1034400090E09A87898742E0BE01675F7F4FCE0197
:1034500047960E94EA1886E591E3A0E3B0E08983ED
:103460009A83AB83BC83188F0F8B44E0BE016F5FE0
:103470007F4FCE0147960E94EA18E6EBF6E0649192
:103480008F01662361F0772767FD70958EEE9AE1D4
:103490000E947B0D0F5F1F4FF8016491F2CFE6EAA7
:1034A000F6E064918F01662361F0772767FD7095E0
:1034B0008EEE9AE10E947B0D0F5F1F4FF801649121
:1034C000F2CF6AE070E08EEE9AE10E947B0D689682
:1034D0000FB6F894DEBF0FBECDBFDF91CF911F9125
:1034E0000F9108950F931F93CF93DF93C6EBD6E010
:1034F000FE0164918E01662361F0772767FD709568
:103500008EEE9AE10E947B0D0F5F1F4FF8016491D0
:10351000F2CFE6E9F6E064918F01662361F0772748
:1035200067FD70958EEE9AE10E947B0D0F5F1F4F35
:10353000F8016491F2CF6AE070E08EEE9AE10E94A9
:103540007B0DFE01649106EB16E0662361F07727A0
:1035500067FD70958EEE9AE10E947B0D0F5F1F4F05
:10356000F8016491F2CF40911017509111176091BA
:103570001217709113178EE896E00E94372740913A
:1035800014175091151760911617709117178BE843
:1035900096E00E94372740911817509119176091B3
:1035A0001A1770911B1788E896E00E943727409100
:1035B0001C1750911D1760911E1770911F1785E8F9
:1035C00096E00E9437276CE97AE08EEE9AE10F943C
:1035D00041066AE070E08EEE9AE10E947B0DFE01EA
:1035E000649106EB16E0662361F0772767FD70951E
:1035F0008EEE9AE10E947B0D0F5F1F4FF8016491E0
:10360000F2CFEBE6F6E064918F01662361F0772755
:1036100067FD70958EEE9AE10E947B0D0F5F1F4F44
:10362000F8016491F2CF6AE070E08EEE9AE10E94B8
:103630007B0DFE01649106EB16E0662361F07727AF
:1036400067FD70958EEE9AE10E947B0D0F5F1F4F14
:10365000F8016491F2CF40912017509121176091A9
:1036600022177091231782E696E00E943727409137
:1036700024175091251760912617709127178FE511
:1036800096E00E94372740912817509129176091A2
:103690002A1770912B178CE596E00E9437274091EE
:1036A0002C1750912D1760912E1770912F1789E5C7
:1036B00096E00E9437276CE97AE08EEE9AE10F944B
:1036C00041066AE070E08EEE9AE10E947B0DFE01F9
:1036D000649106EB16E0662361F0772767FD70952D
:1036E0008EEE9AE10E947B0D0F5F1F4FF8016491EF
:1036F000F2CFEBE3F6E064918F01662361F0772768
:1037000067FD70958EEE9AE10E947B0D0F5F1F4F53
:10371000F8016491F2CF6AE070E08EEE9AE10E94C7
:103720007B0DFE01649106EB16E0662361F07727BE
:1037300067FD70958EEE9AE10E947B0D0F5F1F4F23
:10374000F8016491F2CF40910017509101176091F8
:1037500002177091031782E396E00E947F27409141
:1037600004175091051760910617709107178FE2A3
:1037700096E00E947F2740910817509109176091A9
:103780000A1770910B178CE296E00E947F274091F8
:103790000C1750910D1760910E1770910F1789E259
:1037A00096E00E947F276CE97AE08EEE9AE10F9412
:1037B00041066AE070E08EEE9AE10E947B0DFE0108
:1037C000649106EB16E0662361F0772767FD70953C
:1037D0008EEE9AE10E947B0D0F5F1F4FF8016491FE
:1037E000F2CFE4EFF5E064918F01662361F0772773
:1037F00067FD70958EEE9AE10E947B0D0F5F1F4F63
:10380000F8016491F2CF6AE070E08EEE9AE10E94D6
:103810007B0DFE01649106EB16E0662361F07727CD
:1038200067FD70958EEE9AE10E947B0D0F5F1F4F32
:10383000F8016491F2CF4091F8165091F916609119
:10384000FA167091FB168BEE95E00E943727409197
:10385000F4165091F5166091F6167091F71688EEF1
:1038600095E00E9437276CE97AE08EEE9AE10F949A
:1038700041066AE070E08EEE9AE10E947B0DFE0147
:10388000649106EB16E0662361F0772767FD70957B
:103890008EEE9AE10E947B0D0F5F1F4FF80164913D
:1038A000F2CFE5E3F5E064918F01662361F07727BD
:1038B00067FD70958EEE9AE10E947B0D0F5F1F4FA2
:1038C000F8016491F2CF6AE070E08EEE9AE10E9416
:1038D0007B0DFE01649106EB16E0662361F077270D
:1038E00067FD70958EEE9AE10E947B0D0F5F1F4F72
:1038F000F8016491F2CF4091FC165091FD16609151
:10390000FE167091FF168CE295E00E9437274091D9
:10391000E4165091E5166091E6167091E71689E27B
:1039200095E00E94372740913017509131176091F0
:1039300032177091331786E295E00E947F274091FD
:10394000F0165091F1166091F2167091F31683E221
:1039500095E00E9437274091EC165091ED1660914A
:10396000EE167091EF1680E295E00E9437274091A5
:10397000E8165091E9166091EA167091EB168DE108
:1039800095E00E9437276CE97AE08EEE9AE10F9479
:1039900041066AE070E08EEE9AE10E947B0DFE0126
:1039A000649106EB16E0662361F0772767FD70955A
:1039B0008EEE9AE10E947B0D0F5F1F4FF80164911C
:1039C000F2CFEBE0F5E064918F01662361F0772799
:1039D00067FD70958EEE9AE10E947B0D0F5F1F4F81
:1039E000F8016491F2CF6AE070E08EEE9AE10E94F5
:1039F0007B0DFE01649106EB16E0662361F07727EC
:103A000067FD70958EEE9AE10E947B0D0F5F1F4F50
:103A1000F8016491F2CF4091490E50914A0E6091A5
:103A20004B0E70914C0E82E095E00E94372740913A
:103A30004D0E50914E0E60914F0E7091500E8FEFC3
:103A400094E00E9437274091510E5091520E6091A0
:103A5000530E7091540E8CEF94E00E9437276CE95E
:103A60007AE08EEE9AE10F9441066AE070E08EEE05
:103A70009AE10E947B0DFE01649106EB16E066233D
:103A800061F0772767FD70958EEE9AE10E947B0DBD
:103A90000F5F1F4FF8016491F2CFEEEEF4E06491F6
:103AA0008F01662361F0772767FD70958EEE9AE1AE
:103AB0000E947B0D0F5F1F4FF8016491F2CF6AE007
:103AC00070E08EEE9AE10E947B0DFE01649106EBA0
:103AD00016E0662361F0772767FD70958EEE9AE118
:103AE0000E947B0D0F5F1F4FF8016491F2CF409150
:103AF000BA025091BB026091BC027091BD0284EE8B
:103B000094E00E9437276091B6027091B7028091CD
:103B1000B8029091B9020E9426F9AB01BC0181EE76
:103B200094E00E9437276091B2027091B3028091B5
:103B3000B4029091B5020E9434F9AB01BC018EED44
:103B400094E00E9437276CE97AE08EEE9AE10F94B8
:103B500041066AE070E08EEE9AE10E947B0DFE0164
:103B6000649106EB16E0662361F0772767FD709598
:103B70008EEE9AE10E947B0D0F5F1F4FF80164915A
:103B8000F2CFE0EDF4E064918F01662361F07727D6
:103B900067FD70958EEE9AE10E947B0D0F5F1F4FBF
:103BA000F8016491F2CF6AE070E08EEE9AE10E9433
:103BB0007B0DFE01C49106EB16E0CC2369F06C2F5F
:103BC000772767FD70958EEE9AE10E947B0D0F5F5F
:103BD0001F4FF801C491F1CF40911E0250911F0276
:103BE00060912002709121028CEC94E00E943727B2
:103BF000409126025091270260912802709129027B
:103C000088EC94E00E94372740912E0250912F02B9
:103C1000609130027091310284EC94E00E94372769
:103C20006CE97AE08EEE9AE10F9441066AE070E06A
:103C30008EEE9AE1DF91CF911F910F910C947B0D45
:103C4000AF92BF92CF92DF92EF92FF920F931F93AA
:103C5000CF93DF93CDB7DEB7E0970FB6F894DEBF12
:103C60000FBECDBF80E1EEEBF2E0DE019196019058
:103C70000D928A95E1F780E1EEECF2E0DE015196DB
:103C800001900D928A95E1F780E1EEEDF2E0DE0120
:103C9000119601900D928A95E1F76E0181E2C80EAE
:103CA000D11C80E1E82E87E1F82E8E010F5E1F4FB8
:103CB00060E277E1AE014F5F5F4F90E0A92E97E1A0
:103CC000B92E20E030E0F60181919191A191B1915E
:103CD0006F01F70181939193A193B1937F01F80153
:103CE00081919191A191B1918F01FB018193919368
:103CF000A193B193BF01FA0181919191A191B191E9
:103D0000AF01F50181939193A193B1935F012F5F6F
:103D10003F4F24303105B9F60E94A3D380E090E8EC
:103D2000ABEBB4E48093F8169093F916A093FA16CF
:103D3000B093FB1680E090E0AAEFB4E48093F41611
:103D40009093F516A093F616B093F7161092FC1602
:103D50001092FD161092FE161092FF1680E29EE45D
:103D6000A0E0B0E08093301790933117A093321702
:103D7000B09333171092E4161092E5161092E616DF
:103D80001092E71680E090E0A0EAB0E48093F0168D
:103D90009093F116A093F216B093F3164DEC5CECF1
:103DA0006CEC7EE34093EC165093ED166093EE16A8
:103DB0007093EF168093E8169093E916A093EA1695
:103DC000B093EB161092510E1092520E1092530EA9
:103DD0001092540E10924D0E10924E0E10924F0EE5
:103DE0001092500E1092490E10924A0E10924B0EE5
:103DF00010924C0E8AE999E9A9E3B0EC8093360E53
:103E00009093370EA093380EB093390E83E393EF5F
:103E1000A7E9B3E480931E0290931F02A0932002AF
:103E2000B09321028AE999E9A9E1BEEB80932602C9
:103E300090932702A0932802B09329028DEC9CEC6A
:103E4000ACECBDEB80932E0290932F02A093300236
:103E5000B09331028CE59FE8A2E7B1E48093BA0207
:103E60009093BB02A093BC02B093BD0261EE7AE7CF
:103E700084E99FE30E941FF96093B6027093B70232
:103E80008093B8029093B9026FE175E885E492E4FB
:103E90000E942DF96093B2027093B3028093B40232
:103EA0009093B5020E94A3EE80E090E0A0E8BFE30B
:103EB0008093AE029093AF02A093B002B093B10290
:103EC000E6EBF6E064918F01662361F0772767FDEA
:103ED00070958EEE9AE10E947B0D0F5F1F4FF801E7
:103EE0006491F2CFE8E8F4E064918F01662361F019
:103EF000772767FD70958EEE9AE10E947B0D0F5F2C
:103F00001F4FF8016491F2CF6AE070E08EEE9AE103
:103F1000E0960FB6F894DEBF0FBECDBFDF91CF9114
:103F20001F910F91FF90EF90DF90CF90BF90AF90D7
:103F30000C947B0D0F931F93CF93DF93CDB7DEB718
:103F400068970FB6F894DEBF0FBECDBF84E690E051
:103F5000988F8F8B86E591E3A0E3B0E089839A8305
:103F6000AB83BC8344E0BE016B5F7F4FCE014796BD
:103F70000E94101943E050E0BE016B5F7F4FCE01FD
:103F800001960F945113892B09F0ECC040E160E1D8
:103F900077E1CE0147960E94101940E160E277E197
:103FA000CE0147960E94101940E160E077E1CE0112
:103FB00047960E9410190E94A3D344E068EF76E16F
:103FC000CE0147960E94101944E064EF76E1CE01DD
:103FD00047960E94101944E06CEF76E1CE014796B7
:103FE0000E94101944E064EE76E1CE0147960E94EB
:103FF000101944E060E377E1CE0147960E94101962
:1040000044E060EF76E1CE0147960E94101944E04B
:104010006CEE76E1CE0147960E94101944E068EEFE
:1040200076E1CE0147960E9410194CE069E47EE0EB
:10403000CE0147960E94101942E0BE016B5E7F4F91
:10404000CE0147960E94101942E0BE016D5E7F4F7F
:10405000CE0147960E94101942E0BE016F5E7F4F6D
:10406000CE0147960E94101942E0BE01615F7F4F6A
:10407000CE0147960E94101942E0BE01635F7F4F58
:10408000CE0147960E94101942E0BE01655F7F4F46
:10409000CE0147960E94101944E066E37EE0CE010F
:1040A00047960E94101944E06EE172E0CE014796F7
:1040B0000E94101944E066E272E0CE0147960E9429
:1040C000101944E06EE272E0CE0147960E9410198A
:1040D00044E06AEB72E0CE0147960E94101944E07A
:1040E00066EB72E0CE0147960E94101944E062EB45
:1040F00072E0CE0147960E94101942E0BE01675F50
:104100007F4FCE0147960E9410190E94A3EEE6EB66
:10411000F6E064918F01662361F0772767FD709563
:104120008EEE9AE10E947B0D0F5F1F4FF8016491A4
:10413000F2CFEAEAF4E064918F01662361F0772719
:1041400067FD70958EEE9AE10E947B0D0F5F1F4F09
:10415000F8016491F2CF6AE070E08EEE9AE10E947D
:104160007B0D02C00E94201E68960FB6F894DEBF39
:104170000FBECDBFDF91CF911F910F910895FC012C
:10418000EB58FF4F118210823D979C012D593F4FF4
:1041900031832083329628EE33E0318320833296B8
:1041A00011821082329611821082329610823196DC
:1041B000118210820895FB01838190E0982F882757
:1041C0002481820F911D0895FC01E859FF4FA081C1
:1041D000B1818D599F4F8A179B0780F48FEF8C9385
:1041E000808191810197918380838091FD0B9091D3
:1041F000FE0B01979093FE0B8093FD0B08950F9398
:104200001F93CF93DF938C01EC01CD58DF4F888152
:104210009981DC01ED91FC910480F581E02D1995E7
:10422000892B41F4F801E259FF4F8DEF9FEF918305
:1042300080830AC088819981DC01ED91FC91068020
:10424000F781E02D19959927DF91CF911F910F915B
:104250000895FC01E259FF4F118210820E94FF2055
:104260000895CF93DF93EC01CE59DF4F28812223AD
:10427000D1F09C01205A3F4FF901508146E0FC01EA
:10428000459FE00DF11D1124DB0101900D924A952F
:10429000E1F7F90180818F5F8F7080838881815081
:1042A000888381E001C080E0DF91CF910895CF93B2
:1042B000DF93EC01CE59DF4F28812E30D0F49C01E2
:1042C0002F593F4FF901508146E0DC01459FA00D79
:1042D000B11D1124FB0101900D924A95E1F7F901FE
:1042E00080818F5F8F70808388818F5F888381E07A
:1042F00008C0FC01E259FF4F2BEF3FEF31832083D1
:1043000080E0DF91CF910895FC01E859FF4F0190C3
:10431000F081E02D6083635071096230710520F4F3
:10432000FC01E059FF4F108208952091FD0B309160
:10433000FE0B2F5F3F4F3093FE0B2093FD0BFC01D4
:10434000E859FF4F208131812F5F3F4F3183208318
:1043500070E00C948421CF92DF92EF92FF921F9332
:10436000CF93DF93EC010E942921182F6E018EE676
:10437000C80ED11CD6012D913C912D3F3F4F81F4A9
:10438000FE01EE59FF4F8081882309F45EC0C958B1
:10439000DF4FE881F981309709F457C0199555C06E
:1043A0007E01E8E6EE0EF11CD701ED91FC918081D3
:1043B000813021F0B0F0823091F01EC0173099F0BA
:1043C000153121F0163009F04AC03BC0CE010E94E1
:1043D000E4208CEF9FEFF6019183808340C015307D
:1043E00021F01730E1F564E004C0CE010E94E42022
:1043F00063E0CE010E949521D701ED91FC9180816F
:104400008350823008F030C07E01F0E7EF0EF11CDF
:10441000D7012C91222331F18091FC0B81278093CD
:10442000FC0BE22FF0E0EA50F44F10832530A1F4AA
:1044300081110DC066EF7BE0CE010E945721F7018C
:104440001082CE010E94E4200AC080E009C088EFFB
:104450009FEFD6018D939C932F5FF701208381E01E
:1044600090E002C0812FDBCFDF91CF911F91FF90B1
:10447000EF90DF90CF900895AF92BF92CF92DF92EE
:10448000EF92FF920F931F93CF93DF93EC010F9462
:10449000BA006B017C018E0106591F4FD8018D9126
:1044A0009C91AA2797FDA095BA2FC80ED91EEA1E87
:1044B000FB1E5E01B8E6AB0EB11C0F94BA006C1582
:1044C0007D058E059F05D8F4CE010E94AB21019792
:1044D00079F40F94BA006B017C01F801808191811D
:1044E000AA2797FDA095BA2FC80ED91EEA1EFB1E5B
:1044F000D501ED91FC9180818111DFCF06C0C259B9
:10450000DF4F8FEF9FEF99838883DF91CF911F91CA
:104510000F91FF90EF90DF90CF90BF90AF900895F4
:10452000BF92CF92DF92EF92FF920F931F93CF93A0
:10453000DF938C01D62EC42E79010E943C22F80113
:10454000E259FF4F11821082E801CD58DF4F888178
:104550009981DC01ED91FC910190F081E02D61E009
:10456000199588819981DC01ED91FC910190F08190
:10457000E02D6D2D199588819981DC01ED91FC91DB
:104580000190F081E02D6C2D1995BB24B394BC24CF
:10459000BD2488819981DC01ED91FC910190F0812D
:1045A000E02D6F2D1995BF2488819981FF24DC01AE
:1045B000ED91FC910190F081E02D6E2D199588818F
:1045C0009981DC01ED91FC916B2D6E250190F081BC
:1045D000E02D199561E0C8010E949521DF91CF91EE
:1045E0001F910F91FF90EF90DF90CF90BF900895B3
:1045F000AF92BF92CF92DF92EF92FF920F931F93F1
:10460000CF93DF935C016B017A01EA0109900020EE
:10461000E9F72197C41BD50BCF3FD10511F00CF062
:104620004AC00E943C2285010D581F4FD8018D9130
:104630009C91DC01ED91FC910190F081E02D62E014
:104640001995F80180819181DC01ED91FC91019037
:10465000F081E02D6C2D1995B2E0CB26F801808118
:104660009181DC01ED91FC910190F081E02D6C2FA6
:104670001995CC26DD26D7016C91F80180819181B6
:10468000DC01ED91FC910190F081E02D662351F069
:104690001995F70181917F01992787FD9095C8268B
:1046A000D926E9CF6C2D199561E0C5010E949521AD
:1046B00080E090E002C08FEF9FEFDF91CF911F91DC
:1046C0000F91FF90EF90DF90CF90BF90AF90089543
:1046D00089589F4FFC01718360830895CF93DF93C6
:1046E000EC01FC01ED58FF4F7183608360E00E9494
:1046F0009521FE01E05AFF4F108231961082CE596B
:10470000DF4F1882DF91CF9108950F931F93CF93BE
:10471000DF938C01C0E1D7E1F80161917191819142
:1047200091918F0129913991499159910F94A80C38
:104730000F94420AF8016487758786879787F7E1A7
:10474000C032DF0749F7DF91CF911F910F91089594
:104750002F923F924F925F926F927F928F929F9291
:10476000AF92BF92CF92DF92EF92FF920F931F937F
:10477000CF93DF93CDB7DEB73C01CB01BA0118016F
:104780002901F301608371838283938304831583FA
:1047900026833783C086D186E286F3868486958613
:1047A000A686B78611E020E030E0A9010F94D30976
:1047B000811101C010E020E030E0A901C201B10187
:1047C0000F94D309882311F092E001C090E0192BD7
:1047D00020E030E0A901C701B6010F94D309882376
:1047E00011F094E001C090E0192B20E030E0A90125
:1047F000C501B4010F94D309882311F088E001C0EA
:1048000080E0182BF30111A3C301DF91CF911F9119
:104810000F91FF90EF90DF90CF90BF90AF909F905F
:104820008F907F906F905F904F903F902F900C945F
:1048300085238F929F92AF92BF92CF92DF92EF9299
:10484000FF920F931F93CF93DF93CDB7DEB7FC0199
:1048500010A20E94A823DF91CF911F910F91FF908A
:10486000EF90DF90CF90BF90AF909F908F90089582
:104870008F929F92AF92BF92CF92DF92EF92FF9270
:104880000F931F93812C912C5401750164010AE947
:1048900019E929E13EE3B501A4018FEF9BE00E94F5
:1048A00019241F910F91FF90EF90DF90CF90BF9050
:1048B000AF909F908F900895FC01659175918591BF
:1048C000949108954F925F926F927F928F929F92F0
:1048D000AF92BF92CF92DF92EF92FF920F931F930E
:1048E00040901502509016026090170270901802C6
:1048F000812CE0E89E2EEBE3AE2EE6E4BE2E809205
:10490000150290921602A0921702B09218026093BC
:10491000650E7093660E8093670E9093680E2093D9
:10492000690E30936A0E40936B0E50936C0EE092BA
:104930006D0EF0926E0E00936F0E1093700EE2E308
:10494000FEE0FF93EF93812C912CF8E4AF2EF3E47B
:10495000BF2EA1E7CA2EAEE0DA2E0E943CC80E940C
:1049600027EC409215025092160260921702709244
:1049700018020F900F901F910F91FF90EF90DF9012
:10498000CF90BF90AF909F908F907F906F905F90EF
:104990004F9008958091150290911602A0911702F0
:1049A000B09118028093060E9093070EA093080E04
:1049B000B093090E80914C0290914D029093760E27
:1049C0008093750E84E690E090934D0280934C02A4
:1049D0000F94BA006093650C7093660C8093670C1B
:1049E0009093680C81E00C948AE480E00E948AE451
:1049F0008091060E9091070EA091080EB091090EBD
:104A00008093150290931602A0931702B093180298
:104A10008091750E9091760E90934D0280934C028A
:104A20000F94BA006093650C7093660C8093670CCA
:104A30009093680C08952F923F924F925F926F92DD
:104A40007F928F929F92AF92BF92CF92DF92EF921E
:104A5000FF920F931F93CF93DF938FE692E00E9414
:104A60008CFCE6E5F2E06081718182819381609344
:104A7000150270931602809317029093180220E09B
:104A800030E040E752E40F94DA094B015C01C9E6DB
:104A9000DEE0288139814A815B81E5E6FEE06081C4
:104AA000718182819381B2E32B2EBEE03B2E3F9237
:104AB0002F9211E7C12E1EE0D12EE12CF12C00E245
:104AC00011EC0E943CC80E9427EC82E00E9490EC0E
:104AD0004B015C01288139814A815B81E5E6FEE07A
:104AE0006081718182819381850174010E949CD2D1
:104AF00089EA9EE00E945C2420E030E040E05FE331
:104B00000F94A80C9B01AC01C501B4010F94FA08E5
:104B10002B013C0120E030E040EC5FE360911502A6
:104B20007091160280911702909118020F94A80CB0
:104B300020E030E040E752E40F94DA094B015C01D9
:104B4000288139814A815B81E5E6FEE060817181DF
:104B5000828193813F922F92830172010E943CC80F
:104B60000E9427EC20E030E040E85EE3E6E5F2E07A
:104B700060817181828193810F94A80C4B015C014B
:104B80006093150270931602809317029093180297
:104B900089EA9EE00E945C246B017C0120E030E009
:104BA00040EC5FE3C501B4010F94A80C20E030E0B5
:104BB00040E752E40F94DA094B015C01A70196012A
:104BC000C701B6010F94FA089B01AC01C301B20101
:104BD0000F94F9087B018C01288139814A815B811E
:104BE000E5E6FEE060817181828193813F922F92A0
:104BF000F1E7CF2EFEE0DF2E0E943CC80E9427EC9A
:104C000082E00E9490EC7B018C0160936D0E7093AA
:104C10006E0E80936F0E9093700E288139814A81B9
:104C20005B81E5E6FEE060817181828193810E9473
:104C30009CD20F900F900F900F900F900F90DF91DC
:104C4000CF911F910F91FF90EF90DF90CF90BF9089
:104C5000AF909F908F907F906F905F904F903F901C
:104C60002F90089589EB9EE00E945C242091490ECC
:104C700030914A0E40914B0E50914C0E0F94FA0811
:104C800008954F925F926F927F928F929F92AF9210
:104C9000BF92CF92DF92EF92FF920F931F93CF9329
:104CA000DF9300D01F92CDB7DEB72B013C01490145
:104CB0005A012091690E30916A0E40916B0E50910D
:104CC0006C0E6091650E7091660E8091670E9091EA
:104CD000680E0E9462248091320EC0906D0ED090BA
:104CE0006E0EE0906F0EF090700E20E030E040EC21
:104CF00051E4811111C0C501B4010F94F908698311
:104D00007A838B839C8320E030E044E951E4C30143
:104D1000B2010F94F90810C0C501B4010F94F9084D
:104D200069837A838B839C8320E030E04CE851E4F4
:104D3000C301B2010F94FA088701760129813A81F3
:104D40004B815C810E9462240E941B25C0906D0EE5
:104D5000D0906E0EE0906F0EF090700EE8EFF6E0DF
:104D600064918F01662361F0772767FD70958EEE61
:104D70009AE10E947B0D0F5F1F4FF8016491F2CF03
:104D8000E3EFF6E064918F01662361F0772767FD1A
:104D900070958EEE9AE10E947B0D0F5F1F4FF80118
:104DA0006491F2CF22E030E0B301A2018EEE9AE1ED
:104DB0000F944808EEEEF6E064918F01662361F0EF
:104DC000772767FD70958EEE9AE10E947B0D0F5F4D
:104DD0001F4FF8016491F2CF22E030E0B501A40149
:104DE0008EEE9AE10F944808E9EEF6E064918F01A7
:104DF000662361F0772767FD70958EEE9AE10E9439
:104E00007B0D0F5F1F4FF8016491F2CF22E030E07D
:104E1000B701A6018EEE9AE10F944808E7EEF6E09E
:104E200064918F01662361F0772767FD70958EEEA0
:104E30009AE10E947B0D0F5F1F4FF8016491F2CF42
:104E4000C701B6010F900F900F900F90DF91CF9197
:104E50001F910F91FF90EF90DF90CF90BF90AF9098
:104E60009F908F907F906F905F904F900895CF921A
:104E7000DF92EF92FF92CF93DF93EC016A017B0107
:104E8000FE016491662349F0772767FD70958EEEE9
:104E90009AE10E947B0D2196F3CF22E030E0B7012A
:104EA000A6018EEE9AE1DF91CF91FF90EF90DF9017
:104EB000CF900D944808CF92DF92EF92FF92CF935C
:104EC000DF93EC016A017B01FE016491662349F0E6
:104ED000772767FD70958EEE9AE10E947B0D2196F3
:104EE000F3CF22E030E0B701A6018EEE9AE1DF9128
:104EF000CF91FF90EF90DF90CF900D944808CF9224
:104F0000DF92EF92FF92CF93DF93EC016A017B0176
:104F1000FE016491662349F0772767FD70958EEE58
:104F20009AE10E947B0D2196F3CF2AE030E0B70191
:104F3000A6018EEE9AE1DF91CF91FF90EF90DF9086
:104F4000CF900D943307CF93DF9320916F0C309166
:104F5000700C243031050CF06FC04091710C5091F1
:104F6000720C60E6649F9001659F300D1124BC01B6
:104F7000C9018758934F0F944A13EDEDFEE06491F9
:104F8000EF01662359F0772767FD70958EEE9AE161
:104F90000E947B0D2196FE016491F3CFEDEDFCE0C4
:104FA0006491EF01662359F0772767FD70958EEEC7
:104FB0009AE10E947B0D2196FE016491F3CF8091CE
:104FC000710C9091720C20E6289FB001299F700D02
:104FD00011246758734F8EEE9AE10F944106EBED62
:104FE000FCE06491EF01662359F0772767FD709527
:104FF0008EEE9AE10E947B0D2196FE016491F3CF23
:105000006AE070E08EEE9AE10E947B0D8091710C57
:105010009091720C019664E070E00F94960D90935D
:10502000720C8093710C80916F0C9091700C0196B2
:105030009093700C80936F0CDF91CF910895CF9374
:10504000DF9320916F0C3091700C243031050CF0FF
:105050006FC04091710C5091720C60E6649F90019A
:10506000659F300D1124BC01C9018758934F0F94DF
:10507000DC12EDEDFEE06491EF01662359F0772735
:1050800067FD70958EEE9AE10E947B0D2196FE01E0
:105090006491F3CFE0EDFCE06491EF01662359F0F9
:1050A000772767FD70958EEE9AE10E947B0D219621
:1050B000FE016491F3CF8091710C9091720C20E607
:1050C000289FB001299F700D11246758734F8EEEF1
:1050D0009AE10F944106EEECFCE06491EF01662347
:1050E00059F0772767FD70958EEE9AE10E947B0D4F
:1050F0002196FE016491F3CF6AE070E08EEE9AE1B2
:105100000E947B0D8091710C9091720C019664E06D
:1051100070E00F94960D9093720C8093710C8091B7
:105120006F0C9091700C01969093700C80936F0CA3
:10513000DF91CF910895CF93DF9326E040E950EDC2
:1051400063E070E08EEE9AE10F943704E5ECFCE04A
:105150006491EF01662359F0772767FD70958EEE15
:105160009AE10E947B0D2196FE016491F3CF6AE0E3
:1051700070E08EEE9AE10E947B0DEDEDFEE0649111
:10518000EF01662359F0772767FD70958EEE9AE15F
:105190000E947B0D2196FE016491F3CFEFEBFCE0C2
:1051A0006491EF01662359F0772767FD70958EEEC5
:1051B0009AE10E947B0D2196FE016491F3CF6AE093
:1051C00070E08EEE9AE10E947B0D6FE273E08EEE4E
:1051D0009AE10F945E0626E040E45DE063E070E053
:1051E0008BE89BE10F9437046BE87BE182E591E16A
:1051F0000E946E2364EF7CE382E591E10E946823C4
:1052000061E089E00F948D0260E089E00F94C602AE
:1052100064E670E080E090E00F94E90061E089E0EE
:105220000F94C6026CEA7DE080E090E00F94E90004
:1052300068EE73E080E090E00F94E9004BE353E008
:1052400063E070E082E591E10E94F82220E030E026
:1052500045E050E06AE070E082E591E10E94902232
:105260001092750C1092760C1092770C1092780CAC
:105270000E949A1F61E08AE00F948D0260E08AE04C
:105280000F94C60261E08AE00F94C6026FEF70E0EF
:105290008CE00F9473016FEF70E08BE00F9473015B
:1052A0006FEF70E08DE00F9473010E94E1F10E94B6
:1052B00081C6DF91CF910C9487EB8F929F92AF9232
:1052C000BF92CF92DF92EF92FF920F931F93CF93F3
:1052D000DF93CDB7DEB7DA950FB6F894DEBF0FBE19
:1052E000CDBF80914E0C81110DC00F94BA00609318
:1052F000280C7093290C80932A0C90932B0C81E03E
:1053000080934E0C80919E0E882309F4D5C00F9493
:10531000BA000091280C1091290C20912A0C309190
:105320002B0C601771078207930708F44AC260913B
:10533000181A7091191A80911A1A90911B1A0F94C9
:10534000420AD62EC72E20E030E040E05FE36091B5
:105350000E1A70910F1A8091101A9091111A0F94D1
:10536000FA080F94420AB62EA72E6091141A709173
:10537000151A8091161A9091171A0F94420A7F936A
:105380006F9314E4E12E13E0F12EFF92EF928E0161
:105390000F5F1F4F1F930F930F946E13A80160E0D0
:1053A00070E082E591E10E94F822CF92DF92FF92B5
:1053B000EF921F930F930F946E13A80162E270E0B7
:1053C00082E591E10E94F822AF92BF9289E493E0D6
:1053D0009F938F931F930F930F946E13A80169E00F
:1053E00070E082E591E10E94F8220FB6F894DEBFEA
:1053F0000FBECDBF80919510882319F180913F1188
:1054000090914011A0914111B09142110097A105D6
:10541000B105B9F0BC01CD016D597F4F8F4F9F4F42
:1054200024E630E040E050E00F94AA0D609147116F
:10543000709148118091491190914A110F94AA0DD1
:1054400001C020E01F922F93BEE4EB2EB3E0FB2EB1
:10545000FF92EF921F930F930F946E13A80165E2D2
:1054600070E082E591E10E94F82280914D028F93D5
:1054700080914C028F93FF92EF921F930F930F94A2
:105480006E13A80164E270E082E591E10E94F822C7
:105490000F94BA0068577C4E8F4F9F4F6093280C33
:1054A0007093290C80932A0C90932B0C0FB6F894D0
:1054B000DEBF0FBECDBF85C18091350E8823A9F117
:1054C0000F94BA000091280C1091290C20912A0CFD
:1054D00030912B0C601771078207930708F471C194
:1054E0002091260C3091270C42E050E06BE170E0F7
:1054F00082E591E10E9490228091260C9091270CE8
:10550000009719F481E090E005C0019663E070E037
:105510000F94960D9093270C8093260C0F94BA004D
:1055200066507F4F8F4F9F4F44C180919B0E8823C1
:1055300009F447C10F94BA000091280C1091290C6E
:1055400020912A0C30912B0C60177107820793076A
:1055500008F437C16091141A7091151A8091161AC7
:105560009091171A0F94420AB62EA72E6091181A1E
:105570007091191A80911A1A90911B1A0F94420A6D
:10558000D62EC72E20E030E040E05FE360910E1A97
:1055900070910F1A8091101A9091111A0F94FA08B5
:1055A0000F94420A962E872EAF92BF92A4E4EA2E61
:1055B000A3E0FA2EFF92EF928E010F5F1F4F1F9311
:1055C0000F930F946E13A80168E270E082E591E1F9
:1055D0000E94F822CF92DF92FF92EF921F930F93D7
:1055E0000F946E13A8016AE270E082E591E10E94D7
:1055F000F8228F929F9289E493E09F938F931F9359
:105600000F930F946E13A80169E270E082E591E1B7
:105610000E94F8226091650E7091660E8091670E6F
:105620009091680E0F94470A9B0140E050E06FE0B4
:1056300070E082E591E10E9490226091690E709184
:105640006A0E80916B0E90916C0E0F94470A9B012D
:1056500041E050E06FE070E082E591E10E9490222D
:1056600060916D0E70916E0E80916F0E9091700E24
:105670000F94470A9B0142E050E06FE070E082E542
:1056800091E10E949022AF92BF92FF92EF921F93FE
:105690000F930F946E13A8016AE070E082E591E128
:1056A0000E94F822CF92DF92FF92EF921F930F9306
:1056B0000F946E13A80161E170E082E591E10E9410
:1056C000F8226091221A7091231A882777FD80951D
:1056D000982F0F94750A20E030E040EA50E40F94D0
:1056E000F9089B01AC010FB6F894DEBF0FBECDBF29
:1056F0006091141A7091151A8091161A9091171AC8
:105700000F94D60B87FD4FC06091241A7091251A13
:10571000882777FD8095982F0F94750A20E030E058
:1057200040EA50E40F94F9089B01AC016091181A0B
:105730007091191A80911A1A90911B1A0F94D60B16
:1057400087FD31C08091900E882369F168E074E094
:105750008EEE9AE10F945E0680915E02893409F024
:1057600047C066E573E08EEE9AE10F945E0648E668
:1057700053E06BE070E082E591E10E94F82220E0C6
:1057800030E043E150E06AE070E082E591E10E94A0
:10579000902248E653E06BE070E082E591E10E94E0
:1057A000F8221092900E0F94BA0068517C4F8F4FE0
:1057B0009F4F6093280C7093290C80932A0C909330
:1057C0002B0C82E591E10E94AB21D3950FB6F894A2
:1057D000DEBF0FBECDBFDF91CF911F910F91FF9024
:1057E000EF90DF90CF90BF90AF909F908F900895F3
:1057F0008235A9F44BEA53E06BE070E082E591E179
:105800000E94F82220E030E043E150E06AE070E0DE
:1058100082E591E10E9490224BEA53E0BCCF4DEE2D
:1058200053E06BE070E082E591E10E94F82220E015
:1058300030E043E150E06AE070E082E591E10E94EF
:105840009022AFCF8091690C90916A0C60E070E07B
:1058500001960D9427108091690C90916A0C4AE092
:1058600050E060E070E001960D949811682F772762
:1058700067FD70952091730C3091740C40E6429F47
:10588000C001439F900D11248758934F0F943613F6
:1058900090936A0C8093690C21E0892B09F420E035
:1058A000822F0895CF92DF92EF92FF92892B31F4ED
:1058B000FF90EF90DF90CF900C943226C0901E02A4
:1058C000D0901F02E0902002F090210220E030E012
:1058D000A901C701B6010F94D60B181644F083E353
:1058E000C82E83EFD82E87E9E82E83E4F82EC7016F
:1058F000B601FF90EF90DF90CF9008958F929F9226
:10590000AF92BF92CF92DF92EF92FF920F931F93CD
:10591000CF93DF93009709F0CEC02091320E22235F
:1059200029F1822F90E00E94522C6093650E7093B3
:10593000660E8093670E9093680E10923D0E109243
:105940003E0E10923F0E1092400E80911E029091DA
:105950001F02A0912002B091210280933202909305
:105960003302A0933402B0933502E9C020910E02B5
:1059700030910F022230310509F09DC089EB9EE085
:105980000E945C242091490E30914A0E40914B0EAA
:1059900050914C0E0F94FA086093650E7093660E4A
:1059A0008093670E9093680E81ED9EE00E945C24C8
:1059B0002091490E30914A0E40914B0E50914C0E61
:1059C0000F94FA0860933D0E70933E0E80933F0E45
:1059D0009093400E85EC9EE00E945C242091490E3D
:1059E00030914A0E40914B0E50914C0E0F94FA0894
:1059F0004B015C0100911E0210911F02D091200208
:105A0000C091210223E333EF47E953E4B8018D2F1E
:105A10009C2F0F94D60B18162CF0B3E3A3EFF7E9E5
:105A2000E3E403C0B02FA12FFE01C0900602D09086
:105A30000702E0900802F0900902A70196016B2F7F
:105A40007A2F8F2F9E2F0F94F9089B01AC01C5016F
:105A5000B4010F94D30987FF0FC085EC9EE00E942C
:105A60005C242091490E30914A0E40914B0E50918A
:105A70004C0E0F94FA0816C023E333EF47E953E4C2
:105A8000B8018D2F9C2F0F94D60B181624F003E32A
:105A900013EFD7E9C3E4A7019601B8018D2F9C2F1E
:105AA0000F94F908609332027093330280933402AA
:105AB0009093350244C0EC01CC0FDD1FCC0FDD1FED
:105AC000CE018754914F0E945C249E012B59314F87
:105AD00079018E01075B114FF801208131814281EC
