:100000000C9473170C94A4170C94A4170C94A417B5
:100010000C94A4170C94A4170C94A4170C94A41774
:100020000C94A4170C94A4170C94A4170C94A41764
:100030000C94A4170C94A4170C94A4170D94BF242B
:100040000C94A4170C94A4170C94A4170C94A41744
:100050000C94A4170C94A4170D9470440C947BB2C8
:100060000C94A4170C94A9B00C9480B00C94A41711
:100070000C94A4170C94A4170C94A4170C94A41714
:100080000D94D6060C94A4170C94A4170C94A417E2
:100090000C94A4170C94A4170C94A4170C94A417F4
:1000A0000C94A4170C94A4170C94A4170C94A417E4
:1000B0000C94A4170C94A4170C94A4170C94A417D4
:1000C0000C94A4170C94A4170C94A4170C944BB084
:1000D0000C9422B00C94A4170C94A4170C94A4179D
:1000E0000C94A417A35EC0620D30D62D3D5CF5289C
:1000F00004600B29C062C062BF5A4A29E728C06267
:1001000043263826C062DA3AC062C062F85A0F60ED
:10011000A741BD41D341E9418142FF413F6099413F
:100120005F44AA5E273B183B15422942545B0029D5
:10013000B926E728B62D123DCE2DC15F4650C62DFB
:10014000BE2DE25F3F5EC062FF2FBA5FD55AB93D58
:10015000132964264E26C062815B242A433BC06279
:100160008F5F635F864904328F28974D2738363B6F
:100170007C32C062005FB95ECB2FB530B5309130B4
:10018000F432F833C22B63297C29513073302D2689
:100190005926C062C062E7284530362C582CA92960
:1001A000B73C973CC0623F603F602B5E0B5C3F609A
:1001B0003F6054558C5D605D345DB05CDC5C085D17
:1001C000755E4061E3446D4459456A47C3464D46F8
:1001D000C062C0623D5C7B2C942C45303D5C366037
:1001E000C062C062805F3F42764C6248C06298261F
:1001F000935755426B42C062C542C062EC3BE43B40
:10020000C062C0625B36C062C062C0628236D436F1
:10021000BF364A2F392FF43BDF2D5C2EE02E0D2FF9
:10022000DD555B2FE648AA367A48C062C062C062DC
:10023000C062C062C062C062C062C062AF29B7293A
:10024000DD29C062C0629048A4488649764C824C41
:10025000874DC062CB502F515E50B2509E4EC0624F
:10026000C062BB4EC0624B53D439D23A8F53BA48A6
:10027000C0621D526752B352FF521552D048C0623D
:10028000D353D55410573858C062C65639473947EA
:100290002157CA34592B2050A74ED94EAB4FB34FDC
:1002A000E7282850C062C062C062C062C062C062FB
:1002B000C0621B5EC062FC5B6C5EA43AC062C0623E
:1002C000C062C062C062C062C0626C5AC062C0627A
:1002D000C062C062C062C062C062C062A455B5554F
:1002E0000155C062C062C062C062C062C062C062CA
:1002F000C062C062C062C062C062C062C062C062EE
:10030000C062C062C062C062C062C062C062C062DD
:10031000C062C062C062C062C062C062C062C062CD
:10032000C062C062C062C062C062C062C062C062BD
:10033000C062C062C062C062C062C0625B411D41F7
:100340002144E343C0624847C062C062363B892B08
:10035000D3439942363B9942D649AF42AF42612BD3
:100360009D5F965F28583058975EC655AC5FB35F67
:10037000795F6A5FCF5BD45BD95BDE5BE35BCA5BB3
:10038000274C464CD62D732A692BC062975EC65502
:100390002729F52BC062C0624D5BD351C062C06299
:1003A000C0623058C062F85AC062E85BED5B6B30E7
:1003B000CA2BD555BA2F9C35C062A751C0622858A8
:1003C000C062C062F25BC062F75BF22F014C144C5A
:1003D000975E755E60373C384F51643C40387B2AED
:1003E000123D6837894FCC39043933578557C0627D
:1003F000433B4F513F60C062FC3B912B9B513F60A0
:10040000C2AFC5AFB4AFB8AFBEAFFCAFC9AFCDAF31
:10041000D3AFD7AFDBAFE1AFE5AFE9AFFCAFEFAF45
:10042000F3AFF7AF97B19CB1A1B1ABB1B5B12EB2FB
:10043000BFB1C7B1CFB1D9B1E3B1EDB1FCB106B233
:100440002EB210B21AB224B2A7028F0267028D0236
:100450007B028D02A1027702870269027F0283027A
:1004600093029F029702A5028102A3026D027D0200
:1004700099026B0295028B02AF029D02790275020E
:10048000A902084AD73B3BCE016E84BCBFFDC12FF9
:100490003D6C74319ABD56833DDA3D00C77F11BE75
:1004A000D9E4BB4C3E916BAAAABE000000803F0578
:1004B000A84CCDB2D44EB93836A9020C50B99186A9
:1004C00088083CA6AAAA2ABE000000803F000D941E
:1004D000B11C0D94E51D0D9430450D94FA440D9416
:1004E0008FCD0D9453780D94EC660D9477450D9453
:1004F000631C0D9475450D94F01B0D9407450D94E8
:10050000211D0D942D1C0D943F1D0D9429780D94E3
:10051000701B0D94EEBA0D9457450D948C1C0D94E0
:10052000CC1B0D94EB660D945D1D0D944A450D9406
:10053000AE1B0D9423450D94CA130D9473450D9471
:10054000B61D0D944B1C0D947B1D0D948E1B0D94AC
:10055000521B0D947F450D94D1200D94E0B20D9463
:1005600071454E414E494E495459494E46CDCCCC29
:100570003D0AD7233C17B7D13877CC2B329595E677
:10058000241FB14F0A000020410000C84200401C57
:100590004620BCBE4CCA1B0E5AAEC59D746364692E
:1005A0006E6F70737578585B003B4C415945523AF9
:1005B0002564003B202020757365526166742C25EC
:1005C00064004D363035205325640043616C6375FB
:1005D0006C75733A20200043616C63756C75733AD7
:1005E00020200043616C63756C75733A20200053C2
:1005F000757266696E6720300A00417420426F741C
:10060000746F6D20537469636B65720025303364B9
:100610002E25303364253033642E25303464004178
:100620007420426F74746F6D20537469636B6572CC
:1006300000253033642E25303364253033642E2575
:100640003034640025737C4D253032642E253032E1
:10065000640025752E253032750052313900523133
:10066000362F52313700417420426F74746F6D2001
:10067000537469636B657200253033642E25303303
:1006800064253033642E253034640025737C4D2579
:100690003032642E253032640053757266696E679D
:1006A00020300A004732382058302059300054306A
:1006B0000054310054300054300053757266696E36
:1006C0006720300A00473433004734310047343064
:1006D0000047333400473433004734330047343164
:1006E00000473430004D3834004D3834004D383434
:1006F000005A32204F66667365743A20004F4B20D3
:100700007365636F6E6420457874727564657221D9
:100710000A005A20706F736974696F6E3A20005A2C
:1007200020706F736974696F6E3A20004D38340021
:100730005A312050726F6265206F66667365743A35
:1007400020004F4B2066697273742045787472756F
:1007500064657221200A005A20706F736974696F92
:100760006E3A20005A20706F736974696F6E3A2078
:100770000043616C63756C75733A20200043616CB3
:1007800063756C75733A20200043616C63756C75FA
:10079000733A20200043616C63756C75733A2020B6
:1007A0000036302064656772656573200A00543036
:1007B0000054300054300043616C696272617469A6
:1007C0006F6E205375636365737366756C0A0054AE
:1007D00030004A756D70206F7665722073637265A4
:1007E000773120616E6420736372657732200A006E
:1007F0004A756D70206F766572207363726577310C
:10080000200A004733340047333400473334005460
:1008100030004733340053757266696E6720300AC2
:100820000053757266696E6720300A0053757266F0
:10083000696E6720300A0053757266696E672030F2
:100840000A0053757266696E6720300A00543000E2
:1008500053757266696E6720300A004D3334005359
:10086000757266696E6720300A004D3234004D3271
:1008700033202573004D3234004D32332025730070
:1008800077696C6C20626520646973746F7274653B
:10089000642062792025642E253164253164206D21
:1008A0006D2E00546865206669727374206C6179DE
:1008B0006572207072696E7465642077697468204F
:1008C00074686520257320686F74656E64005375C5
:1008D0007266696E6720300A0053757266696E67CA
:1008E00020300A0053757266696E6720300A005224
:1008F0006561647920746F2053746172740A0025F5
:1009000064206B6D2E0067636F646520666F756E83
:10091000640A0020746F20537461727420446973F8
:10092000706C61792066726F6D205265736574001A
:10093000546F6F6B2000646973706C6179206F6E07
:100940006C696E6521002E002053544F5020505288
:10095000494E54200A004732382058302059300080
:100960004D33350047373000524553554D450A0049
:1009700050415553450A004D393930005374617266
:1009800074696E67205A2043616C69627261746990
:100990006F6E2057697A6172640A000A00205A3A21
:1009A000200020593A200020583A20004265640077
:1009B000456E642066696C65206C6973740A004238
:1009C0006567696E2066696C65206C6973740A00DE
:1009D0002F005344207072696E74696E67206279CB
:1009E000746520004E6F74205344207072696E74D9
:1009F000696E670A002569206D696E2C20256920C3
:100A0000736563006F6B004649524D574152455F15
:100A10004E414D453A4D61726C696E2042434E33F2
:100A200044205369676D613B204649524D574152FE
:100A3000455F56455253494F4E3A30312D322E3094
:100A40002E3752433B204649524D574152455F5540
:100A5000524C3A68747470733A2F2F6769746875D2
:100A6000622E636F6D2F42434E33442F42434E3309
:100A7000445369676D612D4669726D776172653B9C
:100A80002050524F544F434F4C5F56455253494F9D
:100A90004E3A312E303B204D414348494E455F543C
:100AA0005950453A42434E3344205369676D613B88
:100AB0002045585452554445525F434F554E543A81
:100AC000323B20555549443A0053544154495354FC
:100AD0004943532052455345540A00504F534954FB
:100AE000494F4E20484F4D453A2000220A00556E8E
:100AF0006B6E6F776E20636F6D6D616E643A20224E
:100B0000000A00207A3A200020793A200020783A22
:100B100020004265640045787472756465722072C5
:100B2000656C6561736564206163746976653A20FC
:100B3000005A205349474D4120486F6D65640A00B3
:100B40004578747275646572206163746976653A7C
:100B500020004D3834005374617274696E672058F8
:100B60002043616C6962726174696F6E2057697AA3
:100B70006172640A004D3834005374617274696E96
:100B80006720592043616C6962726174696F6E20DD
:100B900057697A6172640A0000002100240027006E
:100BA0002A002D003000330001010000040107017C
:100BB0000A0100002200250028002B002E00310031
:100BC000340002010000050108010B0100002000B3
:100BD0002300260029002C002F0032000001000015
:100BE00003010601090105050505070508080808B0
:100BF000020202020A0A08080404040401010101B5
:100C000001010101030303030303030304070707AF
:100C10000C0C0C0C0C0C0C0C020202020606060654
:100C2000060606060B0B0B0B0B0B0B0B0102102021
:100C30002008081020401020408002010201080412
:100C400002010102040810204080804020100804A6
:100C500002018004020180402010080402010804FF
:100C60000201010204081020408001020408102043
:100C7000408000000A0B02090C0D0E080703040156
:100C80000000000000000000000000000000000064
:100C90000000000000000000000000000000121131
:100CA0001000000000000000000000000000000034
:100CB0000000000000000000646973706C6179201E
:100CC0006F66666C696E650046656220203420326E
:100CD0003031392031343A30353A30390A00424324
:100CE0004E3344205369676D610A007374617274F6
:100CF0000A006563686F3A0030312D322E302E378E
:100D000052430A004D3234004D32332025730061C6
:100D100075746F25692E67006572726F7220777225
:100D20006974696E6720746F2066696C650A0020BB
:100D30005A3A0020593A0020583A00656E6473749C
:100D40006F7073206869743A20006563686F3A00B9
:100D5000446F6E6520736176696E672066696C65A5
:100D60002E0A006F6B0A004D323900457874727597
:100D7000646572204865617465640A0020573A0012
:100D8000204500205A00205900483D5800205A3A7A
:100D90000020593A0020436F756E7420583A2000A5
:100DA00020453A00205A3A0020593A00583A007A31
:100DB0005F6D696E3A2000795F6D61783A20007846
:100DC0005F6D61783A2000785F6D696E3A20004867
:100DD0006F74656E64206F6666736574733A005055
:100DE0004944204175746F74756E652066696E693B
:100DF00073686564212050757420746865206C6187
:100E00007374204B702C204B6920616E64204B64FE
:100E100020636F6E7374616E74732066726F6D20E1
:100E200061626F766520696E746F20436F6E6669CC
:100E30006775726174696F6E2E680A0050494420AC
:100E40004175746F74756E65206661696C656421A7
:100E50002074696D656F75740A0020403A006F6BED
:100E600020543A006F6B20423A00504944204175AB
:100E7000746F74756E65206661696C6564212054B9
:100E8000656D706572617475726520746F6F20682E
:100E90006967680A00204B643A2000204B693A20B9
:100EA00000204B703A200020436C6173736963200B
:100EB000504944200A002054753A2000204B753ACE
:100EC0002000206D61783A2000206D696E3A200084
:100ED00020643A200020626961733A20002E0A00E3
:100EE00044656C6574696F6E206661696C65642C1D
:100EF0002046696C653A200046696C652064656C23
:100F0000657465643A002E0A006F70656E20666134
:100F1000696C65642C2046696C653A20004732385C
:100F2000205830205930000A0A005374616E646101
:100F3000726420446576696174696F6E3A20000AB4
:100F4000004D65616E3A20000A002020207A3A2088
:100F5000000A00793A2000783A20003F5370656318
:100F60006966696564206E756D626572206F6620C2
:100F70006C65677320696E206D6F76656D656E7444
:100F8000206E6F7420706C61757361626C652E0ADF
:100F9000003F537065636966696564205920706F0E
:100FA000736974696F6E206F7574206F662072614B
:100FB0006E67652E0A003F537065636966696564F4
:100FC000205820706F736974696F6E206F7574207C
:100FD0006F662072616E67652E0A003F537065630D
:100FE00069666965642073616D706C652073697AE8
:100FF00065206E6F7420706C61757361626C652E14
:101000000A0046756C6C20737570706F7274206185
:10101000743A20687474703A2F2F33647072696E5A
:1010200074626F6172642E636F6D2F666F72756D7F
:101030002E7068700A004D3438205A2D50726F623D
:1010400065205265706561746162696C69747920AC
:10105000746573742E20202056657273696F6E203C
:10106000322E30300A003F566572626F7365204C35
:101070006576656C206E6F7420706C61757361624B
:101080006C652E0A00426564204865617465640AD7
:101090000020573A002C2073617665645F466C61CE
:1010A000675F66616E6C617965725F6D6972726FA0
:1010B000723A20002C2073617665645F6665656412
:1010C00072617465313A20002C2073617665645F2B
:1010D0006665656472617465303A20002C20736126
:1010E0007665645F66616E6C617965723A20002C8A
:1010F0002073617665645F74656D706265643A2023
:10110000002C2073617665645F74656D70303A20E1
:10111000002C2073617665645F74656D70313A20D0
:10112000002C2073617665645F66696C65706F730F
:101130006974696F6E3A20002C2073617665645F74
:10114000655F706F736974696F6E3A20002C20734D
:10115000617665645F746F6F6C5F616374697665F7
:101160003A20002C2073617665645F7A5F706F733C
:101170006974696F6E3A20002C2073617665645F34
:10118000795F706F736974696F6E3A20002C2073F9
:10119000617665645F785F706F736974696F6E3ACA
:1011A000200053415645205052494E54204C4F4741
:1011B0003A0A006563686F3A005072696E74207273
:1011C00065636F766572792075700A004E6F7420C2
:1011D0007072696E74207265636F766572792075BE
:1011E000700A00535543434553530A0056616C75CA
:1011F0006573206F7574206F662072616E67650A73
:101200000056616C756573206F7574206F6620726F
:10121000616E67650A0056616C756573206F757441
:10122000206F662072616E67650A0056616C756595
:1012300073206F7574206F662072616E67650A0097
:10124000535543434553530A0056616C75657320EB
:101250006F7574206F662072616E67650A00566153
:101260006C756573206F7574206F662072616E6790
:10127000650A0056616C756573206F7574206F6622
:101280002072616E67650A0056616C756573206F28
:101290007574206F662072616E67650A00205020A9
:1012A00000205A200020592000536574204D35330A
:1012B00030205820004D6F64652033203A20507351
:1012C00069636F2020202D3E205247423A20526908
:1012D00073652646616C6C002A2A2D3E20004D6FF6
:1012E00064652032203A206379636C652020202DCC
:1012F0003E205247423A2036207374617465730071
:101300002A2A2D3E20004D6F64652031203A20723C
:10131000616E646F6D20202D3E205247423A202B93
:1013200031202B32202B332C20647572696E67209C
:101330007072696E74696E67002A2A2D3E20004D16
:101340006F64652030203A2064656661756C742096
:101350002D3E205247423A20323535203235352055
:10136000323535002A2A2D3E20004C6564206D6FF1
:10137000646573203A004D353336204C5B6D6F64E5
:10138000655D00486F74656E64206F666673657492
:10139000733A0054696D6520696E6163746976659E
:1013A0000A0050757267652064697374616E6365C5
:1013B0000A004D383420582059205A2045005A2020
:1013C0004F6666736574206F6B0A005A204F66661D
:1013D000736574203A200A007A5F6D61783A2000C4
:1013E0007A5F6D696E3A20005A204F6666736574A5
:1013F00000504F534954494F4E20484F4D453A20D5
:1014000000436F6F6C696E6720446F776E2048658C
:10141000617465720A005072696E74657220686149
:101420006C7465642E206B696C6C28292063616C78
:101430006C6564210A004572726F723A006C6179C2
:101440006572206865696768743A2000457874722F
:10145000756465722072656C656173656420616393
:10146000746976653A20005A205349474D41204817
:101470006F6D65640A0045787472756465722061E9
:1014800063746976653A2000000000000080934391
:10149000000000000000A0400000A040000000404C
:1014A00020004D6F766520746F3A2000CDCC9843B4
:1014B0000080934300005243FF01FF20636F6C6480
:1014C00020657874727573696F6E207072657665C9
:1014D0006E7465640A006563686F3A0024F4D43062
:1014E00050C38E20C2A24017828B7011127A910DC8
:1014F000816CD90AA861E108C758660761514306A3
:101500001E4B5D05C145A7041A411104093D98030E
:10151000713931034036DB0265339102D430540215
:10152000802E1D02632CEE01752AC501B028A00192
:10153000102781018F2564012B244B01E022340107
:10154000AC211F018D200D01801FFC00841EED00C9
:10155000971DDF00B81CD200E61BC600201BBC0094
:10156000641AB200B219A8000A19A0006A189900FA
:10157000D117910040178B00B516840031167E00FC
:10158000B31579003A157300C7146F0058146A0038
:10159000EE1366008813630025135E00C7125B001C
:1015A0006C12570015125400C111510070114F00F8
:1015B00021114B00D61049008D1047004610440001
:1015C00002104200C00F4000800F3E00420F3C005E
:1015D000060F3B00CB0E3800930E37005C0E350033
:1015E000270E3400F30D3200C10D3100900D300094
:1015F000600D2E00320D2D00050D2C00D90C2B0096
:10160000AE0C2900850C29005C0C2700350C270046
:101610000E0C2600E80B2400C40B2400A00B2300B2
:101620007D0B23005A0B2100390B2100180B2000E1
:10163000F80A1F00D90A1E00BB0A1E009D0A1D00E1
:10164000800A1D00630A1C00470A1B002C0A1B00AD
:10165000110A1A00F7091A00DD091900C409190056
:10166000AB091900920917007B09180063091700DC
:101670004C09160036091600200916000A09150043
:10168000F5081500E0081400CC081400B808140090
:10169000A4081400900813007D0812006B081300C2
:1016A00058081200460812003408110023081100DF
:1016B0001208110001081100F0071000E0071000E7
:1016C000D0071000C0071000B0070F00A1071000DE
:1016D00091070E0083070F0074070F0065070E00C7
:1016E00057070E0049070E003B070D002E070E009E
:1016F00020070D0013070D0006070D00F9060C006A
:10170000ED060D00E0060C00D4060C00C8060C0027
:10171000BC060C00B0060C00A4060B0099060C00D9
:101720008D060B0082060B0077060B006C060B0083
:1017300061060A0057060B004C060A0042060A0022
:1017400038060A002E060A0024060A001A060A00B5
:101750001006090007060A00FD050900F405090046
:10176000EB050900E2050900D9050900D0050900CB
:10177000C7050900BE050900B5050800AD0508004C
:10178000A50509009C050800940508008C050800C3
:10179000840508007C050800740508006C05070036
:1017A000650508005D050700560508004E050700A1
:1017B0004705070040050800380507003105070008
:1017C0002A050700230507001C050600160507006B
:1017D0000F0507000805060002050700FB040600C8
:1017E000F5040700EE040600E8040600E204070022
:1017F000DB040600D5040600CF040600C904060079
:10180000C3040600BD040600B7040600B1040500C9
:10181000AC040600A6040600A00405009B04060014
:1018200095040500900406008A040500850405005F
:10183000800406007A0405007504050070040500A4
:101840006B04050066040500610405005C040500E6
:1018500057040500520405004D0405004804050026
:10186000430405003E0404003A0405003504050065
:10187000300404002C0405002704040023040500A0
:101880001E0404001A0404001604050011040400D8
:101890000D0404000904050004040400000404000D
:1018A000FC030400F8030400F4030400F003040044
:1018B000EC030400E8030400E4030400E003040074
:1018C000DC030400D8030400D4030400D0030400A4
:1018D000CC030400C8030300C503030024F404D9A7
:1018E000201BC40C5C0E9804C4095F0265077101DB
:1018F000F405F900FB04B30048048700C103690044
:101900005803550003034500BE023A00840231002B
:1019100053022A002902250004022000E4011C00D1
:10192000C8011900AF0117009801140084011300C9
:10193000710110006101100051010E0043010D0002
:1019400036010B002B010B0020010B0015010900D3
:101950000C01090003010800FB000800F300080067
:10196000EB000700E4000600DE000600D8000600D9
:10197000D2000600CC000500C7000500C20005002B
:10198000BD000400B9000400B5000400B10004006B
:10199000AD000400A9000400A5000300A20003009C
:1019A0009F0004009B0003009800030095000200C4
:1019B00093000300900003008D0002008B000300E1
:1019C00088000200860002008400030081000200FB
:1019D0007F0002007D0002007B000200790002000F
:1019E000770001007600020074000200720001001E
:1019F000710002006F0002006D0001006C00020027
:101A00006A00010069000200670001006600010031
:101A10006500010064000200620001006100010035
:101A2000600001005F0002005D0001005C00010039
:101A30005B0001005A00010059000100580001003C
:101A4000570001005600010055000100540001003C
:101A5000530000005300010052000100510001003A
:101A6000500001004F0001004E0000004E00010038
:101A70004D0001004C0001004B0000004B00010034
:101A80004A00010049000100480000004800010030
:101A9000470001004600000046000100450000002C
:101AA0004500010044000100430000004300010024
:101AB000420000004200010041000000410001001E
:101AC000400001003F0000003F0001003E00000018
:101AD0003E0001003D0000003D0001003C00000010
:101AE0003C0000003C0001003B0000003B00010006
:101AF0003A0000003A0001003900000039000100FE
:101B000038000000380000003800010037000000F5
:101B100037000100360000003600000036000100EA
:101B200035000000350000003500010034000000E1
:101B300034000000340001003300000033000000D6
:101B400033000100320000003200000032000100CA
:101B500031000000310000003100010030000000C1
:101B600030000000300001002F0000002F000000B6
:101B70002F0000002F0001002E0000002E000000AA
:101B80002E0001002D0000002D0000002D0000009F
:101B90002D0001002C0000002C0000002C00000093
:101BA0002C0001002B0000002B0000002B00000087
:101BB0002B0001002A0000002A0000002A0000007B
:101BC0002A0001002900000029000000290000006F
:101BD0002900000029000100280000002800000062
:101BE0002800000028000000280001002700000055
:101BF0002700000027000000270000002700010048
:101C0000260000002600000026000000260000003C
:101C1000260001002500000025000000250000002E
:101C20002500000025000000250001002400000020
:101C30002400000024000000240000002400010013
:101C40002300000023000000230000002300000008
:101C500023000000230000002300010022000000F8
:101C600022000000220000002200000022000000EC
:101C700022000100210000002100000021000000DE
:101C800021000000210000002100000021000100CF
:101C900020000000200000002000000020000000C4
:101CA00020000000200000002000000020000100B3
:101CB0001F0000001F0000001F0000001F000000A8
:101CC0001F0000001F0000001F0001001E00000098
:101CD0001E0000001E0000001E000000537572660A
:101CE000696E672030200A005430004D3834205887
:101CF0002059205A204500496E7374616C6C202570
:101D000064202573206F6E20746865202573206819
:101D10006F74656E642E00496E7374616C6C20255F
:101D200064202573206F6E207468652025732068F9
:101D30006F74656E642E0025752E25303275005245
:101D40003139005231362F52313700507572676584
:101D50002046696C616D656E740A00537572666920
:101D60006E6720310A0053757266696E6720300A0B
:101D7000004252494748544E4553533A2000220AE4
:101D800000656E717565696E67202200220A006524
:101D90006E717565696E67202200202F002040005B
:101DA00020403A00526573656E643A20006F6B0AFA
:101DB000004475706C69204D6F6465204F4E0A00B9
:101DC0004D6972726F72204D6F6465204F4E0A002C
:101DD0002A2A2A2047656E696520446973636F6EFD
:101DE0006E65637465642066726F6D204765744E1E
:101DF0006578744279746521202A2A2A002A2A2AC1
:101E00002047656E696520456E61626C652041748E
:101E1000746163684576656E7448616E646C657262
:101E200020212121202A2A2A0043616E6E6F74200E
:101E3000656E746572207375626469723A2000572A
:101E4000726974696E6720746F2066696C653A20E8
:101E5000002E0A006F70656E206661696C65642CE7
:101E60002046696C653A20002E0A006F70656E206E
:101E70006661696C65642C2046696C653A20004691
:101E8000696C652073656C65637465640A00205332
:101E9000697A653A200046696C65206F70656E65E9
:101EA000643A20002E0A006F70656E206661696CCE
:101EB00065642C2046696C653A20004E6F77206679
:101EC000726573682066696C653A20004E6F7720F2
:101ED000646F696E672066696C653A200022207025
:101EE0006F73002220706172656E743A2200535540
:101EF00042524F5554494E452043414C4C20746149
:101F0000726765743A2200747279696E6720746F23
:101F10002063616C6C207375622D67636F6465204C
:101F200066696C6573207769746820746F6F206DC3
:101F3000616E79206C6576656C732E204D4158205A
:101F40006C6576656C2069733A00534156454420B0
:101F50005052494E540A007A70726F62653A2000FE
:101F600053442063617264206F6B0A006F70656E6A
:101F7000526F6F74206661696C65640A00766F6CDD
:101F8000756D652E696E6974206661696C65640A99
:101F9000004572726F723A00534420696E69742072
:101FA0006661696C0A0070012C0190012701B00183
:101FB0002201C0011D01F0011801100213013002BD
:101FC0000E016002090190020401C002FF0000033B
:101FD000FA004003F5008003F000D003EB0020047A
:101FE000E6007004E100E004DC004005D700C00515
:101FF000D2004006CD00D006C8008007C3003008DC
:10200000BE00F008B900C009B400B00AAF00B00BC0
:10201000AA00D00CA500000EA000500F9B00C0101D
:1020200096005012910000148C00C0158700B01764
:102030008200B0197D00D01B7800001E7300402084
:102040006E0090226900F024640040275F00902910
:102050005A00E02B5500102E500020304B0010325B
:102060004600E033410090353C00103737007038AF
:102070003200A0392D00B03A2800A03B2300603C7C
:102080001E00103D1900903D1400103E0F00703EE0
:102090000A00C03E0500003F000048797374657275
:1020A000657369732074656D7065726174757265AE
:1020B0000A00546865726D616C2072756E6177619B
:1020C000792070726F74656374696F6E2062792015
:1020D0004865617465725F49443A0A004572726FDF
:1020E000723A004572726F72283833293A2042657D
:1020F0006420746865726D6973746F72206E6F749A
:102100002064657465637465640A004572726F7259
:10211000283832293A2052696768742074686572D9
:102120006D6973746F72206E6F742064657465637B
:102130007465640A004572726F72283831293A203A
:102140004C65667420746865726D6973746F722073
:102150006E6F74202064657465637465640A002082
:1021600053544F50205052494E54200A0045727229
:102170006F72283833293A2042656420746865728A
:102180006D6973746F72206E6F742064657465631B
:102190007465640A002053544F50205052494E54E5
:1021A000200A004572726F72283832293A2052692B
:1021B00067687420746865726D6973746F72206EDD
:1021C0006F742064657465637465640A00205354F9
:1021D0004F50205052494E54200A004572726F727F
:1021E000283831293A204C65667420746865726D10
:1021F0006973746F72206E6F7420206465746563F8
:102200007465640A002053544F50205052494E5474
:10221000200A004552524F52283839293A20424567
:1022200044206973206E6F742068656174696E67FD
:10223000002053544F50205052494E54200A00451C
:1022400052524F52283839293A20486F74656E64CB
:10225000202564206973206E6F742068656174693D
:102260006E67006563686F3A000A0020616E7469EA
:10227000686F726172690A3A200020686F72617239
:10228000690A20002F3800766F6C74657320002077
:10229000566F6C74657320636172676F6C20333A9C
:1022A000200020616E7469686F726172690A3A2059
:1022B0000020686F726172690A20002F3800766F03
:1022C0006C746573200020566F6C746573206361B5
:1022D00072676F6C20323A20000A0020647A333A29
:1022E000200020647A323A200054310054300054E7
:1022F00030005430000A0056756974656E73333AC5
:102300002020004170726F78333A202000566F6CA5
:10231000746573333A2020000A0056756974656E3F
:1023200073323A2020004170726F78323A202000D8
:10233000566F6C746573323A20200056616C6F7270
:1023400020645A333A20200056616C6F7220645A20
:10235000323A2020004E6577206F666673657420E0
:1023600076657273696F6E3A20007A335F313A2076
:10237000007A325F313A20005A7363726F6C6C5F7F
:10238000313A20007A335F303A20007A325F303AB7
:1023900020005A7363726F6C6C5F303A20005A767B
:1023A000616C756520616674657220686F6D653A51
:1023B00000486F6D6520582F59206265666F726501
:1023C000205A0A003B2020204275696C6420746901
:1023D0006D653A2025642025732025642025730A25
:1023E000003B5072696E742074696D653A202564F3
:1023F0002025732025642025732025642025730063
:102400003B54494D453A256C64003B202020506CDC
:102410006173746963207765696768743A2025641D
:102420002E256467003B46696C616D656E7420758E
:102430007365643A2025642E25646D2025642E255D
:102440006467003B46696C616D656E7420757365E9
:10245000643A20256C642E256C646D003B457874CD
:1024600072756465727320757365643A20542564CF
:102470002025642E2564205425642025642E25649F
:10248000003B202020657874727564657244696130
:102490006D657465722C312C25642E2564003B20FB
:1024A000202065787472756465724469616D657425
:1024B00065722C25642E25642C25642E2564003B32
:1024C00020202065787472756465724469616D6559
:1024D0007465722C25642E2564002E2E2E205469DE
:1024E0006D656F757421002A2A2A2047656E69651B
:1024F0002057726974654F626A656374202A2A2ABC
:10250000202D2D2D3E002E2E2E204E414B20210021
:102510002A2A2A2047656E69652057726974654FBB
:10252000626A656374202A2A2A202D2D2D3E002EF2
:102530002E2E2041434B2021002A2A2A2047656E57
:1025400069652057726974654F626A656374202AF1
:102550002A2A202D2D2D3E002A2A2A2047656E6921
:1025600065204261642042797465202A2A2A202D40
:102570002D2D3E203078002056616C75653A200084
:1025800020496E6465783A20002A2A2A2047656E21
:102590006965205265706F7274204F626A6563745A
:1025A000202A2A2A204F626A6563743A20002A2A68
:1025B0002A2047656E696520436F6E6E656374659A
:1025C00064202F2053796E6321202A2A2A00205666
:1025D000616C75653A200020496E6465783A200088
:1025E0002A2A2A2047656E6965205265706F7274C9
:1025F000204576656E74202A2A2A204F626A656318
:10260000743A2000204C656E6774683A20002A2ACC
:102610002A2047656E696520526563656976656441
:10262000204D6167696320446F75626C6520427953
:10263000746573202A2A2A20496E6465783A20003E
:10264000204C656E6774683A20002A2A2A20476564
:102650006E6965205265636569766564204D6167C2
:102660006963204279746573202A2A2A20496E649E
:1026700065783A20002A2A2A2047656E6965204E2F
:10268000414B205265636F766572792021212120AC
:102690002A2A2A002A2A2A2047656E696520446969
:1026A00073636F6E6E65637465642066726F6D2010
:1026B000446F4576656E747321202A2A2A002A2ADF
:1026C0002A2047656E696520546F6F6B20746F6FA9
:1026D000206C6F6E6720746F2072652D656E746557
:1026E0007220446F4576656E747328292C207265BC
:1026F000647563652064656C61797320696E20631D
:102700006F64652C2073656C662D70726F746563E1
:1027100074696F6E20656E61626C65642E202A2A72
:102720002A004572726F72205772697465204545A0
:1027300050524F4D0053657474696E677320537423
:102740006F7265640A00204D696E75746573203A76
:102750000020204C617374207072696E742074695B
:102760006D652D3E20486F757273203A004C617381
:1027700074207072696E74206475726174696F6E12
:102780000A002C205468697264204944206E756DDB
:1027900062657220002C205365636F6E642049448B
:1027A000206E756D6265723A200020204669727352
:1027B00074204944206E756D6265723A2000554957
:1027C00020496E666F726D6174696F6E2053657219
:1027D00069616C204E756D6265723A0A00206D2C3D
:1027E000204531207072696E742064697374616E63
:1027F00063653A2000206B6D2C2045302070726993
:102800006E742064697374616E63653A2000206B96
:102810006D2C2059207072696E7420646973746124
:102820006E63653A2000206B6D2C20583120707249
:10283000696E742064697374616E63653A20002068
:10284000432C0A205830207072696E7420646973BA
:1028500074616E63653A200020432C206D617820FE
:1028600074656D7020423A200020432C206D617801
:102870002074656D7020523A20002C206D61782004
:1028800074656D70204C3A2000682C207072696E5F
:1028900074732066696E69736865643A20002C2041
:1028A0007072696E74696E672074696D653A200094
:1028B00020207072696E74733A200053544154534F
:1028C0003A0A0020432C20525F5052494E543A207D
:1028D0000020432C20525F4245443A200020432CE4
:1028E00020525F52454D4F56453A20002020525FFE
:1028F000494E534552543A200054656D7020284388
:10290000293A0A0020432C204C5F5052494E543A39
:10291000200020432C204C5F4245443A20002043B5
:102920002C204C5F52454D4F56453A200020204CFC
:102930005F494E534552543A200054656D7020282B
:1029400043293A0A0020562856657273696F6E292A
:1029500020002052284265642072696768742073E1
:102960006372657729200020204D353331204C28B3
:10297000426564206C6566742073637265772920F4
:1029800000426564204F66667365747320286D6D20
:10299000293A0A002050285A2070726F6265290077
:1029A000205A20002059200020204D353330205857
:1029B00020004F66667365747320286D6D293A0A8E
:1029C00000204400204900202D204D33303120527A
:1029D0004947485420500020440020490020204D01
:1029E000333031204C454654205000504944207328
:1029F000657474696E67733A0A00205A00205900A2
:102A000020204D323036205800486F6D65206F66AB
:102A10006673657420286D6D293A0A0020450020F0
:102A20005A0020580020420020540020204D32300F
:102A300035205300416476616E636564207661726F
:102A40006961626C65733A20533D4D696E2066651D
:102A500065647261746520286D6D2F73292C205474
:102A60003D4D696E2074726176656C2066656564A3
:102A70007261746520286D6D2F73292C20423D6D85
:102A8000696E696D756D207365676D656E74207410
:102A9000696D6520286D73292C20583D6D6178691A
:102AA0006D756D205859206A65726B20286D6D2FE9
:102AB00073292C20205A3D6D6178696D756D205AFF
:102AC000206A65726B20286D6D2F73292C2020459C
:102AD0003D6D6178696D756D2045206A65726B206A
:102AE000286D6D2F73290A0020540020204D3230AC
:102AF00034205300416363656C65726174696F6E65
:102B00003A20533D616363656C65726174696F6EF1
:102B10002C20543D72657472616374206163636537
:102B20006C65726174696F6E0A00204500205A005E
:102B300020590020204D3230312058004D617869F5
:102B40006D756D20416363656C65726174696F6E4C
:102B500020286D6D2F7332293A0A00204500205A33
:102B60000020590020204D3230332058004D61782C
:102B7000696D756D20666565647261746573202882
:102B80006D6D2F73293A0A00204500205A00205904
:102B90000020204D39322058005374657073207026
:102BA000657220756E69743A0A007C3C3E5E2B3D6E
:102BB0003F2F5B5D3B2C2A225C005049442041752D
:102BC000746F74756E652066696E697368656421DB
:102BD0000A00504944204175746F74756E65206613
:102BE00061696C6564212074696D656F75740A0094
:102BF00020403A006F6B20543A006F6B20423A003D
:102C0000504944204175746F74756E652066616922
:102C10006C6564212054656D7065726174757265B0
:102C200020746F6F20686967680A00204B643A203F
:102C300000204B693A2000204B703A200020436C62
:102C4000617373696320504944200A002054753A27
:102C50002000204B753A2000206D61783A2000203A
:102C60006D696E3A200020643A2000206269617329
:102C70003A20003B20472D436F64652067656E65F1
:102C800072617465642062792053696D706C696645
:102C90007933442852292056657273696F6E202556
:102CA00064004D313037004E6577206C6179657274
:102CB0002064657465637465640A003B206C617907
:102CC0006572003B4C4159455200256920686F757B
:102CD0007273202569206D696E7574657300446F89
:102CE0006E65207072696E74696E672066696C65C6
:102CF0000A004D3333005061757365207061726B4B
:102D0000696E670A00473639005072696E746572E1
:102D10002073746F707065642064756520746F2013
:102D20006572726F72732E20466978207468652010
:102D30006572726F7220616E6420757365204D3903
:102D4000393920746F20726573746172742E202873
:102D500054656D7065726174757265206973207257
:102D6000657365742E2053657420697420616674E0
:102D700065722072657374617274696E67290A00E6
:102D80006F6B0A004E6F204C696E65204E756D6248
:102D90006572207769746820636865636B73756D0D
:102DA0002C204C617374204C696E653A20004E6F84
:102DB00020436865636B73756D2077697468206C58
:102DC000696E65206E756D6265722C204C6173743E
:102DD000204C696E653A2000636865636B73756D9E
:102DE000206D69736D617463682C204C617374206D
:102DF0004C696E653A20004C696E65204E756D62B7
:102E00006572206973206E6F74204C617374204C5E
:102E1000696E65204E756D6265722B312C204C6198
:102E20007374204C696E653A20004D31313000CD0D
:102E3000CC98430080934300005243000000000000
:102E400000000000000000526561647920746F206A
:102E50004C6F61642F556E6C6F6164200A0065636E
:102E6000686F3A0053746F72656420736574746997
:102E70006E6773207265747269657665640A0048CE
:102E8000617264636F6465642044656661756C7427
:102E90002053657474696E6773204C6F6164656458
:102EA0000A0048617264636F6465642043616C6901
:102EB0006220616E64205049442044656661756CEF
:102EC000742053657474696E6773204C6F61646518
:102ED000640A004736392041435449564154454419
:102EE0000A008902AD0211241FBECFEFD1E2DEBF7E
:102EF000CDBF00E00CBF18E0A0E0B2E0E6E0F0EAF1
:102F000003E00BBF02C007900D92A63AB107D9F7B4
:102F10002EE1A6EAB8E001C01D92A535B207E1F79F
:102F200017E1C2E7D7E100E006C021970109802F31
:102F3000FE010F94E4CCC137D10780E00807A9F760
:102F40000F94F1A20D94F2CF0C9400002F923F92B7
:102F50004F925F926F927F928F929F92AF92BF92A9
:102F6000CF92DF92EF92FF920F931F93CF93DF9355
:102F7000CDB7DEB7C352D1400FB6F894DEBF0FBE57
:102F8000CDBF2DB73EB7CE5DDE4F39832883C25209
:102F9000D1408091DE0881110DC00E946FB2609314
:102FA000DA087093DB088093DC089093DD0881E0F9
:102FB0008093DE088091D20881110DC00E946FB20B
:102FC0006093CE087093CF088093D0089093D10877
:102FD00081E08093D20881E08093FA089091D81A1A
:102FE00040919A0250919B0260919C0270919D02C7
:102FF000911106C08091D91A882311F40C9489226A
:10300000463A51056105710509F4F5C50CF0F1C0AA
:10301000483551056105710509F480C40CF058C0AC
:10302000413251056105710511F40C94A22034F56B
:10303000413151056105710509F4E9C774F4413066
:1030400051056105710509F402C34031510561055F
:10305000710509F4EBC10C94C0624331510561055F
:10306000710509F49DC40CF4B8C4403251056105E2
:10307000710511F40C94B4200C94C0624D335105C9
:103080006105710509F418C47CF4413351056105EB
:10309000710509F462C4453351056105710511F4E8
:1030A0000C9459210C94C06243355105610571059A
:1030B00009F4E7C2473551056105710509F483C478
:1030C000443451056105710511F00C94C06286C746
:1030D000483951056105710511F40C942E210CF04D
:1030E0004CC04B3751056105710509F415C674F4E0
:1030F0004A3551056105710509F40EC6463751057B
:103100006105710509F489C40C94C0624938510500
:103110006105710509F468C24739510561057105FA
:1031200011F40C943F214E3751056105710511F0E2
:103130000C94C06240E050E066E08BE10F94876140
:1031400040E050E060E181E20F94876140E050E0B0
:1031500062E181E20F94876140E050E063E181E247
:103160000F94876140E050E06EE781E20F94876141
:1031700081E4809326020C94C0624D3951056105AB
:10318000710511F40C94022194F44B395105610539
:10319000710511F40C94CC2014F00C94D5204A390C
:1031A00051056105710509F4EEC70C94C062443AFB
:1031B00051056105710509F49CC50CF074C5433ACD
:1031C00051056105710511F00C94C0628091F408FD
:1031D0009091F508A091F608B091F708806480936B
:1031E000F4089093F508A093F608B093F7080C94B0
:1031F000C062413F51056105710509F428C20CF018
:1032000093C0423E51056105710509F4BCC40CF040
:103210004EC0493A51056105710509F457C504F5D9
:10322000473A51056105710509F42AC5483A510527
:103230006105710511F00C94C0628091F4089091C1
:10324000F508A091F608B091F70898608093F4080B
:103250009093F508A093F608B093F7080C94C06219
:103260004E3B51056105710509F46AC3433D5105A3
:103270006105710511F40C9445224A3A5105610526
:10328000710511F00C94C0628091F4089091F508DA
:10329000A091F608B091F70880618093F4089093AC
:1032A000F508A093F608B093F7080C94C0624A3E64
:1032B00051056105710509F486C114F5443E5105B7
:1032C0006105710509F427C40CF4D4C3453E5105CA
:1032D0006105710511F00C94C0628091F408909121
:1032E000F508A091F608B091F70884608093F4087F
:1032F0009093F508A093F608B093F7080C94C06279
:103300004E3E51056105710509F499C14F3E5105C5
:103310006105710509F4CFC14D3E51056105710587
:1033200011F00C94C062C3C04B3F5105610571059B
:1033300009F4CCC354F5473F51056105710509F403
:10334000FDC374F4423F51056105710509F499C14B
:10335000463F51056105710509F428C40C94C0620B
:103360008091F4089091F508A091F608B091F708C3
:103370002091C6023091C702493F51056105710590
:1033800009F465C40CF44AC488C34E3631E05307CF
:103390006105710509F480C09CF5483691E0590734
:1033A0006105710509F47CC74A36A1E05A07610539
:1033B000710509F471C0453651406105710511F080
:1033C0000C94C06240E050E06AE28AE00F948761AA
:1033D00040E050E064E581E20F94876110928D1225
:1033E00069E479E086E20F94956280912C0A9091CD
:1033F0002D0A986090932D0A80932C0A0C94C06239
:103400004937E1E05E076105710509F4FCC54538FF
:10341000F1E05F076105710509F454C14837514077
:103420006105710511F00C94C06259C580912602A6
:10343000813419F541E050E066E08BE10F9487613B
:1034400041E050E060E181E20F94876141E050E0AB
:1034500062E181E20F94876141E050E063E181E243
:103460000F94876141E050E06EE781E20F9487613D
:1034700084E4809326020C94C062843411F00C948E
:10348000C06280912C0A90912D0A806490932D0A3D
:1034900080932C0A0C94C06280912C0A90912D0A82
:1034A000926090932D0A80932C0A0C94C0628091B4
:1034B0002602823419F583E48093260241E050E02D
:1034C00063E08BE10F94876141E050E067E581E2C2
:1034D0000F94876141E050E066E781E20F948761D5
:1034E00041E050E06DEE81E20F94876141E050E0F1
:1034F00069E881E20F9487610C94C062833411F013
:103500000C94C06211E01093F00840E050E068E9CC
:1035100081E20F94876140E050E067E981E20F9417
:10352000876140E050E06CE981E20F94876140E000
:1035300050E06DE981E20F94876141E050E06AE478
:1035400081E20F94876140E050E06CE28AE00F94E2
:10355000876110938D128FEF9FEF909321028093DC
:10356000200240E050E06AE981E20F94876140E088
:1035700050E06BE981E20F9487616091871370914D
:1035800088138091891390918A130F940CCAAB0110
:1035900066E289E00F94876160918B1370918C13C0
:1035A00080918D1390918E130F940CCAAB0167E23A
:1035B00089E00F94876140E050E068E289E00F9471
:1035C00087610C94C06240E050E06EE681E20F94A7
:1035D000876180912C0A90912D0A926090932D0A18
:1035E00080932C0A0C94C06280912602833411F0DF
:1035F0000C94C06282E48093260240E050E063E0D5
:103600008BE10F94876140E050E067E581E20F9421
:10361000876140E050E066E781E20F94876140E017
:1036200050E06DEE81E20F94876140E050E069E880
:1036300081E20F94876110928D120C94C06240E079
:1036400050E064E58AE00F9487610C94C06280E0EA
:103650000F94E33A80912C0A90912D0A8260909306
:103660002D0A80932C0A81E08093911240E050E073
:1036700068E08AE00F94876181E4809392120C9451
:10368000C0628091310A882311F40C94C06241E039
:1036900050E080912E0A8A3011F440E050E069E158
:1036A0008BE10F94876140E050E062E58AE00F947F
:1036B00087610C94C06289E480931E020F942619DE
:1036C0000C94C06280914B1E90914C1E90935A12A4
:1036D000809359120F94214680914D1E90914E1E59
:1036E00090935C1280935B120F94214682E4809346
:1036F000260282E580931E0281E080938D128091E4
:103700002E0AE1E08A3009F4E0E0E0934809F0E0B5
:10371000EE0FFF1FE75AFD4E208131813093CD0817
:103720002093CC088A3029F48091D40B9091D50B4A
:1037300004C08091D80B9091D90B918380830F9412
:10374000214681E48093921240E050E068E08AE0F4
:103750000F94876140E050E064E581E20F94876157
:1037600080E090E0A3E4B3E480937C1290937D1218
:10377000A0937E12B0937F1280908E0C90908F0C4D
:10378000A090900CB090910C209178123091791209
:1037900040917A1250917B1260917412709175125F
:1037A0008091761290917712E7E66E2EE2E17E2EFE
:1037B0007F926F92F0E8CF2EF2E1DF2EE12CF12C18
:1037C00003E413E40E9497F10F94854980E090E0B0
:1037D000A0E2B1E48093781290937912A0937A12C8
:1037E000B0937B1280908A0C90908B0CA0908C0CE4
:1037F000B0908D0CE0907C12F0907D1200917E12C2
:1038000010917F12609174127091751280917612EE
:10381000909177127F926F9220E030E040E251E485
:103820000E9497F10F9485490F900F900F900F9081
:10383000809192128E3411F40C944B2A10929212B1
:103840000E94C26840E050E060E289E00F94876126
:1038500040E050E064E28AE00F94876100914809FB
:1038600010E0F801EE0FFF1FEE0FFF1FE957FC4EAF
:1038700060817181828193810F940CCA7093EE08EC
:103880006093ED08000F111FF801E75AFD4E80818B
:1038900091810A979093EC088093EB081092EA08C4
:1038A0001092E90889E4809392120E94C26881E034
:1038B0008093EF080C94C0628091260240E050E0B3
:1038C0008134B1F469E08AE00F94876169E479E0BA
:1038D00082E00F94956280912C0A90912D0A986055
:1038E00090932D0A80932C0A10928D120C94C06232
:1038F0006AE28AE00F94876169E479E086E20F94D6
:10390000956280912C0A90912D0A986090932D0ACF
:1039100080932C0A10928D120C94C0628091D30B6C
:1039200081110C94C0628091D91A81110C94C062EB
:1039300040E050E069E38AE00F9487610C94C06234
:103940008091D30B81110C94C06240E050E061E0A3
:103950008AE00F9487610C94C0628091D30B81112F
:103960000C94C06210912602113411F00C94C062C4
:103970001092D81A81E08093D91A40E050E068E0B4
:103980008AE00F9487611093921280912C0A909193
:103990002D0A946090932D0A80932C0A0C94C06297
:1039A00080912602813489F2843411F00C94C06233
:1039B00080912C0A90912D0A906190932D0A80930A
:1039C0002C0A0C94C06280912602823409F4BDCF87
:1039D000833411F00C94C062EBCF809126029923BE
:1039E00069F0813459F480912C0A90912D0A8860F5
:1039F00090932D0A80932C0A0C94C062843411F0A9
:103A00000C94C06280912C0A90912D0A806890934A
:103A10002D0A80932C0A0C94C0628091D91A8823B5
:103A200011F40C94C06280912602823459F4809182
:103A30002C0A90912D0A806190932D0A80932C0A74
:103A40000C94C062833411F00C94C06240E050E0EA
:103A500066E18AE00F94876141E050E064E581E22D
:103A60000F94876182E580931E0281E080938D121E
:103A70000C94C0628091F4089091F508A091F6082A
:103A8000B091F70888608093F4089093F508A093AC
:103A9000F608B093F7080C94C0622330310559F44E
:103AA000A1608093F4089093F508A093F608B09372
:103AB000F7080C94C06284608093F4089093F50832
:103AC000A093F608B093F7080C94C0622091C60248
:103AD0003091C7028091F4089091F508A091F60802
:103AE000B091F7082330310559F4A2608093F408AF
:103AF0009093F508A093F608B093F7080C94C06271
:103B000088608093F4089093F508A093F608B0932A
:103B1000F7080C94C0628091F4089091F508A09188
:103B2000F608B091F70881608093F4089093F50847
:103B3000A093F608B093F7080C94C0622091C602D7
:103B40003091C7028091F4089091F508A091F60891
:103B5000B091F7082330310559F490618093F4084F
:103B60009093F508A093F608B093F7080C94C06200
:103B700081608093F4089093F508A093F608B093C1
:103B8000F7080C94C0628091F4089091F508A09118
:103B9000F608B091F70882608093F4089093F508D6
:103BA000A093F608B093F7080C94C0622091C60267
:103BB0003091C7028091F4089091F508A091F60821
:103BC000B091F7082330310559F490628093F408DE
:103BD0009093F508A093F608B093F7080C94C06290
:103BE00082608093F4089093F508A093F608B09350
:103BF000F7080C94C0628091F4089091F508A091A8
:103C0000F608B091F70880628093F4089093F50865
:103C1000A093F608B093F7080C94C06223303105E6
:103C200059F490648093F4089093F508A093F608F3
:103C3000B093F7080C94C06280628093F40890936C
:103C4000F508A093F608B093F7080C94C0622330EF
:103C5000310559F490688093F4089093F508A09387
:103C6000F608B093F7080C94C06280618093F40862
:103C70009093F508A093F608B093F7080C94C062EF
:103C80008091F4089091F508A091F608B091F7089A
:103C900091608093F4089093F508A093F608B09390
:103CA000F7080C94C0628091F4089091F508A091F7
:103CB000F608B091F70880688093F4089093F508AF
:103CC000A093F608B093F7080C94C0628091F408B2
:103CD0009091F508A091F608B091F7089260809352
:103CE000F4089093F508A093F608B093F7080C94A5
:103CF000C0628091F4089091F508A091F608B09107
:103D0000F70894608093F4089093F508A093F60860
:103D1000B093F7080C94C0624A35510561057105EE
:103D200019F41092480903C081E0809348098091FA
:103D30004809E82FF0E0EE0FFF1FE75AFD4E208103
:103D400031813093CD082093CC08811105C080913A
:103D5000D40B9091D50B04C08091D80B9091D90BC6
:103D6000918380830F94214681E48093921240E0F6
:103D700050E068E08AE00F94876140E050E064E53D
:103D800081E20F94876180E090E0A3E4B3E4809344
:103D90007C1290937D12A0937E12B0937F1280903C
:103DA0008E0C90908F0CA090900CB090910C209164
:103DB00078123091791240917A1250917B12609171
:103DC0007412709175128091761290917712E7E6D5
:103DD0006E2EE2E17E2E7F926F92F0E8CF2EF2E11E
:103DE000DF2EE12CF12C03E413E40E9497F10F94F1
:103DF000854980E090E0A0E2B1E48093781290934E
:103E00007912A0937A12B0937B1280908A0C9090D2
:103E10008B0CA0908C0CB0908D0CE0907C12F090EC
:103E20007D1200917E1210917F1260917412709138
:103E3000751280917612909177127F926F9220E0A6
:103E400030E040E251E40E9497F10F9485490F90D1
:103E50000F900F900F90809192128E3411F40C9469
:103E60004B2A109292120E94C26840E050E060E239
:103E700089E00F94876140E050E064E28AE00F94AB
:103E800087610091480910E0F801EE0FFF1FEE0F67
:103E9000FF1FE957FC4E60817181828193810F94ED
:103EA0000CCA7093EE086093ED08000F111FF80123
:103EB000E75AFD4E808191810A979093EC08809398
:103EC000EB081092EA081092E90889E480939212B4
:103ED0000E94C26881E08093EF080C94C06240E0C9
:103EE00050E060E289E00F94876140E050E064E2D6
:103EF0008AE00F94876189E4809392120E94C268DD
:103F00000091480901111DC08091D60B9091D70BEB
:103F10006091A5117091A611681779072CF4BC0166
:103F2000990F880B990B04C0072E000C880B990B76
:103F30000F94D7C10F940CCA70935A126093591200
:103F400020C08091DA0B9091DB0B60919F117091F2
:103F5000A011681779072CF4BC01990F880B990BF5
:103F600004C0072E000C880B990B0F94D7C110E0EA
:103F7000000F111F075A1D4E0F940CCAD8016D93E4
:103F80007C930F9421460091480910E0F801EE0F50
:103F9000FF1FEE0FFF1FE957FC4E60817181828188
:103FA00093810F940CCA7093EE086093ED08000F94
:103FB000111FF801E75AFD4E808191810A97909375
:103FC000EC088093EB081092EA081092E9080E942E
:103FD000C26881E08093EF080C94C06280913A023D
:103FE000882311F40C944A6180914809811102C020
:103FF0008AE101C086E30E94DEB0892B11F00C94A7
:104000004A610C94C0620F9443140C94C062809176
:10401000F20881FF02C00C94C06280910C0A90915A
:104020000B0A98130C94D96240E050E06BE084E1F5
:104030000F94876140E050E065E18AE00F9487616A
:1040400082E48093921280931213E091480934E045
:10405000E39FF0011124E255FD4F6081718182815F
:10406000938160937412709375128093761290937B
:104070007712E0907C12F0907D1200917E121091E8
:104080007F12209178123091791240917A125091DA
:104090007B12E8E4F9E0FF93EF93812C912CE8E4A4
:1040A000AE2EE3E4BE2EF0E8CF2EF2E1DF2E0E942A
:1040B00097F1E0907C12F0907D1200917E121091A9
:1040C0007F12209178123091791240917A1250919A
:1040D0007B12E091671264E0E69FF0011124E25543
:1040E000FD4F60817181828193810F941763E0910C
:1040F000671284E0E89FF0011124E255FD4F8081B2
:104100009181A281B3818093741290937512A093D0
:104110007612B0937712E0914809F0E0EE0FFF1F9E
:10412000E75AFD4E8091CC089091CD089183808311
:104130000F9421461092310A0F9485490F900F90E9
:104140000C94C0628091F20881FF02C00C94C0629E
:1041500090910C0A20910B0A29130C94DD62806166
:104160008093F2080C94C0628091F20881FF02C033
:104170000C94C06290910C0A20910B0A29130C94A4
:10418000DD620C94E06280910C0A90910B0A981306
:104190000C94C0620C94E46290910C0A80910B0A1A
:1041A00098130C94C0620C946F63E0912002F0911C
:1041B0002102EF3F9FEFF90711F40C94C062EE0F5C
:1041C000FF1FE75AFD4E808191818B33A1E09A0752
:1041D00014F00C94C0620596918380830F9421465D
:1041E0000F942146E0912002F0912102EE0FFF1F73
:1041F000E75AFD4E4081518168E289E00F94876162
:104200000C94C062E0912002F0912102EF3FBFEFD9
:10421000FB0711F40C94C062EE0FFF1FE75AFD4E2E
:10422000808191811816190614F00C94C0620597CC
:10423000918380830F9421460F942146E0912002C0
:10424000F0912102EE0FFF1FE75AFD4E4081518190
:1042500068E289E00F9487610C94C062809120022B
:1042600090912102019611F40C94C06290910C0A75
:1042700080910B0A98130C94DD620C94FD6380917D
:10428000200290912102019611F40C94C062909149
:104290000C0A80910B0A98130C94DD620C94036451
:1042A00090910C0A80910B0A98130C94C0620C94A4
:1042B00009647090121322E472120C94C06210927E
:1042C000921280912C0A90912D0A8D7F90932D0A45
:1042D00080932C0A80911E02823531F489E4809308
:1042E0001E020F942619CDC0893409F0CAC081E49A
:1042F0008093921240E050E068E08AE00F9487617A
:10430000209082093090830940908409509085095B
:10431000209278123092791240927A1250927B1247
:1043200020E030E040E752E4609171027091720247
:1043300080917302909174020F9460C94B015C01EB
:10434000E0907C12F0907D1200917E1210917F120D
:10435000609174127091751280917612909177121B
:1043600027E632E13F932F9320E8C22E22E1D22E9E
:10437000A20191010E9497F10F9485490F900F902F
:10438000809192128E3411F40C944B2A20E030E08C
:1043900040E251E460918609709187098091880913
:1043A000909189090F9472C87B018C0160937C12F3
:1043B00070937D1280937E1290937F1280917D097D
:1043C00089838090750290907602A0907702B090D9
:1043D0007802209178123091791240917A1250919E
:1043E0007B12609174127091751280917612909187
:1043F0007712FE013196FF93EF930E9497F10F948D
:1044000085490F900F90809192128E3411F40C9484
:104410004B2A109292127092260240E050E063E024
:104420008BE10F94876140E050E067E581E20F94F3
:10443000876140E050E066E781E20F94876140E0E9
:1044400050E06DEE81E20F94876140E050E069E852
:1044500081E20F94876140E050E06AE28AE00F94C5
:10446000876110928D1269E479E086E20F9495627B
:1044700080912C0A90912D0A986090932D0A809338
:104480002C0A109212130C94C06280919A1110920F
:1044900092128823E9F010929A1180912C0A90913F
:1044A0002D0A986090932D0A80932C0A8091260201
:1044B00040E050E0813431F469E08AE00F94876194
:1044C0000C94C0626AE28AE00F9487610C94C06227
:1044D00010921A1210928D12E4EEF8E084918F017E
:1044E000882351F0082E000C990B0F94C6920F5F91
:1044F0001F4FF8018491F4CF1092E60B81E00F94E6
:104500007F2240E050E065E08AE00F9487610C94E0
:10451000C06280914309282F287083FF91C3909136
:104520004709923008F48CC3423B5105610571057F
:1045300009F4B9C07CF5433851056105710509F4EA
:10454000A6C1A4F44E3551056105710509F4F1C207
:104550004F3551056105710509F41DC345335105FA
:104560006105710511F00C94C06228C3423A5105EF
:104570006105710509F46BC0413B51056105710589
:1045800009F47BC0403A51056105710511F00C94A6
:10459000C062B3C04233F1E05F076105710509F401
:1045A0005CC14CF54C3C51056105710509F48FC0A7
:1045B000463E51056105710509F45DC1453C510553
:1045C0006105710511F00C94C0620F94862741E0DB
:1045D00050E065EC81E20F94876141E050E060EAD1
:1045E00081E20F94876181E090E09093570280937D
:1045F00056020C94C062463331E0530761057105E1
:1046000009F415C1ACF4433351406105710511F053
:104610000C94C0628DEF9FEF90931413809313134B
:1046200040E050E06AE08AE00F9487610C94C06239
:104630004A33A1E05A076105710509F430C14E37CC
:1046400051406105710509F4F2C10C94C0620F94E8
:10465000862741E050E062EA81E20F94876141E001
:1046600050E060EA81E20F9487618EEF9FEF9093B4
:104670005702809356020C94C0620F94862741E043
:1046800050E061EB81E20F94876141E050E060EA25
:1046900081E20F9487618FEF9FEF90935702809391
:1046A00056020C94C0620F94862741E050E062EB02
:1046B00081E20F94876141E050E060EA81E20F946B
:1046C000876110925702109256020C94C0620F94A8
:1046D000862741E050E06CEC81E20F94876141E075
:1046E00050E060EA81E20F94876182E090E090936D
:1046F0005702809356020C94C062009156021091AA
:10470000570298012E5F3F4F2530310510F00C9471
:10471000C0629230D9F583E08093470940E050E0D1
:1047200061E18AE00F94876180E580939212809125
:104730004409800F8093440900E010E020E030E05D
:104740004CE553EC60E070E088EA92EC0F9419AA13
:104750000F94862780E697E0909357028093560245
:1047600040E050E060EA81E20F94876142E050E06F
:104770006CE08BE10F94876140E050E069E18AE0F2
:104780000F948761109292120C94C0629330D9F505
:1047900084E08093470940E050E061E18AE00F94B3
:1047A000876180E58093921280914509800F809304
:1047B000450900E010E020E030E04CE553EC60E01B
:1047C00070E084EA92E40F9419AA0F94862780E699
:1047D00097E0909357028093560240E050E060EAE1
:1047E00081E20F94876142E050E06CE08BE10F942E
:1047F000876140E050E069E18AE00F9487611092A0
:1048000092120C94C062943011F00C94C0628091AA
:104810004609800F8093460940E050E06EE28AE04E
:104820000F9487618FE4809392120C94C0620F946E
:10483000862740E050E060EA81E20F94876140E023
:1048400050E069E18AE00F94876180E697E09093F9
:104850005702809356020C94C06283E090E09093DC
:1048600014138093131340E050E06AE08AE00F9441
:1048700087610C94C062109214131092131340E0DD
:1048800050E06AE08AE00F9487610C94C06240E0D7
:1048900050E06DE68AE00F9487610C94C06240E0BE
:1048A00050E068E08AE00F94876181E4809392127F
:1048B00041E061E081E00F942703109292120F947F
:1048C00085490F94BE1510911313809147098230CA
:1048D000B1F540E050E061E18AE00F94876180E546
:1048E0008093921200914409010F00934409002E15
:1048F000000C110B20E030E0A901CA01B9010F94AE
:1049000019AA0F94862780E697E090935702809328
:10491000560240E050E060EA81E20F94876142E095
:1049200050E06CE08BE10F94876140E050E069E17A
:104930008AE00F948761109292120C94C0628330C7
:10494000C9F540E050E061E18AE00F94876180E5BD
:104950008093921200914509010F00934509002EA2
:10496000000C110B20E030E04CE553EC60E070E00F
:1049700088EA92EC0F9419AA0F94862780E697E0B4
:10498000909357028093560240E050E060EA81E243
:104990000F94876142E050E06CE08BE10F948761F7
:1049A00040E050E069E18AE00F9487611092921232
:1049B0000C94C062843011F00C94C06240E050E06E
:1049C00061E18AE00F94876180E580939212009103
:1049D0004609010F00934609002E000C110B20E040
:1049E00030E04CE553EC60E070E084EA92E40F9430
:1049F00019AA0F94862780E697E090935702809338
:104A0000560240E050E060EA81E20F94876142E0A4
:104A100050E06CE08BE10F94876140E050E069E189
:104A20008AE00F948761109292120C94C0621092E7
:104A300092128091440940914509042F081B40912E
:104A40004609142F181B602F002E000C770B880BC3
:104A5000990B0F94D7C12DEC3CEC4CEC5DEB0F9413
:104A6000DFBC6093DE097093DF098093E0099093C7
:104A7000E109612F012E000C770B880B990B0F9425
:104A8000D7C12DEC3CEC4CEC5DEB0F94DFBC60939C
:104A9000DA097093DB098093DC099093DD09002328
:104AA000A1F040E050E06FE18AE00F94876107FFDA
:104AB00007C0E02FFF27E1950CF4F09508E00E0FFA
:104AC000402F000F550B64E015C01123B9F040E0F2
:104AD00050E060E28AE00F94876117FF07C0212F42
:104AE000332721950CF4309518E0120F412F110F48
:104AF000550B65E08BE10F94876111C014E41093AE
:104B0000121340E050E06BE084E10F94876140E0D5
:104B100050E065E18AE00F9487611093921289E872
:104B200090E09093D9098093D8090F94AB6D0C94C1
:104B3000C0624091460980914409142F181BC1F0AE
:104B400040E050E060E28AE00F94876117FF07C001
:104B5000812F992781950CF4909518E0180F412F1B
:104B6000110F550B65E08BE10F9487610C94C062C7
:104B700014E41093121340E050E06BE084E10F94D2
:104B8000876140E050E065E18AE00F94876110930F
:104B900092120C94C06214E41093121340E050E09F
:104BA0006BE084E10F94876140E050E065E18AE0CA
:104BB0000F948761109392120C94C062909112131B
:104BC000943411F00C94C06210924709877F80934F
:104BD00043091092921210925412109253120F9491
:104BE000DD4510925A12109259120F9421461092DC
:104BF0005C1210925B120F94214610921A121092BE
:104C00008D12E9EDF8E084918F01882351F0082E90
:104C1000000C990B0F94C6920F5F1F4FF8018491FF
:104C2000F4CF1092E60B80E00F947F2240E050E03A
:104C300065E08AE00F948761109212130C94C062B1
:104C40004E38F1E05F0710F00C94C062FA0188273B
:104C5000EE58FF4F8F4F0D94E4CC80912402909139
:104C60002502826090932502809324020C94C062F6
:104C70008091240290912502846090932502809374
:104C800024020C94C06280912402909125028860D5
:104C900090932502809324020C94C0628091240298
:104CA00090912502806190932502809324020C94B8
:104CB000C062809124029091250280629093250227
:104CC000809324020C94C0620F94393C009781F4C5
:104CD0008091240290912502946090932502809304
:104CE0002402809144128150809344120C94C0623B
:104CF000019711F00C94C0628091240290912502DA
:104D00009460909325028093240240E050E067E392
:104D100081E20F94876140E050E061E08BE10F9405
:104D20008761809144128150809344120C94C06238
:104D300010921A1210928D12EEECF8E084918F010D
:104D4000882351F0082E000C990B0F94C6920F5F28
:104D50001F4FF8018491F4CF1092E60B81E00F947D
:104D60007F2240E050E065E08AE00F9487610C9478
:104D7000C0628091DA1A882311F40C94C06241E079
:104D800061E08BED9AE10F94BB3E8FEF9FEF909324
:104D9000C91A8093C81A412C512C32017301620147
:104DA00000E010E087E7A82E8AE1B82E9E012F5F71
:104DB0003F4F190188248394912C4091791D509183
:104DC0007A1D60917B1D70917C1D8091D41C909107
:104DD000D51CA091D61CB091D71C84179507A607A7
:104DE000B70708F06DC0D501E2E31D92EA95E9F737
:104DF0000F949D640196D9F41092C31A1092C21AAE
:104E00001092C51A1092C41A81E090E09093C71ACC
:104E10008093C61A1092D31A1092D21A1092D51AF1
:104E20001092D41A80E00F94E33A0C942364011595
:104E3000110521F52FEF3FEF3A8329833F922F92FF
:104E400043E75CE25F934F93BF92AF920F94B0C180
:104E500089819A810F900F900F900F900F900F9073
:104E6000019639F09092C91A8092C81A07E010E0B2
:104E700021C01092C91A1092C81A1CC080E00F9469
:104E8000ECB96B017C0181E00F94ECB92B013C0182
:104E900020E030E0A901C701B6010F944ACB1816F3
:104EA0007CF020E030E0A901C301B2010F944ACBAD
:104EB000181634F00F5F1F4F0E3111050CF47DCF23
:104EC00080E00F94E33A20E030E0A901C701B60189
:104ED0000F94D1C118165CF020E030E0A901C301A5
:104EE000B2010F94D1C1181614F00C942364809071
:104EF000580290905902A0905A02B0905B02A5010E
:104F00009401C701B6010F94D1C1811114C020E0F2
:104F100030E0A901C701B6010F944ACB18165CF422
:104F200020E030E0A901C301B2010F94D1C11816ED
:104F300014F00C94236420915C0230915D02409146
:104F40005E0250915F02C65EDE4F288339834A833A
:104F50005B83CA51D140C301B2010F94D1C1811109
:104F60001EC020E030E0A901C301B2010F944ACB7A
:104F700018165CF420E030E0A901C701B6010F94D7
:104F8000D1C1181614F00C942364A5019401C70133
:104F9000B6010F94D1C1882311F40C94236420E04E
:104FA00030E0A901C701B6010F94D1C120E030E083
:104FB00040E251E418161CF0C501B40102C0C7015B
:104FC000B6010F94DFBC0F940CCA6093080220E076
:104FD00030E0A901C301B2010F94D1C120E030E05B
:104FE00040E251E418164CF0C65EDE4F68817981CC
:104FF0008A819B81CA51D14002C0C301B2010F9482
:10500000DFBC0F940CCA6093090240E050E06FE5EA
:105010008AE00F94876160915802709159028091E3
:105020005A0290915B020F940CCAAB016DE489E0C7
:105030000F94876120E030E040E251E46091580233
:105040007091590280915A0290915B020F94DFBCDB
:105050000F940CCA0AE010E0CB01B8010F94B5CC54
:10506000AC016EE489E00F94876160915C027091FD
:105070005D0280915E0290915F020F940CCAAB01B9
:105080006FE489E00F94876120E030E040E251E472
:1050900060915C0270915D0280915E0290915F026E
:1050A0000F94DFBC0F940CCACB01B8010F94B5CCA0
:1050B000AC0160E589E00F948761809108021AE0F5
:1050C000612F0F9494CC482F880F550B61E589E030
:1050D0000F94876180910802612F0F9494CC492F1F
:1050E000990F550B62E589E00F9487618091090261
:1050F000612F0F9494CC482F880F550B63E589E0FE
:105100000F94876180910902612F0F9494CC492FED
:10511000990F550B64E589E00F948761BCC18091BC
:10512000DA1A882311F40C94C06280912A1B811131
:105130000C94C062CDB6DEB68091F8089091F90863
:105140000F94353EEBEDFAE1DF010D900020E9F719
:105150008DB79EB78A1B9B0B9C012952354E0FB60B
:10516000F8943EBF0FBE2DBF0DB71EB70F5F1F4F88
:10517000FF93EF938EE698E09F938F931F930F9387
:105180000F9482C1780134E0E30EF11C0F900F9070
:105190000F900F900F900F90D7018C91882349F0BA
:1051A000082E000C990B0F9462CFF70181937F01B9
:1051B000F3CFC8010F94F1228AE698E00F9482227F
:1051C0000FB6F894DEBE0FBECDBE0C94C06281E077
:1051D00080931A12809124029091250292609093FC
:1051E0002502809324020C94C06280912402909145
:1051F0002502916090932502809324020C94C06252
:1052000080912402909125028068909325028093DA
:1052100024020C94C06240E050E062E18AE00F9406
:1052200087610C94C06240E050E06CE18AE00F942A
:10523000876180E00F947F2210920C1410920B145F
:1052400010920A1481E08093E60B0C94C0621092D5
:105250001A1210928D12EFE5F8E084918F018823E5
:1052600051F0082E000C990B0F94C6920F5F1F4F40
:10527000F8018491F4CF1092E60B0E94C26881E09D
:105280000F947F2240E050E065E08AE00F94876150
:105290000C94C0628091591290915A12892B29F076
:1052A00010925A121092591208C08091090C9091D4
:1052B0000A0C90935A12809359120F94214610921F
:1052C0000C140C94C06280915B1290915C12892B3B
:1052D00029F010925C1210925B1208C08091060CAB
:1052E0009091070C90935C1280935B120F9421466F
:1052F00010920B140C94C06280915312909154122E
:10530000892B29F010925412109253121CC08091D4
:1053100041099091420960913F09709140096817D5
:1053200079072CF4BC01990F880B990B04C0072E48
:10533000000C880B990B0F94D7C10F940CCA709373
:105340005412609353120F94DD4510920A140C947A
:10535000C0628BE598E00F9482220C94C06240E01A
:1053600050E06EE18AE00F9487610C94C06240E0E7
:1053700050E065E08AE00F94876110921A12109253
:105380008D12E0E5F8E084918F01882351F0082E1A
:10539000000C990B0F94C6920F5F1F4FF801849178
:1053A000F4CF1092E60B88E793E090934502809348
:1053B00044020F94AB6D0C94C06240E050E06AE18F
:1053C0008AE00F9487610F9442398091DA1A88231A
:1053D00011F40C94C0628091431280934412BBE19B
:1053E000EB2EB2E1FB2E1FE2C12E12E1D12E00E026
:1053F00010E08091431290E008171907FCF46BED60
:105400007AE182E59BE10F9453715701D7018D91A9
:105410009D917D010F94353EF50180819181D601EA
:105420008D939D936D0180912A1B882321F08BED34
:105430009AE10F94CA420F5F1F4FDBCF87E090E0E5
:105440000F94661E0C94C0628091440290914502B4
:105450008036974041F488E793E09093450280932B
:1054600044020F94AB6D40E050E068E08AE00F9496
:10547000876181E48093921280910F0C8823D1F090
:1054800040E061E081E00F9427030F94854980910B
:1054900092128E3489F48FEF9FEFDC0180939A0291
:1054A00090939B02A0939C02B0939D021092FA08E5
:1054B0000C949D6841E0E5CF81E00F947F2210922B
:1054C00092128DE498E00F9482220F948549809186
:1054D00092128E3401F340E050E06BE08AE00F94CA
:1054E00087610C94C06240E050E064E08AE00F9471
:1054F00087610C94C06240E050E064E28AE00F945F
:1055000087618091091482608093091489E48093F3
:10551000921240E050E060E289E00F948761609170
:10552000090C70910A0C072E000C880B990B0F9434
:10553000D7C140E050E00F94AB7B0F94AB6D6CE2B1
:1055400075E08EE498E10F94CB926FE275E08EE403
:1055500098E10F94CB92609116037091170380919C
:1055600018039091190342E050E00F948B3C63E3E1
:1055700075E08EE498E10F94CB922DEB37E346E093
:105580005EE360910E0370910F0380911003909180
:1055900011030F9460C942E050E00F948B3C67E325
:1055A00075E08EE498E10F94CB922DEB37E346E063
:1055B0005EE3609106037091070380910803909168
:1055C00009030F94DFBC42E050E00F948B3C6091E4
:1055D000060C7091070C072E000C880B990B0F948A
:1055E000D7C141E050E00F94AB7B0F94AB6D6CE200
:1055F00075E08EE498E10F94CB926FE275E08EE453
:1056000098E10F94CB9260911A0370911B038091E3
:105610001C0390911D0342E050E00F948B3C63E328
:1056200075E08EE498E10F94CB922DEB37E346E0E2
:105630005EE36091120370911303809114039091C3
:1056400015030F9460C942E050E00F948B3C67E370
:1056500075E08EE498E10F94CB922DEB37E346E0B2
:105660005EE360910A0370910B0380910C039091AB
:105670000D030F94DFBC42E050E00F948B3C10927E
:1056800092120E94C26840E050E06BE084E10F9407
:10569000876140E050E065E18AE00F94876181E036
:1056A0000F947F2284E480931213809392120C94BF
:1056B000C06240E050E068E28AE00F9487610C9499
:1056C000C06240E050E062E18AE00F9487610C9490
:1056D000C06210921A1210928D12E2E4F8E08491E6
:1056E0008F01882351F0082E000C990B0F94C6925D
:1056F0000F5F1F4FF8018491F4CF1092E60B0E94C8
:10570000C26840E050E065E08AE00F9487610C9445
:10571000C06240E050E062E18AE00F9487610C943F
:10572000C06282E580931E0280910914816080939B
:10573000091440E050E06BE581E20F94876140E09E
:1057400050E06CE581E20F94876140E050E060E05A
:105750008BE10F94876140E050E06AE781E20F94AB
:10576000876140E050E069E781E20F94876140E0A3
:1057700050E06DE18AE00F9487618FEF80934809D4
:105780000C94C06240E050E06CE68AE00F948761C0
:105790000C94C06240E050E062E18AE00F948761BF
:1057A00040E050E06BE581E20F94876140E050E01B
:1057B0006CE581E20F94876140E050E060E08BE1AE
:1057C0000F94876140E050E06AE781E20F948761BF
:1057D00040E050E069E781E20F948761809109140D
:1057E0008E7F809309140C94C06210921A1210924A
:1057F0008D12E7E3F8E084918F01882351F0082EA1
:10580000000C990B0F94C6920F5F1F4FF801849103
:10581000F4CF1092E60B40E050E065E08AE00F9490
:10582000876140E050E06BE581E20F94876140E0E2
:1058300050E06CE581E20F94876140E050E060E069
:105840008BE10F94876140E050E06AE781E20F94BA
:10585000876140E050E069E781E20F9487618091C1
:1058600009148E7F809309140C94C06241E050E0CB
:105870006BE581E20F94876140E050E06CE581E2E6
:105880000F94876141E050E060E08BE10F94876105
:1058900041E050E06AE781E20F94876141E050E027
:1058A00069E781E20F948761109248090C94C06205
:1058B00040E050E06BE581E20F94876141E050E009
:1058C0006CE581E20F94876141E050E060E08BE19C
:1058D0000F94876141E050E06AE781E20F948761AD
:1058E00041E050E069E781E20F94876181E08093B5
:1058F00048090C94C0628091440290914502803620
:10590000974041F488E793E09093450280934402E6
:105910000F94AB6D809148098F3F11F40C94C062D5
:105920000F943AB80C94C062809144029091450261
:105930008036974041F488E793E090934502809346
:1059400044020F94AB6DE0914809EF3F11F40C94C1
:10595000C06281E080939012F0E0EE0FFF1FE75AE3
:10596000FD4E84E091E0918380830F94214681E491
:105970008093921240E050E068E08AE00F948761E3
:1059800080910F0C882311F040E001C041E061E0FC
:1059900081E00F9427030F948549809192128E34F1
:1059A00009F479CD80E090E0A3E4B3E480937C1225
:1059B00090937D12A0937E12B0937F1280908E0CF4
:1059C00090908F0CA090900CB090910C2091781238
:1059D0003091791240917A1250917B126091741239
:1059E000709175128091761290917712A7E66A2EC7
:1059F000A2E17A2E7F926F92B0E8CB2EB2E1DB2E3D
:105A0000E12CF12C03E413E40E9497F10F948549F3
:105A10000F900F90809192128E3409F43CCD80E06B
:105A200090E0A0E2B1E48093781290937912A09371
:105A30007A12B0937B1280908A0C90908B0CA0907D
:105A40008C0CB0908D0CE0907C12F0907D12009147
:105A50007E1210917F126091741270917512809174
:105A60007612909177127F926F9220E030E040E2C0
:105A700051E40E9497F10F9485490F900F90809107
:105A800092128E3409F407CD80914809811111C01A
:105A900080E090E00F945B3680E090E0A0E9B2E413
:105AA0008093741290937512A0937612B09377122C
:105AB00020C081E090E00F945B3620E030E048ECBD
:105AC00051E46091B2027091B3028091B40290915E
:105AD000B5020F9471C820E030E04CE352E40F941B
