:100000000C94D2160C9403170C9403170C9403173A
:100010000C9403170C9403170C9403170C940317F8
:100020000C9403170C9403170C9403170C940317E8
:100030000C9403170C9403170C9403170D940B6383
:100040000C9403170C9403170C9403170C940317C8
:100050000C9403170C9403170C94E8BF0C94C1BDC7
:100060000C9403170C940BE90C94E1E80C9403171F
:100070000C9403170C9403170C9403170C94031798
:100080000C94F2CA0C9403170C9403170C940317E6
:100090000C9403170C9403170C9403170C94031778
:1000A0000C9403170C9403170C9403170C94031768
:1000B0000C9403170C9403170C9403170C94031758
:1000C0000C9403170C9403170C9403170C94ACE8CE
:1000D0000C9482E80C9403170C9403170C940317E8
:1000E0000C940317C2308E53DA30B72D8E53F42799
:1000F0008E53FE278E538E53723D3D288E538E5362
:100100003E2739278E53783E8E538E538E5383422B
:100110008B4201480948004B8E53D24210434E4354
:100120002744AB43BF3EB13EAA2DE9438E53F92786
:1001300096278E537E2D95409F2DEA478E53942D02
:10014000892DF247FA478E53CC3093427B393C419C
:1001500006284D2743278E538F372829E94A8E5387
:10016000F14A712A11489B338E53264C4838054E6C
:10017000FC3361489B42084B772964326432163263
:100180005D34C234912A54286B281A28C02A342797
:1001900048278E538E538E530C31262B482B96288E
:1001A00037401440A342AB42B242BA42C242CA42B2
:1001B0005C4364436C4374437C4384438B43934369
:1001C0009B43A343AB4435442145F2467C46064657
:1001D0008E53F94AE82A6B2B7F2C0C3123322B32B9
:1001E0004932E247684A8E4ADD4ADA472B3A752798
:1001F0002F539B308E538E536E518E53DE3FCD3E28
:100200009F35F93552362A35CC3525367F360537B8
:10021000D936D32FBF2F763FC42D872E512F882F4D
:100220007551E42F8A30AD368E538E538E538E53D4
:100230008E538E538E538E538E5395409C28A428F4
:10024000CA28BA52F6527B4AAD4A1148DD4A104BD1
:100250000E4C8E53904DED4D2D4D7A4D264D124E38
:100260008E53D63B043BBC4F7A3D513EFF4F8E53DD
:100270008E53924EDB4E264F714F8B4E1F4E4A4E81
:100280004250435199528E538E5350528E538E5337
:10029000A9528E537F298E538E538E538E538E5375
:1002A0008E538E538E538E538E538E538E538E5346
:1002B0008E538E538E5386538E538E537753C777F8
:1002C0007D785C793779A1781279F478E5770378CD
:1002D0002178F1790F7A2D7A4A7A5F783F78D6784B
:1002E000A4BBA7BB96BB9ABBA0BBDEBBABBBAFBBE3
:1002F000B5BBB9BBBDBBC3BBC7BBCBBBDEBBD1BBF7
:10030000D5BBD9BBDDBCE2BCE7BCF1BCFBBC74BD5A
:1003100005BD0DBD15BD1FBD29BD33BD42BD4CBDC5
:1003200074BD56BD60BD6ABD72C07FC09BC0A8C011
:10033000C2C0CFC0E9C0EBC0EDC0EFC0F7C0084AF3
:10034000D73B3BCE016E84BCBFFDC12F3D6C7431E9
:100350009ABD56833DDA3D00C77F11BED9E4BB4C40
:100360003E916BAAAABE000000803F05A84CCDB20A
:10037000D44EB93836A9020C50B9918688083CA6EB
:10038000AAAA2ABE000000803F000D9430450D94BB
:10039000A15E0D9458870D94E08D0D9457870D94B0
:1003A0002E874E414E494E495459494E46CDCCCCEC
:1003B0003D0AD7233C17B7D13877CC2B329595E639
:1003C000241FB14F0A000020410000C84200401C19
:1003D0004620BCBE4CCA1B0E5AAEC59D74636469F0
:1003E0006E6F70737578585B0047333400494E4622
:1003F0004F3A204245442043414C4942202D2000A1
:1004000053757266696E6720300A0047323820588B
:1004100030205930005430005431005430005430F2
:100420000053757266696E6720300A0047343300E6
:100430004734330047343100473430004734330009
:100440004734330047343100473430004D383400EE
:100450004D3834004D3834005A32204F666673658B
:10046000743A20004F4B207365636F6E64204578AB
:10047000747275646572210A005A20706F73697412
:10048000696F6E3A20005A20706F736974696F6EDD
:100490003A20004D3834005A312050726F62652086
:1004A0006F66667365743A20004F4B2066697273FD
:1004B0007420457874727564657221200A005A2090
:1004C000706F736974696F6E3A20005A20706F7391
:1004D0006974696F6E3A200043616C63756C757363
:1004E0003A20200043616C63756C75733A202000DC
:1004F00043616C63756C75733A20200043616C63D3
:10050000756C75733A20200054300054300054301C
:100510000043616C6962726174696F6E2053756328
:100520006365737366756C0A005430004A756D70AC
:10053000206F7665722073637265773120616E6417
:1005400020736372657732200A004A756D70206FE0
:1005500076657220736372657731200A0047333401
:1005600000473334004733340054300047333400FD
:10057000494E464F3A204245442043414C4942208F
:100580002D200036302064656772656573200A008F
:100590004C6F6164696E670A0053757266696E67B5
:1005A00020300A0053757266696E6720300A005366
:1005B000757266696E6720300A00253364202563F2
:1005C00043002533642025634300253364202563DD
:1005D000430050757267652046696C616D656E7485
:1005E0000A002533642025634300253364202563F6
:1005F00043002533642025634300253364202563AD
:10060000430025336420256343002533642025639C
:10061000430025336420256343002533642025638C
:10062000430053757266696E6720300A0053757215
:1006300066696E6720300A00543000466F756E643C
:100640000A0053757266696E6720300A004D3334B4
:100650000053757266696E6720300A004D323400AF
:100660004D32332025730053757266696E672030F2
:100670000A0053757266696E6720300A00537572FE
:1006800066696E6720300A00535543434553530A49
:10069000002533642025634300253364202563430C
:1006A00000253364202563430025336420256343FC
:1006B00000253364202563430025336420256343EC
:1006C00000253364202563430025336420256343DC
:1006D0000025336420256343004C6F6164696E67B5
:1006E0003A0A00253364202563430025336420251E
:1006F00063430025336420256343005075726765AA
:100700002046696C616D656E74200A0053746172D5
:1007100074696E67205A2043616C69627261746902
:100720006F6E2057697A6172640A000A00205A3A93
:10073000200020593A200020583A200042656400E9
:100740002F005344207072696E74696E672062795D
:10075000746520004E6F74205344207072696E746B
:10076000696E670A002E0A0044656C6574696F6ED5
:10077000206661696C65642C2046696C653A2000CE
:1007800046696C652064656C657465643A002E0A80
:10079000006F70656E206661696C65642C20466927
:1007A0006C653A2000426564204865617465640A9E
:1007B0000020573A004649524D574152455F4E413D
:1007C0004D453A4D61726C696E2042434E33442070
:1007D0005369676D613B204649524D574152455F11
:1007E00056455253494F4E3A30312D312E332E302B
:1007F00052433B204649524D574152455F55524C5A
:100800003A68747470733A2F2F6769746875622E32
:10081000636F6D2F42434E33442F42434E33445354
:1008200069676D612D4669726D776172653B205015
:10083000524F544F434F4C5F56455253494F4E3AD7
:10084000312E303B204D414348494E455F5459506D
:10085000453A42434E3344205369676D613B20451E
:10086000585452554445525F434F554E543A323BCB
:1008700020555549443A00205A3A0020593A002060
:10088000436F756E7420583A200020453A00205A74
:100890003A0020593A00583A007A5F6D696E3A2062
:1008A00000795F6D61783A2000785F6D61783A2059
:1008B00000785F6D696E3A200020502000205A2099
:1008C0000020592000536574204D353330205820C6
:1008D000004D6F64652032203A206379636C652097
:1008E00020202D3E205247423A20362073746174F6
:1008F0006573002A2A2D3E20004D6F64652031204B
:100900003A2072616E646F6D20202D3E2052474266
:100910003A202B31202B32202B332C206475726926
:100920006E67207072696E74696E67002A2A2D3EA8
:1009300020004D6F64652030203A20646566617543
:100940006C74202D3E205247423A203235352032F9
:10095000353520323535002A2A2D3E20004C65647D
:10096000206D6F646573203A004D353336204C5B43
:100970006D6F64655D005A204F6666736574206F05
:100980006B0A005A204F6666736574203A200A008D
:100990007A5F6D61783A20007A5F6D696E3A200067
:1009A0005A204F666673657400486F74656E6420E4
:1009B0006F6666736574733A0054696D6520696E7D
:1009C0006163746976650A005075726765206469B1
:1009D0007374616E63650A00504F534954494F4E1A
:1009E00020484F4D453A2000220A00556E6B6E6F2D
:1009F000776E20636F6D6D616E643A2022005265E0
:100A000061647920746F2053746172740A006763A3
:100A10006F646520666F756E640A0020746F2053E2
:100A20007461727420446973706C61792066726FAE
:100A30006D20526573657400546F6F6B200064699C
:100A400073706C6179206F6E6C696E6521002E0089
:100A5000466F726D2032210A0052656164792074FC
:100A60006F204C6F61642F556E6C6F6164200A00BB
:100A70002564252500253364202563430025336440
:100A80002025634300253364256343202F2025332D
:100A90006425634300253364256343202F202533D9
:100AA0006425634300253364256343202F202533C9
:100AB00064256343005072696E74204A6F62204659
:100AC000696E6973686564004D3834205820592078
:100AD0005A2045004D31303700543000537572664E
:100AE000696E672030200A0043616C69627261742C
:100AF000696F6E205375636365737366756C0A0066
:100B00005430004D383420582059205A2045005385
:100B1000657474696E67732053746F7265640A003C
:100B2000204D696E75746573203A0020204C617306
:100B300074207072696E742074696D652D3E204852
:100B40006F757273203A004C617374207072696E15
:100B500074206475726174696F6E0A002C20546889
:100B6000697264204944206E756D62657220002CA4
:100B7000205365636F6E64204944206E756D626515
:100B8000723A200020204669727374204944206E16
:100B9000756D6265723A2000554920496E666F7224
:100BA0006D6174696F6E2053657269616C204E755A
:100BB0006D6265723A0A00206D2C204531207072FA
:100BC000696E742064697374616E63653A200020F5
:100BD0006B6D2C204530207072696E7420646973CF
:100BE00074616E63653A2000206B6D2C2059207073
:100BF00072696E742064697374616E63653A200073
:100C0000206B6D2C205831207072696E74206469DD
:100C10007374616E63653A200020432C0A205830BB
:100C2000207072696E742064697374616E63653AD2
:100C3000200020432C206D61782074656D70204267
:100C40003A200020432C206D61782074656D70205F
:100C5000523A20002C206D61782074656D70204C14
:100C60003A2000682C207072696E74732066696E79
:100C700069736865643A20002C207072696E74692B
:100C80006E672074696D653A200020207072696E6D
:100C900074733A200053544154533A0A0020432CB1
:100CA00020525F5052494E543A200020432C20528B
:100CB0005F4245443A200020432C20525F52454D6C
:100CC0004F56453A20002020525F494E534552541A
:100CD0003A200054656D70202843293A0A002043C9
:100CE0002C204C5F5052494E543A200020432C2077
:100CF0004C5F4245443A200020432C204C5F524533
:100D00004D4F56453A200020204C5F494E534552E6
:100D1000543A200054656D70202843293A0A002077
:100D2000562856657273696F6E292000205228423A
:100D3000656420726967687420736372657729201F
:100D40000020204D353331204C28426564206C65ED
:100D50006674207363726577292000426564204FB2
:100D600066667365747320286D6D293A0A002050F9
:100D7000285A2070726F62652900205A200020597D
:100D8000200020204D353330205820004F666673F8
:100D900065747320286D6D293A0A002044002049AB
:100DA00000202D204D3330312052494748542050E7
:100DB0000020440020490020204D333031204C4594
:100DC00046542050005049442073657474696E671E
:100DD000733A0A00205A0020590020204D32303644
:100DE000205800486F6D65206F6666736574202813
:100DF0006D6D293A0A00204500205A002058002035
:100E0000420020540020204D3230352053004164F0
:100E100076616E636564207661726961626C657388
:100E20003A20533D4D696E20666565647261746554
:100E300020286D6D2F73292C20543D4D696E207430
:100E4000726176656C2066656564726174652028E0
:100E50006D6D2F73292C20423D6D696E696D756D26
:100E6000207365676D656E742074696D6520286DEB
:100E700073292C20583D6D6178696D756D20585926
:100E8000206A65726B20286D6D2F73292C20205AE3
:100E90003D6D6178696D756D205A206A65726B20B1
:100EA000286D6D2F73292C2020453D6D6178696D6B
:100EB000756D2045206A65726B20286D6D2F732932
:100EC0000A0020540020204D32303420530041636A
:100ED00063656C65726174696F6E3A20533D61633E
:100EE00063656C65726174696F6E2C20543D726528
:100EF000747261637420616363656C6572617469A7
:100F00006F6E0A00204500205A0020590020204D15
:100F10003230312058004D6178696D756D20416324
:100F200063656C65726174696F6E20286D6D2F73D7
:100F300032293A0A00204500205A0020590020207A
:100F40004D3230332058004D6178696D756D2066E3
:100F5000656564726174657320286D6D2F73293A1D
:100F60000A00204500205A0020590020204D393227
:100F700020580053746570732070657220756E6917
:100F8000743A0A0053746F726564207365747469EF
:100F90006E6773207265747269657665640A0048CD
:100FA000617264636F6465642044656661756C7426
:100FB0002053657474696E6773204C6F6164656457
:100FC0000A0048617264636F6465642043616C6900
:100FD0006220616E64205049442044656661756CEE
:100FE000742053657474696E6773204C6F61646517
:100FF000640A007C3C3E5E2B3D3F2F5B5D3B2C2A10
:10100000225C0045787472756465722072656C6547
:1010100061736564206163746976653A20005A20C3
:101020005349474D4120486F6D65640A0045787407
:101030007275646572206163746976653A20002276
:101040000A00656E717565696E67202200000000F8
:101050000000809343000000000000A0400000A0BA
:10106000400000004020004D6F766520746F3A20EC
:1010700000CDCC98430080934300005243FF01FF12
:1010800020636F6C6420657874727573696F6E206D
:1010900070726576656E7465640A006563686F3AA0
:1010A0000070012C0190012701B0012201C0011D37
:1010B00001F00118011002130130020E0160020953
:1010C0000190020401C002FF000003FA004003F592
:1010D000008003F000D003EB002004E6007004E180
:1010E00000E004DC004005D700C005D2004006CD7A
:1010F00000D006C8008007C3003008BE00F008B961
:1011000000C009B400B00AAF00B00BAA00D00CA513
:1011100000000EA000500F9B00C0109600501291CE
:101120000000148C00C0158700B0178200B0197D34
:1011300000D01B7800001E730040206E00902269D2
:1011400000F024640040275F0090295A00E02B55EE
:1011500000102E500020304B0010324600E033418A
:101160000090353C001037370070383200A0392D20
:1011700000B03A2800A03B2300603C1E00103D193F
:1011800000903D1400103E0F00703E0A00C03E0566
:1011900000003F00004879737465726573697320BD
:1011A00074656D70657261747572650A0054686566
:1011B000726D616C2072756E617761792070726FEB
:1011C00074656374696F6E20627920486561746527
:1011D000725F49443A0A004572726F7228383329A7
:1011E0003A2042656420746865726D6973746F7229
:1011F000206E6F742064657465637465640A0045CD
:1012000072726F72283832293A20526967687420E6
:10121000746865726D6973746F72206E6F74206488
:10122000657465637465640A004572726F7228386C
:1012300031293A204C65667420746865726D697353
:10124000746F72206E6F74202064657465637465BA
:10125000640A002053544F50205052494E54200AE3
:10126000004572726F72283833293A204265642033
:10127000746865726D6973746F72206E6F74206428
:10128000657465637465640A002053544F502050A0
:1012900052494E54200A004572726F722838322922
:1012A0003A20526967687420746865726D69737456
:1012B0006F72206E6F742064657465637465640A70
:1012C000002053544F50205052494E54200A00459C
:1012D00072726F72283831293A204C656674207416
:1012E0006865726D6973746F72206E6F742020640C
:1012F000657465637465640A00000021002400279A
:10130000002A002D00300033000101000004010715
:10131000010A0100002200250028002B002E0031C8
:1013200000340002010000050108010B010000204B
:10133000002300260029002C002F003200000100AD
:101340000003010601090105050505070508080850
:1013500008020202020A0A08080404040401010146
:10136000010101010103030303030303030407074E
:10137000070C0C0C0C0C0C0C0C02020202060606EC
:1013800006060606060B0B0B0B0B0B0B0B010210D4
:10139000202008081020401020408002010201088F
:1013A000040201010204081020408080402010083F
:1013B0000402018004020180402010080402010898
:1013C00004020101020408102040800102040810F8
:1013D00020408000000A0B02090C0D0E08070304D0
:1013E00001000000000000000000000000000000FC
:1013F00000000000000000000000000000000012DB
:1014000011100000000000000000000000000000BB
:1014100000000000000000000024F4D43050C38E0F
:1014200020C2A24017828B7011127A910D816CD963
:101430000AA861E108C7586607615143061E4B5D63
:1014400005C145A7041A411104093D9803713931BA
:10145000034036DB0265339102D4305402802E1DE6
:1014600002632CEE01752AC501B028A00110278166
:10147000018F2564012B244B01E0223401AC211F94
:10148000018D200D01801FFC00841EED00971DDFE3
:1014900000B81CD200E61BC600201BBC00641AB2B8
:1014A00000B219A8000A19A0006A189900D1179172
:1014B0000040178B00B516840031167E00B31579F5
:1014C000003A157300C7146F0058146A00EE1366D3
:1014D000008813630025135E00C7125B006C12576F
:1014E0000015125400C111510070114F0021114B11
:1014F00000D61049008D10470046104400021042EB
:1015000000C00F4000800F3E00420F3C00060F3B22
:1015100000CB0E3800930E37005C0E3500270E34DA
:1015200000F30D3200C10D3100900D3000600D2E22
:1015300000320D2D00050D2C00D90C2B00AE0C290E
:1015400000850C29005C0C2700350C27000E0C26AA
:1015500000E80B2400C40B2400A00B23007D0B2308
:10156000005A0B2100390B2100180B2000F80A1F2C
:1015700000D90A1E00BB0A1E009D0A1D00800A1D1C
:1015800000630A1C00470A1B002C0A1B00110A1AE0
:1015900000F7091A00DD091900C4091900AB09197F
:1015A00000920917007B091800630917004C0916FF
:1015B0000036091600200916000A091500F508155D
:1015C00000E0081400CC081400B8081400A40814A3
:1015D00000900813007D0812006B081300580812D1
:1015E00000460812003408110023081100120811E7
:1015F0000001081100F0071000E0071000D00710EC
:1016000000C0071000B0070F00A107100091070EDF
:101610000083070F0074070F0065070E0057070EC1
:101620000049070E003B070D002E070E0020070D96
:101630000013070D0006070D00F9060C00ED060D5E
:1016400000E0060C00D4060C00C8060C00BC060C1A
:1016500000B0060C00A4060B0099060C008D060BCA
:101660000082060B0077060B006C060B0061060A71
:101670000057060B004C060A0042060A0038060A0C
:10168000002E060A0024060A001A060A001006099F
:101690000007060A00FD050900F4050900EB05092D
:1016A00000E2050900D9050900D0050900C70509B0
:1016B00000BE050900B5050800AD050800A505092F
:1016C000009C050800940508008C050800840508A6
:1016D000007C050800740508006C05070065050816
:1016E000005D050700560508004E05070047050781
:1016F000004005080038050700310507002A0507E6
:1017000000230507001C050600160507000F050746
:10171000000805060002050700FB040600F50407A3
:1017200000EE040600E8040600E2040700DB0406FD
:1017300000D5040600CF040600C9040600C3040651
:1017400000BD040600B7040600B1040500AC0406A1
:1017500000A6040600A00405009B040600950405ED
:1017600000900406008A0405008504050080040634
:10177000007A04050075040500700405006B04057B
:101780000066040500610405005C040500570405BB
:1017900000520405004D04050048040500430405FB
:1017A000003E0404003A040500350405003004043A
:1017B000002C04050027040400230405001E040473
:1017C000001A04040016040500110404000D0404AA
:1017D00000090405000404040000040400FC0304E0
:1017E00000F8030400F4030400F0030400EC030415
:1017F00000E8030400E4030400E0030400DC030445
:1018000000D8030400D4030400D0030400CC030474
:1018100000C8030300C503030024F404D9201BC43B
:101820000C5C0E9804C4095F0265077101F405F9A8
:1018300000FB04B30048048700C103690058035546
:101840000003034500BE023A008402310053022A1D
:10185000002902250004022000E4011C00C801192F
:1018600000AF0117009801140084011300710110EA
:10187000006101100051010E0043010D0036010B03
:10188000002B010B0020010B00150109000C0109C0
:101890000003010800FB000800F3000800EB00074C
:1018A00000E4000600DE000600D8000600D20006B4
:1018B00000CC000500C7000500C2000500BD000403
:1018C00000B9000400B5000400B1000400AD00043C
:1018D00000A9000400A5000300A20003009F00046B
:1018E000009B000300980003009500020093000392
:1018F00000900003008D0002008B000300880002AE
:10190000008600020084000300810002007F0002C4
:10191000007D0002007B00020079000200770001D8
:1019200000760002007400020072000100710002E3
:10193000006F0002006D0001006C0002006A0001EF
:1019400000690002006700010066000100650001F7
:1019500000640002006200010061000100600001FB
:10196000005F0002005D0001005C0001005B0001FF
:10197000005A000100590001005800010057000101
:101980000056000100550001005400010053000002
:1019900000530001005200010051000100500001FD
:1019A000004F0001004E0000004E0001004D0001FC
:1019B000004C0001004B0000004B0001004A0001F8
:1019C00000490001004800000048000100470001F4
:1019D00000460000004600010045000000450001EF
:1019E00000440001004300000043000100420000E9
:1019F00000420001004100000041000100400001E0
:101A0000003F0000003F0001003E0000003E0001DA
:101A1000003D0000003D0001003C0000003C0000D3
:101A2000003C0001003B0000003B0001003A0000C8
:101A3000003A0001003900000039000100380000C0
:101A400000380000003800010037000000370001B6
:101A500000360000003600000036000100350000AE
:101A600000350000003500010034000000340000A3
:101A70000034000100330000003300000033000197
:101A8000003200000032000000320001003100008E
:101A90000031000000310001003000000030000083
:101AA00000300001002F0000002F0000002F000078
:101AB000002F0001002E0000002E0000002E00016B
:101AC000002D0000002D0000002D0000002D000161
:101AD000002C0000002C0000002C0000002C000155
:101AE000002B0000002B0000002B0000002B000149
:101AF000002A0000002A0000002A0000002A00013D
:101B00000029000000290000002900000029000031
:101B10000029000100280000002800000028000023
:101B20000028000000280001002700000027000016
:101B30000027000000270000002700010026000009
:101B400000260000002600000026000000260001FC
:101B500000250000002500000025000000250000F1
:101B600000250000002500010024000000240000E2
:101B700000240000002400000024000100230000D5
:101B800000230000002300000023000000230000C9
:101B900000230000002300010022000000220000BA
:101BA00000220000002200000022000000220001AC
:101BB00000210000002100000021000000210000A1
:101BC0000021000000210000002100010020000091
:101BD0000020000000200000002000000020000085
:101BE000002000000020000000200001001F000075
:101BF000001F0000001F0000001F0000001F000069
:101C0000001F0000001F0001001E0000001E000059
:101C1000001E0000001E00000043617264204E613F
:101C20006D653A2000473238205830205930002561
:101C300069206D696E2C20256920736563000A0A8E
:101C4000005374616E6461726420446576696174E6
:101C5000696F6E3A20000A004D65616E3A20000AF5
:101C6000002020207A3A20000A00793A2000783AB1
:101C700020003F537065636966696564206E756D09
:101C8000626572206F66206C65677320696E206DD7
:101C90006F76656D656E74206E6F7420706C617503
:101CA0007361626C652E0A003F53706563696669F3
:101CB0006564205920706F736974696F6E206F7549
:101CC00074206F662072616E67652E0A003F537044
:101CD00065636966696564205820706F736974690B
:101CE0006F6E206F7574206F662072616E67652E4F
:101CF0000A003F5370656369666965642073616DAE
:101D0000706C652073697A65206E6F7420706C61E9
:101D1000757361626C652E0A0046756C6C20737574
:101D200070706F72742061743A20687474703A2F06
:101D30002F33647072696E74626F6172642E636FA8
:101D40006D2F666F72756D2E7068700A004D343895
:101D5000205A2D50726F6265205265706561746102
:101D600062696C69747920746573742E2020205622
:101D7000657273696F6E20322E30300A003F5665EF
:101D800072626F7365204C6576656C206E6F74208F
:101D9000706C61757361626C652E0A00202D20499C
:101DA0006E76616C69642065787472756465722002
:101DB0006E756D62657220210A004572726F723A0B
:101DC00000646973706C6179206F66666C696E651A
:101DD0000042434E3344205369676D610A007374B7
:101DE0006172740A006563686F3A0030312D312EDC
:101DF000332E3052430A006572726F722077726917
:101E000074696E6720746F2066696C650A00205AD9
:101E10003A0020593A0020583A00656E6473746F96
:101E20007073206869743A20006563686F3A0044F3
:101E30006F6E6520736176696E672066696C652ECA
:101E40000A006F6B0A004D32390053415645442059
:101E50005052494E540A007A70726F62653A2000FF
:101E600053442063617264206F6B0A006F70656E6B
:101E7000526F6F74206661696C65640A00766F6CDE
:101E8000756D652E696E6974206661696C65640A9A
:101E9000004572726F723A00534420696E69742073
:101EA0006661696C0A006563686F3A004D32340000
:101EB0004D3233202573006175746F25692E6700DC
:101EC0000A0020616E7469686F726172690A3A2053
:101ED0000020686F726172690A20002F3800766FE7
:101EE0006C746573200020566F6C74657320636199
:101EF00072676F6C20333A200020616E7469686FDE
:101F0000726172690A3A200020686F726172690A10
:101F100020002F3800766F6C746573200020566F98
:101F20006C74657320636172676F6C20323A2000B5
:101F30000A0020647A333A200020647A323A200082
:101F40005431005430005430005430000A005675AB
:101F50006974656E73333A2020004170726F783374
:101F60003A202000566F6C746573333A2020000AC3
:101F70000056756974656E73323A202000417072A4
:101F80006F78323A202000566F6C746573323A20B5
:101F9000200056616C6F7220645A333A202000563C
:101FA000616C6F7220645A323A2020004E657720AF
:101FB0006F66667365742076657273696F6E3A201A
:101FC000007A335F313A20007A325F313A20005A8A
:101FD0007363726F6C6C5F313A20007A335F303A12
:101FE00020007A325F303A20005A7363726F6C6C53
:101FF0005F303A2000706C616E654E6F726D616C7F
:102000005F312E7A3A2000706C616E654E6F726D92
:10201000616C5F312E793A2000706C616E654E6F95
:10202000726D616C5F312E783A2000706C616E6564
:102030004E6F726D616C5F302E7A3A2000706C6169
:102040006E654E6F726D616C5F302E793A20007054
:102050006C616E654E6F726D616C5F302E783A20E8
:10206000005A76616C756520616674657220686FD0
:102070006D653A00486F6D6520582F59206265667E
:102080006F7265205A0A00CDCC98430080934300BC
:102090000052430000000000000000000000000AA1
:1020A00000207A3A200020793A200020783A200057
:1020B0004265640045787472756465722072656C5F
:1020C0006561736564206163746976653A20005ABE
:1020D000205349474D4120486F6D65640A0045789B
:1020E000747275646572206163746976653A200064
:1020F0004D3834005374617274696E672058204300
:10210000616C6962726174696F6E2057697A61727D
:10211000640A00252033642025250025203364200F
:1021200025250025203364202525002564206820EE
:102130002564206D00252033642025250025326488
:102140002025634300253364202563430025336441
:102150002025634300526561647920746F204C6FC1
:1021600061642F556E6C6F6164200A00256425251B
:102170000025336420256343002533642025634311
:10218000002053544F50205052494E54200A0047CB
:102190003238205830205930004D333500526573A5
:1021A000756D65206465746563746564200A004715
:1021B000373000A1524553554D4521200A00A1500A
:1021C0004155534521200A002533642025634300EF
:1021D00025336420256343002533642025634300B1
:1021E00025336420256343002533642025634300A1
:1021F00025336420256343005052494E54205345F3
:102200005454494E4753200A002533642025634324
:102210000025336420256343002533642025634370
:10222000005052494E542053455454494E47532070
:102230000A002E2E2E2054696D656F757421002AB8
:102240002A2A2047656E69652057726974654F6256
:102250006A656374202A2A2A202D2D2D3E002E2EF9
:102260002E204E414B2021002A2A2A2047656E69E4
:10227000652057726974654F626A656374202A2A03
:102280002A202D2D2D3E002E2E2E2041434B202185
:10229000002A2A2A2047656E69652057726974658D
:1022A0004F626A656374202A2A2A202D2D2D3E0054
:1022B0002A2A2A2047656E69652042616420427996
:1022C0007465202A2A2A202D2D2D3E2030780020CA
:1022D00056616C75653A200020496E6465783A2035
:1022E000002A2A2A2047656E6965205265706F7240
:1022F00074204F626A656374202A2A2A204F626A1A
:102300006563743A20002A2A2A2047656E69652091
:10231000436F6E6E6563746564202F2053796E631E
:1023200021202A2A2A002056616C75653A20002057
:10233000496E6465783A20002A2A2A2047656E692A
:1023400065205265706F7274204576656E74202A20
:102350002A2A204F626A6563743A2000204C656E19
:102360006774683A20002A2A2A2047656E6965202A
:102370005265636569766564204D616769632044D1
:102380006F75626C65204279746573202A2A2A2051
:10239000496E6465783A2000204C656E6774683A2F
:1023A00020002A2A2A2047656E69652052656365E8
:1023B00069766564204D616769632042797465734D
:1023C000202A2A2A20496E6465783A20002A2A2A7F
:1023D0002047656E6965204E414B205265636F76DC
:1023E00065727920212121202A2A2A002A2A2A20DE
:1023F00047656E696520446973636F6E6E656374CB
:1024000065642066726F6D20446F4576656E7473E7
:1024100021202A2A2A002A2A2A2047656E69652057
:10242000546F6F6B20746F6F206C6F6E6720746FCA
:102430002072652D656E74657220446F4576656EF9
:10244000747328292C207265647563652064656C3B
:1024500061797320696E20636F64652C2073656CED
:10246000662D70726F74656374696F6E20656E613E
:10247000626C65642E202A2A2A0050494420417546
:10248000746F74756E652066696E69736865642122
:102490002050757420746865206C617374204B70D3
:1024A0002C204B6920616E64204B6420636F6E7337
:1024B00074616E74732066726F6D2061626F7665F1
:1024C00020696E746F20436F6E6669677572617400
:1024D000696F6E2E680A00504944204175746F740C
:1024E000756E65206661696C6564212074696D652F
:1024F0006F75740A0020403A006F6B20543A006FE9
:102500006B20423A00504944204175746F74756ED7
:1025100065206661696C6564212054656D70657223
:10252000617475726520746F6F20686967680A004E
:10253000204B643A2000204B693A2000204B703A2F
:10254000200020436C617373696320504944200A62
:10255000002054753A2000204B753A2000206D6110
:10256000783A2000206D696E3A200020643A2000FD
:1025700020626961733A20005354415449535449CD
:1025800043532052455345540A002C20736176650D
:10259000645F466C61675F66616E6C617965725FEE
:1025A0006D6972726F723A20002C207361766564D7
:1025B0005F66656564726174653A20002C20736102
:1025C0007665645F66616E6C617965723A20002C95
:1025D0002073617665645F74656D706265643A202E
:1025E000002C2073617665645F74656D70303A20ED
:1025F000002C2073617665645F74656D70313A20DC
:10260000002C2073617665645F66696C65706F731A
:102610006974696F6E3A20002C2073617665645F7F
:10262000655F706F736974696F6E3A20002C207358
:10263000617665645F746F6F6C5F61637469766502
:102640003A20002C2073617665645F7A5F706F7347
:102650006974696F6E3A20002C2073617665645F3F
:10266000795F706F736974696F6E3A20002C207304
:10267000617665645F785F706F736974696F6E3AD5
:10268000200053415645205052494E54204C4F474C
:102690003A0A006563686F3A005072696E7420727E
:1026A00065636F766572792075700A004E6F7420CD
:1026B0007072696E74207265636F766572792075C9
:1026C000700A00535543434553530A0056616C75D5
:1026D0006573206F7574206F662072616E67650A7E
:1026E0000056616C756573206F7574206F6620727B
:1026F000616E67650A0056616C756573206F75744D
:10270000206F662072616E67650A0056616C7565A0
:1027100073206F7574206F662072616E67650A00A2
:10272000535543434553530A0056616C75657320F6
:102730006F7574206F662072616E67650A0056615E
:102740006C756573206F7574206F662072616E679B
:10275000650A0056616C756573206F7574206F662D
:102760002072616E67650A0056616C756573206F33
:102770007574206F662072616E67650A00504F5352
:102780004954494F4E20484F4D453A2000526573F9
:10279000656E643A20006F6B0A004475616C204DD1
:1027A0006F6465204F4E0A004475616C204D69725C
:1027B000726F72204D6F6465204F4E0A0044756140
:1027C0006C204D6F6465204F46460A0050494420F6
:1027D0004175746F74756E652066696E697368659E
:1027E00064210A00504944204175746F74756E6508
:1027F000206661696C6564212074696D656F75740C
:102800000A0020403A006F6B20543A006F6B204260
:102810003A00504944204175746F74756E652066A6
:1028200061696C6564212054656D706572617475B1
:10283000726520746F6F20686967680A00204B64B6
:102840003A2000204B693A2000204B703A200020AB
:10285000436C617373696320504944200A0020541B
:10286000753A2000204B753A2000206D61783A209F
:1028700000206D696E3A200020643A2000206269D1
:1028800061733A20003B20472D436F6465206765E4
:102890006E6572617465642062792053696D706C35
:1028A00069667933442852292056657273696F6EC0
:1028B000202564003B5072696E742074696D653A1E
:1028C000202564202573202564202573202564207D
:1028D0002573003B54494D453A256C64003B20204C
:1028E000204275696C642074696D653A2025642006
:1028F0002573202564202573003B202020506C6127
:1029000073746963207765696768743A2025642E5B
:10291000256467003B46696C616D656E7420757354
:1029200065643A2025642E25646D2025642E256477
:1029300067003B46696C616D656E742075736564F4
:102940003A20256C642E256C646D006F6B00457811
:10295000747275646572204865617465640A00204C
:10296000573A00204500205A00205900483D5800A1
:10297000486F74656E64206F6666736574733A00A1
:10298000436F6F6C696E6720446F776E2048656196
:102990007465720A005072696E7465722068616CA9
:1029A0007465642E206B696C6C28292063616C6CE3
:1029B0006564210A004572726F723A0043616C636C
:1029C000756C75733A20200043616C63756C757388
:1029D0003A20200043616C63756C75733A202000C7
:1029E0002533642025634300253364202563430099
:1029F00050757267652046696C616D656E740A007A
:102A000053757266696E6720310A00537572666984
:102A10006E6720300A00220A00656E717565696E66
:102A200067202200202F0020400020403A002A2A60
:102A30002A2047656E696520446973636F6E6E6511
:102A4000637465642066726F6D204765744E6578A7
:102A5000744279746521202A2A2A002A2A2A2047CA
:102A6000656E696520456E61626C652041747461B4
:102A700063684576656E7448616E646C657220218A
:102A80002121202A2A2A0043616E6E6F7420656E10
:102A9000746572207375626469723A2000577269B6
:102AA00074696E6720746F2066696C653A20002E29
:102AB0000A006F70656E206661696C65642C204643
:102AC000696C653A20002E0A006F70656E206661A1
:102AD000696C65642C2046696C653A200046696C17
:102AE000652073656C65637465640A002053697AB8
:102AF000653A200046696C65206F70656E65643AC2
:102B000020002E0A006F70656E206661696C656436
:102B10002C2046696C653A20004E6F7720667265FE
:102B200073682066696C653A20004E6F7720646F89
:102B3000696E672066696C653A20002220706F73A9
:102B4000002220706172656E743A22005355425221
:102B50004F5554494E452043414C4C207461726797
:102B600065743A2200747279696E6720746F20630D
:102B7000616C6C207375622D67636F646520666994
:102B80006C6573207769746820746F6F206D616E57
:102B900079206C6576656C732E204D4158206C65EC
:102BA00076656C2069733A002564206974656D73DD
:102BB000004D31303700473932204530205A30201F
:102BC000522564004E6577206C61796572206465DA
:102BD0007465637465640A003B206C6179657200FA
:102BE0003B4C4159455200256920686F757273202E
:102BF0002569206D696E7574657300446F6E65207C
:102C00007072696E74696E672066696C650A004D42
:102C10003333007061757365206465746563746532
:102C200064200A00473639005072696E746572205C
:102C300073746F707065642064756520746F2065AF
:102C400072726F72732E20466978207468652065F1
:102C500072726F7220616E6420757365204D393910
:102C60003920746F20726573746172742E20285439
:102C7000656D706572617475726520697320726527
:102C80007365742E205365742069742061667465C1
:102C9000722072657374617274696E67290A006FBD
:102CA0006B0A004E6F204C696E65204E756D626533
:102CB00072207769746820636865636B73756D2C27
:102CC000204C617374204C696E653A20004E6F2071
:102CD000436865636B73756D2077697468206C69F0
:102CE0006E65206E756D6265722C204C6173742068
:102CF0004C696E653A2000636865636B73756D207F
:102D00006D69736D617463682C204C617374204C21
:102D1000696E653A20004C696E65204E756D62657E
:102D200072206973206E6F74204C617374204C693B
:102D30006E65204E756D6265722B312C204C61736F
:102D400074204C696E653A20004D313130004D38A9
:102D500034005374617274696E6720592043616C4A
:102D60006962726174696F6E2057697A6172640A70
:102D700000473639204143544956415445440A00DE
:102D8000456E642066696C65206C6973740A004244
:102D90006567696E2066696C65206C6973740A00EA
:102DA000CB01CF0111241FBECFEFD1E2DEBFCDBFDB
:102DB00000E00CBF18E0A0E0B2E0E6EDF2E503E0D1
:102DC0000BBF02C007900D92AE33B107D9F72EE1C9
:102DD000AEE3B8E001C01D92A431B207E1F716E1FD
:102DE000C1EDD6E100E006C021970109802FFE0168
:102DF0000F94CEA6C03DD10780E00807A9F70F9435
:102E000066870D945AA90C9400002F923F924F921E
:102E10005F926F927F928F929F92AF92BF92CF926A
:102E2000DF92EF92FF920F931F93CF93DF93CDB773
:102E3000DEB7C153D1400FB6F894DEBF0FBECDBF91
:102E40002DB63EB611E01093E6088091740881110A
:102E50000CC00E94B5BD6093700870937108809398
:102E60007208909373081093740880916808811118
:102E70000DC00E94B5BD609364087093650880938F
:102E800066089093670881E0809368088091CC1869
:102E9000409104035091050360910603709107036C
:102EA000811106C09091CD18992311F40C94FB2444
:102EB000413951056105710509F482C60CF0CBC09A
:102EC000413451056105710509F4A9C40CF061C0D4
:102ED000403251056105710511F40C94F42234F56A
:102EE000403151056105710509F466C174F4413042
:102EF00051056105710509F499C14230510561051B
:102F0000710509F45AC30C948E5342315105610581
:102F1000710509F435C214F40C9453224331510560
:102F20006105710509F4FEC10C948E5344335105BB
:102F30006105710511F40C94A421ACF441335105E1
:102F40006105710509F4D0C1423351056105710570
:102F500009F433C3413251056105710511F40C9434
:102F6000E3220C948E534A3351056105710511F427
:102F70000C94DF1F4D3351056105710509F46BC1D8
:102F8000453351056105710511F00C948E530C9475
:102F9000AC23463751056105710509F400C284F57B
:102FA0004F3451056105710509F496C5ACF44634FA
:102FB00051056105710509F4A5C44E34510561053B
:102FC000710509F412C5443451056105710511F00C
:102FD0000C948E530C9457204835510561057105AA
:102FE00009F463C14A3551056105710509F40BC344
:102FF000473551056105710509F4A4C10C948E5340
:10300000493851056105710509F4EBC0A4F44C374A
:1030100051056105710509F4B6C2483851056105CD
:10302000710509F4D3C04B3751056105710511F0E5
:103030000C948E53E8C24F3851056105710509F4AF
:1030400020C60CF079C64E3851056105710509F4AA
:10305000BFC50C948E53433A51056105710509F4BF
:1030600074C20CF053C0483951056105710511F463
:103070000C948123FCF4443951056105710509F470
:1030800087C674F4423951056105710509F4CCC550
:10309000433951056105710509F420C60C948E531E
:1030A000463951056105710509F4CCC60CF4F7C623
:1030B0000C9492234D3951056105710511F40C945E
:1030C0004B239CF44B3951056105710511F40C94A7
:1030D0000B2314F00C9414234A3951056105710532
:1030E00011F40C9402230C948E53413A510561055E
:1030F000710509F47AC60CF064C0403A51056105C7
:10310000710511F40C94A3230C948E53433D510587
:103110006105710511F40C94BD2424F5473A51055D
:103120006105710509F416C26CF4453A5105610553
:10313000710509F414C20CF41CC281E080935C1C7C
:103140000C948E53493A51056105710509F40CC27E
:103150000CF414C24E3B51056105710509F4B7C06A
:103160000C948E53433E51056105710509F4D9C194
:10317000A4F4413E51056105710509F4E1C10CF06B
:10318000DAC1403E51056105710511F00C948E5372
:1031900081E08093561C0C948E53453E5105610589
:1031A000710509F4B9C10CF4C1C1463E5105610570
:1031B000710539F00C948E5381E080935D1C0C9462
:1031C0008E5381E080935B1C0C948E5381E080933E
:1031D0005D1C41E050E069E881E20F9453210C94BA
:1031E0008E5380910E02833411F00C948E5382E43E
:1031F00080930E0240E050E067E581E20F94532196
:1032000040E050E066E781E20F94532140E050E057
:1032100068E881E20F94532140E050E069E881E2E0
:103220000F94532110920A0A0C948E531092B40FEB
:1032300080E00E942AED81E080934C1C8093120A6A
:1032400040E050E068E08AE00F94532181E48093ED
:10325000130A0C948E5380910E0240E050E08134AA
:1032600091F469E08AE00F94532111E01093B40FB8
:103270006EE778E082E00F945B2210937D08109255
:103280000A0A0C948E536AE28AE00F94532111E0EB
:103290001093B40F6EE778E086E20F945B221093F0
:1032A0007D0810920A0A0C948E538091AA0881110D
:1032B0000C948E538091CD1881110C948E5340E064
:1032C00050E069E38AE00F9453210C948E5380916F
:1032D000AA0881110C948E5340E050E061E08AE02E
:1032E0000F9453210C948E538091AA0881110C9451
:1032F0008E5300910E02013411F00C948E531092F3
:10330000B40F1092CC1811E01093CD1840E050E0AB
:1033100068E08AE00F9453210093130A1093901DE4
:103320000C948E5380910E02813411F00C948E53C4
:1033300040E050E061E08AE00F9453211092B40F16
:103340000C948E5380910E02823491F3833411F0E9
:103350000C948E5340E050E066E18AE00F945321D4
:1033600041E050E06DE781E20F94532182E58093C4
:10337000140281E080930A0A1092B40F0C948E53C9
:10338000882311F40C948E5380910E02813411F035
:103390000C948E5381E0809303100C948E53809193
:1033A000CD18882311F40C948E5380910E02823430
:1033B00029F481E080934D1C0C948E53833411F0DA
:1033C0000C948E5311E01093DC0840E050E068E963
:1033D00081E20F94532140E050E067E981E20F94CD
:1033E000532140E050E06CE981E20F94532140E02A
:1033F00050E06DE981E20F94532141E050E067E82D
:1034000081E20F94532140E050E06CE28AE00F9497
:10341000532110930A0A8FEF9FEF90933C02809301
:103420003B02EBEFF6E084918F01882351F0082EE8
:10343000000C990B0E94A0EA0F5F1F4FF8018491C6
:10344000F4CF40E050E06AE981E20F94532140E07C
:1034500050E06BE981E20F9453211F9210EBF12EA3
:10346000FF926091371D7091381D8091391D9091A8
:103470003A1D0F9403A47F936F9383EF96E09F937D
:103480008F938E010F5F1F4F1F930F930F948D9B90
:10349000B8018AE00F945B22C8010F949E481F92E6
:1034A000FF9260913B1D70913C1D80913D1D90915C
:1034B0003E1D0F9403A47F936F938BEE96E09F9332
:1034C0008F931F930F930F948D9BB80181E10F94FD
:1034D0005B22C8010F949E481F92FF921F921F9279
:1034E00083EE96E09F938F931F930F930F948D9B82
:1034F000B80185E00F945B22C8010F949E4810929A
:10350000B40F2DB73EB7285E3F4F0FB6F8943EBFBD
:103510000FBE2DBF0C948E5381E08093541C0C94ED
:103520008E5381E080934E1C0C948E5381E08093E7
:10353000551C0C948E5381E080934F1C0C948E5339
:1035400081E08093501C0C948E5381E08093591C31
:103550000C948E5381E08093531C0C948E5381E025
:103560008093581C0C948E5381E08093521C0C94D1
:103570008E5381E08093571C0C948E5381E080938E
:10358000511C0C948E5340E050E06AE28AE00F94A4
:10359000532140E050E06DE781E20F94532111E0A8
:1035A0001093B40F10920A0A6EE778E086E20F9447
:1035B0005B2210937D080C948E53423051056105B7
:1035C000710511F489E406C04233510561057105A6
:1035D00019F482E58093140240E050E06CE481E24B
:1035E0000F94532140E050E06BE481E20F945321AB
:1035F00040E050E064E18AE00F9453218FEF809324
:10360000060A0C948E534A3551056105710519F46B
:103610001092060A03C081E08093060A8091060A90
:10362000082F10E0000F111FF801E751FE4E208116
:103630003181309363082093620881111EC080910C
:10364000E71C9091E81C6091480870914908681740
:1036500079072CF4BC01990F880B990B04C0072E35
:10366000000C880B990B0F94E39B07511E4E0F948F
:1036700003A4D8016D937C931DC08091EB1C9091A5
:10368000EC1C6091460870914708681779072CF484
:10369000BC01990F880B990B04C0072E000C880BF6
:1036A000990B0F94E39B07511E4E0F9403A4F8014E
:1036B0007183608381E48093130A40E050E068E006
:1036C0008AE00F94532140E050E06DE781E20F94CF
:1036D000532180E090E0A3E4B3E480930C12909334
:1036E0000D12A0930E12B0930F128090F2099090D9
:1036F000F309A090F409B090F509209108123091D7
:10370000091240910A1250910B12609104127091AB
:1037100005128091061290910712E7EF6E2EE1E1FB
:103720007E2E7F926F92F0E1CF2EF2E1DF2EE12C20
:10373000F12C03E413E40E940AA50E94D2CA80E09F
:1037400090E0A0E2B1E48093081290930912A09354
:103750000A12B0930B128090EE099090EF09A0909E
:10376000F009B090F109E0900C12F0900D12009168
:103770000E1210910F126091041270910512809137
:103780000612909107127F926F9220E030E040E2A3
:1037900051E40E940AA50E94D2CA0F900F900F9088
:1037A0000F908091130A8E3411F40C944F291092CB
:1037B000130A0E94B2726EE274E08DE20F945B22F3
:1037C00040E050E068E28AE00F9453210091060A3D
:1037D00010E0F801EE0FFF1FEE0FFF1FE95CF24E45
:1037E00060817181828193810F9403A47093DA08C0
:1037F0006093D908000F111FF801E751FE4E808138
:1038000091819093D8088093D70888E48093130A15
:103810000E94B27281E08093DB080C948E538091F9
:10382000060A8130B1F540E050E068E08AE00F948C
:10383000532187ED90E09093E10F8093E00F9093F8
:10384000EE1C8093ED1C8AEA90E09093EC1C809330
:10385000EB1C81E490E09093DD0F8093DC0F0E94DD
:1038600012908091ED1C9091EE1C9093EC1180933E
:10387000EB110F94546E40E050E06EE781E20F943C
:10388000532140E050E06DE481E20F9453210C9409
:103890008E5381110C948E5340E050E068E08AE032
:1038A0000F94532187ED90E09093E30F8093E20F04
:1038B0009093EA1C8093E91C8AEA90E09093E81CBC
:1038C0008093E71C81E490E09093DF0F8093DE0FFC
:1038D0000E9412908091E91C9091EA1C9093EA1149
:1038E0008093E9110F94546E40E050E06EE781E25E
:1038F0000F94532140E050E06DE481E20F94532196
:103900000C948E538091060A8130B1F540E050E06E
:1039100068E08AE00F94532184E091E09093E10FF6
:103920008093E00F9093EE1C8093ED1C86EE90E068
:103930009093EC1C8093EB1C8AE590E09093DD0F54
:103940008093DC0F0E9412908091ED1C9091EE1CF0
:103950009093EC118093EB110F94546E40E050E083
:103960006EE781E20F94532140E050E06DE481E284
:103970000F9453210C948E5381110C948E5340E07C
:1039800050E068E08AE00F94532184E091E0909346
:10399000E30F8093E20F9093EA1C8093E91C86EE7C
:1039A00090E09093E81C8093E71C8AE590E0909368
:1039B000DF0F8093DE0F0E9412908091E91C90919E
:1039C000EA1C9093EA118093E9110F94546E40E041
:1039D00050E06EE781E20F94532140E050E06DE447
:1039E00081E20F9453210C948E538091060A81300A
:1039F000C1F540E050E068E08AE00F9453218CED7F
:103A000090E09093E10F8093E00F86EE90E090932A
:103A1000EE1C8093ED1C80EA90E09093EC1C809368
:103A2000EB1C8CE390E09093DD0F8093DC0F0E9401
:103A300012908091ED1C9091EE1C9093EC1180936C
:103A4000EB110F94546E40E050E06EE781E20F946A
:103A5000532140E050E06DE481E20F9453210C9437
:103A60008E5381110C948E5340E050E068E08AE060
:103A70000F9453218CED90E09093E30F8093E20F2D
:103A800086EE90E09093EA1C8093E91C80EA90E037
:103A90009093E81C8093E71C8CE390E09093DF0FF9
:103AA0008093DE0F0E9412908091E91C9091EA1C95
:103AB0009093EA118093E9110F94546E40E050E026
:103AC0006EE781E20F94532140E050E06DE481E223
:103AD0000F9453210C948E538091060A823010F07B
:103AE0000C948E5340E050E064E38AE00F9453213D
:103AF0001F9250EBF52EFF9280910D028F938091D3
:103B00000C028F9301E314E01F930F936E01FCED01
:103B1000CF1AFEEFDF0ADF92CF920F942AA9B601E7
:103B20008DE00F945B221F92FF9280910B028F9386
:103B300080910A028F931F930F936E0126EEC21A93
:103B40002EEFD20ADF92CF920F942AA9B6018EE00F
:103B50000F945B221F92FF92809109028F938091B4
:103B600008028F931F930F936E0131E0C30ED31E93
:103B7000DF92CF920F942AA9B6018FE00F945B22B7
:103B80001F92FF92809107028F93809106028F937C
:103B90001F930F938E010F5F1F4F1F930F930F946F
:103BA0002AA94DB75EB7405E5F4F0FB6F8945EBF6F
:103BB0000FBE4DBFB80182E10F945B220C948E536F
:103BC00040E050E064E18AE00F9453210C948E535E
:103BD00080910C0290910D021816190614F00C94A5
:103BE0008E530A9790930D0280930C021F9220EB44
:103BF0002F939F938F9388E394E09F938F938E01ED
:103C00000F5F1F4F1F930F930F942AA9B8018DE0E8
:103C10000F945B228DB79EB708960FB6F8949EBF9F
:103C20000FBE8DBF0C948E5380910C0290910D02AB
:103C30008633A1E09A0714F00C948E530A96909361
:103C40000D0280930C021F9220EB2F939F938F9372
:103C500088E394E09F938F938E010F5F1F4F1F9314
:103C60000F930F942AA9B8018DE00F945B22EDB752
:103C7000FEB738960FB6F894FEBF0FBEEDBF0C949A
:103C80008E5380910A0290910B021816190614F0B7
:103C90000C948E530A9790930B0280930A021F9202
:103CA00020EB2F939F938F9388E394E09F938F93C0
:103CB0008E010F5F1F4F1F930F930F942AA9B80116
:103CC0008EE00F945B222DB73EB7285F3F4F0FB6B3
:103CD000F8943EBF0FBE2DBF0C948E5380910A0204
:103CE00090910B02863331E0930714F00C948E53BD
:103CF0000A9690930B0280930A021F9220EB2F9357
:103D00009F938F9388E394E09F938F938E010F5F2F
:103D10001F4F1F930F930F942AA9B8018EE00F94A1
:103D20005B224DB75EB7485F5F4F0FB6F8945EBF3A
:103D30000FBE4DBF0C948E538091080290910902E2
:103D40001816190614F00C948E530A9790930902D2
:103D5000809308021F9220EB2F939F938F9388E309
:103D600094E09F938F938E010F5F1F4F1F930F93CC
:103D70000F942AA9B8018FE00F945B228DB79EB7EC
:103D800008960FB6F8949EBF0FBE8DBF0C948E534D
:103D900080910802909109028633A1E09A0714F0FD
:103DA0000C948E530A9690930902809308021F92F6
:103DB00020EB2F939F938F9388E394E09F938F93AF
:103DC0008E010F5F1F4F1F930F930F942AA9B80105
:103DD0008FE00F945B22EDB7FEB738960FB6F894DC
:103DE000FEBF0FBEEDBF0C948E53809106029091E2
:103DF00007021816190614F00C948E530A97909324
:103E00000702809306021F9220EB2F939F938F93BC
:103E100088E394E09F938F938E010F5F1F4F1F9352
:103E20000F930F942AA9B80182E10F945B222DB75A
:103E30003EB7285F3F4F0FB6F8943EBF0FBE2DBF71
:103E40000C948E5380910602909107028936910559
:103E500014F00C948E530A969093070280930602F6
:103E60001F9220EB2F939F938F9388E394E09F936F
:103E70008F938E010F5F1F4F1F930F930F942AA9EB
:103E8000B80182E10F945B224DB75EB7485F5F4F88
:103E90000FB6F8945EBF0FBE4DBF0C948E5340E03A
:103EA00050E068E08AE00F945321E091060A4091C7
:103EB0000C0250910D0220910A0230910B02609188
:103EC0000802709109028091060290910702E111A7
:103ED00030C06C33A1E07A0714F06BE371E07093AB
:103EE000E30F6093E20F4C33B1E05B0714F04BE358
:103EF00051E05093EA1C4093E91C2C33E1E03E076B
:103F000014F02BE331E03093E81C2093E71C8F364C
:103F1000910514F08EE690E09093DF0F8093DE0F12
:103F20008091E91C9091EA1C9093EA118093E91129
:103F300034C06C33F1E07F0714F06BE371E07093F1
:103F4000E10F6093E00F4C3361E056072CF450937F
:103F5000EE1C4093ED1C06C04BE351E05093E10F83
:103F60004093E00F2C33A1E03A0714F02BE331E04B
:103F70003093EC1C2093EB1C8F36910514F08EE6E9
:103F800090E09093DD0F8093DC0F8091ED1C909179
:103F9000EE1C9093EC118093EB110E9412900F9401
:103FA000546E40E050E06EE781E20F94532140E010
:103FB00050E06DE481E20F9453210C948E536EE235
:103FC00074E08DE20F945B2240E050E068E28AE00A
:103FD0000F94532188E48093130A0E94B272809157
:103FE000060A082F10E081111DC08091E91C9091F4
:103FF000EA1C6091440870914508681779072CF411
:10400000BC01990F880B990B04C0072E000C880B7C
:10401000990B0F94E39B0F9403A47093EA116093A0
:10402000E91122C08091ED1C9091EE1C6091420834
:1040300070914308681779072CF4BC01990F880B1D
:10404000990B04C0072E000C880B990B0F94E39B6F
:104050009801220F331FF901E751FE4E7F010F94A3
:1040600003A4D7016D937C93F801EE0FFF1FEE0FB1
:10407000FF1FE95CF24E60817181828193810F9410
:1040800003A47093DA086093D908F801EE0FFF1FBC
:10409000E751FE4E808191819093D8088093D70894
:1040A0000E94B27281E08093DB080C948E53809161
:1040B0001402893411F00C948E5340E050E068E013
:1040C0008AE00F94532181E48093130AE091060A59
:1040D000B4E0EB9FF0011124EE54FD4F608171813B
:1040E000828193816093041270930512809306126B
:1040F00090930712E0900C12F0900D1200910E12A6
:1041000010910F12209108123091091240910A1259
:1041100050910B120F940D23E0900C12F0900D12A1
:1041200000910E1210910F12209108123091091275
:1041300040910A1250910B12609104127091051275
:104140008091061290910712E6E0FAE0FF93EF9358
:10415000812CA0E89A2EABE3AA2EA6E4BA2EB0E1F9
:10416000CB2EB2E1DB2E0E940AA50E94D2CAE9ED55
:10417000F6E084910F900F908F01882351F0082E64
:10418000000C990B0E94A0EA0F5F1F4FF801849169
:10419000F4CF20E030E040EF51E4609110127091D4
:1041A000111280911212909113120F9469A26093D0
:1041B0001012709311128093121290931312E090C8
:1041C0000C12F0900D1200910E1210910F1220910E
:1041D00008123091091240910A1250910B1260910D
:1041E0000412709105128091061290910712B6E0A8
:1041F0006B2EBAE07B2E7F926F92812C912CE0E3A4
:10420000AE2EE1E4BE2EF0E1CF2EF2E1DF2E0E94D1
:104210000AA50E94D2CA0F900F908091130A8E3483
:1042200011F40C944F2920E030E84AE454E4609102
:1042300010127091111280911212909113120F941A
:1042400069A2AB01BC01409310125093111260930C
:1042500012127093131282E496E10E94F0ECE09047
:104260000C12F0900D1200910E1210910F1220916D
:1042700008123091091240910A1250910B1260916C
:1042800004127091051280910612909107127F928C
:104290006F92812C912CA0E7AA2EA2E4BA2E0E9444
:1042A0000AA50E94D2CA0F900F908091130A8E34F3
:1042B00009F4F5C720E030E048E452E460911012C0
:1042C0007091111280911212909113120F9469A2A1
:1042D0006093101270931112809312129093131224
:1042E000E0900C12F0900D1200910E1210910F122E
:1042F000209108123091091240910A1250910B122C
:10430000609104127091051280910612909107122B
:104310007F926F92812C912CA12CF0E4BF2E0E94F1
:104320000AA50E94D2CA0F900F908091130A8E3472
:1043300009F4B5C71092130A40E050E06EE08AE03D
:104340000F9453210C948E5380911402823511F0F6
:104350000C948E5340E050E068E08AE00F945321C3
:1043600081E48093130A66E272E080E090E00E94AC
:104370007DBD20E030E240E854E46091101270917D
:10438000111280911212909113120F9468A26093EF
:104390001012709311128093121290931312E090E6
:1043A0000C12F0900D1200910E1210910F1220912C
:1043B00008123091091240910A1250910B1260912B
:1043C0000412709105128091061290910712E6E096
:1043D000FAE0FF93EF93812C912CB0E7AB2EB2E47F
:1043E000BB2EE0E1CE2EE2E1DE2E0E940AA50E9465
:1043F000D2CA0F900F908091130A8E3409F44FC7E0
:1044000086E090E090930502809304021092130AD4
:1044100012E410933D1C0E94B27240E050E065E14E
:104420008AE00F94532140E050E06BE084E10F9468
:1044300053211093130A8091060A81111AC08091AA
:10444000E91C9091EA1C9093450880934408809160
:10445000E71C9091E81C909349088093480880914C
:10446000E20F9091E30F90934108809340080C94E1
:104470008E538091ED1C9091EE1C90934308809395
:1044800042088091EB1C9091EC1C9093470880931C
:1044900046088091E00F9091E10F90933F08809340
:1044A0003E080C948E538091D20881110C948E5347
:1044B00040E050E065E18AE00F94532140E050E095
:1044C0006BE084E10F94532182E48093130A80937C
:1044D0003D1CE091060A24E0E29FF0011124EE5415
:1044E000FD4F60817181828193816093041270938A
:1044F00005128093061290930712E0900C12F09030
:104500000D1200910E1210910F122091081230918D
:10451000091240910A1250910B12E6E0FAE0FF9363
:10452000EF93812CE0E89E2EEBE3AE2EE6E4BE2E68
:10453000F0E1CF2EF2E1DF2E0E940AA5E0900C12EE
:10454000F0900D1200910E1210910F12209108128E
:104550003091091240910A1250910B12E091F7111B
:1045600064E0E69FF0011124EE54FD4F60817181FB
:10457000828193810F940D23E091F71184E0E89FED
:10458000F0011124EE54FD4F80819181A281B3810D
:104590008093041290930512A0930612B093071211
:1045A000E091060AF0E0EE0FFF1FE751FE4E80910A
:1045B000620890916308918380830E94D2CA0F9011
:1045C0000F900C948E538091D20881110C948E53CD
:1045D0009091DB0F8091DA0F98130C94AC5381E02B
:1045E0008093DE080C948E538091D20881110C9434
:1045F0008E539091DB0F8091DA0F98130C94AC538B
:104600000C94AF539091DB0F8091DA0F98130C94B8
:104610008E530C94B3539091DB0F8091DA0F981363
:104620000C948E530C948354E0913B02F0913C0225
:10463000EF3F5FEFF50711F40C948E53EE0FFF1F61
:10464000E751FE4E808191818B3361E0960714F033
:104650000C948E530596918380831F9220EB2F93A9
:104660009F938F9389E996E09F938F938E010F5FBD
:104670001F4F1F930F930F948D9BB80185E00F94EC
:104680005B228DB79EB708960FB6F8949EBF0FBEFB
:104690008DBF0C948E53E0913B02F0913C02EF3FB2
:1046A0009FEFF90711F40C948E53EE0FFF1FE751A3
:1046B000FE4E808191811816190614F00C948E53C9
:1046C0000597918380831F9220EB2F939F938F9365
:1046D00081E996E09F938F938E010F5F1F4F1F9389
:1046E0000F930F948D9BB80185E00F945B22ADB7BB
:1046F000BEB718960FB6F894BEBF0FBEADBF0C94F0
:104700008E5380913B0290913C02019611F40C94DF
:104710008E539091DB0F8091DA0F98130C94AC5369
:104720000C94585580913B0290913C02019611F4F3
:104730000C948E539091DB0F8091DA0F98130C94A8
:10474000AC530C945C559091DB0F8091DA0F981369
:104750000C948E530C94605580913D1C823411F062
:104760000C948E53E8E8F6E084918F01882351F091
:10477000082E000C990B0E94A0EA0F5F1F4FF80152
:104780008491F4CF1092130A1092D20880911402EF
:10479000823509F047C089E4809314028091060AAB
:1047A000813049F441E050E06CE481E20F94532100
:1047B00040E050E008C040E050E06CE481E20F943B
:1047C000532141E050E06BE481E20F94532141E03A
:1047D00050E06EE781E20F94532141E050E06DE438
:1047E00081E20F94532141E050E061E481E20F94B3
:1047F000532141E050E066E481E20F94532141E00F
:1048000050E06EE481E20F94532141E050E06FE408
:1048100081E20F94532140E050E064E18AE00F947C
:104820005321A7C0893409F0A4C081E48093130AFE
:1048300040E050E068E08AE00F94532140909D08EA
:1048400050909E0860909F087090A00840920812B7
:104850005092091260920A1270920B1220E030E01E
:1048600040E752E460912502709126028091270270
:10487000909128020F9457A34B015C01E0900C1219
:10488000F0900D1200910E1210910F12609104120F
:1048900070910512809106129091071227EF31E175
:1048A0003F932F9350E1C52E52E1D52EA3019201E3
:1048B0000E940AA50E94D2CA0F900F908091130AFD
:1048C0008E3409F4ECC420E030E040E251E4609121
:1048D000A1087091A2088091A3089091A4080F9458
:1048E00069A27B018C0160930C1270930D1280936E
:1048F0000E1290930F12809198088983809029025C
:1049000090902A02A0902B02B0902C0220910812C5
:104910003091091240910A1250910B1260910412C9
:10492000709105128091061290910712FE01319646
:10493000FF93EF930E940AA50E94D2CA0F900F9096
:104940008091130A8E3409F4AAC41092130A40E02D
:1049500050E06AE28AE00F94532111E01093B40F03
:1049600010920A0A6EE778E086E20F945B221093B9
:104970007D0810923D1C0C948E5380915A1C10920D
:10498000130A8823B9F010925A1C81E080935B1CB3
:1049900080910E0240E050E0813431F469E08AE019
:1049A0000F9453210C948E536AE28AE00F945321A2
:1049B0000C948E531092821D10920A0AEDE7F6E0D5
:1049C00084918F01882351F0082E000C990B0E94CE
:1049D000A0EA0F5F1F4FF8018491F4CF1092E40812
:1049E00081E00F94FD6040E050E065E08AE00F94C4
:1049F00053210C948E539091081E992309F428C2D8
:104A000080910C1E823008F423C2473451056105A1
:104A1000710509F4A3C09CF54B3251056105710580
:104A200009F462C09CF4473151056105710509F430
:104A300067C0483151056105710511F00C948E5322
:104A400082E090E00F94F46D0C948E534033510546
:104A50006105710509F44EC04533510561057105C5
:104A600009F4BCC14F3251056105710511F00C9478
:104A70008E538FEF9FEF0F94F46D0C948E5340384C
:104A800051056105710509F441C004F54E35510524
:104A90006105710509F470C14F3551056105710556
:104AA00011F00C948E5314E410933D1C40E050E040
:104AB0006BE084E10F94532140E050E065E18AE02F
:104AC0000F9453211093130A0C948E5342385105BE
:104AD00061057105B9F144F14B3A51056105710564
:104AE00009F4C8C00C948E538EEF9FEF0F94F46DB1
:104AF0000C948E5380E090E00F94F46D0C948E53E0
:104B000081E090E00F94F46D0C948E538DEF9FEF45
:104B100090933F1C80933E1C40E050E06AE08AE0A6
:104B20000F9453210C948E5383E090E090933F1C9C
:104B300080933E1C40E050E06AE08AE00F945321ED
:104B40000C948E5310923F1C10923E1C40E050E09B
:104B50006AE08AE00F9453210C948E5340E050E0B9
:104B600068E08AE00F94532181E48093130A41E0C6
:104B700061E081E00E94C5B71092130A0E94D2CA78
:104B80000F94816A10913E1C80910C1E823011F5A9
:104B900040E050E061E18AE00F94532180E580938A
:104BA000130A0091091E010F0093091E002E000C2C
:104BB000110B20E030E0A901CA01B9010F9473562E
:104BC00040E050E069E18AE00F9453211092130A0B
:104BD0000C948E53833029F540E050E061E18AE087
:104BE0000F94532180E58093130A00910A1E010F50
:104BF00000930A1E002E000C110B20E030E04CE563
:104C000053EC60E070E088EA92EC0F94735640E059
:104C100050E069E18AE00F9453211092130A0C943A
:104C20008E53843011F00C948E5340E050E061E1DB
:104C30008AE00F94532180E58093130A00910B1EA4
:104C4000010F00930B1E002E000C110B20E030E032
:104C50004CE553EC60E070E084EA92E40F94735604
:104C600040E050E069E18AE00F9453211092130A6A
:104C70000C948E531092130A8091091E40910A1EC3
:104C8000042F081B40910B1E142F181B602F002EA1
:104C9000000C770B880B990B0F94E39B2DEC3CECED
:104CA0004CEC5DEB0F94CE966093F51C7093F61C64
:104CB0008093F71C9093F81C612F012E000C770B4A
:104CC000880B990B0F94E39B2DEC3CEC4CEC5DEBCB
:104CD0000F94CE966093F11C7093F21C8093F31C9A
:104CE0009093F41C0023A1F040E050E06FE18AE0D3
:104CF0000F94532107FF07C0202F332721950CF471
:104D0000309508E0020F402F000F550B64E015C0EE
:104D10001123B9F040E050E060E28AE00F945321A3
:104D200017FF07C0812F992781950CF4909518E003
:104D3000180F412F110F550B65E08BE10F94532194
:104D400011C014E410933D1C40E050E06BE084E19E
:104D50000F94532140E050E065E18AE00F94532125
:104D60001093130A85E195E09093F01C8093EF1C5B
:104D70000E9412900C948E5340910B1E8091091E3C
:104D8000142F181BC1F040E050E060E28AE00F945D
:104D9000532117FF07C0A12FBB27A1950CF4B09595
:104DA00018E01A0F412F110F550B65E08BE10F949E
:104DB00053210C948E5314E410933D1C40E050E0BA
:104DC0006BE084E10F94532140E050E065E18AE01C
:104DD0000F9453211093130A0C948E5380913D1C11
:104DE000843411F00C948E5310920C1E1092081EF5
:104DF0001092130A1092E4111092E3111092EA112A
:104E00001092E9111092EC111092EB111092821D88
:104E100010920A0AE2E7F6E084918F01882351F0AC
:104E2000082E000C990B0E94A0EA0F5F1F4FF8019B
:104E30008491F4CF1092E4080F94FD6040E050E0BC
:104E400065E08AE00F94532110923D1C0C948E5320
:104E50004D3E510510F00C948E53FA018827EE5800
:104E6000FF4F8F4F0D94CEA681E08093CD080C9418
:104E70008E5381E08093CC080C948E5381E0809314
:104E8000CB080C948E5381E08093CA080C948E5307
:104E900081E08093C9080C948E530E9460F00097C3
:104EA00051F481E08093CE088091D6118150809397
:104EB000D6110C948E53019711F00C948E5381E00F
:104EC0008093CE0840E050E067E381E20F945321E5
:104ED00040E050E061E08BE10F9453218091D611C6
:104EE00081508093D6110C948E531092821D109293
:104EF0000A0AE7E6F6E084918F01882351F0082E34
:104F0000000C990B0E94A0EA0F5F1F4FF8018491DB
:104F1000F4CF1092E40881E00F94FD6040E050E08F
:104F200065E08AE00F9453210C948E538091CE1843
:104F3000882311F40C948E5380911E1981110C94C6
:104F40008E53CDB6DEB68091C7089091C8080E94F6
:104F5000A4F0EFECF8E1DF010D900020E9F78DB748
:104F60009EB78A1B9B0B9C012553374E0FB6F894B6
:104F70003EBF0FBE2DBF0DB71EB70F5F1F4FFF9374
:104F8000EF9380E696E09F938F931F930F930F9478
:104F90008D9B780134E0E30EF11C0F900F900F9081
:104FA0000F900F900F90F7018081882349F0082E11
:104FB000000C990B0F94C9A8D7018D937D01F3CFF5
:104FC000809118129091191204971CF4C8010E9444
:104FD00062B78CE596E00F9400610FB6F894DEBEE0
:104FE0000FBECDBE0C948E5381E08093D1080C94FB
:104FF0008E5381E08093D0080C948E5340E050E0B3
:1050000062E18AE00F9453210C948E5340E050E00B
:105010006CE18AE00F94532180E00F94FD601092C0
:10502000E3081092E2081092E10881E08093E4081E
:105030000C948E531092821D10920A0AE1E5F6E05C
:1050400084918F01882351F0082E000C990B0E9447
:10505000A0EA0F5F1F4FF8018491F4CF1092E4088B
:105060000E94B27281E00F94FD6040E050E065E084
:105070008AE00F9453210C948E538091E911909102
:10508000EA11892B29F01092EA111092E91108C057
:105090008091E20F9091E30F9093EA118093E911D0
:1050A0001092E3080C948E538091EB119091EC11C7
:1050B000892B29F01092EC111092EB1108C080910D
:1050C000E00F9091E10F9093EC118093EB1110920F
:1050D000E2080C948E538091E3119091E411892B96
:1050E00029F01092E4111092E3111CC08091DE0FA0
:1050F0009091DF0F6091DC0F7091DD0F68177907D9
:105100002CF4BC01990F880B990B04C0072E000CDE
:10511000880B990B0F94E39B0F9403A47093E411F5
:105120006093E3111092E1080C948E538DE496E0A5
:105130000F9400610C948E5340E050E06EE18AE0E1
:105140000F9453210C948E5340E050E065E08AE0C8
:105150000F9453211092821D10920A0AE2E4F6E0A5
:1051600084918F01882351F0082E000C990B0E9426
:10517000A0EA0F5F1F4FF8018491F4CF1092E4086A
:1051800088E793E09093A1028093A0020E9412907E
:105190000C948E5340E050E06AE18AE00F94532172
:1051A0000E9481EB8091CE18882311F40C948E53C9
:1051B0008091D5118093D6112DEAE22E21E1F22EB5
:1051C00031ECC32E31E1D32E00E010E04BE3842E0E
:1051D00046E0942E8091D51190E00817190794F5B8
:1051E0006FEC78E186E499E10E94ED995701D701CF
:1051F0008D919D917D010E94A4F0F50180819181A6
:10520000D6018D939D936D0180911E19811113C05C
:10521000F40184919BE3A92E96E0B92E882379F0BE
:10522000082E000C990B0E94A0EAFFEFAF1ABF0AEC
:10523000F5018491F3CF8FEC98E10F9473680F5FC1
:105240001F4FC8CF87E090E00F94E66E0C948E530A
:105250008091A0029091A1028036974041F488E7A6
:1052600093E09093A1028093A0020E94129040E0EC
:1052700050E068E08AE00F94532181E48093130AA0
:1052800080916F098823D1F040E061E081E00E94C5
:10529000C5B70E94D2CA8091130A8E3489F48FEF69
:1052A0009FEFDC018093040390930503A093060312
:1052B000B09307031092E6080C948A5541E0E5CFBD
:1052C00081E00F94FD601092130A88E396E00F943A
:1052D00000610E94D2CA8091130A8E3401F340E02B
:1052E00050E06BE08AE00F9453210C948E5340E021
:1052F00050E064E08AE00F9453210C948E5340E018
:1053000050E064E28AE00F94532181E080936108C9
:1053100089E48093130A1F921F9280E494E09F9384
:105320008F938E010F5F1F4F1F930F930F942AA926
:10533000B8018EE20F945B226091E20F7091E30F4F
:10534000072E000C880B990B0F94E39B00E010E0F4
:1053500028EC31E440E050E00F94A6490E941290FE
:1053600065E474E082E496E10F94A44968E474E093
:1053700082E496E10F94A4496091DA027091DB0215
:105380008091DC029091DD0242E050E00F944E6982
:105390006CE474E082E496E10F94A4492DEB37E3CA
:1053A00046E05EE36091D2027091D3028091D40214
:1053B0009091D5020F9457A342E050E00F944E69AC
:1053C00060E574E082E496E10F94A4492DEB37E3A5
:1053D00046E05EE36091CA027091CB028091CC02FC
:1053E0009091CD020F94CE9642E050E00F944E691A
:1053F0006091E00F7091E10F072E000C880B990B64
:105400000F94E39B00E010E028EC31E441E050E031
:105410000F94A6490E94129065E474E082E496E13C
:105420000F94A44968E474E082E496E10F94A449DF
:105430006091DE027091DF028091E0029091E102C2
:1054400042E050E00F944E696CE474E082E496E12F
:105450000F94A4492DEB37E346E05EE36091D6025A
:105460007091D7028091D8029091D9020F9457A3DE
:1054700042E050E00F944E6960E574E082E496E10A
:105480000F94A4492DEB37E346E05EE36091CE0232
:105490007091CF028091D0029091D1020F94CE965C
:1054A00042E050E00F944E691092130A0E94B272CB
:1054B00040E050E06BE084E10F94532140E050E085
:1054C00065E18AE00F94532184E480933D1C80932E
:1054D000130A0F900F900F900F900F900F900C9455
:1054E0008E531092821D10920A0AEDE2F6E084912A
:1054F0008F01882351F0082E000C990B0E94A0EA1E
:105500000F5F1F4FF8018491F4CF1092E4080E94BE
:10551000B27240E050E065E08AE00F9453210C94B1
:105520008E5382E58093140281E08093600840E00E
:1055300050E06BE581E20F94532140E050E06CE5D0
:1055400081E20F94532140E050E060E08BE10F9442
:10555000532140E050E06AE781E20F94532140E09C
:1055600050E069E781E20F94532140E050E06DE1A3
:105570008AE00F9453218FEF8093060A0C948E5388
:1055800040E050E062E18AE00F94532140E050E0B7
:105590006BE581E20F94532140E050E06CE581E23D
:1055A0000F94532140E050E060E08BE10F945321D1
:1055B00040E050E06AE781E20F94532140E050E080
:1055C00069E781E20F945321109260080C948E5386
:1055D0001092821D10920A0AE2E2F6E084918F0195
:1055E000882351F0082E000C990B0E94A0EA0F5F4F
:1055F0001F4FF8018491F4CF1092E40840E050E08E
:1056000065E08AE00F94532140E050E06BE581E2D1
:105610000F94532140E050E06CE581E20F94532158
:1056200040E050E060E08BE10F94532140E050E017
:105630006AE781E20F94532140E050E069E781E29C
:105640000F945321109260080C948E5341E050E067
:105650006BE581E20F94532140E050E06CE581E27C
:105660000F94532141E050E060E08BE10F9453210F
:1056700041E050E06AE781E20F94532141E050E0BD
:1056800069E781E20F9453211092060A0C948E531D
:1056900040E050E06BE581E20F94532141E050E09F
:1056A0006CE581E20F94532141E050E060E08BE132
:1056B0000F94532141E050E06AE781E20F945321B7
:1056C00041E050E069E781E20F94532181E080934B
:1056D000060A0C948E538091A0029091A10280360C
:1056E000974041F488E793E09093A1028093A00251
:1056F0000E9412900091060A0F3F11F40C948E53F1
:1057000001111DC08091E71C9091E81C6091480830
:1057100070914908681779072CF4BC01990F880B20
:10572000990B04C0072E000C880B990B0F94E39B78
:105730000F9403A47093EA116093E91120C0809143
:10574000EB1C9091EC1C609146087091470868171B
:1057500079072CF4BC01990F880B990B04C0072E14
:10576000000C880B990B0F94E39B10E0000F111FA6
:1057700007511E4E0F9403A4D8016D937C9381E0D2
:105780008093110A81E48093130A40E050E068E0BE
:105790008AE00F94532180916F09882311F040E033
:1057A00001C041E061E081E00E94C5B780E090E087
:1057B000A3E4B3E480930C1290930D12A0930E1205
:1057C000B0930F128090F2099090F309A090F40921
:1057D000B090F509209108123091091240910A12F7
:1057E00050910B1260910412709105128091061273
:1057F00090910712E7EF6E2EE1E17E2E7F926F927D
:10580000F0E1CF2EF2E1DF2EE12CF12C03E413E4E2
:105810000E940AA580E090E0A0E2B1E48093081223
:1058200090930912A0930A12B0930B128090EE0984
:105830009090EF09A090F009B090F109E0900C125F
:10584000F0900D1200910E1210910F12609104123F
:105850007091051280910612909107127F926F92BB
:1058600020E030E040E251E40E940AA50E94D2CA42
:105870000F900F900F900F908091130A8E3409F4BF
:105880000ECD1092130A0E94B2726EE274E08DE2A5
:105890000F945B2240E050E068E28AE00F945321CD
:1058A0000091060A10E0F801EE0FFF1FEE0FFF1F38
:1058B000E95CF24E60817181828193810F9403A42F
:1058C0007093DA086093D908000F111FF801E751AF
:1058D000FE4E808191819093D8088093D70888E408
:1058E0008093130A0E94B27264EF71E080E090E04E
:1058F0000E947DBD81E08093DB080C948E538091E3
:10590000A0029091A1028036974041F488E793E08D
:105910009093A1028093A0020E941290E091060A47
:10592000EF3F11F40C948E5381E08093110AF0E064
:10593000EE0FFF1FE751FE4E84E091E091838083DC
:1059400081E48093130A40E050E068E08AE00F941D
:10595000532180916F09882311F040E001C041E09C
:1059600061E081E00E94C5B70E94D2CA8091130A0B
:105970008E3409F494CC80E090E0A3E4B3E4809307
:105980000C1290930D12A0930E12B0930F128090F0
:10599000F2099090F309A090F409B090F5092091D4
:1059A00008123091091240910A1250910B12609125
:1059B0000412709105128091061290910712E7EF80
:1059C0006E2EE1E17E2E7F926F92F0E1CF2EF2E11A
:1059D000DF2EE12CF12C03E413E40E940AA50E94BF
:1059E000D2CA0F900F908091130A8E3409F457CCCD
:1059F00080E090E0A0E2B1E4809308129093091255
:105A0000A0930A12B0930B128090EE099090EF09C8
:105A1000A090F009B090F109E0900C12F0900D12F6
:105A200000910E1210910F126091041270910512E4
:105A300080910612909107127F926F9220E030E0E1
:105A400040E251E40E940AA50E94D2CA0F900F9032
:105A50008091130A8E3409F422CC8091060A8111B8
:105A600003C080E090E002C081E090E00F94538496
:105A700080E090E0ABE1B3E48093041290930512D0
:105A8000A0930612B0930712E0900C12F0900D1242
:105A900000910E1210910F122091081230910912EC
:105AA00040910A1250910B1286E09AE09F938F93D7
:105AB000812C60E8962E6BE3A62E66E4B62E70E18C
:105AC000C72E72E1D72E60E070E08BE193E40E9474
:105AD0000AA50E94D2CA0F900F908091130A8E34AB
