:100000000C9492160C94C3160C94C3160C94C3163D
:100010000C94C3160C94C3160C94C3160C94C316FC
:100020000C94C3160C94C3160C94C3160C94C316EC
:100030000C94C3160C94C3160C94C3160D944C5018
:100040000C94C3160C94C3160C94C3160C94C316CC
:100050000C94C3160C94C3160C94F9D40C94D2D2FD
:100060000C94C3160C94CE880C94A5880C94C316DB
:100070000C94C3160C94C3160C94C3160C94C3169C
:100080000C9454BC0C94C3160C94C3160C94C31655
:100090000C94C3160C94C3160C94C3160C94C3167C
:1000A0000C94C3160C94C3160C94C3160C94C3166C
:1000B0000C94C3160C94C3160C94C3160C94C3165C
:1000C0000C94C3160C94C3160C94C3160C9470882D
:1000D0000C9447880C94C3160C94C3160C94C31646
:1000E0000C94C3167232E1548A326130E154AE2A64
:1000F000E154B82AE154E154E83BF72AE154E154D1
:100100000227FD26E154DD3CE154E154E15465420F
:100110006D42E347EB47E24AE154B442F2423043D6
:1001200009448D43243D163D5430CB43E154B32A5A
:100130005A27952A2830FA3E4930CC476E4E3E3039
:100140003330D447DC47E1547C327542383AA13F22
:10015000C02A11270727E1544B38E22BCB4AE15440
:10016000D34A1A2DF3474C353D2A0D4C0539494FDA
:10017000AD3543487D42EA4A312C14341434C63339
:100180000E3673363A2D0E2B252BD42A692DF826E0
:100190000C27E154E154E154BC32CF2DF12D502B0A
:1001A0009C3E793E85428D4294429C42A442AC42A0
:1001B0003E4346434E4356435E4366436D43754359
:1001C0007D4385438D4417440345D4465E46E84548
:1001D000E154DB4A912D142E292FBC32D333DB336B
:1001E000F933C4474A4A704ABF4ABC47E83A3927FC
:1001F00074544B32E154E154B252E154433E323D27
:10020000163741376C37A1362B3756378137C13710
:10021000AC37BA31A631DB3D6E30E730673187311C
:10022000B952CB313A329737E154E154E154E154B9
:10023000E154E154E154E154E154FA3E562B5E2B73
:10024000842BFF533B545D4A8F4AF347BF4AF24A1F
:10025000F14BE154D44E314F714EBE4E0D4D564FC1
:10026000E154264D613B0051F03BB63C4351E15413
:10027000E154D64F1F506A50B550CF4F634F8E4F49
:1002800086518752DE53E154E1549553E154E154D1
:10029000EE53E154392C5E4E144D2F4DF34DFA4D73
:1002A000952A654EE154E154E154E154E154E1549E
:1002B000E154E154E154BC54CB54DB54D4542D7874
:1002C000E3789D797879077978795A794B786978E4
:1002D0008778327A507A6E7A8B7AC578A5783C79AD
:1002E000D4D0D7D0C6D0CAD0D0D00ED1DBD0DFD0BA
:1002F000E5D0E9D0EDD0F3D0F7D0FBD00ED101D1CD
:1003000005D109D1EED1F3D1F8D102D20CD285D2E8
:1003100016D21ED226D230D23AD244D253D25DD295
:1003200085D267D271D27BD283D590D5ACD5B9D5E1
:10033000D3D5E0D5FAD5FCD5FED500D608D6084AE7
:10034000D73B3BCE016E84BCBFFDC12F3D6C7431E9
:100350009ABD56833DDA3D00C77F11BED9E4BB4C40
:100360003E916BAAAABE000000803F05A84CCDB20A
:10037000D44EB93836A9020C50B9918688083CA6EB
:10038000AAAA2ABE000000803F000D94DB850D94D0
:10039000848C0D94984B0D94DC850D9490914E4176
:1003A0004E494E495459494E46CDCCCC3D0AD723EF
:1003B0003C17B7D13877CC2B329595E6241FB14F37
:1003C0000A000020410000C84200401C4620BCBE7C
:1003D0004CCA1B0E5AAEC59D746364696E6F707310
:1003E0007578585B003B20202075736552616674F8
:1003F0002C2564004D3630352053256400473334B6
:1004000000494E464F3A204245442043414C494220
:10041000202D200053757266696E6720300A0047F0
:1004200032382058302059300054300054310054B4
:10043000300054300053757266696E6720300A00D0
:1004400047343300473433004734310047343000F9
:1004500047333400473433004734330047343100E6
:10046000473430004D3834004D3834004D383400B6
:100470005A32204F66667365743A20004F4B2073E2
:1004800065636F6E64204578747275646572210AC5
:10049000005A20706F736974696F6E3A20005A2099
:1004A000706F736974696F6E3A20004D3834005A6A
:1004B000312050726F6265206F66667365743A20F2
:1004C000004F4B20666972737420457874727564AE
:1004D000657221200A005A20706F736974696F6E0B
:1004E0003A20005A20706F736974696F6E3A200069
:1004F00043616C63756C75733A20200043616C63D3
:10050000756C75733A20200043616C63756C75736C
:100510003A20200043616C63756C75733A202000AB
:1005200036302064656772656573200A00543000B8
:1005300054300054300043616C6962726174696FB9
:100540006E205375636365737366756C0A0054306F
:10055000004A756D70206F766572207363726577DF
:100560003120616E6420736372657732200A004A1D
:10057000756D70206F7665722073637265773120B8
:100580000A004733340047333400473334005430D3
:100590000047333400494E464F3A204245442043F9
:1005A000414C4942202D20004C6F6164696E670AFE
:1005B0000053757266696E6720300A005375726663
:1005C000696E6720300A0053757266696E67203065
:1005D0000A0050757267652046696C616D656E74BE
:1005E0000A0053757266696E6720300A005375728F
:1005F00066696E6720300A00543000466F756E647D
:100600000A0053757266696E6720300A004D3334F4
:100610000053757266696E6720300A004D323400EF
:100620004D3233202573004D3234004D32332025B6
:100630007300546865206669727374206C61796513
:1006400072207072696E74656420776974682074B2
:10065000686520257320486F74656E640A77696C3D
:100660006C20626520646973746F727465642062C3
:10067000792025642E253164253164206D6D005369
:10068000757266696E6720300A0053757266696E0E
:100690006720300A0053757266696E6720300A0061
:1006A000535543434553530A004C6F6164696E6769
:1006B0003A0A0050757267652046696C616D656E17
:1006C00074200A0045787472756465722072656CD6
:1006D0006561736564206163746976653A20005AC8
:1006E000205349474D4120486F6D65640A004578A5
:1006F000747275646572206163746976653A20006E
:100700005374617274696E67205A2043616C696228
:10071000726174696F6E2057697A6172640A006F42
:100720006B00457874727564657220486561746504
:10073000640A0020573A0042656420486561746588
:10074000640A0020573A007A5F6D696E3A2000799A
:100750005F6D61783A2000785F6D61783A200078AB
:100760005F6D696E3A20005A204F6666736574208B
:100770006F6B0A005A204F6666736574203A200A30
:10078000007A5F6D61783A20007A5F6D696E3A2079
:10079000005A204F666673657400486F74656E6416
:1007A000206F6666736574733A0054696D652069DD
:1007B0006E6163746976650A0050757267652064BE
:1007C000697374616E63650A00504F534954494F11
:1007D0004E20484F4D453A2000220A00556E6B6E60
:1007E0006F776E20636F6D6D616E643A20220052E8
:1007F0006561647920746F2053746172740A0067B4
:10080000636F646520666F756E640A0020746F20E4
:10081000537461727420446973706C6179206672DC
:100820006F6D20526573657400546F6F6B200064A8
:100830006973706C6179206F6E6C696E6521002E32
:1008400000466F726D2032210A0052656164792082
:10085000746F204C6F61642F556E6C6F6164200A59
:10086000005072696E74204A6F622046696E697327
:10087000686564004D383420582059205A204500BE
:100880004D3130370054300053757266696E672001
:1008900030200A0043616C6962726174696F6E2076
:1008A0005375636365737366756C0A005430004D4D
:1008B000383420582059205A204500202D20496ED8
:1008C00076616C6964206578747275646572206EF7
:1008D000756D62657220210A004572726F723A006E
:1008E000646973706C6179206F66666C696E65000F
:1008F00042434E3344205369676D610A007374614B
:1009000072740A006563686F3A0030312D312E33FE
:100910002E3052430A006572726F722077726974CA
:10092000696E6720746F2066696C650A00205A3A08
:100930000020593A0020583A00656E6473746F7055
:1009400073206869743A20006563686F3A005468E0
:10095000657265206973206E6F742066696C616DC5
:10096000656E74206F6E20746865207269676874A4
:100970002065787472756465720A005468657265E2
:10098000206973206E6F742066696C616D656E748A
:10099000206F6E20746865206C65667420657874BD
:1009A00072756465720A00446F6E652073617669C2
:1009B0006E672066696C652E0A006F6B0A004D3207
:1009C00039007C3C3E5E2B3D3F2F5B5D3B2C2A2259
:1009D0005C00526561647920746F204C6F61642FF4
:1009E000556E6C6F6164200A002053544F502050A4
:1009F00052494E54200A004732382058302059308E
:100A0000004D33350047373000524553554D452092
:100A10005052494E54204A4F420A00506175736546
:100A2000207061726B696E670A0047363900504169
:100A3000555345205052494E54204A4F420A0057C0
:100A400041524E494E47283838293A2054656D7036
:100A500065726174757265206E6F74207265616372
:100A6000686564206279204865617465725F4944F5
:100A70003A202564004572726F722057726974655E
:100A800020454550524F4D0053657474696E67732D
:100A90002053746F7265640A00204D696E75746529
:100AA00073203A0020204C617374207072696E7458
:100AB0002074696D652D3E20486F757273203A0071
:100AC0004C617374207072696E7420647572617405
:100AD000696F6E0A002C20546869726420494420B2
:100AE0006E756D62657220002C205365636F6E64B5
:100AF000204944206E756D6265723A2000202046C0
:100B000069727374204944206E756D6265723A2073
:100B100000554920496E666F726D6174696F6E2071
:100B200053657269616C204E756D6265723A0A0098
:100B3000206D2C204531207072696E7420646973B9
:100B400074616E63653A2000206B6D2C2045302067
:100B50007072696E742064697374616E63653A20A3
:100B600000206B6D2C2059207072696E74206469AE
:100B70007374616E63653A2000206B6D2C205831D0
:100B8000207072696E742064697374616E63653A73
:100B9000200020432C0A205830207072696E742087
:100BA00064697374616E63653A200020432C206D84
:100BB00061782074656D7020423A200020432C201B
:100BC0006D61782074656D7020523A20002C206D84
:100BD00061782074656D70204C3A2000682C20707C
:100BE00072696E74732066696E69736865643A2011
:100BF000002C207072696E74696E672074696D656F
:100C00003A200020207072696E74733A20005354A9
:100C10004154533A0A0020432C20525F5052494E0F
:100C2000543A200020432C20525F4245443A200091
:100C300020432C20525F52454D4F56453A2000200C
:100C400020525F494E534552543A200054656D700E
:100C5000202843293A0A0020432C204C5F50524957
:100C60004E543A200020432C204C5F4245443A2009
:100C70000020432C204C5F52454D4F56453A2000F2
:100C800020204C5F494E534552543A200054656D24
:100C900070202843293A0A00205628566572736945
:100CA0006F6E2920002052284265642072696768AF
:100CB0007420736372657729200020204D3533310D
:100CC000204C28426564206C6566742073637265ED
:100CD00077292000426564204F666673657473202F
:100CE000286D6D293A0A002050285A2070726F62D0
:100CF000652900205A20002059200020204D35333E
:100D000030205820004F66667365747320286D6D1F
:100D1000293A0A00204400204900202D204D33307C
:100D200031205249474854205000204400204900B7
:100D300020204D333031204C45465420500050493E
:100D4000442073657474696E67733A0A00205A0010
:100D500020590020204D323036205800486F6D65F4
:100D6000206F666673657420286D6D293A0A00202D
:100D70004500205A00205800204200205400202026
:100D80004D323035205300416476616E63656420D6
:100D90007661726961626C65733A20533D4D696E8C
:100DA00020666565647261746520286D6D2F7329F6
:100DB0002C20543D4D696E2074726176656C2066FE
:100DC0006565647261746520286D6D2F73292C2010
:100DD000423D6D696E696D756D207365676D656EF9
:100DE000742074696D6520286D73292C20583D6D21
:100DF0006178696D756D205859206A65726B20287D
:100E00006D6D2F73292C20205A3D6D6178696D75A9
:100E10006D205A206A65726B20286D6D2F73292C06
:100E20002020453D6D6178696D756D2045206A65AE
:100E3000726B20286D6D2F73290A0020540020202A
:100E40004D323034205300416363656C65726174C8
:100E5000696F6E3A20533D616363656C65726174BE
:100E6000696F6E2C20543D726574726163742061E9
:100E70006363656C65726174696F6E0A002045007A
:100E8000205A0020590020204D3230312058004D8A
:100E90006178696D756D20416363656C657261741D
:100EA000696F6E20286D6D2F7332293A0A00204534
:100EB00000205A0020590020204D323033205800A5
:100EC0004D6178696D756D206665656472617465E4
:100ED0007320286D6D2F73293A0A00204500205A8F
:100EE0000020590020204D3932205800537465707D
:100EF000732070657220756E69743A0A000A0020CA
:100F0000616E7469686F726172690A3A20002068C4
:100F10006F726172690A20002F3800766F6C7465F9
:100F200073200020566F6C74657320636172676F65
:100F30006C20333A200020616E7469686F726172B0
:100F4000690A3A200020686F726172690A20002FD6
:100F50003800766F6C746573200020566F6C746572
:100F60007320636172676F6C20323A20000A0020A0
:100F7000647A333A200020647A323A2000543100F7
:100F80005430005430005430000A005675697465BE
:100F90006E73333A2020004170726F78333A20200C
:100FA00000566F6C746573333A2020000A00567542
:100FB0006974656E73323A2020004170726F783226
:100FC0003A202000566F6C746573323A2020005628
:100FD000616C6F7220645A333A20200056616C6F46
:100FE0007220645A323A2020004E6577206F666680
:100FF0007365742076657273696F6E3A20007A3378
:101000005F313A20007A325F313A20005A736372BE
:101010006F6C6C5F313A20007A335F303A20007A8F
:10102000325F303A20005A7363726F6C6C5F303AF3
:101030002000706C616E654E6F726D616C5F312E59
:101040007A3A2000706C616E654E6F726D616C5FF4
:10105000312E793A2000706C616E654E6F726D6151
:101060006C5F312E783A2000706C616E654E6F7245
:101070006D616C5F302E7A3A2000706C616E654E47
:101080006F726D616C5F302E793A2000706C616E0A
:10109000654E6F726D616C5F302E783A20005A7623
:1010A000616C756520616674657220686F6D653A64
:1010B00000486F6D6520582F59206265666F726514
:1010C000205A0A0024F4D43050C38E20C2A2401704
:1010D000828B7011127A910D816CD90AA861E10896
:1010E000C7586607615143061E4B5D05C145A704FD
:1010F0001A411104093D9803713931034036DB026E
:1011000065339102D4305402802E1D02632CEE010F
:10111000752AC501B028A001102781018F2564011F
:101120002B244B01E0223401AC211F018D200D0145
:10113000801FFC00841EED00971DDF00B81CD2004C
:10114000E61BC600201BBC00641AB200B219A8003E
:101150000A19A0006A189900D117910040178B0056
:10116000B516840031167E00B31579003A15730068
:10117000C7146F0058146A00EE13660088136300EA
:1011800025135E00C7125B006C1257001512540045
:10119000C111510070114F0021114B00D6104900B0
:1011A0008D1047004610440002104200C00F40005E
:1011B000800F3E00420F3C00060F3B00CB0E380074
:1011C000930E37005C0E3500270E3400F30D32000D
:1011D000C10D3100900D3000600D2E00320D2D003C
:1011E000050D2C00D90C2B00AE0C2900850C290014
:1011F0005C0C2700350C27000E0C2600E80B2400A1
:10120000C40B2400A00B23007D0B23005A0B2100EC
:10121000390B2100180B2000F80A1F00D90A1E0004
:10122000BB0A1E009D0A1D00800A1D00630A1C00E7
:10123000470A1B002C0A1B00110A1A00F7091A00A2
:10124000DD091900C4091900AB091900920917003A
:101250007B091800630917004C09160036091600AF
:10126000200916000A091500F5081500E008140009
:10127000CC081400B8081400A40814009008130047
:101280007D0812006B08130058081200460812006F
:101290003408110023081100120811000108110080
:1012A000F0071000E0071000D0071000C007100082
:1012B000B0070F00A107100091070E0083070F0071
:1012C00074070F0065070E0057070E0049070E0050
:1012D0003B070D002E070E0020070D0013070D0021
:1012E00006070D00F9060C00ED060D00E0060C00E7
:1012F000D4060C00C8060C00BC060C00B0060C009E
:10130000A4060B0099060C008D060B0082060B004C
:1013100077060B006C060B0061060A0057060B00EF
:101320004C060A0042060A0038060A002E060A0089
:1013300024060A001A060A001006090007060A0019
:10134000FD050900F4050900EB050900E2050900A7
:10135000D9050900D0050900C7050900BE05090027
:10136000B5050800AD050800A50509009C050800A5
:10137000940508008C050800840508007C05080019
:10138000740508006C050700650508005D05070089
:10139000560508004E0507004705070040050800F0
:1013A00038050700310507002A0507002305070057
:1013B0001C050600160507000F05070008050600B6
:1013C00002050700FB040600F5040700EE04060012
:1013D000E8040600E2040700DB040600D50406006A
:1013E000CF040600C9040600C3040600BD040600BD
:1013F000B7040600B1040500AC040600A60406000C
:10140000A00405009B040600950405009004060056
:101410008A04050085040500800406007A0405009E
:1014200075040500700405006B04050066040500E2
:10143000610405005C040500570405005204050022
:101440004D04050048040500430405003E04040063
:101450003A04050035040500300404002C0405009E
:1014600027040400230405001E0404001A040400D9
:1014700016040500110404000D040400090405000D
:101480000404040000040400FC030400F803040046
:10149000F4030400F0030400EC030400E803040078
:1014A000E4030400E0030400DC030400D8030400A8
:1014B000D4030400D0030400CC030400C8030300D9
:1014C000C503030024F404D9201BC40C5C0E98044B
:1014D000C4095F0265077101F405F900FB04B3005C
:1014E00048048700C1036900580355000303450001
:1014F000BE023A008402310053022A00290225006C
:1015000004022000E4011C00C8011900AF0117000B
:101510009801140084011300710110006101100092
:1015200051010E0043010D0036010B002B010B0091
:1015300020010B00150109000C010900030108003E
:10154000FB000800F3000800EB000700E4000600C1
:10155000DE000600D8000600D2000600CC00050020
:10156000C7000500C2000500BD000400B90004006A
:10157000B5000400B1000400AD000400A90004009F
:10158000A5000300A20003009F0004009B000300CD
:1015900098000300950002009300030090000300F0
:1015A0008D0002008B00030088000200860002000C
:1015B00084000300810002007F0002007D00020021
:1015C0007B00020079000200770001007600020033
:1015D0007400020072000100710002006F0002003E
:1015E0006D0001006C0002006A0001006900020049
:1015F0006700010066000100650001006400020050
:101600006200010061000100600001005F00020053
:101610005D0001005C0001005B0001005A00010058
:101620005900010058000100570001005600010058
:101630005500010054000100530000005300010058
:101640005200010051000100500001004F00010054
:101650004E0000004E0001004D0001004C00010052
:101660004B0000004B0001004A000100490001004E
:10167000480000004800010047000100460000004B
:101680004600010045000000450001004400010043
:10169000430000004300010042000000420001003E
:1016A0004100000041000100400001003F00000037
:1016B0003F0001003E0000003E0001003D00000030
:1016C0003D0001003C0000003C0000003C00010027
:1016D0003B0000003B0001003A0000003A0001001E
:1016E0003900000039000100380000003800000017
:1016F000380001003700000037000100360000000C
:101700003600000036000100350000003500000002
:1017100035000100340000003400000034000100F6
:1017200033000000330000003300010032000000ED
:1017300032000000320001003100000031000000E2
:1017400031000100300000003000000030000100D6
:101750002F0000002F0000002F0000002F000100CC
:101760002E0000002E0000002E0001002D000000C1
:101770002D0000002D0000002D0001002C000000B5
:101780002C0000002C0000002C0001002B000000A9
:101790002B0000002B0000002B0001002A0000009D
:1017A0002A0000002A0000002A0001002900000091
:1017B0002900000029000000290000002900010084
:1017C0002800000028000000280000002800000079
:1017D000280001002700000027000000270000006B
:1017E000270000002700010026000000260000005E
:1017F0002600000026000000260001002500000051
:101800002500000025000000250000002500000044
:101810002500010024000000240000002400000036
:101820002400000024000100230000002300000029
:10183000230000002300000023000000230000001C
:10184000230001002200000022000000220000000E
:101850002200000022000000220001002100000000
:1018600021000000210000002100000021000000F4
:1018700021000000210001002000000020000000E5
:1018800020000000200000002000000020000000D8
:1018900020000000200001001F0000001F000000C9
:1018A0001F0000001F0000001F0000001F000000BC
:1018B0001F0001001E0000001E0000001E000000AE
:1018C0001E0000005072696E7465722068616C744D
:1018D00065642E206B696C6C28292063616C6C65D3
:1018E00064210A004572726F723A0045787472750D
:1018F0006465722072656C656173656420616374F0
:101900006976653A20005A205349474D4120486F77
:101910006D65640A00457874727564657220616350
:10192000746976653A20000000000000809343004F
:101930000000000000A0400000A040000000402087
:10194000004D6F766520746F3A2000CDCC9843002F
:1019500080934300005243FF01FF70012C0190016E
:101960002701B0012201C0011D01F0011801100280
:10197000130130020E016002090190020401C0024D
:10198000FF000003FA004003F5008003F000D003DD
:10199000EB002004E6007004E100E004DC004005F8
:1019A000D700C005D2004006CD00D006C800800791
:1019B000C3003008BE00F008B900C009B400B00A86
:1019C000AF00B00BAA00D00CA500000EA000500F75
:1019D0009B00C01096005012910000148C00C0159E
:1019E0008700B0178200B0197D00D01B7800001E60
:1019F000730040206E0090226900F02464004027AC
:101A00005F0090295A00E02B5500102E5000203026
:101A10004B0010324600E033410090353C00103757
:101A2000370070383200A0392D00B03A2800A03BB2
:101A30002300603C1E00103D1900903D1400103E34
:101A40000F00703E0A00C03E0500003F00004879CC
:101A500073746572657369732074656D7065726106
:101A6000747572650A00546865726D616C207275D8
:101A70006E617761792070726F74656374696F6EDF
:101A8000206279204865617465725F49443A0A00B2
:101A90004572726F72283833293A20426564207487
:101AA0006865726D6973746F72206E6F74206465FF
:101AB0007465637465640A004572726F7228383207
:101AC000293A20526967687420746865726D697379
:101AD000746F72206E6F74206465746563746564DE
:101AE0000A004572726F72283831293A204C6566B7
:101AF0007420746865726D6973746F72206E6F7490
:101B0000202064657465637465640A002053544F33
:101B100050205052494E54200A004572726F72286C
:101B20003833293A2042656420746865726D6973A0
:101B3000746F72206E6F742064657465637465647D
:101B40000A002053544F50205052494E54200A004E
:101B50004572726F72283832293A20526967687468
:101B600020746865726D6973746F72206E6F742073
:101B700064657465637465640A002053544F502093
:101B80005052494E54200A004572726F7228383103
:101B9000293A204C65667420746865726D697374A7
:101BA0006F72206E6F742020646574656374656461
:101BB0000A0000002100240027002A002D00300028
:101BC000330001010000040107010A0100002200A6
:101BD000250028002B002E003100340002010000F7
:101BE000050108010B010000200023002600290048
:101BF0002C002F0032000001000003010601090142
:101C000005050505070508080808020202020A0A78
:101C10000808040404040101010101010101030396
:101C2000030303030303040707070C0C0C0C0C0C41
:101C30000C0C0202020206060606060606060B0B3E
:101C40000B0B0B0B0B0B010210202008081020407F
:101C50001020408002010201080402010102040870
:101C600010204080804020100804020180040201FE
:101C70008040201008040201080402010102040847
:101C800010204080010204081020408000000A0B50
:101C900002090C0D0E0807030401000000000000FB
:101CA0000000000000000000000000000000000034
:101CB00000000000000000001211100000000000F1
:101CC0000000000000000000000000000000000014
:101CD00000000A00207A3A200020793A200020787B
:101CE0003A2000426564004D3834005374617274C8
:101CF000696E6720582043616C6962726174696F14
:101D00006E2057697A6172640A004D38340053744A
:101D1000617274696E6720592043616C69627261F7
:101D200074696F6E2057697A6172640A0053415674
:101D30004544205052494E540A007A70726F6265D1
:101D40003A200053442063617264206F6B0A006F75
:101D500070656E526F6F74206661696C65640A000D
:101D6000766F6C756D652E696E6974206661696C3D
:101D700065640A004572726F723A00534420696EBE
:101D80006974206661696C0A006563686F3A004D8A
:101D90003234004D3233202573006175746F25692C
:101DA0002E67002E2E2E2054696D656F75742100EC
:101DB0002A2A2A2047656E69652057726974654F23
:101DC000626A656374202A2A2A202D2D2D3E002E5A
:101DD0002E2E204E414B2021002A2A2A2047656EB4
:101DE00069652057726974654F626A656374202A59
:101DF0002A2A202D2D2D3E002E2E2E2041434B2011
:101E000021002A2A2A2047656E6965205772697465
:101E1000654F626A656374202A2A2A202D2D2D3E83
:101E2000002A2A2A2047656E6965204261642042A3
:101E3000797465202A2A2A202D2D2D3E2030780005
:101E40002056616C75653A200020496E6465783AC9
:101E500020002A2A2A2047656E6965205265706F26
:101E60007274204F626A656374202A2A2A204F62A6
:101E70006A6563743A20002A2A2A2047656E6965DC
:101E800020436F6E6E6563746564202F2053796EF6
:101E90006321202A2A2A002056616C75653A2000A9
:101EA00020496E6465783A20002A2A2A2047656E08
:101EB0006965205265706F7274204576656E742076
:101EC0002A2A2A204F626A6563743A2000204C65F2
:101ED0006E6774683A20002A2A2A2047656E696571
:101EE000205265636569766564204D61676963208A
:101EF000446F75626C65204279746573202A2A2AC2
:101F000020496E6465783A2000204C656E677468DD
:101F10003A20002A2A2A2047656E696520526563A7
:101F20006569766564204D616769632042797465EF
:101F300073202A2A2A20496E6465783A20002A2ACA
:101F40002A2047656E6965204E414B205265636FBC
:101F50007665727920212121202A2A2A002A2A2A1C
:101F60002047656E696520446973636F6E6E6563B3
:101F70007465642066726F6D20446F4576656E747B
:101F80007321202A2A2A002A2A2A2047656E696599
:101F900020546F6F6B20746F6F206C6F6E672074AE
:101FA0006F2072652D656E74657220446F4576658D
:101FB0006E747328292C20726564756365206465CE
:101FC0006C61797320696E20636F64652C20736582
:101FD0006C662D70726F74656374696F6E20656EC8
:101FE00061626C65642E202A2A2A005049442041EF
:101FF00075746F74756E652066696E697368656463
:10200000210A00504944204175746F74756E652033
:102010006661696C6564212074696D656F75740A09
:102020000020403A006F6B20543A006F6B20423A18
:1020300000504944204175746F74756E6520666167
:10204000696C6564212054656D7065726174757288
:102050006520746F6F20686967680A00204B643AD6
:102060002000204B693A2000204B703A200020438A
:102070006C617373696320504944200A00205475D1
:102080003A2000204B753A2000206D61783A2000FC
:10209000206D696E3A200020643A20002062696158
:1020A000733A20003B20472D436F64652067656EBF
:1020B0006572617465642062792053696D706C6922
:1020C000667933442852292056657273696F6E20F1
:1020D0002564003B5072696E742074696D653A2006
:1020E0002564202573202564202573202564202560
:1020F00073003B54494D453A256C64003B20202039
:102100004275696C642074696D653A2025642025E8
:1021100073202564202573003B202020506C6173C0
:10212000746963207765696768743A2025642E2591
:102130006467003B46696C616D656E7420757365FC
:10214000643A2025642E25646D2025642E2564675D
:10215000003B46696C616D656E7420757365643A09
:1021600020256C642E256C646D004475616C204DD7
:102170006972726F72204D6F6465204F4E0A004481
:1021800075616C204D6F6465204F46460A00436FB1
:102190006F6C696E6720446F776E20486561746567
:1021A000720A0020636F6C642065787472757369BD
:1021B0006F6E2070726576656E7465640A00656383
:1021C000686F3A004732382058302059300025696E
:1021D000206D696E2C20256920736563000A0A0052
:1021E0005374616E646172642044657669617469D8
:1021F0006F6E3A20000A004D65616E3A20000A00B9
:102200002020207A3A20000A00793A2000783A20EB
:10221000003F537065636966696564206E756D6221
:102220006572206F66206C65677320696E206D6F24
:1022300076656D656E74206E6F7420706C61757359
:1022400061626C652E0A003F53706563696669655B
:1022500064205920706F736974696F6E206F757494
:10226000206F662072616E67652E0A003F537065AD
:10227000636966696564205820706F736974696F5B
:102280006E206F7574206F662072616E67652E0A0E
:10229000003F5370656369666965642073616D70A2
:1022A0006C652073697A65206E6F7420706C61753F
:1022B0007361626C652E0A0046756C6C20737570D4
:1022C000706F72742061743A20687474703A2F2FA2
:1022D00033647072696E74626F6172642E636F6DC5
:1022E0002F666F72756D2E7068700A004D3438203D
:1022F0005A2D50726F62652052657065617461621B
:10230000696C69747920746573742E202020566579
:102310007273696F6E20322E30300A003F5665723C
:10232000626F7365204C6576656C206E6F742070EB
:102330006C61757361626C652E0A00204500205A3D
:1023400000205900483D58004649524D57415245DA
:102350005F4E414D453A4D61726C696E2042434E6D
:102360003344205369676D613B204649524D5741C4
:1023700052455F56455253494F4E3A30312D312E1A
:10238000332E3052433B204649524D574152455F10
:1023900055524C3A68747470733A2F2F6769746899
:1023A00075622E636F6D2F42434E33442F42434E6E
:1023B00033445369676D612D4669726D776172654B
:1023C0003B2050524F544F434F4C5F564552534958
:1023D0004F4E3A312E303B204D414348494E455FE8
:1023E000545950453A42434E3344205369676D6116
:1023F0003B2045585452554445525F434F554E5427
:102400003A323B20555549443A00205A3A00205967
:102410003A0020436F756E7420583A200020453AE8
:1024200000205A3A0020593A00583A00456E64207C
:1024300066696C65206C6973740A00426567696E31
:102440002066696C65206C6973740A00436172646C
:10245000204E616D653A20002F0053442070726950
:102460006E74696E67206279746520004E6F742007
:102470005344207072696E74696E670A002E0A00F8
:1024800044656C6574696F6E206661696C65642C67
:102490002046696C653A200046696C652064656C6D
:1024A000657465643A002E0A006F70656E2066617F
:1024B000696C65642C2046696C653A20002A2A2ADA
:1024C0002047656E696520446973636F6E6E65634E
:1024D0007465642066726F6D204765744E6578740C
:1024E0004279746521202A2A2A002A2A2A2047654F
:1024F0006E696520456E61626C652041747461632C
:10250000684576656E7448616E646C657220212141
:1025100021202A2A2A0043616E6E6F7420656E7432
:102520006572207375626469723A2000577269742B
:10253000696E6720746F2066696C653A20002E0A08
:10254000006F70656E206661696C65642C20466959
:102550006C653A20002E0A006F70656E2066616916
:102560006C65642C2046696C653A200046696C6590
:102570002073656C65637465640A002053697A652D
:102580003A200046696C65206F70656E65643A207C
:10259000002E0A006F70656E206661696C65642CA0
:1025A0002046696C653A20004E6F7720667265732D
:1025B000682066696C653A20004E6F7720646F6909
:1025C0006E672066696C653A20002220706F730088
:1025D0002220706172656E743A2200535542524F48
:1025E0005554494E452043414C4C207461726765F7
:1025F000743A2200747279696E6720746F20636187
:102600006C6C207375622D67636F64652066696CFE
:102610006573207769746820746F6F206D616E79BF
:10262000206C6576656C732E204D4158206C657664
:10263000656C2069733A00496E7374616C6C202577
:1026400064202573206F6E207468652025732068D0
:102650006F74656E640050757267652046696C61C1
:102660006D656E740A0053757266696E6720310A73
:102670000053757266696E6720300A00220A006591
:102680006E717565696E67202200220A00656E71A1
:102690007565696E67202200202F002040002040D1
:1026A0003A00496E7374616C6C2025642025732098
:1026B0006F6E2074686520257320686F74656E6482
:1026C0000043616C63756C75733A20200043616C44
:1026D00063756C75733A20200043616C63756C758B
:1026E000733A2020005354415449535449435320D2
:1026F00052455345540A002C2073617665645F4649
:102700006C61675F66616E6C617965725F6D69723D
:10271000726F723A20002C2073617665645F666583
:102720006564726174653A20002C2073617665647B
:102730005F66616E6C617965723A20002C2073616E
:102740007665645F74656D706265643A20002C2064
:1027500073617665645F74656D70303A20002C207B
:1027600073617665645F74656D70313A20002C206A
:1027700073617665645F66696C65706F73697469AF
:102780006F6E3A20002C2073617665645F655F7020
:102790006F736974696F6E3A20002C2073617665DF
:1027A000645F746F6F6C5F6163746976653A200073
:1027B0002C2073617665645F7A5F706F73697469EA
:1027C0006F6E3A20002C2073617665645F795F70CC
:1027D0006F736974696F6E3A20002C20736176659F
:1027E000645F785F706F736974696F6E3A2000532D
:1027F000415645205052494E54204C4F473A0A000A
:102800006563686F3A005072696E74207265636F19
:10281000766572792075700A004E6F742070726947
:102820006E74207265636F766572792075700A0028
:10283000535543434553530A0056616C75657320E5
:102840006F7574206F662072616E67650A0056614D
:102850006C756573206F7574206F662072616E678A
:10286000650A0056616C756573206F7574206F661C
:102870002072616E67650A0056616C756573206F22
:102880007574206F662072616E67650A0053554348
:10289000434553530A0056616C756573206F757418
:1028A000206F662072616E67650A0056616C7565FF
:1028B00073206F7574206F662072616E67650A0001
:1028C00056616C756573206F7574206F6620726138
:1028D0006E67650A0056616C756573206F757420AC
:1028E0006F662072616E67650A0020502000205AD2
:1028F000200020592000536574204D353330205876
:1029000020004D6F64652032203A206379636C6546
:102910002020202D3E205247423A203620737461F9
:10292000746573002A2A2D3E20004D6F64652031A6
:10293000203A2072616E646F6D20202D3E20524738
:10294000423A202B31202B32202B332C20647572FD
:10295000696E67207072696E74696E67002A2A2D2D
:102960003E20004D6F64652030203A20646566612A
:10297000756C74202D3E205247423A203235352066
:1029800032353520323535002A2A2D3E20004C655F
:1029900064206D6F646573203A004D353336204CEA
:1029A0005B6D6F64655D00504F534954494F4E2035
:1029B000484F4D453A2000486F74656E64206F663D
:1029C00066736574733A00504944204175746F749E
:1029D000756E652066696E6973686564212050753F
:1029E0007420746865206C617374204B702C204BCC
:1029F0006920616E64204B6420636F6E7374616E36
:102A000074732066726F6D2061626F766520696EE7
:102A1000746F20436F6E66696775726174696F6E5B
:102A20002E680A00504944204175746F74756E65B4
:102A3000206661696C6564212074696D656F7574C9
:102A40000A0020403A006F6B20543A006F6B20421E
:102A50003A00504944204175746F74756E65206664
:102A600061696C6564212054656D7065726174756F
:102A7000726520746F6F20686967680A00204B6474
:102A80003A2000204B693A2000204B703A20002069
:102A9000436C617373696320504944200A002054D9
:102AA000753A2000204B753A2000206D61783A205D
:102AB00000206D696E3A200020643A20002062698F
:102AC00061733A20004D31303700473932204530AC
:102AD000205A3020522564004E6577206C6179655C
:102AE000722064657465637465640A003B206C61E0
:102AF000796572003B4C4159455200256920686F49
:102B0000757273202569206D696E75746573004454
:102B10006F6E65207072696E74696E672066696C8D
:102B2000650A004D3333005072696E74657220730C
:102B3000746F707065642064756520746F206572B1
:102B4000726F72732E2046697820746865206572F2
:102B5000726F7220616E6420757365204D3939394A
:102B600020746F20726573746172742E202854650E
:102B70006D7065726174757265206973207265731A
:102B800065742E20536574206974206166746572C3
:102B90002072657374617274696E67290A006F6BC5
:102BA0000A004E6F204C696E65204E756D6265722D
:102BB000207769746820636865636B73756D2C207A
:102BC0004C617374204C696E653A20004E6F20434F
:102BD0006865636B73756D2077697468206C696EC6
:102BE00065206E756D6265722C204C617374204C8B
:102BF000696E653A2000636865636B73756D206D5F
:102C000069736D617463682C204C617374204C6926
:102C10006E653A20004C696E65204E756D62657276
:102C2000206973206E6F74204C617374204C696E40
:102C300065204E756D6265722B312C204C6173746A
:102C4000204C696E653A20004D31313000CDCC9872
:102C50004300809343000052430000000000000046
:102C6000000000000053746F726564207365747413
:102C7000696E6773207265747269657665640A00AF
:102C800048617264636F6465642044656661756C55
:102C9000742053657474696E6773204C6F6164654A
:102CA000640A0048617264636F6465642043616C08
:102CB000696220616E6420504944204465666175F4
:102CC0006C742053657474696E6773204C6F616413
:102CD00065640A00526573656E643A20006F6B0A82
:102CE000004475616C204D6F6465204F4E0A0025CD
:102CF00073206578747275646572004736392041B7
:102D000043544956415445440A000A00205A3A2087
:102D10000020593A200020583A2000426564000003
:102D2000CD01C70111241FBECFEFD1E2DEBFCDBF61
:102D300000E00CBF17E0A0E0B2E0E8E7F6E503E052
:102D40000BBF02C007900D92A637B107D9F72DE14E
:102D5000A6E7B7E001C01D92A735B207E1F716E17B
:102D6000C1E9D6E100E006C021970109802FFE01EC
:102D70000F949FA8C039D10780E00807A9F70F94E6
:102D8000EA850D942BAB0C9400002F923F924F924A
:102D90005F926F927F928F929F92AF92BF92CF92EB
:102DA000DF92EF92FF920F931F93CF93DF93CDB7F4
:102DB000DEB7CF51D1400FB6F894DEBF0FBECDBF06
:102DC0002DB73EB7C25EDE4F39832883CE51D14046
:102DD00011E010931D088091AC0781110CC00E9476
:102DE000C6D26093A8077093A9078093AA0790930F
:102DF000AB071093AC078091A00781110DC00E9412
:102E0000C6D260939C0770939D0780939E07909312
:102E10009F0781E08093A0078091AE174091E80260
:102E20005091E9026091EA027091EB02811106C0B3
:102E30009091AF17992311F40C94BF244339510595
:102E40006105710509F492C70CF0F0C044345105D6
:102E50006105710511F40C9424200CF067C0413217
:102E600051056105710511F40C94B3226CF54131E3
:102E700051056105710511F40C942322A4F442302C
:102E800051056105710509F48FC440315105610593
:102E9000710509F4A1C1413051056105710511F0B9
:102EA0000C94E154EEC1433151056105710509F4FB
:102EB00086C30CF4B2C3403251056105710511F4AB
:102EC0000C94C4220C94E1544533510561057105FD
:102ED00011F40C944E23ACF4423351056105710595
:102EE00009F462C4443351056105710511F40C9471
:102EF0007321413351056105710511F00C94E154C2
:102F000040C34D3351056105710509F4F1C24134E7
:102F100051056105710509F47AC54A33510561050A
:102F2000710511F00C94E1540C94AB1F4B37510513
:102F30006105710509F45EC47CF5473551056105ED
:102F4000710509F44CC3A4F44E34510561057105B3
:102F500009F42BC64F3451056105710509F490C67B
:102F6000463451056105710511F00C94E154B6C564
:102F70004A3551056105710509F43CC446375105D0
:102F80006105710509F458C348355105610571059E
:102F900011F00C94E154D6C24E385105610571050B
:102FA00009F4A4C66CF5483851056105710509F4AA
:102FB00022C1493851056105710509F437C14C3703
:102FC00051056105710511F00C94E15440E050E0A9
:102FD0006AE28AE00E9414F940E050E06DE781E285
:102FE0000E9414F911E01093231C10925B1066EB01
:102FF00077E086E20E941CFA1093B5070C94E15426
:10300000403951056105710509F4C6C60CF499C62D
:10301000413951056105710509F460C64239510510
:103020006105710509F477C60C94E154473A5105DE
:103030006105710509F49FC30CF05FC04C3951055F
:103040006105710511F40C94E42224F5473951050A
:103050006105710511F40C9434234CF44539510584
:103060006105710509F4EDC60CF4ABC6D5C64A3945
:1030700051056105710511F40C94D22214F00C94E1
:10308000DB22483951056105710511F40C942323A5
:103090000C94E154423A51056105710509F4A6C04A
:1030A00094F4403A51056105710511F40C944523DF
:1030B0000CF09DC64D3951056105710511F40C9454
:1030C00004230C94E154443A51056105710509F457
:1030D00061C30CF44BC3453A51056105710509F410
:1030E0004FC3463A51056105710511F00C94E15446
:1030F00081E080937C0A0C94E154433E51056105C4
:10310000710509F424C364F54E3B51056105710551
:1031100009F42AC2A4F4493A51056105710509F47C
:1031200034C30CF43CC34A3A51056105710511F0F2
:103130000C94E15481E08093760A0C94E154413E72
:1031400051056105710509F44CC00CF00AC3433DFB
:1031500051056105710511F40C9481240C94E1541E
:103160004A3E51056105710509F455C07CF4453EA0
:1031700051056105710509F4E5C20CF4EDC2463E46
:1031800051056105710591F10C94E1544D3E5105D5
:1031900061057105A9F194F44B3E51056105710576
:1031A00011F00C94E15440E050E06CEE81E20E949A
:1031B00014F981E08093810A0C94E1544E3E51054C
:1031C0006105710509F45DC04F3E5105610571054A
:1031D00009F46CC00C94E15481E08093840A0C944F
:1031E000E15481E08093820A0C94E15481E0809361
:1031F000810A0C94E15481E08093840A0C94E15498
:1032000081E08093830A41E050E069E881E20E9416
:1032100014F90C94E15440E050E06CEE81E20E941D
:1032200014F981E08093810A0C94E15480910E029C
:10323000833411F00C94E15482E480930E0240E058
:1032400050E067E581E20E9414F940E050E066E753
:1032500081E20E9414F940E050E06DEE81E20E94AC
:1032600014F940E050E068E881E20E9414F940E07F
:1032700050E069E881E20E9414F910925B100C940E
:10328000E1541092231C80E00E94FBF081E08093C7
:10329000720A8093691040E050E068E08AE00E9482
:1032A00014F981E480936A100C94E15480914C1DD0
:1032B00090914D1D9093CE108093CD1080914E1D16
:1032C00090914F1D9093D0108093CF1082E4809303
:1032D0000E0282E58093160281E080935B101092CB
:1032E000231C9091C6089A3009F480E08093F11B6A
:1032F000082F10E0000F111FF801E353FF4E20814B
:10330000318130939B0720939A0781111EC08091D1
:10331000941C9091951C60918007709181076817AB
:1033200079072CF4BC01990F880B990B04C0072E68
:10333000000C880B990B0F94B49D03531F4E0F94F0
:10334000D4A5D8016D937C931DC08091981C909159
:10335000991C60917E0770917F07681779072CF49C
:10336000BC01990F880B990B04C0072E000C880B29
:10337000990B0F94B49D03531F4E0F94D4A5F801DD
:103380007183608381E480936A1040E050E068E0DC
:103390008AE00E9414F940E050E06DE781E20E946B
:1033A00014F980E090E0A3E4B3E48093F0109093EC
:1033B000F110A093F210B093F3108090DD1B909069
:1033C000DE1BA090DF1BB090E01B2091EC10309131
:1033D000ED104091EE105091EF106091E810709157
:1033E000E9108091EA109091EB10EBED6E2EE0E188
:1033F0007E2E7F926F92F4EFCF2EF0E1DF2EE12C44
:10340000F12C03E413E40F94B01B0E9434BC80E061
:1034100090E0A0E2B1E48093EC109093ED10A093C3
:10342000EE10B093EF108090D91B9090DA1BA09013
:10343000DB1BB090DC1BE090F010F090F1100091DD
:10344000F2101091F3106091E8107091E9108091E2
:10345000EA109091EB107F926F9220E030E040E212
:1034600051E40F94B01B0E9434BC0F900F900F904A
:103470000F9080916A108E3411F40C94092C1092E4
:103480006A100E94097440E050E06FE189E00E94F8
:1034900014F940E050E068E28AE00E9414F90091DB
:1034A000F11B10E0F801EE0FFF1FEE0FFF1FEF59A9
:1034B000F44E60817181828193810F94D4A57093C1
:1034C000110860931008000F111FF801E353FF4E1D
:1034D0008081918190930F0880930E0888E48093F7
:1034E0006A100E94097481E0809312080C94E154E0
:1034F00080910E0240E050E0813491F469E08AE06E
:103500000E9414F911E01093231C66EB77E082E02F
:103510000E941CFA1093B50710925B100C94E154B2
:103520006AE28AE00E9414F911E01093231C66EB12
:1035300077E086E20E941CFA1093B50710925B10A8
:103540000C94E1548091E90781110C94E15480912D
:10355000AF1781110C94E15440E050E069E38AE038
:103560000E9414F90C94E1548091E90781110C94A4
:10357000E15440E050E061E08AE00E9414F90C94CC
:10358000E1548091E90781110C94E15400910E02FD
:10359000013411F00C94E1541092231C1092AE17D8
:1035A00011E01093AF1740E050E068E08AE00E941D
:1035B00014F900936A101093A81C0C94E1548091A4
:1035C0000E02813411F00C94E15440E050E061E0CF
:1035D0008AE00E9414F91092231C0C94E15480910B
:1035E0000E02823491F3833411F00C94E15440E0E4
:1035F00050E066E18AE00E9414F941E050E06DE796
:1036000081E20E9414F982E58093160281E08093A2
:103610005B101092231C0C94E154882311F40C9439
:10362000E15480910E02813411F00C94E15481E058
:103630008093C5080C94E1548091AF17882311F44E
:103640000C94E15480910E02823429F481E080933D
:10365000730A0C94E154833411F00C94E15411E09A
:103660001093130840E050E068E981E20E9414F9E9
:1036700040E050E067E981E20E9414F940E050E048
:103680006CE981E20E9414F940E050E06DE981E2CA
:103690000E9414F941E050E067E881E20E9414F9C9
:1036A00040E050E06CE28AE00E9414F910935B1055
:1036B0008FEF9FEF9093DD028093DC02E3EBF6E067
:1036C00084918F01882351F0082E000C990B0E94E1
:1036D00076EE0F5F1F4FF8018491F4CF40E050E089
:1036E0006AE981E20E9414F940E050E06BE981E26E
:1036F0000E9414F96091611B7091621B8091631BA1
:103700009091641B0F94D4A5AB0166E289E00E94FE
:1037100014F96091651B7091661B8091671B9091F5
:10372000681B0F94D4A5AB0167E289E00E9414F9ED
:1037300040E050E068E289E00E9414F91092231CF6
:103740000C94E15481E080937A0A0C94E15481E076
:103750008093740A0C94E15481E080937B0A0C946A
:10376000E15481E08093750A0C94E15481E08093E8
:103770007F0A0C94E15481E08093790A0C94E1541F
:1037800081E080937E0A0C94E15481E08093780A72
:103790000C94E15481E080937D0A0C94E15481E023
:1037A0008093770A0C94E15442305105610571050C
:1037B00011F489E406C0423351056105710519F41D
:1037C00082E58093160240E050E06CE481E20E94C2
:1037D00014F940E050E06BE481E20E9414F940E00B
:1037E00050E064E18AE00E9414F98FEF8093F11BAE
:1037F0000C94E1544A3551056105710519F4109294
:10380000F11B03C081E08093F11B8091F11B082F15
:1038100010E0000F111FF801E353FF4E20813181AA
:1038200030939B0720939A0781111EC08091941CAE
:103830009091951C609180077091810768177907B6
:103840002CF4BC01990F880B990B04C0072E000CB7
:10385000880B990B0F94B49D03531F4E0F94D4A55E
:10386000D8016D937C931DC08091981C9091991CF8
:1038700060917E0770917F07681779072CF4BC016F
:10388000990F880B990B04C0072E000C880B990B1D
:103890000F94B49D03531F4E0F94D4A5F801718368
:1038A000608381E480936A1040E050E068E08AE041
:1038B0000E9414F940E050E06DE781E20E9414F9A3
:1038C00080E090E0A3E4B3E48093F0109093F110D3
:1038D000A093F210B093F3108090DD1B9090DE1B4C
:1038E000A090DF1BB090E01B2091EC103091ED1008
:1038F0004091EE105091EF106091E8107091E91036
:103900008091EA109091EB10EBED6E2EE0E17E2EAF
:103910007F926F92F4EFCF2EF0E1DF2EE12CF12CAD
:1039200003E413E40F94B01B0E9434BC80E090E0E9
:10393000A0E2B1E48093EC109093ED10A093EE1010
:10394000B093EF108090D91B9090DA1BA090DB1BF6
:10395000B090DC1BE090F010F090F1100091F210AC
:103960001091F3106091E8107091E9108091EA10C5
:103970009091EB107F926F9220E030E040E251E4B2
:103980000F94B01B0E9434BC0F900F900F900F90BB
:1039900080916A108E3411F40C94092C10926A10E4
:1039A0000E94097440E050E06FE189E00E9414F940
:1039B00040E050E068E28AE00E9414F90091F11BB7
:1039C00010E0F801EE0FFF1FEE0FFF1FEF59F44E4E
:1039D00060817181828193810F94D4A570931108C5
:1039E00060931008000F111FF801E353FF4E808110
:1039F000918190930F0880930E0888E480936A1059
:103A00000E94097481E0809312080C94E154809123
:103A1000F11B813081F587ED90E09093A1088093B0
:103A2000A00890939B1C80939A1C8AEA90E0909344
:103A3000991C8093981C81E490E090939D0880935A
:103A40009C080E94B5A780919A1C90919B1C909312
:103A5000D0108093CF100F94585540E050E06EE79F
:103A600081E20E9414F940E050E06DE481E20E949E
:103A700014F90C94E15481110C94E15487ED90E019
:103A80009093A3088093A2089093971C8093961C10
:103A90008AEA90E09093951C8093941C81E490E0D6
:103AA00090939F0880939E080E94B5A78091961CD2
:103AB0009091971C9093CE108093CD100F945855F1
:103AC00040E050E06EE781E20E9414F940E050E0EF
:103AD0006DE481E20E9414F90C94E1548091F11B91
:103AE000813081F584E091E09093A1088093A00853
:103AF00090939B1C80939A1C86EE90E09093991C67
:103B00008093981C8AE590E090939D0880939C0890
:103B10000E94B5A780919A1C90919B1C9093D01005
:103B20008093CF100F94585540E050E06EE781E24B
:103B30000E9414F940E050E06DE481E20E9414F923
:103B40000C94E15481110C94E15484E091E0909341
:103B5000A3088093A2089093971C8093961C86EEEE
:103B600090E09093951C8093941C8AE590E090934C
:103B70009F0880939E080E94B5A78091961C909103
:103B8000971C9093CE108093CD100F94585540E021
:103B900050E06EE781E20E9414F940E050E06DE4ED
:103BA00081E20E9414F90C94E1548091F11B813060
:103BB00091F58CED90E09093A1088093A00886EE9B
:103BC00090E090939B1C80939A1C80EA90E09093E5
:103BD000991C8093981C8CE390E090939D088093AF
:103BE0009C080E94B5A780919A1C90919B1C909371
:103BF000D0108093CF100F94585540E050E06EE7FE
:103C000081E20E9414F940E050E06DE481E20E94FC
:103C100014F90C94E15481110C94E1548CED90E072
:103C20009093A3088093A20886EE90E09093971C4F
:103C30008093961C80EA90E09093951C8093941C4E
:103C40008CE390E090939F0880939E080E94B5A714
:103C50008091961C9091971C9093CE108093CD10DC
:103C60000F94585540E050E06EE781E20E9414F94D
:103C700040E050E06DE481E20E9414F90C94E154BC
:103C80008091F11B823010F00C94E15440E050E040
:103C900064E38AE00E9414F940910C0250910D02F5
:103CA00062E289E00E9414F940910A0250910B02ED
:103CB00063E289E00E9414F94091080250910902E0
:103CC00064E289E00E9414F94091060250910702D3
:103CD00065E289E00E9414F90C94E15440E050E060
:103CE00064E18AE00E9414F90C94E15440910C02C2
:103CF00050910D021416150614F00C94E1544A501C
:103D0000510950930D0240930C0262E289E00E9437
:103D100014F90C94E15440910C0250910D02463379
:103D2000F1E05F0714F00C94E154465F5F4F50934D
:103D30000D0240930C0262E289E00E9414F90C9497
:103D4000E15440910A0250910B021416150614F02A
:103D50000C94E1544A50510950930B0240930A02CB
:103D600063E289E00E9414F90C94E15440910A0244
:103D700050910B02463321E0520714F00C94E154A9
:103D8000465F5F4F50930B0240930A0263E289E063
:103D90000E9414F90C94E1544091080250910902D8
:103DA0001416150614F00C94E1544A50510950931E
:103DB00009024093080264E289E00E9414F90C941D
:103DC000E1544091080250910902463331E0530713
:103DD00014F00C94E154465F5F4F509309024093F6
:103DE000080264E289E00E9414F90C94E1544091C5
:103DF0000602509107021416150614F00C94E154B3
:103E00004A505109509307024093060265E289E047
:103E10000E9414F90C94E15440910602509107025B
:103E20004936510514F00C94E154465F5F4F5093AE
:103E300007024093060265E289E00E9414F90C949F
:103E4000E154E091F11B40910C0250910D02209140
:103E50000A0230910B026091080270910902809170
:103E6000060290910702E11130C06C33A1E07A079D
:103E700014F06BE371E07093A3086093A2084C33D5
:103E8000B1E05B0714F04BE351E05093971C409373
:103E9000961C2C33E1E03E0714F02BE331E0309325
:103EA000951C2093941C8F36910514F08EE690E0BB
:103EB00090939F0880939E088091961C9091971CE8
:103EC0009093CE108093CD1034C06C33F1E07F0717
:103ED00014F06BE371E07093A1086093A0084C3379
:103EE00061E056072CF450939B1C40939A1C06C02B
:103EF0004BE351E05093A1084093A0082C33A1E07C
:103F00003A0714F02BE331E03093991C2093981C6E
:103F10008F36910514F08EE690E090939D08809383
:103F20009C0880919A1C90919B1C9093D010809338
:103F3000CF100E94B5A70F94585540E050E06EE7AF
:103F400081E20E9414F940E050E06DE481E20E94B9
:103F500014F90C94E15440E050E060E289E00E94E2
:103F600014F940E050E068E28AE00E9414F988E425
:103F700080936A100E9409748091F11B082F10E051
:103F800081111DC08091961C9091971C60917C07B7
:103F900070917D07681779072CF4BC01990F880B85
:103FA000990B04C0072E000C880B990B0F94B49D3D
:103FB0000F94D4A57093CE106093CD1022C0809141
:103FC0009A1C90919B1C60917A0770917B076817EF
:103FD00079072CF4BC01990F880B990B04C0072EAC
:103FE000000C880B990B0F94B49D9801220F331F7E
:103FF000F901E353FF4E7F010F94D4A5D7016D93D0
:104000007C93F801EE0FFF1FEE0FFF1FEF59F44EE8
:1040100060817181828193810F94D4A5709311087E
:1040200060931008F801EE0FFF1FE353FF4E8081ED
:10403000918190930F0880930E080E94097481E08B
:10404000809312080C94E15480911602893411F087
:104050000C94E15440E050E068E08AE00E9414F9DA
:1040600081E480936A10E091F11BB4E0EB9FF001D2
:104070001124E655FD4F60817181828193816093A7
:10408000E8107093E9108093EA109093EB10E090A1
:10409000F010F090F1100091F2101091F3102091B7
:1040A000EC103091ED104091EE105091EF100E9405
:1040B000CEFAE090F010F090F1100091F210109113
:1040C000F3102091EC103091ED104091EE105091D2
:1040D000EF106091E8107091E9108091EA109091D2
:1040E000EB10E1EFFBE1FF93EF93812CA0E89A2E18
:1040F000ABE3AA2EA6E4BA2EB4EFCB2EB0E1DB2EB2
:104100000F94B01B0E9434BCE9EAF6E084910F9052
:104110000F908F01882351F0082E000C990B0E94FC
:1041200076EE0F5F1F4FF8018491F4CF20E030E06E
:1041300040EF51E46091F4107091F5108091F61009
:104140009091F7100F943AA46093F4107093F510C7
:104150008093F6109093F710E090F010F090F1102B
:104160000091F2101091F3102091EC103091ED10AD
:104170004091EE105091EF106091E8107091E910AD
:104180008091EA109091EB10B1EF6B2EBBE17B2E8A
:104190007F926F92812C912CE0E3AE2EE1E4BE2E53
:1041A000F4EFCF2EF0E1DF2E0F94B01B0E9434BC51
:1041B0000F900F9080916A108E3411F40C94092C9A
:1041C00020E030E84AE454E46091F4107091F51076
:1041D0008091F6109091F7100F943AA4AB01BC01B6
:1041E0004093F4105093F5106093F6107093F7100D
:1041F00084E295E10E94C1F0E090F010F090F1109F
:104200000091F2101091F3102091EC103091ED100C
:104210004091EE105091EF106091E8107091E9100C
:104220008091EA109091EB107F926F92812C912CEB
:10423000A0E2AA2EA2E4BA2E0F94B01B0E9434BCB6
:104240000F900F9080916A108E3411F40C94092C09
:1042500020E030E048E452E46091F4107091F510F1
:104260008091F6109091F7100F943AA46093F41097
:104270007093F5108093F6109093F710E090F01083
:10428000F090F1100091F2101091F3102091EC10C9
:104290003091ED104091EE105091EF106091E810C8
:1042A0007091E9108091EA109091EB107F926F92DB
:1042B000812C912CA12CF0E4BF2E0F94B01B0E94F6
:1042C00034BC0F900F9080916A108E3411F40C94CE
:1042D000092C10926A1040E050E06EE08AE00E94E3
:1042E00014F90C94E15480911602823511F00C946B
:1042F000E15440E050E068E08AE00E9414F981E473
:1043000080936A1066E272E080E090E00E948ED2B4
:1043100020E030E240E854E46091F4107091F51030
:104320008091F6109091F7100F9439A46093F410D7
:104330007093F5108093F6109093F710E090F010C2
:10434000F090F1100091F2101091F3102091EC1008
:104350003091ED104091EE105091EF106091E81007
:104360007091E9108091EA109091EB10E1EFFBE180
:10437000FF93EF93812C912CB0E2AB2EB2E4BB2ED5
:10438000E4EFCE2EE0E1DE2E0F94B01B0E9434BC91
:104390000F900F9080916A108E3411F40C94092CB8
:1043A00086E090E0909305028093040210926A10D8
:1043B00012E41093A40A0E94097440E050E065E101
:1043C0008AE00E9414F940E050E06BE084E10E9432
:1043D00014F910936A108091F11B81111AC0809119
:1043E000961C9091971C90937D0780937C078091F9
:1043F000941C9091951C90938107809380078091E5
:10440000A2089091A30890937907809378070C9461
:10441000E15480919A1C90919B1C90937B07809310
:104420007A078091981C9091991C90937F078093B4
:104430007E078091A0089091A108909377078093C0
:1044400076070C94E1548091090881110C94E15491
:1044500040E050E065E18AE00E9414F940E050E05D
:104460006BE084E10E9414F982E480936A108093E7
:10447000A40AE091F11B24E0E29FF0011124E6552B
:10448000FD4F60817181828193816093E810709308
:10449000E9108093EA109093EB10E090F010F09008
:1044A000F1100091F2101091F3102091EC10309166
:1044B000ED104091EE105091EF10E1EFFBE1FF9312
:1044C000EF93812CE0E89E2EEBE3AE2EE6E4BE2EC9
:1044D000F4EFCF2EF0E1DF2E0F94B01BE090F01040
:1044E000F090F1100091F2101091F3102091EC1067
:1044F0003091ED104091EE105091EF10E091DB10F3
:1045000064E0E69FF0011124E655FD4F6081718162
:10451000828193810E94CEFAE091DB1084E0E89FD3
:10452000F0011124E655FD4F80819181A281B38174
:104530008093E8109093E910A093EA10B093EB10E9
:10454000E091F11BF0E0EE0FFF1FE353FF4E80916F
:104550009A0790919B07918380830E9434BC0F90AF
:104560000F900C94E1548091090881110C94E1544E
:1045700090919B0880919A0898130C94FF5481E0C5
:10458000809315080C94E1548091090881110C94D2
:10459000E15490919B0880919A0898130C94FF54D1
:1045A0000C94025590919B0880919A0898130C9452
:1045B000E1540C94065590919B0880919A089813A9
:1045C0000C94E1540C948D55E091DC02F091DD02E5
:1045D000EF3F9FEFF90711F40C94E154EE0FFF1F2A
:1045E000E353FF4E408151814B33A1E05A0714F051
:1045F0000C94E1544B5F5F4F5183408368E289E044
:104600000E9414F90C94E154E091DC02F091DD0277
:10461000EF3FBFEFFB0711F40C94E154EE0FFF1FC7
:10462000E353FF4E408151811416150614F00C948B
:10463000E154455051095183408368E289E00E946A
:1046400014F90C94E1548091DC029091DD02019602
:1046500011F40C94E15490919B0880919A0898135E
:104660000C94FF540C9417568091DC029091DD025B
:10467000019611F40C94E15490919B0880919A0852
:1046800098130C94FF540C941B5690919B088091A6
:104690009A0898130C94E1540C941F568091A40A24
:1046A000823411F00C94E154E0EAF6E084918F0139
:1046B000882351F0082E000C990B0E9476EE0F5FB4
:1046C0001F4FF8018491F4CF10926A1010920908DC
:1046D00080911602823509F047C089E48093160262
:1046E0008091F11B813049F441E050E06CE481E2BB
:1046F0000E9414F940E050E008C040E050E06CE453
:1047000081E20E9414F941E050E06BE481E20E94F2
:1047100014F941E050E06EE781E20E9414F941E0B3
:1047200050E06DE481E20E9414F941E050E061E460
:1047300081E20E9414F941E050E066E481E20E94C7
:1047400014F941E050E06EE481E20E9414F941E086
:1047500050E06FE481E20E9414F940E050E064E12F
:104760008AE00E9414F9C9C0893409F0C6C081E406
:1047700080936A1040E050E068E08AE00E9414F9FB
:104780004090D2075090D3076090D4077090D5071F
:104790004092EC105092ED106092EE107092EF107B
:1047A00020E030E040E752E460914E0270914F0209
:1047B00080915002909151020F9428A54B015C0109
:1047C000E090F010F090F1100091F2101091F310C1
:1047D0006091E8107091E9108091EA109091EB10CF
:1047E0002BED30E13F932F93E4EFCE2EE0E1DE2E70
:1047F000A30192010F94B01B0E9434BC0F900F9044
:1048000080916A108E3411F40C94092C20E030E071
:1048100040E251E46091D6077091D7078091D807A4
:104820009091D9070F943AA47B018C016093F0100A
:104830007093F1108093F2109093F3108091E00741
:1048400089838090520290905302A0905402B090BD
:1048500055022091EC103091ED104091EE105091E6
:10486000EF106091E8107091E9108091EA1090913A
:10487000EB10FE013196FF93EF930F94B01B0E9453
:1048800034BC0F900F9080916A108E3409F4C1C728
:1048900010926A1082E480930E0240E050E067E5D7
:1048A00081E20E9414F940E050E066E781E20E9454
:1048B00014F940E050E06DEE81E20E9414F940E00E
:1048C00050E068E881E20E9414F940E050E069E8B5
:1048D00081E20E9414F940E050E06AE28AE00E941E
:1048E00014F911E01093231C10925B1066EB77E033
:1048F00086E20E941CFA1093B5071092A40A0C9449
:10490000E1548091800A10926A108823B9F01092C5
:10491000800A81E08093810A80910E0240E050E09D
:10492000813431F469E08AE00E9414F90C94E15476
:104930006AE28AE00E9414F90C94E1541092241C5B
:1049400010925B10E5E9F6E084918F01882351F025
:10495000082E000C990B0E9476EE0F5F1F4FF80196
:104960008491F4CF10921B0881E00F94CC4D40E06D
:1049700050E065E08AE00E9414F90C94E1549091B3
:10498000471D992309F428C280914B1D823008F4F9
:1049900023C2473451056105710509F4A3C09CF594
:1049A0004B3251056105710509F462C09CF4473131
:1049B00051056105710509F467C04831510561056C
:1049C000710511F00C94E15482E090E00F94F854DA
:1049D0000C94E154403351056105710509F44EC052
:1049E000453351056105710509F4BCC14F325105CC
:1049F0006105710511F00C94E1548FEF9FEF0F9456
:104A0000F8540C94E154403851056105710509F4DE
:104A100041C004F54E3551056105710509F470C1B9
:104A20004F3551056105710511F00C94E15414E402
:104A30001093A40A40E050E06BE084E10E9414F976
:104A400040E050E065E18AE00E9414F910936A109A
:104A50000C94E1544238510561057105B9F144F1F6
:104A60004B3A51056105710509F4C8C00C94E15435
:104A70008EEF9FEF0F94F8540C94E15480E090E097
:104A80000F94F8540C94E15481E090E00F94F854A2
:104A90000C94E1548DEF9FEF9093A60A8093A50AA2
:104AA00040E050E06AE08AE00E9414F90C94E1547E
:104AB00083E090E09093A60A8093A50A40E050E03E
:104AC0006AE08AE00E9414F90C94E1541092A60A5C
:104AD0001092A50A40E050E06AE08AE00E9414F9D2
:104AE0000C94E15440E050E068E08AE00E9414F940
:104AF00081E480936A1041E061E081E00E9485C713
:104B000010926A100E9434BC0F949B511091A50A18
:104B100080914B1D823011F540E050E061E18AE068
:104B20000E9414F980E580936A100091481D010FDE
:104B30000093481D002E000C110B20E030E0A9016D
:104B4000CA01B9010E9415CB40E050E069E18AE05A
:104B50000E9414F910926A100C94E154833029F5E4
:104B600040E050E061E18AE00E9414F980E5809322
:104B70006A100091491D010F0093491D002E000C81
:104B8000110B20E030E04CE553EC60E070E088EA87
:104B900092EC0E9415CB40E050E069E18AE00E946F
:104BA00014F910926A100C94E154843011F00C94B2
:104BB000E15440E050E061E18AE00E9414F980E5B0
:104BC00080936A1000914A1D010F00934A1D002E28
:104BD000000C110B20E030E04CE553EC60E070E09D
:104BE00084EA92E40E9415CB40E050E069E18AE05B
:104BF0000E9414F910926A100C94E15410926A10F9
:104C00008091481D4091491D042F081B40914A1D69
:104C1000142F181B602F002E000C770B880B990B9C
:104C20000F94B49D2DEC3CEC4CEC5DEB0F949698FE
:104C30006093A21C7093A31C8093A41C9093A51C4A
:104C4000612F012E000C770B880B990B0F94B49DEC
:104C50002DEC3CEC4CEC5DEB0F94969860939E1C15
:104C600070939F1C8093A01C9093A11C0023A1F023
:104C700040E050E06FE18AE00E9414F907FF07C0AE
:104C8000202F332721950CF4309508E0020F402F98
:104C9000000F550B64E015C01123B9F040E050E05F
:104CA00060E28AE00E9414F917FF07C0812F99275C
:104CB00081950CF4909518E0180F412F110F550BAA
:104CC00065E08BE10E9414F911C014E41093A40A6A
:104CD00040E050E06BE084E10E9414F940E050E0D5
:104CE00065E18AE00E9414F910936A1085E195E06D
:104CF00090939D1C80939C1C0E94B5A70C94E1543A
:104D000040914A1D8091481D142F181BC1F040E0AE
:104D100050E060E28AE00E9414F917FF07C0A12F5B
:104D2000BB27A1950CF4B09518E01A0F412F110F75
:104D3000550B65E08BE10E9414F90C94E15414E4E6
:104D40001093A40A40E050E06BE084E10E9414F963
:104D500040E050E065E18AE00E9414F910936A1087
:104D60000C94E1548091A40A843411F00C94E15421
:104D700010924B1D1092471D10926A101092C8108D
:104D80001092C7101092CE101092CD101092D01029
:104D90001092CF101092241C10925B10EAE8F6E0FB
:104DA00084918F01882351F0082E000C990B0E94EA
:104DB00076EE0F5F1F4FF8018491F4CF10921B081D
:104DC0000F94CC4D40E050E065E08AE00E9414F979
:104DD0001092A40A0C94E1544D3E510510F00C942D
:104DE000E154FA018827EE58FF4F8F4F0D949FA88A
:104DF00081E0809304080C94E15481E080930308DF
:104E00000C94E15481E0809302080C94E15481E019
:104E1000809301080C94E15481E0809300080C9485
:104E2000E1540E9431F4009751F481E08093050829
:104E30008091BA1081508093BA100C94E15401977C
:104E400011F00C94E15481E08093050840E050E0BB
:104E500067E381E20E9414F940E050E061E08BE1F9
:104E60000E9414F98091BA1081508093BA100C946A
:104E7000E1541092241C10925B10EFE7F6E084914D
:104E80008F01882351F0082E000C990B0E9476EEBA
:104E90000F5F1F4FF8018491F4CF10921B0881E03F
:104EA0000F94CC4D40E050E065E08AE00E9414F998
:104EB0000C94E1548091B017882311F40C94E154C0
:104EC00041E061E081EB97E10F940F458FEF9FEF99
:104ED00090939F1780939E17E12CF12C0DE417E11E
:104EE0009E012F5F3F4F590188248A94982C2224D9
:104EF0002394312C54EFC52E53E0D52E40914F1AF8
:104F00005091501A6091511A7091521A8091AA19B9
:104F10009091AB19A091AC19B091AD198417950778
:104F2000A607B70708F00EC1D801E2E31D92EA9583
:104F3000E9F72DE2422E5524539480914D178D347C
:104F400009F4A5C040914F1A5091501A6091511A1E
:104F50007091521A8091AA199091AB19A091AC1935
:104F6000B091AD1984179507A607B70708F08FC051
:104F70009DE4692E97E1792E8091AA199091AB1941
:104F8000A091AC19B091AD1940914F1A5091501A9F
:104F90006091511A7091521A84179507A607B707A6
:104FA00088F48093571A9093581AA093591AB09383
:104FB0005A1A82EA99E10E949190D3018D933D01A2
:104FC0008A3029F4B1E04B1A510829F45CC0AE577D
:104FD000B741C1F3D1CF40914F1A5091501A60910F
:104FE000511A7091521A8091AA199091AB19A091FF
:104FF000AC19B091AD1984179507A607B70708F447
:105000009CCF41C05A824982DF92CF92F5EE6F2E3B
:10501000F3E07F2EBF92AF92FF92EF920F948D9D9F
:1050200089819A810F900F900F900F900F900F90A1
:10503000019609F0B9C00150110909F4CCC04091A2
:105040004F1A5091501A6091511A7091521A8091D2
:10505000AA199091AB19A091AC19B091AD19841710
:105060009507A607B70708F0B6C0ADE48A2EA7E1FA
:105070009A2ED701E32D1D92EA95E9F70E9481FE51
:10508000019609F0BFCF80E00E94FBF0A4C1E114BB
:10509000F104F9F49A828982BF92AF92A4EAB0E255
:1050A000BF93AF931F930F930F948D9D89819A8126
:1050B0000F900F900F900F900F900F90019629F086
:1050C00030929F1720929E1704C010929F17109243
:1050D0009E179A828982BF92AF92DF92CF921F93DE
:1050E0000F930F948D9D89819A810F900F900F904F
:1050F0000F900F900F90059711F40C9436569A82EA
:105100008982BF92AF92DF92CF921F930F930F9439
:105110008D9D89819A810F900F900F900F900F9025
:105120000F90069711F40C9436562EE0E216F10417
:1051300009F451C13FEFE31AF30A4FE0E416F1041A
:105140000CF4DCCE1092571A1092581A1092591A79
:1051500010925A1A40E050E0BA0182EA99E10E94A6
:105160006D8E80919E1790919F17892B49F40CE3C7
:1051700010E0BDE4EB2EB7E1FB2E82E3D82E56C043
:105180000AEF10E05DE4E52E57E1F52E62E3362EDE
:1051900044244A94542CAE014F5F5F4F6A01E5EE00
:1051A000AE2EE3E0BE2E4BCF8FEF9FEF9A83898325
:1051B000DF92CF927F926F929F928F920F948D9DEC
:1051C00089819A810F900F900F900F900F900F9000
:1051D000892B09F058CF80E00E94FBF0C090BE02FE
:1051E000D090BF02E090C002F090C10220E030E019
:1051F000A901C701B6010F9412A718166CF137C0A8
:10520000D701ED2D1D92EA95E9F70E9481FE0196E6
:1052100009F439CF6DE477E181E394E00F940E9DBA
:10522000892B09F430CF01501109A9F240914F1A8E
:105230005091501A6091511A7091521A8091AA1986
:105240009091AB19A091AC19B091AD198417950745
:10525000A607B707A8F2BFCF2DEC3CEC4CE45DE30A
:10526000C701B6010F9412A718165CF0B4C02DEC5C
:105270003CEC4CE45DEBC701B6010F94AE9D87FF9B
:10528000AAC040E050E067E18AE00E9414F98090F3
:10529000BE029090BF02A090C002B090C10220E078
:1052A00030E0A901C501B4010F9412A718162CF51E
:1052B00020E030E048EC52E4C501B4010F94969828
:1052C0000F94D4A50AE010E0CB01B8010F9470A8A8
:1052D000F82EE92E20E030E040E251E4C501B401AF
:1052E0000F9496980F94D4A5CB01B8010F9470A891
:1052F000082FD92EC501B4012AC02401350177FA3F
:10530000709477F8709420E030E048EC52E4C301E8
:10531000B2010F9496980F94D4A50AE010E0CB0147
:10532000B8010F9470A8F82EE92E20E030E040E29A
:1053300051E4C301B2010F9496980F94D4A5CB0108
:10534000B8010F9470A8082FD92EC301B2010F9491
:10535000D4A5162FC72E20E030E0A901C501B40165
:105360000F94AE9D87FD03C08BE294E002C086E2FD
:1053700094E0EF92FF92DF920F93CF921F939F934F
:105380008F9382E396E09F938F938E010F5F1F4F61
:105390001F930F930F945E9DC8010F944F08B8019F
:1053A00080E30E941CFA8FEF9FEFDC018093E802FC
:1053B0009093E902A093EA02B093EB0210921D08C9
:1053C0002DB73EB7245F3F4F0FB6F8943EBF0FBED8
:1053D0002DBF0C944E568091001881110C94E1540D
:1053E000CDB6DEB68091FE079091FF070F94524430
:1053F000E1EBF7E1DF010D900020E9F78DB79EB7F3
:105400008A1B9B0BAC014355584E0FB6F8945EBFF8
:105410000FBE4DBF0DB71EB70F5F1F4FFF93EF932A
:105420008BE296E09F938F931F930F930F945E9D53
:10543000780154E0E50EF11C0F900F900F900F9043
:105440000F900F90F7018081882349F0082E000CFF
:10545000990B0F949AAAD7018D937D01F3CFC801C0
:105460000F943E4E87E296E00F94CF4D0FB6F8941E
:10547000DEBE0FBECDBE0C94E1548091B0178823E0
:1054800011F40C94E1548091001881110C94E154B2
:10549000CDB6DEB68091FE079091FF070F9452447F
:1054A000E1EBF7E1DF010D900020E9F78DB79EB742
:1054B0008A1B9B0B9C012355384E0FB6F8943EBFB8
:1054C0000FBE2DBF0DB71EB70F5F1F4FFF93EF939A
:1054D00080E296E09F938F931F930F930F945E9DAE
:1054E000780134E0E30EF11C0F900F900F900F90B5
:1054F0000F900F90F7018081882349F0082E000C4F
:10550000990B0F949AAAD7018D937D01F3CFC8010F
:105510000F943E4E8CE196E00F94CF4D0FB6F89469
:10552000DEBE0FBECDBE0C94E15440E050E067E318
:1055300081E20E9414F940E050E061E08BE10E94BA
:1055400014F940E050E062E08AE00E9414F981E042
:105550008093241C809306080C94E15481E080938E
:1055600008080C94E15481E0809307080C94E154FE
:1055700040E050E062E18AE00E9414F90C94E154AA
:1055800040E050E06CE18AE00E9414F980E00F9462
:10559000CC4D10921A08109219081092180881E048
:1055A00080931B080C94E1541092241C10925B1001
:1055B000E1E1F6E084918F01882351F0082E000C80
:1055C000990B0E9476EE0F5F1F4FF8018491F4CF84
:1055D00010921B080E94097481E00F94CC4D40E0AA
:1055E00050E065E08AE00E9414F90C94E154809147
:1055F000CD109091CE10892B29F01092CE101092E0
:10560000CD1008C08091A2089091A3089093CE106D
:105610008093CD1010921A080C94E1548091CF1011
:105620009091D010892B29F01092D0101092CF10A9
:1056300008C08091A0089091A1089093D010809309
:10564000CF10109219080C94E1548091C7109091DA
:10565000C810892B29F01092C8101092C7101CC0D6
:1056600080919E0890919F0860919C0870919D0880
:10567000681779072CF4BC01990F880B990B04C0AB
:10568000072E000C880B990B0F94B49D0F94D4A592
:105690007093C8106093C710109218080C94E154CE
:1056A0008DE096E00F94CF4D0C94E15440E050E033
:1056B0006EE18AE00E9414F90C94E15440E050E05D
:1056C00065E08AE00E9414F91092241C10925B108D
:1056D000E2E0F6E084918F01882351F0082E000C5F
:1056E000990B0E9476EE0F5F1F4FF8018491F4CF63
:1056F00010921B0888E793E09093EF028093EE02EC
:105700000E94B5A70C94E15440E050E06AE18AE0C1
:105710000E9414F90E9452EF8091B017882311F46F
:105720000C94E1548091B9108093BA1021E9E22ED3
:1057300020E1F22E35EAC32E30E1D32E00E010E056
:105740004BEF842E45E0942E8091B91090E008171D
:10575000190794F561EB77E188E298E10E94CD9218
:105760005701D7018D919D917D010F945244F50110
:1057700080819181D6018D939D936D018091001858
:10578000811113C0F40184919BEFA92E95E0B92EED
:10579000882379F0082E000C990B0E9476EEFFEF1B
:1057A000AF1ABF0AF5018491F3CF81EB97E10F9413
:1057B00020490F5F1F4FC8CF87E090E00F94EA5554
:1057C0000C94E1548091EE029091EF028036974064
:1057D00041F488E793E09093EF028093EE020E94F9
:1057E000B5A740E050E068E08AE00E9414F981E447
:1057F00080936A1080911B108823D1F040E061E013
:1058000081E00E9485C70E9434BC80916A108E346A
:1058100089F48FEF9FEFDC018093E8029093E90217
:10582000A093EA02B093EB0210921D080C944E561E
:1058300041E0E5CF81E00F94CC4D10926A1088EFE3
:1058400095E00F94CF4D0E9434BC80916A108E3445
:1058500001F340E050E06BE08AE00E9414F90C9400
:10586000E15440E050E064E08AE00E9414F90C94B6
:10587000E15440E050E064E28AE00E9414F981E0E3
:105880008093990789E480936A1040E050E060E2D9
:1058900089E00E9414F96091A2087091A308072E74
:1058A000000C880B990B0F94B49D00E010E028ECDD
:1058B00031E440E050E00F9406020E94B5A767E390
:1058C00074E084E295E10E9446886AE374E084E231
:1058D00095E10E94468860919E0270919F0280919E
:1058E000A0029091A10242E050E00F94F9496EE3CA
:1058F00074E084E295E10E9446882DEB37E346E0B0
:105900005EE3609196027091970280919802909167
:1059100099020F9428A542E050E00F94F94962E4FF
:1059200074E084E295E10E9446882DEB37E346E07F
:105930005EE360918E0270918F028091900290914F
:1059400091020F94969842E050E00F94F9496091CB
:10595000A0087091A108072E000C880B990B0F94DA
:10596000B49D00E010E028EC31E441E050E00F94F9
:1059700006020E94B5A767E374E084E295E10E9405
:1059800046886AE374E084E295E10E94468860916B
:10599000A2027091A3028091A4029091A50242E01C
:1059A00050E00F94F9496EE374E084E295E10E94BF
:1059B00046882DEB37E346E05EE360919A027091F2
:1059C0009B0280919C0290919D020F9428A542E039
:1059D00050E00F94F94962E474E084E295E10E949A
:1059E00046882DEB37E346E05EE3609192027091CA
:1059F000930280919402909195020F94969842E0C0
:105A000050E00F94F94910926A100E94097440E026
:105A100050E06BE084E10E9414F940E050E065E161
:105A20008AE00E9414F984E48093A40A80936A10A7
:105A30000C94E1541092241C10925B10EDEEF5E0F2
:105A400084918F01882351F0082E000C990B0E943D
:105A500076EE0F5F1F4FF8018491F4CF10921B0870
:105A60000E94097440E050E065E08AE00E9414F969
:105A70000C94E15482E58093160281E080939807AC
:105A800040E050E06BE581E20E9414F940E050E014
:105A90006CE581E20E9414F940E050E060E08BE1A7
:105AA0000E9414F940E050E06AE781E20E9414F994
:105AB00040E050E069E781E20E9414F940E050E0E4
:105AC0006DE18AE00E9414F98FEF8093F11B0C9432
:105AD000E15440E050E062E18AE00E9414F940E0C5
