:100000000C9406170C9437170C9437170C94371769
:100010000C9437170C9437170C9437170C94371728
:100020000C9437170C9437170C9437170C94371718
:100030000C9437170C9437170C9437170D94EC0465
:100040000C9437170C9437170C9437170C943717F8
:100050000C9437170C9437170D94853E0C9419DFC8
:100060000C9437170C9447DD0C941EDD0C94371755
:100070000C9437170C9437170C9437170C943717C8
:100080000C9489E00C9437170C9437170C9437179D
:100090000C9437170C9437170C9437170C943717A8
:1000A0000C9437170C9437170C9437170C94371798
:1000B0000C9437170C9437170C9437170C94371788
:1000C0000C9437170C9437170C9437170C94E9DC01
:1000D0000C94C0DC0C9437170C9437170C9437171A
:1000E0000C943717495AD25CA82F6C2DF3578E28E1
:1000F000AC5BA428D25CD25CD25CE3288028D25CC2
:10010000DC25D125D25C8439D25CD25CD25CB75B71
:1001100039404F4065407B4013419140D55B2B40B7
:100120000443505AD139C239A740BB40D25C992808
:10013000522680284C2DBC3B642D695BC74E5C2D3C
:10014000542D8A5BE559D25C9A2F625BD25C633C8A
:10015000AC28FD25E725D25CD25CBD29ED39D25C07
:10016000375B0B5B2B48A13128283C4CDE36E0394D
:10017000A531D25CA85A5F5A662F503050302C30CF
:10018000A931AD32582BFC281529EC2F0E30C6258D
:10019000F225D25CD25C8028E02FCC2BEE2B4229BA
:1001A000613B413BD25CBE566957D259D25CD55BAC
:1001B000D55B32590659DA58AE582A5856588258E3
:1001C0001B5A3C5788431243FE430F466845F2448E
:1001D000D25CD25CF357112C2A2CE02FE156CC5B79
:1001E000D25CD25C285BD1401B4B0747D25C3126E6
:1001F000EF54E740FD40D25C5741D25C963A8E3ACC
:10020000D25CD25C1035D25CD25CD25C3735893599
:100210007435E52ECF2E9E3A752DF22D762EA32E17
:100220003E53F62E8B475F351F47D25CD25CD25CC3
:10023000D25CD25CD25CD25CD25CD25C48295029C0
:100240007629D25CD25C354749472B481B4B274B5C
:100250002C4CD25C3A4F9E4FCD4E214F434DD25C39
:10026000D25C604DD25C735189387C39B7515F479D
:10027000D25C45508F50DB5027513D507547D25CC2
:10028000FB51FD526E549155D25C2454DE45DE453F
:100290007F547F33EF2AB34E4C4D6C4D3E4E464E4D
:1002A0008028BB4ED25CD25CD25CD25CD25CD25C89
:1002B0004E39D25CD25CE457125AD25CD25CD25C2A
:1002C000D25CD25CD25CD25CD25C5556A856D25C71
:1002D000D25CD25CD25CD25CD25CD25CD25CD25CAE
:1002E000D25CD25CD25CD25CD25CD25CD25CD25C9E
:1002F000D25CD25CD25CD25CD25CD25CD25CD25C8E
:10030000D25CD25CD25CD25CD25CD25CD25CD25C7D
:10031000D25CD25CD25CD25CD25CD25CD25CD25C6D
:10032000D25CD25CD25CD25CD25CD25CD25CD25C5D
:10033000D25CD25CD25CD25CD25CD25CED3FAF3F8F
:10034000C6428842D25CED45D25CD25CE0391F2BBC
:1003500078422B41E0392B41D25C41414141F72A9F
:10036000455B3E5B545B5B5BB757BC57C157C65799
:10037000215B125BD057D557DA57DF57CB57B257AF
:10038000CC4AEB4A6C2D0C2AFF2AD25C3D5A2953E9
:10039000C0288B2BD25CD25C3557FB4FD25CD25C31
:1003A000D25C8A55D25CE156D25CD25CD25C06301B
:1003B000602B3653552F5134D25CCF4FD25C8355CE
:1003C000D25CD25CD25CD25CD25C8D2FA64AB94A98
:1003D0003D5A1B5A1536F336BB4F0E3BF736142ADF
:1003E000BC3B1D361C4E8138BB379154E254D25C65
:1003F000ED39BB4F7B48D55BA63A272BC34FD55B66
:1004000060DC63DC52DC56DC5CDC9ADC67DC6BDCD9
:1004100071DC75DC79DC7FDC83DC87DC9ADC8DDCED
:1004200091DC95DC35DE3ADE3FDE49DE53DECCDEA4
:100430005DDE65DE6DDE77DE81DE8BDE9ADEA4DEDC
:10044000CCDEAEDEB8DEC2DE73029502A302A102EC
:100450007502A102AD02A9028302670277027F0240
:100460008102A502850291029D0269028F02970214
:100470006F026B028D027B02930289029F0271025E
:100480006D02084AD73B3BCE016E84BCBFFDC12F35
:100490003D6C74319ABD56833DDA3D00C77F11BE75
:1004A000D9E4BB4C3E916BAAAABE000000803F0578
:1004B000A84CCDB2D44EB93836A9020C50B99186A9
:1004C00088083CA6AAAA2ABE000000803F000D941E
:1004D000AA110D9440110D94453F0D94943F0D9435
:1004E000383F0D948C3F0D94160F0D94B40F0D945E
:1004F000E6100D94F4800D946C3F0D9441B40D946E
:1005000004110D9422110D94340F0D94720F0D945B
:100510001E810D94883F0D942C610D945F3F0D94C6
:100520000F3F0D94520F0D94863F0D94900F0D9434
:100530001C3F0D942B610D94579E0D94F10F0D945B
:100540008A3F0D9450100D9475100D947B110D94ED
:10055000FB000D9427100D94E2C60D940F104E4130
:100560004E494E495459494E46CDCCCC3D0AD7232D
:100570003C17B7D13877CC2B329595E6241FB14F75
:100580000A000020410000C84200401C4620BCBEBA
:100590004CCA1B0E5AAEC59D746364696E6F70734E
:1005A0007578585B003B4C415945523A2564003BF5
:1005B000202020757365526166742C2564004D36C9
:1005C0003035205325640043616C63756C75733A54
:1005D00020200043616C63756C75733A20200043E2
:1005E000616C63756C75733A20200053757266698F
:1005F0006E6720300A00417420426F74746F6D2062
:10060000537469636B657200253033642E25303373
:1006100064253033642E2530346400417420426FE9
:1006200074746F6D20537469636B65720025303389
:10063000642E25303364253033642E253034640035
:1006400053757266696E6720300A00473238205849
:1006500030205930005430005431005430005430B0
:100660000053757266696E6720300A0047343300A4
:1006700047343100473430004733340047343300C7
:100680004734330047343100473430004D383400AC
:100690004D3834004D3834005A32204F6666736549
:1006A000743A20004F4B207365636F6E6420457869
:1006B000747275646572210A005A20706F736974D0
:1006C000696F6E3A20005A20706F736974696F6E9B
:1006D0003A20004D3834005A312050726F62652044
:1006E0006F66667365743A20004F4B2066697273BB
:1006F0007420457874727564657221200A005A204E
:10070000706F736974696F6E3A20005A20706F734E
:100710006974696F6E3A200043616C63756C757320
:100720003A20200043616C63756C75733A20200099
:1007300043616C63756C75733A20200043616C6390
:10074000756C75733A2020003630206465677265D9
:100750006573200A00543000543000543000436167
:100760006C6962726174696F6E205375636365733F
:100770007366756C0A005430004A756D70206F7690
:1007800065722073637265773120616E64207363D4
:1007900072657732200A004A756D70206F76657237
:1007A00020736372657731200A0047333400473382
:1007B00034004733340054300047333400537572EB
:1007C00066696E6720300A0053757266696E67202D
:1007D000300A0053757266696E6720300A005375DF
:1007E0007266696E6720300A0053757266696E67BB
:1007F00020300A0054300053757266696E672030ED
:100800000A004D33340053757266696E6720300AF2
:10081000004D3234004D3233202573004D32340008
:100820004D32332025730077696C6C20626520643B
:100830006973746F727465642062792025642E2553
:100840003164253164206D6D2E0054686520666921
:10085000727374206C61796572207072696E746550
:100860006420776974682074686520257320686F38
:1008700074656E640053757266696E6720300A0095
:1008800053757266696E6720300A00537572666927
:100890006E6720300A00526561647920746F2053BE
:1008A000746172740A002564206B6D2E0067636F9B
:1008B000646520666F756E640A0020746F2053743F
:1008C00061727420446973706C61792066726F6D17
:1008D00020526573657400546F6F6B2000646973F8
:1008E000706C6179206F6E6C696E6521002E00203E
:1008F00053544F50205052494E54200A004732382A
:10090000205830205930004D3335004737300052E1
:100910004553554D450A0050415553450A004D3841
:100920003420582059205A2045004D31303700548A
:1009300030005374617274696E67205A2043616C91
:100940006962726174696F6E2057697A6172640AB4
:10095000000A00205A3A200020593A200020583A34
:10096000200042656400456E642066696C65206CF9
:100970006973740A00426567696E2066696C652058
:100980006C6973740A002F005344207072696E748E
:10099000696E67206279746520004E6F742053443D
:1009A000207072696E74696E670A002569206D692E
:1009B0006E2C20256920736563006F6B00464952D9
:1009C0004D574152455F4E414D453A4D61726C69FC
:1009D0006E2042434E3344205369676D61783B205B
:1009E0004649524D574152455F56455253494F4E25
:1009F0003A30322D322E302E33646576303B20462D
:100A000049524D574152455F55524C3A6874747083
:100A1000733A2F2F6769746875622E636F6D2F426A
:100A2000434E33442F42434E33445369676D6178DC
:100A30002D4669726D776172653B2050524F544F5D
:100A4000434F4C5F56455253494F4E3A312E303B3F
:100A5000204D414348494E455F545950453A424321
:100A60004E3344205369676D61783B20455854529A
:100A7000554445525F434F554E543A323B205555ED
:100A800049443A0053544154495354494353205222
:100A9000455345540A004D6F64652032203A206367
:100AA00079636C652020202D3E205247423A203643
:100AB00020737461746573002A2A2D3E20004D6FE7
:100AC00064652031203A2072616E646F6D20202DA4
:100AD0003E205247423A202B31202B32202B332C00
:100AE00020647572696E67207072696E74696E67D2
:100AF000002A2A2D3E20004D6F64652030203A20C8
:100B000064656661756C74202D3E205247423A2020
:100B10003235352032353520323535002A2A2D3E02
:100B200020004C6564206D6F646573203A004D357C
:100B30003336204C5B6D6F64655D00504F534954F4
:100B4000494F4E20484F4D453A2000220A00556E2D
:100B50006B6E6F776E20636F6D6D616E643A2022ED
:100B6000000A00207A3A200020793A200020783AC2
:100B70002000426564004578747275646572207265
:100B8000656C6561736564206163746976653A209C
:100B9000005A205349474D4120486F6D65640A0053
:100BA0004578747275646572206163746976653A1C
:100BB00020004D3834005374617274696E67205898
:100BC0002043616C6962726174696F6E2057697A43
:100BD0006172640A004D3834005374617274696E36
:100BE0006720592043616C6962726174696F6E207D
:100BF00057697A6172640A00457874727564657227
:100C0000204865617465640A0020573A0020450059
:100C1000205A00205900483D5800205A3A002059D7
:100C20003A0020436F756E7420583A200020453AF0
:100C300000205A3A0020593A00583A007A5F6D690C
:100C40006E3A2000795F6D61783A2000785F6D61BF
:100C5000783A2000785F6D696E3A2000486F7465BD
:100C60006E64206F6666736574733A005049442061
:100C70004175746F74756E652066696E6973686519
:100C800064212050757420746865206C6173742031
:100C90004B702C204B6920616E64204B6420636F85
:100CA0006E7374616E74732066726F6D2061626F13
:100CB000766520696E746F20436F6E666967757222
:100CC0006174696F6E2E680A005049442041757442
:100CD0006F74756E65206661696C65642120746946
:100CE0006D656F75740A0020403A006F6B20543AAE
:100CF000006F6B20423A00504944204175746F7474
:100D0000756E65206661696C6564212054656D703F
:100D10006572617475726520746F6F2068696768A9
:100D20000A00204B643A2000204B693A2000204BF7
:100D3000703A200020436C6173736963205049440A
:100D4000200A002054753A2000204B753A200020DC
:100D50006D61783A2000206D696E3A200020643A77
:100D6000200020626961733A2000457874727564CE
:100D700065722072656C6561736564206163746976
:100D800076653A20005A205349474D4120486F6DFF
:100D900065640A00457874727564657220616374D5
:100DA0006976653A2000000000000080934300004F
:100DB00000000000A0400000A04000000040200013
:100DC0004D6F766520746F3A2000CDAC03440080EF
:100DD000934300005243FF01FF20636F6C64206562
:100DE0007874727573696F6E2070726576656E7453
:100DF00065640A006563686F3A00436F6F6C696EE3
:100E00006720446F776E204865617465720A0050F0
:100E100072696E7465722068616C7465642E206BF3
:100E2000696C6C28292063616C6C6564210A00453B
:100E300072726F723A006C617965722068656967D9
:100E400068743A200000002100240027002A002DA9
:100E5000003000330001010000040107010A010015
:100E6000002200250028002B002E00310034000253
:100E7000010000050108010B0100002000230026ED
:100E80000029002C002F00320000010000030106A1
:100E90000109010505050507050808080802020201
:100EA000020A0A0808040404040101010101010105
:100EB000010303030303030303040707070C0C0CDC
:100EC0000C0C0C0C0C0202020206060606060606B4
:100ED000060B0B0B0B0B0B0B0B0102102020080851
:100EE000102040102040800201020108040201018C
:100EF0000204081020408080402010080402018075
:100F000004020180402010080402010804020101CB
:100F100002040810204080010204081020408000D4
:100F2000000A0B02090C0D0E080703040100000063
:100F300000000000000000000000000000000000B1
:100F4000000000000000000000000012111000006E
:100F50000000000000000000000000000000000091
:100F60000000000000646973706C6179206F666630
:100F70006C696E650042434E3344205369676D616E
:100F8000780A0073746172740A006563686F3A00CE
:100F900030322D322E302E33646576300A00657281
:100FA000726F722077726974696E6720746F206641
:100FB000696C650A00205A3A0020593A0020583AD4
:100FC00000656E6473746F7073206869743A2000F2
:100FD0006563686F3A00446F6E6520736176696E71
:100FE000672066696C652E0A006F6B0A004D323906
:100FF0000024F4D43050C38E20C2A24017828B70DC
:1010000011127A910D816CD90AA861E108C758665E
:1010100007615143061E4B5D05C145A7041A4111E6
:1010200004093D9803713931034036DB0265339181
:1010300002D4305402802E1D02632CEE01752AC5A5
:1010400001B028A001102781018F2564012B244BBA
:1010500001E0223401AC211F018D200D01801FFC15
:1010600000841EED00971DDF00B81CD200E61BC6F1
:1010700000201BBC00641AB200B219A8000A19A013
:10108000006A189900D117910040178B00B516849B
:101090000031167E00B31579003A157300C7146F3E
:1010A0000058146A00EE1366008813630025135E6F
:1010B00000C7125B006C12570015125400C1115189
:1010C0000070114F0021114B00D61049008D1047C0
:1010D000004610440002104200C00F4000800F3E46
:1010E00000420F3C00060F3B00CB0E3800930E373A
:1010F000005C0E3500270E3400F30D3200C10D31B7
:1011000000900D3000600D2E00320D2D00050D2CCD
:1011100000D90C2B00AE0C2900850C29005C0C2793
:1011200000350C27000E0C2600E80B2400C40B240D
:1011300000A00B23007D0B23005A0B2100390B214B
:1011400000180B2000F80A1F00D90A1E00BB0A1E57
:10115000009D0A1D00800A1D00630A1C00470A1B2F
:10116000002C0A1B00110A1A00F7091A00DD0919E0
:1011700000C4091900AB091900920917007B09186E
:1011800000630917004C09160036091600200916DD
:10119000000A091500F5081500E0081400CC081431
:1011A00000B8081400A4081400900813007D081269
:1011B000006B08130058081200460812003408118A
:1011C00000230811001208110001081100F0071097
:1011D00000E0071000D0071000C0071000B0070F94
:1011E00000A107100091070E0083070F0074070F7E
:1011F0000065070E0057070E0049070E003B070D5C
:10120000002E070E0020070D0013070D0006070D26
:1012100000F9060C00ED060D00E0060C00D4060CEB
:1012200000C8060C00BC060C00B0060C00A4060B9F
:101230000099060C008D060B0082060B0077060B4A
:10124000006C060B0061060A0057060B004C060AEC
:101250000042060A0038060A002E060A0024060A82
:10126000001A060A001006090007060A00FD050913
:1012700000F4050900EB050900E2050900D905099C
:1012800000D0050900C7050900BE050900B505081D
:1012900000AD050800A50509009C05080094050897
:1012A000008C050800840508007C0508007405080A
:1012B000006C050700650508005D05070056050878
:1012C000004E0507004705070040050800380507E0
:1012D00000310507002A050700230507001C050645
:1012E00000160507000F05070008050600020507A0
:1012F00000FB040600F5040700EE040600E80406FF
:1013000000E2040700DB040600D5040600CF040653
:1013100000C9040600C3040600BD040600B70406A5
:1013200000B1040500AC040600A6040600A00405F4
:10133000009B04060095040500900406008A04053D
:101340000085040500800406007A04050075040584
:1013500000700405006B04050066040500610405C7
:10136000005C04050057040500520405004D040507
:101370000048040500430405003E0404003A040547
:101380000035040500300404002C04050027040483
:1013900000230405001E0404001A040400160405BA
:1013A00000110404000D04040009040500040404F1
:1013B0000000040400FC030400F8030400F4030428
:1013C00000F0030400EC030400E8030400E4030459
:1013D00000E0030400DC030400D8030400D4030489
:1013E00000D0030400CC030400C8030300C50303BA
:1013F0000024F404D9201BC40C5C0E9804C4095FBB
:101400000265077101F405F900FB04B30048048785
:1014100000C10369005803550003034500BE023AAA
:10142000008402310053022A002902250004022010
:1014300000E4011C00C8011900AF01170098011455
:101440000084011300710110006101100051010EB0
:101450000043010D0036010B002B010B0020010B96
:1014600000150109000C01090003010800FB000838
:1014700000F3000800EB000700E4000600DE0006B1
:1014800000D8000600D2000600CC000500C7000509
:1014900000C2000500BD000400B9000400B500044E
:1014A00000B1000400AD000400A9000400A5000381
:1014B00000A20003009F0004009B000300980003AB
:1014C000009500020093000300900003008D0002CD
:1014D000008B0003008800020086000200840003E5
:1014E00000810002007F0002007D0002007B0002FC
:1014F000007900020077000100760002007400020B
:101500000072000100710002006F0002006D000116
:10151000006C0002006A000100690002006700011F
:101520000066000100650001006400020062000125
:101530000061000100600001005F0002005D000129
:10154000005C0001005B0001005A0001005900012D
:10155000005800010057000100560001005500012D
:10156000005400010053000000530001005200012C
:101570000051000100500001004F0001004E00002A
:10158000004E0001004D0001004C0001004B000026
:10159000004B0001004A0001004900010048000022
:1015A000004800010047000100460000004600011D
:1015B0000045000000450001004400010043000018
:1015C0000043000100420000004200010041000011
:1015D0000041000100400001003F0000003F000109
:1015E000003E0000003E0001003D0000003D000103
:1015F000003C0000003C0000003C0001003B0000FB
:10160000003B0001003A0000003A000100390000F0
:1016100000390001003800000038000000380001E7
:1016200000370000003700010036000000360000DF
:1016300000360001003500000035000000350001D3
:1016400000340000003400000034000100330000CA
:1016500000330000003300010032000000320000BF
:1016600000320001003100000031000000310001B3
:10167000003000000030000000300001002F0000AA
:10168000002F0000002F0000002F0001002E00009E
:10169000002E0000002E0001002D0000002D000093
:1016A000002D0000002D0001002C0000002C000087
:1016B000002C0000002C0001002B0000002B00007B
:1016C000002B0000002B0001002A0000002A00006F
:1016D000002A0000002A0001002900000029000063
:1016E0000029000000290000002900010028000056
:1016F0000028000000280000002800000028000149
:10170000002700000027000000270000002700003D
:10171000002700010026000000260000002600002F
:101720000026000000260001002500000025000022
:101730000025000000250000002500000025000114
:101740000024000000240000002400000024000009
:1017500000240001002300000023000000230000FB
:1017600000230000002300000023000000230001EC
:1017700000220000002200000022000000220000E1
:1017800000220000002200010021000000210000D2
:1017900000210000002100000021000000210000C5
:1017A00000210001002000000020000000200000B7
:1017B00000200000002000000020000000200000A9
:1017C00000200001001F0000001F0000001F00009B
:1017D000001F0000001F0000001F0000001F00018C
:1017E000001E0000001E0000001E0000001E000081
:1017F000002E0A0044656C6574696F6E206661692D
:101800006C65642C2046696C653A200046696C65FD
:101810002064656C657465643A002E0A006F70651B
:101820006E206661696C65642C2046696C653A209F
:1018300000473238205830205930000A0A005374CB
:10184000616E6461726420446576696174696F6E6B
:101850003A20000A004D65616E3A20000A002020FF
:10186000207A3A20000A00793A2000783A20003F96
:10187000537065636966696564206E756D62657233
:10188000206F66206C65677320696E206D6F7665CA
:101890006D656E74206E6F7420706C61757361621B
:1018A0006C652E0A003F5370656369666965642044
:1018B0005920706F736974696F6E206F7574206F33
:1018C000662072616E67652E0A003F53706563691A
:1018D00066696564205820706F736974696F6E2043
:1018E0006F7574206F662072616E67652E0A003F07
:1018F0005370656369666965642073616D706C65BA
:101900002073697A65206E6F7420706C61757361E5
:10191000626C652E0A0046756C6C20737570706F72
:1019200072742061743A20687474703A2F2F336493
:101930007072696E74626F6172642E636F6D2F6670
:101940006F72756D2E7068700A004D3438205A2DF4
:1019500050726F6265205265706561746162696C76
:1019600069747920746573742E2020205665727313
:10197000696F6E20322E30300A003F566572626FFA
:101980007365204C6576656C206E6F7420706C6199
:10199000757361626C652E0A00426564204865615A
:1019A0007465640A0020573A00496E7374616C6C68
:1019B000202564202573206F6E20746865202573B0
:1019C00020686F74656E642E0050757267652046DE
:1019D000696C616D656E740A0053757266696E6735
:1019E00020310A0053757266696E6720300A004222
:1019F00052494748544E4553533A2000220A006545
:101A00006E717565696E67202200220A00656E712D
:101A10007565696E67202200202F0020400020405D
:101A20003A0053757266696E672030200A005430A0
:101A3000004D383420582059205A204500496E73F3
:101A400074616C6C202564202573206F6E2074688F
:101A50006520257320686F74656E642E005265736F
:101A6000656E643A20006F6B0A004475706C6920E3
:101A70004D6F6465204F4E0A004D6972726F72207F
:101A80004D6F6465204F4E0A002C207361766564AB
:101A90005F466C61675F66616E6C617965725F6DF0
:101AA0006972726F723A20002C2073617665645FF0
:101AB0006665656472617465313A20002C2073613B
:101AC0007665645F6665656472617465303A2000AE
:101AD0002C2073617665645F66616E6C61796572F6
:101AE0003A20002C2073617665645F74656D7062C6
:101AF00065643A20002C2073617665645F74656DBF
:101B000070303A20002C2073617665645F74656DD7
:101B100070313A20002C2073617665645F66696CD1
:101B200065706F736974696F6E3A20002C20736161
:101B30007665645F655F706F736974696F6E3A2074
:101B4000002C2073617665645F746F6F6C5F6163F6
:101B5000746976653A20002C2073617665645F7A3B
:101B60005F706F736974696F6E3A20002C20736127
:101B70007665645F795F706F736974696F6E3A2020
:101B8000002C2073617665645F785F706F73697491
:101B9000696F6E3A200053415645205052494E54C9
:101BA000204C4F473A0A006563686F3A00507269EB
:101BB0006E74207265636F766572792075700A00A5
:101BC0004E6F74207072696E74207265636F7665F3
:101BD00072792075700A00535543434553530A00E8
:101BE00056616C756573206F7574206F6620726125
:101BF0006E67650A0056616C756573206F75742099
:101C00006F662072616E67650A0056616C75657358
:101C1000206F7574206F662072616E67650A0056CA
:101C2000616C756573206F7574206F662072616ECC
:101C300067650A00535543434553530A0056616C88
:101C4000756573206F7574206F662072616E6765AD
:101C50000A0056616C756573206F7574206F66207D
:101C600072616E67650A0056616C756573206F75E9
:101C700074206F662072616E67650A0056616C752C
:101C80006573206F7574206F662072616E67650AD8
:101C90000020502000205A20002059200053657455
:101CA000204D35333020582000486F74656E642015
:101CB0006F6666736574733A0054696D6520696E6A
:101CC0006163746976650A0050757267652064699E
:101CD0007374616E63650A005A204F66667365749B
:101CE000206F6B0A005A204F6666736574203A2095
:101CF0000A007A5F6D61783A20007A5F6D696E3A0A
:101D000020005A204F666673657400504F53495443
:101D1000494F4E20484F4D453A20002A2A2A204755
:101D2000656E696520446973636F6E6E6563746583
:101D3000642066726F6D204765744E6578744279D1
:101D4000746521202A2A2A002A2A2A2047656E69DA
:101D50006520456E61626C652041747461636845FD
:101D600076656E7448616E646C6572202121212055
:101D70002A2A2A0043616E6E6F7420656E74657244
:101D8000207375626469723A200057726974696ED3
:101D90006720746F2066696C653A20002E0A006F18
:101DA00070656E206661696C65642C2046696C659F
:101DB0003A20002E0A006F70656E206661696C65BE
:101DC000642C2046696C653A200046696C65207376
:101DD000656C65637465640A002053697A653A200E
:101DE0000046696C65206F70656E65643A20002E50
:101DF0000A006F70656E206661696C65642C204610
:101E0000696C653A20004E6F7720667265736820B2
:101E100066696C653A20004E6F7720646F696E6763
:101E20002066696C653A20002220706F73002220C2
:101E3000706172656E743A2200535542524F555488
:101E4000494E452043414C4C207461726765743A99
:101E50002200747279696E6720746F2063616C6C04
:101E6000207375622D67636F64652066696C6573A6
:101E7000207769746820746F6F206D616E79206CB3
:101E80006576656C732E204D4158206C6576656CC7
:101E90002069733A005341564544205052494E54EC
:101EA0000A007A70726F62653A20005344206361C1
:101EB0007264206F6B0A006F70656E526F6F7420D2
:101EC0006661696C65640A00766F6C756D652E6974
:101ED0006E6974206661696C65640A004572726F90
:101EE000723A00534420696E6974206661696C0A15
:101EF0000070012C0190012701B0012201C0011DD9
:101F000001F00118011002130130020E01600209F4
:101F10000190020401C002FF000003FA004003F533
:101F2000008003F000D003EB002004E6007004E121
:101F300000E004DC004005D700C005D2004006CD1B
:101F400000D006C8008007C3003008BE00F008B902
:101F500000C009B400B00AAF00B00BAA00D00CA5B5
:101F600000000EA000500F9B00C010960050129170
:101F70000000148C00C0158700B0178200B0197DD6
:101F800000D01B7800001E730040206E0090226974
:101F900000F024640040275F0090295A00E02B5590
:101FA00000102E500020304B0010324600E033412C
:101FB0000090353C001037370070383200A0392DC2
:101FC00000B03A2800A03B2300603C1E00103D19E1
:101FD00000903D1400103E0F00703E0A00C03E0508
:101FE00000003F000048797374657265736973205F
:101FF00074656D70657261747572650A0054686508
:10200000726D616C2072756E617761792070726F8C
:1020100074656374696F6E206279204865617465C8
:10202000725F49443A0A004572726F723A00457213
:10203000726F72283833293A2042656420746865CB
:10204000726D6973746F72206E6F7420646574654D
:10205000637465640A004572726F72283832293AD7
:1020600020526967687420746865726D6973746F53
:1020700072206E6F742064657465637465640A0011
:102080004572726F72283831293A204C6566742087
:10209000746865726D6973746F72206E6F7420203E
:1020A00064657465637465640A002053544F50205E
:1020B0005052494E54200A004572726F72283833CC
:1020C000293A2042656420746865726D6973746F83
:1020D00072206E6F742064657465637465640A00B1
:1020E0002053544F50205052494E54200A004572FC
:1020F000726F72283832293A2052696768742074E6
:102100006865726D6973746F72206E6F7420646598
:102110007465637465640A002053544F5020505214
:10212000494E54200A004572726F72283831293A9C
:10213000204C65667420746865726D6973746F7283
:10214000206E6F74202064657465637465640A0092
:102150002053544F50205052494E54200A004552AB
:10216000524F52283839293A204245442069732079
:102170006E6F742068656174696E67002053544FF8
:1021800050205052494E54200A004552524F522876
:102190003839293A20486F74656E642025642069B7
:1021A00073206E6F742068656174696E6700656383
:1021B000686F3A000A0020616E7469686F7261721C
:1021C000690A3A200020686F726172690A20002F44
:1021D0003800766F6C746573200020566F6C7465E0
:1021E0007320636172676F6C20333A200020616E48
:1021F0007469686F726172690A3A200020686F72B0
:102200006172690A20002F3800766F6C7465732044
:102210000020566F6C74657320636172676F6C2069
:10222000323A20000A0020647A333A200020647A8F
:10223000323A200054310054300054300054300001
:102240000A0056756974656E73333A202000417038
:10225000726F78333A202000566F6C746573333A8E
:102260002020000A0056756974656E73323A20208A
:10227000004170726F78323A202000566F6C74659E
:1022800073323A20200056616C6F7220645A333AE0
:1022900020200056616C6F7220645A323A20200070
:1022A0004E6577206F666673657420766572736914
:1022B0006F6E3A20007A335F313A20007A325F3114
:1022C0003A20005A7363726F6C6C5F313A20007A67
:1022D000335F303A20007A325F303A20005A73631D
:1022E000726F6C6C5F303A20005A76616C756520B5
:1022F000616674657220686F6D653A00486F6D6540
:1023000020582F59206265666F7265205A0A003B7B
:102310002020204275696C642074696D653A20251F
:1023200064202573202564202573003B5072696E5C
:10233000742074696D653A20256420257320256416
:10234000202573202564202573003B54494D453AD0
:10235000256C64003B202020506C617374696320FD
:102360007765696768743A2025642E256467003BA9
:1023700046696C616D656E7420757365643A2025DD
:10238000642E25646D2025642E256467003B466914
:102390006C616D656E7420757365643A20256C649C
:1023A0002E256C646D003B4578747275646572739C
:1023B00020757365643A205425642025642E2564B5
:1023C000205425642025642E2564003B20202065B0
:1023D000787472756465724469616D657465722C98
:1023E00025642E25642C25642E2564002E2E2E2097
:1023F00054696D656F757421002A2A2A2047656E1D
:1024000069652057726974654F626A656374202A32
:102410002A2A202D2D2D3E002E2E2E204E414B20DF
:1024200021002A2A2A2047656E696520577269743F
:10243000654F626A656374202A2A2A202D2D2D3E5D
:10244000002E2E2E2041434B2021002A2A2A2047ED
:10245000656E69652057726974654F626A65637459
:10246000202A2A2A202D2D2D3E002A2A2A2047659F
:102470006E6965204261642042797465202A2A2AA7
:10248000202D2D2D3E203078002056616C75653A48
:10249000200020496E6465783A20002A2A2A2047C5
:1024A000656E6965205265706F7274204F626A654F
:1024B0006374202A2A2A204F626A6563743A2000D6
:1024C0002A2A2A2047656E696520436F6E6E656310
:1024D000746564202F2053796E6321202A2A2A00F4
:1024E0002056616C75653A200020496E6465783A23
:1024F00020002A2A2A2047656E6965205265706F80
:102500007274204576656E74202A2A2A204F626AEA
:102510006563743A2000204C656E6774683A200049
:102520002A2A2A2047656E696520526563656976A7
:102530006564204D6167696320446F75626C652036
:102540004279746573202A2A2A20496E6465783A94
:102550002000204C656E6774683A20002A2A2A20E1
:1025600047656E6965205265636569766564204DCF
:1025700061676963204279746573202A2A2A204999
:102580006E6465783A20002A2A2A2047656E6965BC
:10259000204E414B205265636F7665727920212170
:1025A00021202A2A2A002A2A2A2047656E696520C6
:1025B000446973636F6E6E65637465642066726FE1
:1025C0006D20446F4576656E747321202A2A2A0097
:1025D0002A2A2A2047656E696520546F6F6B207424
:1025E0006F6F206C6F6E6720746F2072652D656E43
:1025F00074657220446F4576656E747328292C20AB
:102600007265647563652064656C61797320696EB9
:1026100020636F64652C2073656C662D70726F7417
:10262000656374696F6E20656E61626C65642E20EF
:102630002A2A2A004572726F7220577269746520C7
:10264000454550524F4D0053657474696E67732051
:1026500053746F7265640A00204D696E75746573FA
:10266000203A0020204C617374207072696E7420CF
:1026700074696D652D3E20486F757273203A004C69
:10268000617374207072696E74206475726174690C
:102690006F6E0A002C205468697264204944206ED1
:1026A000756D62657220002C205365636F6E642027
:1026B0004944206E756D6265723A2000202046699B
:1026C000727374204944206E756D6265723A200001
:1026D000554920496E666F726D6174696F6E205343
:1026E000657269616C204E756D6265723A0A0020F0
:1026F0006D2C204531207072696E7420646973748A
:10270000616E63653A2000206B6D2C20453020708F
:1027100072696E742064697374616E63653A200037
:10272000206B6D2C2059207072696E74206469735F
:1027300074616E63653A2000206B6D2C2058312047
:102740007072696E742064697374616E63653A2097
:102750000020432C0A205830207072696E74206467
:10276000697374616E63653A200020432C206D61AB
:10277000782074656D7020423A200020432C206D33
:1027800061782074656D7020523A20002C206D61B4
:10279000782074656D70204C3A2000682C2070728F
:1027A000696E74732066696E69736865643A2000A7
:1027B0002C207072696E74696E672074696D653A59
:1027C000200020207072696E74733A2000535441C7
:1027D00054533A0A0020432C20525F5052494E5421
:1027E0003A200020432C20525F4245443A200020EA
:1027F000432C20525F52454D4F56453A2000202031
:10280000525F494E534552543A200054656D702032
:102810002843293A0A0020432C204C5F5052494E4D
:10282000543A200020432C204C5F4245443A20007B
:1028300020432C204C5F52454D4F56453A200020F6
:10284000204C5F494E534552543A200054656D70F8
:10285000202843293A0A0020562856657273696F6A
:102860006E292000205228426564207269676874CE
:1028700020736372657729200020204D3533312085
:102880004C28426564206C656674207363726577BA
:10289000292000426564204F6666736574732028A2
:1028A0006D6D293A0A002050285A2070726F6265B7
:1028B0002900205A20002059200020204D35333097
:1028C000205820004F66667365747320286D6D294B
:1028D0003A0A00204400204900202D204D33303199
:1028E00020524947485420500020440020490020ED
:1028F000204D333031204C4546542050005049443F
:102900002073657474696E67733A0A00205A002058
:10291000590020204D323036205800486F6D652018
:102920006F666673657420286D6D293A0A0020452C
:1029300000205A0020580020420020540020204D42
:10294000323035205300416476616E6365642076D1
:1029500061726961626C65733A20533D4D696E2006
:10296000666565647261746520286D6D2F73292C0E
:1029700020543D4D696E2074726176656C206665E9
:1029800065647261746520286D6D2F73292C204257
:102990003D6D696E696D756D207365676D656E74EB
:1029A0002074696D6520286D73292C20583D6D6158
:1029B00078696D756D205859206A65726B20286D95
:1029C0006D2F73292C20205A3D6D6178696D756DCE
:1029D000205A206A65726B20286D6D2F73292C2078
:1029E00020453D6D6178696D756D2045206A657281
:1029F0006B20286D6D2F73290A0020540020204D74
:102A0000323034205300416363656C6572617469D0
:102A10006F6E3A20533D616363656C6572617469E2
:102A20006F6E2C20543D7265747261637420616313
:102A300063656C65726174696F6E0A0020450020E1
:102A40005A0020590020204D3230312058004D616D
:102A500078696D756D20416363656C657261746939
:102A60006F6E20286D6D2F7332293A0A00204500C1
:102A7000205A0020590020204D3230332058004D7C
:102A80006178696D756D20666565647261746573E2
:102A900020286D6D2F73293A0A00204500205A0026
:102AA00020590020204D393220580053746570732E
:102AB0002070657220756E69743A0A004D313037A6
:102AC000004E6577206C617965722064657465637A
:102AD0007465640A003B206C61796572003B4C416F
:102AE00059455200256920686F7572732025692049
:102AF0006D696E7574657300446F6E6520707269E0
:102B00006E74696E672066696C650A004D33330028
:102B10005061757365207061726B696E670A00475A
:102B20003639005072696E7465722073746F7070FC
:102B300065642064756520746F206572726F7273AE
:102B40002E2046697820746865206572726F722045
:102B5000616E6420757365204D39393920746F209A
:102B6000726573746172742E202854656D7065727D
:102B700061747572652069732072657365742E20A7
:102B80005365742069742061667465722072657380
:102B900074617274696E67290A006F6B0A004E6F68
:102BA000204C696E65204E756D6265722077697480
:102BB0006820636865636B73756D2C204C6173745A
:102BC000204C696E653A20004E6F20436865636B48
:102BD00073756D2077697468206C696E65206E75F9
:102BE0006D6265722C204C617374204C696E653A7D
:102BF0002000636865636B73756D206D69736D612B
:102C00007463682C204C617374204C696E653A20A3
:102C1000004C696E65204E756D6265722069732087
:102C20006E6F74204C617374204C696E65204E7514
:102C30006D6265722B312C204C617374204C696E6F
:102C4000653A20004D31313000CDAC034400809313
:102C5000430000524300000000000000000000009C
:102C6000007C3C3E5E2B3D3F2F5B5D3B2C2A225C73
:102C7000006563686F3A004D3234004D32332025D1
:102C800073006175746F25692E67005049442041B7
:102C900075746F74756E652066696E6973686564B6
:102CA000210A00504944204175746F74756E652087
:102CB0006661696C6564212074696D656F75740A5D
:102CC0000020403A006F6B20543A006F6B20423A6C
:102CD00000504944204175746F74756E65206661BB
:102CE000696C6564212054656D70657261747572DC
:102CF0006520746F6F20686967680A00204B643A2A
:102D00002000204B693A2000204B703A20002043DD
:102D10006C617373696320504944200A0020547524
:102D20003A2000204B753A2000206D61783A20004F
:102D3000206D696E3A200020643A200020626961AB
:102D4000733A20003B20472D436F64652067656E12
:102D50006572617465642062792053696D706C6975
:102D6000667933442852292056657273696F6E2044
:102D7000256400526561647920746F204C6F616432
:102D80002F556E6C6F6164200A0053746F72656416
:102D90002073657474696E677320726574726965F7
:102DA0007665640A0048617264636F6465642044F8
:102DB000656661756C742053657474696E67732001
:102DC0004C6F616465640A0048617264636F646596
:102DD000642043616C696220616E64205049442024
:102DE00044656661756C742053657474696E6773AD
:102DF000204C6F616465640A0047363920414354B2
:102E00004956415445440A007D029B0211241FBECD
:102E1000CFEFD1E2DEBFCDBF00E00CBF18E0A0E0F5
:102E2000B2E0ECEAF2E903E00BBF02C007900D92BA
:102E3000A833B107D9F72DE1A8E3B8E001C01D928E
:102E4000AF3CB207E1F717E1C5E0D7E100E006C00B
:102E500021970109802FFE010F9437C6C430D10796
:102E600080E00807A9F70F9459A70D9445C90C9461
:102E700000002F923F924F925F926F927F928F92BB
:102E80009F92AF92BF92CF92DF92EF92FF920F93F9
:102E90001F93CF93DF93CDB7DEB7C352D1400FB6A8
:102EA000F894DEBF0FBECDBF2DB73EB7CE5DDE4F6F
:102EB00039832883C252D14011E010938A0880914F
:102EC0006E0881110CC00E940DDF60936A08709338
:102ED0006B0880936C0890936D0810936E08809136
:102EE000620881110DC00E940DDF60935E0870932F
:102EF0005F08809360089093610881E08093620886
:102F000090911D1A409197025091980260919902F8
:102F100070919A02911106C080911E1A882311F4B3
:102F20000C942322453A51056105710509F449C6FF
:102F30000CF0C3C0473551056105710509F4B6C4ED
:102F40000CF05EC0413251056105710511F40C941D
:102F50003B2034F5413151056105710509F4F0C795
:102F600074F4413051056105710509F4E8C240313E
:102F700051056105710509F4BBC10C94D25C433164
:102F800051056105710509F479C40CF497C4403208
:102F900051056105710511F40C944A200C94D25C22
:102FA000413451056105710509F4D7C4ACF44533CA
:102FB00051056105710511F40C94EF204D33510555
:102FC0006105710509F4F0C34133510561057105CF
:102FD00011F00C94D25C2DC4463451056105710585
:102FE00009F4BFC4433551056105710509F4C3C235
:102FF000443451056105710509F489C70C94D25C0C
:10300000473951056105710511F40C94D5204CF533
:10301000463751056105710509F472C474F44835E9
:1030200051056105710509F4E5C34A35510561058E
:10303000710509F412C60C94D25C4E375105610536
:10304000710509F48DC1493851056105710509F40F
:1030500043C24B3751056105710511F00C94D25CE8
:10306000FCC54C3951056105710511F40C946B20B8
:103070009CF44A3951056105710511F40C945920ED
:1030800014F00C946220483951056105710511F462
:103090000C94C4200C94D25C433A5105610571052F
:1030A00009F47CC50CF0B3C54D39510561057105B6
:1030B00011F40C9498200C94D25C4F3E510561059C
:1030C000710509F472C20CF088C0433D51056105D9
:1030D000710511F40C94DF21BCF5483A51056105E6
:1030E000710509F4A7C504F5463A51056105710556
:1030F00009F4FCC4473A51056105710511F00C94BF
:10310000D25C8091830890918408A0918508B09149
:10311000860891608093830890938408A093850823
:10312000B09386080C94D25C4A3A5105610571054A
:1031300009F408C50CF458C54E3B510561057105ED
:1031400009F46AC30C94D25C453E510561057105D2
:1031500009F40BC414F5433E51056105710509F4EA
:1031600017C40CF066C4423E51056105710511F0AB
:103170000C94D25C8091830890918408A09185087A
:10318000B091860882608093830890938408A0930E
:103190008508B09386080C94D25C4D3E51056105BC
:1031A000710509F40BC10CF0C2C14A3E510561051D
:1031B000710511F00C94D25C40E050E06EE681E2C3
:1031C0000F949E5B80915B0A90915C0A9260909351
:1031D0005C0A80935B0A0C94D25C4B3F51056105FD
:1031E000710509F401C484F5473F51056105710576
:1031F00009F432C4A4F4423F51056105710509F494
:10320000BAC1463F51056105710509F44AC4413F01
:1032100051056105710511F00C94D25C90C180914B
:10322000830890918408A0918508B0918608209128
:10323000C5023091C602493F51056105710509F487
:1032400094C40CF466C4B7C34E3631E0530761052D
:10325000710509F4A8C0B4F5483691E05907610535
:10326000710509F4B3C74A36A1E05A076105710533
:1032700009F499C0453651406105710511F00C946F
:10328000D25C40E050E06AE28AE00F949E5B40E04E
:1032900050E064E581E20F949E5B81E08093FC1135
:1032A0001092FF1168ED78E086E20F94AC5C80919B
:1032B0005B0A90915C0A986090935C0A80935B0A29
:1032C0000C94D25C4937E1E05E076105710509F4B1
:1032D00033C64538F1E05F076105710509F46CC13B
:1032E000483751406105710511F00C94D25C94C5CA
:1032F00080912302813419F541E050E066E08BE1D2
:103300000F949E5B41E050E060E181E20F949E5B90
:1033100041E050E062E181E20F949E5B41E050E0C9
:1033200063E181E20F949E5B41E050E06EE781E251
:103330000F949E5B84E4809323020C94D25C8434CB
:1033400011F00C94D25C80915B0A90915C0A8064CD
:1033500090935C0A80935B0A1092FC110C94D25CEF
:1033600040E050E066E08BE10F949E5B40E050E06F
:1033700060E181E20F949E5B40E050E062E181E217
:103380000F949E5B40E050E063E181E20F949E5B0E
:1033900040E050E06EE781E20F949E5B81E4809311
:1033A00023020C94D25C80915B0A90915C0A92603B
:1033B00090935C0A80935B0A0C94D25C8091230208
:1033C000823419F583E48093230241E050E063E006
:1033D0008BE10F949E5B41E050E067E581E20F9442
:1033E0009E5B41E050E066E781E20F949E5B41E026
:1033F00050E06DEE81E20F949E5B41E050E069E8A1
:1034000081E20F949E5B0C94D25C833411F00C9497
:10341000D25C11E010937F0840E050E068E981E25F
:103420000F949E5B40E050E067E981E20F949E5B61
:1034300040E050E06CE981E20F949E5B40E050E098
:103440006DE981E20F949E5B41E050E06AE481E225
:103450000F949E5B40E050E06CE28AE00F949E5B2C
:103460001093FF118FEF9FEF90935F0280935E02A6
:1034700040E050E06AE981E20F949E5B40E050E05A
:103480006BE981E20F949E5B6091901D7091911D9C
:103490008091921D9091931D0F945FC3AB0166E2E2
:1034A00089E00F949E5B6091941D7091951D8091B1
:1034B000961D9091971D0F945FC3AB0167E289E061
:1034C0000F949E5B40E050E068E289E00F949E5BC1
:1034D0001092FC110C94D25C80912302833411F081
:1034E0000C94D25C82E48093230240E050E063E0DD
:1034F0008BE10F949E5B40E050E067E581E20F9422
:103500009E5B40E050E066E781E20F949E5B40E006
:1035100050E06DEE81E20F949E5B40E050E069E880
:1035200081E20F949E5B1092FF110C94D25C40E0FC
:1035300050E064E58AE00F949E5B0C94D25C10929C
:10354000FC1180E00F94E73480915B0A90915C0A53
:10355000826090935C0A80935B0A81E080930312FF
:1035600040E050E068E08AE00F949E5B81E4809345
:1035700004120C94D25C8091600A882311F40C949C
:10358000D25C41E050E080915D0A8A3011F440E065
:1035900050E066E18BE10F949E5B40E050E062E515
:1035A0008AE00F949E5B0C94D25C89E480931D02A8
:1035B0000F94320D0C94D25C8091BD1D9091BE1D74
:1035C0009093CB118093CA110F9436408091BF1D08
:1035D0009091C01D9093CD118093CC110F943640E3
:1035E00082E48093230282E580931D0281E0809330
:1035F000FF111092FC1180915D0AE1E08A3009F41C
:10360000E0E0E093F709F0E0EE0FFF1FE653FE4E17
:103610002081318130935D0820935C088A3029F441
:1036200080917D1190917E1104C0809181119091C3
:103630008211918380830F94364081E48093041239
:1036400040E050E068E08AE00F949E5B40E050E08C
:1036500064E581E20F949E5B80E090E0A3E4B3E434
:103660008093ED119093EE11A093EF11B093F011B0
:103670008090E3099090E409A090E509B090E609F4
:103680002091E9113091EA114091EB115091EC1128
:103690006091E5117091E6118091E7119091E81128
:1036A000E8ED6E2EE1E17E2E7F926F92F1EFCF2E4C
:1036B000F1E1DF2EE12CF12C03E413E40E94BABA0D
:1036C0000F949C4380E090E0A0E2B1E48093E91184
:1036D0009093EA11A093EB11B093EC118090DF0965
:1036E0009090E009A090E109B090E209E090ED111E
:1036F000F090EE110091EF111091F0116091E51131
:103700007091E6118091E7119091E8117F926F928C
:1037100020E030E040E251E40E94BABA0F949C43AA
:103720000F900F900F900F90809104128E3411F42F
:103730000C94E429109204120E94496440E050E085
:1037400060E289E00F949E5B40E050E064E28AE032
:103750000F949E5B0091F70910E0F801EE0FFF1F38
:10376000EE0FFF1FE057F24E6081718182819381DD
:103770000F945FC370937D0860937C08000F111F46
:10378000F801E653FE4E808191810A9790937B0861
:1037900080937A0889E4809304120E94496481E04E
:1037A00080937E080C94D25C8091230240E050E02C
:1037B000813441F469E08AE00F949E5B68ED78E023
:1037C00082E007C06AE28AE00F949E5B68ED78E0D1
:1037D00086E20F94AC5C80915B0A90915C0A9860E1
:1037E00090935C0A80935B0A1092FF111092FC1177
:1037F0000C94D25C8091630981110C94D25C80910D
:103800001E1A81110C94D25C40E050E069E38AE01A
:103810000F949E5B0C94D25C8091630981110C948F
:10382000D25C40E050E061E08AE00F949E5B0C9433
:10383000D25C8091630981110C94D25C10912302B7
:10384000113411F00C94D25C1092FC1110921D1ADC
:1038500081E080931E1A40E050E068E08AE00F9417
:103860009E5B1093041280915B0A90915C0A9460B5
:1038700090935C0A80935B0A0C94D25C8091230243
:10388000813439F440E050E061E08AE00F949E5BBF
:10389000ADCF843409F0AACF80915B0A90915C0A85
:1038A000906190935C0A80935B0AA0CF8091230281
:1038B000823441F3833409F099CFEECF8091230213
:1038C000992369F0813459F480915B0A90915C0AE4
:1038D000886090935C0A80935B0A0C94D25C843479
:1038E00011F00C94D25C80915B0A90915C0A806824
:1038F00090935C0A80935B0A1092FC110C94D25C4A
:1039000080911E1A882311F40C94D25C80912302BA
:10391000823459F480915B0A90915C0A80619093A3
:103920005C0A80935B0A0C94D25C833411F00C9493
:10393000D25C40E050E066E18AE00F949E5B41E09B
:1039400050E064E581E20F949E5B82E580931D0266
:1039500081E08093FF110C94D25C0F94F5070C94D6
:10396000D25C0F947F070C94D25C80918308909175
:103970008408A0918508B0918608846080938308AC
:1039800090938408A0938508B09386080C94D25C29
:103990008091830890918408A0918508B091860851
:1039A00088608093830890938408A0938508B093DF
:1039B00086080C94D25C2330310559F4A1608093C1
:1039C000830890938408A0938508B09386080C948C
:1039D000D25C84608093830890938408A0938508C8
:1039E000B09386080C94D25C2091C5023091C60237
:1039F0008091830890918408A0918508B0918608F1
:103A00002330310559F4A260809383089093840891
:103A1000A0938508B09386080C94D25C886080934C
:103A2000830890938408A0938508B09386080C942B
:103A3000D25C8091830890918408A0918508B09110
:103A4000860881608093830890938408A0938508FA
:103A5000B09386080C94D25C2091C5023091C602C6
:103A60008091830890918408A0918508B091860880
:103A70002330310559F49061809383089093840832
:103A8000A0938508B09386080C94D25C81608093E3
:103A9000830890938408A0938508B09386080C94BB
:103AA000D25C2091C5023091C6028091830890912A
:103AB0008408A0918508B09186082330310559F417
:103AC00090628093830890938408A0938508B093B4
:103AD00086080C94D25C826080938308909384085B
:103AE000A0938508B09386080C94D25C80918308DB
:103AF00090918408A0918508B09186088062809397
:103B0000830890938408A0938508B09386080C944A
:103B1000D25C2330310559F49064809383089093EC
:103B20008408A0938508B09386080C94D25C8062C8
:103B30008093830890938408A0938508B0938608A7
:103B40000C94D25C8091830890918408A0918508A0
:103B5000B091860880618093830890938408A09335
:103B60008508B09386080C94D25C2330310559F453
:103B700090688093830890938408A0938508B093FD
:103B800086080C94D25C80618093830890938408AB
:103B9000A0938508B09386080C94D25C809183082A
:103BA00090918408A0918508B091860880648093E4
:103BB000830890938408A0938508B09386080C949A
:103BC000D25C8091830890918408A0918508B0917F
:103BD000860880688093830890938408A093850862
:103BE000B09386080C94D25C8091830890918408ED
:103BF000A0918508B0918608926080938308909385
:103C00008408A0938508B09386080C94D25C8091B8
:103C1000830890918408A0918508B09186089460EB
:103C20008093830890938408A0938508B0938608B6
:103C30000C94D25C8091830890918408A0918508AF
:103C4000B091860898608093830890938408A0932D
:103C50008508B09386080C94D25C4A3551056105FD
:103C6000710519F41092F70903C081E08093F709F8
:103C70008091F709E82FF0E0EE0FFF1FE653FE4EAC
:103C80002081318130935D0820935C08811105C04B
:103C900080917D1190917E1104C08091811190914D
:103CA0008211918380830F94364081E480930412C3
:103CB00040E050E068E08AE00F949E5B40E050E016
:103CC00064E581E20F949E5B80E090E0A3E4B3E4BE
:103CD0008093ED119093EE11A093EF11B093F0113A
:103CE0008090E3099090E409A090E509B090E6097E
:103CF0002091E9113091EA114091EB115091EC11B2
:103D00006091E5117091E6118091E7119091E811B1
:103D1000E8ED6E2EE1E17E2E7F926F92F1EFCF2ED5
:103D2000F1E1DF2EE12CF12C03E413E40E94BABA96
:103D30000F949C4380E090E0A0E2B1E48093E9110D
:103D40009093EA11A093EB11B093EC118090DF09EE
:103D50009090E009A090E109B090E209E090ED11A7
:103D6000F090EE110091EF111091F0116091E511BA
:103D70007091E6118091E7119091E8117F926F9216
:103D800020E030E040E251E40E94BABA0F949C4334
:103D90000F900F900F900F90809104128E3411F4B9
:103DA0000C94E429109204120E94496440E050E00F
:103DB00060E289E00F949E5B40E050E064E28AE0BC
:103DC0000F949E5B0091F70910E0F801EE0FFF1FC2
:103DD000EE0FFF1FE057F24E608171818281938167
:103DE0000F945FC370937D0860937C08000F111FD0
:103DF000F801E653FE4E808191810A9790937B08EB
:103E000080937A0889E4809304120E94496481E0D7
:103E100080937E080C94D25C40E050E060E289E040
:103E20000F949E5B40E050E064E28AE00F949E5B5A
:103E300089E4809304120E9449640091F7090111FA
:103E40001DC080917F11909180116091211170911E
:103E50002211681779072CF4BC01990F880B990B74
:103E600004C0072E000C880B990B0F942ABB0F94EB
:103E70005FC37093CB116093CA1120C080918311EE
:103E80009091841160911B1170911C116817790732
:103E90002CF4BC01990F880B990B04C0072E000C61
:103EA000880B990B0F942ABB10E0000F111F0653CB
:103EB0001E4E0F945FC3D8016D937C930F943640D0
:103EC0000091F70910E0F801EE0FFF1FEE0FFF1F42
:103ED000E057F24E60817181828193810F945FC3BC
:103EE00070937D0860937C08000F111FF801E65362
:103EF000FE4E808191810A9790937B0880937A0887
:103F00000E94496481E080937E080C94D25C809189
:103F10008B02882311F40C94E05C8091F7098111E5
:103F200002C08AE101C086E30E947CDD892B11F08A
:103F30000C94E05C0C94D25C0F946B080C94D25CF3
:103F40008091810881FF02C00C94D25C90913B0A61
:103F500080913A0A98130C94605E40E050E06BE068
:103F600084E10F949E5B40E050E065E18AE00F94AD
:103F70009E5B82E48093041280938412E091F7099F
:103F800034E0E39FF0011124E555FD4F608171811C
:103F9000828193816093E5117093E6118093E7111C
:103FA0009093E811E090ED11F090EE110091EF1177
:103FB0001091F0112091E9113091EA114091EB112B
:103FC0005091EC11E7EFF9E0FF93EF93812C912CE6
:103FD000E8E4AE2EE3E4BE2EF1EFCF2EF1E1DF2ECA
:103FE0000E94BABAE090ED11F090EE110091EF113D
:103FF0001091F0112091E9113091EA114091EB11EB
:104000005091EC11E091D81164E0E69FF001112489
:10401000E555FD4F60817181828193810F942E5D02
:10402000E091D81184E0E89FF0011124E555FD4F9F
:1040300080819181A281B3818093E5119093E611F3
:10404000A093E711B093E811E091F709F0E0EE0FCB
:10405000FF1FE653FE4E80915C0890915D089183AE
:1040600080830F9436401092600A0F949C430F9007
:104070000F900C94D25C8091810881FF02C00C9457
:10408000D25C90913B0A20913A0A29130C94645E09
:104090000C94675E8091810881FF02C00C94D25C11
:1040A00090913B0A20913A0A29130C94645E0C9477
:1040B0006B5E90913B0A80913A0A98130C94D25C03
:1040C0000C946F5E90913B0A80913A0A98130C947D
:1040D000D25C0C94FA5EE0915E02F0915F02EF3FD9
:1040E0009FEFF90711F40C94D25CEE0FFF1FE6531B
:1040F000FE4E808191818B33A1E09A0714F00C94DD
:10410000D25C0596918380830F9436400F9436409D
:10411000E0915E02F0915F02EE0FFF1FE653FE4E4C
:104120004081518168E289E00F949E5B0C94D25CDF
:10413000E0915E02F0915F02EF3FBFEFFB0711F4E9
:104140000C94D25CEE0FFF1FE653FE4E80819181EE
:104150001816190614F00C94D25C0597918380838D
:104160000F9436400F943640E0915E02F0915F026A
:10417000EE0FFF1FE653FE4E4081518168E289E059
:104180000F949E5B0C94D25C80915E0290915F02D2
:10419000019611F40C94D25C90913B0A80913A0AFA
:1041A00098130C94645E0C94885F80915E029091E9
:1041B0005F02019611F40C94D25C90913B0A8091BD
:1041C0003A0A98130C94645E0C948E5F90913B0AAB
:1041D00080913A0A98130C94D25C0C94945F80916D
:1041E0008412823411F00C94D25C109204128091EB
:1041F0005B0A90915C0A8D7F90935C0A80935B0AC6
:1042000080911D02823531F489E480931D020F9460
:10421000320DD1C0893409F0CEC081E480930412FC
:1042200040E050E068E08AE00F949E5B4090F70821
:104230005090F8086090F9087090FA084092E911DF
:104240005092EA116092EB117092EC1120E030E094
:1042500040E752E460914402709145028091460229
:10426000909147020F94B3C24B015C01E090ED11B5
:10427000F090EE110091EF111091F0116091E511A5
:104280007091E6118091E7119091E81128ED31E1EC
:104290003F932F9321EFC22E21E1D22EA301920151
:1042A0000E94BABA0F949C430F900F908091041211
:1042B0008E3411F40C94E42920E030E040E251E423
:1042C0006091FB087091FC088091FD089091FE08B8
:1042D0000F94C5C17B018C016093ED117093EE11B9
:1042E0008093EF119093F0118091F2088983809070
:1042F000480290904902A0904A02B0904B0220914F
:10430000E9113091EA114091EB115091EC1160915B
:10431000E5117091E6118091E7119091E811FE018D
:104320003196FF93EF930E94BABA0F949C430F907B
:104330000F90809104128E3411F40C94E4291092A1
:10434000041282E48093230240E050E063E08BE1BA
:104350000F949E5B40E050E067E581E20F949E5B26
:1043600040E050E066E781E20F949E5B40E050E061
:104370006DEE81E20F949E5B40E050E069E881E2DF
:104380000F949E5B40E050E06AE28AE00F949E5BEF
:1043900081E08093FC111092FF1168ED78E086E2D5
:1043A0000F94AC5C80915B0A90915C0A986090934A
:1043B0005C0A80935B0A109284120C94D25C809108
:1043C0001611109204128823E9F0109216118091B0
:1043D0005B0A90915C0A986090935C0A80935B0AF8
:1043E0008091230240E050E0813431F469E08AE0BA
:1043F0000F949E5B0C94D25C6AE28AE00F949E5B01
:104400000C94D25C10928B111092FF11EBE8F8E043
:1044100084918F01882351F0082E000C990B0F9482
:10442000067D0F5F1F4FF8018491F4CF1092890829
:1044300081E00F94AC0240E050E065E08AE00F9428
:104440009E5B0C94D25C8091D308282F287083FF48
:1044500090C39091D708923008F48BC3413B51052B
:104460006105710509F4A8C0B4F54436510561052C
:10447000710509F4A1C1A4F44E355105610571051A
:1044800009F4F0C24F3551056105710509F41CC3EB
:10449000453351056105710511F00C94D25C27C3B9
:1044A000403A51056105710509F4C8C0423A510509
:1044B0006105710509F46AC043385105610571054C
:1044C00011F00C94D25C40E050E06DE68AE00F946D
:1044D0009E5B0C94D25C4233F1E05F07610571058D
:1044E00009F45CC13CF5453C51056105710509F4D1
:1044F00079C04C3C51056105710509F489C0423B06
:1045000051056105710511F00C94D25C0F9461079F
:1045100041E050E062EB81E20F949E5B41E050E0AD
:1045200060EA81E20F949E5B109275021092740211
:104530000C94D25C463331E053076105710509F4F0
:1045400017C1ACF4433351406105710511F00C946F
:10455000D25C8DEF9FEF909386128093851240E09E
:1045600050E06AE08AE00F949E5B0C94D25C4E3778
:10457000A1E05A076105710509F4F2C148385140BC
:104580006105710509F424C10C94D25C0F94610794
:1045900041E050E062EA81E20F949E5B41E050E02E
:1045A00060EA81E20F949E5B8EEF9FEF909375021D
:1045B000809374020C94D25C0F94610741E050E048
:1045C00061EB81E20F949E5B41E050E060EA81E2A2
:1045D0000F949E5B8FEF9FEF909375028093740210
:1045E0000C94D25C0F94610741E050E065EC81E2ED
:1045F0000F949E5B41E050E060EA81E20F949E5B85
:1046000081E090E090937502809374020C94D25CE8
:104610000F94610741E050E06CEC81E20F949E5BE7
:1046200041E050E060EA81E20F949E5B82E090E01E
:1046300090937502809374020C94D25C0091740282
:104640001091750298012E5F3F4F2530310510F013
:104650000C94D25C9230D9F583E08093D70840E087
:1046600050E061E18AE00F949E5B80E58093041244
:104670008091D408800F8093D40800E010E020E0FF
:1046800030E04CE553EC60E070E088E393EC0F948D
:10469000809E0F94610780E697E090937502809367
:1046A000740240E050E060EA81E20F949E5B42E0D9
:1046B00050E06CE08BE10F949E5B40E050E069E1DC
:1046C0008AE00F949E5B109204120C94D25C93309B
:1046D000D9F584E08093D70840E050E061E18AE0BA
:1046E0000F949E5B80E5809304128091D508800F23
:1046F0008093D50800E010E020E030E04CE553EC7A
:1047000060E070E080E493E40F94809E0F94610772
:1047100080E697E0909375028093740240E050E049
:1047200060EA81E20F949E5B42E050E06CE08BE136
:104730000F949E5B40E050E069E18AE00F949E5B3D
:10474000109204120C94D25C943011F00C94D25C50
:104750008091D608800F8093D60840E050E06EE24A
:104760008AE00F949E5B8FE4809304120C94D25CD9
:104770000F94610740E050E060EA81E20F949E5B95
:1047800040E050E069E18AE00F949E5B80E697E0AC
:1047900090937502809374020C94D25C83E090E055
:1047A000909386128093851240E050E06AE08AE0A0
:1047B0000F949E5B0C94D25C10928612109285121C
:1047C00040E050E06AE08AE00F949E5B0C94D25C7B
:1047D00040E050E068E08AE00F949E5B81E48093C3
:1047E000041241E061E081E00E9475CC1092041255
:1047F0000F949C430F94D009109185128091D70893
:104800008230B1F540E050E061E18AE00F949E5BB8
:1048100080E5809304120091D408010F0093D4081E
:10482000002E000C110B20E030E0A901CA01B901F3
:104830000F94809E0F94610780E697E09093750235
:104840008093740240E050E060EA81E20F949E5B46
:1048500042E050E06CE08BE10F949E5B40E050E062
:1048600069E18AE00F949E5B109204120C94D25C72
:104870008330C9F540E050E061E18AE00F949E5B2F
:1048800080E5809304120091D508010F0093D508AC
:10489000002E000C110B20E030E04CE553EC60E002
:1048A00070E088E393EC0F94809E0F94610780E69C
:1048B00097E0909375028093740240E050E060EAC4
:1048C00081E20F949E5B42E050E06CE08BE10F943C
:1048D0009E5B40E050E069E18AE00F949E5B10929D
:1048E00004120C94D25C843011F00C94D25C40E041
:1048F00050E061E18AE00F949E5B80E580930412B2
:104900000091D608010F0093D608002E000C110B61
:1049100020E030E04CE553EC60E070E080E493E4AC
:104920000F94809E0F94610780E697E09093750244
:104930008093740240E050E060EA81E20F949E5B55
:1049400042E050E06CE08BE10F949E5B40E050E071
:1049500069E18AE00F949E5B109204120C94D25C81
:10496000109204128091D4084091D508042F081B9E
:104970004091D608142F181B602F002E000C770BC7
:10498000880B990B0F942ABB2DEC3CEC4CEC5DEBA7
:104990000F9432B66093530970935409809355096C
:1049A00090935609612F012E000C770B880B990B01
:1049B0000F942ABB2DEC3CEC4CEC5DEB0F9432B623
:1049C00060934F0970935009809351099093520955
:1049D0000023A1F040E050E06FE18AE00F949E5B7D
:1049E00007FF07C0E02FFF27E1950CF4F09508E0E2
:1049F0000E0F402F000F550B64E015C01123B9F0C6
:104A000040E050E060E28AE00F949E5B17FF07C031
:104A1000212F332721950CF4309518E0120F412FE8
:104A2000110F550B65E08BE10F949E5B11C014E4F0
:104A30001093841240E050E06BE084E10F949E5BA1
:104A400040E050E065E18AE00F949E5B1093041211
:104A500088EE90E090934E0980934D090F94EB6798
:104A60000C94D25C4091D6088091D408142F181B66
:104A7000C1F040E050E060E28AE00F949E5B17FFD7
:104A800007C0812F992781950CF4909518E0180F95
:104A9000412F110F550B65E08BE10F949E5B0C9439
:104AA000D25C14E41093841240E050E06BE084E1A7
:104AB0000F949E5B40E050E065E18AE00F949E5BBE
:104AC000109304120C94D25C14E41093841240E00E
:104AD00050E06BE084E10F949E5B40E050E065E1C4
:104AE0008AE00F949E5B109304120C94D25C909118
:104AF0008412943411F00C94D25C1092D708877F02
:104B00008093D308109204121092C5111092C41110
:104B10000F94F23F1092CB111092CA110F943640AD
:104B20001092CD111092CC110F94364010928B112F
:104B30001092FF11E0E8F8E084918F01882351F092
:104B4000082E000C990B0F94067D0F5F1F4FF80184
:104B50008491F4CF1092890880E00F94AC0240E079
:104B600050E065E08AE00F949E5B109284120C94F2
:104B7000D25C4E38F1E05F0710F00C94D25CFA0181
:104B80008827EE58FF4F8F4F0D9437C68091210232
:104B900090912202826090932202809321020C94D1
:104BA000D25C809121029091220284609093220233
:104BB000809321020C94D25C809121029091220278
:104BC000886090932202809321020C94D25C8091A1
:104BD000210290912202806190932202809321020F
:104BE0000C94D25C80912102909122028062909379
:104BF0002202809321020C94D25C0F943D360097E0
:104C000081F480912102909122029460909322027B
:104C1000809321028091B51181508093B5110C943D
:104C2000D25C019711F00C94D25C8091210290919A
:104C300022029460909322028093210240E050E08F
:104C400067E381E20F949E5B40E050E061E08BE11E
:104C50000F949E5B8091B51181508093B5110C9497
:104C6000D25C10928B111092FF11E5E7F8E084916D
:104C70008F01882351F0082E000C990B0F94067DAC
:104C80000F5F1F4FF8018491F4CF1092890881E0E3
:104C90000F94AC0240E050E065E08AE00F949E5B28
:104CA0000C94D25C80911F1A882311F40C94D25C6E
:104CB00041E061E080E29AE10F94D0388FEF9FEFFE
:104CC00090930E1A80930D1A412C512C32017301CE
:104CD000620100E010E08CEBA82E89E1B82E9E0165
:104CE0002F5F3F4F190188248394912C4091BE1C63
:104CF0005091BF1C6091C01C7091C11C8091191C07
:104D000090911A1CA0911B1CB0911C1C8417950734
:104D1000A607B70708F06DC0D501E2E31D92EA953A
:104D2000E9F70F94B45E0196D9F41092081A109224
:104D3000071A10920A1A1092091A81E090E09093D3
:104D40000C1A80930B1A1092181A1092171A1092BC
:104D50001A1A1092191A80E00F94E7340C94B15F7C
:104D60000115110521F52FEF3FEF3A8329833F927B
:104D70002F9244E45DE25F934F93BF92AF920F9402
:104D800003BB89819A810F900F900F900F900F9025
:104D90000F90019639F090920E1A80920D1A07E04A
:104DA00010E021C010920E1A10920D1A1CC080E063
:104DB0000F948EB36B017C0181E00F948EB32B01B5
:104DC0003C0120E030E0A901C701B6010F949DC469
:104DD00018167CF020E030E0A901C301B2010F9465
:104DE0009DC4181634F00F5F1F4F0E3111050CF4DF
:104DF0007DCF80E00F94E73420E030E0A901C701C7
:104E0000B6010F9424BB18165CF020E030E0A90135
:104E1000C301B2010F9424BB181614F00C94B15FB7
:104E20008090760290907702A0907802B0907902FC
:104E3000A5019401C701B6010F9424BB811114C0D0
:104E400020E030E0A901C701B6010F949DC41816F7
:104E50005CF420E030E0A901C301B2010F9424BB4F
:104E6000181614F00C94B15F20917A0230917B02F5
:104E700040917C0250917D02C65EDE4F28833983CB
:104E80004A835B83CA51D140C301B2010F9424BB52
:104E900081111EC020E030E0A901C301B2010F94CE
:104EA0009DC418165CF420E030E0A901C701B601EA
:104EB0000F9424BB181614F00C94B15FA501940153
:104EC000C701B6010F9424BB882311F40C94B15F81
:104ED00020E030E0A901C701B6010F9424BB20E017
:104EE00030E040E251E418161CF0C501B40102C0E4
:104EF000C701B6010F9432B60F945FC360930802E6
:104F000020E030E0A901C301B2010F9424BB20E0EE
:104F100030E040E251E418164CF0C65EDE4F688186
:104F200079818A819B81CA51D14002C0C301B201FB
:104F30000F9432B60F945FC36093090240E050E0D3
:104F40006FE58AE00F949E5B609176027091770224
:104F500080917802909179020F945FC3AB016DE468
:104F600089E00F949E5B20E030E040E251E46091E4
:104F700076027091770280917802909179020F9475
:104F800032B60F945FC30AE010E0CB01B8010F9472
:104F900008C6AC016EE489E00F949E5B60917A02D2
:104FA00070917B0280917C0290917D020F945FC38F
:104FB000AB016FE489E00F949E5B20E030E040E2BB
:104FC00051E460917A0270917B0280917C02909111
:104FD0007D020F9432B60F945FC3CB01B8010F94DA
:104FE00008C6AC0160E589E00F949E5B80910802E1
:104FF0001AE0612F0F94E7C5482F880F550B61E524
:1050000089E00F949E5B80910802612F0F94E7C5A1
:10501000492F990F550B62E589E00F949E5B8091B3
:105020000902612F0F94E7C5482F880F550B63E5E0
:1050300089E00F949E5B80910902612F0F94E7C570
:10504000492F990F550B64E589E00F949E5BBCC115
:1050500080911F1A882311F40C94D25C80916F1AEE
:1050600081110C94D25CCDB6DEB680918708909108
:1050700088080F944A38E0E2FAE1DF010D90002041
:10508000E9F78DB79EB78A1B9B0B9C01245E354EBA
:105090000FB6F8943EBF0FBE2DBF0DB71EB70F5F02
:1050A0001F4FFF93EF9385E198E09F938F931F939A
:1050B0000F930F94D5BA780134E0E30EF11C0F90F2
:1050C0000F900F900F900F900F90D7018C91882325
:1050D00049F0082E000C990B0F94B5C8F701819385
:1050E0007F01F3CFC8010F941E0381E198E00F9474
:1050F000AF020FB6F894DEBE0FBECDBE0C94D25CEC
:1051000081E080938B118091210290912202926024
:1051100090932202809321020C94D25C8091210210
:1051200090912202916090932202809321020C942C
:10513000D25C809121029091220280689093220299
:10514000809321020C94D25C40E050E062E18AE05E
:105150000F949E5B0C94D25C40E050E06CE18AE0DE
:105160000F949E5B80E00F94AC0210929F1D1092F2
:105170009E1D10929D1D81E0809389080C94D25C45
:1051800010928B111092FF11E6E0F8E084918F01EC
:10519000882351F0082E000C990B0F94067D0F5FA9
:1051A0001F4FF8018491F4CF109289080E9449643E
:1051B00081E00F94AC0240E050E065E08AE00F949B
:1051C0009E5B0C94D25C8091CA119091CB11892B7B
:1051D00029F01092CB111092CA1108C08091130AC5
:1051E0009091140A9093CB118093CA110F9436407A
:1051F00010929F1D0C94D25C8091CC119091CD1196
:10520000892B29F01092CD111092CC1108C08091F9
:10521000100A9091110A9093CD118093CC110F94A4
:10522000364010929E1D0C94D25C8091C4119091D6
:10523000C511892B29F01092C5111092C4111CC000
:105240008091D1089091D2086091CF087091D008D8
:10525000681779072CF4BC01990F880B990B04C0CF
:10526000072E000C880B990B0F942ABB0F945FC379
:105270007093C5116093C4110F94F23F10929D1D5D
:105280000C94D25C82E098E00F94AF020C94D25C54
:1052900040E050E06EE18AE00F949E5B0C94D25C9B
:1052A00040E050E065E08AE00F949E5B10928B1125
:1052B0001092FF11E7EFF7E084918F01882351F0FE
:1052C000082E000C990B0F94067D0F5F1F4FF801FD
:1052D0008491F4CF1092890888E793E09093C402F8
:1052E0008093C3020F94EB670C94D25C40E050E0D3
:1052F0006AE18AE00F949E5B0F94463380911F1AF7
:10530000882311F40C94D25C8091B4118093B51170
:10531000BCE8EB2EB1E1FB2E10EAC12E11E1D12E3B
:1053200000E010E08091B41190E008171907FCF438
:1053300060E27AE187E99AE10F94D3745701D701CB
:105340008D919D917D010F944A38F5018081918165
:10535000D6018D939D936D0180916F1A882321F062
:1053600080E29AE10F94DF3C0F5F1F4FDBCF87E0B5
:1053700090E00F94B8110C94D25C8091C30290918C
:10538000C4028036974041F488E793E09093C402CA
:105390008093C3020F94EB6740E050E068E08AE03E
:1053A0000F949E5B81E480930412809164098823AA
:1053B000D1F040E061E081E00E9475CC0F949C4305
:1053C000809104128E3489F48FEF9FEFDC0180937B
:1053D000970290939802A0939902B0939A02109228
:1053E0008A080C94246441E0E5CF81E00F94AC027C
:1053F0001092041284EF97E00F94AF020F949C4335
:10540000809104128E3401F340E050E06BE08AE0BA
:105410000F949E5B0C94D25C40E050E064E08AE024
:105420000F949E5B0C94D25C40E050E064E28AE012
:105430000F949E5B80919C1D826080939C1D89E4EB
:105440008093041240E050E060E289E00F949E5B9C
:105450006091130A7091140A072E000C880B990BA7
:105460000F942ABB40E050E00F9460840F94EB67E8
:105470006BE974E083E997E10F940B7D6EE974E0CA
:1054800083E997E10F940B7D6091150370911603EA
:10549000809117039091180342E050E00F94A036DA
:1054A00062EA74E083E997E10F940B7D2DEB37E31B
:1054B00046E05EE360910D0370910E0380910F034F
:1054C000909110030F94B3C242E050E00F94A036C5
:1054D00066EA74E083E997E10F940B7D2DEB37E3E7
:1054E00046E05EE360910503709106038091070337
:1054F000909108030F9432B642E050E00F94A0362A
:105500006091100A7091110A072E000C880B990BFC
:105510000F942ABB41E050E00F9460840F94EB6736
:105520006BE974E083E997E10F940B7D6EE974E019
:1055300083E997E10F940B7D6091190370911A0331
:1055400080911B0390911C0342E050E00F94A03621
:1055500062EA74E083E997E10F940B7D2DEB37E36A
:1055600046E05EE360911103709112038091130392
:10557000909114030F94B3C242E050E00F94A03610
:1055800066EA74E083E997E10F940B7D2DEB37E336
:1055900046E05EE36091090370910A0380910B037A
:1055A00090910C030F9432B642E050E00F94A03675
:1055B000109204120E94496440E050E06BE084E1E4
:1055C0000F949E5B40E050E065E18AE00F949E5BA3
:1055D00084E480938412809304120C94D25C40E0A3
:1055E00050E068E28AE00F949E5B0C94D25C40E04D
:1055F00050E062E18AE00F949E5B0C94D25C1092C2
:105600008B111092FF11E9EEF7E084918F0188234E
:1056100051F0082E000C990B0F94067D0F5F1F4F61
:10562000F8018491F4CF109289080E94496440E007
:1056300050E065E08AE00F949E5B0C94D25C40E001
:1056400050E062E18AE00F949E5B0C94D25C82E5AC
:1056500080931D0280919C1D816080939C1D40E081
:1056600050E06BE581E20F949E5B40E050E06CE51A
:1056700081E20F949E5B40E050E060E08BE10F948C
:105680009E5B40E050E06AE781E20F949E5B40E061
:1056900050E069E781E20F949E5B40E050E06DE1ED
:1056A0008AE00F949E5B8FEF8093F7090C94D25C95
:1056B00040E050E06CE68AE00F949E5B0C94D25C74
:1056C00040E050E062E18AE00F949E5B40E050E0F1
:1056D0006BE581E20F949E5B40E050E06CE581E277
:1056E0000F949E5B40E050E060E08BE10F949E5B86
:1056F00040E050E06AE781E20F949E5B40E050E0BA
:1057000069E781E20F949E5B80919C1D8E7F809360
:105710009C1D0C94D25C10928B111092FF11EEED37
:10572000F7E084918F01882351F0082E000C990B2B
:105730000F94067D0F5F1F4FF8018491F4CF1092F4
:10574000890840E050E065E08AE00F949E5B40E00D
:1057500050E06BE581E20F949E5B40E050E06CE529
:1057600081E20F949E5B40E050E060E08BE10F949B
:105770009E5B40E050E06AE781E20F949E5B40E070
:1057800050E069E781E20F949E5B80919C1D8E7FC3
:1057900080939C1D0C94D25C41E050E06BE581E26B
:1057A0000F949E5B40E050E06CE581E20F949E5BBD
:1057B00041E050E060E08BE10F949E5B41E050E0FF
:1057C0006AE781E20F949E5B41E050E069E781E285
:1057D0000F949E5B1092F7090C94D25C40E050E06D
:1057E0006BE581E20F949E5B41E050E06CE581E265
:1057F0000F949E5B41E050E060E08BE10F949E5B74
:1058000041E050E06AE781E20F949E5B41E050E0A6
:1058100069E781E20F949E5B81E08093F7090C9425
:10582000D25C8091C3029091C4028036974041F4CB
:1058300088E793E09093C4028093C3020F94EB67D0
:105840008091F7098F3F11F40C94D25C0F94EBB068
:105850000C94D25C8091C3029091C4028036974030
:1058600041F488E793E09093C4028093C3020F94BD
:10587000EB67E091F709EF3F11F40C94D25C81E003
:1058800080930212F0E0EE0FFF1FE653FE4E84E01D
:1058900091E0918380830F94364081E480930412D9
:1058A00040E050E068E08AE00F949E5B80916409DC
:1058B000882311F040E001C041E061E081E00E94F6
:1058C00075CC0F949C43809104128E3409F47CCDE6
:1058D00080E090E0A3E4B3E48093ED119093EE11A7
:1058E000A093EF11B093F0118090E3099090E40938
:1058F000A090E509B090E6092091E9113091EA11F4
:105900004091EB115091EC116091E5117091E6110D
:105910008091E7119091E811A8ED6A2EA1E17A2E0D
:105920007F926F92B1EFCB2EB1E1DB2EE12CF12C07
:1059300003E413E40E94BABA0F949C430F900F90B3
:10594000809104128E3409F43FCD80E090E0A0E213
:10595000B1E48093E9119093EA11A093EB11B09315
:10596000EC118090DF099090E009A090E109B090DF
:10597000E209E090ED11F090EE110091EF1110911D
:10598000F0116091E5117091E6118091E71190910D
:10599000E8117F926F9220E030E040E251E40E94F3
:1059A000BABA0F949C430F900F90809104128E34DA
:1059B00009F40ACD8091F709811111C080E090E0CF
:1059C0000F94612380E090E0ADE9B2E48093E511AB
:1059D0009093E611A093E711B093E81120C081E005
:1059E00090E00F94612320E030E048EC51E46091B6
:1059F000AF027091B0028091B1029091B2020F9407
:105A0000C4C120E030E046E552E40F94C4C1609385
:105A1000E5117093E6118093E7119093E811E090FF
:105A2000ED11F090EE110091EF111091F011209115
:105A3000E9113091EA114091EB115091EC11609114
:105A4000E5117091E6118091E7119091E811E7EF6F
:105A5000F9E0FF93EF93812C912CE8E4AE2EE3E480
:105A6000BE2EF1EFCF2EF1E1DF2E0E94BABA0F94D5
:105A70009C430F900F90809104128E3409F4A4CCB3
:105A8000109204120E94496440E050E065E28AE00E
:105A90000F949E5B0C94D25C80919C1D877C8460EB
:105AA00080939C1D0C94D25C80919C1D837D8061B1
:105AB00080939C1D0C94D25C80919C1D837E80629F
:105AC00080939C1D0C94D25C80919C1D8B7C886083
:105AD00080939C1D0C94D25C90913B0A80913A0A71
