:100000000C9478170C94A9170C94A9170C94A917A1
:100010000C94A9170C94A9170C94A9170C94A91760
:100020000C94A9170C94A9170C94A9170C94A91750
:100030000C94A9170C94A9170C94A9170C9430B31D
:100040000C94A9170C94A9170C94A9170C94A91730
:100050000C94A9170C94A9170C9468C70D94E9A4E3
:100060000C94A9170D941D1C0D94F41B0C94A91746
:100070000C94A9170C94A9170C94A9170C94A91700
:100080000C9459B90C94A9170C94A9170C94A9179E
:100090000C94A9170C94A9170C94A9170C94A917E0
:1000A0000C94A9170C94A9170C94A9170C94A917D0
:1000B0000C94A9170C94A9170C94A9170C94A917C0
:1000C0000C94A9170C94A9170C94A9170D94BF1B95
:1000D0000D94961B0C94A9170C94A9170C94A917AE
:1000E0000C94A9172D5FCC612234E631EB5C202DF6
:1000F0004760362DCC61CC61FD3C752D002DCC6167
:100100005C2A512ACC61FB3DCC61CC61723F5260CC
:100110008B44CF441345574531479B456E607D4422
:10012000E648345F483E393EDF4521461A392B2DDB
:10013000D22A002DC6313240DE310460E854D63177
:10014000CE312560C95ECC611434FD5F683BD94077
:100150003E2D7D2A672ACC6122394F2EF23ECC619A
:10016000EE5FD15F2C4E0D36A82C6252E339DC5580
:1001700072367C4E875F435FE033C434C434A034AE
:10018000D7364037A92F8E2DA72D60348234462ACA
:10019000722ACC61CC61002D543446306830D42DA5
:1001A000D13FAB3F6E60E75FD85FB65EB95C6E6013
:1001B0006E60A559355E095EDD5D595D855DB15D99
:1001C000FF5E6B616A49F448E049C04B4A4BD44A30
:1001D000CC616E60EB5C8B30A4305434EB5C6760B8
:1001E000CC614252CC6165461C51B84C6C3BB12A83
:1001F000CE5BA946ED46CC614947573EFA3EF23EFA
:10020000E3370E3839380A3FF83723384E388E38FE
:1002100079385F334933023FEF316C32F0321D33AE
:10022000205A70338C4D6438D04CCC61CC61CC6199
:10023000CC61CC61CC61CC61CC613240DA2DE22D55
:10024000082E6E5BAA5BF64C1A4D2C4E1C512851A1
:100250005252CC615B55BF55EE5442556953EA5535
:10026000CC618653353C9C57053DCD3DE057404D14
:10027000CC616E56B856045750576656664DCC61E1
:10028000245826594D5BCC612D52045BCC61CC6166
:100290005D5BCC61A62ED454725392535F54675465
:1002A000002DDC54CC61CC61CC61CC61CC61CC61E3
:1002B000CC61CC61CC61AA5CF65ECC61CC61CC61D6
:1002C000CC61CC61CC61CC61CC61625CCC61CC6135
:1002D000CC61CC61CC61CC61CC61CC61EB59FB5978
:1002E0005259CC61CC61CC61CC61CC61CC61CC6128
:1002F000CC61CC61CC61CC61CC61CC61CC61CC6196
:10030000CC61CC61CC61CC61CC61CC61CC61CC6185
:10031000CC61CC61CC61CC61CC61CC61CC61CC6175
:10032000CC61CC61CC61CC61CC61CC61CC61CC6165
:10033000CC61CC61CC61CC61CC61CC613F440144E7
:10034000A8486A48CC61CC61CC61CC61CC61CC61FD
:10035000CC61CC61CC61CC61CC61CC61CC61CC6135
:10036000CC61CC61CC61CC61CC61CC61CC61CC6125
:10037000CC61CC61CC61CC61CC61CC61CC61CC6115
:10038000CD50EC50E6319E2E892FCC61215F0B5A67
:10039000522D0530CC61CC61CC612456CC61CC614E
:1003A000CC61CC61CC61CC61CC61CC61CC617A3464
:1003B000DA2F195ACF336E37CC61F855CC61CC6146
:1003C000CC61CC61215FCC61CC610734A750BA50BD
:1003D000215FFF5EF2C7FFC71BC828C842C84FC8CD
:1003E00069C86BC86DC86FC877C8C202A202540240
:1003F0007A02CC027A0286027402BA0250027002B9
:10040000C6026002BE029402760288027C02560294
:1004100052027E02B202A002AE029C026602960264
:100420006E02800258028C02A00264026C026A0210
:10043000A6028E02B4029002B0025C02A802780208
:10044000AC02BC029A025A02C40292025C0284020A
:100450006202B802084AD73B3BCE016E84BCBFFDA6
:10046000C12F3D6C74319ABD56833DDA3D00C77F84
:1004700011BED9E4BB4C3E916BAAAABE000000801D
:100480003F05A84CCDB2D44EB93836A9020C50B9AC
:10049000918688083CA6AAAA2ABE000000803F00D8
:1004A0000D94D63E0D94DDA20D94EC3F0D94EEA27A
:1004B0000D940EA30D945BA40D949CA40D94FE1AB0
:1004C0000D94B2400D9488A40D9418A30D94FCA231
:1004D0000D94C61A0D9420A30D941CA30D9404A38F
:1004E0000D9476400D9443D20D949A3E0D94F43EB3
:1004F0000D9435A40D94C73F0D94EBA20D94E1A289
:100500000D940AA30D94A51A0D947EA40D94A93FF1
:100510000D948B3F0D94B0B80D9412A30D940AA4C2
:100520000D9419A40D9474A40D94143F0D9400A37C
:100530000D9456C10D9451A40D94F6A20D94FE2E67
:100540000D9425A30D94323F0D94951A0D9405A496
:100550000D942DA40D94E17C0D943DA40D94F2A274
:100560000D9423A40D94E7A20D940FA40D94B81A32
:100570000D9492A40D94B83E0D9447A40D94CF40D1
:100580000D940C7D0D947C3E0D946AA40D949440C2
:100590000D94FF2E0D94421B0D94563F4E414E4933
:1005A0004E495459494E46CDCCCC3D0AD7233C1731
:1005B000B7D13877CC2B329595E6241FB14F0A007E
:1005C0000020410000C84200401C4620BCBE4CCA6E
:1005D0001B0E5AAEC59D746364696E6F7073757837
:1005E000585B003B202020757365526166742C2592
:1005F00064004D363035205325640043616C6375CB
:100600006C75733A20200043616C63756C75733AA6
:1006100020200043616C63756C75733A2020005391
:10062000757266696E6720300A004733340053756F
:100630007266696E6720300A0047323820583020D1
:1006400059300054300054310054300054300053BD
:10065000757266696E6720300A004734330047348C
:1006600033004734310047343000473334004734D7
:1006700033004734330047343100473430004D38BD
:1006800034004D3834004D3834005A32204F6666FD
:100690007365743A20004F4B207365636F6E64205E
:1006A0004578747275646572210A005A20706F7300
:1006B0006974696F6E3A20005A20706F73697469AB
:1006C0006F6E3A20004D3834005A312050726F62FC
:1006D00065206F66667365743A20004F4B2066692B
:1006E00072737420457874727564657221200A00F3
:1006F0005A20706F736974696F6E3A20005A2070C7
:100700006F736974696F6E3A200043616C63756C36
:1007100075733A20200043616C63756C75733A20E1
:10072000200043616C63756C75733A20200043614F
:100730006C63756C75733A202000363020646567F1
:1007400072656573200A0054300054300054300044
:1007500043616C6962726174696F6E205375636383
:1007600065737366756C0A005430004A756D7020AD
:100770006F7665722073637265773120616E6420D5
:10078000736372657732200A004A756D70206F7648
:10079000657220736372657731200A004733340035
:1007A0004733340047333400543000473334004C6F
:1007B0006F6164696E670A0053757266696E6720BF
:1007C000300A0053757266696E6720300A005375EF
:1007D0007266696E6720300A0053757266696E67CB
:1007E00020300A0053757266696E6720300A005423
:1007F000300053757266696E6720300A004D3334DD
:100800000053757266696E6720300A004D323400FD
:100810004D3233202573004D3234004D32332025C4
:100820007300546865206669727374206C61796521
:1008300072207072696E74656420776974682074C0
:10084000686520257320486F74656E640A77696C4B
:100850006C20626520646973746F727465642062D1
:10086000792025642E253164253164206D6D005377
:10087000757266696E6720300A0053757266696E1C
:100880006720300A0053757266696E6720300A006F
:100890002573206578747275646572005374617293
:1008A00074696E67205A2043616C69627261746971
:1008B0006F6E2057697A6172640A0025732065782B
:1008C0007472756465720047363920414354495645
:1008D000415445440A002E0A0044656C6574696FF2
:1008E0006E206661696C65642C2046696C653A20EF
:1008F0000046696C652064656C657465643A002E19
:100900000A006F70656E206661696C65642C204614
:10091000696C653A200042656420486561746564CD
:100920000A0020573A00204500205A00205900486C
:100930003D5800205A3A0020593A0020436F756E06
:100940007420583A200020453A00205A3A00205995
:100950003A00583A007A5F6D696E3A2000795F6D0F
:1009600061783A2000785F6D61783A2000785F6D99
:10097000696E3A200020502000205A200020592083
:1009800000536574204D35333020582000486F7473
:10099000656E64206F6666736574733A00504F53DA
:1009A0004954494F4E20484F4D453A2000220A00F5
:1009B000556E6B6E6F776E20636F6D6D616E643A0E
:1009C000202200526561647920746F205374617233
:1009D000740A002564206B6D0067636F6465206690
:1009E0006F756E640A0020746F20537461727420F6
:1009F000446973706C61792066726F6D2052657303
:100A0000657400546F6F6B2000646973706C61795A
:100A1000206F6E6C696E6521002E002053544F507C
:100A2000205052494E54200A004732382058302076
:100A30005930004D33350047373000524553554D3E
:100A4000450A0050415553450A004D38342058207E
:100A500059205A2045004D313037005430006F6B1B
:100A600000457874727564657220486561746564C8
:100A70000A0020573A004649524D574152455F4EB1
:100A8000414D453A4D61726C696E2042434E33448C
:100A9000205369676D613B204649524D574152458D
:100AA0005F56455253494F4E3A30312D312E332E39
:100AB0003052433B204649524D574152455F5552B3
:100AC0004C3A68747470733A2F2F67697468756252
:100AD0002E636F6D2F42434E33442F42434E3344B7
:100AE0005369676D612D4669726D776172653B2050
:100AF00050524F544F434F4C5F56455253494F4EFF
:100B00003A312E303B204D414348494E455F5459C0
:100B100050453A42434E3344205369676D613B2050
:100B200045585452554445525F434F554E543A32FE
:100B30003B20555549443A00486F74656E64206FF8
:100B40006666736574733A00504944204175746F4A
:100B500074756E652066696E6973686564212050DE
:100B6000757420746865206C617374204B702C2040
:100B70004B6920616E64204B6420636F6E737461F7
:100B80006E74732066726F6D2061626F7665206986
:100B90006E746F20436F6E66696775726174696FFA
:100BA0006E2E680A00504944204175746F74756E4A
:100BB00065206661696C6564212074696D656F7577
:100BC000740A0020403A006F6B20543A006F6B208B
:100BD000423A00504944204175746F74756E652027
:100BE0006661696C6564212054656D70657261741D
:100BF00075726520746F6F20686967680A00204B02
:100C0000643A2000204B693A2000204B703A2000C3
:100C100020436C617373696320504944200A0020AB
:100C200054753A2000204B753A2000206D61783AC7
:100C30002000206D696E3A200020643A2000206276
:100C40006961733A20005354415449535449435302
:100C50002052455345540A002573206578747275F7
:100C600064657200496E7374616C6C202564202584
:100C700073206F6E2074686520257320686F74651B
:100C80006E640025752E25303275005231390052C0
:100C900031362F5231370025752E253032750052EE
:100CA0003139005231362F52313700417420426FB2
:100CB00074746F6D20537469636B657200253033F3
:100CC000642E25303364253033642E25303464009F
:100CD00050757267652046696C616D656E740A00B7
:100CE00053757266696E6720310A005375726669C2
:100CF0006E6720300A004252494748544E455353CC
:100D00003A2000220A00656E717565696E672022BF
:100D100000220A00656E717565696E6720220020E9
:100D20002F0020400020403A0024F4D43050C38EDD
:100D300020C2A24017828B7011127A910D816CD95A
:100D40000AA861E108C7586607615143061E4B5D5A
:100D500005C145A7041A411104093D9803713931B1
:100D6000034036DB0265339102D4305402802E1DDD
:100D700002632CEE01752AC501B028A0011027815D
:100D8000018F2564012B244B01E0223401AC211F8B
:100D9000018D200D01801FFC00841EED00971DDFDA
:100DA00000B81CD200E61BC600201BBC00641AB2AF
:100DB00000B219A8000A19A0006A189900D1179169
:100DC0000040178B00B516840031167E00B31579EC
:100DD000003A157300C7146F0058146A00EE1366CA
:100DE000008813630025135E00C7125B006C125766
:100DF0000015125400C111510070114F0021114B08
:100E000000D61049008D10470046104400021042E1
:100E100000C00F4000800F3E00420F3C00060F3B19
:100E200000CB0E3800930E37005C0E3500270E34D1
:100E300000F30D3200C10D3100900D3000600D2E19
:100E400000320D2D00050D2C00D90C2B00AE0C2905
:100E500000850C29005C0C2700350C27000E0C26A1
:100E600000E80B2400C40B2400A00B23007D0B23FF
:100E7000005A0B2100390B2100180B2000F80A1F23
:100E800000D90A1E00BB0A1E009D0A1D00800A1D13
:100E900000630A1C00470A1B002C0A1B00110A1AD7
:100EA00000F7091A00DD091900C4091900AB091976
:100EB00000920917007B091800630917004C0916F6
:100EC0000036091600200916000A091500F5081554
:100ED00000E0081400CC081400B8081400A408149A
:100EE00000900813007D0812006B081300580812C8
:100EF00000460812003408110023081100120811DE
:100F00000001081100F0071000E0071000D00710E2
:100F100000C0071000B0070F00A107100091070ED6
:100F20000083070F0074070F0065070E0057070EB8
:100F30000049070E003B070D002E070E0020070D8D
:100F40000013070D0006070D00F9060C00ED060D55
:100F500000E0060C00D4060C00C8060C00BC060C11
:100F600000B0060C00A4060B0099060C008D060BC1
:100F70000082060B0077060B006C060B0061060A68
:100F80000057060B004C060A0042060A0038060A03
:100F9000002E060A0024060A001A060A0010060996
:100FA0000007060A00FD050900F4050900EB050924
:100FB00000E2050900D9050900D0050900C70509A7
:100FC00000BE050900B5050800AD050800A5050926
:100FD000009C050800940508008C0508008405089D
:100FE000007C050800740508006C0507006505080D
:100FF000005D050700560508004E05070047050778
:10100000004005080038050700310507002A0507DC
:1010100000230507001C050600160507000F05073D
:10102000000805060002050700FB040600F504079A
:1010300000EE040600E8040600E2040700DB0406F4
:1010400000D5040600CF040600C9040600C3040648
:1010500000BD040600B7040600B1040500AC040698
:1010600000A6040600A00405009B040600950405E4
:1010700000900406008A040500850405008004062B
:10108000007A04050075040500700405006B040572
:101090000066040500610405005C040500570405B2
:1010A00000520405004D04050048040500430405F2
:1010B000003E0404003A0405003504050030040431
:1010C000002C04050027040400230405001E04046A
:1010D000001A04040016040500110404000D0404A1
:1010E00000090405000404040000040400FC0304D7
:1010F00000F8030400F4030400F0030400EC03040C
:1011000000E8030400E4030400E0030400DC03043B
:1011100000D8030400D4030400D0030400CC03046B
:1011200000C8030300C503030024F404D9201BC432
:101130000C5C0E9804C4095F0265077101F405F99F
:1011400000FB04B30048048700C10369005803553D
:101150000003034500BE023A008402310053022A14
:10116000002902250004022000E4011C00C8011926
:1011700000AF0117009801140084011300710110E1
:10118000006101100051010E0043010D0036010BFA
:10119000002B010B0020010B00150109000C0109B7
:1011A0000003010800FB000800F3000800EB000743
:1011B00000E4000600DE000600D8000600D20006AB
:1011C00000CC000500C7000500C2000500BD0004FA
:1011D00000B9000400B5000400B1000400AD000433
:1011E00000A9000400A5000300A20003009F000462
:1011F000009B000300980003009500020093000389
:1012000000900003008D0002008B000300880002A4
:10121000008600020084000300810002007F0002BB
:10122000007D0002007B00020079000200770001CF
:1012300000760002007400020072000100710002DA
:10124000006F0002006D0001006C0002006A0001E6
:1012500000690002006700010066000100650001EE
:1012600000640002006200010061000100600001F2
:10127000005F0002005D0001005C0001005B0001F6
:10128000005A0001005900010058000100570001F8
:1012900000560001005500010054000100530000F9
:1012A00000530001005200010051000100500001F4
:1012B000004F0001004E0000004E0001004D0001F3
:1012C000004C0001004B0000004B0001004A0001EF
:1012D00000490001004800000048000100470001EB
:1012E00000460000004600010045000000450001E6
:1012F00000440001004300000043000100420000E0
:1013000000420001004100000041000100400001D6
:10131000003F0000003F0001003E0000003E0001D1
:10132000003D0000003D0001003C0000003C0000CA
:10133000003C0001003B0000003B0001003A0000BF
:10134000003A0001003900000039000100380000B7
:1013500000380000003800010037000000370001AD
:1013600000360000003600000036000100350000A5
:10137000003500000035000100340000003400009A
:10138000003400010033000000330000003300018E
:101390000032000000320000003200010031000085
:1013A000003100000031000100300000003000007A
:1013B00000300001002F0000002F0000002F00006F
:1013C000002F0001002E0000002E0000002E000162
:1013D000002D0000002D0000002D0000002D000158
:1013E000002C0000002C0000002C0000002C00014C
:1013F000002B0000002B0000002B0000002B000140
:10140000002A0000002A0000002A0000002A000133
:101410000029000000290000002900000029000028
:10142000002900010028000000280000002800001A
:10143000002800000028000100270000002700000D
:101440000027000000270000002700010026000000
:1014500000260000002600000026000000260001F3
:1014600000250000002500000025000000250000E8
:1014700000250000002500010024000000240000D9
:1014800000240000002400000024000100230000CC
:1014900000230000002300000023000000230000C0
:1014A00000230000002300010022000000220000B1
:1014B00000220000002200000022000000220001A3
:1014C0000021000000210000002100000021000098
:1014D0000021000000210000002100010020000088
:1014E000002000000020000000200000002000007C
:1014F000002000000020000000200001001F00006C
:10150000001F0000001F0000001F0000001F00005F
:10151000001F0000001F0001001E0000001E000050
:10152000001E0000001E00000070012C0190012729
:1015300001B0012201C0011D01F0011801100213C8
:101540000130020E016002090190020401C002FF95
:10155000000003FA004003F5008003F000D003EB25
:10156000002004E6007004E100E004DC004005D740
:1015700000C005D2004006CD00D006C8008007C3D9
:10158000003008BE00F008B900C009B400B00AAFCE
:1015900000B00BAA00D00CA500000EA000500F9BBD
:1015A00000C01096005012910000148C00C01587E6
:1015B00000B0178200B0197D00D01B7800001E73A8
:1015C0000040206E0090226900F024640040275FF4
:1015D0000090295A00E02B5500102E500020304B6F
:1015E0000010324600E033410090353C00103737A0
:1015F0000070383200A0392D00B03A2800A03B23FB
:1016000000603C1E00103D1900903D1400103E0F7C
:1016100000703E0A00C03E0500003F00004879739C
:10162000746572657369732074656D706572617439
:101630007572650A00546865726D616C2072756E12
:10164000617761792070726F74656374696F6E2061
:101650006279204865617465725F49443A0A0045C1
:1016600072726F72283833293A2042656420746898
:1016700065726D6973746F72206E6F742064657427
:1016800065637465640A004572726F722838322986
:101690003A20526967687420746865726D69737462
:1016A0006F72206E6F742064657465637465640A7C
:1016B000004572726F72283831293A204C65667481
:1016C00020746865726D6973746F72206E6F742018
:1016D0002064657465637465640A002053544F5038
:1016E000205052494E54200A004572726F722838B9
:1016F00033293A2042656420746865726D69737499
:101700006F72206E6F742064657465637465640A1B
:10171000002053544F50205052494E54200A004547
:1017200072726F72283832293A20526967687420C1
:10173000746865726D6973746F72206E6F74206463
:10174000657465637465640A002053544F502050DB
:1017500052494E54200A004572726F72283831295E
:101760003A204C65667420746865726D6973746F95
:1017700072206E6F74202064657465637465640AFA
:10178000002053544F50205052494E54200A0045D7
:1017900052524F52283839293A2042454420697321
:1017A000206E6F742068656174696E670020535401
:1017B0004F50205052494E54200A004552524F5229
:1017C000283839293A20486F74656E6420256420D2
:1017D0006973206E6F742068656174696E67006557
:1017E00063686F3A004475706C69204D6F646520C2
:1017F0004F4E0A004D6972726F72204D6F64652002
:101800004F4E0A00436F6F6C696E6720446F776EAE
:10181000204865617465720A005072696E74657261
:101820002068616C7465642E206B696C6C282920BB
:1018300063616C6C6564210A004572726F723A00D4
:101840004D3834005374617274696E6720582043B8
:10185000616C6962726174696F6E2057697A617236
:10186000640A004D3834005374617274696E6720E5
:10187000592043616C6962726174696F6E205769A7
:101880007A6172640A003B2020204275696C6420F2
:1018900074696D653A202564202573202564202510
:1018A00073003B5072696E742074696D653A20252F
:1018B000642025732025642025732025642025734A
:1018C000003B54494D453A256C64003B2020205094
:1018D0006C6173746963207765696768743A202561
:1018E000642E256467003B46696C616D656E7420EB
:1018F000757365643A2025642E25646D2025642E59
:10190000256467003B46696C616D656E7420757374
:1019100065643A20256C642E256C646D003B457827
:101920007472756465727320757365643A2054250A
:10193000642025642E2564205425642025642E25EA
:1019400064003B2020206578747275646572446978
:10195000616D657465722C25642E25642C25642EBA
:101960002564002E2E2E2054696D656F757421003C
:101970002A2A2A2047656E69652057726974654F67
:10198000626A656374202A2A2A202D2D2D3E002E9E
:101990002E2E204E414B2021002A2A2A2047656EF8
:1019A00069652057726974654F626A656374202A9D
:1019B0002A2A202D2D2D3E002E2E2E2041434B2055
:1019C00021002A2A2A2047656E69652057726974AA
:1019D000654F626A656374202A2A2A202D2D2D3EC8
:1019E000002A2A2A2047656E6965204261642042E8
:1019F000797465202A2A2A202D2D2D3E203078004A
:101A00002056616C75653A200020496E6465783A0D
:101A100020002A2A2A2047656E6965205265706F6A
:101A20007274204F626A656374202A2A2A204F62EA
:101A30006A6563743A20002A2A2A2047656E696520
:101A400020436F6E6E6563746564202F2053796E3A
:101A50006321202A2A2A002056616C75653A2000ED
:101A600020496E6465783A20002A2A2A2047656E4C
:101A70006965205265706F7274204576656E7420BA
:101A80002A2A2A204F626A6563743A2000204C6536
:101A90006E6774683A20002A2A2A2047656E6965B5
:101AA000205265636569766564204D6167696320CE
:101AB000446F75626C65204279746573202A2A2A06
:101AC00020496E6465783A2000204C656E67746822
:101AD0003A20002A2A2A2047656E696520526563EC
:101AE0006569766564204D61676963204279746534
:101AF00073202A2A2A20496E6465783A20002A2A0F
:101B00002A2047656E6965204E414B205265636F00
:101B10007665727920212121202A2A2A002A2A2A60
:101B20002047656E696520446973636F6E6E6563F7
:101B30007465642066726F6D20446F4576656E74BF
:101B40007321202A2A2A002A2A2A2047656E6965DD
:101B500020546F6F6B20746F6F206C6F6E672074F2
:101B60006F2072652D656E74657220446F457665D1
:101B70006E747328292C2072656475636520646512
:101B80006C61797320696E20636F64652C207365C6
:101B90006C662D70726F74656374696F6E20656E0C
:101BA00061626C65642E202A2A2A004D313037008C
:101BB0004E6577206C617965722064657465637425
:101BC00065640A003B206C61796572003B4C4159A9
:101BD000455200256920686F757273202569206D54
:101BE000696E7574657300446F6E65207072696EFE
:101BF00074696E672066696C650A004D3333005066
:101C000061757365207061726B696E670A00473693
:101C100039005072696E7465722073746F707065EC
:101C2000642064756520746F206572726F72732E04
:101C30002046697820746865206572726F72206131
:101C40006E6420757365204D39393920746F2072A8
:101C50006573746172742E202854656D70657261AD
:101C6000747572652069732072657365742E2053D4
:101C7000657420697420616674657220726573747E
:101C8000617274696E67290A006F6B0A004E6F20DB
:101C90004C696E65204E756D626572207769746857
:101CA00020636865636B73756D2C204C61737420C1
:101CB0004C696E653A20004E6F20436865636B7314
:101CC000756D2077697468206C696E65206E756D1E
:101CD0006265722C204C617374204C696E653A20E9
:101CE00000636865636B73756D206D69736D6174F6
:101CF00063682C204C617374204C696E653A200037
:101D00004C696E65204E756D626572206973206E38
:101D10006F74204C617374204C696E65204E756D34
:101D20006265722B312C204C617374204C696E6596
:101D30003A20004D31313000CDCC984300809343A0
:101D400000005243000000000000000000000000FE
:101D50000A00207A3A200020793A200020783A20A0
:101D6000004265640045787472756465722072651E
:101D70006C6561736564206163746976653A2000FF
:101D80005A205349474D4120486F6D65640A00450C
:101D900078747275646572206163746976653A203F
:101DA00000202D20496E76616C696420657874721C
:101DB00075646572206E756D62657220210A00453A
:101DC00072726F723A00646973706C6179206F6629
:101DD000666C696E650042434E3344205369676DFB
:101DE000610A0073746172740A006563686F3A0077
:101DF00030312D312E332E3052430A006572726F0E
:101E0000722077726974696E6720746F2066696CDE
:101E1000650A00205A3A0020593A0020583A0065D5
:101E20006E6473746F7073206869743A2000656320
:101E3000686F3A005468657265206973206E6F742C
:101E40002066696C616D656E74206F6E20746865C4
:101E50002072696768742065787472756465720AA7
:101E6000005468657265206973206E6F742066691E
:101E70006C616D656E74206F6E20746865206C6592
:101E800066742065787472756465720A00446F6EBA
:101E90006520736176696E672066696C652E0A003D
:101EA0006F6B0A004D32390043617264204E616DE0
:101EB000653A20002F005344207072696E74696E79
:101EC00067206279746520004E6F7420534420703F
:101ED00072696E74696E670A004732382058302084
:101EE0005930002569206D696E2C202569207365A5
:101EF00063000A0A005374616E6461726420446571
:101F000076696174696F6E3A20000A004D65616EF2
:101F10003A20000A002020207A3A20000A00793A6C
:101F20002000783A20003F537065636966696564F4
:101F3000206E756D626572206F66206C6567732018
:101F4000696E206D6F76656D656E74206E6F74209E
:101F5000706C61757361626C652E0A003F53706529
:101F6000636966696564205920706F736974696F6D
:101F70006E206F7574206F662072616E67652E0A21
:101F8000003F537065636966696564205820706F0F
:101F9000736974696F6E206F7574206F662072614B
:101FA0006E67652E0A003F537065636966696564F4
:101FB0002073616D706C652073697A65206E6F7433
:101FC00020706C61757361626C652E0A0046756CD9
:101FD0006C20737570706F72742061743A2068742D
:101FE00074703A2F2F33647072696E74626F61720D
:101FF000642E636F6D2F666F72756D2E7068700A38
:10200000004D3438205A2D50726F62652052657031
:102010006561746162696C69747920746573742E8A
:1020200020202056657273696F6E20322E30300A80
:10203000003F566572626F7365204C6576656C2053
:102040006E6F7420706C61757361626C652E0A002E
:102050004572726F722057726974652045455052FF
:102060004F4D0053657474696E67732053746F72BB
:1020700065640A00204D696E75746573203A00200E
:10208000204C617374207072696E742074696D6580
:102090002D3E20486F757273203A004C6173742096
:1020A0007072696E74206475726174696F6E0A0073
:1020B0002C205468697264204944206E756D6265F5
:1020C0007220002C205365636F6E64204944206E9B
:1020D000756D6265723A2000202046697273742023
:1020E0004944206E756D6265723A20005549204959
:1020F0006E666F726D6174696F6E2053657269618F
:102100006C204E756D6265723A0A00206D2C204578
:1021100031207072696E742064697374616E6365D6
:102120003A2000206B6D2C204530207072696E744F
:102130002064697374616E63653A2000206B6D2CB6
:102140002059207072696E742064697374616E63C3
:10215000653A2000206B6D2C205831207072696E1A
:10216000742064697374616E63653A200020432CA7
:102170000A205830207072696E742064697374612B
:102180006E63653A200020432C206D6178207465D1
:102190006D7020423A200020432C206D617820741D
:1021A000656D7020523A20002C206D617820746596
:1021B0006D70204C3A2000682C207072696E747328
:1021C0002066696E69736865643A20002C2070721D
:1021D000696E74696E672074696D653A200020200D
:1021E0007072696E74733A200053544154533A0A22
:1021F0000020432C20525F5052494E543A20002078
:10220000432C20525F4245443A200020432C205268
:102210005F52454D4F56453A20002020525F494EAF
:10222000534552543A200054656D70202843293A92
:102230000A0020432C204C5F5052494E543A200053
:1022400020432C204C5F4245443A200020432C2060
:102250004C5F52454D4F56453A200020204C5F4977
:102260004E534552543A200054656D70202843293E
:102270003A0A0020562856657273696F6E2920004D
:102280002052284265642072696768742073637203
:10229000657729200020204D353331204C284265B8
:1022A00064206C6566742073637265772920004230
:1022B0006564204F66667365747320286D6D293AD6
:1022C0000A002050285A2070726F62652900205A37
:1022D00020002059200020204D3533302058200088
:1022E0004F66667365747320286D6D293A0A002065
:1022F0004400204900202D204D33303120524947E1
:10230000485420500020440020490020204D333004
:1023100031204C4546542050005049442073657488
:1023200074696E67733A0A00205A00205900202011
:102330004D323036205800486F6D65206F666673E9
:10234000657420286D6D293A0A00204500205A0046
:1023500020580020420020540020204D32303520EB
:102360005300416476616E636564207661726961D1
:10237000626C65733A20533D4D696E2066656564F5
:102380007261746520286D6D2F73292C20543D4D8A
:10239000696E2074726176656C2066656564726131
:1023A000746520286D6D2F73292C20423D6D696E58
:1023B000696D756D207365676D656E742074696DE8
:1023C0006520286D73292C20583D6D6178696D75E5
:1023D0006D205859206A65726B20286D6D2F732906
:1023E0002C20205A3D6D6178696D756D205A206AE8
:1023F00065726B20286D6D2F73292C2020453D6D53
:102400006178696D756D2045206A65726B20286D55
:102410006D2F73290A0020540020204D32303420C3
:102420005300416363656C65726174696F6E3A2035
:10243000533D616363656C65726174696F6E2C20D6
:10244000543D7265747261637420616363656C6589
:10245000726174696F6E0A00204500205A0020598D
:102460000020204D3230312058004D6178696D7563
:102470006D20416363656C65726174696F6E2028BD
:102480006D6D2F7332293A0A00204500205A002032
:10249000590020204D3230332058004D6178696D4D
:1024A000756D2066656564726174657320286D6D55
:1024B0002F73293A0A00204500205A002059002095
:1024C000204D393220580053746570732070657246
:1024D00020756E69743A0A0053757266696E6720DA
:1024E00030200A005430004D383420582059205AEA
:1024F000204500496E7374616C6C2025642025733F
:10250000206F6E2074686520257320686F74656E77
:1025100064005341564544205052494E540A007AB3
:1025200070726F62653A20005344206361726420C8
:102530006F6B0A006F70656E526F6F742066616911
:102540006C65640A00766F6C756D652E696E6974D2
:10255000206661696C65640A004572726F723A00A8
:10256000534420696E6974206661696C0A00656372
:10257000686F3A004D3234004D32332025730061CC
:1025800075746F25692E67000A0020616E74696892
:102590006F726172690A3A200020686F7261726915
:1025A0000A20002F3800766F6C7465732000205667
:1025B0006F6C74657320636172676F6C20333A20AF
:1025C0000020616E7469686F726172690A3A200056
:1025D00020686F726172690A20002F3800766F6C74
:1025E000746573200020566F6C746573206361728C
:1025F000676F6C20323A20000A0020647A333A2058
:102600000020647A323A20005431005430005430B3
:10261000005430000A0056756974656E73333A20B1
:1026200020004170726F78333A202000566F6C742E
:102630006573333A2020000A0056756974656E731D
:10264000323A2020004170726F78323A20200056D2
:102650006F6C746573323A20200056616C6F722083
:10266000645A333A20200056616C6F7220645A32EB
:102670003A2020004E6577206F6666736574207679
:10268000657273696F6E3A20007A335F313A2000C9
:102690007A325F313A20005A7363726F6C6C5F312B
:1026A0003A20007A335F303A20007A325F303A20A5
:1026B000005A7363726F6C6C5F303A20005A766117
:1026C0006C756520616674657220686F6D653A008F
:1026D000486F6D6520582F59206265666F726520BE
:1026E0005A0A006C61796572206865696768743A96
:1026F000200045787472756465722072656C65613E
:10270000736564206163746976653A20005A2053CA
:1027100049474D4120486F6D65640A0045787472E1
:1027200075646572206163746976653A20002C20B7
:1027300073617665645F466C61675F66616E6C614C
:102740007965725F6D6972726F723A20002C207326
:10275000617665645F6665656472617465313A20AF
:10276000002C2073617665645F66656564726174D0
:1027700065303A20002C2073617665645F66616E77
:102780006C617965723A20002C2073617665645F14
:1027900074656D706265643A20002C207361766503
:1027A000645F74656D70303A20002C20736176652B
:1027B000645F74656D70313A20002C20736176651A
:1027C000645F66696C65706F736974696F6E3A20D7
:1027D000002C2073617665645F655F706F73697448
:1027E000696F6E3A20002C2073617665645F746FA8
:1027F0006F6C5F6163746976653A20002C207361A9
:102800007665645F7A5F706F736974696F6E3A2082
:10281000002C2073617665645F795F706F736974F3
:10282000696F6E3A20002C2073617665645F785F73
:10283000706F736974696F6E3A200053415645207A
:102840005052494E54204C4F473A0A006563686F16
:102850003A005072696E74207265636F76657279A2
:102860002075700A004E6F74207072696E74207249
:1028700065636F766572792075700A00535543431E
:102880004553530A0056616C756573206F7574204B
:102890006F662072616E67650A0056616C756573BC
:1028A000206F7574206F662072616E67650A00562E
:1028B000616C756573206F7574206F662072616E30
:1028C00067650A0056616C756573206F7574206FBB
:1028D000662072616E67650A005355434345535342
:1028E0000A0056616C756573206F7574206F6620E1
:1028F00072616E67650A0056616C756573206F754D
:1029000074206F662072616E67650A0056616C758F
:102910006573206F7574206F662072616E67650A3B
:102920000056616C756573206F7574206F66207238
:10293000616E67650A004D6F64652032203A20633E
:1029400079636C652020202D3E205247423A203684
:1029500020737461746573002A2A2D3E20004D6F28
:1029600064652031203A2072616E646F6D20202DE5
:102970003E205247423A202B31202B32202B332C41
:1029800020647572696E67207072696E74696E6713
:10299000002A2A2D3E20004D6F64652030203A2009
:1029A00064656661756C74202D3E205247423A2062
:1029B0003235352032353520323535002A2A2D3E44
:1029C00020004C6564206D6F646573203A004D35BE
:1029D0003336204C5B6D6F64655D0054696D652016
:1029E000696E6163746976650A0050757267652067
:1029F00064697374616E63650A005A204F6666737A
:102A00006574206F6B0A005A204F666673657420E8
:102A10003A200A007A5F6D61783A20007A5F6D692A
:102A20006E3A20005A204F666673657400504F530B
:102A30004954494F4E20484F4D453A200000000070
:102A40000000809343000000000000A0400000A0B0
:102A5000400000004020004D6F766520746F3A20E2
:102A600000CDCC98430080934300005243FF01FF08
:102A700020636F6C6420657874727573696F6E2063
:102A800070726576656E7465640A006563686F3A96
:102A900000504944204175746F74756E65206669F5
:102AA0006E6973686564210A005049442041757459
:102AB0006F74756E65206661696C65642120746948
:102AC0006D656F75740A0020403A006F6B20543AB0
:102AD000006F6B20423A00504944204175746F7476
:102AE000756E65206661696C6564212054656D7042
:102AF0006572617475726520746F6F2068696768AC
:102B00000A00204B643A2000204B693A2000204BF9
:102B1000703A200020436C6173736963205049440C
:102B2000200A002054753A2000204B753A200020DE
:102B30006D61783A2000206D696E3A200020643A79
:102B4000200020626961733A20003B20472D436FCB
:102B500064652067656E65726174656420627920C2
:102B600053696D706C696679334428522920566523
:102B70007273696F6E202564007C3C3E5E2B3D3F86
:102B80002F5B5D3B2C2A225C002A2A2A2047656E97
:102B9000696520446973636F6E6E65637465642054
:102BA00066726F6D204765744E65787442797465FE
:102BB00021202A2A2A002A2A2A2047656E696520B0
:102BC000456E61626C652041747461636845766529
:102BD0006E7448616E646C657220212121202A2A5E
:102BE0002A0043616E6E6F7420656E746572207387
:102BF00075626469723A200057726974696E672061
:102C0000746F2066696C653A20002E0A006F70654B
:102C10006E206661696C65642C2046696C653A209B
:102C2000002E0A006F70656E206661696C65642C09
:102C30002046696C653A200046696C652073656CB6
:102C400065637465640A002053697A653A2000461A
:102C5000696C65206F70656E65643A20002E0A000D
:102C60006F70656E206661696C65642C2046696CC6
:102C7000653A20004E6F772066726573682066693A
:102C80006C653A20004E6F7720646F696E6720662E
:102C9000696C653A20002220706F730022207061F9
:102CA00072656E743A2200535542524F5554494E44
:102CB000452043414C4C207461726765743A220090
:102CC000747279696E6720746F2063616C6C207315
:102CD00075622D67636F64652066696C6573207724
:102CE00069746820746F6F206D616E79206C6576F1
:102CF000656C732E204D4158206C6576656C20699B
:102D0000733A0053746F7265642073657474696EEE
:102D10006773207265747269657665640A0048613C
:102D20007264636F6465642044656661756C7420C9
:102D300053657474696E6773204C6F616465640ACF
:102D40000048617264636F6465642043616C69620A
:102D500020616E64205049442044656661756C743E
:102D60002053657474696E6773204C6F6164656489
:102D70000A00526561647920746F204C6F61642F82
:102D8000556E6C6F6164200A00000021002400274A
:102D9000002A002D0030003300010100000401076B
:102DA000010A0100002200250028002B002E00311E
:102DB00000340002010000050108010B01000020A1
:102DC000002300260029002C002F00320000010003
:102DD00000030106010901050505050705080808A6
:102DE00008020202020A0A0808040404040101019C
:102DF00001010101010303030303030303040707A4
:102E0000070C0C0C0C0C0C0C0C0202020206060641
:102E100006060606060B0B0B0B0B0B0B0B01021029
:102E200020200808102040102040800201020108E4
:102E30000402010102040810204080804020100894
:102E400004020180040201804020100804020108ED
:102E5000040201010204081020408001020408104D
:102E600020408000000A0B02090C0D0E0807030425
:102E70000100000000000000000000000000000051
:102E80000000000000000000000000000000001230
:102E90001110000000000000000000000000000011
:102EA000000000000000000000526573656E643A87
:102EB00020006F6B0A000A00205A3A200020593A7D
:102EC000200020583A200042656400456E64206668
:102ED000696C65206C6973740A00426567696E20CD
:102EE00066696C65206C6973740A00008A02980236
:102EF00011241FBECFEFD1E2DEBFCDBF00E00CBF7B
:102F000017E0A0E0B2E0E8E7F9EA03E00BBF02C097
:102F100007900D92A63BB107D9F72DE1A6EBB7E0DC
:102F200001C01D92AB36B207E1F717E1C7E7D7E161
:102F300000E006C021970109802FFE010F9498D16F
:102F4000C637D10780E00807A9F70F9441B10D9467
:102F5000ABD40C9400002F923F924F925F926F92ED
:102F60007F928F929F92AF92BF92CF92DF92EF9219
:102F7000FF920F931F93CF93DF93CDB7DEB7C3526A
:102F8000D1400FB6F894DEBF0FBECDBF2DB73EB710
:102F9000CE5DDE4F39832883C252D14011E01093B9
:102FA00060088091EC0781110CC00F94DDA4609340
:102FB000E8077093E9078093EA079093EB07109373
:102FC000EC078091E00781110DC00F94DDA46093A0
:102FD000DC077093DD078093DE079093DF0781E0C5
:102FE0008093E0079091D41840913A0250913B02AF
:102FF00060913C0270913D02911106C08091D518FC
:10300000882311F40C9400284A3951056105710593
:1030100011F40C94F7250CF008C14F3451056105EB
:10302000710511F40C94CC210CF083C0443251058D
:103030006105710511F40C943923A4F54131510552
:103040006105710511F40C943D25A4F4423051053D
:103050006105710509F425C7403151056105710508
:1030600009F45CC2413051056105710511F00C9401
:10307000CC618CC3433151056105710509F4ABC5C1
:103080000CF4C9C5403251056105710511F40C9469
:10309000E825413251056105710511F40C94D625DE
:1030A0000C94CC614D3351056105710509F429C5B6
:1030B000FCF4423351056105710509F4F2C644F48C
:1030C000413351056105710509F460C50C94CC616B
:1030D000443351056105710511F40C9439254533CC
:1030E00051056105710511F40C948D260C94CC6189
:1030F000443451056105710511F40C94B4234CF46A
:10310000413451056105710511F40C9487200C942C
:10311000CC61463451056105710511F40C94F2201F
:103120004E3451056105710511F40C945D210C9428
:10313000CC614E3851056105710511F40C940222E1
:10314000C4F54A3551056105710509F4D0C6A4F4EA
:10315000473551056105710509F455C548355105D7
:103160006105710509F4F3C4433551056105710525
:1031700011F00C94CC6126C34B37510561057105E4
:1031800009F4B5C644F4463751056105710509F4E3
:1031900064C50C94CC614E3751056105710509F485
:1031A000F5C1493851056105710509F4BCC20C949B
:1031B000CC61443951056105710511F40C946D22FF
:1031C000D4F4403951056105710511F40C9458226D
:1031D00014F40C942D22423951056105710511F446
:1031E0000C941722433951056105710511F40C94B3
:1031F00042220C94CC61463951056105710511F4E8
:103200000C94982214F40C94AD22473951056105B1
:10321000710511F40C947326483951056105710547
:1032200011F40C9462260C94CC614A3E5105610560
:10323000710509F467C20CF0C3C0473A5105610536
:10324000710509F4CFC50CF05CC0413A5105610528
:10325000710511F40C9483229CF44C3951056105DD
:10326000710511F40C94092614F40C9400264D39C0
:1032700051056105710511F40C9436260C94CC614E
:10328000443A51056105710509F4E5C5D4F4433AA2
:1032900051056105710511F00C94CC6180915708BE
:1032A00090915808A0915908B0915A088064809371
:1032B000570890935808A0935908B0935A080C9453
:1032C000CC61453A51056105710509F49EC5463A40
:1032D00051056105710511F00C94CC61809157087E
:1032E00090915808A0915908B0915A088062809333
:1032F000570890935808A0935908B0935A080C9413
:10330000CC61433D51056105710511F40C94BC2756
:10331000B4F4493A51056105710509F489C50CF405
:10332000ADC54A3A51056105710509F435C54E3BF5
:1033300051056105710509F41CC40C94CC61433E30
:1033400051056105710509F4B5C4D4F4423E510537
:103350006105710511F00C94CC6180915708909132
:103360005808A0915908B0915A0882608093570874
:1033700090935808A0935908B0935A080C94CC61C4
:10338000443E51056105710509F4CDC4453E510522
:103390006105710511F00C94CC61809157089091F2
:1033A0005808A0915908B0915A0884608093570832
:1033B00090935808A0935908B0935A080C94CC6184
:1033C000483F51056105710509F4D3C40CF03FC0B5
:1033D000403F51056105710509F46AC284F44E3E0F
:1033E00051056105710509F4C9C10CF019C24D3EC2
:1033F00051056105710509F4F7C00C94CC61423F99
:1034000051056105710509F4DDC10CF4BFC1463FEA
:1034100051056105710509F499C4473F51056105DE
:10342000710511F00C94CC61809157089091580867
:10343000A0915908B0915A089061809357089093D1
:103440005808A0935908B0935A080C94CC61483698
:1034500031E053076105710511F40C948426B4F52D
:103460004A3F51056105710509F437C40CF4A7C43E
:103470004B3F51056105710509F442C44536514081
:103480006105710511F00C94CC6140E050E06AE2F6
:103490008AE00F94AD0540E050E064E581E20F94CE
:1034A000AD0581E08093080E10920B0E6AE178E082
:1034B00086E20F94B5068091F20F9091F30F986019
:1034C0009093F30F8093F20F0C94CC614A36A1E0F5
:1034D0005A076105710509F47CC00CF48BC74E36A0
:1034E000E1E05E076105710509F473C040375140A2
:1034F0006105710511F00C94CC6140E050E06EE67E
:1035000081E20F94AD058091F20F9091F30F9260DC
:103510009093F30F8093F20F0C94CC6180910C0286
:10352000813419F541E050E066E08BE10F94AD0580
:1035300041E050E060E181E20F94AD0541E050E0F0
:1035400062E181E20F94AD0541E050E063E181E288
:103550000F94AD0541E050E06EE781E20F94AD05B8
:1035600084E480930C020C94CC61843411F00C94AC
:10357000CC618091F20F9091F30F80649093F30FE0
:103580008093F20F1092080E0C94CC6140E050E052
:1035900066E08BE10F94AD0540E050E060E181E230
:1035A0000F94AD0540E050E062E181E20F94AD057B
:1035B00040E050E063E181E20F94AD0540E050E06F
:1035C0006EE781E20F94AD0581E480930C020C94C8
:1035D000CC618091F20F9091F30F92609093F30F72
:1035E0008093F20F0C94CC6180910C02823419F517
:1035F00083E480930C0241E050E063E08BE10F94A0
:10360000AD0541E050E067E581E20F94AD0541E092
:1036100050E066E781E20F94AD0541E050E06DEEC9
:1036200081E20F94AD0541E050E069E881E20F943A
:10363000AD050C94CC61833411F00C94CC6111E095
:103640001093540840E050E068E981E20F94AD0522
:1036500040E050E067E981E20F94AD0540E050E0C2
:103660006CE981E20F94AD0540E050E06DE981E244
:103670000F94AD0541E050E06AE481E20F94AD059E
:1036800040E050E06CE28AE00F94AD0510930B0E21
:103690008FEF9FEF9093FE028093FD0240E050E099
:1036A0006AE981E20F94AD0540E050E06BE981E208
:1036B0000F94AD056091F91C7091FA1C8091FB1C70
:1036C0009091FC1C0F94C0CEAB0166E289E00F9490
:1036D000AD056091FD1C7091FE1C8091FF1C9091C6
:1036E000001D0F94C0CEAB0167E289E00F94AD05D9
:1036F00040E050E068E289E00F94AD051092080EBA
:103700000C94CC6140E050E06EE681E20F94AD0590
:103710008091F20F9091F30F92609093F30F80934A
:10372000F20F0C94CC6180910C02833411F00C9454
:10373000CC6182E480930C0240E050E063E08BE1D6
:103740000F94AD0540E050E067E581E20F94AD05D0
:1037500040E050E066E781E20F94AD0540E050E0C4
:103760006DEE81E20F94AD0540E050E069E881E242
:103770000F94AD0510920B0E0C94CC6140E050E01C
:1037800064E58AE00F94AD050C94CC611092080EAC
:1037900080E00F94DF448091F20F9091F30F8260EC
:1037A0009093F30F8093F20F81E080930F0E40E02F
:1037B00050E068E08AE00F94AD0581E48093100E3C
:1037C0000C94CC618091F70F882311F40C94CC6198
:1037D00040E050E062E58AE00F94AD058091F40F7F
:1037E0008A3019F080E694E002C08BE594E09F9364
:1037F0008F9380E998E09F938F938E010F5F1F4F07
:103800001F930F930F944AC6B80180E00F94B5063A
:103810000F900F900F900F900F900F900C94CC6121
:1038200089E4809324028091F81C813049F441E0BE
:1038300050E06CE481E20F94AD0540E050E008C038
:1038400040E050E06CE481E20F94AD0541E050E0CF
:103850006BE481E20F94AD0541E050E06DE481E25C
:103860000F94AD0540E050E063E581E20F94AD05B3
:1038700041E050E061E481E20F94AD0541E050E0A9
:1038800066E481E20F94AD0541E050E06EE481E230
:103890000F94AD0541E050E06FE481E20F94AD0577
:1038A00040E050E064E18AE00F94AD050C94CC61F7
:1038B00080910508909106089093F4118093F3117C
:1038C0000E9421C980910708909108089093F611F1
:1038D0008093F5110E9421C982E480930C0282E555
:1038E0008093240281E080930B0E1092080E909139
:1038F000F40F9A3009F480E08093F81C082F10E050
:10390000000F111FF801ED50FE4E208131813093E0
:10391000DB072093DA0781111EC08091781C9091FB
:10392000791C6091E8087091E908681779072CF410
:10393000BC01990F880B990B04C0072E000C880B53
:10394000990B0F94A0C60D501E4E0F94C0CED801F7
:103950006D937C931DC080917C1C90917D1C609127
:10396000E6087091E708681779072CF4BC01990FF5
:10397000880B990B04C0072E000C880B990B0F9431
:10398000A0C60D501E4E0F94C0CEF8017183608307
:103990000E9421C981E48093100E40E050E068E06D
:1039A0008AE00F94AD0540E050E064E581E20F94B9
:1039B000AD0580E090E0A3E4B3E480931612909309
:1039C0001712A0931812B09319128090E41C9090D3
:1039D000E51CA090E61CB090E71C209112123091DB
:1039E0001312409114125091151260910E127091A1
:1039F0000F128091101290911112E1E06E2EE2E10F
:103A00007E2E7F926F92FAE1CF2EF2E1DF2EE12C33
:103A1000F12C03E413E40F949C6A0E94AFCC80E085
:103A200090E0A0E2B1E48093121290931312A0935D
:103A30001412B09315128090E01C9090E11CA0909D
:103A4000E21CB090E31CE0901612F0901712009167
:103A500018121091191260910E1270910F1280912C
:103A60001012909111127F926F9220E030E040E2AC
:103A700051E40F949C6A0E94AFCC0F900F900F906E
:103A80000F908091100E8E3411F40C94762E1092BB
:103A9000100E0E94D38240E050E06FE189E00F9465
:103AA000AD0540E050E068E28AE00F94AD0500917A
:103AB000F81C10E0F801EE0FFF1FEE0FFF1FE7509C
:103AC000F34E60817181828193810F94C0CE709397
:103AD000520860935108000F111FF801ED50FE4E7F
:103AE000808191810A979093500880934F0888E4D1
:103AF0008093100E0E94D38281E0809353080C942F
:103B0000CC6180910C0240E050E0813441F469E0E6
:103B10008AE00F94AD056AE178E082E007C06AE2CE
:103B20008AE00F94AD056AE178E086E20F94B5066D
:103B30008091F20F9091F30F98609093F30F809320
:103B4000F20F10920B0E1092080E0C94CC61809123
:103B5000370881110C94CC618091D51881110C9497
:103B6000CC6140E050E069E38AE00F94AD050C942D
:103B7000CC618091370881110C94CC6140E050E019
:103B800061E08AE00F94AD050C94CC618091370818
:103B900081110C94CC6110910C02113411F00C9431
:103BA000CC611092080E1092D41881E08093D51841
:103BB00040E050E068E08AE00F94AD051093100EED
:103BC0008091F20F9091F30F94609093F30F809394
:103BD000F20F0C94CC6180910C02813439F440E0F6
:103BE00050E061E08AE00F94AD05ADCF843409F078
:103BF000AACF8091F20F9091F30F90619093F30F01
:103C00008093F20FA0CF80910C02823441F3833471
:103C100009F099CFEECF80910C02992369F081349D
:103C200059F48091F20F9091F30F88609093F30F05
:103C30008093F20F0C94CC61843411F00C94CC611D
:103C40008091F20F9091F30F80689093F30F80931F
:103C5000F20F1092080E0C94CC618091D518882335
:103C600011F40C94CC6180910C02823459F480914F
:103C7000F20F9091F30F80619093F30F8093F20F06
:103C80000C94CC61833411F00C94CC6140E050E092
:103C900066E18AE00F94AD0541E050E064E581E221
:103CA0000F94AD0582E58093240281E080930B0E92
:103CB0000C94CC618091570890915808A0915908B4
:103CC000B0915A0888608093570890935808A09341
:103CD0005908B0935A080C94CC6180915708909180
:103CE0005808A0915908B0915A08A16080935708CC
:103CF00090935808A0935908B0935A080C94CC613B
:103D00008091570890915808A0915908B0915A088D
:103D1000A2608093570890935808A0935908B093D5
:103D20005A080C94CC618091570890915808A09142
:103D30005908B0915A0881608093570890935808A9
:103D4000A0935908B0935A080C94CC6180915708FD
:103D500090915808A0915908B0915A0890628093A8
:103D6000570890935808A0935908B0935A080C9498
:103D7000CC618091570890915808A0915908B09152
:103D80005A0890648093570890935808A093590854
:103D9000B0935A080C94CC618091570890915808C0
:103DA000A0915908B0915A08806180935708909368
:103DB0005808A0935908B0935A080C94CC6180918C
:103DC000570890915808A0915908B0915A089068E6
:103DD0008093570890935808A0935908B0935A08B5
:103DE0000C94CC618091570890915808A091590883
:103DF000B0915A0891608093570890935808A09307
:103E00005908B0935A080C94CC618091570890914E
:103E10005808A0915908B0915A08806880935708B3
:103E200090935808A0935908B0935A080C94CC6109
:103E30008091570890915808A0915908B0915A085C
:103E400092608093570890935808A0935908B093B4
:103E50005A080C94CC618091570890915808A09111
:103E60005908B0915A089460809357089093580865
:103E7000A0935908B0935A080C94CC6180915708CC
:103E800090915808A0915908B0915A089860809371
:103E9000570890935808A0935908B0935A080C9467
:103EA000CC61423051056105710511F489E406C009
:103EB000423351056105710519F482E580932402AE
:103EC00040E050E06CE481E20F94AD0540E050E04A
:103ED0006BE481E20F94AD0540E050E064E18AE0DC
:103EE0000F94AD058FEF8093F81C0C94CC614A358C
:103EF00051056105710519F41092F81C03C081E0A9
:103F00008093F81C8091F81C082F10E0000F111FFF
:103F1000F801ED50FE4E208131813093DB07209374
:103F2000DA0781111EC08091781C9091791C6091F4
:103F3000E8087091E908681779072CF4BC01990F1B
:103F4000880B990B04C0072E000C880B990B0F945B
:103F5000A0C60D501E4E0F94C0CED8016D937C9319
:103F60001DC080917C1C90917D1C6091E608709131
:103F7000E708681779072CF4BC01990F880B990B97
:103F800004C0072E000C880B990B0F94A0C60D508F
:103F90001E4E0F94C0CEF801718360830E9421C928
:103FA00081E48093100E40E050E068E08AE00F94D6
:103FB000AD0540E050E064E581E20F94AD0580E09E
:103FC00090E0A3E4B3E48093161290931712A093A9
:103FD0001812B09319128090E41C9090E51CA090E8
:103FE000E61CB090E71C2091121230911312409100
:103FF00014125091151260910E1270910F1280914F
:10400000101290911112E1E06E2EE2E17E2E7F926D
:104010006F92FAE1CF2EF2E1DF2EE12CF12C03E4D6
:1040200013E40F949C6A0E94AFCC80E090E0A0E281
:10403000B1E48093121290931312A0931412B093D0
:1040400015128090E01C9090E11CA090E21CB090B2
:10405000E31CE0901612F0901712009118121091C4
:10406000191260910E1270910F128091101290919E
:1040700011127F926F9220E030E040E251E40F9401
:104080009C6A0E94AFCC0F900F900F900F90809180
:10409000100E8E3411F40C94762E1092100E0E9495
:1040A000D38240E050E06FE189E00F94AD0540E03D
:1040B00050E068E28AE00F94AD050091F81C10E032
:1040C000F801EE0FFF1FEE0FFF1FE750F34E608168
:1040D0007181828193810F94C0CE70935208609356
:1040E0005108000F111FF801ED50FE4E80819181A3
:1040F0000A979093500880934F0888E48093100E9D
:104100000E94D38281E0809353080C94CC6180910B
:10411000F81C813091F587ED90E09093541C8093CA
:10412000531C90937F1C80937E1C8AEA90E09093AE
:104130007D1C80937C1C81E490E09093F507809334
:10414000F4070F94BD3580917E1C90917F1C909355
:10415000F6118093F5110E9421C90F949E3940E019
:1041600050E06DE481E20F94AD0540E050E063E57E
:1041700081E20F94AD050C94CC6181110C94CC615B
:1041800087ED90E09093571C8093561C90937B1C76
:1041900080937A1C8AEA90E09093791C8093781C33
:1041A00081E490E09093F7078093F6070F94BD3574
:1041B00080917A1C90917B1C9093F4118093F31161
:1041C0000E9421C90F949E3940E050E06DE481E2E5
:1041D0000F94AD0540E050E063E581E20F94AD053A
:1041E0000C94CC618091F81C813091F584E091E0D1
:1041F0009093541C8093531C90937F1C80937E1C3F
:1042000086EE90E090937D1C80937C1C8AE590E084
:104210009093F5078093F4070F94BD3580917E1C31
:1042200090917F1C9093F6118093F5110E9421C903
:104230000F949E3940E050E06DE481E20F94AD05AB
:1042400040E050E063E581E20F94AD050C94CC6151
:1042500081110C94CC6184E091E09093571C809381
:10426000561C90937B1C80937A1C86EE90E0909372
:10427000791C8093781C8AE590E09093F7078093EF
:10428000F6070F94BD3580917A1C90917B1C90931A
:10429000F4118093F3110E9421C90F949E3940E0DC
:1042A00050E06DE481E20F94AD0540E050E063E53D
:1042B00081E20F94AD050C94CC618091F81C8130A3
:1042C000A1F58CED90E09093541C8093531C86EEE6
:1042D00090E090937F1C80937E1C80EA90E0909306
:1042E0007D1C80937C1C8CE390E09093F507809379
:1042F000F4070F94BD3580917E1C90917F1C9093A4
:10430000F6118093F5110E9421C90F949E3940E067
:1043100050E06DE481E20F94AD0540E050E063E5CC
:1043200081E20F94AD050C94CC6181110C94CC61A9
:104330008CED90E09093571C8093561C86EE90E095
:1043400090937B1C80937A1C80EA90E09093791C78
:104350008093781C8CE390E09093F7078093F607A6
:104360000F94BD3580917A1C90917B1C9093F41131
:104370008093F3110E9421C90F949E3940E050E0D0
:104380006DE481E20F94AD0540E050E063E581E229
:104390000F94AD050C94CC618091F81C823010F024
:1043A0000C94CC6140E050E064E38AE00F94AD05EA
:1043B00040910A0250910B0262E289E00F94AD0530
:1043C000409108025091090263E289E00F94AD0523
:1043D000409106025091070264E289E00F94AD0516
:1043E000409104025091050265E289E00F94AD0509
:1043F0000C94CC6140E050E064E18AE00F94AD059C
:104400000C94CC6140910A0250910B0214161506CF
:1044100014F00C94CC614550510950930B02409319
:104420000A0262E289E00F94AD050C94CC614091E0
:104430000A0250910B024633F1E05F0714F00C942E
:10444000CC614B5F5F4F50930B0240930A0262E2D4
:1044500089E00F94AD050C94CC6140910802509115
:1044600009021416150614F00C94CC61455051093C
:10447000509309024093080263E289E00F94AD056E
:104480000C94CC614091080250910902463321E01E
:10449000520714F00C94CC614B5F5F4F50930902AC
:1044A0004093080263E289E00F94AD050C94CC615F
:1044B00040910602509107021416150614F00C9450
:1044C000CC6145505109509307024093060264E2C3
:1044D00089E00F94AD050C94CC6140910602509197
:1044E0000702463331E0530714F00C94CC614B5F64
:1044F0005F4F509307024093060264E289E00F94F5
:10450000AD050C94CC614091040250910502141643
:10451000150614F00C94CC614550510950930502D6
:104520004093040265E289E00F94AD050C94CC61E0
:1045300040910402509105024936510514F00C9443
:10454000CC614B5F5F4F509305024093040265E2DC
:1045500089E00F94AD050C94CC61E091F81C40917A
:104560000A0250910B0220910802309109026091D9
:104570000602709107028091040290910502E111F8
:1045800030C06C33A1E07A0714F06BE371E07093F4
:10459000571C6093561C4C33B1E05B0714F04BE39F
:1045A00051E050937B1C40937A1C2C33E1E03E0792
:1045B00014F02BE331E03093791C2093781C8F3674
:1045C000910514F08EE690E09093F7078093F6073C
:1045D00080917A1C90917B1C9093F4118093F3113D
:1045E00034C06C33F1E07F0714F06BE371E070933B
:1045F000541C6093531C4C3361E056072CF45093C9
:104600007F1C40937E1C06C04BE351E05093541C2A
:104610004093531C2C33A1E03A0714F02BE331E014
:1046200030937D1C20937C1C8F36910514F08EE610
:1046300090E09093F5078093F40780917E1C909111
:104640007F1C9093F6118093F5110E9421C90F945D
:10465000BD350F949E3940E050E06DE481E20F9447
:10466000AD0540E050E063E581E20F94AD050C94A8
:10467000CC6140E050E060E289E00F94AD0540E09D
:1046800050E068E28AE00F94AD0588E48093100E54
:104690000E94D3820091F81C01111DC080917A1CE8
:1046A00090917B1C6091E0087091E1086817790790
:1046B0002CF4BC01990F880B990B04C0072E000C39
:1046C000880B990B0F94A0C60F94C0CE7093F41171
:1046D0006093F31120C080917E1C90917F1C6091AB
:1046E000E4087091E508681779072CF4BC01990F6C
:1046F000880B990B04C0072E000C880B990B0F94A4
:10470000A0C610E0000F111F0D501E4E0F94C0CE1A
:10471000F801718360830E9421C90091F81C10E0A8
:10472000F801EE0FFF1FEE0FFF1FE750F34E608101
:104730007181828193810F94C0CE709352086093EF
:104740005108000F111FF801ED50FE4E808191813C
:104750000A979093500880934F080E94D38281E07B
:10476000809353080C94CC6180912402893411F019
:104770000C94CC6140E050E068E08AE00F94AD0515
:1047800081E48093100EE091F81C24E0E29FF00198
:104790001124E45AFD4F608171818281938160937D
:1047A0000E1270930F128093101290931112E090DA
:1047B0001612F090171200911812109119122091F0
:1047C00012123091131240911412509115120F943D
:1047D0006707E0901612F0901712009118121091CE
:1047E000191220911212309113124091141250910B
:1047F000151260910E1270910F128091101290910B
:104800001112E8EF2E2EECE13E2E3F922F92812CDA
:10481000912CF8E4AF2EF3E4BF2EAAE1CA2EA2E158
:10482000DA2E0F949C6A0E94AFCC20E030E040EF7B
:1048300051E460911A1270911B1280911C12909198
:104840001D120F9426CD60931A1270931B12809341
:104850001C1290931D12E0901612F0901712009106
:1048600018121091191220911212309113124091C6
:1048700014125091151260910E1270910F128091C6
:104880001012909111123F922F92812C912CB0E333
:10489000AB2EB1E4BB2E0F949C6A0E94AFCC0F905C
:1048A0000F900F900F908091100E8E3411F40C9495
:1048B000762E20E030E047E554E460911A127091C2
:1048C0001B1280911C1290911D120F9426CD6093A3
:1048D0001A1270931B1280931C1290931D12C09099
:1048E000320FD090330FE090340FF090350F20E06E
:1048F00030E846EF53E4C701B6010F949AC64090E2
:104900001212509013126090141270901512209190
:104910000E1230910F124091101250911112C65E7A
:10492000DE4F288339834A835B83CA51D14020916B
:104930001612309117124091181250911912C25E3E
:10494000DE4F288339834A835B83CE51D1401816CA
:104950009CF020E030E046EF53E4C701B6010F942D
:10496000FECF87FD09C03F922F92812C912CB0E29F
:10497000AB2EB2E4BB2E0AC088EF9CE19F938F93CD
:10498000812C912CA0E7AA2EA2E4BA2EFAE1CF2E18
:10499000F2E1DF2EC25EDE4FE880F9800A811B81E2
:1049A000CE51D140A3019201C65EDE4F688179816C
:1049B0008A819B81CA51D1400F949C6A0F900F90BD
:1049C0000E94AFCC8091100E8E3411F40C94762E90
:1049D00020E030E048E452E460911A1270911B121A
:1049E00080911C1290911D120F9426CD60931A1283
:1049F00070931B1280931C1290931D12E09016125C
:104A0000F0901712009118121091191220911212A1
:104A100030911312409114125091151260910E12A0
:104A200070910F128091101290911112E8EFFCE139
:104A3000FF93EF93812C912CA12CB0E4BB2EEAE1E3
:104A4000CE2EE2E1DE2E0F949C6A0E94AFCC0F9036
:104A50000F908091100E8E3411F40C94762E1092DB
:104A6000100E40E050E06EE08AE00F94AD050C942B
:104A7000CC610E947FB40C94CC618091550881FF79
:104A800002C00C94CC619091D20F8091D10F9813F9
:104A90000C94EA6140E050E06BE084E10F94AD05D6
:104AA00040E050E065E18AE00F94AD0582E4809338
:104AB000100E8093451CE091F81C34E0E39FF00158
:104AC0001124E45AFD4F608171818281938160934A
:104AD0000E1270930F128093101290931112E090A7
:104AE0001612F090171200911812109119122091BD
:104AF0001212309113124091141250911512E8EFD6
:104B0000FCE1FF93EF93812C912CE8E4AE2EE3E4DB
:104B1000BE2EFAE1CF2EF2E1DF2E0F949C6AE090D8
:104B20001612F0901712009118121091191220917C
:104B30001212309113124091141250911512E091FB
:104B4000011264E0E69FF0011124E45AFD4F6081F8
:104B50007181828193810F946707E091011284E053
:104B6000E89FF0011124E45AFD4F80819181A281D8
:104B7000B38180930E1290930F12A0931012B093F2
:104B80001112E091F81CF0E0EE0FFF1FED50FE4E09
:104B90008091DA079091DB07918380830E9421C97D
:104BA0000E94AFCC0F900F900C94CC61809155086F
:104BB00081FF02C00C94CC612091D20F9091D10F53
:104BC00029130C94EE618061809355080C94CC619C
:104BD0008091550881FF02C00C94CC612091D20FC6
:104BE0009091D10F29130C94EE610C94F161909186
:104BF000D20F8091D10F98130C94CC610C947561F5
:104C00009091D20F8091D10F98130C94CC610C9499
:104C10002962E091FD02F091FE02EF3F9FEFF9075C
:104C200011F40C94CC61EE0FFF1FED50FE4E80810D
:104C300091818B33A1E09A0714F00C94CC61059616
:104C4000918380830E9421C90E9421C9E091FD02C5
:104C5000F091FE02EE0FFF1FED50FE4E408151819C
:104C600068E289E00F94AD050C94CC61E091FD02FF
:104C7000F091FE02EF3FBFEFFB0711F40C94CC6103
:104C8000EE0FFF1FED50FE4E808191811816190620
:104C900014F00C94CC610597918380830E9421C904
:104CA0000E9421C9E091FD02F091FE02EE0FFF1F6C
:104CB000ED50FE4E4081518168E289E00F94AD05D0
:104CC0000C94CC618091FD029091FE02019611F44A
:104CD0000C94CC619091D20F8091D10F98130C94C9
:104CE000EE610C94B7628091FD029091FE020196F4
:104CF00011F40C94CC619091D20F8091D10F981344
:104D00000C94EE610C94BD629091D20F8091D10F02
:104D100098130C94CC610C94C3627090451C22E4EF
:104D200072120C94CC611092100E8091F20F90913F
:104D3000F30F8D7F9093F30F8093F20F80912402F5
:104D4000823509F047C089E4809324028091F81CE1
:104D5000813049F441E050E06CE481E20F94AD050C
:104D600040E050E008C040E050E06CE481E20F9485
:104D7000AD0541E050E06BE481E20F94AD0541E008
:104D800050E06DE481E20F94AD0541E050E063E551
:104D900081E20F94AD0541E050E061E481E20F94BF
:104DA000AD0541E050E066E481E20F94AD0541E0DD
:104DB00050E06EE481E20F94AD0541E050E06FE415
:104DC00081E20F94AD0540E050E064E18AE00F9489
:104DD000AD05CEC0893409F0CBC081E48093100EBC
:104DE00040E050E068E08AE00F94AD0520900E08A6
:104DF00030900F0840901008509011082092121225
:104E000030921312409214125092151220E030E0AA
:104E100040E752E46091E3027091E4028091E50280
:104E20009091E6020F9414CE4B015C01E0901612B3
:104E3000F0901712009118121091191260910E1231
:104E400070910F12809110129091111221E032E1B5
:104E50003F932F932AE1C22E22E1D22EA20191018B
:104E60000F949C6A0E94AFCC0F900F908091100E0F
:104E70008E3409F43BC720E030E040E251E4609119
:104E800012087091130880911408909115080F94DE
:104E900026CD7B018C0160931612709317128093BC
:104EA0001812909319128091090889838090E70263
:104EB0009090E802A090E902B090EA0220911212CC
:104EC00030911312409114125091151260910E12EC
:104ED00070910F128091101290911112FE01319673
:104EE000FF93EF930F949C6A0E94AFCC0F900F90AA
:104EF0008091100E8E3409F4F9C61092100E709243
:104F00000C0240E050E063E08BE10F94AD0540E01F
:104F100050E067E581E20F94AD0540E050E066E7C0
:104F200081E20F94AD0540E050E06DEE81E20F9418
:104F3000AD0540E050E069E881E20F94AD0540E046
:104F400050E06AE28AE00F94AD0581E08093080E9C
:104F500010920B0E6AE178E086E20F94B50680911C
:104F6000F20F9091F30F98609093F30F8093F20FEC
:104F70001092451C0C94CC6180919A111092100EE5
:104F80008823E9F010929A118091F20F9091F30F1B
:104F900098609093F30F8093F20F80910C0240E0A1
:104FA00050E0813431F469E08AE00F94AD050C944F
:104FB000CC616AE28AE00F94AD050C94CC6110924A
:104FC000291D10920B0EE5E8F8E084918F018823EB
:104FD00051F0082E000C990B0F945A420F5F1F4F8F
:104FE000F8018491F4CF10925F0881E00E94ADB087
:104FF00040E050E065E08AE00F94AD050C94CC6190
:105000009091F807292F287093FF33C28091FC07F5
:10501000823008F42EC24B3A51056105710509F43E
:1050200033C1DCF54E3551056105710509F4AEC19A
:1050300074F4453351056105710509F4D9C147344C
:1050400051056105710509F493C00C94CC61423897
:1050500051056105710509F47FC0423A51056105AA
:10506000710509F44BC04F3551056105710511F00B
:105070000C94CC6114E41093451C40E050E06BE0CC
:1050800084E10F94AD0540E050E065E18AE00F94C3
:10509000AD051093100E0C94CC61453C5105610593
:1050A0007105C1F194F4413B51056105710561F150
:1050B000423B51056105710511F00C94CC6180E013
:1050C00090E00F943E390C94CC614E34F1E05F07D0
:1050D0006105710599F1443721E0520761057105B9
:1050E000F9F04C3C51056105710511F00C94CC614F
:1050F00082E090E00F943E390C94CC618EEF9FEFEC
:105100000F943E390C94CC618FEF9FEF0F943E3992
:105110000C94CC6181E090E00F943E390C94CC610A
:105120008DEF9FEF9093471C8093461C40E050E02A
:105130006AE08AE00F94AD050C94CC6183E090E0C6
:105140009093471C8093461C40E050E06AE08AE060
:105150000F94AD050C94CC611092471C1092461C24
:1051600040E050E06AE08AE00F94AD050C94CC6119
:1051700040E050E068E08AE00F94AD0581E4809360
:10518000100E41E061E081E00F94A2541092100EE5
:105190000E94AFCC0E94BBB51091461C8091FC07C9
:1051A000823011F540E050E061E18AE00F94AD05F6
:1051B00080E58093100E0091F907010F0093F90725
:1051C000002E000C110B20E030E0A901CA01B9014A
:1051D0000F94425840E050E069E18AE00F94AD0539
:1051E0001092100E0C94CC61833029F540E050E011
:1051F00061E18AE00F94AD0580E58093100E009187
:10520000FA07010F0093FA07002E000C110B20E0A3
:1052100030E04CE553EC60E070E088EA92EC0F94EB
:10522000425840E050E069E18AE00F94AD051092E9
:10523000100E0C94CC61843011F00C94CC6140E0E1
:1052400050E061E18AE00F94AD0580E58093100E97
:105250000091FB07010F0093FB07002E000C110BC0
:1052600020E030E04CE553EC60E070E084EA92E44A
:105270000F94425840E050E069E18AE00F94AD0598
:105280001092100E0C94CC611092100E8091F907C0
:105290004091FA07042F081B4091FB07142F181B9D
:1052A000602F002E000C770B880B990B0F94A0C673
:1052B0002DEC3CEC4CEC5DEB0F9482C1609301084B
:1052C000709302088093030890930408612F012EC5
:1052D000000C770B880B990B0F94A0C62DEC3CECBF
:1052E0004CEC5DEB0F9482C16093FD077093FE0759
:1052F0008093FF07909300080023A1F040E050E066
:105300006FE18AE00F94AD0507FF07C0802F992752
:1053100081950CF4909508E0080F402F000F550B75
:1053200064E015C01123B9F040E050E060E28AE08B
:105330000F94AD0517FF07C0A12FBB27A1950CF453
:10534000B09518E01A0F412F110F550B65E08BE156
:105350000F94AD0511C014E41093451C40E050E0DB
:105360006BE084E10F94AD0540E050E065E18AE038
:105370000F94AD051093100E82E890E09093811C7D
:105380008093801C0F94BD350C94CC614091FB0739
:105390008091F907142F181BC1F040E050E060E243
:1053A0008AE00F94AD0517FF07C0E12FFF27E195B5
:1053B0000CF4F09518E01E0F412F110F550B65E00E
:1053C0008BE10F94AD050C94CC6114E41093451C53
:1053D00040E050E06BE084E10F94AD0540E050E028
:1053E00065E18AE00F94AD051093100E0C94CC612A
:1053F0008091451C843411F00C94CC611092FC0710
:10540000977F9093F8071092100E1092EE11109261
:10541000ED110E94DDC81092F4111092F3110E9458
:1054200021C91092F6111092F5110E9421C9109213
:10543000291D10920B0EEAE7F8E084918F01882372
:1054400051F0082E000C990B0F945A420F5F1F4F1A
:10545000F8018491F4CF10925F080E94ADB040E053
:1054600050E065E08AE00F94AD051092451C0C9465
:10547000CC614837F1E05F0710F00C94CC61FA0181
:105480008827EE58FF4F8F4F0D9498D180912502B9
:1054900090912602826090932602809325020C94BC
:1054A000CC6180912502909126028460909326021F
:1054B000809325020C94CC61809125029091260264
:1054C000886090932602809325020C94CC61809191
:1054D00025029091260280619093260280932502F6
:1054E0000C94CC6180912502909126028062909369
:1054F0002602809325020C94CC610F941D480097DE
:1055000081F4809125029091260294609093260266
:10551000809325028091DE1181508093DE110C94DE
:10552000CC61019711F00C94CC618091250290918F
:1055300026029460909326028093250240E050E07A
:1055400067E381E20F94AD0540E050E061E08BE15C
:105550000F94AD058091DE1181508093DE110C9483
:10556000CC611092291D10920B0EEFE6F8E08491A9
:105570008F01882351F0082E000C990B0F945A428A
:105580000F5F1F4FF8018491F4CF10925F0881E004
:105590000E94ADB040E050E065E08AE00F94AD05B8
:1055A0000C94CC618091D618882311F40C94CC61B2
:1055B00041E061E087ED98E10F94568E8FEF9FEF09
:1055C0009093C5188093C418412C512C320173015B
:1055D000620100E010E0A3E7AA2EA8E1BA2E9E0126
:1055E0002F5F3F4F190188248394912C4091751BA4
:1055F0005091761B6091771B7091781B8091D01A27
:105600009091D11AA091D21AB091D31A841795070C
:10561000A607B70708F06DC0D501E2E31D92EA9531
:10562000E9F70F9425090196D9F41092BF1810924A
:10563000BE181092C1181092C01881E090E09093AB
:10564000C3188093C2181092CF181092CE181092DF
:10565000D1181092D01880E00F94DF440C94E162CE
:105660000115110521F52FEF3FEF3A8329833F9272
:105670002F92AAE4BBE2BF93AF93BF92AF920F9475
:1056800079C689819A810F900F900F900F900F909B
:105690000F90019639F09092C5188092C41807E0D7
:1056A00010E021C01092C5181092C4181CC080E0F0
:1056B0000F9493B06B017C0181E00F9493B02B01A8
:1056C0003C0120E030E0A901C701B6010F94FECFF4
:1056D00018167CF020E030E0A901C301B2010F945C
:1056E000FECF181634F00F5F1F4F0E3111050CF46A
:1056F0007DCF80E00F94DF4420E030E0A901C701B6
:10570000B6010F949AC618165CF020E030E0A901AB
:10571000C301B2010F949AC6181614F00C94E162FA
:105720008090C8029090C902A090CA02B090CB02AB
:10573000A5019401C701B6010F949AC6811114C046
:1057400020E030E0A901C701B6010F94FECF181682
:105750005CF420E030E0A901C301B2010F949AC6C5
:10576000181614F00C94E1622091CC023091CD0215
:105770004091CE025091CF02C65EDE4F288339831E
:105780004A835B83CA51D140C301B2010F949AC6C8
:1057900081111EC020E030E0A901C301B2010F94C5
:1057A000FECF18165CF420E030E0A901C701B60175
:1057B0000F949AC6181614F00C94E162A501940196
:1057C000C701B6010F949AC6882311F40C94E162C4
:1057D00020E030E0A901C701B6010F949AC620E08D
:1057E00030E040E251E418161CF0C501B40102C0DB
:1057F000C701B6010F9482C10F94C0CE60930E0210
:1058000020E030E0A901C301B2010F949AC620E064
:1058100030E040E251E418164CF0C65EDE4F68817D
:1058200079818A819B81CA51D14002C0C301B201F2
:105830000F9482C10F94C0CE60930F0240E050E0FD
:105840006FE58AE00F94AD056091C8027091C902BE
:105850008091CA029091CB020F94C0CEAB016DE44F
:1058600089E00F94AD0520E030E040E251E4609122
:10587000C8027091C9028091CA029091CB020F9424
:1058800082C10F94C0CE0AE010E0CB01B8010F94A2
:1058900069D1AC016EE489E00F94AD056091CC0252
:1058A0007091CD028091CE029091CF020F94C0CE24
:1058B000AB016FE489E00F94AD0520E030E040E2F9
:1058C00051E46091CC027091CD028091CE02909112
:1058D000CF020F9482C10F94C0CECB01B8010F94B8
:1058E00069D1AC0160E589E00F94AD0580910E02AD
:1058F0001AE0612F0F9448D1482F880F550B61E5AE
:1059000089E00F94AD0580910E02612F0F9448D16C
:10591000492F990F550B62E589E00F94AD058091F1
:105920000F02612F0F9448D1482F880F550B63E564
:1059300089E00F94AD0580910F02612F0F9448D13B
:10594000492F990F550B64E589E00F94AD05CEC141
:105950008091D618882311F40C94CC61809126197B
:1059600081110C94CC61CDB6DEB680915D0890912A
:105970005E080F946148E7EDF8E1DF010D9000202B
:10598000E9F78DB79EB78A1B9B0B9C012D52374EB2
:105990000FB6F8943EBF0FBE2DBF0DB71EB70F5FF9
:1059A0001F4FFF93EF9380E198E09F938F931F9396
:1059B0000F930F944AC6780134E0E30EF11C0F9068
:1059C0000F900F900F900F900F90F7018081882318
:1059D00049F0082E000C990B0F941AD4D7018D931F
:1059E0007D01F3CFC8010E941FB18CE098E00E94B6
:1059F000B0B00FB6F894DEBE0FBECDBE0C94CC6135
:105A000040E050E067E381E20F94AD0540E050E0F4
:105A100061E08BE10F94AD0540E050E062E08AE088
:105A20000F94AD0581E08093291D8091250290910E
:105A30002602926090932602809325020C94CC61FA
:105A40008091250290912602916090932602809386
:105A500025020C94CC6180912502909126028068E9
:105A600090932602809325020C94CC6140E050E094
:105A700062E18AE00F94AD050C94CC6140E050E007
:105A80006CE18AE00F94AD0580E00E94ADB0109209
:105A9000311D1092301D10922F1D81E080935F0800
:105AA0000C94CC611092291D10920B0EE1E0F8E0ED
:105AB00084918F01882351F0082E000C990B0F94CC
:105AC0005A420F5F1F4FF8018491F4CF10925F0884
:105AD0000E94D38281E00E94ADB040E050E065E0DA
