:100000000C943E170C946F170C946F170C946F1789
:100010000C946F170C946F170C946F170C946F1748
:100020000C946F170C946F170C946F170C946F1738
:100030000C946F170C946F170C946F170D94332555
:100040000C946F170C946F170C946F170C946F1718
:100050000C946F170C946F170C9427A20C9405A0A6
:100060000C946F170D94E15F0D94B75F0C946F17AC
:100070000C946F170C946F170C946F170C946F17E8
:100080000C9439C10C946F170C946F170C946F1764
:100090000C946F170C946F170C946F170C946F17C8
:1000A0000C946F170C946F170C946F170C946F17B8
:1000B0000C946F170C946F170C946F170C946F17A8
:1000C0000C946F170C946F170C946F170D94825F3C
:1000D0000D94585F0C946F170C946F170C946F1756
:1000E0000C946F17E65AA65D872E4B2C7C58692717
:1000F000475C7F27A65DA65D3157BE275B27A65DBF
:1001000072266726A65D4D39A65DA65D6A57525CCC
:10011000D13FE73FFD3F1340AB4029406F5CC33FF9
:100120008942ED5A6B395C393F405340C5577427BB
:10013000E8265B27272C523B422C045C474E392C87
:10014000302C255C825AA65D792EFD5B4757F93B22
:10015000872793267D26A65DF25798288739A65DC6
:10016000D25BA65BB0477E300327C04B9A367A3904
:10017000F6306F5C435BFC5A452E2F2F2F2F0B2F31
:100180006E317232362AD727F027CB2EED2E5C2621
:100190008826A65DA65D5B27BF2EAA2ACC2A1D282D
:1001A000F83AD93A6F5C6F5C6F5CA65DA65DA65DA0
:1001B000A65D4053CB599F597359EF581B59475966
:1001C000B85A755D0D43974283439445ED44774497
:1001D000A65D6F5A7C58EF2A082BBF2EA65D665C81
:1001E000A65DA65DC35B6940A04A8C465C5AC726E3
:1001F00076557F409540A65DEF40A65D2F3A273AA1
:100200006C5AA65DD534A65DA65DA65DFC344E3560
:100210003935C42DAE2D373A542CD12C552D822D85
:10022000C053D52D10472435A446A65DA65DA65D16
:10023000A65DA65DA65DA65DA65DA65D23282B280E
:100240005128A65DA65DBA46CE46B047A04AAC4A44
:10025000B04BA65DB84E1B4F4C4E9F4EC64CA65D94
:10026000A65DE34CA65D3751473845397B51E446DE
:10027000A65D095053509F50EB500150FA46A65DC1
:10028000BF51C152F3541856A65DA9546345634546
:1002900004554433CD29344ECF4CEE4CBF4DC74DA1
:1002A0005B273C4EA65DA65DA65DA65DA65DA65D30
:1002B000A65D4C5AA65D6D58AF5A1739A65DA65D6E
:1002C000A65DA65DA65DA65DA65DDE56A65DA65DE5
:1002D000A65DA65DA65DA65DA65DA65D8753985347
:1002E000ED52A65DA65DA65DA65DA65DA65DA65DBA
:1002F000A65DA65DA65DA65DA65DA65DA65DA65DE6
:10030000A65DA65DA65DA65DA65DA65DA65DA65DD5
:10031000A65DA65DA65DA65DA65DA65DA65DA65DC5
:10032000A65DA65DA65DA65DA65DA65DA65DA65DB5
:10033000A65DA65DA65DA65DA65DA65D853F473F61
:100340004B420D42A65D7245A65DA65D7A39FD2938
:10035000FD41C3407A39C3400048D940D940D5292E
:10036000E05BD95B0A561156DA5AA953EF5BF65B8C
:10037000BC5BAD5B405845584A584F5854583B58A1
:10038000514A704A4B2CE728DD29A65DA65DA65D83
:100390009B27692AA65DA65DBE57BF4FA65DA65DD9
:1003A000A65D1156A65D6A57A65D59585E58E52EA2
:1003B0003E2AB853342E1634A65D934FA65D0A56D6
:1003C000A65DA65D6358A65D68586C2E2B4A3E4A12
:1003D000DA5AB85AD835AF363B4FA73AB336EF287A
:1003E000523BE0359E4D3F38773716556855A65D30
:1003F00087393B4F6F5CA65D3F3A052A874F6F5C9C
:10040000A65DDA5AA953E89DEB9DDA9DDE9DE49D39
:10041000229EEF9DF39DF99DFD9D019E079E0B9EE3
:100420000F9E229E159E199E1D9E219F269F2B9FEB
:10043000359F3F9FB89F499F519F599F639F6D9FD5
:10044000779F869F909FB89F9A9FA49FAE9FB1A2CF
:10045000BEA2DAA2E7A201A30EA328A32AA32CA37B
:100460002EA336A388027C028C028E0286028E02A4
:100470009E026A027E0278026C0298028A02900250
:100480009202800284029A02084AD73B3BCE016E58
:1004900084BCBFFDC12F3D6C74319ABD56833DDADB
:1004A0003D00C77F11BED9E4BB4C3E916BAAAABEEA
:1004B000000000803F05A84CCDB2D44EB93836A913
:1004C000020C50B9918688083CA6AAAA2ABE000050
:1004D00000803F000D94E66C0D94A56D0D94A15E17
:1004E0000D9420CE0D947FBB0D9457540D9445214F
:1004F0000D94696E0D9458820D94516C0D94F66BA9
:100500000D94146C0D94D25E0D94B06C0D94756CBA
:100510000D94D86B0D94E16D0D94346D0D940F6DA9
:100520000D943A6E0D94336C0D94365F0D940CAFB0
:100530000D94C36D0D94FF6D0D9482820D94CE6C5D
:100540000D9456540D94C45E0D94B15E0D94EB5E03
:100550004E414E494E495459494E46CDCCCC3D0AA8
:10056000D7233C17B7D13877CC2B329595E6241F8B
:10057000B14F0A000020410000C84200401C462044
:10058000BCBE4CCA1B0E5AAEC59D746364696E6FC7
:1005900070737578585B003B4C415945523A25645D
:1005A000003B202020757365526166742C25640021
:1005B0004D363035205325640043616C63756C758E
:1005C000733A20200043616C63756C75733A202088
:1005D0000043616C63756C75733A2020005375722B
:1005E00066696E6720300A00417420426F74746F30
:1005F0006D20537469636B657200253033642E255A
:10060000303364253033642E253034640041742047
:10061000426F74746F6D20537469636B657200254B
:100620003033642E25303364253033642E25303446
:10063000640025737C4D253032642E2530326400F1
:1006400053757266696E6720300A00473238205849
:1006500030205930005430005431005430005430B0
:100660000053757266696E6720300A0047343300A4
:1006700047343100473430004733340047343300C7
:100680004734330047343100473430004D383400AC
:100690004D3834004D3834005A32204F6666736549
:1006A000743A20004F4B207365636F6E6420457869
:1006B000747275646572210A005A20706F736974D0
:1006C000696F6E3A20005A20706F736974696F6E9B
:1006D0003A20004D3834005A312050726F62652044
:1006E0006F66667365743A20004F4B2066697273BB
:1006F0007420457874727564657221200A005A204E
:10070000706F736974696F6E3A20005A20706F734E
:100710006974696F6E3A200043616C63756C757320
:100720003A20200043616C63756C75733A20200099
:1007300043616C63756C75733A20200043616C6390
:10074000756C75733A2020003630206465677265D9
:100750006573200A00543000543000543000436167
:100760006C6962726174696F6E205375636365733F
:100770007366756C0A005430004A756D70206F7690
:1007800065722073637265773120616E64207363D4
:1007900072657732200A004A756D70206F76657237
:1007A00020736372657731200A0047333400473382
:1007B00034004733340054300047333400537572EB
:1007C00066696E6720300A0053757266696E67202D
:1007D000300A0053757266696E6720300A005375DF
:1007E0007266696E6720300A0053757266696E67BB
:1007F00020300A0054300053757266696E672030ED
:100800000A004D33340053757266696E6720300AF2
:10081000004D3234004D3233202573004D32340008
:100820004D32332025730077696C6C20626520643B
:100830006973746F727465642062792025642E2553
:100840003164253164206D6D2E0054686520666921
:10085000727374206C61796572207072696E746550
:100860006420776974682074686520257320686F38
:1008700074656E640053757266696E6720300A0095
:1008800053757266696E6720300A00537572666927
:100890006E6720300A00526561647920746F2053BE
:1008A000746172740A002564206B6D2E0067636F9B
:1008B000646520666F756E640A0020746F2053743F
:1008C00061727420446973706C61792066726F6D17
:1008D00020526573657400546F6F6B2000646973F8
:1008E000706C6179206F6E6C696E6521002E00203E
:1008F00053544F50205052494E54200A004732382A
:10090000205830205930004D3335004737300052E1
:100910004553554D450A0050415553450A004D3940
:100920003930005374617274696E67205A204361D4
:100930006C6962726174696F6E2057697A61726462
:100940000A000A00205A3A200020593A2000205874
:100950003A200042656400456E642066696C65203B
:100960006C6973740A00426567696E2066696C651C
:10097000206C6973740A002F005344207072696EF2
:1009800074696E67206279746520004E6F7420531D
:1009900044207072696E74696E670A002569206D63
:1009A000696E2C20256920736563006F6B004649D2
:1009B000524D574152455F4E414D453A4D61726C23
:1009C000696E2042434E3344205369676D613B207A
:1009D0004649524D574152455F56455253494F4E35
:1009E0003A30312D322E302E384553533B20464974
:1009F000524D574152455F55524C3A68747470736A
:100A00003A2F2F6769746875622E636F6D2F4243AA
:100A10004E33442F42434E33445369676D612D4634
:100A200069726D776172653B2050524F544F434F4E
:100A30004C5F56455253494F4E3A312E303B204D74
:100A4000414348494E455F545950453A42434E331D
:100A500044205369676D613B2045585452554445C5
:100A6000525F434F554E543A323B20555549443A14
:100A7000005354415449535449435320524553451C
:100A8000540A00504F534954494F4E20484F4D454A
:100A90003A2000220A00556E6B6E6F776E20636FEE
:100AA0006D6D616E643A20220070012C0190012767
:100AB00001B0012201C0011D01F001180110021353
:100AC0000130020E016002090190020401C002FF20
:100AD000000003FA004003F5008003F000D003EBB0
:100AE000002004E6007004E100E004DC004005D7CB
:100AF00000C005D2004006CD00D006C8008007C364
:100B0000003008BE00F008B900C009B400B00AAF58
:100B100000B00BAA00D00CA500000EA000500F9B47
:100B200000C01096005012910000148C00C0158770
:100B300000B0178200B0197D00D01B7800001E7332
:100B40000040206E0090226900F024640040275F7E
:100B50000090295A00E02B5500102E500020304BF9
:100B60000010324600E033410090353C001037372A
:100B70000070383200A0392D00B03A2800A03B2385
:100B800000603C1E00103D1900903D1400103E0F07
:100B900000703E0A00C03E0500003F000048797327
:100BA000746572657369732074656D7065726174C4
:100BB0007572650A00546865726D616C2072756E9D
:100BC000617761792070726F74656374696F6E20EC
:100BD0006279204865617465725F49443A0A00454C
:100BE00072726F723A004572726F72283833293A06
:100BF0002042656420746865726D6973746F722039
:100C00006E6F742064657465637465640A00457270
:100C1000726F72283832293A2052696768742074DA
:100C20006865726D6973746F72206E6F742064658D
:100C30007465637465640A004572726F7228383196
:100C4000293A204C65667420746865726D69737406
:100C50006F72206E6F7420206465746563746564C0
:100C60000A002053544F50205052494E54200A003D
:100C70004572726F72283833293A204265642074B5
:100C80006865726D6973746F72206E6F742064652D
:100C90007465637465640A002053544F50205052A9
:100CA000494E54200A004572726F72283832293A30
:100CB00020526967687420746865726D6973746F17
:100CC00072206E6F742064657465637465640A00D5
:100CD0002053544F50205052494E54200A00457220
:100CE000726F72283831293A204C65667420746816
:100CF00065726D6973746F72206E6F742020646505
:100D00007465637465640A002053544F5020505238
:100D1000494E54200A004552524F52283839293A38
:100D200020424544206973206E6F742068656174A9
:100D3000696E67002053544F50205052494E542042
:100D40000A004552524F52283839293A20486F74C8
:100D5000656E64202564206973206E6F7420686559
:100D60006174696E67006563686F3A000000210076
:100D7000240027002A002D0030003300010100006C
:100D8000040107010A0100002200250028002B00B1
:100D90002E003100340002010000050108010B01A2
:100DA000000020002300260029002C002F00320024
:100DB00000010000030106010901050505050705FD
:100DC00008080808020202020A0A080804040404C7
:100DD00001010101010101010303030303030303F3
:100DE000040707070C0C0C0C0C0C0C0C0202020282
:100DF00006060606060606060B0B0B0B0B0B0B0B6B
:100E0000010210202008081020401020408002011C
:100E10000201080402010102040810204080804001
:100E20002010080402018004020180402010080400
:100E3000020108040201010204081020408001029E
:100E400004081020408000000A0B02090C0D0E0857
:100E50000703040100000000000000000000000083
:100E60000000000000000000000000000000000082
:100E7000000012111000000000000000000000003F
:100E80000000000000000000000000000A00207ABE
:100E90003A200020793A200020783A200042656408
:100EA0000045787472756465722072656C65617353
:100EB0006564206163746976653A20005A2053495D
:100EC000474D4120486F6D65640A0045787472751E
:100ED000646572206163746976653A20004D383428
:100EE000005374617274696E6720582043616C69A5
:100EF00062726174696F6E2057697A6172640A0068
:100F00004D3834005374617274696E672059204300
:100F1000616C6962726174696F6E2057697A61727F
:100F2000640A0024F4D43050C38E20C2A240178239
:100F30008B7011127A910D816CD90AA861E108C7F2
:100F4000586607615143061E4B5D05C145A7041A4B
:100F5000411104093D9803713931034036DB0265C4
:100F6000339102D4305402802E1D02632CEE0175A1
:100F70002AC501B028A001102781018F2564012B0B
:100F8000244B01E0223401AC211F018D200D018092
:100F90001FFC00841EED00971DDF00B81CD200E688
:100FA0001BC600201BBC00641AB200B219A8000ABC
:100FB00019A0006A189900D117910040178B00B54D
:100FC00016840031167E00B31579003A157300C7F8
:100FD000146F0058146A00EE13660088136300252E
:100FE000135E00C7125B006C12570015125400C14B
:100FF00011510070114F0021114B00D61049008D86
:101000001047004610440002104200C00F4000800C
:101010000F3E00420F3C00060F3B00CB0E38009302
:101020000E37005C0E3500270E3400F30D3200C180
:101030000D3100900D3000600D2E00320D2D000599
:101040000D2C00D90C2B00AE0C2900850C29005C5E
:101050000C2700350C27000E0C2600E80B2400C4DA
:101060000B2400A00B23007D0B23005A0B21003919
:101070000B2100180B2000F80A1F00D90A1E00BB24
:101080000A1E009D0A1D00800A1D00630A1C0047FD
:101090000A1B002C0A1B00110A1A00F7091A00DDAE
:1010A000091900C4091900AB091900920917007B3E
:1010B000091800630917004C0916003609160020AC
:1010C0000916000A091500F5081500E0081400CCFF
:1010D000081400B8081400A4081400900813007D38
:1010E0000812006B0813005808120046081200345A
:1010F000081100230811001208110001081100F066
:10110000071000E0071000D0071000C0071000B063
:10111000070F00A107100091070E0083070F00744E
:10112000070F0065070E0057070E0049070E003B2A
:10113000070D002E070E0020070D0013070D0006F7
:10114000070D00F9060C00ED060D00E0060C00D4BA
:10115000060C00C8060C00BC060C00B0060C00A46F
:10116000060B0099060C008D060B0082060B00771B
:10117000060B006C060B0061060A0057060B004CBC
:10118000060A0042060A0038060A002E060A002453
:10119000060A001A060A001006090007060A00FDE2
:1011A000050900F4050900EB050900E2050900D96D
:1011B000050900D0050900C7050900BE050900B5ED
:1011C000050800AD050800A50509009C0508009468
:1011D0000508008C050800840508007C05080074DB
:1011E0000508006C050700650508005D0507005649
:1011F0000508004E050700470507004005080038B0
:10120000050700310507002A050700230507001C14
:10121000050600160507000F050700080506000271
:10122000050700FB040600F5040700EE040600E8CD
:10123000040600E2040700DB040600D5040600CF24
:10124000040600C9040600C3040600BD040600B776
:10125000040600B1040500AC040600A6040600A0C4
:101260000405009B04060095040500900406008A0E
:1012700004050085040500800406007A0405007555
:10128000040500700405006B040500660405006198
:101290000405005C04050057040500520405004DD8
:1012A00004050048040500430405003E0404003A18
:1012B00004050035040500300404002C0405002753
:1012C000040400230405001E0404001A040400168C
:1012D000040500110404000D0404000904050004C1
:1012E00004040000040400FC030400F8030400F4F8
:1012F000030400F0030400EC030400E8030400E42A
:10130000030400E0030400DC030400D8030400D459
:10131000030400D0030400CC030400C8030300C589
:1013200003030024F404D9201BC40C5C0E9804C4ED
:10133000095F0265077101F405F900FB04B3004879
:10134000048700C10369005803550003034500BE2C
:10135000023A008402310053022A002902250004C7
:10136000022000E4011C00C8011900AF0117009819
:10137000011400840113007101100061011000517B
:10138000010E0043010D0036010B002B010B002064
:10139000010B00150109000C01090003010800FB05
:1013A000000800F3000800EB000700E4000600DE80
:1013B000000600D8000600D2000600CC000500C7D9
:1013C000000500C2000500BD000400B9000400B51E
:1013D000000400B1000400AD000400A9000400A551
:1013E000000300A20003009F0004009B000300987C
:1013F0000003009500020093000300900003008D9D
:101400000002008B000300880002008600020084B6
:10141000000300810002007F0002007D0002007BCB
:1014200000020079000200770001007600020074DB
:1014300000020072000100710002006F0002006DE6
:101440000001006C0002006A0001006900020067F0
:1014500000010066000100650001006400020062F6
:1014600000010061000100600001005F0002005DFA
:101470000001005C0001005B0001005A00010059FE
:1014800000010058000100570001005600010055FE
:1014900000010054000100530000005300010052FD
:1014A00000010051000100500001004F0001004EFA
:1014B0000000004E0001004D0001004C0001004BF7
:1014C0000000004B0001004A0001004900010048F3
:1014D00000000048000100470001004600000046EF
:1014E00000010045000000450001004400010043E8
:1014F00000000043000100420000004200010041E2
:1015000000000041000100400001003F0000003FDA
:101510000001003E0000003E0001003D0000003DD3
:101520000001003C0000003C0000003C0001003BCA
:101530000000003B0001003A0000003A00010039C1
:1015400000000039000100380000003800000038B9
:1015500000010037000000370001003600000036AF
:1015600000000036000100350000003500000035A5
:10157000000100340000003400000034000100339A
:101580000000003300000033000100320000003290
:101590000000003200010031000000310000003185
:1015A0000001003000000030000000300001002F7A
:1015B0000000002F0000002F0000002F0001002E6F
:1015C0000000002E0000002E0001002D0000002D64
:1015D0000000002D0000002D0001002C0000002C58
:1015E0000000002C0000002C0001002B0000002B4C
:1015F0000000002B0000002B0001002A0000002A40
:101600000000002A0000002A000100290000002933
:101610000000002900000029000000290001002826
:10162000000000280000002800000028000000281A
:10163000000100270000002700000027000000270D
:101640000000002700010026000000260000002600
:1016500000000026000000260001002500000025F3
:1016600000000025000000250000002500000025E6
:1016700000010024000000240000002400000024D9
:1016800000000024000100230000002300000023CC
:1016900000000023000000230000002300000023BE
:1016A00000010022000000220000002200000022B1
:1016B00000000022000000220001002100000021A3
:1016C0000000002100000021000000210000002196
:1016D0000000002100010020000000200000002088
:1016E000000000200000002000000020000000207A
:1016F000000000200001001F0000001F0000001F6C
:101700000000001F0000001F0000001F0000001F5D
:101710000001001E0000001E0000001E0000001E50
:1017200000000045787472756465722048656174C4
:1017300065640A0020573A00204500205A002059CD
:1017400000483D5800205A3A0020593A0020436F83
:10175000756E7420583A200020453A00205A3A000D
:1017600020593A00583A007A5F6D696E3A20007944
:101770005F6D61783A2000785F6D61783A2000787B
:101780005F6D696E3A2000486F74656E64206F6605
:1017900066736574733A00504944204175746F74E0
:1017A000756E652066696E69736865642120507581
:1017B0007420746865206C617374204B702C204B0E
:1017C0006920616E64204B6420636F6E7374616E78
:1017D00074732066726F6D2061626F766520696E2A
:1017E000746F20436F6E66696775726174696F6E9E
:1017F0002E680A00504944204175746F74756E65F7
:10180000206661696C6564212074696D656F75740B
:101810000A0020403A006F6B20543A006F6B204260
:101820003A00504944204175746F74756E652066A6
:1018300061696C6564212054656D706572617475B1
:10184000726520746F6F20686967680A00204B64B6
:101850003A2000204B693A2000204B703A200020AB
:10186000436C617373696320504944200A0020541B
:10187000753A2000204B753A2000206D61783A209F
:1018800000206D696E3A200020643A2000206269D1
:1018900061733A20002E0A0044656C6574696F6EAE
:1018A000206661696C65642C2046696C653A20008D
:1018B00046696C652064656C657465643A002E0A3F
:1018C000006F70656E206661696C65642C204669E6
:1018D0006C653A2000473238205830205930000AD1
:1018E0000A005374616E64617264204465766961B4
:1018F00074696F6E3A20000A004D65616E3A2000EF
:101900000A002020207A3A20000A00793A20007844
:101910003A20003F537065636966696564206E759F
:101920006D626572206F66206C65677320696E203A
:101930006D6F76656D656E74206E6F7420706C616E
:10194000757361626C652E0A003F5370656369664A
:10195000696564205920706F736974696F6E206FB8
:101960007574206F662072616E67652E0A003F53A2
:101970007065636966696564205820706F73697467
:10198000696F6E206F7574206F662072616E676577
:101990002E0A003F53706563696669656420736150
:1019A0006D706C652073697A65206E6F7420706C41
:1019B00061757361626C652E0A0046756C6C2073EC
:1019C0007570706F72742061743A20687474703A24
:1019D0002F2F33647072696E74626F6172642E634C
:1019E0006F6D2F666F72756D2E7068700A004D34C2
:1019F00038205A2D50726F6265205265706561748F
:101A00006162696C69747920746573742E2020207A
:101A100056657273696F6E20322E30300A003F5661
:101A20006572626F7365204C6576656C206E6F74AD
:101A300020706C61757361626C652E0A004265648A
:101A4000204865617465640A0020573A002C2073B1
:101A5000617665645F466C61675F66616E6C617933
:101A600065725F6D6972726F723A20002C2073612B
:101A70007665645F6665656472617465313A2000FD
:101A80002C2073617665645F666565647261746558
:101A9000303A20002C2073617665645F66616E6C5D
:101AA000617965723A20002C2073617665645F74F9
:101AB000656D706265643A20002C20736176656400
:101AC0005F74656D70303A20002C20736176656418
:101AD0005F74656D70313A20002C20736176656407
:101AE0005F66696C65706F736974696F6E3A200028
:101AF0002C2073617665645F655F706F73697469CC
:101B00006F6E3A20002C2073617665645F746F6F8E
:101B10006C5F6163746976653A20002C207361768E
:101B200065645F7A5F706F736974696F6E3A2000E5
:101B30002C2073617665645F795F706F7369746977
:101B40006F6E3A20002C2073617665645F785F7059
:101B50006F736974696F6E3A200053415645205087
:101B600052494E54204C4F473A0A006563686F3A19
:101B7000005072696E74207265636F7665727920A9
:101B800075700A004E6F74207072696E74207265F1
:101B9000636F766572792075700A0053554343452B
:101BA00053530A0056616C756573206F7574206F0E
:101BB000662072616E67650A0056616C75657320F8
:101BC0006F7574206F662072616E67650A005661DA
:101BD0006C756573206F7574206F662072616E6717
:101BE000650A0056616C756573206F7574206F66A9
:101BF0002072616E67650A00535543434553530A8B
:101C00000056616C756573206F7574206F66207265
:101C1000616E67650A0056616C756573206F757437
:101C2000206F662072616E67650A0056616C75658B
:101C300073206F7574206F662072616E67650A008D
:101C400056616C756573206F7574206F66207261C4
:101C50006E67650A0020502000205A20002059207D
:101C600000536574204D353330205820004D6F648B
:101C7000652033203A20507369636F2020202D3E69
:101C8000205247423A20526973652646616C6C00C7
:101C90002A2A2D3E20004D6F64652032203A2063B1
:101CA00079636C652020202D3E205247423A203631
:101CB00020737461746573002A2A2D3E20004D6FD5
:101CC00064652031203A2072616E646F6D20202D92
:101CD0003E205247423A202B31202B32202B332CEE
:101CE00020647572696E67207072696E74696E67C0
:101CF000002A2A2D3E20004D6F64652030203A20B6
:101D000064656661756C74202D3E205247423A200E
:101D10003235352032353520323535002A2A2D3EF0
:101D200020004C6564206D6F646573203A004D356A
:101D30003336204C5B6D6F64655D00486F74656E73
:101D400064206F6666736574733A0054696D65202C
:101D5000696E6163746976650A0050757267652003
:101D600064697374616E63650A004D3834205820CD
:101D700059205A2045005A204F6666736574206FBB
:101D80006B0A005A204F6666736574203A200A0079
:101D90007A5F6D61783A20007A5F6D696E3A200053
:101DA0005A204F666673657400504F534954494F2B
:101DB0004E20484F4D453A2000436F6F6C696E6767
:101DC00020446F776E204865617465720A00507216
:101DD000696E7465722068616C7465642E206B692D
:101DE0006C6C28292063616C6C6564210A00457263
:101DF000726F723A006C6179657220686569676814
:101E0000743A200045787472756465722072656C4E
:101E10006561736564206163746976653A20005A70
:101E2000205349474D4120486F6D65640A0045784D
:101E3000747275646572206163746976653A200016
:101E40000000000000809343000000000000A0405C
:101E50000000A0400000004020004D6F7665207417
:101E60006F3A2000CDCC984300809343000052434A
:101E7000FF01FF20636F6C6420657874727573696D
:101E80006F6E2070726576656E7465640A006563B6
:101E9000686F3A0050757267652046696C616D65C0
:101EA0006E740A0053757266696E6720310A0053BA
:101EB000757266696E6720300A004252494748547D
:101EC0004E4553533A2000220A00656E71756569CC
:101ED0006E67202200220A00656E717565696E6763
:101EE000202200202F0020400020403A005265733D
:101EF000656E643A20006F6B0A004475706C69204F
:101F00004D6F6465204F4E0A004D6972726F7220EA
:101F10004D6F6465204F4E0A002A2A2A2047656EBD
:101F2000696520446973636F6E6E656374656420D0
:101F300066726F6D204765744E657874427974657A
:101F400021202A2A2A002A2A2A2047656E6965202C
:101F5000456E61626C6520417474616368457665A5
:101F60006E7448616E646C657220212121202A2ADA
:101F70002A0043616E6E6F7420656E746572207303
:101F800075626469723A200057726974696E6720DD
:101F9000746F2066696C653A20002E0A006F7065C8
:101FA0006E206661696C65642C2046696C653A2018
:101FB000002E0A006F70656E206661696C65642C86
:101FC0002046696C653A200046696C652073656C33
:101FD00065637465640A002053697A653A20004697
:101FE000696C65206F70656E65643A20002E0A008A
:101FF0006F70656E206661696C65642C2046696C43
:10200000653A20004E6F77206672657368206669B6
:102010006C653A20004E6F7720646F696E672066AA
:10202000696C653A20002220706F73002220706175
:1020300072656E743A2200535542524F5554494EC0
:10204000452043414C4C207461726765743A22000C
:10205000747279696E6720746F2063616C6C207391
:1020600075622D67636F64652066696C65732077A0
:1020700069746820746F6F206D616E79206C65766D
:10208000656C732E204D4158206C6576656C206917
:10209000733A005341564544205052494E540A0069
:1020A0007A70726F62653A200053442063617264F3
:1020B000206F6B0A006F70656E526F6F74206661DF
:1020C000696C65640A00766F6C756D652E696E6962
:1020D00074206661696C65640A004572726F723AB9
:1020E00000534420696E6974206661696C0A000AB5
:1020F0000020616E7469686F726172690A3A20002B
:1021000020686F726172690A20002F3800766F6C48
:10211000746573200020566F6C7465732063617260
:10212000676F6C20333A200020616E7469686F72AB
:102130006172690A3A200020686F726172690A2030
:10214000002F3800766F6C746573200020566F6C1A
:1021500074657320636172676F6C20323A20000AE5
:102160000020647A333A200020647A323A20005406
:1021700031005430005430005430000A0056756964
:1021800074656E73333A2020004170726F78333A71
:10219000202000566F6C746573333A2020000A00CB
:1021A00056756974656E73323A2020004170726F03
:1021B00078323A202000566F6C746573323A2020D2
:1021C0000056616C6F7220645A333A2020005661C9
:1021D0006C6F7220645A323A2020004E6577206F6F
:1021E00066667365742076657273696F6E3A200057
:1021F0007A335F313A20007A325F313A20005A73E5
:1022000063726F6C6C5F313A20007A335F303A2032
:10221000007A325F303A20005A7363726F6C6C5FE1
:10222000303A20005A76616C75652061667465727B
:1022300020686F6D653A00486F6D6520582F5920F2
:102240006265666F7265205A0A004572726F72206D
:10225000577269746520454550524F4D005365745F
:1022600074696E67732053746F7265640A00204D41
:10227000696E75746573203A0020204C6173742078
:102280007072696E742074696D652D3E20486F759B
:102290007273203A004C617374207072696E7420FE
:1022A0006475726174696F6E0A002C2054686972DB
:1022B00064204944206E756D62657220002C2053A5
:1022C00065636F6E64204944206E756D6265723A75
:1022D000200020204669727374204944206E756D79
:1022E0006265723A2000554920496E666F726D61D1
:1022F00074696F6E2053657269616C204E756D62F2
:1023000065723A0A00206D2C204531207072696E8A
:10231000742064697374616E63653A2000206B6D8C
:102320002C204530207072696E742064697374616A
:102330006E63653A2000206B6D2C20592070726905
:102340006E742064697374616E63653A2000206B5B
:102350006D2C205831207072696E7420646973741A
:10236000616E63653A200020432C0A2058302070AB
:1023700072696E742064697374616E63653A2000DB
:1023800020432C206D61782074656D7020423A20C6
:102390000020432C206D61782074656D7020523AC6
:1023A00020002C206D61782074656D70204C3A20DF
:1023B00000682C207072696E74732066696E697390
:1023C0006865643A20002C207072696E74696E67CB
:1023D0002074696D653A200020207072696E7473F4
:1023E0003A200053544154533A0A0020432C2052BF
:1023F0005F5052494E543A200020432C20525F42F5
:1024000045443A200020432C20525F52454D4F5600
:10241000453A20002020525F494E534552543A20FD
:102420000054656D70202843293A0A0020432C206F
:102430004C5F5052494E543A200020432C204C5FB0
:102440004245443A200020432C204C5F52454D4FDA
:1024500056453A200020204C5F494E534552543A8D
:10246000200054656D70202843293A0A0020562820
:1024700056657273696F6E29200020522842656488
:102480002072696768742073637265772920002061
:10249000204D353331204C28426564206C656674CC
:1024A000207363726577292000426564204F666659
:1024B0007365747320286D6D293A0A002050285ADC
:1024C0002070726F62652900205A20002059200078
:1024D00020204D353330205820004F6666736574D8
:1024E0007320286D6D293A0A0020440020490020FD
:1024F0002D204D3330312052494748542050002080
:10250000440020490020204D333031204C454654B2
:102510002050005049442073657474696E67733AA3
:102520000A00205A0020590020204D323036205811
:1025300000486F6D65206F666673657420286D6D49
:10254000293A0A00204500205A0020580020420065
:1025500020540020204D32303520530041647661F4
:102560006E636564207661726961626C65733A209E
:10257000533D4D696E2066656564726174652028FF
:102580006D6D2F73292C20543D4D696E207472613E
:1025900076656C20666565647261746520286D6D72
:1025A0002F73292C20423D6D696E696D756D207306
:1025B00065676D656E742074696D6520286D73297B
:1025C0002C20583D6D6178696D756D205859206AD1
:1025D00065726B20286D6D2F73292C20205A3D6D5C
:1025E0006178696D756D205A206A65726B20286D5F
:1025F0006D2F73292C2020453D6D6178696D756DB7
:102600002045206A65726B20286D6D2F73290A00A2
:1026100020540020204D3230342053004163636544
:102620006C65726174696F6E3A20533D61636365D6
:102630006C65726174696F6E2C20543D72657472A2
:1026400061637420616363656C65726174696F6E48
:102650000A00204500205A0020590020204D323029
:10266000312058004D6178696D756D204163636557
:102670006C65726174696F6E20286D6D2F733229DD
:102680003A0A00204500205A0020590020204D32EF
:1026900030332058004D6178696D756D2066656531
:1026A00064726174657320286D6D2F73293A0A0076
:1026B000204500205A0020590020204D3932205852
:1026C0000053746570732070657220756E69743A7A
:1026D0000A00646973706C6179206F66666C696E5C
:1026E0006500417072203131203230313920313172
:1026F0003A32333A32320A0042434E33442053696D
:10270000676D610A0073746172740A006563686FB3
:102710003A0030312D322E302E384553530A004DB9
:102720003234004D3233202573006175746F256992
:102730002E67006572726F722077726974696E67B6
:1027400020746F2066696C650A00205A3A0020598F
:102750003A0020583A00656E6473746F7073206895
:1027600069743A20006563686F3A00446F6E6520B3
:10277000736176696E672066696C652E0A006F6BFF
:102780000A004D3239003B2020204275696C6420DC
:1027900074696D653A202564202573202564202501
:1027A000730A003B5072696E742074696D653A203B
:1027B0002564202573202564202573202564202589
:1027C00073003B54494D453A256C64003B20202062
:1027D000506C6173746963207765696768743A2027
:1027E00025642E256467003B46696C616D656E74D7
:1027F00020757365643A2025642E25646D20256458
:102800002E256467003B46696C616D656E742075AA
:102810007365643A20256C642E256C646D002E2E41
:102820002E2054696D656F757421002A2A2A20476D
:10283000656E69652057726974654F626A65637475
:10284000202A2A2A202D2D2D3E002E2E2E204E41CC
:102850004B2021002A2A2A2047656E69652057727D
:102860006974654F626A656374202A2A2A202D2DB7
:102870002D3E002E2E2E2041434B2021002A2A2AB5
:102880002047656E69652057726974654F626A6595
:102890006374202A2A2A202D2D2D3E002A2A2A2040
:1028A00047656E6965204261642042797465202A1B
:1028B0002A2A202D2D2D3E203078002056616C755F
:1028C000653A200020496E6465783A20002A2A2A59
:1028D0002047656E6965205265706F7274204F6283
:1028E0006A656374202A2A2A204F626A6563743AF3
:1028F00020002A2A2A2047656E696520436F6E6E84
:102900006563746564202F2053796E6321202A2A21
:102910002A002056616C75653A200020496E646576
:10292000783A20002A2A2A2047656E696520526578
:10293000706F7274204576656E74202A2A2A204FA3
:10294000626A6563743A2000204C656E6774683A69
:1029500020002A2A2A2047656E6965205265636532
:1029600069766564204D6167696320446F75626CA8
:1029700065204279746573202A2A2A20496E64658D
:10298000783A2000204C656E6774683A20002A2A45
:102990002A2047656E6965205265636569766564BE
:1029A000204D61676963204279746573202A2A2A61
:1029B00020496E6465783A20002A2A2A2047656EED
:1029C0006965204E414B205265636F7665727920B0
:1029D000212121202A2A2A002A2A2A2047656E69D5
:1029E0006520446973636F6E6E6563746564206609
:1029F000726F6D20446F4576656E747321202A2AAC
:102A00002A002A2A2A2047656E696520546F6F6B59
:102A100020746F6F206C6F6E6720746F2072652D4D
:102A2000656E74657220446F4576656E74732829EF
:102A30002C207265647563652064656C6179732010
:102A4000696E20636F64652C2073656C662D7072EF
:102A50006F74656374696F6E20656E61626C656426
:102A60002E202A2A2A0053757266696E672030204C
:102A70000A005430004D383420582059205A20453F
:102A800000496E7374616C6C202564202573206F7F
:102A90006E2074686520257320686F74656E642EDF
:102AA00000496E7374616C6C202564202573206F5F
:102AB0006E2074686520257320686F74656E642EBF
:102AC00000526561647920746F204C6F61642F55EA
:102AD0006E6C6F6164200A007C3C3E5E2B3D3F2F94
:102AE0005B5D3B2C2A225C00504944204175746F89
:102AF00074756E652066696E6973686564210A0085
:102B0000504944204175746F74756E652066616923
:102B10006C6564212074696D656F75740A002040CE
:102B20003A006F6B20543A006F6B20423A005049D4
:102B300044204175746F74756E65206661696C65BB
:102B400064212054656D70657261747572652074BE
:102B50006F6F20686967680A00204B643A20002084
:102B60004B693A2000204B703A200020436C61737F
:102B700073696320504944200A002054753A2000AC
:102B8000204B753A2000206D61783A2000206D6955
:102B90006E3A200020643A200020626961733A2076
:102BA000003B457874727564657273207573656453
:102BB0003A205425642025642E2564205425642061
:102BC00025642E2564003B2020206578747275648E
:102BD00065724469616D657465722C312C25642EB3
:102BE0002564003B2020206578747275646572440A
:102BF00069616D657465722C25642E25642C2564CD
:102C00002E2564003B2020206578747275646572FF
:102C10004469616D657465722C25642E2564003BE2
:102C200020472D436F64652067656E65726174652A
:102C3000642062792053696D706C69667933442829
:102C400052292056657273696F6E202564004D31DC
:102C50003037004E6577206C617965722064657449
:102C600065637465640A003B206C61796572003BA2
:102C70004C4159455200256920686F7572732025B3
:102C800069206D696E7574657300446F6E652070A0
:102C900072696E74696E672066696C650A004D33EF
:102CA00033005061757365207061726B696E670ADD
:102CB00000473639005072696E7465722073746F04
:102CC000707065642064756520746F206572726F22
:102CD00072732E2046697820746865206572726F61
:102CE0007220616E6420757365204D393939207406
:102CF0006F20726573746172742E202854656D7034
:102D0000657261747572652069732072657365748C
:102D10002E20536574206974206166746572207278
:102D2000657374617274696E67290A006F6B0A00BB
:102D30004E6F204C696E65204E756D62657220770E
:102D400069746820636865636B73756D2C204C61D2
:102D50007374204C696E653A20004E6F204368659D
:102D6000636B73756D2077697468206C696E65207C
:102D70006E756D6265722C204C617374204C696EA7
:102D8000653A2000636865636B73756D206D6973C8
:102D90006D617463682C204C617374204C696E659E
:102DA0003A20004C696E65204E756D62657220692F
:102DB00073206E6F74204C617374204C696E6520B3
:102DC0004E756D6265722B312C204C617374204CF2
:102DD000696E653A20004D31313000CDCC9843000A
:102DE00080934300005243000000000000000000F8
:102DF0000000006563686F3A0053746F7265642069
:102E000073657474696E6773207265747269657630
:102E100065640A0048617264636F64656420446598
:102E20006661756C742053657474696E6773204CA9
:102E30006F616465640A0048617264636F6465640D
:102E40002043616C696220616E64205049442044D3
:102E5000656661756C742053657474696E67732060
:102E60004C6F616465640A00473639204143544918
:102E700056415445440A00007202960211241FBEB6
:102E8000CFEFD1E2DEBFCDBF00E00CBF18E0A0E085
:102E9000B2E0E8E2F1EA03E00BBF02C007900D9256
:102EA000A83AB107D9F72EE1A8EAB8E001C01D920F
:102EB000AC3CB207E1F717E1CDE3D7E100E006C093
:102EC00021970109802FFE010F9475CDCC33D107D6
:102ED00080E00807A9F70F9454B10D9483D00C94A7
:102EE00000002F923F924F925F926F927F928F924B
:102EF0009F92AF92BF92CF92DF92EF92FF920F9389
:102F00001F93CF93DF93CDB7DEB7C352D1400FB637
:102F1000F894DEBF0FBECDBF2DB73EB7CE5DDE4FFE
:102F200039832883C252D1408091E00881110DC0BD
:102F30000E94F99F6093DC087093DD088093DE089F
:102F40009093DF0881E08093E0088091D40881119C
:102F50000DC00E94F99F6093D0087093D1088093B0
:102F6000D2089093D30881E08093D40881E08093C5
:102F7000FC0890914E1B40919602509197026091EF
:102F8000980270919902911106C080914F1B88237D
:102F900011F40C94B822463A51056105710509F403
:102FA00023C60CF0D7C04A3551056105710509F4F7
:102FB000E2C60CF060C0413251056105710511F4A3
:102FC0000C94D5203CF5413151056105710511F492
:102FD0000C94322074F4413051056105710509F4F7
:102FE0000EC3403151056105710509F4CCC10C9443
:102FF000A65D433151056105710509F4A9C40CF4BE
:10300000C8C4403251056105710511F40C94E420E7
:103010000C94A65D443451056105710511F40C94BE
:103020001D20ACF4453351056105710511F40C9474
:1030300089214D3351056105710509F415C44133EA
:1030400051056105710511F00C94A65D5EC447350C
:1030500051056105710509F495C4483551056105AF
:10306000710509F433C4433551056105710511F04B
:103070000C94A65DDEC2483951056105710511F455
:103080000C945E2154F54E3751056105710509F424
:10309000B3C174F4463751056105710509F49CC448
:1030A0004B3751056105710509F465C60C94A65DA1
:1030B0004B3851056105710509F44CC1473951057B
:1030C0006105710511F40C946F21493851056105B2
:1030D000710511F00C94A65D5FC24D395105610573
:1030E000710511F40C9432219CF44B3951056105A2
:1030F000710511F40C94FC2014F00C9405214A394C
:1031000051056105710511F40C94F3200C94A65D32
:10311000443A51056105710509F4FCC50CF0D4C5AC
:10312000433A51056105710511F00C94A65D80913B
:10313000F6089091F708A091F808B091F90880641A
:103140008093F6089093F708A093F808B093F908D5
:103150000C94A65D413F51056105710509F44FC20C
:103160000CF093C0423E51056105710509F404C598
:103170000CF04EC0493A51056105710509F4B7C517
:1031800004F5473A51056105710509F48AC5483AC5
:1031900051056105710511F00C94A65D8091F6084A
:1031A0009091F708A091F808B091F9089860809381
:1031B000F6089093F708A093F808B093F9080C94D8
:1031C000A65D4E3B51056105710509F491C3433D70
:1031D00051056105710511F40C9474224A3A5105A8
:1031E0006105710511F00C94A65D8091F60890912F
:1031F000F708A091F808B091F90880618093F6086B
:103200009093F708A093F808B093F9080C94A65D82
:103210004A3E51056105710509F4ADC114F5443EFE
:1032200051056105710509F46FC40CF410C4453EE5
:1032300051056105710511F00C94A65D8091F608A9
:103240009091F708A091F808B091F90884608093F4
:10325000F6089093F708A093F808B093F9080C9437
:10326000A65D4E3E51056105710509F4C0C14F3E92
:1032700051056105710509F4F6C14D3E5105610521
:10328000710511F00C94A65DE8C0453631E0530796
:103290006105710509F451C53CF5483F51056105CB
:1032A000710509F4B4C484F4463F51056105710504
:1032B00009F475C40CF03BC4423F5105610571052A
:1032C00009F4B7C10C94A65D4A3F5105610571052B
:1032D00009F4D0C30CF4C0C44B3F5105610571051E
:1032E00009F4EDC30C94A65D483791E059076105D8
:1032F000710509F423C6B4F44A36B1E05B076105F1
:10330000710509F49CC04E36E1E05E076105710568
:1033100009F495C0483651406105710509F4F0C7BC
:103320000C94A65D453821E052076105710509F44A
:10333000A1C1413931E053076105710559F04937A1
:1033400051406105710511F00C94A65D0F94182889
:103350000C94A65D40E050E06AE28AE00F94AF640E
:1033600082E48093260265EA79E086E20F94BD65E7
:103370008091C3119091C41198609093C41180936F
:10338000C3110C94A65D80912602813419F541E0A9
:1033900050E066E08BE10F94AF6441E050E060E103
:1033A00081E20F94AF6441E050E062E181E20F946A
:1033B000AF6441E050E063E181E20F94AF6441E02B
:1033C00050E06EE781E20F94AF6484E480932602BC
:1033D0000C94A65D843411F00C94A65D8091C31109
:1033E0009091C41180649093C4118093C31185E4BB
:1033F000809326020C94A65D40E050E066E08BE1ED
:103400000F94AF6440E050E060E181E20F94AF645C
:1034100040E050E062E181E20F94AF6440E050E0B0
:1034200063E181E20F94AF6440E050E06EE781E237
:103430000F94AF6481E4809326020C94A65D809182
:10344000C3119091C41192609093C4118093C311E1
:1034500084E4809326020C94A65D80912602823437
:1034600019F583E48093260241E050E063E08BE1AC
:103470000F94AF6441E050E067E581E20F94AF64E0
:1034800041E050E066E781E20F94AF6441E050E034
:103490006DEE81E20F94AF6441E050E069E881E2B3
:1034A0000F94AF640C94A65D833411F00C94A65D68
:1034B00011E01093F20840E050E068E981E20F94D7
:1034C000AF6440E050E067E981E20F94AF6440E010
:1034D00050E06CE981E20F94AF6440E050E06DE9A8
:1034E00081E20F94AF6441E050E06AE481E20F941E
:1034F000AF6440E050E06CE28AE00F94AF64109358
:10350000490A8FEF9FEF909321028093200240E0C1
:1035100050E06AE981E20F94AF6440E050E06BE96B
:1035200081E20F94AF6460911A1470911B14809122
:103530001C1490911D140F949DCAAB0166E289E0A2
:103540000F94AF6460911E1470911F148091201429
:10355000909121140F949DCAAB0167E289E00F940A
:10356000AF6440E050E068E289E00F94AF641092ED
:10357000C51E0C94A65D40E050E06EE681E20F941B
:10358000AF648091C3119091C41192609093C41163
:103590008093C3110C94A65D80912602833411F0B0
:1035A0000C94A65D82E48093260240E050E063E044
:1035B0008BE10F94AF6440E050E067E581E20F9447
:1035C000AF6440E050E066E781E20F94AF6440E012
:1035D00050E06DEE81E20F94AF6440E050E069E8A6
:1035E00081E20F94AF641092490A0C94A65D40E00A
:1035F00050E064E58AE00F94AF640C94A65D80E02F
:103600000F9442408091C3119091C41182609093B5
:10361000C4118093C31181E080934D0A40E050E0D3
:1036200068E08AE00F94AF6481E480934E0A0C94C2
:10363000A65D8091C811882311F40C94A65D41E029
:1036400050E08091C5118A3011F440E050E069E10A
:103650008BE10F94AF6440E050E062E58AE00F94A4
:10366000AF640C94A65D89E480931E020F94B26946
:103670000C94A65D8091C11E9091C21E909344113E
:10368000809343110E94D7A38091C31E9091C41EC2
:1036900090934611809345110E94D7A382E48093B2
:1036A000260282E580931E0281E08093490A809180
:1036B000C511E1E08A3009F4E0E0E093A409F0E00C
:1036C000EE0FFF1FED5BFE4E208131813093CF085E
:1036D0002093CE088A3029F48091D10F9091D20F97
:1036E00004C08091D50F9091D60F918380830E9462
:1036F000D7A381E480934E0A40E050E068E08AE07E
:103700000F94AF6440E050E064E581E20F94AF6451
:1037100080E090E0A3E4B3E4809366119093671196
:10372000A0936811B093691180908B1090908C10C9
:10373000A0908D10B0908E10209162113091631185
:10374000409164115091651160915E1170915F110B
:103750008091601190916111E1E56E2EE1E17E2E84
:103760007F926F92FAE6CF2EF1E1DF2EE12CF12C61
:1037700003E413E40F94490C0E9419C180E090E027
:10378000A0E2B1E48093621190936311A09364115D
:10379000B09365118090871090908810A090891048
:1037A000B0908A10E0906611F09067110091681156
:1037B0001091691160915E1170915F11809160119B
:1037C000909161117F926F9220E030E040E251E4ED
:1037D0000F94490C0E9419C10F900F900F900F90F9
:1037E00080914E0A8E3411F40C94BF2810924E0A28
:1037F0000E942F6740E050E060E289E00F94AF64E0
:1038000040E050E064E28AE00F94AF640091A409C4
:1038100010E0F801EE0FFF1FEE0FFF1FE65EFB4EFC
:1038200060817181828193810F949DCA7093F008A9
:103830006093EF08000F111FF801ED5BFE4E8081D1
:1038400091810A979093EE088093ED081092EC080E
:103850001092EB0889E480934E0A0E942F6781E062
:103860008093F1080C94A65D8091260240E050E020
:103870008134B1F469E08AE00F94AF6465EA79E0DD
:1038800082E00F94BD658091C3119091C41198603E
:103890009093C4118093C3111092490A0C94A65DB1
:1038A0006AE28AE00F94AF6465EA79E086E20F94F9
:1038B000BD658091C3119091C41198609093C4111B
:1038C0008093C3111092490A0C94A65D8091D00F89
:1038D00081110C94A65D80914F1B81110C94A65D03
:1038E00040E050E069E38AE00F94AF640C94A65D79
:1038F0008091D00F81110C94A65D40E050E061E012
:103900008AE00F94AF640C94A65D8091D00F811172
:103910000C94A65D10912602113411F00C94A65D52
:1039200010924E1B81E080934F1B40E050E068E016
:103930008AE00F94AF6410934E0A8091C311909166
:10394000C41194609093C4118093C3110C94A65D2C
:1039500080912602813439F440E050E061E08AE051
:103960000F94AF640BC0843449F48091C3119091DB
:10397000C41190619093C4118093C3111092C51E1D
:103980000C94A65D80912602823431F38334B1F722
:10399000ECCF80912602992369F0813459F480910B
:1039A000C3119091C41188609093C4118093C31186
:1039B0000C94A65D843411F00C94A65D8091C31123
:1039C0009091C41180689093C4118093C31186E4D0
:1039D000809326020C94A65D80914F1B882311F4DE
:1039E0000C94A65D809126028234B9F485E10E9490
:1039F000689E892B11F40C94B55D8091E0028823B8
:103A000011F40C94B55D40E050E06AE78AE00F9451
:103A1000AF641092C51E0C94A65D833411F00C9413
:103A2000A65D40E050E066E18AE00F94AF6441E0BB
:103A300050E064E581E20F94AF6482E580931E025A
:103A400081E08093490A1092C51E0C94A65D809176
:103A5000F6089091F708A091F808B091F9088860ED
:103A60008093F6089093F708A093F808B093F908AC
:103A70000C94A65D2091C2023091C3028091F60899
:103A80009091F708A091F808B091F908233031051A
:103A900059F4A1608093F6089093F708A093F80872
:103AA000B093F9080C94A65D84608093F608909317
:103AB000F708A093F808B093F9080C94A65D20913C
:103AC000C2023091C3028091F6089091F708A0914C
:103AD000F808B091F9082330310559F4A2608093B9
:103AE000F6089093F708A093F808B093F9080C949F
:103AF000A65D88608093F6089093F708A093F80875
:103B0000B093F9080C94A65D8091F6089091F7089F
:103B1000A091F808B091F90881608093F60890931D
:103B2000F708A093F808B093F9080C94A65D2091CB
:103B3000C2023091C3028091F6089091F708A091DB
:103B4000F808B091F9082330310559F49061809359
:103B5000F6089093F708A093F808B093F9080C942E
:103B6000A65D81608093F6089093F708A093F8080B
:103B7000B093F9080C94A65D8091F6089091F7082F
:103B8000A091F808B091F90882608093F6089093AC
:103B9000F708A093F808B093F9080C94A65D20915B
:103BA000C2023091C3028091F6089091F708A0916B
:103BB000F808B091F9082330310559F490628093E8
:103BC000F6089093F708A093F808B093F9080C94BE
:103BD000A65D82608093F6089093F708A093F8089A
:103BE000B093F9080C94A65D8091F6089091F708BF
:103BF000A091F808B091F90880628093F60890933C
:103C0000F708A093F808B093F9080C94A65D2091EA
:103C1000C2023091C3028091F6089091F708A091FA
:103C2000F808B091F9082330310559F49064809375
:103C3000F6089093F708A093F808B093F9080C944D
:103C4000A65D80628093F6089093F708A093F80829
:103C5000B093F9080C94A65D2091C2023091C30282
:103C60008091F6089091F708A091F808B091F908B2
:103C70002330310559F490688093F6089093F70843
:103C8000A093F808B093F9080C94A65D8061809326
:103C9000F6089093F708A093F808B093F9080C94ED
:103CA000A65D8091F6089091F708A091F808B09170
:103CB000F90891608093F6089093F708A093F808AC
:103CC000B093F9080C94A65D8091F6089091F708DE
:103CD000A091F808B091F90880688093F608909355
:103CE000F708A093F808B093F9080C94A65D8091AA
:103CF000F6089091F708A091F808B091F908926041
:103D00008093F6089093F708A093F808B093F90809
:103D10000C94A65D8091F6089091F708A091F808A0
:103D2000B091F90894608093F6089093F708A093F7
:103D3000F808B093F9080C94A65D40E050E06AE200
:103D40008AE00F94AF6440E050E064E581E20F94B4
:103D5000AF641092490A65EA79E086E20F94BD6586
:103D60008091C3119091C41198609093C411809375
:103D7000C3110C94A65D4A3551056105710519F40E
:103D80001092A40903C081E08093A4098091A40942
:103D9000E82FF0E0EE0FFF1FED5BFE4E208131813A
:103DA0003093CF082093CE08811105C08091D10FA8
:103DB0009091D20F04C08091D50F9091D60F91832E
:103DC00080830E94D7A381E480934E0A40E050E0B4
:103DD00068E08AE00F94AF6440E050E064E581E27F
:103DE0000F94AF6480E090E0A3E4B3E480936611A5
:103DF00090936711A0936811B093691180908B1014
:103E000090908C10A0908D10B0908E102091621127
:103E100030916311409164115091651160915E1170
:103E200070915F118091601190916111E1E56E2EAA
:103E3000E1E17E2E7F926F92FAE6CF2EF1E1DF2E46
:103E4000E12CF12C03E413E40F94490C0E9419C1F6
:103E500080E090E0A0E2B1E480936211909363115E
:103E6000A0936411B0936511809087109090881092
:103E7000A0908910B0908A10E0906611F0906711C0
:103E8000009168111091691160915E1170915F113C
:103E900080916011909161117F926F9220E030E0EB
:103EA00040E251E40F94490C0E9419C10F900F9009
:103EB0000F900F9080914E0A8E3411F40C94BF280D
:103EC00010924E0A0E942F6740E050E060E289E0C5
:103ED0000F94AF6440E050E064E28AE00F94AF6476
:103EE0000091A40910E0F801EE0FFF1FEE0FFF1F75
:103EF000E65EFB4E60817181828193810F949DCA41
:103F00007093F0086093EF08000F111FF801ED5B4C
:103F1000FE4E808191810A979093EE088093ED0880
:103F20001092EC081092EB0889E480934E0A0E94EC
:103F30002F6781E08093F1080C94A65D40E050E08B
:103F400060E289E00F94AF6440E050E064E28AE010
:103F50000F94AF6489E480934E0A0E942F6700910A
:103F6000A40901111DC08091D30F9091D40F6091CD
:103F7000A9107091AA10681779072CF4BC01990F49
:103F8000880B990B04C0072E000C880B990B0F941B
:103F900068C20F949DCA709344116093431120C06E
:103FA0008091D70F9091D80F6091A3107091A410B9
:103FB000681779072CF4BC01990F880B990B04C082
:103FC000072E000C880B990B0F9468C210E0000FAD
:103FD000111F0D5B1E4E0F949DCAD8016D937C93EB
:103FE0000E94D7A30091A40910E0F801EE0FFF1F73
:103FF000EE0FFF1FE65EFB4E60817181828193812F
:104000000F949DCA7093F0086093EF08000F111F82
:10401000F801ED5BFE4E808191810A979093EE0846
:104020008093ED081092EC081092EB080E942F6725
:1040300081E08093F1080C94A65D8091DF028823D3
:1040400011F40C94BF5D8091A409811102C08AE132
:1040500001C086E30E94689E892B11F00C94BF5D1D
:104060000C94A65D8091F40881FF02C00C94A65DBB
:104070008091A3119091A21198130C94415F40E09C
:1040800050E06BE084E10F94AF6440E050E065E104
:104090008AE00F94AF6482E480934E0A8093741197
:1040A000E091A40944E0E49FF0011124E655FD4F9E
:1040B00080819181A281B38180935E1190935F1181
:1040C000A0936011B0936111E0906611F0906711B8
:1040D0000091681110916911209162113091631162
:1040E0004091641150916511E091511164E0E69F97
:1040F000F0011124E655FD4F608171818281938129
:104100000F943F66E0906611F0906711009168117E
:1041100010916911209162113091631140916411E5
:104120005091651160915E1170915F1180916011E5
:1041300090916111E4EAF9E0FF93EF93812C912CC7
:10414000E8E4AE2EE3E4BE2EFAE6CF2EF1E1DF2E58
:104150000F94490CE091511184E0E89FF001112483
:10416000E655FD4F80819181A281B38180935E11DC
:1041700090935F11A0936011B0936111E091A40935
:10418000F0E0EE0FFF1FED5BFE4E8091CE089091A8
:10419000CF08918380830E94D7A31092C8110E94F8
:1041A00019C10F900F900C94A65D8091F40881FFC7
:1041B00002C00C94A65D9091A3112091A211291325
:1041C0000C94415F0C94445F8091F40881FF02C01D
:1041D0000C94A65D9091A3112091A21129130C9427
:1041E000415F0C94485F8091A3119091A2119813A4
:1041F0000C94A65D0C944C5F9091A3118091A21138
:1042000098130C94A65D0C94D75FE0912002F09176
:104210002102EF3F3FEFF30711F40C94A65DEE0F80
:10422000FF1FED5BFE4E808191818B3341E094074F
:1042300014F00C94A65D0596918380830E94D7A309
:104240000E94D7A3E0912002F0912102EE0FFF1F00
:10425000ED5BFE4E4081518168E289E00F94AF64CE
:104260000C94A65DE0912002F0912102EF3F5FEFF8
:10427000F50711F40C94A65DEE0FFF1FED5BFE4EEB
:10428000808191811816190614F00C94A65D05978B
:10429000918380830E94D7A30E94D7A3E09120023C
:1042A000F0912102EE0FFF1FED5BFE4E4081518128
:1042B00068E289E00F94AF640C94A65D80912002BF
:1042C00090912102019611F40C94A65D9091A31196
:1042D0008091A21198130C94415F0C9465608091B9
:1042E000200290912102019611F40C94A65D909108
:1042F000A3118091A21198130C94415F0C946B60F0
:104300009091A3118091A21198130C94A65D0C9426
:10431000716080917411823411F00C94A65D10923A
:104320004E0A8091C3119091C4118D7F9093C41156
:104330008093C31180911E02823531F489E4809309
:104340001E020F94B269CCC0893409F0C9C081E45F
:1043500080934E0A40E050E068E08AE00F94AF643A
:104360004090DE095090DF096090E0097090E1090B
:1043700040926211509263116092641170926511C3
:1043800020E030E040E752E46091710270917202E7
:1043900080917302909174020F94F1C94B015C01FA
:1043A000E0906611F0906711009168111091691109
:1043B00060915E1170915F11809160119091611117
:1043C00021E531E13F932F93FAE6CF2EF1E1DF2E85
:1043D000A30192010F94490C0E9419C10F900F90F4
:1043E00080914E0A8E3409F4CAC620E030E040E2E3
:1043F00051E46091E2097091E3098091E4099091A0
:10440000E5090F9403C97B018C01609366117093D9
:10441000671180936811909369118091D9098983FC
:104420008090750290907602A0907702B09078020A
:104430002091621130916311409164115091651186
:1044400060915E1170915F11809160119091611186
:10445000FE013196FF93EF930F94490C0E9419C10E
:104460000F900F9080914E0A8E3409F488C61092F6
:104470004E0A82E48093260240E050E063E08BE144
:104480000F94AF6440E050E067E581E20F94AF64C1
:1044900040E050E066E781E20F94AF6440E050E016
:1044A0006DEE81E20F94AF6440E050E069E881E294
:1044B0000F94AF6440E050E06AE28AE00F94AF648A
:1044C0001092490A65EA79E086E20F94BD65809111
:1044D000C3119091C41198609093C4118093C3113B
:1044E000109274110C94A65D8091B21310924E0A32
:1044F0008823E9F01092B2138091C3119091C411F6
:1045000098609093C4118093C3118091260240E07B
:1045100050E0813431F469E08AE00F94AF640C9488
:10452000A65D6AE28AE00F94AF640C94A65D1092D7
:1045300004111092490AEBE8F8E084918F01882376
:1045400051F0082E000C990B0F94FD950F5F1F4F33
:10455000F8018491F4CF1092E30F81E00F94F322DD
:1045600040E050E065E08AE00F94AF640C94A65DF3
:1045700090919F09292F287093FF91C38091A309DF
:10458000823008F48CC3423B51056105710509F482
:10459000B9C07CF5433851056105710509F4A6C120
:1045A000A4F44E3551056105710509F4F1C24F358A
:1045B00051056105710509F41DC3453351056105B8
:1045C000710511F00C94A65D28C3423A51056105AE
:1045D000710509F46BC0413B51056105710509F492
:1045E0007BC0403A51056105710511F00C94A65D40
:1045F000B3C04233F1E05F076105710509F45CC1A6
:104600004CF54C3C51056105710509F48FC0463EDF
:1046100051056105710509F45DC1453C5105610510
:10462000710511F00C94A65D0F94FA2741E050E05B
:1046300065EC81E20F94AF6441E050E060EA81E212
:104640000F94AF6481E090E09093570280935602FC
:104650000C94A65D463331E053076105710509F4FA
:1046600015C1ACF4433351406105710511F00C9450
:10467000A65D8DEF9FEF909376118093751140E0CA
:1046800050E06AE08AE00F94AF640C94A65D4A3370
:10469000A1E05A076105710509F430C14E37514058
:1046A0006105710509F4F2C10C94A65D0F94FA2717
:1046B00041E050E062EA81E20F94AF6441E050E0F3
:1046C00060EA81E20F94AF648EEF9FEF9093570200
:1046D000809356020C94A65D0F94FA2741E050E0B7
:1046E00061EB81E20F94AF6441E050E060EA81E267
:1046F0000F94AF648FEF9FEF909357028093560211
:104700000C94A65D0F94FA2741E050E062EB81E241
:104710000F94AF6441E050E060EA81E20F94AF642F
:1047200010925702109256020C94A65D0F94FA272D
:1047300041E050E06CEC81E20F94AF6441E050E066
:1047400060EA81E20F94AF6482E090E090935702B8
:10475000809356020C94A65D009156021091570268
:1047600098012E5F3F4F2530310510F00C94A65D67
:104770008230D9F583E08093A30940E050E061E105
:104780008AE00F94AF6480E580934E0A8091A0097F
:10479000800F8093A00900E010E020E030E04CE5BD
:1047A00053EC60E070E088EA92EC0F9445A60F9419
:1047B000FA2780E697E0909357028093560240E0F4
:1047C00050E060EA81E20F94AF6442E050E06CE0B8
:1047D0008BE10F94AF6440E050E069E18AE00F9410
:1047E000AF6410924E0A0C94A65D8330D9F584E034
:1047F0008093A30940E050E061E18AE00F94AF6448
:1048000080E580934E0A8091A109800F8093A109D1
:1048100000E010E020E030E04CE553EC60E070E0B8
:1048200084EA92E40F9445A60F94FA2780E697E075
:10483000909357028093560240E050E060EA81E294
:104840000F94AF6442E050E06CE08BE10F94AF64F2
:1048500040E050E069E18AE00F94AF6410924E0AA4
:104860000C94A65D843011F00C94A65D8091A20991
:10487000800F8093A20940E050E06EE28AE00F943E
:10488000AF648FE480934E0A0C94A65D0F94FA27D0
:1048900040E050E060EA81E20F94AF6440E050E015
:1048A00069E18AE00F94AF6480E697E09093570245
:1048B000809356020C94A65D83E090E0909376116D
:1048C0008093751140E050E06AE08AE00F94AF6495
:1048D0000C94A65D109276111092751140E050E094
:1048E0006AE08AE00F94AF640C94A65D40E050E06B
:1048F0006DE68AE00F94AF640C94A65D40E050E052
:1049000068E08AE00F94AF6481E480934E0A41E04E
:1049100061E081E00F94D91D10924E0A0E9419C1E6
:104920000F949B29109175118091A3098230B1F5E4
:1049300040E050E061E18AE00F94AF6480E580934D
:104940004E0A0091A009010F0093A009002E000C4F
:10495000110B20E030E0A901CA01B9010F9445A66E
:104960000F94FA2780E697E09093570280935602BF
:1049700040E050E060EA81E20F94AF6442E050E032
:104980006CE08BE10F94AF6440E050E069E18AE0B5
:104990000F94AF6410924E0A0C94A65D8330C9F553
:1049A00040E050E061E18AE00F94AF6480E58093DD
:1049B0004E0A0091A109010F0093A109002E000CDD
:1049C000110B20E030E04CE553EC60E070E088EA49
:1049D00092EC0F9445A60F94FA2780E697E0909307
:1049E00057028093560240E050E060EA81E20F9463
:1049F000AF6442E050E06CE08BE10F94AF6440E0C4
:104A000050E069E18AE00F94AF6410924E0A0C9472
:104A1000A65D843011F00C94A65D40E050E061E1A9
:104A20008AE00F94AF6480E580934E0A0091A2095A
:104A3000010F0093A209002E000C110B20E030E0C2
:104A40004CE553EC60E070E084EA92E40F9445A6F4
:104A50000F94FA2780E697E09093570280935602CE
:104A600040E050E060EA81E20F94AF6442E050E041
:104A70006CE08BE10F94AF6440E050E069E18AE0C4
:104A80000F94AF6410924E0A0C94A65D10924E0AD9
:104A90008091A0094091A109042F081B4091A2090F
:104AA000142F181B602F002E000C770B880B990B0E
:104AB0000F9468C22DEC3CEC4CEC5DEB0F9470BD98
:104AC00060933A0A70933B0A80933C0A90933D0AA4
:104AD000612F012E000C770B880B990B0F9468C285
:104AE0002DEC3CEC4CEC5DEB0F9470BD6093360A02
:104AF0007093370A8093380A9093390A0023A1F003
:104B000040E050E06FE18AE00F94AF6407FF07C018
:104B1000E02FFF27E1950CF4F09508E00E0F402FF1
:104B2000000F550B64E015C01123B9F040E050E0D0
:104B300060E28AE00F94AF6417FF07C0212F33278C
:104B400021950CF4309518E0120F412F110F550BE1
:104B500065E08BE10F94AF6411C014E410937411FD
:104B600040E050E06BE084E10F94AF6440E050E03F
:104B700065E18AE00F94AF6410934E0A8AE890E0F2
:104B80009093350A8093340A0F94165B0C94A65DBB
:104B90004091A2098091A009142F181BC1F040E098
:104BA00050E060E28AE00F94AF6417FF07C0812FE6
:104BB000992781950CF4909518E0180F412F110F4B
:104BC000550B65E08BE10F94AF640C94A65D14E483
:104BD0001093741140E050E06BE084E10F94AF64F7
:104BE00040E050E065E18AE00F94AF6410934E0A14
:104BF0000C94A65D14E41093741140E050E06BE057
:104C000084E10F94AF6440E050E065E18AE00F94E6
:104C1000AF6410934E0A0C94A65D80917411843495
:104C200011F00C94A65D1092A309977F90939F09B1
:104C300010924E0A10923E1110923D110E9494A3C0
:104C400010924411109243110E94D7A31092461162
:104C5000109245110E94D7A3109204111092490A94
:104C6000E0E8F8E084918F01882351F0082E000CD1
:104C7000990B0F94FD950F5F1F4FF8018491F4CFAE
:104C80001092E30F80E00F94F32240E050E065E0E3
:104C90008AE00F94AF64109274110C94A65D4139B0
:104CA000F1E05F0710F00C94A65DFA018827EE583A
:104CB000FF4F8F4F0D9475CD809124029091250266
:104CC000826090932502809324020C94A65D8091CB
:104CD00024029091250284609093250280932402FF
:104CE0000C94A65D80912402909125028860909397
:104CF0002502809324020C94A65D80912402909159
:104D00002502806190932502809324020C94A65D75
:104D100080912402909125028062909325028093D5
:104D200024020C94A65D0F949841009781F4809121
:104D3000240290912502946090932502809324028E
:104D400080912E11815080932E110C94A65D0197B5
:104D500011F00C94A65D809124029091250294603C
:104D6000909325028093240240E050E067E381E2C3
:104D70000F94AF6440E050E061E08BE10F94AF64CA
:104D800080912E11815080932E110C94A65D10926B
:104D900004111092490AE5E7F8E084918F01882315
:104DA00051F0082E000C990B0F94FD950F5F1F4FCB
:104DB000F8018491F4CF1092E30F81E00F94F32275
:104DC00040E050E065E08AE00F94AF640C94A65D8B
:104DD0008091501B882311F40C94A65D85E10E94FC
:104DE000689E892B11F40C948B608091E0028823DB
:104DF00011F40C948B6040E050E06CE78AE00F9473
:104E0000AF640C940A678091501B882311F40C94B2
:104E1000A65D8091A01B81110C94A65DCDB6DEB677
:104E20008091FA089091FB080F949443E1E5FBE12F
:104E3000DF010D900020E9F78DB79EB78A1B9B0B11
:104E40009C01235B344E0FB6F8943EBF0FBE2DBFBE
:104E50000DB71EB70F5F1F4FFF93EF9385E198E0EB
:104E60009F938F931F930F930F9413C2780134E095
:104E7000E30EF11C0F900F900F900F900F900F907A
:104E8000D7018C91882349F0082E000C990B0F94C0
:104E9000F3CFF70181937F01F3CFC8010F9465230E
:104EA00081E198E00F94F6220FB6F894DEBE0FBEB3
:104EB000CDBE0C94A65D81E0809304118091240204
:104EC00090912502926090932502809324020C9485
:104ED000A65D809124029091250291609093250215
:104EE000809324020C94A65D809124029091250267
:104EF000806890932502809324020C94A65D40E084
:104F000050E062E18AE00F94AF640C94A65D40E04B
:104F100050E06CE18AE00F94AF6480E00F94F322DC
:104F20001092D0131092CF131092CE1381E0809381
:104F3000E30F0C94A65D109204111092490AE6E06A
:104F4000F8E084918F01882351F0082E000C990B12
:104F50000F94FD950F5F1F4FF8018491F4CF1092CD
:104F6000E30F0E942F6781E00F94F32240E050E0AE
:104F700065E08AE00F94AF640C94A65D80914311C4
:104F800090914411892B29F01092441110924311F1
:104F900008C080910610909107109093441180935F
:104FA00043110E94D7A31092D0130C94A65D809158
:104FB000451190914611892B29F0109246111092BB
:104FC000451108C0809103109091041090934611F0
:104FD000809345110E94D7A31092CF130C94A65D25
:104FE00080913D1190913E11892B29F010923E1134
:104FF00010923D111CC080919D0990919E09609175
:105000009B0970919C09681779072CF4BC01990FD2
:10501000880B990B04C0072E000C880B990B0F947A
:1050200068C20F949DCA70933E1160933D110E9417
:1050300094A31092CE130C94A65D82E098E00F9496
:10504000F6220C94A65D40E050E06EE18AE00F94F9
:10505000AF640C94A65D40E050E065E08AE00F94F8
:10506000AF64109204111092490AE7EFF7E08491BF
:105070008F01882351F0082E000C990B0F94FD9599
:105080000F5F1F4FF8018491F4CF1092E30F88E770
:1050900093E090934502809344020F94165B0C9426
:1050A000A65D40E050E06AE18AE00F94AF640F949F
:1050B000A13E8091501B882311F40C94A65D809131
:1050C0002D1180932E11B5E0EB2EB1E1FB2E19E1ED
:1050D000C12E11E1D12E00E010E080912D1190E061
:1050E00008171907FCF461E57BE188EC9BE10F945C
:1050F000807B5701D7018D919D917D010F94944341
:10510000F50180819181D6018D939D936D018091F0
:10511000A01B882321F081E59BE10F9429480F5FB4
:105120001F4FDBCF87E090E00F94EA6E0C94A65DF2
:1051300080914402909145028036974041F488E77F
:1051400093E090934502809344020F94165B40E0F5
:1051500050E068E08AE00F94AF6481E480934E0AE7
:1051600080910C108823D1F040E061E081E00F9441
:10517000D91D0E9419C180914E0A8E3489F48FEF97
:105180009FEFDC018093960290939702A093980280
:10519000B09399021092FC080C940A6741E0E5CFA5
:1051A00081E00F94F32210924E0A84EF97E00F945F
:1051B000F6220E9419C180914E0A8E3401F340E01C
:1051C00050E06BE08AE00F94AF640C94A65D40E081
:1051D00050E064E08AE00F94AF640C94A65D40E078
:1051E00050E064E28AE00F94AF648091CD13826056
:1051F0008093CD1389E480934E0A40E050E060E252
:1052000089E00F94AF646091061070910710072E2B
:10521000000C880B990B0F9468C240E050E00F948B
:1052200037860F94165B6DE275E084EC98E10F947D
:10523000029660E375E084EC98E10F940296609129
:1052400018037091190380911A0390911B0342E097
:1052500050E00F94EA4164E375E084EC98E10F9428
:1052600002962DEB37E346E05EE360911003709108
:10527000110380911203909113030F94F1C942E03E
:1052800050E00F94EA4168E375E084EC98E10F94F4
:1052900002962DEB37E346E05EE3609108037091E0
:1052A000090380910A0390910B030F9470BD42E0B3
:1052B00050E00F94EA416091031070910410072EA2
:1052C000000C880B990B0F9468C241E050E00F94DA
:1052D00037860F94165B6DE275E084EC98E10F94CD
:1052E000029660E375E084EC98E10F940296609179
:1052F0001C0370911D0380911E0390911F0342E0D7
:1053000050E00F94EA4164E375E084EC98E10F9477
:1053100002962DEB37E346E05EE360911403709153
:10532000150380911603909117030F94F1C942E081
:1053300050E00F94EA4168E375E084EC98E10F9443
:1053400002962DEB37E346E05EE360910C0370912B
:105350000D0380910E0390910F030F9470BD42E0F6
:1053600050E00F94EA4110924E0A0E942F6740E0ED
:1053700050E06BE084E10F94AF6440E050E065E101
:105380008AE00F94AF6481E00F94F32284E4809369
:10539000741180934E0A0C94A65D40E050E068E2E0
:1053A0008AE00F94AF640C94A65D40E050E062E1A7
:1053B0008AE00F94AF640C94A65D109204111092D1
:1053C000490AE9EEF7E084918F01882351F0082E15
:1053D000000C990B0F94FD950F5F1F4FF8018491FE
:1053E000F4CF1092E30F0E942F6740E050E065E099
:1053F0008AE00F94AF640C94A65D40E050E062E157
:105400008AE00F94AF640C94A65D82E580931E023F
:105410008091CD1381608093CD1340E050E06BE527
:1054200081E20F94AF6440E050E06CE581E20F94BC
:10543000AF6440E050E060E08BE10F94AF6440E087
:1054400050E06AE781E20F94AF6440E050E069E722
:1054500081E20F94AF6440E050E06DE18AE00F9488
:10546000AF648FEF8093A4090C94A65D40E050E0F8
:105470006CE68AE00F94AF640C94A65D40E050E0C7
:1054800062E18AE00F94AF6440E050E06BE581E2B6
:105490000F94AF6440E050E06CE581E20F94AF649C
:1054A00040E050E060E08BE10F94AF6440E050E0FA
:1054B0006AE781E20F94AF6440E050E069E781E27F
:1054C0000F94AF648091CD138E7F8093CD130C9495
:1054D000A65D109204111092490AEEEDF7E0849156
:1054E0008F01882351F0082E000C990B0F94FD9525
:1054F0000F5F1F4FF8018491F4CF1092E30F40E04B
:1055000050E065E08AE00F94AF6440E050E06BE566
:1055100081E20F94AF6440E050E06CE581E20F94CB
:10552000AF6440E050E060E08BE10F94AF6440E096
:1055300050E06AE781E20F94AF6440E050E069E731
:1055400081E20F94AF648091CD138E7F8093CD1351
:105550000C94A65D41E050E06BE581E20F94AF64EE
:1055600040E050E06CE581E20F94AF6441E050E030
:1055700060E08BE10F94AF6441E050E06AE781E2C4
:105580000F94AF6441E050E069E781E20F94AF64AB
:105590001092A4090C94A65D40E050E06BE581E216
:1055A0000F94AF6441E050E06CE581E20F94AF648A
:1055B00041E050E060E08BE10F94AF6441E050E0E7
:1055C0006AE781E20F94AF6441E050E069E781E26D
:1055D0000F94AF6481E08093A4090C94A65D809140
:1055E0004402909145028036974041F488E793E069
:1055F00090934502809344020F94165B8091A40916
:105600008F3F11F40C94A65D0F945CB00C94A65DD2
:1056100080914402909145028036974041F488E79A
:1056200093E090934502809344020F94165BE091BF
:10563000A409EF3F11F40C94A65D81E080934C0A1D
:10564000F0E0EE0FFF1FED5BFE4E84E091E09183F2
:1056500080830E94D7A381E480934E0A40E050E00B
:1056600068E08AE00F94AF6480910C10882311F0F9
:1056700040E001C041E061E081E00F94D91D0E944B
:1056800019C180914E0A8E3409F479CD80E090E002
:10569000A3E4B3E48093661190936711A09368111B
:1056A000B093691180908B1090908C10A0908D1009
:1056B000B0908E102091621130916311409164116D
:1056C0005091651160915E1170915F118091601130
:1056D00090916111A1E56A2EA1E17A2E7F926F92DD
:1056E000BAE6CB2EB1E1DB2EE12CF12C03E413E47E
:1056F0000F94490C0E9419C10F900F9080914E0A8F
:105700008E3409F43CCD80E090E0A0E2B1E48093D7
:10571000621190936311A0936411B093651180900E
:10572000871090908810A0908910B0908A10E09017
:105730006611F090671100916811109169116091E4
:105740005E1170915F1180916011909161117F9253
:105750006F9220E030E040E251E40F94490C0E9447
:1057600019C10F900F9080914E0A8E3409F407CD25
:105770008091A40981110FC00F94BA3B80E090E0A2
:10578000A0E9B2E480935E1190935F11A093601141
:10579000B09361111FC081E00F94BA3B20E030E06C
:1057A00048EC51E46091AE027091AF028091B0027A
:1057B0009091B1020F9402C920E030E04CE352E432
:1057C0000F9402C960935E1170935F118093601112
:1057D00090936111E0906611F0906711009168114B
:1057E00010916911209162113091631140916411FF
:1057F0005091651160915E1170915F1180916011FF
:1058000090916111E4EAF9E0FF93EF93812C912CE0
:10581000E8E4AE2EE3E4BE2EFAE6CF2EF1E1DF2E71
:105820000F94490C0E9419C10F900F9080914E0A5D
:105830008E3409F4A4CC10924E0A0E942F6740E0E7
:1058400050E065E28AE00F94AF640C94A65D9091FD
:10585000A3118091A21198130C94A65D0C9431654C
:105860009091A3118091A21198130C94A65D0C94B1
:1058700038659091A3118091A21198130C94A65DA4
:105880000C943F659091A3118091A21198130C94F0
:10589000A65D0C9446659091A3118091A211981376
:1058A0000C94A65D0C944D6541E050E06CE981E2FA
:1058B0000F94AF6441E050E06DE981E20F94AF6472
:1058C0002091200230912102809143119091441146
:1058D00010922102109220022130310589F5892B86
:1058E00051F4809106109091071090934411809389
:1058F00043110E94D7A341E050E06AE981E20F948E
:10590000AF6440E050E06BE981E20F94AF644091F6
:1059100043115091441168E289E00F94AF646091A3
:105920001A1470911B1480911C1490911D140F94E3
:105930009DCAAB0166E289E00F94AF640C94A65D4A
:10594000892B51F480910610909107109093441187
:10595000809343110E94D7A341E050E06AE981E2BD
:105960000F94AF6440E050E06BE981E20F94AF64C4
:10597000409143115091441168E289E00F94AF6463
:1059800060911A1470911B1480911C1490911D1435
:105990000F949DCAAB0166E289E00F94AF640C944A
:1059A000A65D41E050E06CE981E20F94AF6441E014
:1059B00050E06DE981E20F94AF64209120023091B4
:1059C00021028091451190914611232BB9F521E0D8
:1059D00030E03093210220932002892B51F48091F2
:1059E00003109091041090934611809345110E94EA
:1059F000D7A340E050E06AE981E20F94AF6441E050
:105A000050E06BE981E20F94AF64409145115091F1
:105A1000461168E289E00F94AF6460911E147091A2
:105A20001F1480912014909121140F949DCAAB01F2
:105A300067E289E00F94AF640C94A65D21E030E04A
:105A40003093210220932002892B51F4809103107E
:105A50009091041090934611809345110E94D7A312
:105A600040E050E06AE981E20F94AF6441E050E029
:105A70006BE981E20F94AF6440914511509146115A
:105A800068E289E00F94AF6460911E1470911F1456
:105A900080912014909121140F949DCAAB0167E26C
:105AA00089E00F94AF640C94A65DE0912002F09120
:105AB0002102EF3F3FEFF30711F40C94A65DEE0FC8
:105AC000FF1FED5BFE4E808191818B3341E0940797
:105AD00014F00C94A65D0596918380830E94D7A351
