:100000000C94880D0C94B90D0C94B90D0C94B90D89
:100010000C94B90D0C94B90D0C94B90D0C94B90D48
:100020000C94B90D0C94B90D0C94B90D0C94B90D38
:100030000C94B90D0C94B90D0C94B90D0C94B90D28
:100040000C94B90D0D94BB020C94B90D0C94B90D20
:100050000C94B90D0C94B90D0D94901A0D94442381
:100060000C94B90D0D9462270D9498270C94B90D3A
:100070000C94B90D0C94B90D0C94B90D0C94B90DE8
:100080000C94B90D0C94B90D0C94B90D0C94B90DD8
:100090000C94B90D0C94B90D0C94B90D0D94162255
:1000A0000C94B90D0C94B90D0C94B90D0C94B90DB8
:1000B0000C94B90D0C94B90D0C94B90D0C94B90DA8
:1000C0000C94B90D0C94B90D0C94B90D0D940D2828
:1000D0000D9443280C94B90D0C94B90D0C94B90DE2
:1000E0000C94B90D1701D10029012B01310119011F
:1000F00033012D01D300DB00E500FD00F300070113
:100100001B01350127013D010101FB000B011D0110
:10011000EB00210103012701D900E300E700E9001A
:100120003B01D50011010901430123013701F7000B
:10013000C700EF00CD003901ED004301F5001F01BC
:10014000E100084AD73B3BCE016E84BCBFFDC12F06
:100150003D6C74319ABD56833DDA3D00C77F11BEB8
:10016000D9E4BB4C3E916BAAAABE000000803F05BB
:10017000A84CCDB2D44EB93836A9020C50B99186EC
:1001800088083CA6AAAA2ABE000000803F000D9461
:1001900036250D949C260D94EA210D9440250D944E
:1001A00070210D94251B0D94931B0D9413250D9414
:1001B00075280D94E1240D94951B0D94C1270D9481
:1001C0007F210D9456250D94EB240D949D1B0D94C9
:1001D000F5240D9421250D94BE240D9448250D94ED
:1001E0003A250D9480210D946D240D944E250D9487
:1001F00032250D94F2250D94A0240D9468240D94BD
:100200005D210D9498240D94D7240D946C280D94A1
:1002100072240D941D250D94AA240D94AC210D94E7
:10022000FD250D9417250D947B260D940B260D941A
:10023000181B0D94751B0D947C240D94B4240D94FF
:1002400052250D94CD240D9428250D941F260D9430
:10025000FF240D94411B0D944E1B0D94911B0D9486
:1002600055210D94681B0D948F1B0D9486240D94BD
:100270002C250D9444250D9424250D9490240D9443
:10028000CA270D94C5280D945B254D38342058207D
:1002900059205A2045004D313037005430004D313F
:1002A0003037004D3234004D3233202573006175F4
:1002B000746F25692E67006572726F72207772699C
:1002C00074696E6720746F2066696C65004E6F7488
:1002D000205344207072696E74696E67002F00535A
:1002E00044207072696E74696E672062797465204B
:1002F000002E0044656C6574696F6E206661696CE0
:1003000065642C2046696C653A200046696C65205E
:1003100064656C657465643A002E006F70656E20CC
:100320006661696C65642C2046696C653A200057EB
:10033000726974696E6720746F2066696C653A2013
:10034000002E006F70656E206661696C65642C20FC
:1003500046696C653A20002E006F70656E206661FC
:10036000696C65642C2046696C653A200046696CAE
:10037000652073656C6563746564002053697A65F4
:100380003A200046696C65206F70656E65643A209E
:10039000002E006F70656E206661696C65642C20AC
:1003A00046696C653A20004E6F7720667265736807
:1003B0002066696C653A20004E6F7720646F696E25
:1003C000672066696C653A20002220706F730022F6
:1003D00020706172656E743A2200535542524F5537
:1003E00054494E452043414C4C20746172676574FA
:1003F0003A2200747279696E6720746F2063616CB1
:100400006C207375622D67636F64652066696C6527
:1004100073207769746820746F6F206D616E792026
:100420006C6576656C732E204D4158206C65766541
:100430006C2069733A0053442063617264206F6BCF
:10044000006F70656E526F6F74206661696C6564D1
:1004500000766F6C756D652E696E697420666169D2
:100460006C656400534420696E6974206661696C30
:10047000006563686F3A004572726F723A004861B6
:100480007264636F6465642043616C696220616EAD
:1004900064205049442044656661756C742053653E
:1004A0007474696E6773204C6F61646564004861A1
:1004B0007264636F6465642044656661756C742062
:1004C00053657474696E6773204C6F616465640072
:1004D00053746F7265642073657474696E677320FA
:1004E0007265747269657665640020525F50524986
:1004F0004E54200020525F424544200020525F525B
:10050000454D4F5645200020525F494E53455254A9
:10051000200054656D702028EFBFBD43293A0020AC
:100520004C5F5052494E542000204C5F42454420BD
:1005300000204C5F52454D4F56452000204C5F49EE
:100540004E53455254200054656D702028EFBFBDB6
:1005500043293A00205A2070726F626500205A20A9
:100560000020592000205820004F66667365747380
:1005700020286D6D293A00204400204900202D20BC
:100580004D33303120524947485420500020440018
:10059000204900204D333031204C45465420500036
:1005A0005049442073657474696E67733A00205A29
:1005B0000020590020204D323036205800486F6D01
:1005C00065206F666673657420286D6D293A00207A
:1005D0004500205A002058002042002054002020CE
:1005E0004D323035205300416476616E636564207E
:1005F0007661726961626C65733A20533D4D696E34
:1006000020666565647261746520286D6D2F73299D
:100610002C20543D4D696E2074726176656C2066A5
:100620006565647261746520286D6D2F73292C20B7
:10063000423D6D696E696D756D207365676D656EA0
:10064000742074696D6520286D73292C20583D6DC8
:100650006178696D756D205859206A65726B202824
:100660006D6D2F73292C20205A3D6D6178696D7551
:100670006D205A206A65726B20286D6D2F73292CAE
:100680002020453D6D6178696D756D2045206A6556
:10069000726B20286D6D2F73290020540020204D8F
:1006A000323034205300416363656C657261746954
:1006B0006F6E3A20533D616363656C657261746966
:1006C0006F6E2C20543D7265747261637420616397
:1006D00063656C65726174696F6E00204500205A15
:1006E0000020590020204D3230312058004D6178D3
:1006F000696D756D20416363656C65726174696FC6
:100700006E20286D6D2F7332293A00204500205A43
:100710000020590020204D3230332058004D6178A0
:10072000696D756D206665656472617465732028F6
:100730006D6D2F73293A00204500205A0020590082
:1007400020204D3932205800537465707320706535
:100750007220756E69743A0053657474696E6773BC
:100760002053746F726564006563686F3A0050725D
:10077000696E7465722068616C7465642E206B69A3
:100780006C6C28292063616C6C656421006F6B00C0
:10079000526573656E643A20000A00207A3A2000A0
:1007A00020793A200020783A200042656400220037
:1007B000556E6B6E6F776E20636F6D6D616E643A10
:1007C000202200486F74656E64206F6666736574DE
:1007D000733A005A204F6666736574203A20007A97
:1007E0005F6D61783A20007A5F6D696E3A20005A39
:1007F000204F6666736574005A204F666673657491
:10080000206F6B00486F74656E64206F6666736559
:1008100074733A007A5F6D696E3A2000795F6D619A
:10082000783A2000785F6D61783A2000785F6D69D2
:100830006E3A2000205A3A0020593A0020436F7542
:100840006E7420583A200020453A00205A3A002081
:10085000593A00583A004649524D574152455F4E69
:10086000414D453A4D61726C696E2056313B2053C3
:100870007072696E7465722F6772626C206D61733D
:1008800068757020666F722067656E362046495223
:100890004D574152455F55524C3A68747470733AE3
:1008A0002F2F6769746875622E636F6D2F457269AB
:1008B0006B5A616C6D2F4D61726C696E2F205052B6
:1008C0004F544F434F4C5F56455253494F4E3A3168
:1008D0002E30204D414348494E455F545950453ACA
:1008E0004D656E64656C2045585452554445525FC1
:1008F000434F554E543A3220555549443A303030E2
:1009000030303030302D303030302D303030302DF0
:10091000303030302D3030303030303030303030DA
:10092000300A0020423A0020453A00543A0020574D
:100930003A0020453A00543A002042403A00204014
:100940003A00202F003A00205400202F0020423A85
:1009500000202F006F6B20543A000A0A0053746184
:100960006E6461726420446576696174696F6E3A81
:1009700020000A004D65616E3A20000A0020202008
:100980007A3A200000793A2000783A20003F5370EC
:1009900065636966696564206E756D626572206F56
:1009A00066206C65677320696E206D6F76656D6576
:1009B0006E74206E6F7420706C61757361626C650B
:1009C0002E0A003F5370656369666965642059208B
:1009D000706F736974696F6E206F7574206F662015
:1009E00072616E67652E0A003F53706563696669C0
:1009F0006564205820706F736974696F6E206F751D
:100A000074206F662072616E67652E0A003F537016
:100A1000656369666965642073616D706C652073D8
:100A2000697A65206E6F7420706C61757361626C99
:100A3000652E0A0046756C6C20737570706F727449
:100A40002061743A20687474703A2F2F3364707286
:100A5000696E74626F6172642E636F6D2F666F7260
:100A6000756D2E7068700A004D3438205A2D507202
:100A70006F6265205265706561746162696C69744A
:100A80007920746573742E20202056657273696F07
:100A90006E20322E30300A003F566572626F7365E9
:100AA000204C6576656C206E6F7420706C61757378
:100AB00061626C652E0A002569206D696E2C202507
:100AC000692073656300456E642066696C65206CFF
:100AD00069737400426567696E2066696C65206C95
:100AE000697374000A00205A3A200020593A200005
:100AF00020583A200042656400486F6D6520582FE9
:100B000059206265666F7265205A000A0020616E86
:100B10007469686F726172690A3A200020686F72A6
:100B20006172690A20002F3800766F6C746573203B
:100B30000020566F6C74657320636172676F6C2060
:100B4000333A200020616E7469686F726172690ABD
:100B50003A200020686F726172690A20002F380005
:100B6000766F6C746573200020566F6C746573200B
:100B7000636172676F6C20323A200020616E746985
:100B8000686F726172690A3A200020686F72617240
:100B9000690A20002F3800766F6C7465732000207E
:100BA000566F6C74657320636172676F6C20313AA5
:100BB00020000A0020647A333A200020647A323A16
:100BC000200020647A313A20000A00207A633A201B
:100BD00000486F6D6520582F59206265666F7265F9
:100BE000205A00486F6D6520582F59206265666F46
:100BF0007265205A00256920686F75727320256917
:100C0000206D696E7574657300446F6E6520707237
:100C1000696E74696E672066696C650047363900D5
:100C20005072696E7465722073746F7070656420A1
:100C300064756520746F206572726F72732E204622
:100C4000697820746865206572726F7220616E64C5
:100C500020757365204D39393920746F20726573A2
:100C6000746172742E202854656D7065726174759C
:100C700072652069732072657365742E20536574E4
:100C80002069742061667465722072657374617284
:100C900074696E6729006F6B004E6F204C696E653A
:100CA000204E756D6265722077697468206368658F
:100CB000636B73756D2C204C617374204C696E6589
:100CC0003A20004E6F20436865636B73756D207723
:100CD000697468206C696E65206E756D6265722C32
:100CE000204C617374204C696E653A20006368651E
:100CF000636B73756D206D69736D617463682C200F
:100D00004C617374204C696E653A20004C696E65C5
:100D1000204E756D626572206973206E6F74204C71
:100D2000617374204C696E65204E756D6265722B1F
:100D3000312C204C617374204C696E653A20004D53
:100D400031313000446F6E6520736176696E6720C3
:100D500066696C652E006F6B004D323900737461EB
:100D600072740030312D312E312E31002200656E2B
:100D7000717565696E672022002200656E71756568
:100D8000696E672022004734300054300047343009
:100D900000543000473430005430004734300054A1
:100DA0003000473430005430005431005430005487
:100DB000300054310054310054300054300054316C
:100DC0000047343300473433004734310047343070
:100DD0000047343100473431004734310047343163
:100DE0000047343100473431004734310047343153
:100DF000004734310047343100543000543000474C
:100E00003334005430004733340054300047333417
:100E10000054300047333400543000473433004727
:100E2000343300473334004D3234004D3233202503
:100E300073004D383420582059205A2045004D3138
:100E40003037005430005430005431004737300000
:100E50004D383420582059205A204500543000473E
:100E6000323820583020593000FF01FF0000A040E8
:100E70000000A0400000004033F3974300809343FC
:100E80000000524300000000008093430000000077
:100E900033F3974300809343000052430000000067
:100EA00000000000000000006563686F3A004572B2
:100EB000726F723A0020636F6C642065787472758B
:100EC00073696F6E2070726576656E746564006517
:100ED00063686F3A007C3C3E5E2B3D3F2F5B5D3B81
:100EE0002C2A225C00205A3A0020593A0020583A15
:100EF00000656E6473746F7073206869743A2000C3
:100F000024F4D43050C38E20C2A24017828B7011BB
:100F1000127A910D816CD90AA861E108C758660759
:100F2000615143061E4B5D05C145A7041A411104DA
:100F3000093D9803713931034036DB026533910274
:100F4000D4305402802E1D02632CEE01752AC50197
:100F5000B028A001102781018F2564012B244B01AB
:100F6000E0223401AC211F018D200D01801FFC0007
:100F7000841EED00971DDF00B81CD200E61BC600E2
:100F8000201BBC00641AB200B219A8000A19A00004
:100F90006A189900D117910040178B00B51684008C
:100FA00031167E00B31579003A157300C7146F002F
:100FB00058146A00EE1366008813630025135E0060
:100FC000C7125B006C12570015125400C11151007A
:100FD00070114F0021114B00D61049008D104700B1
:100FE0004610440002104200C00F4000800F3E0037
:100FF000420F3C00060F3B00CB0E3800930E37002B
:101000005C0E3500270E3400F30D3200C10D3100A7
:10101000900D3000600D2E00320D2D00050D2C00BE
:10102000D90C2B00AE0C2900850C29005C0C270084
:10103000350C27000E0C2600E80B2400C40B2400FE
:10104000A00B23007D0B23005A0B2100390B21003C
:10105000180B2000F80A1F00D90A1E00BB0A1E0048
:101060009D0A1D00800A1D00630A1C00470A1B0020
:101070002C0A1B00110A1A00F7091A00DD091900D1
:10108000C4091900AB091900920917007B0918005F
:10109000630917004C0916003609160020091600CE
:1010A0000A091500F5081500E0081400CC08140022
:1010B000B8081400A4081400900813007D0812005A
:1010C0006B0813005808120046081200340811007B
:1010D000230811001208110001081100F007100088
:1010E000E0071000D0071000C0071000B0070F0085
:1010F000A107100091070E0083070F0074070F006F
:1011000065070E0057070E0049070E003B070D004C
:101110002E070E0020070D0013070D0006070D0017
:10112000F9060C00ED060D00E0060C00D4060C00DC
:10113000C8060C00BC060C00B0060C00A4060B0090
:1011400099060C008D060B0082060B0077060B003B
:101150006C060B0061060A0057060B004C060A00DD
:1011600042060A0038060A002E060A0024060A0073
:101170001A060A001006090007060A00FD05090004
:10118000F4050900EB050900E2050900D90509008D
:10119000D0050900C7050900BE050900B50508000E
:1011A000AD050800A50509009C0508009405080088
:1011B0008C050800840508007C05080074050800FB
:1011C0006C050700650508005D0507005605080069
:1011D0004E050700470507004005080038050700D1
:1011E000310507002A050700230507001C05060036
:1011F000160507000F050700080506000205070091
:10120000FB040600F5040700EE040600E8040600EF
:10121000E2040700DB040600D5040600CF04060044
:10122000C9040600C3040600BD040600B704060096
:10123000B1040500AC040600A6040600A0040500E5
:101240009B04060095040500900406008A0405002E
:1012500085040500800406007A0405007504050075
:10126000700405006B0405006604050061040500B8
:101270005C04050057040500520405004D040500F8
:1012800048040500430405003E0404003A04050038
:1012900035040500300404002C0405002704040074
:1012A000230405001E0404001A04040016040500AB
:1012B000110404000D0404000904050004040400E2
:1012C00000040400FC030400F8030400F403040019
:1012D000F0030400EC030400E8030400E40304004A
:1012E000E0030400DC030400D8030400D40304007A
:1012F000D0030400CC030400C8030300C5030300AB
:1013000024F404D9201BC40C5C0E9804C4095F02A9
:1013100065077101F405F900FB04B3004804870078
:10132000C10369005803550003034500BE023A009B
:101330008402310053022A00290225000402200001
:10134000E4011C00C8011900AF0117009801140046
:1013500084011300710110006101100051010E00A1
:1013600043010D0036010B002B010B0020010B0087
:10137000150109000C01090003010800FB00080029
:10138000F3000800EB000700E4000600DE000600A2
:10139000D8000600D2000600CC000500C7000500FA
:1013A000C2000500BD000400B9000400B50004003F
:1013B000B1000400AD000400A9000400A500030072
:1013C000A20003009F0004009B000300980003009C
:1013D0009500020093000300900003008D000200BE
:1013E0008B000300880002008600020084000300D6
:1013F000810002007F0002007D0002007B000200ED
:1014000079000200770001007600020074000200FB
:1014100072000100710002006F0002006D00010007
:101420006C0002006A000100690002006700010010
:101430006600010065000100640002006200010016
:1014400061000100600001005F0002005D0001001A
:101450005C0001005B0001005A000100590001001E
:10146000580001005700010056000100550001001E
:10147000540001005300000053000100520001001D
:1014800051000100500001004F0001004E0000001B
:101490004E0001004D0001004C0001004B00000017
:1014A0004B0001004A000100490001004800000013
:1014B000480001004700010046000000460001000E
:1014C0004500000045000100440001004300000009
:1014D0004300010042000000420001004100000002
:1014E00041000100400001003F0000003F000100FA
:1014F0003E0000003E0001003D0000003D000100F4
:101500003C0000003C0000003C0001003B000000EB
:101510003B0001003A0000003A00010039000000E1
:1015200039000100380000003800000038000100D8
:1015300037000000370001003600000036000000D0
:1015400036000100350000003500000035000100C4
:1015500034000000340000003400010033000000BB
:1015600033000000330001003200000032000000B0
:1015700032000100310000003100000031000100A4
:101580003000000030000000300001002F0000009B
:101590002F0000002F0000002F0001002E0000008F
:1015A0002E0000002E0001002D0000002D00000084
:1015B0002D0000002D0001002C0000002C00000078
:1015C0002C0000002C0001002B0000002B0000006C
:1015D0002B0000002B0001002A0000002A00000060
:1015E0002A0000002A000100290000002900000054
:1015F0002900000029000000290001002800000047
:101600002800000028000000280000002800010039
:10161000270000002700000027000000270000002E
:101620002700010026000000260000002600000020
:101630002600000026000100250000002500000013
:101640002500000025000000250000002500010005
:1016500024000000240000002400000024000000FA
:1016600024000100230000002300000023000000EC
:1016700023000000230000002300000023000100DD
:1016800022000000220000002200000022000000D2
:1016900022000000220001002100000021000000C3
:1016A00021000000210000002100000021000000B6
:1016B00021000100200000002000000020000000A8
:1016C000200000002000000020000000200000009A
:1016D000200001001F0000001F0000001F0000008C
:1016E0001F0000001F0000001F0000001F0001007D
:1016F0001E0000001E0000001E0000001E00000072
:101700006563686F3A00504944204175746F747581
:101710006E652066696E697368656421005049448E
:10172000204175746F74756E65206661696C6564BF
:10173000212074696D656F75740020403A006F6BED
:1017400020543A006F6B20423A00504944204175C2
:10175000746F74756E65206661696C6564212054D0
:10176000656D706572617475726520746F6F206845
:1017700069676800204B643A2000204B693A2000DA
:10178000204B703A200020436C61737369632050D2
:10179000494420002054753A2000204B753A20001F
:1017A000206D61783A2000206D696E3A2000206437
:1017B0003A200020626961733A2000504944204178
:1017C00075746F74756E652066696E69736865649B
:1017D000212050757420746865206C617374204BEF
:1017E000702C204B6920616E64204B6420636F6E07
:1017F0007374616E74732066726F6D2061626F76B0
:101800006520696E746F20436F6E666967757261DB
:1018100074696F6E2E6800504944204175746F746E
:10182000756E65206661696C6564212074696D65FB
:101830006F75740020403A006F6B20543A006F6B54
:1018400020423A00504944204175746F74756E65AA
:10185000206661696C6564212054656D70657261F4
:101860007475726520746F6F206869676800204B1B
:10187000643A2000204B693A2000204B703A200047
:1018800020436C61737369632050494420002054E5
:10189000753A2000204B753A2000206D61783A207F
:1018A00000206D696E3A200020643A2000206269B1
:1018B00061733A200070012C0190012701B00122D0
:1018C00001C0011D01F00118011002130130020EC8
:1018D000016002090190020401C002FF000003FA46
:1018E000004003F5008003F000D003EB002004E685
:1018F000007004E100E004DC004005D700C005D220
:10190000004006CD00D006C8008007C3003008BEE6
:1019100000F008B900C009B400B00AAF00B00BAACB
:1019200000D00CA500000EA000500F9B00C0109628
:10193000005012910000148C00C0158700B017826F
:1019400000B0197D00D01B7800001E730040206E8F
:101950000090226900F024640040275F0090295A1B
:1019600000E02B5500102E500020304B0010324666
:1019700000E033410090353C0010373700703832BA
:1019800000A0392D00B03A2800A03B2300603C1E87
:1019900000103D1900903D1400103E0F00703E0AEB
:1019A00000C03E0500003F000000000A0B02090CC9
:1019B0000D0E0807030401000000000000000000F5
:1019C0000000000000000000000000000000000017
:1019D00000000000001211100000000000000000D4
:1019E00000000000000000000000000000000001F6
:1019F0000210202008081020401020408002010220
:101A000001080402010102040810204080804020E7
:101A10001008040201800402018040201008040222
:101A200001080402010102040810204080010204A0
:101A3000081020408005050505070508080808026C
:101A40000202020A0A080804040404010101010157
:101A50000101010303030303030303040707070C46
:101A60000C0C0C0C0C0C0C020202020606060606FC
:101A70000606060B0B0B0B0B0B0B0B0000200023B9
:101A800000260029002C002F003200000100000376
:101A9000010601090100002200250028002B002E6C
:101AA000003100340002010000050108010B0100B3
:101AB000002100240027002A002D003000330001FF
:101AC000010000040107010A014E414E494E4954EC
:101AD00059494E46CDCCCC3D0AD7233C17B7D13817
:101AE00077CC2B329595E6241FB14F0A0000204198
:101AF0000000C84200401C4620BCBE4CCA1B0E5A07
:101B0000AEC59D742327317FCB003F01D700457FB1
:101B100011241FBECFEFD1E2DEBFCDBF00E00CBF6E
:101B20001CE0A0E0B2E0E2E0F2E702E00BBF02C09E
:101B300007900D92A632B107D9F72CE1A6E2BCE0DE
:101B400001C01D92A838B207E1F71BE1CEE0DBE14E
:101B500000E006C022970109FE010BBF0F948D30F3
:101B6000C430D10780E00807A9F70F94B9280D9475
:101B7000EF380C940000DC01ED91FC910190F081B4
:101B8000E02D1994FC0114821782138212828FE9CE
:101B90009BE09183808308952FE93BE0FC01318332
:101BA00020832781222319F004960C94E7F80895E6
:101BB000CF92DF92EF92FF920F931F93CF93DF9319
:101BC000EC01895A9F4FDEDFCE0188589F4FDADF44
:101BD0007E0127E9E20EF11C87016E0133E3C31A8F
:101BE0003EEFD30AC801CEDF015E1F4F0C151D0565
:101BF000C9F7FE01E153FE4F89E1818314823596D6
:101C0000178ACE018E509E4FBDDFFE01ED55FD4F70
:101C100010821182128213823896108211821282EF
:101C200013821A821B821C82188219826E0189E536
:101C3000C81A8DEFD80AF60110821182128213821F
:101C4000F80111821082FE01EF5EFD4F108286E3E3
:101C500091E0F7019C01119221503040E1F7FE0123
:101C6000E155FD4F81E08083CB5ADF4F1982188206
:101C70000F948E2368577C4E8F4F9F4FF6016083E1
:101C8000718382839383DF91CF911F910F91FF9096
:101C9000EF90DF90CF900895FC0120E03EE2DB0161
:101CA0004C91403241F0283011F430833196DB0101
:101CB0004C91408331962F5F6F5F7F4F2B3079F7C8
:101CC000108208952F923F924F925F926F927F926F
:101CD0008F929F92AF92BF92CF92DF92EF92FF923C
:101CE0000F931F93CF93DF93CDB7DEB7C858D109B9
:101CF0000FB6F894DEBF0FBECDBF8C016B017A0129
:101D0000CA57DF4F1882C658D04084E0E80EF11C55
:101D1000180192E1290E311CF801EC5AFF4FC95706
:101D2000DF4FF983E883C758D0405801F0E5AF1A78
:101D3000FDEFBF0A38018EE4681A8DEF780A80E45F
:101D4000482E512C4C0E5D1E94E0490E511CA101F1
:101D5000BE016F5F7F4FC7010E9451F718160CF04C
:101D600009C12C85322F3871303109F091C0F5014D
:101D7000808191810197029708F48AC0BE016F5F4C
:101D80007F4FCE0187589F4F87DFA0961FAEA09749
:101D9000F6018081811107C06DE073E0CE01815AA8
:101DA0009F4F0F94A335B601CE01815A9F4F0F94D8
:101DB000A335BE0167587F4FCE01815A9F4F0F94C4
:101DC000A3356DE073E0CE01815A9F4F0F94A33588
:101DD000CE01805C9F4FD6DE21E0AE0147585F4FB9
:101DE000B701C2010E94DEFA81112EC0F501808187
:101DF0009181892B49F5E1E7F4E064914F01662375
:101E000061F0772767FD709588E49BE1B4DEFFEF12
:101E10008F1A9F0AF4016491F2CF6FE073E088E4B7
:101E20009BE10F9403296AE070E088E49BE1A3DE64
:101E3000BE0167587F4F88E49BE10F9403296AE055
:101E400070E088E49BE197DE8BE1FE01EC5BFF4FE5
:101E5000DE01959601900D928A95E1F724968EAD5C
:101E60009FAD24979CA38BA38FE99BE09AA389A3A2
:101E7000AE014F5D5F4FBE01615A7F4FC80122DF47
:101E8000CE01819689DECE01805C9F4F85DE5FCFDB
:101E90008981882309F46EC0853E09F458CF8E32BB
:101EA00009F455CF8F3509F452CFF8018289882380
:101EB00031F08E3209F44BCF8F3509F448CF23FD32
:101EC00046CF81E0303109F080E0C957DF4FE8812B
:101ED000F981C758D0408083811108C08985873433
:101EE00009F035CF8A858E3709F431CF4801F5E006
:101EF0008F0E911CBE016F5F7F4FC401CDDEF501D7
:101F000080819181009781F4B60188E49BE10F9470
:101F10000329B40188E49BE10F9403296AE070E08F
:101F200088E49BE128DE13CF8130910539F4F30179
:101F30008081918101969183808309CF029709F076
:101F400006CFCA57DF4FF881C658D0402F2F30E058
:101F5000F301808191812817390761F0CA57DF4F5B
:101F6000F881C658D040FF5FCA57DF4FF883C65884
:101F7000D040EDCEC857DF4F0FB6F894DEBF0FBE8E
:101F8000CDBFDF91CF911F910F91FF90EF90DF9028
:101F9000CF90BF90AF909F908F907F906F905F9009
:101FA0004F903F902F9008950F931F93CF93DF93FF
:101FB000CDB7DEB76F970FB6F894DEBF0FBECDBFBB
:101FC0008C01FC01E055FD4F1182108240E050E091
:101FD000BA01855A9F4F0E9404F8C801895A9F4F41
:101FE0002BE1FC013496DE01159601900D922A95A5
:101FF000E1F7FC01828193819C838B838FE99BE0D5
:102000009A838983AE014F5F5F4F6FEB7AE0C8011F
:1020100059DECE010196C0DD6F960FB6F894DEBF93
:102020000FBECDBFDF91CF911F910F9108952BE18E
:10203000FB013496DC01149601900D922A95E1F78C
:10204000FB0122813381FC01338322830895EF92C7
:10205000FF920F931F93CF93DF93EC011C82FC013F
:10206000E25AFF4F8081882329F0CE01855A9F4F85
:102070000E94E7F87E0181E3E81A8EEFF80A45E353
:1020800060E0C7010E9468F381113AC0E1E7F4E023
:1020900064918F01662359F0772767FD709588E476
:1020A0009BE169DD0F5F1F4FF8016491F3CFE4E618
:1020B000F4E064918F01662359F0772767FD7095EE
:1020C00088E49BE158DD0F5F1F4FF8016491F3CF67
:1020D0006AE070E088E49BE14EDD8E01095A1F4FF3
:1020E000B801CE0188589F4FA2DFCA58DF4F19832D
:1020F0000883DF91CF911F910F91FF90EF9008958A
:102100008E010C521E4F41E0B701C8010F94D1005F
:1021100081112AC040E0B701C8010F94D10081119C
:1021200023C0E7E7F4E064918F01662359F0772735
:1021300067FD709588E49BE11EDD0F5F1F4FF8017E
:102140006491F3CFE1E5F4E064918F01662309F433
:10215000BFCF772767FD709588E49BE10CDD0F5FAB
:102160001F4FF8016491F2CFB801CE01855A9F4FFD
:102170000E94F5F5811123C0E7E7F4E064918F0137
:10218000662359F0772767FD709588E49BE1F3DCBF
:102190000F5F1F4FF8016491F3CFE1E4F4E0649125
:1021A0008F01662309F494CF772767FD709588E443
:1021B0009BE1E1DC0F5F1F4FF8016491F2CF81E0FA
:1021C0008C83E1E7F4E064918F01662359F077276F
:1021D00067FD709588E49BE1CEDC0F5F1F4FF8012F
:1021E0006491F3CFE6E3F4E064918F01662309F490
:1021F0006FCF772767FD709588E49BE1BCDC0F5FAC
:102200001F4FF8016491F2CFFC01128214820895ED
:10221000CF93DF93EC018C818823B9F062E273E005
:1022200088E49BE10F9403294091730E5091740E42
:102230006091750E7091760E22E030E088E49BE1AB
:102240000F94E62A81E08A831B82DF91CF91089563
:10225000FC018281882319F0128281E08383089532
:10226000AF92BF92CF92DF92EF92FF920F931F93A4
:10227000CF93DF931F92CDB7DEB78C018FE2FB01C6
:1022800081935F01D12C41E07801F3E3EF1AFEEF77
:10229000FF0A9FE1C92E2D2D30E0F7018081918149
:1022A00028173907D8F4C29EC001C39E900D11248F
:1022B00085569F4FB501800F911F49830E949CF561
:1022C000C50149815C010196F5012081222321F09D
:1022D0004D3810F44F5FF6CFD394DDCF47FD11C0DA
:1022E000B501C8018A509E4F0F90DF91CF911F9189
:1022F0000F91FF90EF90DF90CF90BF90AF900C9434
:102300009CF5F50110820F90DF91CF911F910F91F5
:10231000FF90EF90DF90CF90BF90AF9008953F92E5
:102320004F925F926F927F928F929F92AF92BF92E5
:10233000CF92DF92EF92FF920F931F93CF93DF9391
:10234000CDB7DEB7AC970FB6F894DEBF0FBECDBFEA
:102350008C016B01342EFC018481882309F4D0C2E6
:10236000E750FE4F8081882309F407C12111D1C0B5
:102370007801FFEEEF1AFDEFFF0AF7018081882355
:1023800009F432C0E7E7F4E064918F01662359F065
:10239000772767FD709588E49BE1EDDB0F5F1F4FAA
:1023A000F8016491F3CFE3EFF3E064918F016623CA
:1023B00059F0772767FD709588E49BE1DCDB0F5FC0
:1023C0001F4FF8016491F3CF4AE050E061E070E004
:1023D00088E49BE10F94CB296AE070E088E49BE1FC
:1023E000CADB0E94153C8CC2E1E7F4E064915F0116
:1023F000662361F0772767FD709588E49BE1BBDB7E
:10240000FFEFAF1ABF0AF5016491F2CFEAEDF3E0F6
:1024100064915F01662361F0772767FD709588E41A
:102420009BE1A9DBFFEFAF1ABF0AF5016491F2CF80
:10243000B60188E49BE10F940329EFECF3E064918B
:102440005F01662361F0772767FD709588E49BE163
:1024500092DBFFEFAF1ABF0AF5016491F2CFF701EB
:1024600080812DE8B22EB801B89E600D711D112437
:102470006A5E7D4FC801F4DEF7018081B801B89E25
:10248000600D711D11246A5E7D4F88E49BE10F94FD
:102490000329E9ECF3E064915F01662361F077279B
:1024A00067FD709588E49BE166DBFFEFAF1ABF0A1A
:1024B000F5016491F2CF5801F5E5AF1AFDEFBF0ABF
:1024C000F50140815181628173812AE030E088E426
:1024D0009BE10F94E8296AE070E088E49BE14BDB24
:1024E000F7012081F80184E0289FE00DF11D1124FF
:1024F000AF014E5E5D4FF50180819181A281B38174
:10250000FA0180839183A283B3832F5FF701208335
:102510002EC0E1E7F4E064917F01662361F0772744
:1025200067FD709588E49BE126DBFFEFEF1AFF0A59
:10253000F7016491F2CFE8EBF3E064917F01662349
:1025400061F0772767FD709588E49BE114DBFFEF6E
:10255000EF1AFF0AF7016491F2CFB60188E49BE11C
:102560000F9403296AE070E088E49BE104DBC80172
:102570008A509E4F0E94E7F832C0F801EF5EFD4F8F
:102580001082E1E7F4E064917F01662361F0772730
:1025900067FD709588E49BE1EEDAFFEFEF1AFF0A22
:1025A000F7016491F2CFE7EAF3E064917F016623DB
:1025B00061F0772767FD709588E49BE1DCDAFFEF37
:1025C000EF1AFF0AF7016491F2CFB60188E49BE1AC
:1025D0000F9403296AE070E088E49BE1CCDAF8010B
:1025E0001282CE0101965C01CDDA280196E7490EF0
:1025F000511CC801895A9F4FF20191838083F601D3
:1026000080818F3209F07BC06FE270E0C6010F94C9
:10261000AE3501967C01E114F10409F476C06FE255
:1026200070E0C7010F94AE354C01009709F46EC0FD
:10263000E816F90608F06AC03C016E187F08A3018D
:10264000B701CE0180960F94D735E0E2F0E0EC0FB1
:10265000FD1FE60DF71D1082BE01605E7F4F88E40E
:102660009BE10F9403296AE070E088E49BE183DA40
:10267000F201608171816115710519F06C5F7F4F06
:1026800002C060E070E021E0AE01405E5F4FCE012D
:1026900005960E94DEFA81112AC0E3E9F3E0649115
:1026A0008F01662359F0772767FD709588E49BE1D9
:1026B00062DA0F5F1F4FF8016491F3CFBE01605ED5
:1026C0007F4F88E49BE10F940329E1E9F3E06491F3
:1026D0008F01662309F40DC1772767FD709588E4A3
:1026E0009BE149DA0F5F1F4FF8016491F2CFF201CD
:1026F000B182A0827401FFEFEF1AFF0A8CCFC801EC
:1027000088589F4FF201918380837601C8018A50D7
:102710009E4F4C01F20160817181332009F49AC00F
:102720006115710519F06C5F7F4F02C060E070E0C9
:1027300021E0A701C4010E94DEFA882309F462C0E7
:10274000F40181899289A389B489F801ED55FD4F7F
:1027500080839183A283B383E3E8F3E064914F0124
:10276000C8018D559D4F6C01662361F0772767FD89
:10277000709588E49BE1FFD99FEF891A990AF401CB
:102780006491F2CFB70188E49BE10F940329EBE752
:10279000F3E064917F01662361F0772767FD709510
:1027A00088E49BE1E8D9FFEFEF1AFF0AF701649193
:1027B000F2CFF60140815181628173812AE030E0DD
:1027C00088E49BE10F94E8296AE070E088E49BE1EB
:1027D000D2D9F801E555FD4F108211821282138281
:1027E000EDE6F3E064918F01662309F482C0772758
:1027F00067FD709588E49BE1BED90F5F1F4FF8011C
:102800006491F2CFE9E5F3E064918F01662359F01A
:10281000772767FD709588E49BE1ADD90F5F1F4F67
:10282000F8016491F3CFB70188E49BE10F94032989
:10283000E7E5F3E064918F01662309F45AC0772736
:1028400067FD709588E49BE196D90F5F1F4FF801F3
:102850006491F2CF6115710519F06C5F7F4F02C072
:1028600060E070E026E5A701C4010E94DEFA811154
:1028700027C0E3E4F3E064918F01662359F07727E2
:1028800067FD709588E49BE176D90F5F1F4FF801D3
:102890006491F3CFB70188E49BE10F940329E1E44D
:1028A000F3E064918F01662321F1772767FD70952E
:1028B00088E49BE160D90F5F1F4FF8016491F3CF6B
:1028C00081E0F8018083EFE2F3E064918F016623F9
:1028D00059F0772767FD709588E49BE14CD90F5F2D
:1028E0001F4FF8016491F3CFB60188E49BE10F9488
:1028F00003296AE070E088E49BE13DD9C5014CD929
:10290000AC960FB6F894DEBF0FBECDBFDF91CF916E
:102910001F910F91FF90EF90DF90CF90BF90AF90FD
:102920009F908F907F906F905F904F903F90089511
:1029300021E0FC01218340E0F2CC4F925F926F9244
:102940007F928F929F92AF92BF92CF92DF92EF923F
:10295000FF920F931F93CF93DF93CDB7DEB7AC9762
:102960000FB6F894DEBF0FBECDBF7C015B01FC014A
:102970008481882309F4F9C0C7018A509E4F0E94C0
:10298000E7F8F7011282CE0101966C01FBD827010E
:1029900096E7490E511CC701895A9F4FF201918356
:1029A0008083F50180818F3209F077C06FE270E09B
:1029B000C5010F94AE358C010F5F1F4F09F473C032
:1029C0006FE270E0C8010F94AE354C01009709F436
:1029D0006BC00817190708F067C03C01601A710A3C
:1029E000A301B801CE0180960F94D735E0E2F0E064
:1029F000EC0FFD1FE60DF71D1082BE01605E7F4FDC
:102A000088E49BE10F9403296AE070E088E49BE18D
:102A1000B2D8F201608171816115710519F06C5FA6
:102A20007F4F02C060E070E021E0AE01405E5F4F8A
:102A3000CE0105960E94DEFA81112AC0EBE1F3E097
:102A400064918F01662359F0772767FD709588E4BC
:102A50009BE191D80F5F1F4FF8016491F3CFBE0146
:102A6000605E7F4F88E49BE10F940329E9E1F3E086
:102A700064918F01662309F471C0772767FD709513
:102A800088E49BE178D80F5F1F4FF8016491F2CF83
:102A9000F201D182C08284018FCFC70188589F4F35
:102AA000F201918380838501F201808191810097F9
:102AB00011F0049602C080E090E0B8010E94B4FBDF
:102AC000882321F1EBE0F3E064915F01662361F07C
:102AD000772767FD709588E49BE14DD8FFEFAF1A2B
:102AE000BF0AF5016491F2CFB80188E49BE10F942D
:102AF00003296AE070E088E49BE13DD8F701E555E1
:102B0000FD4F10821182128213822DC0E3EFF2E09A
:102B100064917F01662361F0772767FD709588E4F3
:102B20009BE129D8FFEFEF1AFF0AF7016491F2CF7A
:102B3000B80188E49BE10F940329E1EFF2E064918E
:102B40008F01662359F0772767FD709588E49BE134
:102B500012D80F5F1F4FF8016491F3CF6AE070E065
:102B600088E49BE108D8C60117D8AC960FB6F89454
:102B7000DEBF0FBECDBFDF91CF911F910F91FF90B0
:102B8000EF90DF90CF90BF90AF909F908F907F900D
:102B90006F905F904F9008950F931F93CF93DF93A3
:102BA000EC018C81882309F43EC0EFEDF2E06491E2
:102BB0008F01662361F0772767FD709588E49BE1BC
:102BC0000E94BB0D0F5F1F4FF8016491F2CFFE0111
:102BD000E555FD4F40815181628173812AE030E0EB
:102BE00088E49BE10F94E829EDEDF2E064918F0118
:102BF000662361F0772767FD709588E49BE10E946A
:102C0000BB0D0F5F1F4FF8016491F2CFCD55DD4F23
:102C1000488159816A817B812AE030E088E49BE128
:102C20000F94E82911C0EDECF2E06491EF01662306
:102C300059F0772767FD709588E49BE10E94BB0DF2
:102C40002196FE016491F3CF6AE070E088E49BE195
:102C5000DF91CF911F910F910C94BB0DAF92BF925A
:102C6000CF92DF92EF92FF920F931F93CF93DF9358
:102C70005C01EB01FB0101900020E9F78F0101509D
:102C80001109061B170B6C01FAE0CF1AFEEFDF0AE1
:102C9000F60110826EE470E0CE010F94AE357C0137
:102CA000009729F4F8013197EC0FFD1F0DC060E289
:102CB00070E00F94AE35EC0121966AE270E0C70136
:102CC0000F94AE35FC0131978DE081838AE08283D9
:102CD0001382BE01C5018E509E4F0E947AFDF601FF
:102CE0008081882391F1E7E7F4E06491EF016623A6
:102CF00059F0772767FD709588E49BE10E94BB0D32
:102D00002196FE016491F3CFE7EBF2E06491EF01CD
:102D1000662359F0772767FD709588E49BE10E9450
:102D2000BB0D2196FE016491F3CF6AE070E088E468
:102D30009BE1DF91CF911F910F91FF90EF90DF907A
:102D4000CF90BF90AF900C94BB0DDF91CF911F91AE
:102D50000F91FF90EF90DF90CF90BF90AF900895CC
:102D60002F923F924F925F926F927F928F929F929B
:102D7000AF92BF92CF92DF92EF92FF920F931F9389
:102D8000CF93DF93CDB7DEB7CC55D1090FB6F8940A
:102D9000DEBF0FBECDBF4C018C0101551D4F662318
:102DA00039F0F8011082F401848181111DC015C031
:102DB000F8018081882309F4AFC0F401E955FD4F83
:102DC000C080D180E280F3800F948E23C616D70690
:102DD000E806F90608F4A0C0E4CFC40138D9F4012C
:102DE0008481882309F498C07401F5E5EF0EF11C85
:102DF000F70181818F9380818F938EEA92E09F9378
:102E00008F938E01015C1F4F1F930F930F94143605
:102E10000F900F900F900F900F900F90B12CF80122
:102E200001900020E9F73197E01BF10BBE1684F406
:102E30006801CB0CD11CB7FCDA94F601808199278C
:102E400087FD90950F944C35F6018083B394E7CFBE
:102E5000FBE58F0E911C40E050E0BA01C4010E94D6
:102E600004F8512CCE0101966C0137EA632E32E052
:102E7000732E5E0191E2A90EB11C40E050E0B60154
:102E8000C4010E9451F71816DCF5412CF60101909F
:102E90000020E9F73197EC19FD094E1674F416017C
:102EA000240C311C47FC3A94F101808190E00F948E
:102EB0004C35F10180834394E9CF8A858E37E9F25E
:102EC00045E050E0B801C6010F94C935892BA9F639
:102ED0001F930F937F926F92BF92AF920F9414360D
:102EE000C5010E94862A83EA92E00E94022B0F907D
:102EF0000F900F900F900F900F9055245394BDCFCB
:102F0000511004C08FEF9FEFF70104C0F7018081DB
:102F10009181019691838083C45ADF4F0FB6F89454
:102F2000DEBF0FBECDBFDF91CF911F910F91FF90FC
:102F3000EF90DF90CF90BF90AF909F908F907F9059
:102F40006F905F904F903F902F9008950F931F9335
:102F5000CF93DF93EC018C010A501E4FC8010E94F1
:102F60009DF8C8010E94E7F818821982DF91CF917D
:102F70001F910F910895EF92FF920F931F93CF939C
:102F8000DF93CDB7DEB76F970FB6F894DEBF0FBEF5
:102F9000CDBF8C017C0186E7E80EF11CC801885882
:102FA0009F4FF70191838083E65CFD4F22E030E084
:102FB00031832083329670E07183608340E050E07B
:102FC000BA0104960E9404F8F701808191812BE1F7
:102FD000FC013496DE01159601900D922A95E1F7D9
:102FE000FC01828193819C838B838FE99BE09A8390
:102FF0008983AE014F5F5F4F6FEB7AE0C8010E949B
:10300000620ECE0101960E94CC0D6F960FB6F89419
:10301000DEBF0FBECDBFDF91CF911F910F91FF900B
:10302000EF900895CF92DF92EF92FF920F931F934C
:10303000CF93DF93CDB7DEB76F970FB6F894DEBFAF
:103040000FBECDBF8C016C0126E7C20ED11C885883
:103050009F4FF60191838083E65CFD4F21E030E0D5
:10306000318320837801FEE4EF1AFDEFFF0AF701B8
:103070001182108240E050E0BA0104960E9404F8E8
:10308000F601808191812BE1FC013496DE011596D9
:1030900001900D922A95E1F7FC01828193819C8336
:1030A0008B838FE99BE09A838983AE014F5F5F4FEB
:1030B0006FEB7AE0C8010E94620ECE0101960E9479
:1030C000CC0DF701808191816F960FB6F894DEBF29
:1030D0000FBECDBFDF91CF911F910F91FF90EF9069
:1030E000DF90CF900895EF92FF920F931F93CF93AD
:1030F000DF93EC011092B80E8EE992E00E94022B51
:103100000F944F0A8E010F5E1D4FF80180819E01C2
:103110002A503E4F7901882399F1C9010E94E7F8AE
:10312000F801808181508083BE01FDE88F9F600D92
:10313000711D11246A5E7D4F21E041E0CE01EFD880
:10314000F8018081FE0124E0829FE00DF11D112431
:10315000EE5EFD4F4081518162817381FE01E55534
:10316000FD4F4083518362837383C7010E9404F83B
:10317000CE01DF91CF911F910F91FF90EF9048C842
:103180000F94DF0AC7010E94E7F81A8221E030E0BD
:1031900045E050E06AE070E08EEA91E10E9482250D
:1031A0008BE992E00E94022B0F944F0A86E992E08D
:1031B0000E94022B0F944F0A10927D1A10927C1AD3
:1031C00010927F1A10927E1A10927B1A10927A1A1D
:1031D0008AE892E00E94022B809109178823F9F077
:1031E00010920917C0916E0ED0E0CC0FDD1FC458AD
:1031F000D54E68817981882777FD8095982F0F9427
:10320000062D20917102309172024091730250910B
:1032100074020F94672E181614F419821882DF9125
:10322000CF911F910F91FF90EF900895EF92FF9231
:103230000F931F93CF93DF931F92CDB7DEB78C010F
:103240007B01460FF70161917F01F8018081918137
:1032500049830F943838F8018081918101969183D8
:10326000808349814E11EECF0F90DF91CF911F9156
:103270000F91FF90EF900895EF92FF920F931F939D
:10328000CF93DF931F92CDB7DEB78C017B01460F42
:10329000F8018081918149830F943038F70181933F
:1032A0007F01F8018081918101969183808349811A
:1032B0004E11EECF0F90DF91CF911F910F91FF90A4
:1032C000EF9008950F931F93CF93DF93CDB7DEB7A1
:1032D00068970FB6F894DEBF0FBECDBF80E390E3D2
:1032E000A0E3B0E08D839E83AF83B88704E610E04F
:1032F000188F0F8B44E0BE016B5F7F4FCE01479666
:1033000095DF40E16AE677E1CE0147968FDF40E145
:103310006AE777E1CE01479689DF40E16AE577E128
:10332000CE01479683DF44E062E577E1CE01479620
:103330007DDF44E06EE477E1CE01479677DF44E03D
:1033400066E577E1CE01479671DF44E06EE377E111
:10335000CE0147966BDF44E06AE877E1CE014796FD
:1033600065DF44E06AE477E1CE0147965FDF44E041
:1033700066E477E1CE01479659DF44E062E477E105
:10338000CE01479653DF4CE066E87EE0CE014796DB
:103390004DDF87ED90E09E8B8D8B8DE290E09C8BD6
:1033A0008B8B1A8A198A80EF90E0988B8F8786E43E
:1033B00090E09E878D871C861B8642E0BE016B5E77
:1033C0007F4FCE01479632DF42E0BE016D5E7F4FF8
:1033D000CE0147962BDF42E0BE016F5E7F4FCE01EC
:1033E000479624DF42E0BE01615F7F4FCE014796E2
:1033F0001DDF42E0BE01635F7F4FCE01479616DFBF
:1034000042E0BE01655F7F4FCE0147960FDF44E08B
:1034100063E77EE0CE01479609DF44E06EE172E0AB
:10342000CE01479603DF44E066E272E0CE014796A4
:10343000FDDE44E06EE272E0CE014796F7DE42E048
:1034400064ED7EE0CE014796F1DE42E068ED7EE07D
:10345000CE014796EBDE42E066ED7EE0CE01479678
:10346000E5DE42E062ED7EE0CE014796DFDE42E03F
:1034700064EC7EE0CE014796D9DE42E068EC7EE067
:10348000CE014796D3DE42E066EC7EE0CE01479661
:10349000CDDE42E062EC7EE0CE014796C7DE42E040
:1034A0006CEC7EE0CE014796C1DE42E060ED7EE04E
:1034B000CE014796BBDE42E06EEC7EE0CE01479641
:1034C000B5DE42E06AEC7EE0CE014796AFDE42E038
:1034D0006CEB7EE0CE014796A9DE42E060EC7EE038
:1034E000CE014796A3DE42E06EEB7EE0CE0147962A
:1034F0009DDE42E06AEB7EE0CE01479697DE44E037
:1035000060ED72E0CE01479691DE44E068EC72E037
:10351000CE0147968BDE44E060EC72E0CE01479628
:1035200085DE44E064ED72E0CE0147967FDE44E044
:103530006CEC72E0CE01479679DE44E064EC72E018
:10354000CE01479673DE80E290E09A87898742E059
:10355000BE01675F7F4FCE01479668DE86E591E347
:10356000A1E3B0E089839A83AB83BC83188F0F8B70
:1035700044E0BE016F5F7F4FCE01479657DEE8E61D
:10358000F7E064918F01662361F0772767FD7095FE
:1035900088E49BE10E94BB0D0F5F1F4FF80164910F
:1035A000F2CFE8E5F7E064918F01662361F07727B9
:1035B00067FD709588E49BE10E94BB0D0F5F1F4F74
:1035C000F8016491F2CF6AE070E088E49BE10E9428
:1035D000BB0D68960FB6F894DEBF0FBECDBFDF916E
:1035E000CF911F910F9108950F931F93CF93DF9366
:1035F000C8E6D7E0FE0164918E01662361F077276B
:1036000067FD709588E49BE10E94BB0D0F5F1F4F23
:10361000F8016491F2CFE8E4F7E064918F0166234A
:1036200061F0772767FD709588E49BE10E94BB0DF0
:103630000F5F1F4FF8016491F2CF6AE070E088E4F9
:103640009BE10E94BB0DFE01649108E617E0662332
:1036500061F0772767FD709588E49BE10E94BB0DC0
:103660000F5F1F4FF8016491F2CF40916A1750919C
:103670006B1760916C1770916D1780E497E00E9452
:103680001A2A40916E1750916F17609170177091C0
:1036900071178DE397E00E941A2A4091721750919A
:1036A000731760917417709175178AE397E00E9401
:1036B0001A2A409176175091771760917817709178
:1036C000791787E397E00E941A2A6FEB7AE088E483
:1036D0009BE10F9403296AE070E088E49BE10E947B
:1036E000BB0DFE01649108E617E0662361F07727C1
:1036F00067FD709588E49BE10E94BB0D0F5F1F4F33
:10370000F8016491F2CFEDE1F7E064918F01662357
:1037100061F0772767FD709588E49BE10E94BB0DFF
:103720000F5F1F4FF8016491F2CF6AE070E088E408
:103730009BE10E94BB0DFE01649108E617E0662341
:1037400061F0772767FD709588E49BE10E94BB0DCF
:103750000F5F1F4FF8016491F2CF40917A1750919B
:103760007B1760917C1770917D1784E197E00E9430
:103770001A2A40917E1750917F176091801770919F
:10378000811781E197E00E941A2A40918217509197
:10379000831760918417709185178EE097E00E94DF
:1037A0001A2A409186175091871760918817709157
:1037B00089178BE097E00E941A2A6FEB7AE088E481
:1037C0009BE10F9403296AE070E088E49BE10E948A
:1037D000BB0DFE01649108E617E0662361F07727D0
:1037E00067FD709588E49BE10E94BB0D0F5F1F4F42
:1037F000F8016491F2CFEDEEF6E064918F0166235B
:1038000061F0772767FD709588E49BE10E94BB0D0E
:103810000F5F1F4FF8016491F2CF6AE070E088E417
:103820009BE10E94BB0DFE01649108E617E0662350
:1038300061F0772767FD709588E49BE10E94BB0DDE
:103840000F5F1F4FF8016491F2CF40915A175091CA
:103850005B1760915C1770915D1784EE96E00E9493
:10386000622A40915E1750915F17609160177091C6
:10387000611781EE96E00E94622A40916217509192
:10388000631760916417709165178EED96E00E9442
:10389000622A40916617509167176091681770917E
:1038A00069178BED96E00E94622A6FEB7AE088E45C
:1038B0009BE10F9403296AE070E088E49BE10E9499
:1038C000BB0DFE01649108E617E0662361F07727DF
:1038D00067FD709588E49BE10E94BB0D0F5F1F4F51
:1038E000F8016491F2CFE6EAF6E064918F01662375
:1038F00061F0772767FD709588E49BE10E94BB0D1E
:103900000F5F1F4FF8016491F2CF6AE070E088E426
:103910009BE10E94BB0DFE01649108E617E066235F
:1039200061F0772767FD709588E49BE10E94BB0DED
:103930000F5F1F4FF8016491F2CF409152175091E1
:10394000531760915417709155178DE996E00E94B6
:103950001A2A40914E1750914F176091501770914D
:1039600051178AE996E00E941A2A6FEB7AE088E400
:103970009BE10F9403296AE070E088E49BE10E94D8
:10398000BB0DFE01649108E617E0662361F077271E
:1039900067FD709588E49BE10E94BB0D0F5F1F4F90
:1039A000F8016491F2CFE7EEF5E064918F016623B0
:1039B00061F0772767FD709588E49BE10E94BB0D5D
:1039C0000F5F1F4FF8016491F2CF6AE070E088E466
:1039D0009BE10E94BB0DFE01649108E617E066239F
:1039E00061F0772767FD709588E49BE10E94BB0D2D
:1039F0000F5F1F4FF8016491F2CF4091561750911D
:103A0000571760915817709159178EED95E00E94E5
:103A10001A2A40913E1750913F17609140177091BC
:103A200041178BED95E00E941A2A40918A17509118
:103A30008B1760918C1770918D1788ED95E00E941F
:103A4000622A40914A1750914B1760914C17709120
:103A50004D1785ED95E00E941A2A40914617509126
:103A60004717609148177091491782ED95E00E94C1
:103A70001A2A409142175091431760914417709150
:103A800045178FEC95E00E941A2A6FEB7AE088E4E4
:103A90009BE10F9403296AE070E088E49BE10E94B7
:103AA000BB0DFE01649108E617E0662361F07727FD
:103AB00067FD709588E49BE10E94BB0D0F5F1F4F6F
:103AC000F8016491F2CFEDEBF5E064918F0166238C
:103AD00061F0772767FD709588E49BE10E94BB0D3C
:103AE0000F5F1F4FF8016491F2CF6AE070E088E445
:103AF0009BE10E94BB0DFE01649108E617E066237E
:103B000061F0772767FD709588E49BE10E94BB0D0B
:103B10000F5F1F4FF8016491F2CF4091860E5091D4
:103B2000870E6091880E7091890E84EB95E00E945B
:103B30001A2A40918A0E50918B0E60918C0E7091D2
:103B40008D0E81EB95E00E941A2A40918E0E5091C5
:103B50008F0E6091900E7091910E8EEA95E00E940A
:103B60001A2A6FEB7AE088E49BE10F9403296AE05C
:103B700070E088E49BE10E94BB0DFE01649108E6C1
:103B800017E0662361F0772767FD709588E49BE175
:103B90000E94BB0D0F5F1F4FF8016491F2CFE0EA66
:103BA000F5E064918F01662361F0772767FD7095DA
:103BB00088E49BE10E94BB0D0F5F1F4FF8016491E9
:103BC000F2CF6AE070E088E49BE10E94BB0DFE0149
:103BD000649108E617E0662361F0772767FD70952A
:103BE00088E49BE10E94BB0D0F5F1F4FF8016491B9
:103BF000F2CF4091D0025091D1026091D2027091E7
:103C0000D30283E995E00E941A2A6091C80270915C
:103C1000C9028091CA029091CB020F94091CAB019A
:103C2000BC0180E995E00E941A2A6091C00270915F
:103C3000C1028091C2029091C3020F94151CAB0186
:103C4000BC018DE895E00E941A2A4091D40250915F
:103C5000D5026091D6027091D7028DE795E00E945F
:103C60001A2A6091CC027091CD028091CE0290917F
:103C7000CF020F94091CAB01BC018AE795E00E94BA
:103C80001A2A6091C4027091C5028091C602909177
:103C9000C7020F94151CAB01BC0187E795E00E9499
:103CA0001A2A6FEB7AE088E49BE10F9403296AE01B
:103CB00070E088E49BE10E94BB0DFE01649108E680
:103CC00017E0662361F0772767FD709588E49BE134
:103CD0000E94BB0D0F5F1F4FF8016491F2CFE9E620
:103CE000F5E064918F01662361F0772767FD709599
:103CF00088E49BE10E94BB0D0F5F1F4FF8016491A8
:103D0000F2CF6AE070E088E49BE10E94BB0DFE0107
:103D1000649108E617E0662361F0772767FD7095E8
:103D200088E49BE10E94BB0D0F5F1F4FF801649177
:103D3000F2CF40911E0250911F02609120027091BB
:103D4000210285E695E00E941A2A409126025091B0
:103D50002702609128027091290281E695E00E9475
:103D60001A2A40912E0250912F02609130027091D8
:103D700031028DE595E00E941A2A4091730E509110
:103D8000740E6091750E7091760E84E595E00E9438
:103D90001A2A6FEB7AE088E49BE10F9403296AE02A
:103DA00070E088E49BE10E94BB0DFE01649108E68F
:103DB00017E0662361F0772767FD709588E49BE143
:103DC0000E94BB0D0F5F1F4FF8016491F2CFE7E433
:103DD000F5E064918F01662361F0772767FD7095A8
:103DE00088E49BE10E94BB0D0F5F1F4FF8016491B7
:103DF000F2CF6AE070E088E49BE10E94BB0DFE0117
:103E0000649108E617E0662361F0772767FD7095F7
:103E100088E49BE10E94BB0D0F5F1F4FF801649186
:103E2000F2CF6091D80E7091D90E882777FD8095DA
:103E3000982F0F94062DAB01BC018CE395E00E94F6
:103E40001A2A6091D60E7091D70E882777FD80953B
:103E5000982F0F94062DAB01BC0181E395E00E94E1
:103E60001A2A6091D20E7091D30E882777FD809523
:103E7000982F0F94062DAB01BC0189E295E00E94BA
:103E80001A2A6091D40E7091D50E882777FD8095FF
:103E9000982F0F94062DAB01BC018FE195E00E9495
:103EA0001A2A6FEB7AE088E49BE10F9403296AE019
:103EB00070E088E49BE10E94BB0DFE01649108E67E
:103EC00017E0662361F0772767FD709588E49BE132
:103ED0000E94BB0D0F5F1F4FF8016491F2CFE2E12A
:103EE000F5E064918F01662361F0772767FD709597
:103EF00088E49BE10E94BB0D0F5F1F4FF8016491A6
:103F0000F2CF6AE070E088E49BE10E94BB0DFE0105
:103F1000C49108E617E0CC2369F06C2F772767FD82
:103F2000709588E49BE10E94BB0D0F5F1F4FF80165
:103F3000C491F1CF6091D00E7091D10E882777FD9A
:103F40008095982F0F94062DAB01BC0187E095E07A
:103F50000E941A2A6091CE0E7091CF0E882777FDAD
:103F60008095982F0F94062DAB01BC018CEF94E047
:103F70000E941A2A6091CA0E7091CB0E882777FD95
:103F80008095982F0F94062DAB01BC0184EF94E02F
:103F90000E941A2A6091CC0E7091CD0E882777FD71
:103FA0008095982F0F94062DAB01BC018AEE94E00A
:103FB0000E941A2A6FEB7AE088E49BE10F940329B0
:103FC0006AE070E088E49BE1DF91CF911F910F914F
:103FD0000C94BB0DAF92BF92CF92DF92EF92FF9203
:103FE0000F931F93CF93DF93CDB7DEB7E0970FB654
:103FF000F894DEBF0FBECDBF80E1E8EDF2E0DE0158
:10400000919601900D928A95E1F780E1E8EEF2E059
:10401000DE01519601900D928A95E1F780E1E8EF7B
:10402000F2E0DE01119601900D928A95E1F76E01A2
:1040300081E2C80ED11C8AE6E82E87E1F82E8E01B7
:104040000F5E1F4F6AE777E1AE014F5F5F4F9AE562
:10405000A92E97E1B92E20E030E0F60181919191EF
:10406000A191B1916F01F70181939193A193B193C4
:104070007F01F80181919191A191B1918F01FB0193
:1040800081939193A193B193BF01FA018191919191
:10409000A191B191AF01F50181939193A193B19356
:1040A0005F012F5F3F4F24303105B9F60E9433F294
:1040B00080E090E8ABEBB4E48093521790935317F1
:1040C000A0935417B093551780E090E0AAEFB4E4A2
:1040D00080934E1790934F17A0935017B09351179A
:1040E000109256171092571710925817109259178E
:1040F00080E29EE4A0E0B0E080938A1790938B1753
:10410000A0938C17B0938D1710923E1710923F1703
:10411000109240171092411780E090E0A0EAB0E4BE
:1041200080934A1790934B17A0934C17B0934D1759
:104130004DEC5CEC6CEC7EE34093461750934717D4
:1041400060934817709349178093421790934317D1
:10415000A0934417B093451710928E0E10928F0EB5
:104160001092900E1092910E10928A0E10928B0E59
:1041700010928C0E10928D0E1092860E1092870E59
:104180001092880E1092890E67ED70E07093D50E34
:104190006093D40E4CED50E05093D90E4093D80E5E
:1041A0002AEA30E03093D70E2093D60E81E490E0D7
:1041B0009093D30E8093D20E7093C50E6093C40E6D
:1041C0005093C90E4093C80E3093C70E2093C60E6D
:1041D0009093C30E8093C20E7093CD0E6093CC0E5D
:1041E0005093D10E4093D00E3093CF0E2093CE0E2D
:1041F0009093CB0E8093CA0E7093BD0E6093BC0E4D
:104200005093C10E4093C00E3093BF0E2093BE0E4C
:104210009093BB0E8093BA0E8AE999E9A9E3B0ECBA
:104220008093730E9093740EA093750EB093760ED8
:10423000E8E6F7E064918F01662361F0772767FD78
:10424000709588E49BE10E94BB0D0F5F1F4FF80142
:104250006491F2CFEEEAF4E064918F01662361F09D
:10426000772767FD709588E49BE10E94BB0D0F5F87
:104270001F4FF8016491F2CF6AE070E088E49BE19F
:10428000E0960FB6F894DEBF0FBECDBFDF91CF91A1
:104290001F910F91FF90EF90DF90CF90BF90AF9064
:1042A0000C94BB0DCF92DF92EF92FF92CF93DF93EE
:1042B00083E393EFA7E9B3E480931E0290931F0278
:1042C000A0932002B09321028AE999E9A9E1BEEB0B
:1042D0008093260290932702A0932802B09329028C
:1042E0008DEC9CECACECBDEB80932E0290932F02F6
:1042F000A0933002B09331022CE5C22E2FE8D22ECB
:1043000022E7E22E21E4F22EC092D002D092D10216
:10431000E092D202F092D30261EE7AE784E99FE361
:104320000F94031C6093C8027093C9028093CA0261
:104330009093CB026FE175E885E492E40F940F1C33
:104340006093C0027093C1028093C2029093C30233
:10435000C092D402D092D502E092D602F092D70257
:1043600061EE7AE784E99FE30F94031C6093CC022B
:104370007093CD028093CE029093CF026FE175E8E7
:1043800085E492E40F940F1C6093C4027093C502FD
:104390008093C6029093C70280E090E0A0E8BFE35C
:1043A0008093B8029093B902A093BA02B093BB0273
:1043B0008093BC029093BD02A093BE02B093BF0253
:1043C000E8E6F7E06491EF01662359F0772767FD8F
:1043D000709588E49BE10E94BB0D2196FE016491DB
:1043E000F3CFEEE7F4E06491EF01662359F077270D
:1043F00067FD709588E49BE10E94BB0D2196FE014C
:104400006491F3CF6AE070E088E49BE1DF91CF91A3
:10441000FF90EF90DF90CF900C94BB0D0F931F9304
:10442000CF93DF93CDB7DEB768970FB6F894DEBFB2
:104430000FBECDBF84E690E0988F8F8B86E591E329
:10444000A1E3B0E089839A83AB83BC8344E0BE01DF
:104450006B5F7F4FCE0147960E943C1943E050E0CE
:10446000BE016B5F7F4FCE0101960F94C935892B3A
:1044700009F071C140E16AE677E1CE0147960E94FA
:104480003C1940E16AE777E1CE0147960E943C196A
:1044900040E16AE577E1CE0147960E943C190E940F
:1044A00033F244E062E577E1CE0147960E943C1981
:1044B00044E06EE477E1CE0147960E943C1944E067
:1044C00066E577E1CE0147960E943C1944E06EE331
:1044D00077E1CE0147960E943C1944E06AE877E113
:1044E000CE0147960E943C1944E06AE477E1CE0190
:1044F00047960E943C1944E066E477E1CE01479676
:104500000E943C1944E062E477E1CE0147960E94A4
:104510003C194CE066E87EE0CE0147960E943C19CB
:1045200042E0BE016B5E7F4FCE0147960E943C1970
:1045300042E0BE016D5E7F4FCE0147960E943C195E
:1045400042E0BE016F5E7F4FCE0147960E943C194C
:1045500042E0BE01615F7F4FCE0147960E943C1949
:1045600042E0BE01635F7F4FCE0147960E943C1937
:1045700042E0BE01655F7F4FCE0147960E943C1925
:1045800044E063E77EE0CE0147960E943C1944E098
:104590006EE172E0CE0147960E943C1944E066E26B
:1045A00072E0CE0147960E943C1944E06EE272E050
:1045B000CE0147960E943C1942E064ED7EE0CE01B8
:1045C00047960E943C1942E068ED7EE0CE01479696
:1045D0000E943C1942E066ED7EE0CE0147960E94C3
:1045E0003C1942E062ED7EE0CE0147960E943C1904
:1045F00042E064EC7EE0CE0147960E943C1942E026
:1046000068EC7EE0CE0147960E943C1942E066ECE1
:104610007EE0CE0147960E943C1942E062EC7EE0CB
:10462000CE0147960E943C1942E06CEC7EE0CE0140
:1046300047960E943C1942E060ED7EE0CE0147962D
:104640000E943C1942E06EEC7EE0CE0147960E944B
:104650003C1942E06AEC7EE0CE0147960E943C198C
:1046600042E06CEB7EE0CE0147960E943C1942E0AE
:1046700060EC7EE0CE0147960E943C1942E06EEB72
:104680007EE0CE0147960E943C1942E06AEB7EE054
:10469000CE0147960E943C1944E060ED72E0CE01E5
:1046A00047960E943C1944E068EC72E0CE014796C0
:1046B0000E943C1944E060EC72E0CE0147960E94F3
:1046C0003C1944E064ED72E0CE0147960E943C192B
:1046D00044E06CEC72E0CE0147960E943C1944E045
:1046E00064EC72E0CE0147960E943C1942E0BE01A4
:1046F000675F7F4FCE0147960E943C190F94C90C0B
:10470000E8E6F7E064918F01662361F0772767FDA3
:10471000709588E49BE10E94BB0D0F5F1F4FF8016D
:104720006491F2CFE0EDF4E064918F01662361F0D3
:10473000772767FD709588E49BE10E94BB0D0F5FB2
:104740001F4FF8016491F2CF6AE070E088E49BE1CA
:104750000E94BB0D04C03EDCA5DD0E946219689674
:104760000FB6F894DEBF0FBECDBFDF91CF911F9182
:104770000F910895FC01EB58FF4F118210823D9775
:104780009C012D593F4F31832083329628EE33E030
:1047900031832083329611821082329611821082E8
:1047A000329610823196118210820895FB01838126
:1047B00090E0982F88272481820F911D0895FC0195
:1047C000E859FF4FA081B1818D599F4F8A179B07F0
:1047D00080F48FEF8C938081918101979183808306
:1047E00080912D0C90912E0C019790932E0C80931C
:1047F0002D0C08950F931F93CF93DF938C01EC0141
:10480000CD58DF4F88819981DC01ED91FC910480C6
:10481000F581E02D1995892B41F4F801E259FF4FFC
:104820008DEF9FEF918380830AC088819981DC019D
:10483000ED91FC910680F781E02D19959927DF9184
:10484000CF911F910F910895FC01E259FF4F118202
:104850001082D0CF0895CF93DF93EC01CE59DF4F74
:1048600028812223D1F09C01205A3F4FF901508129
:1048700046E0FC01459FE00DF11D1124DB01019094
:104880000D924A95E1F7F90180818F5F8F708083E7
:1048900088818150888381E001C080E0DF91CF91E1
:1048A0000895CF93DF93EC01CE59DF4F28812E304E
:1048B000D0F49C012F593F4FF901508146E0DC01B3
:1048C000459FA00DB11D1124FB0101900D924A9549
:1048D000E1F7F90180818F5F8F70808388818F5F1E
:1048E000888381E008C0FC01E259FF4F2BEF3FEFC6
:1048F0003183208380E0DF91CF910895FC01E85956
:10490000FF4F0190F081E02D6083635071096230A8
:10491000710520F4FC01E059FF4F108208952091A9
:104920002D0C30912E0C2F5F3F4F30932E0C209387
:104930002D0CFC01E859FF4F208131812F5F3F4F43
:104940003183208370E0DACFCF92DF92EF92FF9233
:104950001F93CF93DF93EC0177DF182F6E018EE664
:10496000C80ED11CD6012D913C912D3F3F4F81F4B3
:10497000FE01EE59FF4F8081882309F459C0C958C0
:10498000DF4FE881F981309709F452C0199550C082
:104990007E01E8E6EE0EF11CD701ED91FC918081DD
:1049A000813021F0A8F0823089F01BC0173091F0DF
:1049B000153121F0163009F045C037C0CE01FFDEB9
:1049C0008CEF9FEFF601918380833CC0153021F07E
:1049D0001730C1F564E003C0CE01F1DE63E0CE0123
:1049E0009EDFD701ED91FC9180818350823008F0E9
:1049F0002EC07E01F0E7EF0EF11CD7012C9122238F
:104A000021F180912C0C812780932C0CE22FF0E077
:104A1000EA5DF34F1083253091F481110BC066E2FB
:104A20007CE0CE013EDFF7011082CE01C8DE0AC075
:104A300080E009C088EF9FEFD6018D939C932F5F94
:104A4000F701208381E090E002C0812FDDCFDF916C
:104A5000CF911F91FF90EF90DF90CF900895AF928C
:104A6000BF92CF92DF92EF92FF920F931F93CF935B
:104A7000DF93EC010F948E236B017C018E010659AC
:104A80001F4FD8018D919C91AA2797FDA095BA2F11
:104A9000C80ED91EEA1EFB1E5E01B8E6AB0EB11CA5
:104AA0000F948E236C157D058E059F05D0F4CE01E5
:104AB0004BDF019779F40F948E236B017C01F80191
:104AC00080819181AA2797FDA095BA2FC80ED91E83
:104AD000EA1EFB1ED501ED91FC9180818111E0CF92
:104AE00006C0C259DF4F8FEF9FEF99838883DF9114
:104AF000CF911F910F91FF90EF90DF90CF90BF90DB
:104B0000AF900895BF92CF92DF92EF92FF920F93F2
:104B10001F93CF93DF938C01D62EC42E79019FDF94
:104B2000F801E259FF4F11821082E801CD58DF4FA2
:104B300088819981DC01ED91FC910190F081E02D5B
:104B400061E0199588819981DC01ED91FC910190DA
:104B5000F081E02D6D2D199588819981DC01ED9111
:104B6000FC910190F081E02D6C2D1995BB24B3943C
:104B7000BC24BD2488819981DC01ED91FC910190D8
:104B8000F081E02D6F2D1995BF2488819981FF2434
:104B9000DC01ED91FC910190F081E02D6E2D1995D5
:104BA00088819981DC01ED91FC916B2D6E2501903E
:104BB000F081E02D199561E0C801B1DEDF91CF9160
:104BC0001F910F91FF90EF90DF90CF90BF900895CD
:104BD000AF92BF92CF92DF92EF92FF920F931F930B
:104BE000CF93DF935C016B017A01EA010990002009
:104BF000E9F72197C41BD50BCF3FD10511F00CF07D
:104C000048C02DDF85010D581F4FD8018D919C9113
:104C1000DC01ED91FC910190F081E02D62E01995AD
:104C2000F80180819181DC01ED91FC910190F0818E
:104C3000E02D6C2D1995B2E0CB26F8018081918191
:104C4000DC01ED91FC910190F081E02D6C2F199524
:104C5000CC26DD26D7016C91F80180819181DC01A1
:104C6000ED91FC910190F081E02D662351F01995B2
:104C7000F70181917F01992787FD9095C826D92654
:104C8000E9CF6C2D199561E0C50149DE80E090E027
:104C900002C08FEF9FEFDF91CF911F910F91FF9097
:104CA000EF90DF90CF90BF90AF90089589589F4FBD
:104CB000FC01718360830895CF93DF93EC01FC01C5
:104CC000ED58FF4F7183608360E029DEFE01E05AFA
:104CD000FF4F108231961082CE59DF4F1882DF913C
:104CE000CF9108950F931F93CF93DF938C01CAE662
:104CF000D7E1F80161917191819191918F01299191
:104D00003991499159910F94392F0F94D32CF8016F
:104D10006487758786879787F7E1CA37DF0749F782
:104D2000DF91CF911F910F9108952F923F924F9253
:104D30005F926F927F928F929F92AF92BF92CF922B
:104D4000DF92EF92FF920F931F93CF93DF93CDB734
:104D5000DEB73C01CB01BA0118012901F3016083E0
:104D60007183828393830483158326833783C0866C
:104D7000D186E286F38684869586A686B78611E07C
:104D800020E030E0A9010F94642C811101C010E0F3
:104D900020E030E0A901C201B1010F94642C882306
:104DA00011F092E001C090E0192B20E030E0A90161
:104DB000C701B6010F94642C882311F094E001C060
:104DC00090E0192B20E030E0A901C501B4010F9457
:104DD000642C882311F088E001C080E0182BF301D7
:104DE00011A3C301DF91CF911F910F91FF90EF901D
:104DF000DF90CF90BF90AF909F908F907F906F90FB
:104E00005F904F903F902F906DCF8F929F92AF9277
:104E1000BF92CF92DF92EF92FF920F931F93CF93A7
:104E2000DF93CDB7DEB7FC0110A27FDFDF91CF911A
:104E30001F910F91FF90EF90DF90CF90BF90AF90B8
:104E40009F908F9008958F929F92AF92BF92CF9232
:104E5000DF92EF92FF920F931F93812C912C5401BC
:104E6000750164010AE919E929E13EE3B501A401EC
:104E70008FE29CE0CADF1F910F91FF90EF90DF90CF
:104E8000CF90BF90AF909F908F900895FC01659157
:104E900075918591949108954F925F926F927F9250
:104EA0008F929F92AF92BF92CF92DF92EF92FF923A
:104EB0000F931F93409015025090160260901702B6
:104EC00070901802812CE0E89E2EEBE3AE2EE6E413
:104ED000BE2E8092150290921602A0921702B092F6
:104EE00018026093A20E7093A30E8093A40E909369
:104EF000A50E2093A60E3093A70E4093A80E5093B4
:104F0000A90EE092AA0EF092AB0E0093AC0E109395
:104F1000AD0EEEE6FEE0FF93EF93812C912CF8E4CA
:104F2000AF2EF3E4BF2EAEEACA2EAEE0DA2E0E9418
:104F3000B5E60F944F0A4092150250921602609205
:104F40001702709218020F900F901F910F91FF900F
:104F5000EF90DF90CF90BF90AF909F908F907F9019
:104F60006F905F904F900895809115029091160276
:104F7000A0911702B09118028093420E9093430EB5
:104F8000A093440EB093450E80914C0290914D0237
:104F90009093B30E8093B20E84E690E090934D020E
:104FA00080934C020F948E236093A10C7093A20CFB
:104FB0008093A30C9093A40C81E00D94B20280E046
:104FC0000F94B2028091420E9091430EA091440E34
:104FD000B091450E8093150290931602A09317028C
:104FE000B09318028091B20E9091B30E90934D023F
:104FF00080934C020F948E236093A10C7093A20CAB
:105000008093A30C9093A40C08952F923F924F92FB
:105010005F926F927F928F929F92AF92BF92CF9248
:10502000DF92EF92FF920F931F93CF93DF9389E765
:1050300092E00F94691FE6E5F2E060817181828160
:1050400093816093150270931602809317029093D8
:10505000180220E030E040E752E40F946B2C4B0143
:105060005C01C6EADEE0288139814A815B81E2EA9F
:10507000FEE06081718182819381BEE62B2EBEE0CD
:105080003B2E3F922F921EEAC12E1EE0D12EE12C24
:10509000F12C00E211EC0E94B5E60F944F0A82E079
:1050A0000F94B70A4B015C01288139814A815B81E9
:1050B000E2EAFEE060817181828193818501740161
:1050C0000E942CF184E79EE0E1DE20E030E040E049
:1050D0005FE30F94392F9B01AC01C501B4010F941C
:1050E0008B2B2B013C0120E030E040EC5FE3609132
:1050F00015027091160280911702909118020F9478
:10510000392F20E030E040E752E40F946B2C4B0144
:105110005C01288139814A815B81E2EAFEE060819D
:105120007181828193813F922F92830172010E944B
:10513000B5E60F944F0A20E030E040E85EE3E6E594
:10514000F2E060817181828193810F94392F4B014C
:105150005C0160931502709316028093170290937E
:10516000180284E79EE092DE6B017C0120E030E0D3
:1051700040EC5FE3C501B4010F94392F20E030E02B
:1051800040E752E40F946B2C4B015C01A7019601A0
:10519000C701B6010F948B2B9B01AC01C301B20177
:1051A0000F948A2B7B018C01288139814A815B8194
:1051B000E2EAFEE060817181828193813F922F92C9
:1051C000FEEACF2EFEE0DF2E0E94B5E60F944F0AD6
:1051D00082E00F94B70A7B018C016093AA0E709352
:1051E000AB0E8093AC0E9093AD0E288139814A812D
:1051F0005B81E2EAFEE060817181828193810E949D
:105200002CF10F900F900F900F900F900F90DF9157
:10521000CF911F910F91FF90EF90DF90CF90BF90B3
:10522000AF909F908F907F906F905F904F903F9046
:105230002F90089584E89EE029DE2091860E30911B
:10524000870E4091880E5091890E0D948B2B4F92B2
:105250005F926F927F928F929F92AF92BF92CF9206
:10526000DF92EF92FF920F931F93CF93DF9300D0C3
:105270001F92CDB7DEB72B013C0149015A012091A5
:10528000A60E3091A70E4091A80E5091A90E6091E4
:10529000A20E7091A30E8091A40E9091A50EFCDD3C
:1052A00080916E0EC090AA0ED090AB0EE090AC0E26
:1052B000F090AD0E20E030E040EC51E4811111C0DF
:1052C000C501B4010F948A2B69837A838B839C83F5
:1052D00020E030E048E851E4C301B2010F948A2B8A
:1052E00010C0C501B4010F948A2B69837A838B8324
:1052F0009C8320E030E048E551E4C301B2010F9403
:105300008B2B8701760129813A814B815C81C4DD39
:105310007CDEC090AA0ED090AB0EE090AC0EF09068
:10532000AD0EEAEAF7E064918F01662361F077271A
:1053300067FD709588E49BE10E94BB0D0F5F1F4FD6
:10534000F8016491F2CFE5EAF7E064918F016623FA
:1053500061F0772767FD709588E49BE10E94BB0DA3
:105360000F5F1F4FF8016491F2CF22E030E0B301EC
:10537000A20188E49BE10F94E52AE0EAF7E064915A
:105380008F01662361F0772767FD709588E49BE1C4
:105390000E94BB0D0F5F1F4FF8016491F2CF22E016
:1053A00030E0B501A40188E49BE10F94E52AEBE924
:1053B000F7E064918F01662361F0772767FD7095B0
:1053C00088E49BE10E94BB0D0F5F1F4FF8016491C1
:1053D000F2CF22E030E0B701A60188E49BE10F9410
:1053E000E52AE9E9F7E064918F01662361F0772708
:1053F00067FD709588E49BE10E94BB0D0F5F1F4F16
:10540000F8016491F2CFC701B6010F900F900F9091
:105410000F90DF91CF911F910F91FF90EF90DF9050
:10542000CF90BF90AF909F908F907F906F905F9044
:105430004F900895CF92DF92EF92FF92CF93DF9338
:10544000EC016A017B01FE016491662349F0772734
:1054500067FD709588E49BE10E94BB0D2196F3CF18
:1054600022E030E0B701A60188E49BE1DF91CF9113
:10547000FF90EF90DF90CF900D94E52ACF92DF92CE
:10548000EF92FF92CF93DF93EC016A017B01FE0163
:105490006491662349F0772767FD709588E49BE166
:1054A0000E94BB0D2196F3CF22E030E0B701A601A8
:1054B00088E49BE1DF91CF91FF90EF90DF90CF9058
:1054C0000D94E52ACF92DF92EF92FF92CF93DF9374
:1054D000EC016A017B01FE016491662349F07727A4
:1054E00067FD709588E49BE10E94BB0D2196F3CF88
:1054F0002AE030E0B701A60188E49BE1DF91CF917B
:10550000FF90EF90DF90CF900D94E829CF93DF9339
:105510002091AB0C3091AC0C243031050CF06FC0F5
:105520004091AD0C5091AE0C60E6649F9001659F78
:10553000300D1124BC01C9018B54934F0F94C23517
:10554000E8EAFEE06491EF01662359F0772767FDF2
:10555000709588E49BE10E94BB0D2196FE01649149
:10556000F3CFEBE7FDE06491EF01662359F0772775
:1055700067FD709588E49BE10E94BB0D2196FE01BA
:105580006491F3CF8091AD0C9091AE0C20E6289FF2
:10559000B001299F700D11246B54734F88E49BE177
:1055A0000F940329E9E7FDE06491EF01662359F0C8
:1055B000772767FD709588E49BE10E94BB0D2196DB
:1055C000FE016491F3CF6AE070E088E49BE10E9401
:1055D000BB0D8091AD0C9091AE0C019664E070E033
:1055E0000F9426309093AE0C8093AD0C8091AB0C51
:1055F0009091AC0C01969093AC0C8093AB0CDF9126
:10560000CF910895CF93DF932091AB0C3091AC0CE8
:10561000243031050CF06FC04091AD0C5091AE0CB0
:1056200060E6649F9001659F300D1124BC01C901A3
:105630008B54934F0F945435E8EAFEE06491EF01E8
:10564000662359F0772767FD709588E49BE10E94F7
:10565000BB0D2196FE016491F3CFEEE6FDE064916F
:10566000EF01662359F0772767FD709588E49BE189
:105670000E94BB0D2196FE016491F3CF8091AD0C89
:105680009091AE0C20E6289FB001299F700D112447
:105690006B54734F88E49BE10F940329ECE6FDE023
:1056A0006491EF01662359F0772767FD709588E4D0
:1056B0009BE10E94BB0D2196FE016491F3CF6AE04D
:1056C00070E088E49BE10E94BB0D8091AD0C90914D
:1056D000AE0C019664E070E00F9426309093AE0C0F
:1056E0008093AD0C8091AB0C9091AC0C0196909393
:1056F000AC0C8093AB0CDF91CF910895CF93DF93E7
:1057000026E040E950ED63E070E088E49BE10F940F
:105710000027E3E6FDE06491EF01662359F0772767
:1057200067FD709588E49BE10E94BB0D2196FE0108
:105730006491F3CF6AE070E088E49BE10E94BB0DC6
:10574000E8EAFEE06491EF01662359F0772767FDF0
:10575000709588E49BE10E94BB0D2196FE01649147
:10576000F3CFEDE5FDE06491EF01662359F0772773
:1057700067FD709588E49BE10E94BB0D2196FE01B8
:105780006491F3CF6AE070E088E49BE10E94BB0D76
:1057900062E573E088E49BE10F941D2926E040E474
:1057A0005DE063E070E085EE9BE10F94002765EE1D
:1057B0007BE18EEA91E180DA65E97DE48EEA91E1B0
:1057C00075DA61E089E00F945C2560E089E00F9470
:1057D000952564E670E080E090E00F94BD2361E0E1
:1057E00089E00F94952564E971E180E090E00F94E1
:1057F000BD234EE553E063E070E08EEA91E1E8D925
:1058000064EC79E080E090E00F94BD2320E030E08C
:1058100045E050E06AE070E08EEA91E173D90E94C1
:105820000E220F94FA0F0E94EFE40F94AF0961E08B
:105830008CE00F945C2561E08BE00F945C2561E0C7
:105840008DE00F945C2561E08CE00F94952561E07C
:105850008BE00F94952561E08DE00F94952561E034
:105860008AE00F945C2560E08AE00F94952561E062
:1058700070E080E090E00F94BD2361E08AE0DF916A
:10588000CF910D9495257F928F929F92AF92BF9268
:10589000CF92DF92EF92FF920F931F93CF93DF93FC
:1058A000CDB7DEB7DA950FB6F894DEBF0FBECDBF29
:1058B00080918A0C81110DC00F948E2360935C0C33
:1058C00070935D0C80935E0C90935F0C81E08093ED
:1058D0008A0C8091820C81110DC00F948E236093ED
:1058E000580C7093590C80935A0C90935B0C81E088
:1058F0008093820C8091FA0E882309F4D8C00F940B
:105900008E2300915C0C10915D0C20915E0C309107
:105910005F0C601771078207930708F47EC26091DD
:10592000721A7091731A8091741A9091751A0F946B
:10593000D32CC62EB72E20E030E040E05FE360912C
:10594000681A7091691A80916A1A90916B1A0F9473
:105950008B2B0F94D32CA62E972E1F9230EBD32E89
:10596000DF9260916E1A70916F1A8091701A909107
:10597000711A0F94D32C7F936F9347E6E42E43E084
:10598000F42EFF92EF928E010F5F1F4F1F930F9324
:105990000F94E635A80160E070E08EEA91E118D935
:1059A0001F92DF92BF92CF92FF92EF921F930F93BD
:1059B0000F94E635A80162E270E08EEA91E108D921
:1059C0001F92DF929F92AF928FE693E09F938F9307
:1059D0001F930F930F94E635A80169E070E08EEAFB
:1059E00091E1F6D80FB6F894DEBF0FBECDBF80911F
:1059F000F110882319F180919B1190919C11A09135
:105A00009D11B0919E110097A105B105B9F0BC019F
:105A1000CD016D597F4F8F4F9F4F24E630E040E01E
:105A200050E00F9439306091A3117091A4118091CE
:105A3000A5119091A6110F94393001C020E01F925A
:105A40002F9327E7E22E23E0F22EFF92EF921F938F
:105A50000F930F94E635A80165E270E08EEA91E1BC
:105A6000B7D880914D028F9380914C028F93FF9213
:105A7000EF921F930F930F94E635A80164E270E054
:105A80008EEA91E1A5D80F948E2368577C4E8F4FF4
:105A90009F4F60935C0C70935D0C80935E0C9093B1
:105AA0005F0C0FB6F894DEBF0FBECDBFB6C18091BC
:105AB000F70E882309F4B1C10F948E2300915C0C7A
:105AC00010915D0C20915E0C30915F0C6017710796
:105AD0008207930708F4A1C160916E1A70916F1A42
