:100000000C94D9170C940A180C940A180C940A181A
:100010000C940A180C940A180C940A180C940A18D8
:100020000C940A180C940A180C940A180C940A18C8
:100030000C940A180C940A180C940A180D94DA16E9
:100040000C940A180C940A180C940A180C940A18A8
:100050000C940A180C940A180C9473C90C9451C788
:100060000C940A180C94CBC40C9420C50C940A1858
:100070000C940A180C940A180C940A180C940A1878
:100080000D948B1E0C940A180C940A180C940A18E0
:100090000C940A180C940A180C940A180C940A1858
:1000A0000C940A180C940A180C940A180C940A1848
:1000B0000C940A180C940A180C940A180C940A1838
:1000C0000C940A180C940A180C940A180C9496C4F0
:1000D0000C947DC30C940A180C940A180C940A18FA
:1000E0000C940A18735B6A5E7330372E18595629C0
:1000F000D45C6C296A5E6A5E6A5EAB2948296A5ED6
:10010000B826AD266A5EAA3A6A5E6A5E6A5EDF5CFF
:1001100067417D419341A9414142BF41FD5C594145
:100120001F447A5BF73AE83AD541E9416A5E6129B2
:100130002E274829172EE23C2F2E915CE24F272EC6
:100140001F2EB25C0F5B6A5E65308A5C6A5E893D19
:100150007429D926C3266A5E6A5E852A133B6A5EC5
:100160005F5C335C46496A32F028574DF737063BEF
:100170006E326A5ED05B895B31301B311B31F730E8
:1001800072328E33232CC429DD29B730D930A22610
:10019000CE266A5E6A5E4829AB30972CB92C0A2AB3
:1001A000873C673C6A5EE3578E58FC5A6A5EFD5C8A
:1001B000FD5C5C5A305A045AD85954598059AC598C
:1001C000455B6158A3442D4419452A4783460D4693
:1001D0006A5E6A5E1859DC2CF52CAB300658F45C6C
:1001E0006A5E6A5E505CFF41364C22486A5E0D27AB
:1001F000125615422B426A5E8542FB5DBC3BB43B06
:100200001C5E395E2136435E4D5E575E48369A3637
:100210008536B02F9A2FC43B402EBD2E412F6E2F16
:100220005C54C12FA64870363A486A5E6A5E6A5EC0
:100230006A5E6A5E6A5E6A5E6A5E615E102A182A9B
:100240003E2A325E2B5E504864484649364C424C4A
:10025000474D6A5E5550B950E84F3C505E4E085EBF
:100260006A5E7B4E6A5E9152A439A23AD5527A48B0
:100270006A5E6351AD51F95145525B5190486A5ED7
:1002800019531B548F55B4566A5E4555F946F946C5
:10029000A0557834BA2BCE4F674E874E594F614FD9
:1002A0004829D64F6A5E6A5E6A5E6A5E6A5E6A5E08
:1002B000743A6A5E6A5E09593C5B6A5E6A5E6A5EAF
:1002C0006A5E6A5E6A5E6A5E6A5E7A57CD576A5E89
:1002D0006A5E6A5E6A5E6A5E6A5E6A5E6A5E6A5EDE
:1002E0006A5E6A5E6A5E6A5E6A5E6A5E6A5E6A5ECE
:1002F0006A5E6A5E6A5E6A5E6A5E6A5E6A5E6A5EBE
:100300006A5E6A5E6A5E6A5E6A5E6A5E6A5E6A5EAD
:100310006A5E6A5E6A5E6A5E6A5E6A5E6A5E6A5E9D
:100320006A5E6A5E6A5E6A5E6A5E6A5E6A5E6A5E8D
:100330006A5E6A5E6A5E6A5E6A5E6A5E1B41DD4094
:10034000E143A3436A5E08476A5E6A5E063BEA2BA6
:1003500093435942063B59426A5E6F426F42C22B39
:100360006D5C665C7C5C835CDC58E158E658EB585D
:10037000495C3A5CF558FA58FF580459F058D75878
:10038000E74B064C372ED42ACA2B6A5E675B47546C
:100390008829562C6A5E6A5E5A5819516A5E6A5EEE
:1003A0006A5EAD566A5E06586A5E6A5E6A5ED13003
:1003B0002B2C5454203062356A5EED506A5EA6568E
:1003C0006A5E6A5E6A5E6A5E6A5E5830C14BD44B92
:1003D000675B455B30370C38D950343C1038DC2A29
:1003E000E23C3837374F9C39D438B25504566A5EF0
:1003F000133BD9509649FD5CCC3BF22BE150FD5CA0
:1004000036C439C428C42CC432C470C43DC441C4E9
:1004100047C44BC44FC455C459C45DC470C463C4FD
:1004200067C46BC46DC672C677C681C68BC604C767
:1004300095C69DC6A5C6AFC6B9C6C3C6D2C6DCC6DC
:1004400004C7E6C6F0C6FAC6FDC90ACA26CA33CA38
:100450004DCA5ACA74CA76CA78CA7ACA82CA6B02A4
:100460007F0293028D026F028D02690283028B026A
:1004700089029502750267029102730271028F026E
:100480007902084AD73B3BCE016E84BCBFFDC12F29
:100490003D6C74319ABD56833DDA3D00C77F11BE75
:1004A000D9E4BB4C3E916BAAAABE000000803F0578
:1004B000A84CCDB2D44EB93836A9020C50B99186A9
:1004C00088083CA6AAAA2ABE000000803F000D941E
:1004D0005E310D944B300D94522F0D940E600D949F
:1004E000F02F0D948E2F0D94AE2F0D9440310D945E
:1004F000DD1A0D947C310D94EA120D941DB80D9403
:10050000CC2F0D940F600D9463300D94C7CA0D94D9
:100510009AAD0D94E6310D94702F0D948C300D949E
:100520002D300D94B7310D94B1300D9422314E41E0
:100530004E494E495459494E46CDCCCC3D0AD7235D
:100540003C17B7D13877CC2B329595E6241FB14FA5
:100550000A000020410000C84200401C4620BCBEEA
:100560004CCA1B0E5AAEC59D746364696E6F70737E
:100570007578585B003B4C415945523A2564003B25
:10058000202020757365526166742C2564004D36F9
:100590003035205325640043616C63756C75733A84
:1005A00020200043616C63756C75733A2020004312
:1005B000616C63756C75733A2020005B4D38343282
:1005C0005D7B226661696C726561736F6E223A2091
:1005D000347D005B4D3834325D7B226661696C721C
:1005E0006561736F6E223A20337D005B4D38343283
:1005F0005D7B226661696C726561736F6E223A2061
:10060000327D005B4D3834325D7B226661696C72ED
:100610006561736F6E223A20317D005B4D38343254
:100620005D7B226661696C726561736F6E223A2030
:10063000307D005B4D3834325D7B227067223A207A
:10064000227570227D005B4D3834325D7B227067ED
:10065000223A2022646F776E227D005B4D3834325F
:100660005D7B2273756363657373223A2066616CE8
:1006700073657D005B4D3834325D7B227374617429
:100680007573223A2022646F6E65227D005B4D38BF
:1006900034325D7B2273756363657373223A207411
:1006A0007275657D0053757266696E6720300A0049
:1006B000417420426F74746F6D20537469636B656D
:1006C0007200253033642E25303364253033642E98
:1006D0002530346400417420426F74746F6D205370
:1006E0007469636B657200253033642E2530336482
:1006F000253033642E253034640025737C4D25303D
:1007000032642E253032640053757266696E67203C
:10071000300A004732382058302059300054300019
:1007200054310054300054300053757266696E675E
:1007300020300A004734330047343100473430005A
:1007400047333400473433004734330047343100F3
:10075000473430004D3834004D3834004D383400C3
:100760005A32204F66667365743A20004F4B2073EF
:1007700065636F6E64204578747275646572210AD2
:10078000005A20706F736974696F6E3A20005A20A6
:10079000706F736974696F6E3A20004D3834005A77
:1007A000312050726F6265206F66667365743A20FF
:1007B000004F4B20666972737420457874727564BB
:1007C000657221200A005A20706F736974696F6E18
:1007D0003A20005A20706F736974696F6E3A200076
:1007E00043616C63756C75733A20200043616C63E0
:1007F000756C75733A20200043616C63756C75737A
:100800003A20200043616C63756C75733A202000B8
:1008100036302064656772656573200A00543000C5
:1008200054300054300043616C6962726174696FC6
:100830006E205375636365737366756C0A0054307C
:10084000004A756D70206F766572207363726577EC
:100850003120616E6420736372657732200A004A2A
:10086000756D70206F7665722073637265773120C5
:100870000A004733340047333400473334005430E0
:10088000004733340053757266696E6720300A0082
:1008900053757266696E6720300A00537572666917
:1008A0006E6720300A0053757266696E6720300AE1
:1008B0000053757266696E6720300A005430005329
:1008C000757266696E6720300A004D3334005375C7
:1008D0007266696E6720300A004D3234004D323343
:1008E000202573004D3234004D32332025730077BC
:1008F000696C6C20626520646973746F72746564DE
:100900002062792025642E253164253164206D6DA7
:100910002E00546865206669727374206C61796575
:1009200072207072696E74656420776974682074CF
:10093000686520257320686F74656E640053757256
:1009400066696E6720300A0053757266696E6720AB
:10095000300A0053757266696E6720300A0052656E
:1009600061647920746F2053746172740A00256485
:10097000206B6D2E0067636F646520666F756E6413
:100980000A0020746F20537461727420446973707C
:100990006C61792066726F6D2052657365740054C6
:1009A0006F6F6B2000646973706C6179206F6E6C7F
:1009B000696E6521002E00473238205830205930AA
:1009C000004D33350047373000524553554D450AE9
:1009D000004D393930005374617274696E67205A62
:1009E0002043616C6962726174696F6E2057697A25
:1009F0006172640A000A00205A3A200020593A2005
:100A00000020583A200042656400456E6420666903
:100A10006C65206C6973740A00426567696E2066B4
:100A2000696C65206C6973740A002F005344207050
:100A300072696E74696E67206279746520004E6F0A
:100A400074205344207072696E74696E670A0025C1
:100A500069206D696E2C20256920736563006F6BBA
:100A6000004649524D574152455F4E414D453A4D22
:100A700061726C696E2042434E3344205369676D46
:100A800061783B204649524D574152455F56455289
:100A900053494F4E3A30322D322E302E3562657228
:100AA0003B204649524D574152455F55524C3A689A
:100AB000747470733A2F2F6769746875622E636F50
:100AC0006D2F42434E33442F42434E3344536967A4
:100AD0006D61782D4669726D776172653B20505269
:100AE0004F544F434F4C5F56455253494F4E3A3146
:100AF0002E303B204D414348494E455F54595045A7
:100B00003A42434E3344205369676D61783B204538
:100B1000585452554445525F434F554E543A323B18
:100B200020555549443A005354415449535449437C
:100B3000532052455345540A007D005B4D383431F3
:100B40005D7B226865645F30223A2000504F534934
:100B500054494F4E20484F4D453A2000220A005537
:100B60006E6B6E6F776E20636F6D6D616E643A2091
:100B700022002A2A2A2047656E696520446973632A
:100B80006F6E6E65637465642066726F6D20476575
:100B9000744E6578744279746521202A2A2A002AC5
:100BA0002A2A2047656E696520456E61626C652062
:100BB0004174746163684576656E7448616E646CF7
:100BC000657220212121202A2A2A00496E666F2081
:100BD0006E6F20656E636F6E74726164610046694A
:100BE0006E616C204A534F4E0020005B4D3834300C
:100BF0005D004E6F20657320656C20636F6D656EC0
:100C0000746172696F20636F72726563746F003B09
:100C10005072696E74496E666F2F00476F2061686D
:100C2000656164005333442066696C652C206578E7
:100C30006974004E6F206865616465727320666F29
:100C4000756E640046696C65206973206E6F742050
:100C50006F70656E0057656C636F6D6520746F20F3
:100C60006461746120616E616C797A6572003B2009
:100C700020204275696C642074696D653A20256492
:100C80002025732025642025730A003B5072696E6D
:100C9000742074696D653A202564202573202564CD
:100CA000202573202564202573003B54494D453A87
:100CB000256C64003B20472D436F64652067656E9B
:100CC0006572617465642062792053696D706C6926
:100CD000667933442852292056657273696F6E20F5
:100CE00025640043616E6E6F7420656E74657220BA
:100CF0007375626469723A200057726974696E672D
:100D000020746F2066696C653A20002E0A006F70AF
:100D1000656E206661696C65642C2046696C653A75
:100D200020002E0A006F70656E206661696C656434
:100D30002C2046696C653A200046696C6520736515
:100D40006C65637465640A002053697A653A200013
:100D500046696C65206F70656E65643A20002E0AE6
:100D6000006F70656E206661696C65642C20466951
:100D70006C653A20004E6F77206672657368206656
:100D8000696C653A20004E6F7720646F696E67204A
:100D900066696C653A20002220706F730022207013
:100DA0006172656E743A2200535542524F55544950
:100DB0004E452043414C4C207461726765743A2261
:100DC00000747279696E6720746F2063616C6C20A7
:100DD0007375622D67636F64652066696C65732047
:100DE0007769746820746F6F206D616E79206C650F
:100DF00076656C732E204D4158206C6576656C20AD
:100E000069733A005341564544205052494E540AA2
:100E1000007A70726F62653A2000534420636172F9
:100E200064206F6B0A006F70656E526F6F7420667E
:100E300061696C65640A00766F6C756D652E696E0C
:100E40006974206661696C65640A004572726F722C
:100E50003A00534420696E6974206661696C0A0027
:100E60004475706C69204D6F6465204F4E0A004DCB
:100E70006972726F72204D6F6465204F4E0A004395
:100E80006F6F6C696E6720446F776E204865617480
:100E900065720A00646973706C6179206F66666CB4
:100EA000696E65004E6F7620313420323031382043
:100EB00030393A34363A33330A0042434E33442011
:100EC0005369676D61780A0073746172740A006512
:100ED00063686F3A0030322D322E302E35626572E3
:100EE0000A004D3234004D32332025730061757491
:100EF0006F25692E67006572726F72207772697450
:100F0000696E6720746F2066696C650A00205A3A22
:100F10000020593A0020583A00656E6473746F706F
:100F200073206869743A20006563686F3A00446F03
:100F30006E6520736176696E672066696C652E0A3E
:100F4000006F6B0A004D32390050494420417574DE
:100F50006F74756E652066696E6973686564210AD1
:100F600000504944204175746F74756E6520666148
:100F7000696C6564212074696D656F75740A002061
:100F8000403A006F6B20543A006F6B20423A005099
:100F90004944204175746F74756E65206661696C93
:100FA0006564212054656D70657261747572652089
:100FB000746F6F20686967680A00204B643A2000EC
:100FC000204B693A2000204B703A200020436C618E
:100FD0007373696320504944200A002054753A20F5
:100FE00000204B753A2000206D61783A2000206D7A
:100FF000696E3A200020643A200020626961733AE9
:10100000200070012C0190012701B0012201C001D4
:101010001D01F00118011002130130020E016002DF
:10102000090190020401C002FF000003FA0040031E
:10103000F5008003F000D003EB002004E60070040C
:10104000E100E004DC004005D700C005D200400606
:10105000CD00D006C8008007C3003008BE00F008ED
:10106000B900C009B400B00AAF00B00BAA00D00CA0
:10107000A500000EA000500F9B00C010960050125B
:10108000910000148C00C0158700B0178200B019C1
:101090007D00D01B7800001E730040206E0090225F
:1010A0006900F024640040275F0090295A00E02B7B
:1010B0005500102E500020304B0010324600E03317
:1010C000410090353C001037370070383200A039AD
:1010D0002D00B03A2800A03B2300603C1E00103DCC
:1010E0001900903D1400103E0F00703E0A00C03EF3
:1010F0000500003F00004572726F72283833293AAC
:101100002042656420746865726D6973746F722023
:101110006E6F742064657465637465640A0045725B
:10112000726F72283832293A2052696768742074C5
:101130006865726D6973746F72206E6F7420646578
:101140007465637465640A004572726F7228383181
:10115000293A204C65667420746865726D697374F1
:101160006F72206E6F7420206465746563746564AB
:101170000A002053544F50205052494E54200A0028
:101180004572726F72283833293A204265642074A0
:101190006865726D6973746F72206E6F7420646518
:1011A0007465637465640A002053544F5020505294
:1011B000494E54200A004572726F72283832293A1B
:1011C00020526967687420746865726D6973746F02
:1011D00072206E6F742064657465637465640A00C0
:1011E0002053544F50205052494E54200A0045720B
:1011F000726F72283831293A204C65667420746801
:1012000065726D6973746F72206E6F7420206465EF
:101210007465637465640A002053544F5020505223
:10122000494E54200A004552524F52283839293A23
:1012300020424544206973206E6F74206865617494
:10124000696E67002053544F50205052494E54202D
:101250000A004552524F52283839293A20486F74B3
:10126000656E64202564206973206E6F7420686544
:101270006174696E67006563686F3A000000210061
:10128000240027002A002D00300033000101000057
:10129000040107010A0100002200250028002B009C
:1012A0002E003100340002010000050108010B018D
:1012B000000020002300260029002C002F0032000F
:1012C00000010000030106010901050505050705E8
:1012D00008080808020202020A0A080804040404B2
:1012E00001010101010101010303030303030303DE
:1012F000040707070C0C0C0C0C0C0C0C020202026D
:1013000006060606060606060B0B0B0B0B0B0B0B55
:101310000102102020080810204010204080020107
:1013200002010804020101020408102040808040EC
:1013300020100804020180040201804020100804EB
:101340000201080402010102040810204080010289
:1013500004081020408000000A0B02090C0D0E0842
:10136000070304010000000000000000000000006E
:10137000000000000000000000000000000000006D
:10138000000012111000000000000000000000002A
:101390000000000000000000000000000A00207AA9
:1013A0003A200020793A200020783A2000426564F3
:1013B0000045787472756465722072656C6561733E
:1013C0006564206163746976653A20005A20534948
:1013D000474D4120486F6D65640A00457874727509
:1013E000646572206163746976653A20004D383413
:1013F000005374617274696E6720582043616C6990
:1014000062726174696F6E2057697A6172640A0052
:101410004D3834005374617274696E6720592043EB
:10142000616C6962726174696F6E2057697A61726A
:10143000640A004578747275646572204865617449
:1014400065640A0020573A00204500205A002059C0
:1014500000483D5800205A3A0020593A0020436F76
:10146000756E7420583A200020453A00205A3A0000
:1014700020593A00583A007A5F6D696E3A20007937
:101480005F6D61783A2000785F6D61783A2000786E
:101490005F6D696E3A2000486F74656E64206F66F8
:1014A00066736574733A00504944204175746F74D3
:1014B000756E652066696E69736865642120507574
:1014C0007420746865206C617374204B702C204B01
:1014D0006920616E64204B6420636F6E7374616E6B
:1014E00074732066726F6D2061626F766520696E1D
:1014F000746F20436F6E66696775726174696F6E91
:101500002E680A00504944204175746F74756E65E9
:10151000206661696C6564212074696D656F7574FE
:101520000A0020403A006F6B20543A006F6B204253
:101530003A00504944204175746F74756E65206699
:1015400061696C6564212054656D706572617475A4
:10155000726520746F6F20686967680A00204B64A9
:101560003A2000204B693A2000204B703A2000209E
:10157000436C617373696320504944200A0020540E
:10158000753A2000204B753A2000206D61783A2092
:1015900000206D696E3A200020643A2000206269C4
:1015A00061733A20002C2073617665645F466C613C
:1015B000675F66616E6C617965725F6D6972726F8B
:1015C000723A20002C2073617665645F66656564FD
:1015D00072617465313A20002C2073617665645F16
:1015E0006665656472617465303A20002C20736111
:1015F0007665645F66616E6C617965723A20002C75
:101600002073617665645F74656D706265643A200D
:10161000002C2073617665645F74656D70303A20CC
:10162000002C2073617665645F74656D70313A20BB
:10163000002C2073617665645F66696C65706F73FA
:101640006974696F6E3A20002C2073617665645F5F
:10165000655F706F736974696F6E3A20002C207338
:10166000617665645F746F6F6C5F616374697665E2
:101670003A20002C2073617665645F7A5F706F7327
:101680006974696F6E3A20002C2073617665645F1F
:10169000795F706F736974696F6E3A20002C2073E4
:1016A000617665645F785F706F736974696F6E3AB5
:1016B000200053415645205052494E54204C4F472C
:1016C0003A0A006563686F3A005072696E7420725E
:1016D00065636F766572792075700A004E6F7420AD
:1016E0007072696E74207265636F766572792075A9
:1016F000700A00535543434553530A0056616C75B5
:101700006573206F7574206F662072616E67650A5D
:101710000056616C756573206F7574206F6620725A
:10172000616E67650A0056616C756573206F75742C
:10173000206F662072616E67650A0056616C756580
:1017400073206F7574206F662072616E67650A0082
:10175000535543434553530A0056616C75657320D6
:101760006F7574206F662072616E67650A0056613E
:101770006C756573206F7574206F662072616E677B
:10178000650A0056616C756573206F7574206F660D
:101790002072616E67650A0056616C756573206F13
:1017A0007574206F662072616E67650A0020502094
:1017B00000205A200020592000536574204D3533F5
:1017C00030205820004D6F64652033203A2050733C
:1017D00069636F2020202D3E205247423A205269F3
:1017E00073652646616C6C002A2A2D3E20004D6FE1
:1017F00064652032203A206379636C652020202DB7
:101800003E205247423A203620737461746573005B
:101810002A2A2D3E20004D6F64652031203A207227
:10182000616E646F6D20202D3E205247423A202B7E
:1018300031202B32202B332C20647572696E672087
:101840007072696E74696E67002A2A2D3E20004D01
:101850006F64652030203A2064656661756C742081
:101860002D3E205247423A20323535203235352040
:10187000323535002A2A2D3E20004C6564206D6FDC
:10188000646573203A004D353336204C5B6D6F64D0
:10189000655D00486F74656E64206F66667365747D
:1018A000733A0054696D6520696E61637469766589
:1018B0000A0050757267652064697374616E6365B0
:1018C0000A005A204F6666736574206F6B0A005ACF
:1018D000204F6666736574203A200A007A5F6D6156
:1018E000783A20007A5F6D696E3A20005A204F6680
:1018F0006673657400504F534954494F4E20484F0A
:101900004D453A20002E0A0044656C6574696F6E7F
:10191000206661696C65642C2046696C653A20001C
:1019200046696C652064656C657465643A002E0ACE
:10193000006F70656E206661696C65642C20466975
:101940006C653A2000473238205830205930000A60
:101950000A005374616E6461726420446576696143
:1019600074696F6E3A20000A004D65616E3A20007E
:101970000A002020207A3A20000A00793A200078D4
:101980003A20003F537065636966696564206E752F
:101990006D626572206F66206C65677320696E20CA
:1019A0006D6F76656D656E74206E6F7420706C61FE
:1019B000757361626C652E0A003F537065636966DA
:1019C000696564205920706F736974696F6E206F48
:1019D0007574206F662072616E67652E0A003F5332
:1019E0007065636966696564205820706F736974F7
:1019F000696F6E206F7574206F662072616E676507
:101A00002E0A003F537065636966696564207361DF
:101A10006D706C652073697A65206E6F7420706CD0
:101A200061757361626C652E0A0046756C6C20737B
:101A30007570706F72742061743A20687474703AB3
:101A40002F2F33647072696E74626F6172642E63DB
:101A50006F6D2F666F72756D2E7068700A004D3451
:101A600038205A2D50726F6265205265706561741E
:101A70006162696C69747920746573742E2020200A
:101A800056657273696F6E20322E30300A003F56F1
:101A90006572626F7365204C6576656C206E6F743D
:101AA00020706C61757361626C652E0A004265641A
:101AB000204865617465640A0020573A00496E73D6
:101AC00074616C6C202564202573206F6E2074680F
:101AD0006520257320686F74656E642E00507572E2
:101AE00067652046696C616D656E740A0053757296
:101AF00066696E6720310A0053757266696E6720E9
:101B0000300A004252494748544E4553533A200048
:101B1000220A00656E717565696E67202200220ACF
:101B200000656E717565696E67202200202F0020A8
:101B3000400020403A0024F4D43050C38E20C2A28A
:101B40004017828B7011127A910D816CD90AA861AD
:101B5000E108C7586607615143061E4B5D05C14544
:101B6000A7041A411104093D980371393103403625
:101B7000DB0265339102D4305402802E1D02632CA7
:101B8000EE01752AC501B028A001102781018F251B
:101B900064012B244B01E0223401AC211F018D2074
:101BA0000D01801FFC00841EED00971DDF00B81C96
:101BB000D200E61BC600201BBC00641AB200B2199A
:101BC000A8000A19A0006A189900D11791004017BF
:101BD0008B00B516840031167E00B31579003A15D6
:101BE0007300C7146F0058146A00EE136600881360
:101BF000630025135E00C7125B006C1257001512BC
:101C00005400C111510070114F0021114B00D6102A
:101C100049008D1047004610440002104200C00FDA
:101C20004000800F3E00420F3C00060F3B00CB0EF1
:101C30003800930E37005C0E3500270E3400F30D8C
:101C40003200C10D3100900D3000600D2E00320DBC
:101C50002D00050D2C00D90C2B00AE0C2900850C95
:101C600029005C0C2700350C27000E0C2600E80B21
:101C70002400C40B2400A00B23007D0B23005A0B6F
:101C80002100390B2100180B2000F80A1F00D90A87
:101C90001E00BB0A1E009D0A1D00800A1D00630A6B
:101CA0001C00470A1B002C0A1B00110A1A00F70926
:101CB0001A00DD091900C4091900AB0919009209BD
:101CC00017007B091800630917004C091600360934
:101CD0001600200916000A091500F5081500E0088D
:101CE0001400CC081400B8081400A40814009008CC
:101CF00013007D0812006B081300580812004608F4
:101D00001200340811002308110012081100010804
:101D10001100F0071000E0071000D0071000C00706
:101D20001000B0070F00A107100091070E008307F5
:101D30000F0074070F0065070E0057070E004907D4
:101D40000E003B070D002E070E0020070D001307A5
:101D50000D0006070D00F9060C00ED060D00E0066B
:101D60000C00D4060C00C8060C00BC060C00B00623
:101D70000C00A4060B0099060C008D060B008206D1
:101D80000B0077060B006C060B0061060A00570675
:101D90000B004C060A0042060A0038060A002E060E
:101DA0000A0024060A001A060A001006090007069F
:101DB0000A00FD050900F4050900EB050900E2052C
:101DC0000900D9050900D0050900C7050900BE05AD
:101DD0000900B5050800AD050800A50509009C052A
:101DE0000800940508008C050800840508007C059F
:101DF0000800740508006C050700650508005D050E
:101E00000700560508004E05070047050700400576
:101E1000080038050700310507002A0507002305DB
:101E200007001C050600160507000F05070008053A
:101E3000060002050700FB040600F5040700EE0497
:101E40000600E8040600E2040700DB040600D504EF
:101E50000600CF040600C9040600C3040600BD0442
:101E60000600B7040600B1040500AC040600A60491
:101E70000600A00405009B040600950405009004DC
:101E800006008A04050085040500800406007A0423
:101E9000050075040500700405006B040500660468
:101EA0000500610405005C040500570405005204A8
:101EB00005004D04050048040500430405003E04E8
:101EC00004003A04050035040500300404002C0425
:101ED000050027040400230405001E0404001A045E
:101EE000040016040500110404000D040400090494
:101EF00005000404040000040400FC030400F803CB
:101F00000400F4030400F0030400EC030400E803FD
:101F10000400E4030400E0030400DC030400D8032D
:101F20000400D4030400D0030400CC030400C8035D
:101F30000300C503030024F404D9201BC40C5C0E69
:101F40009804C4095F0265077101F405F900FB04F8
:101F5000B30048048700C103690058035500030318
:101F60004500BE023A008402310053022A002902D1
:101F7000250004022000E4011C00C8011900AF0183
:101F80001700980114008401130071011000610111
:101F9000100051010E0043010D0036010B002B0112
:101FA0000B0020010B00150109000C0109000301C1
:101FB0000800FB000800F3000800EB000700E40045
:101FC0000600DE000600D8000600D2000600CC00A5
:101FD0000500C7000500C2000500BD000400B900EF
:101FE0000400B5000400B1000400AD000400A90025
:101FF0000400A5000300A20003009F0004009B0052
:102000000300980003009500020093000300900075
:1020100003008D0002008B00030088000200860090
:10202000020084000300810002007F0002007D00A6
:1020300002007B00020079000200770001007600B8
:1020400002007400020072000100710002006F00C3
:1020500002006D0001006C0002006A0001006900CE
:1020600002006700010066000100650001006400D5
:1020700002006200010061000100600001005F00D9
:1020800002005D0001005C0001005B0001005A00DD
:1020900001005900010058000100570001005600DE
:1020A00001005500010054000100530000005300DE
:1020B00001005200010051000100500001004F00DA
:1020C00001004E0000004E0001004D0001004C00D8
:1020D00001004B0000004B0001004A0001004900D4
:1020E00001004800000048000100470001004600D0
:1020F00000004600010045000000450001004400CA
:1021000001004300000043000100420000004200C3
:1021100001004100000041000100400001003F00BB
:1021200000003F0001003E0000003E0001003D00B5
:1021300000003D0001003C0000003C0000003C00AD
:1021400001003B0000003B0001003A0000003A00A3
:10215000010039000000390001003800000038009B
:102160000000380001003700000037000100360091
:102170000000360000003600010035000000350088
:10218000000035000100340000003400000034007D
:102190000100330000003300000033000100320072
:1021A0000000320000003200010031000000310068
:1021B000000031000100300000003000000030005D
:1021C00001002F0000002F0000002F0000002F0052
:1021D00001002E0000002E0000002E0001002D0046
:1021E00000002D0000002D0000002D0001002C003B
:1021F00000002C0000002C0000002C0001002B002F
:1022000000002B0000002B0000002B0001002A0022
:1022100000002A0000002A0000002A000100290016
:10222000000029000000290000002900000029000A
:1022300001002800000028000000280000002800FD
:1022400000002800010027000000270000002700F0
:1022500000002700000027000100260000002600E3
:1022600000002600000026000000260001002500D6
:1022700000002500000025000000250000002500CA
:1022800000002500010024000000240000002400BC
:1022900000002400000024000100230000002300AF
:1022A00000002300000023000000230000002300A2
:1022B0000000230001002200000022000000220094
:1022C0000000220000002200000022000100210086
:1022D000000021000000210000002100000021007A
:1022E000000021000000210001002000000020006B
:1022F000000020000000200000002000000020005E
:10230000000020000000200001001F0000001F004E
:1023100000001F0000001F0000001F0000001F0041
:1023200000001F0001001E0000001E0000001E0033
:1023300000001E000000487973746572657369734C
:102340002074656D70657261747572650A005468F9
:1023500065726D616C2072756E6177617920707243
:102360006F74656374696F6E20627920486561746B
:1023700065725F49443A0A004572726F723A0053BF
:10238000757266696E672030200A005430004E6F07
:1023900074205344207072696E74696E670A004D30
:1023A000383420582059205A2045004D3834310007
:1023B000496E7374616C6C202564202573206F6EE8
:1023C0002074686520257320686F74656E642E0024
:1023D0000000000000809343000000000000A040C7
:1023E0000000A0400000004020004D6F7665207482
:1023F0006F3A2000CDAC0344008093430000524369
:10240000FF01FF20636F6C642065787472757369D7
:102410006F6E2070726576656E7465640A00656320
:10242000686F3A003B202020506C61737469632010
:102430007765696768743A2025642E256467003BD8
:1024400046696C616D656E7420757365643A20250C
:10245000642E25646D2025642E256467003B466943
:102460006C616D656E7420757365643A20256C64CB
:102470002E256C646D003B457874727564657273CB
:1024800020757365643A205425642025642E2564E4
:10249000205425642025642E2564003B20202065DF
:1024A000787472756465724469616D657465722CC7
:1024B00025642E25642C25642E2564002E2E2E20C6
:1024C00054696D656F757421002A2A2A2047656E4C
:1024D00069652057726974654F626A656374202A62
:1024E0002A2A202D2D2D3E002E2E2E204E414B200F
:1024F00021002A2A2A2047656E696520577269746F
:10250000654F626A656374202A2A2A202D2D2D3E8C
:10251000002E2E2E2041434B2021002A2A2A20471C
:10252000656E69652057726974654F626A65637488
:10253000202A2A2A202D2D2D3E002A2A2A204765CE
:102540006E6965204261642042797465202A2A2AD6
:10255000202D2D2D3E203078002056616C75653A77
:10256000200020496E6465783A20002A2A2A2047F4
:10257000656E6965205265706F7274204F626A657E
:102580006374202A2A2A204F626A6563743A200005
:102590002A2A2A2047656E696520436F6E6E65633F
:1025A000746564202F2053796E6321202A2A2A0023
:1025B0002056616C75653A200020496E6465783A52
:1025C00020002A2A2A2047656E6965205265706FAF
:1025D0007274204576656E74202A2A2A204F626A1A
:1025E0006563743A2000204C656E6774683A200079
:1025F0002A2A2A2047656E696520526563656976D7
:102600006564204D6167696320446F75626C652065
:102610004279746573202A2A2A20496E6465783AC3
:102620002000204C656E6774683A20002A2A2A2010
:1026300047656E6965205265636569766564204DFE
:1026400061676963204279746573202A2A2A2049C8
:102650006E6465783A20002A2A2A2047656E6965EB
:10266000204E414B205265636F766572792021219F
:1026700021202A2A2A002A2A2A2047656E696520F5
:10268000446973636F6E6E65637465642066726F10
:102690006D20446F4576656E747321202A2A2A00C6
:1026A0002A2A2A2047656E696520546F6F6B207453
:1026B0006F6F206C6F6E6720746F2072652D656E72
:1026C00074657220446F4576656E747328292C20DA
:1026D0007265647563652064656C61797320696EE9
:1026E00020636F64652C2073656C662D70726F7447
:1026F000656374696F6E20656E61626C65642E201F
:102700002A2A2A000A0020616E7469686F72617259
:10271000690A3A200020686F726172690A20002FEE
:102720003800766F6C746573200020566F6C74658A
:102730007320636172676F6C20333A200020616EF2
:102740007469686F726172690A3A200020686F725A
:102750006172690A20002F3800766F6C74657320EF
:102760000020566F6C74657320636172676F6C2014
:10277000323A20000A0020647A333A200020647A3A
:10278000323A2000543100543000543000543000AC
:102790000A0056756974656E73333A2020004170E3
:1027A000726F78333A202000566F6C746573333A39
:1027B0002020000A0056756974656E73323A202035
:1027C000004170726F78323A202000566F6C746549
:1027D00073323A20200056616C6F7220645A333A8B
:1027E00020200056616C6F7220645A323A2020001B
:1027F0004E6577206F6666736574207665727369BF
:102800006F6E3A20007A335F313A20007A325F31BE
:102810003A20005A7363726F6C6C5F313A20007A11
:10282000335F303A20007A325F303A20005A7363C7
:10283000726F6C6C5F303A20005A76616C7565205F
:10284000616674657220686F6D653A00486F6D65EA
:1028500020582F59206265666F7265205A0A00451C
:1028600072726F7220577269746520454550524FDD
:102870004D0053657474696E67732053746F72658D
:10288000640A00204D696E75746573203A0020203B
:102890004C617374207072696E742074696D652D5B
:1028A0003E20486F757273203A004C61737420703B
:1028B00072696E74206475726174696F6E0A002C9F
:1028C000205468697264204944206E756D62657297
:1028D00020002C205365636F6E64204944206E7580
:1028E0006D6265723A200020204669727374204937
:1028F00044206E756D6265723A2000554920496E1C
:10290000666F726D6174696F6E2053657269616C78
:10291000204E756D6265723A0A00206D2C2045319B
:10292000207072696E742064697374616E63653AB5
:102930002000206B6D2C204530207072696E742051
:1029400064697374616E63653A2000206B6D2C209E
:1029500059207072696E742064697374616E636566
:102960003A2000206B6D2C205831207072696E74F3
:102970002064697374616E63653A200020432C0AF9
:10298000205830207072696E742064697374616EAF
:1029900063653A200020432C206D61782074656DBA
:1029A0007020423A200020432C206D61782074650D
:1029B0006D7020523A20002C206D61782074656D76
:1029C00070204C3A2000682C207072696E7473205D
:1029D00066696E69736865643A20002C20707269BC
:1029E0006E74696E672074696D653A2000202070EE
:1029F00072696E74733A200053544154533A0A007A
:102A000020432C20525F5052494E543A200020431C
:102A10002C20525F4245443A200020432C20525F34
:102A200052454D4F56453A20002020525F494E53A3
:102A30004552543A200054656D70202843293A0AC3
:102A40000020432C204C5F5052494E543A20002025
:102A5000432C204C5F4245443A200020432C204C1C
:102A60005F52454D4F56453A200020204C5F494E5D
:102A7000534552543A200054656D70202843293A3A
:102A80000A0020562856657273696F6E292000204F
:102A900052284265642072696768742073637265A6
:102AA0007729200020204D353331204C28426564A1
:102AB000206C656674207363726577292000426517
:102AC00064204F66667365747320286D6D293A0A19
:102AD000002050285A2070726F62652900205A2009
:102AE000002059200020204D353330205820004F41
:102AF00066667365747320286D6D293A0A00204458
:102B000000204900202D204D3330312052494748C4
:102B10005420500020440020490020204D33303103
:102B2000204C45465420500050494420736574742D
:102B3000696E67733A0A00205A0020590020204D20
:102B4000323036205800486F6D65206F66667365B9
:102B50007420286D6D293A0A00204500205A002073
:102B6000580020420020540020204D3230352053A0
:102B700000416476616E63656420766172696162AA
:102B80006C65733A20533D4D696E206665656472CD
:102B900061746520286D6D2F73292C20543D4D697B
:102BA0006E2074726176656C20666565647261740E
:102BB0006520286D6D2F73292C20423D6D696E694B
:102BC0006D756D207365676D656E742074696D65D4
:102BD00020286D73292C20583D6D6178696D756DC5
:102BE000205859206A65726B20286D6D2F73292C2F
:102BF00020205A3D6D6178696D756D205A206A6597
:102C0000726B20286D6D2F73292C2020453D6D613E
:102C100078696D756D2045206A65726B20286D6D31
:102C20002F73290A0020540020204D3230342053C5
:102C300000416363656C65726174696F6E3A20531D
:102C40003D616363656C65726174696F6E2C2054BD
:102C50003D7265747261637420616363656C657253
:102C60006174696F6E0A00204500205A00205900E7
:102C700020204D3230312058004D6178696D756DDE
:102C800020416363656C65726174696F6E20286DA5
:102C90006D2F7332293A0A00204500205A0020592E
:102CA0000020204D3230332058004D6178696D7519
:102CB0006D2066656564726174657320286D6D2F83
:102CC00073293A0A00204500205A0020590020208C
:102CD0004D3932205800537465707320706572202E
:102CE000756E69743A0A005072696E746572206874
:102CF000616C7465642E206B696C6C28292063619B
:102D00006C6C6564210A004572726F723A006C61E6
:102D1000796572206865696768743A20004578743F
:102D200072756465722072656C656173656420619B
:102D300063746976653A20005A205349474D412013
:102D4000486F6D65640A0045787472756465722019
:102D50006163746976653A20007C3C3E5E2B3D3FA2
:102D60002F5B5D3B2C2A225C004D313037004E65D5
:102D700077206C617965722064657465637465643D
:102D80000A003B206C61796572003B4C4159455209
:102D900000256920686F757273202569206D696E42
:102DA0007574657300446F6E65207072696E746926
:102DB0006E672066696C650A004D333300504155DB
:102DC00053450A00473639005072696E74657220A7
:102DD00073746F707065642064756520746F20650E
:102DE00072726F72732E2046697820746865206550
:102DF00072726F7220616E6420757365204D39396F
:102E00003920746F20726573746172742E20285497
:102E1000656D706572617475726520697320726585
:102E20007365742E2053657420697420616674651F
:102E3000722072657374617274696E67290A006F1B
:102E40006B0A004E6F204C696E65204E756D626591
:102E500072207769746820636865636B73756D2C85
:102E6000204C617374204C696E653A20004E6F20CF
:102E7000436865636B73756D2077697468206C694E
:102E80006E65206E756D6265722C204C61737420C6
:102E90004C696E653A2000636865636B73756D20DD
:102EA0006D69736D617463682C204C617374204C80
:102EB000696E653A20004C696E65204E756D6265DD
:102EC00072206973206E6F74204C617374204C699A
:102ED0006E65204E756D6265722B312C204C6173CE
:102EE00074204C696E653A20004D31313000CDAC14
:102EF00003440080934300005243000000000000A0
:102F00000000000000006563686F3A00526561646C
:102F10007920746F204C6F61642F556E6C6F616403
:102F2000200A0053746F7265642073657474696E4F
:102F30006773207265747269657665640A0048611A
:102F40007264636F6465642044656661756C7420A7
:102F500053657474696E6773204C6F616465640AAD
:102F60000048617264636F6465642043616C6962E8
:102F700020616E64205049442044656661756C741C
:102F80002053657474696E6773204C6F6164656467
:102F90000A00526573656E643A20006F6B0A004741
:102FA0003639204143544956415445440A007D0274
:102FB000870211241FBECFEFD1E2DEBFCDBF00E0FC
:102FC0000CBF18E0A0E0B2E0E6E8FAE903E00BBFCE
:102FD00002C007900D92A23BB107D9F72EE1A2EBF8
:102FE000B8E001C01D92AC36B207E1F717E1C8EDB9
:102FF000D7E100E006C021970109802FFE010F9460
:103000001CCAC73DD10780E00807A9F70F942FA17C
:103010000D9432CD0C9400002F923F924F925F920C
:103020006F927F928F929F92AF92BF92CF92DF92D8
:10303000EF92FF920F931F93CF93DF93CDB7DEB73D
:10304000C352D1400FB6F894DEBF0FBECDBF2DB72F
:103050003EB7CE5DDE4F39832883C252D14011E0A6
:10306000109307098091E90881110CC00E9445C79F
:103070006093E5087093E6088093E7089093E8086A
:103080001093E9088091DD0881110DC00E9445C7A9
:103090006093D9087093DA088093DB089093DC087A
:1030A00081E08093DD089091A91A4091AA02509185
:1030B000AB026091AC027091AD02911106C080919B
:1030C000AA1A882311F40C94FF22453A5105610590
:1030D000710509F44AC60CF0C3C0473551056105B6
:1030E000710509F4B7C40CF05EC0413251056105A9
:1030F000710511F40C94172134F541315105610526
:10310000710509F4F9C774F4413051056105710581
:1031100009F4E8C2403151056105710509F4BBC1EC
:103120000C946A5E433151056105710509F47AC456
:103130000CF498C4403251056105710511F40C94EA
:1031400026210C946A5E413451056105710509F42C
:10315000D8C4ACF4453351056105710511F40C94E4
:10316000CB214D3351056105710509F4F1C341339C
:1031700051056105710511F00C946A5E2EC4463448
:1031800051056105710509F4C0C443355105610558
:10319000710509F4C0C2443451056105710509F493
:1031A00092C70C946A5E473951056105710511F4A7
:1031B0000C94B1214CF5463751056105710509F4B0
:1031C00073C474F4483551056105710509F4E6C30B
:1031D0004A3551056105710509F413C60C946A5E00
:1031E0004E3751056105710509F48DC14938510506
:1031F0006105710509F443C24B375105610571053D
:1032000011F00C946A5EFDC54C39510561057105DC
:1032100011F40C9447219CF44A395105610571055C
:1032200011F40C94352114F00C943E2148395105C9
:103230006105710511F40C94A0210C946A5E433A67
:1032400051056105710509F47DC50CF0B4C54D3912
:1032500051056105710511F40C9474210C946A5E9A
:103260004F3E51056105710509F46FC20CF088C02D
:10327000433D51056105710511F40C94BB22BCF569
:10328000483A51056105710509F4A8C504F5463AA7
:1032900051056105710509F4FDC4473A5105610501
:1032A000710511F00C946A5E8091010990910209F8
:1032B000A0910309B0910409916080930109909352
:1032C0000209A0930309B09304090C946A5E4A3A78
:1032D00051056105710509F409C50CF459C54E3B4A
:1032E00051056105710509F46BC30C946A5E453E96
:1032F00051056105710509F40CC414F5433E5105EF
:103300006105710509F418C40CF067C4423E51050B
:103310006105710511F00C946A5E8091010990912C
:103320000209A0910309B091040982608093010908
:1033300090930209A0930309B09304090C946A5E68
:103340004D3E51056105710509F40BC10CF0C2C178
:103350004A3E51056105710511F00C946A5E40E02A
:1033600050E06EE681E20F94C94F8091D70A9091A8
:10337000D80A92609093D80A8093D70A0C946A5E18
:103380004B3F51056105710509F402C484F5473FBF
:1033900051056105710509F433C4A4F4423F510598
:1033A0006105710509F4B7C1463F51056105710515
:1033B00009F44BC4413F51056105710511F00C94AE
:1033C0006A5E90C18091010990910209A091030960
:1033D000B091040920912A0230912B02493F5105F6
:1033E0006105710509F495C40CF467C4B8C34E3681
:1033F00031E053076105710509F4A8C0B4F54836FA
:1034000091E059076105710509F4BCC74A36A1E08E
:103410005A076105710509F499C0453651406105A7
:10342000710511F00C946A5E40E050E06AE28AE0B7
:103430000F94C94F40E050E064E581E20F94C94F1A
:1034400081E0809310121092131265E579E086E214
:103450000F94D7508091D70A9091D80A9860909392
:10346000D80A8093D70A0C946A5E4937E1E05E0778
:103470006105710509F43CC64538F1E05F07610557
:10348000710509F469C1483751406105710511F0B2
:103490000C946A5E99C580912302813419F541E04C
:1034A00050E066E08BE10F94C94F41E050E060E1ED
:1034B00081E20F94C94F41E050E062E181E20F9454
:1034C000C94F41E050E063E181E20F94C94F41E010
:1034D00050E06EE781E20F94C94F84E480932302A9
:1034E0000C946A5E843411F00C946A5E8091D70A61
:1034F0009091D80A80649093D80A8093D70A10924A
:1035000010120C946A5E40E050E066E08BE10F948C
:10351000C94F40E050E060E181E20F94C94F40E0C4
:1035200050E062E181E20F94C94F40E050E063E176
:1035300081E20F94C94F40E050E06EE781E20F94C2
:10354000C94F81E4809323020C946A5E8091D70A6C
:103550009091D80A92609093D80A8093D70A0C94DD
:103560006A5E80912302823419F583E480932302FA
:1035700041E050E063E08BE10F94C94F41E050E03F
:1035800067E581E20F94C94F41E050E066E781E2D0
:103590000F94C94F41E050E06DEE81E20F94C94FA6
:1035A00041E050E069E881E20F94C94F0C946A5EF3
:1035B000833411F00C946A5E11E01093FC0840E033
:1035C00050E068E981E20F94C94F40E050E067E9BC
:1035D00081E20F94C94F40E050E06CE981E20F9422
:1035E000C94F40E050E06DE981E20F94C94F41E0DE
:1035F00050E06AE481E20F94C94F40E050E06CE291
:103600008AE00F94C94F109313128FEF9FEF90939E
:10361000D5028093D40240E050E06AE981E20F9441
:10362000C94F40E050E06BE981E20F94C94F6091CF
:10363000660C7091670C8091680C9091690C0F94E6
:1036400044C7AB0166E289E00F94C94F60916A0CF0
:1036500070916B0C80916C0C90916D0C0F9444C721
:10366000AB0167E289E00F94C94F40E050E068E2A7
:1036700089E00F94C94F109210120C946A5E8091E9
:103680002302833411F00C946A5E82E48093230257
:1036900040E050E063E08BE10F94C94F40E050E020
:1036A00067E581E20F94C94F40E050E066E781E2B0
:1036B0000F94C94F40E050E06DEE81E20F94C94F86
:1036C00040E050E069E881E20F94C94F1092131274
:1036D0000C946A5E40E050E064E58AE00F94C94FC4
:1036E0000C946A5E109210128091D70A9091D80AB9
:1036F00082609093D80A8093D70A81E08093930CDC
:1037000040E050E068E08AE00F94C94F81E4809384
:10371000940C0C946A5E8091DC0A882311F40C945A
:103720006A5E41E050E08091D90A8A3011F440E0AD
:1037300050E066E18BE10F94C94F40E050E062E554
:103740008AE00F94C94F0C946A5E89E480931D024D
:103750000F94F32C0C946A5E80915A1E90915B1E1C
:1037600090933B0A80933A0A0F94B91C80915C1E97
:1037700090915D1E90933D0A80933C0A0F94B91C72
:1037800082E48093230282E580931D0281E080938E
:103790001312109210128091D90AE1E08A3009F4D4
:1037A000E0E0E093E712F0E0EE0FFF1FE65CF54F7C
:1037B000208131813093D8082093D7088A3029F4AA
:1037C0008091130D9091140D04C08091170D90916C
:1037D000180D918380830F94B91C81E48093940C1D
:1037E00040E050E068E08AE00F94C94F40E050E0CC
:1037F00064E581E20F94C94F80E090E0A3E4B3E474
:1038000080935D0A90935E0AA0935F0AB093600A6A
:103810008090D3129090D412A090D512B090D6126E
:103820002091590A30915A0A40915B0A50915C0AE2
:103830006091550A7091560A8091570A9091580AE2
:10384000E8E46E2EEAE07E2E7F926F92F1E6CF2EB4
:10385000FAE0DF2EE12CF12C03E413E40F946B3833
:103860000F946B1E80E090E0A0E2B1E48093590ACF
:1038700090935A0AA0935B0AB0935C0A8090CF128F
:103880009090D012A090D112B090D212E0905D0A28
:10389000F0905E0A00915F0A1091600A6091550AEB
:1038A0007091560A8091570A9091580A7F926F92B0
:1038B00020E030E040E251E40F946B380F946B1E2F
:1038C0000F900F900F900F908091940C8E3411F404
:1038D0000C94AC2A1092940C0E94CE6540E050E00B
:1038E00060E289E00F94C94F40E050E064E28AE072
:1038F0000F94C94F0091E71210E0F801EE0FFF1F7F
:10390000EE0FFF1FEA59F34F60817181828193812D
:103910000F9444C77093FA086093F908000F111FC1
:10392000F801E65CF54F808191810A979093F80841
:103930008093F7081092F6081092F50889E48093B6
:10394000940C0E94CE6581E08093FB080C946A5E23
:103950008091230240E050E0813441F469E08AE044
:103960000F94C94F65E579E082E007C06AE28AE01A
:103970000F94C94F65E579E086E20F94D7508091A6
:10398000D70A9091D80A98609093D80A8093D70A62
:1039900010921312109210120C946A5E8091120D04
:1039A00081110C946A5E8091AA1A81110C946A5E4E
:1039B00040E050E069E38AE00F94C94F0C946A5EDE
:1039C0008091120D81110C946A5E40E050E061E03C
:1039D0008AE00F94C94F0C946A5E8091120D811198
:1039E0000C946A5E10912302113411F00C946A5EFB
:1039F000109210121092A91A81E08093AA1A40E046
:103A000050E068E08AE00F94C94F1093940C8091C5
:103A1000D70A9091D80A94609093D80A8093D70AD5
:103A20000C946A5E80912302813439F440E050E0C6
:103A300061E08AE00F94C94FADCF843409F0AACF7A
:103A40008091D70A9091D80A90619093D80A809378
:103A5000D70AA0CF80912302823441F3833409F046
:103A600099CFEECF80912302992369F0813459F4E4
:103A70008091D70A9091D80A88609093D80A809351
:103A8000D70A0C946A5E843411F00C946A5E8091BB
:103A9000D70A9091D80A80689093D80A8093D70A61
:103AA000109210120C946A5E8091AA1A882311F465
:103AB0000C946A5E80912302823459F48091D70A73
:103AC0009091D80A80619093D80A8093D70A0C9479
:103AD0006A5E833411F00C946A5E40E050E066E167
:103AE0008AE00F94C94F41E050E064E581E20F9411
:103AF000C94F82E580931D0281E0809313120C94DC
:103B00006A5E0F94261A0C946A5E0F94B0190C9496
:103B10006A5E8091010990910209A0910309B09118
:103B2000040984608093010990930209A09303091A
:103B3000B09304090C946A5E809101099091020986
:103B4000A0910309B09104098860809301099093C2
:103B50000209A0930309B09304090C946A5E233010
:103B6000310559F4A1608093010990930209A09353
:103B70000309B09304090C946A5E84608093010980
:103B800090930209A0930309B09304090C946A5E10
:103B900020912A0230912B02809101099091020913
:103BA000A0910309B09104092330310559F4A260B2
:103BB0008093010990930209A0930309B09304092B
:103BC0000C946A5E88608093010990930209A09327
:103BD0000309B09304090C946A5E809101099091E5
:103BE0000209A0910309B091040981608093010941
:103BF00090930209A0930309B09304090C946A5EA0
:103C000020912A0230912B028091010990910209A2
:103C1000A0910309B09104092330310559F4906152
:103C20008093010990930209A0930309B0930409BA
:103C30000C946A5E81608093010990930209A093BD
:103C40000309B09304090C946A5E20912A02309112
:103C50002B028091010990910209A0910309B09172
:103C600004092330310559F490628093010990933F
:103C70000209A0930309B09304090C946A5E826060
:103C80008093010990930209A0930309B09304095A
:103C90000C946A5E8091010990910209A091030938
:103CA000B091040980628093010990930209A09366
:103CB0000309B09304090C946A5E2330310559F46A
:103CC00090648093010990930209A0930309B09333
:103CD00004090C946A5E8062809301099093020942
:103CE000A0930309B09304090C946A5E80910109C2
:103CF00090910209A0910309B09104098061809319
:103D0000010990930209A0930309B09304090C944C
:103D10006A5E2330310559F49068809301099093CD
:103D20000209A0930309B09304090C946A5E8061B0
:103D30008093010990930209A0930309B0930409A9
:103D40000C946A5E8091010990910209A091030987
:103D5000B091040980648093010990930209A093B3
:103D60000309B09304090C946A5E80910109909153
:103D70000209A0910309B0910409806880930109A8
:103D800090930209A0930309B09304090C946A5E0E
:103D90008091010990910209A0910309B091040951
:103DA00092608093010990930209A0930309B09354
:103DB00004090C946A5E8091010990910209A09116
:103DC0000309B0910409946080930109909302095A
:103DD000A0930309B09304090C946A5E80910109D1
:103DE00090910209A0910309B09104099860809311
:103DF000010990930209A0930309B09304090C945C
:103E00006A5E4A3551056105710519F41092E71291
:103E100003C081E08093E7128091E712E82FF0E081
:103E2000EE0FFF1FE65CF54F208131813093D808FB
:103E30002093D708811105C08091130D9091140D26
:103E400004C08091170D9091180D918380830F9479
:103E5000B91C81E48093940C40E050E068E08AE073
:103E60000F94C94F40E050E064E581E20F94C94FE0
:103E700080E090E0A3E4B3E480935D0A90935E0A4F
:103E8000A0935F0AB093600A8090D3129090D412EE
:103E9000A090D512B090D6122091590A30915A0AAA
:103EA00040915B0A50915C0A6091550A7091560AE4
:103EB0008091570A9091580AE8E46E2EEAE07E2E2F
:103EC0007F926F92F1E6CF2EFAE0DF2EE12CF12CFB
:103ED00003E413E40F946B380F946B1E80E090E0C2
:103EE000A0E2B1E48093590A90935A0AA0935B0A26
:103EF000B0935C0A8090CF129090D012A090D11213
:103F0000B090D212E0905D0AF0905E0A00915F0AD4
:103F10001091600A6091550A7091560A8091570A73
:103F20009091580A7F926F9220E030E040E251E495
:103F30000F946B380F946B1E0F900F900F900F9093
:103F40008091940C8E3411F40C94AC2A1092940C41
:103F50000E94CE6540E050E060E289E00F94C94FD6
:103F600040E050E064E28AE00F94C94F0091E7120C
:103F700010E0F801EE0FFF1FEE0FFF1FEA59F34F9D
:103F800060817181828193810F9444C77093FA0894
:103F90006093F908000F111FF801E65CF54F80816E
:103FA00091810A979093F8088093F7081092F60889
:103FB0001092F50889E48093940C0E94CE6581E00C
:103FC0008093FB080C946A5E40E050E060E289E078
:103FD0000F94C94F40E050E064E28AE00F94C94F6B
:103FE00089E48093940C0E94CE650091E712011140
:103FF0001DC08091150D9091160D60914912709120
:104000004A12681779072CF4BC01990F880B990B99
:1040100004C0072E000C880B990B0F940FBF0F9450
:1040200044C770933B0A60933A0A20C08091190DEF
:1040300090911A0D6091431270914412681779079C
:104040002CF4BC01990F880B990B04C0072E000CAF
:10405000880B990B0F940FBF10E0000F111F065C27
:10406000154F0F9444C7D8016D937C930F94B91CDE
:104070000091E71210E0F801EE0FFF1FEE0FFF1F97
:10408000EA59F34F60817181828193810F9444C713
:104090007093FA086093F908000F111FF801E65CAD
:1040A000F54F808191810A979093F8088093F708E3
:1040B0001092F6081092F5080E94CE6581E0809378
:1040C000FB080C946A5E80917302882311F40C94AF
:1040D000785E8091E712811102C08AE101C086E317
:1040E0000E94B4C5892B11F00C94785E0C946A5E22
:1040F0000F941B280C946A5E8091FE0881FF02C019
:104100000C946A5E8091B70A9091B60A98130C9449
:10411000F95F40E050E06BE084E10F94C94F40E06C
:1041200050E065E18AE00F94C94F82E48093940CDB
:1041300080934E13E091E71234E0E39FF0011124E5
:10414000E25CFD4F60817181828193816093550AA9
:104150007093560A8093570A9093580AE0905D0A2C
:10416000F0905E0A00915F0A1091600A2091590A4E
:1041700030915A0A40915B0A50915C0AE7EEF2E1F5
:10418000FF93EF93812C912CE8E4AE2EE3E4BE2E56
:10419000F1E6CF2EFAE0DF2E0F946B38E0905D0A47
:1041A000F0905E0A00915F0A1091600A2091590A0E
:1041B00030915A0A40915B0A50915C0AE091480A9A
:1041C00064E0E69FF0011124E25CFD4F60817181A3
:1041D000828193810F945951E091480A84E0E89FCD
:1041E000F0011124E25CFD4F80819181A281B381B5
:1041F0008093550A9093560AA093570AB093580A91
:10420000E091E712F0E0EE0FFF1FE65CF54F8091C2
:10421000D7089091D808918380830F94B91C10928D
:10422000DC0A0F946B1E0F900F900C946A5E8091C5
:10423000FE0881FF02C00C946A5E9091B70A20913B
:10424000B60A29130C94FD5F0C9400608091FE085F
:1042500081FF02C00C946A5E9091B70A2091B60A61
:1042600029130C94FD5F0C9404608091B70A90911F
:10427000B60A98130C946A5E0C9408609091B70A81
:104280008091B60A98130C946A5E0C949360E09146
:10429000D402F091D502EF3F9FEFF90711F40C948F
:1042A0006A5EEE0FFF1FE65CF54F808191818B33D4
:1042B000A1E09A0714F00C946A5E059691838083BE
:1042C0000F94B91C0F94B91CE091D402F091D5025F
:1042D000EE0FFF1FE65CF54F4081518168E289E0F7
:1042E0000F94C94F0C946A5EE091D402F091D5020C
:1042F000EF3FBFEFFB0711F40C946A5EEE0FFF1F58
:10430000E65CF54F808191811816190614F00C9423
:104310006A5E0597918380830F94B91C0F94B91C32
:10432000E091D402F091D502EE0FFF1FE65CF54F4D
:104330004081518168E289E00F94C94F0C946A5E14
:104340008091D4029091D502019611F40C946A5E8A
:104350009091B70A8091B60A98130C94FD5F0C9463
:1043600021618091D4029091D502019611F40C94B0
:104370006A5E9091B70A8091B60A98130C94FD5F1B
:104380000C9427619091B70A8091B60A98130C9407
:104390006A5E0C942D6180914E13823411F00C945E
:1043A0006A5E1092940C8091D70A9091D80A8D7F02
:1043B0009093D80A8093D70A80911D02823531F4F8
:1043C00089E480931D020F94F32CD1C0893409F045
:1043D000CEC081E48093940C40E050E068E08AE035
:1043E0000F94C94F40908E0950908F0960909009AA
:1043F000709091094092590A50925A0A60925B0A51
:1044000070925C0A20E030E040E752E46091BA022A
:104410007091BB028091BC029091BD020F9498C62E
:104420004B015C01E0905D0AF0905E0A00915F0A2A
:104430001091600A6091550A7091560A8091570A4E
:104440009091580A28E43AE03F932F9331E6C32E27
:104450003AE0D32EA30192010F946B380F946B1E98
:104460000F900F908091940C8E3411F40C94AC2A20
:1044700020E030E040E251E46091920970919309AC
:1044800080919409909195090F94AAC57B018C01A4
:1044900060935D0A70935E0A80935F0A9093600A4E
:1044A0008091890989838090BE029090BF02A0907C
:1044B000C002B090C1022091590A30915A0A40912D
:1044C0005B0A50915C0A6091550A7091560A80917E
:1044D000570A9091580AFE013196FF93EF930F947B
:1044E0006B380F946B1E0F900F908091940C8E344C
:1044F00011F40C94AC2A1092940C82E48093230261
:1045000040E050E063E08BE10F94C94F40E050E0A1
:1045100067E581E20F94C94F40E050E066E781E231
:104520000F94C94F40E050E06DEE81E20F94C94F07
:1045300040E050E069E881E20F94C94F40E050E06C
:104540006AE28AE00F94C94F81E0809310121092C2
:10455000131265E579E086E20F94D7508091D70A6F
:104560009091D80A98609093D80A8093D70A1092B5
:104570004E130C946A5E80913E121092940C882324
:10458000E9F010923E128091D70A9091D80A986073
:104590009093D80A8093D70A8091230240E050E09C
:1045A000813431F469E08AE00F94C94F0C946A5E5B
:1045B0006AE28AE00F94C94F0C946A5E1092FB097C
:1045C00010921312E3E5F9E084918F01882351F0F2
:1045D000082E000C990B0F94E2830F5F1F4FF80118
:1045E0008491F4CF1092FF0881E00F949A1440E078
:1045F00050E065E08AE00F94C94F0C946A5E8091A8
:104600005009282F287083FF90C39091540992304D
:1046100008F48BC3413B51056105710509F4A8C03D
:10462000B4F5443651056105710509F4A1C1A4F43E
:104630004E3551056105710509F4F0C24F3551053C
:104640006105710509F41CC3453351056105710508
:1046500011F00C946A5E27C3403A5105610571055B
:1046600009F4C8C0423A51056105710509F46AC0F0
:10467000433851056105710511F00C946A5E40E004
:1046800050E06DE68AE00F94C94F0C946A5E4233A5
:10469000F1E05F076105710509F45CC13CF5453C3B
:1046A00051056105710509F479C04C3C510561055E
:1046B000710509F489C0423B51056105710511F08E
:1046C0000C946A5E0F94921941E050E062EB81E233
:1046D0000F94C94F41E050E060EA81E20F94C94F66
:1046E0001092FF021092FE020C946A5E463331E093
:1046F00053076105710509F417C1ACF44333514008
:104700006105710511F00C946A5E8DEF9FEF909337
:10471000501380934F1340E050E06AE08AE00F941A
:10472000C94F0C946A5E4E37A1E05A0761057105C6
:1047300009F4F2C1483851406105710509F424C1FA
:104740000C946A5E0F94921941E050E062EA81E2B3
:104750000F94C94F41E050E060EA81E20F94C94FE5
:104760008EEF9FEF9093FF028093FE020C946A5E9F
:104770000F94921941E050E061EB81E20F94C94F30
:1047800041E050E060EA81E20F94C94F8FEF9FEF64
:104790009093FF028093FE020C946A5E0F9492192C
:1047A00041E050E065EC81E20F94C94F41E050E0F8
:1047B00060EA81E20F94C94F81E090E09093FF029C
:1047C0008093FE020C946A5E0F94921941E050E0CF
:1047D0006CEC81E20F94C94F41E050E060EA81E265
:1047E0000F94C94F82E090E09093FF028093FE0205
:1047F0000C946A5E0091FE021091FF0298012E5FF8
:104800003F4F2530310510F00C946A5E9230D9F597
:1048100083E08093540940E050E061E18AE00F9426
:10482000C94F80E58093940C80915109800F80934B
:10483000510900E010E020E030E04CE553EC60E08E
:1048400070E088E393EC0F943CAF0F94921980E6EC
:1048500097E09093FF028093FE0240E050E060EA10
:1048600081E20F94C94F42E050E06CE08BE10F947D
:10487000C94F40E050E069E18AE00F94C94F1092BF
:10488000940C0C946A5E9330D9F584E080935409BB
:1048900040E050E061E18AE00F94C94F80E58093E9
:1048A000940C80915209800F8093520900E010E02F
:1048B00020E030E04CE553EC60E070E080E493E40D
:1048C0000F943CAF0F94921980E697E09093FF020B
:1048D0008093FE0240E050E060EA81E20F94C94F0D
:1048E00042E050E06CE08BE10F94C94F40E050E0B3
:1048F00069E18AE00F94C94F1092940C0C946A5E9F
:10490000943011F00C946A5E80915309800F80936B
:10491000530940E050E06EE28AE00F94C94F8FE403
:104920008093940C0C946A5E0F94921940E050E0CE
:1049300060EA81E20F94C94F40E050E069E18AE00B
:104940000F94C94F80E697E09093FF028093FE0298
:104950000C946A5E83E090E09093501380934F1321
:1049600040E050E06AE08AE00F94C94F0C946A5E20
:104970001092501310924F1340E050E06AE08AE02A
:104980000F94C94F0C946A5E40E050E068E08AE002
:104990000F94C94F81E48093940C41E061E081E081
:1049A0000F945F6A1092940C0F946B1E0F948B29D6
:1049B00010914F13809154098230B1F540E050E0DE
:1049C00061E18AE00F94C94F80E58093940C0091D7
:1049D0005109010F00935109002E000C110B20E02A
:1049E00030E0A901CA01B9010F943CAF0F949219AC
:1049F00080E697E09093FF028093FE0240E050E053
:104A000060EA81E20F94C94F42E050E06CE08BE134
:104A10000F94C94F40E050E069E18AE00F94C94F1C
:104A20001092940C0C946A5E8330C9F540E050E01B
:104A300061E18AE00F94C94F80E58093940C009166
:104A40005209010F00935209002E000C110B20E0B7
:104A500030E04CE553EC60E070E088E393EC0F94B9
:104A60003CAF0F94921980E697E09093FF028093F9
:104A7000FE0240E050E060EA81E20F94C94F42E05C
:104A800050E06CE08BE10F94C94F40E050E069E1E9
:104A90008AE00F94C94F1092940C0C946A5E843093
:104AA00011F00C946A5E40E050E061E18AE00F94FE
:104AB000C94F80E58093940C00915309010F009336
:104AC0005309002E000C110B20E030E04CE553ECB4
:104AD00060E070E080E493E40F943CAF0F9492198F
:104AE00080E697E09093FF028093FE0240E050E062
:104AF00060EA81E20F94C94F42E050E06CE08BE144
:104B00000F94C94F40E050E069E18AE00F94C94F2B
:104B10001092940C0C946A5E1092940C809151093E
:104B200040915209042F081B40915309142F181B60
:104B3000602F002E000C770B880B990B0F940FBF82
:104B40002DEC3CEC4CEC5DEB0F940EBA6093EA0953
:104B50007093EB098093EC099093ED09612F012E7E
:104B6000000C770B880B990B0F940FBF2DEC3CECCE
:104B70004CEC5DEB0F940EBA6093E6097093E70975
:104B80008093E8099093E9090023A1F040E050E008
:104B90006FE18AE00F94C94F07FF07C0E02FFF279E
:104BA000E1950CF4F09508E00E0F402F000F550B27
:104BB00064E015C01123B9F040E050E060E28AE003
:104BC0000F94C94F17FF07C0212F332721950CF4ED
:104BD000309518E0120F412F110F550B65E08BE156
:104BE0000F94C94F11C014E410934E1340E050E0ED
:104BF0006BE084E10F94C94F40E050E065E18AE04A
:104C00000F94C94F1093940C8BEE90E09093E509AC
:104C10008093E4090F94CE660C946A5E4091530928
:104C200080915109142F181BC1F040E050E060E260
:104C30008AE00F94C94F17FF07C0812F99278195EC
:104C40000CF4909518E0180F412F110F550B65E0EB
:104C50008BE10F94C94F0C946A5E14E410934E13C9
:104C600040E050E06BE084E10F94C94F40E050E039
:104C700065E18AE00F94C94F1093940C0C946A5E1E
:104C800014E410934E1340E050E06BE084E10F9485
:104C9000C94F40E050E065E18AE00F94C94F10939E
:104CA000940C0C946A5E90914E13943411F00C9411
:104CB0006A5E10925409877F809350091092940C79
:104CC0001092350A1092340A0F94751C10923B0A08
:104CD00010923A0A0F94B91C10923D0A10923C0AA5
:104CE0000F94B91C1092FB0910921312E8E4F9E03A
:104CF00084918F01882351F0082E000C990B0F949A
:104D0000E2830F5F1F4FF8018491F4CF1092FF08E8
:104D100080E00F949A1440E050E065E08AE00F9440
:104D2000C94F10924E130C946A5E4E38F1E05F0743
:104D300010F00C946A5EFA018827EE58FF4F8F4FEF
:104D40000D941CCA8091210290912202826090935E
:104D50002202809321020C946A5E8091210290913C
:104D60002202846090932202809321020C946A5E56
:104D70008091210290912202886090932202809378
:104D800021020C946A5E809121029091220280613E
:104D900090932202809321020C946A5E80912102FA
:104DA00090912202806290932202809321020C94BF
:104DB0006A5E0E94829C009781F48091210290910A
:104DC0002202946090932202809321028091250A0E
:104DD00081508093250A0C946A5E019711F00C941F
:104DE0006A5E809121029091220294609093220247
:104DF0008093210240E050E067E381E20F94C94FC5
:104E000040E050E061E08BE10F94C94F8091250AAA
:104E100081508093250A0C946A5E1092FB091092CF
:104E20001312EDE3F9E084918F01882351F0082EED
:104E3000000C990B0F94E2830F5F1F4FF8018491D0
:104E4000F4CF1092FF0881E00F949A1440E050E0F4
:104E500065E08AE00F94C94F0C946A5E8091AB1AAA
:104E6000882311F40C946A5E41E061E08CEA9AE1D7
:104E70000E943BA28FEF9FEF90939A1A8093991A0A
:104E8000812C912C54017501640100E010E088E44C
:104E9000482E8AE1582E92E3392E66246394712CB1
:104EA00040914A1D50914B1D60914C1D70914D1DBC
:104EB0008091A51C9091A61CA091A71CB091A81C44
:104EC00084179507A607B70708F059C0D201E32D4C
:104ED0001D92EA95E9F70E94C49C0196D9F41092BC
:104EE000941A1092931A1092961A1092951A81E0C1
:104EF00090E09093981A8093971A1092A41A1092A7
:104F0000A31A1092A61A1092A51A80E00E942C9B58
:104F10000C944A610115110581F40E94369D019699
:104F200039F070929A1A6092991A07E010E021C045
:104F300010929A1A1092991A1CC080E00F947EAEBB
:104F40006B017C0181E00F947EAE4B015C0120E09F
:104F500030E0A901C701B6010F9482C818167CF091
:104F600020E030E0A901C501B4010F9482C81816F1
:104F700034F00F5F1F4F0E3111050CF491CF80E01C
:104F80000E942C9B20E030E0A901C701B6010F94DC
:104F900009BF18165CF020E030E0A901C501B4019A
:104FA0000F9409BF181614F00C944A614090000346
:104FB000509001036090020370900303A3019201DB
:104FC000C701B6010F9409BF811114C020E030E081
:104FD000A901C701B6010F9482C818165CF420E03D
:104FE00030E0A901C501B4010F9409BF181614F0EF
:104FF0000C944A618091040390910503A0910603EB
:10500000B0910703C65EDE4F88839983AA83BB8372
:10501000CA51D1409C01AD01C501B4010F9409BF33
:1050200081111EC020E030E0A901C501B4010F9438
:1050300082C818165CF420E030E0A901C701B6016F
:105040000F9409BF181614F00C944A61A301920141
:10505000C701B6010F9409BF882311F40C944A616B
:1050600020E030E0A901C701B6010F9409BF20E09C
:1050700030E040E251E418161CF0C301B20102C056
:10508000C701B6010F940EBA0F9444C7609308028B
:1050900020E030E0A901C501B4010F9409BF20E070
:1050A00030E040E251E418164CF0C65EDE4F6881F5
:1050B00079818A819B81CA51D14002C0C501B40166
:1050C0000F940EBA0F9444C76093090240E050E079
:1050D0006FE58AE00F94C94F60910003709101035E
:1050E00080910203909103030F9444C7AB016DE4D8
:1050F00089E00F94C94F20E030E040E251E4609134
:1051000000037091010380910203909103030F94B7
:105110000EBA0F9444C70AE010E0CB01B8010F9417
:10512000EDC9AC016EE489E00F94C94F60910403AE
:105130007091050380910603909107030F9444C773
:10514000AB016FE489E00F94C94F20E030E040E20A
:1051500051E46091040370910503809106039091DE
:1051600007030F940EBA0F9444C7CB01B8010F94F4
:10517000EDC9AC0160E589E00F94C94F8091080248
:105180001AE0612F0F94CCC9482F880F550B61E5A9
:1051900089E00F94C94F80910802612F0F94CCC908
:1051A000492F990F550B62E589E00F94C94F809103
:1051B0000902612F0F94CCC9482F880F550B63E566
:1051C00089E00F94C94F80910902612F0F94CCC9D7
:1051D000492F990F550B64E589E00F94C94FBCC165
:1051E0008091AB1A882311F40C946A5E8091FB1AAB
:1051F00081110C946A5ECDB6DEB68091050990915E
:1052000006090E94B5A1ECEAFAE1DF010D90002049
:10521000E9F78DB79EB78A1B9B0B9C012855354E2D
:105220000FB6F8943EBF0FBE2DBF0DB71EB70F5F70
:105230001F4FFF93EF938DED98E09F938F931F93F4
:105240000F930F94BABE780134E0E30EF11C0F9077
:105250000F900F900F900F900F90D7018C91882393
:1052600049F0082E000C990B0F949ACCF70181930A
:105270007F01F3CFC8010F940C1589ED98E00F94CE
:105280009D140FB6F894DEBE0FBECDBE0C946A5EC0
:1052900081E08093FB09809121029091220292602B
:1052A00090932202809321020C946A5E80912102E5
:1052B00090912202916090932202809321020C949B
:1052C0006A5E80912102909122028068909322026E
:1052D000809321020C946A5E40E050E062E18AE033
:1052E0000F94C94F0C946A5E40E050E06CE18AE094
:1052F0000F94C94F80E00F949A1410921B1E1092C5
:105300001A1E1092191E81E08093FF080C946A5EA9
:105310001092FB0910921312EEECF8E084918F01C9
:10532000882351F0082E000C990B0F94E2830F5F35
:105330001F4FF8018491F4CF1092FF080E94CE65B0
:1053400081E00F949A1440E050E065E08AE00F9409
:10535000C94F0C946A5E80913A0A90913B0A892B5E
:1053600029F010923B0A10923A0A08C080915F130C
:105370009091601390933B0A80933A0A0F94B91C62
:1053800010921B1E0C946A5E80913C0A90913D0A1B
:10539000892B29F010923D0A10923C0A08C0809196
:1053A0005C1390915D1390933D0A80933C0A0F9497
:1053B000B91C10921A1E0C946A5E8091340A909166
:1053C000350A892B29F01092350A1092340A1CC034
:1053D00080914E0990914F0960914C0970914D094F
:1053E000681779072CF4BC01990F880B990B04C03E
:1053F000072E000C880B990B0F940FBF0F9444C716
:105400007093350A6093340A0F94751C1092191E1C
:105410000C946A5E8AEC98E00F949D140C946A5E7A
:1054200040E050E06EE18AE00F94C94F0C946A5E50
:1054300040E050E065E08AE00F94C94F1092FB090C
:1054400010921312EFEBF8E084918F01882351F052
:10545000082E000C990B0F94E2830F5F1F4FF80189
:105460008491F4CF1092FF0888E793E09093A20212
:105470008093A1020F94CE660C946A5E40E050E0E7
:105480006AE18AE00F94C94F0E948B998091AB1A10
:10549000882311F40C946A5E8091240A8093250A73
:1054A000BCEFEB2EB9E0FB2E10E1C12E1AE0D12E9D
:1054B00000E010E08091240A90E008171907FCF43E
:1054C0006CEA7AE183E29BE10F94B9725701D7014C
:1054D0008D919D917D010E94B5A1F5018081918101
:1054E000D6018D939D936D018091FB1A882321F045
:1054F0008CEA9AE10E9456A60F5F1F4FDBCF87E030
:1055000090E00F945B320C946A5E8091A1029091BE
:10551000A2028036974041F488E793E09093A2027C
:105520008093A1020F94CE6640E050E068E08AE0EC
:105530000F94C94F81E48093940C80916113882368
:10554000D1F040E061E081E00F945F6A0F946B1E40
:105550008091940C8E3489F48FEF9FEFDC0180935F
:10556000AA029093AB02A093AC02B093AD0210924A
:1055700007090C94A96541E0E5CF81E00F949A14E6
:105580001092940C8CEB98E00F949D140F946B1E6A
:105590008091940C8E3401F340E050E06BE08AE09F
:1055A0000F94C94F0C946A5E40E050E064E08AE0DA
:1055B0000F94C94F0C946A5E40E050E064E28AE0C8
:1055C0000F94C94F8091181E82608093181E89E441
:1055D0008093940C40E050E060E289E00F94C94F62
:1055E00060915F1370916013072E000C880B990B6C
:1055F0000F940FBF40E050E00E9476BD0F94CE663E
:1056000067E175E08FE198E10F94E7836AE175E067
:105610008FE198E10F94E783609186027091870291
:10562000809188029091890242E050E00E9433A06C
:105630006EE175E08FE198E10F94E7832DEB37E39E
:1056400046E05EE360917E0270917F02809180026D
:10565000909181020F9498C642E050E00E9433A0DE
:1056600062E275E08FE198E10F94E7832DEB37E379
:1056700046E05EE360917602709177028091780255
:10568000909179020F940EBA42E050E00E9433A04C
:1056900060915C1370915D13072E000C880B990BC1
:1056A0000F940FBF41E050E00E9476BD0F94CE668C
:1056B00067E175E08FE198E10F94E7836AE175E0B7
:1056C0008FE198E10F94E78360918A0270918B02D9
:1056D00080918C0290918D0242E050E00E9433A0B4
:1056E0006EE175E08FE198E10F94E7832DEB37E3EE
:1056F00046E05EE3609182027091830280918402B1
:10570000909185020F9498C642E050E00E9433A029
:1057100062E275E08FE198E10F94E7832DEB37E3C8
:1057200046E05EE360917A0270917B0280917C0298
:1057300090917D020F940EBA42E050E00E9433A097
:105740001092940C0E94CE6540E050E06BE084E142
:105750000F94C94F40E050E065E18AE00F94C94FD3
:1057600081E00F949A1484E480934E138093940CF8
:105770000C946A5E40E050E068E28AE00F94C94F02
:105780000C946A5E40E050E062E18AE00F94C94FF9
:105790000C946A5E1092FB0910921312E1EBF8E090
:1057A00084918F01882351F0082E000C990B0F94DF
:1057B000E2830F5F1F4FF8018491F4CF1092FF082E
:1057C0000E94CE6540E050E065E08AE00F94C94F4A
:1057D0000C946A5E40E050E062E18AE00F94C94FA9
:1057E0000C946A5E82E580931D028091181E816090
:1057F0008093181E40E050E06BE581E20F94C94FA2
:1058000040E050E06CE581E20F94C94F40E050E089
:1058100060E08BE10F94C94F40E050E06AE781E21D
:105820000F94C94F40E050E069E781E20F94C94FFF
:1058300040E050E06DE18AE00F94C94F8FEF809314
:10584000E7120C946A5E40E050E06CE68AE00F9448
:10585000C94F0C946A5E40E050E062E18AE00F9428
:10586000C94F40E050E06BE581E20F94C94F40E042
:1058700050E06CE581E20F94C94F40E050E060E0F9
:105880008BE10F94C94F40E050E06AE781E20F944A
:10589000C94F40E050E069E781E20F94C94F809121
:1058A000181E8E7F8093181E0C946A5E1092FB095E
:1058B00010921312E6EAF8E084918F01882351F0E8
:1058C000082E000C990B0F94E2830F5F1F4FF80115
:1058D0008491F4CF1092FF0840E050E065E08AE048
:1058E0000F94C94F40E050E06BE581E20F94C94F3F
:1058F00040E050E06CE581E20F94C94F40E050E099
:1059000060E08BE10F94C94F40E050E06AE781E22C
:105910000F94C94F40E050E069E781E20F94C94F0E
:105920008091181E8E7F8093181E0C946A5E41E051
:1059300050E06BE581E20F94C94F40E050E06CE528
:1059400081E20F94C94F41E050E060E08BE10F9499
:10595000C94F41E050E06AE781E20F94C94F41E04E
:1059600050E069E781E20F94C94F1092E7120C945E
:105970006A5E40E050E06BE581E20F94C94F41E080
:1059800050E06CE581E20F94C94F41E050E060E0E7
:105990008BE10F94C94F41E050E06AE781E20F9438
:1059A000C94F41E050E069E781E20F94C94F81E0BF
:1059B0008093E7120C946A5E8091A1029091A202FA
:1059C0008036974041F488E793E09093A202809359
:1059D000A1020F94CE668091E7128F3F11F40C94D0
:1059E0006A5E0F94AFAB0C946A5E8091A1029091B5
:1059F000A2028036974041F488E793E09093A20298
:105A00008093A1020F94CE66E091E712EF3F11F46C
:105A10000C946A5E81E08093920CF0E0EE0FFF1F21
:105A2000E65CF54F84E091E0918380830F94B91C8C
:105A300081E48093940C40E050E068E08AE00F94A9
:105A4000C94F80916113882311F040E001C041E00B
:105A500061E081E00F945F6A0F946B1E8091940C5B
:105A60008E3409F479CD80E090E0A3E4B3E4809330
:105A70005D0A90935E0AA0935F0AB093600A8090DB
:105A8000D3129090D412A090D512B090D61220913B
:105A9000590A30915A0A40915B0A50915C0A609110
:105AA000550A7091560A8091570A9091580AA8E4B5
:105AB0006A2EAAE07A2E7F926F92B1E6CB2EBAE0E0
:105AC000DB2EE12CF12C03E413E40F946B380F94DC
:105AD0006B1E0F900F908091940C8E3409F43CCD86
