:100000000C9424170C9455170C9455170C945517F1
:100010000C9455170C9455170C9455170C945517B0
:100020000C9455170C9455170C9455170C945517A0
:100030000C9455170C9455170C9455170C9413A346
:100040000C9455170C9455170C9455170C94551780
:100050000C9455170C9455170C9439AE0C9412ACA3
:100060000C9455170D9431440D9407440C94551776
:100070000C9455170C9455170C9455170C94551750
:100080000D9408000C9455170C9455170C945517A3
:100090000C9455170C9455170C9455170C94551730
:1000A0000C9455170C9455170C9455170C94551720
:1000B0000C9455170C9455170C9455170C94551710
:1000C0000C9455170C9455170C9455170D94D24356
:1000D0000D94A8430C9455170C9455170C94551770
:1000E0000C945517D95E7861CE339231975CCC2C45
:1000F000F35FE22C78617861A93C212DAC2C78610A
:10010000082AFD297861A73D786178611E3FFE5F6E
:1001100037447B44BF440345DD4647451A602944C4
:100120009248E05EF43DE53D8B45CD45C638D72C81
:100130007E2AAC2C7231DE3F8A31B05F945482311A
:100140007A31D15F755E7861C033A95F143B854019
:10015000EA2C292A132A7861CE38FB2D9E3E78613D
:100160009A5F7D5FD84DB935542C0E528F39885522
:100170001E36284E335FEF5E8C33703470344C344F
:100180008336EC36552F3A2D532D0C342E34F2296C
:100190001E2A78617861AC2C0034F22F1430802D47
:1001A0007D3F573F1A60935F845F625E655C1A60B3
:1001B0001A605159E15DB55D895D055D315D5D5D3B
:1001C000AB5E17611649A0488C496C4BF64A804AD1
:1001D00078611A60975C373050300034975C136058
:1001E0007861EE5178611146C850644C183B5D2A25
:1001F0007A5B554699467861F546033EA63E9E3E9B
:100200008F37BA37E537B63EA437CF37FA373A38A3
:1002100025380B33F532AE3E9B3118329C32C93251
:10022000CC591C33384D10387C4C7861786178613A
:1002300078617861786178617861DE3F862D8E2DF6
:10024000B42D1A5B565BA24CC84CD84DC850D45044
:10025000FE51786107556B559A54EE5415539655D7
:1002600078613253E13B4857B13C793D8C57EC4CB7
:1002700078611A566456B056FC561256124D786183
:10028000D057D258F95A7861D951B05A786178610B
:10029000095B7861522E80541E533E530B54135405
:1002A000AC2C885478617861786178617861786184
:1002B000786178617861565CA25E78617861786176
:1002C000786178617861786178610E5C78617861D5
:1002D0007861786178617861786178619759A75918
:1002E000FE587861786178617861786178617861C9
:1002F0007861786178617861786178617861786136
:100300007861786178617861786178617861786125
:100310007861786178617861786178617861786115
:100320007861786178617861786178617861786105
:10033000786178617861786178617861EB43AD4389
:10034000544816487861786178617861786178619D
:1003500078617861786178617861786178617861D5
:1003600078617861786178617861786178617861C5
:1003700078617861786178617861786178617861B5
:100380007950985092314A2E352F7861CD5EB75909
:10039000FE2CB12F786178617861D05578617861F1
:1003A0007861786178617861786178617861263404
:1003B000862FC5597B331A377861A45578617861E7
:1003C00078617861CD5E78617861B333535066505F
:1003D000CD5EAB5ED4A9D7A9C6A9CAA9D0A90EAAD9
:1003E000DBA9DFA9E5A9E9A9EDA9F3A9F7A9FBA96B
:1003F0000EAA01AA05AA09AA2EAB33AB38AB42ABB1
:100400004CABC5AB56AB5EAB66AB70AB7AAB84ABFB
:1004100093AB9DABC5ABA7ABB1ABBBABC3AED0AEE3
:10042000ECAEF9AE13AF20AF3AAF3CAF3EAF40AF4A
:1004300048AF74027E02600268027A0268025202C9
:10044000720254025802800270025C02780250026A
:100450007C026C02084AD73B3BCE016E84BCBFFDD8
:10046000C12F3D6C74319ABD56833DDA3D00C77F84
:1004700011BED9E4BB4C3E916BAAAABE000000801D
:100480003F05A84CCDB2D44EB93836A9020C50B9AC
:10049000918688083CA6AAAA2ABE000000803F00D8
:1004A0000D94EA140D947F150D948E140D941CBABE
:1004B0000D94AC140D94621D0D9489160D94B1B178
:1004C0000D94C2150D9411790D94E6780D94220EB9
:1004D0000D949D150D94631D0D9461150D9461D1BE
:1004E0000D946B160D9470140D9452140D944E438C
:1004F0000D94A6160D942C150D94CA140D94081580
:100500000D944D164E414E494E495459494E46CDD3
:10051000CCCC3D0AD7233C17B7D13877CC2B3295BA
:1005200095E6241FB14F0A000020410000C8420098
:10053000401C4620BCBE4CCA1B0E5AAEC59D7463FF
:1005400064696E6F70737578585B003B202020756E
:100550007365526166742C2564004D363035205326
:1005600025640043616C63756C75733A2020004309
:10057000616C63756C75733A20200043616C637520
:100580006C75733A20200053757266696E6720306F
:100590000A004733340053757266696E6720300A6B
:1005A0000047323820583020593000543000543140
:1005B0000054300054300053757266696E67203005
:1005C0000A0047343300473433004734310047349E
:1005D0003000473334004734330047343300473466
:1005E0003100473430004D3834004D3834004D3838
:1005F00034005A32204F66667365743A20004F4BC0
:10060000207365636F6E64204578747275646572DB
:10061000210A005A20706F736974696F6E3A200066
:100620005A20706F736974696F6E3A20004D3834C8
:10063000005A312050726F6265206F666673657470
:100640003A20004F4B2066697273742045787472AB
:100650007564657221200A005A20706F736974698D
:100660006F6E3A20005A20706F736974696F6E3A2A
:10067000200043616C63756C75733A202000436100
:100680006C63756C75733A20200043616C63756C04
:1006900075733A20200043616C63756C75733A2062
:1006A000200036302064656772656573200A005447
:1006B000300054300054300043616C6962726174E0
:1006C000696F6E205375636365737366756C0A009A
:1006D0005430004A756D70206F76657220736372B6
:1006E00065773120616E6420736372657732200A0A
:1006F000004A756D70206F7665722073637265773E
:1007000031200A0047333400473334004733340084
:10071000543000473334004C6F6164696E670A00DF
:1007200053757266696E6720300A00537572666988
:100730006E6720300A0053757266696E6720300A52
:100740000053757266696E6720300A0053757266D1
:10075000696E6720300A0054300053757266696E06
:100760006720300A004D33340053757266696E6736
:1007700020300A004D3234004D3233202573004DB5
:100780003234004D32332025730054686520666989
:10079000727374206C61796572207072696E746511
:1007A0006420776974682074686520257320486F19
:1007B00074656E640A77696C6C2062652064697385
:1007C000746F727465642062792025642E2531640B
:1007D000253164206D6D0053757266696E67203037
:1007E0000A0053757266696E6720300A005375728D
:1007F00066696E6720300A0025732065787472750B
:10080000646572005374617274696E67205A204384
:10081000616C6962726174696F6E2057697A617286
:10082000640A0025732065787472756465720047E8
:100830003639204143544956415445440A002E0A52
:100840000044656C6574696F6E206661696C6564EF
:100850002C2046696C653A200046696C6520646509
:100860006C657465643A002E0A006F70656E2066D0
:1008700061696C65642C2046696C653A20004265AC
:1008800064204865617465640A0020573A00204579
:1008900000205A00205900483D5800205A3A0020B4
:1008A000593A0020436F756E7420583A2000204555
:1008B0003A00205A3A0020593A00583A007A5F6DBF
:1008C000696E3A2000795F6D61783A2000785F6D3B
:1008D00061783A2000785F6D696E3A2000205020E0
:1008E00000205A200020592000536574204D3533D4
:1008F0003020582000486F74656E64206F66667300
:100900006574733A00504F534954494F4E20484F35
:100910004D453A2000220A00556E6B6E6F776E20AF
:10092000636F6D6D616E643A202200526561647977
:1009300020746F2053746172740A002564206B6DFB
:100940000067636F646520666F756E640A002074CB
:100950006F20537461727420446973706C617920E4
:1009600066726F6D20526573657400546F6F6B20F3
:1009700000646973706C6179206F6E6C696E6521BB
:10098000002E002053544F50205052494E54200AFC
:1009900000473238205830205930004D3335004759
:1009A000373000524553554D450A00504155534587
:1009B0000A004D383420582059205A2045004D3126
:1009C000303700543000496E7374616C6C202564BC
:1009D000202573206F6E2074686520257320686F52
:1009E00074656E6400257320657874727564657231
:1009F00000496E7374616C6C202564202573206F30
:100A00006E2074686520257320686F74656E6400BD
:100A100025752E2530327500523139005231362F6E
:100A20005231370025752E2530327500523139008C
:100A30005231362F52313700417420426F74746F37
:100A40006D20537469636B657200253033642E2505
:100A5000303364253033642E253034640050757291
:100A600067652046696C616D656E740A0053757226
:100A700066696E6720310A0053757266696E672079
:100A8000300A004252494748544E4553533A2000D9
:100A9000220A00656E717565696E67202200220A60
:100AA00000656E717565696E67202200202F002039
:100AB000400020403A0070012C0190012701B00154
:100AC0002201C0011D01F0011801100213013002C2
:100AD0000E016002090190020401C002FF00000340
:100AE000FA004003F5008003F000D003EB0020047F
:100AF000E6007004E100E004DC004005D700C0051A
:100B0000D2004006CD00D006C8008007C3003008E0
:100B1000BE00F008B900C009B400B00AAF00B00BC5
:100B2000AA00D00CA500000EA000500F9B00C01022
:100B300096005012910000148C00C0158700B01769
:100B40008200B0197D00D01B7800001E7300402089
:100B50006E0090226900F024640040275F00902915
:100B60005A00E02B5500102E500020304B00103260
:100B70004600E033410090353C00103737007038B4
:100B80003200A0392D00B03A2800A03B2300603C81
:100B90001E00103D1900903D1400103E0F00703EE5
:100BA0000A00C03E0500003F00004572726F7228C7
:100BB0003833293A2042656420746865726D697320
:100BC000746F72206E6F74206465746563746564FD
:100BD0000A004572726F72283832293A20526967CA
:100BE000687420746865726D6973746F72206E6FBB
:100BF000742064657465637465640A004572726F7D
:100C000072283831293A204C656674207468657200
:100C10006D6973746F72206E6F74202064657465E3
:100C2000637465640A002053544F50205052494E5B
:100C300054200A004572726F72283833293A2042D4
:100C4000656420746865726D6973746F72206E6F6D
:100C5000742064657465637465640A002053544F9E
:100C600050205052494E54200A004572726F72282B
:100C70003832293A20526967687420746865726D49
:100C80006973746F72206E6F742064657465637429
:100C900065640A002053544F50205052494E54204E
:100CA0000A004572726F72283831293A204C656605
:100CB0007420746865726D6973746F72206E6F74DE
:100CC000202064657465637465640A002053544F82
:100CD00050205052494E54200A004552524F52283B
:100CE0003839293A20424544206973206E6F7420B8
:100CF00068656174696E67002053544F50205052EC
:100D0000494E54200A004552524F52283839293A48
:100D100020486F74656E64202564206973206E6FAF
:100D2000742068656174696E67006563686F3A0076
:100D300000002100240027002A002D00300033008D
:100D400001010000040107010A0100002200250042
:100D500028002B002E0031003400020100000501A4
:100D600008010B01000020002300260029002C00B0
:100D70002F003200000100000301060109010505F2
:100D80000505070508080808020202020A0A080801
:100D9000040404040101010101010101030303032F
:100DA00003030303040707070C0C0C0C0C0C0C0CBE
:100DB0000202020206060606060606060B0B0B0BCF
:100DC0000B0B0B0B010210202008081020401020F4
:100DD00040800201020108040201010204081020FF
:100DE00040808040201008040201800402018040FD
:100DF0002010080402010804020101020408102066
:100E00004080010204081020408000000A0B020903
:100E10000C0D0E0807030401000000000000000094
:100E200000000000000000000000000000000000C2
:100E3000000000000000121110000000000000007F
:100E400000000000000000000000000000000000A2
:100E50004578747275646572204865617465640ACA
:100E60000020573A004649524D574152455F4E4186
:100E70004D453A4D61726C696E2042434E334420B9
:100E80005369676D613B204649524D574152455F5A
:100E900056455253494F4E3A30312D312E332E3074
:100EA00052433B204649524D574152455F55524CA3
:100EB0003A68747470733A2F2F6769746875622E7C
:100EC000636F6D2F42434E33442F42434E3344539E
:100ED00069676D612D4669726D776172653B20505F
:100EE000524F544F434F4C5F56455253494F4E3A21
:100EF000312E303B204D414348494E455F545950B7
:100F0000453A42434E3344205369676D613B204567
:100F1000585452554445525F434F554E543A323B14
:100F200020555549443A00486F74656E64206F66D9
:100F300066736574733A00504944204175746F7448
:100F4000756E652066696E697368656421205075E9
:100F50007420746865206C617374204B702C204B76
:100F60006920616E64204B6420636F6E7374616EE0
:100F700074732066726F6D2061626F766520696E92
:100F8000746F20436F6E66696775726174696F6E06
:100F90002E680A00504944204175746F74756E655F
:100FA000206661696C6564212074696D656F757474
:100FB0000A0020403A006F6B20543A006F6B2042C9
:100FC0003A00504944204175746F74756E6520660F
:100FD00061696C6564212054656D7065726174751A
:100FE000726520746F6F20686967680A00204B641F
:100FF0003A2000204B693A2000204B703A20002014
:10100000436C617373696320504944200A00205483
:10101000753A2000204B753A2000206D61783A2007
:1010200000206D696E3A200020643A200020626939
:1010300061733A2000535441544953544943532057
:1010400052455345540A002C2073617665645F460F
:101050006C61675F66616E6C617965725F6D697204
:10106000726F723A20002C2073617665645F66654A
:10107000656472617465313A20002C207361766575
:10108000645F6665656472617465303A20002C2087
:1010900073617665645F66616E6C617965723A2032
:1010A000002C2073617665645F74656D70626564A1
:1010B0003A20002C2073617665645F74656D703032
:1010C0003A20002C2073617665645F74656D703121
:1010D0003A20002C2073617665645F66696C6570E8
:1010E0006F736974696F6E3A20002C2073617665A6
:1010F000645F655F706F736974696F6E3A20002C6E
:101100002073617665645F746F6F6C5F616374698F
:1011100076653A20002C2073617665645F7A5F7093
:101120006F736974696F6E3A20002C207361766565
:10113000645F795F706F736974696F6E3A20002C19
:101140002073617665645F785F706F736974696F2F
:101150006E3A200053415645205052494E54204C7F
:101160004F473A0A006563686F3A005072696E74BF
:10117000207265636F766572792075700A004E6F14
:1011800074207072696E74207265636F766572790F
:101190002075700A00456E642066696C65206C6974
:1011A00073740A00426567696E2066696C65206C1D
:1011B0006973740A0043617264204E616D653A2060
:1011C000002F005344207072696E74696E6720624C
:1011D00079746520004E6F74205344207072696EDC
:1011E00074696E670A004732382058302059300041
:1011F0002569206D696E2C20256920736563000ABE
:101200000A005374616E646172642044657669619A
:1012100074696F6E3A20000A004D65616E3A2000D5
:101220000A002020207A3A20000A00793A2000782B
:101230003A20003F537065636966696564206E7586
:101240006D626572206F66206C65677320696E2021
:101250006D6F76656D656E74206E6F7420706C6155
:10126000757361626C652E0A003F53706563696631
:10127000696564205920706F736974696F6E206F9F
:101280007574206F662072616E67652E0A003F5389
:101290007065636966696564205820706F7369744E
:1012A000696F6E206F7574206F662072616E67655E
:1012B0002E0A003F53706563696669656420736137
:1012C0006D706C652073697A65206E6F7420706C28
:1012D00061757361626C652E0A0046756C6C2073D3
:1012E0007570706F72742061743A20687474703A0B
:1012F0002F2F33647072696E74626F6172642E6333
:101300006F6D2F666F72756D2E7068700A004D34A8
:1013100038205A2D50726F62652052657065617475
:101320006162696C69747920746573742E20202061
:1013300056657273696F6E20322E30300A003F5648
:101340006572626F7365204C6576656C206E6F7494
:1013500020706C61757361626C652E0A006F6B00A2
:101360004D3834005374617274696E67205820439D
:10137000616C6962726174696F6E2057697A61721B
:10138000640A004D3834005374617274696E6720CA
:10139000592043616C6962726174696F6E2057698C
:1013A0007A6172640A003B2020204275696C6420D7
:1013B00074696D653A2025642025732025642025F5
:1013C00073003B5072696E742074696D653A202514
:1013D000642025732025642025732025642025732F
:1013E000003B54494D453A256C64003B2020205079
:1013F0006C6173746963207765696768743A202546
:10140000642E256467003B46696C616D656E7420CF
:10141000757365643A2025642E25646D2025642E3D
:10142000256467003B46696C616D656E7420757359
:1014300065643A20256C642E256C646D003B45780C
:101440007472756465727320757365643A205425EF
:10145000642025642E2564205425642025642E25CF
:1014600064003B202020657874727564657244695D
:10147000616D657465722C25642E25642C25642E9F
:101480002564002E2E2E2054696D656F7574210021
:101490002A2A2A2047656E69652057726974654F4C
:1014A000626A656374202A2A2A202D2D2D3E002E83
:1014B0002E2E204E414B2021002A2A2A2047656EDD
:1014C00069652057726974654F626A656374202A82
:1014D0002A2A202D2D2D3E002E2E2E2041434B203A
:1014E00021002A2A2A2047656E696520577269748F
:1014F000654F626A656374202A2A2A202D2D2D3EAD
:10150000002A2A2A2047656E6965204261642042CC
:10151000797465202A2A2A202D2D2D3E203078002E
:101520002056616C75653A200020496E6465783AF2
:1015300020002A2A2A2047656E6965205265706F4F
:101540007274204F626A656374202A2A2A204F62CF
:101550006A6563743A20002A2A2A2047656E696505
:1015600020436F6E6E6563746564202F2053796E1F
:101570006321202A2A2A002056616C75653A2000D2
:1015800020496E6465783A20002A2A2A2047656E31
:101590006965205265706F7274204576656E74209F
:1015A0002A2A2A204F626A6563743A2000204C651B
:1015B0006E6774683A20002A2A2A2047656E69659A
:1015C000205265636569766564204D6167696320B3
:1015D000446F75626C65204279746573202A2A2AEB
:1015E00020496E6465783A2000204C656E67746807
:1015F0003A20002A2A2A2047656E696520526563D1
:101600006569766564204D61676963204279746518
:1016100073202A2A2A20496E6465783A20002A2AF3
:101620002A2047656E6965204E414B205265636FE5
:101630007665727920212121202A2A2A002A2A2A45
:101640002047656E696520446973636F6E6E6563DC
:101650007465642066726F6D20446F4576656E74A4
:101660007321202A2A2A002A2A2A2047656E6965C2
:1016700020546F6F6B20746F6F206C6F6E672074D7
:101680006F2072652D656E74657220446F457665B6
:101690006E747328292C20726564756365206465F7
:1016A0006C61797320696E20636F64652C207365AB
:1016B0006C662D70726F74656374696F6E20656EF1
:1016C00061626C65642E202A2A2A0024F4D43050EA
:1016D000C38E20C2A24017828B7011127A910D81A5
:1016E0006CD90AA861E108C7586607615143061E14
:1016F0004B5D05C145A7041A411104093D980371CA
:101700003931034036DB0265339102D43054028014
:101710002E1D02632CEE01752AC501B028A0011010
:101720002781018F2564012B244B01E0223401AC79
:10173000211F018D200D01801FFC00841EED0097EC
:101740001DDF00B81CD200E61BC600201BBC0064D5
:101750001AB200B219A8000A19A0006A189900D19B
:1017600017910040178B00B516840031167E00B328
:101770001579003A157300C7146F0058146A00EE0B
:101780001366008813630025135E00C7125B006CAC
:1017900012570015125400C111510070114F002151
:1017A000114B00D61049008D10470046104400022E
:1017B000104200C00F4000800F3E00420F3C000668
:1017C0000F3B00CB0E3800930E37005C0E35002720
:1017D0000E3400F30D3200C10D3100900D30006069
:1017E0000D2E00320D2D00050D2C00D90C2B00AE56
:1017F0000C2900850C29005C0C2700350C27000EF5
:101800000C2600E80B2400C40B2400A00B23007D51
:101810000B23005A0B2100390B2100180B2000F874
:101820000A1F00D90A1E00BB0A1E009D0A1D008067
:101830000A1D00630A1C00470A1B002C0A1B00112A
:101840000A1A00F7091A00DD091900C4091900ABCA
:10185000091900920917007B091800630917004C49
:1018600009160036091600200916000A091500F5A8
:10187000081500E0081400CC081400B8081400A4EF
:10188000081400900813007D0812006B081300581C
:101890000812004608120034081100230811001233
:1018A00008110001081100F0071000E0071000D037
:1018B000071000C0071000B0070F00A1071000912B
:1018C000070E0083070F0074070F0065070E00570F
:1018D000070E0049070E003B070D002E070E0020E3
:1018E000070D0013070D0006070D00F9060C00EDAB
:1018F000060D00E0060C00D4060C00C8060C00BC67
:10190000060C00B0060C00A4060B0099060C008D16
:10191000060B0082060B0077060B006C060B0061BD
:10192000060A0057060B004C060A0042060A003859
:10193000060A002E060A0024060A001A060A0010EB
:1019400006090007060A00FD050900F4050900EB79
:10195000050900E2050900D9050900D0050900C7FD
:10196000050900BE050900B5050800AD050800A57C
:101970000509009C050800940508008C05080084F2
:101980000508007C050800740508006C0507006563
:101990000508005D050700560508004E05070047CD
:1019A0000507004005080038050700310507002A33
:1019B000050700230507001C050600160507000F94
:1019C0000507000805060002050700FB040600F5F0
:1019D000040700EE040600E8040600E2040700DB4A
:1019E000040600D5040600CF040600C9040600C39F
:1019F000040600BD040600B7040600B1040500ACEF
:101A0000040600A6040600A00405009B0406009539
:101A1000040500900406008A040500850405008082
:101A20000406007A04050075040500700405006BC7
:101A300004050066040500610405005C0405005708
:101A4000040500520405004D040500480405004348
:101A50000405003E0404003A040500350405003086
:101A60000404002C04050027040400230405001EC0
:101A70000404001A04040016040500110404000DF7
:101A8000040400090405000404040000040400FC2C
:101A9000030400F8030400F4030400F0030400EC62
:101AA000030400E8030400E4030400E0030400DC92
:101AB000030400D8030400D4030400D0030400CCC2
:101AC000030400C8030300C503030024F404D92061
:101AD0001BC40C5C0E9804C4095F0265077101F415
:101AE00005F900FB04B30048048700C103690058EE
:101AF00003550003034500BE023A0084023100533F
:101B0000022A002902250004022000E4011C00C86A
:101B1000011900AF0117009801140084011300712E
:101B20000110006101100051010E0043010D00364B
:101B3000010B002B010B0020010B00150109000C0B
:101B400001090003010800FB000800F3000800EB96
:101B5000000700E4000600DE000600D8000600D200
:101B6000000600CC000500C7000500C2000500BD4E
:101B7000000400B9000400B5000400B1000400AD89
:101B8000000400A9000400A5000300A20003009FB8
:101B90000004009B000300980003009500020093DE
:101BA000000300900003008D0002008B00030088FA
:101BB0000002008600020084000300810002007F12
:101BC0000002007D0002007B000200790002007725
:101BD0000001007600020074000200720001007132
:101BE0000002006F0002006D0001006C0002006A3C
:101BF0000001006900020067000100660001006545
:101C00000001006400020062000100610001006048
:101C10000001005F0002005D0001005C0001005B4C
:101C20000001005A0001005900010058000100574E
:101C3000000100560001005500010054000100534E
:101C4000000000530001005200010051000100504B
:101C50000001004F0001004E0000004E0001004D49
:101C60000001004C0001004B0000004B0001004A45
:101C70000001004900010048000000480001004741
:101C8000000100460000004600010045000000453C
:101C90000001004400010043000000430001004235
:101CA000000000420001004100000041000100402E
:101CB0000001003F0000003F0001003E0000003E28
:101CC0000001003D0000003D0001003C0000003C20
:101CD0000000003C0001003B0000003B0001003A16
:101CE0000000003A0001003900000039000100380E
:101CF0000000003800000038000100370000003705
:101D000000010036000000360000003600010035FA
:101D100000000035000000350001003400000034F0
:101D200000000034000100330000003300000033E5
:101D300000010032000000320000003200010031DA
:101D400000000031000000310001003000000030D0
:101D5000000000300001002F0000002F0000002FC5
:101D60000000002F0001002E0000002E0000002EB9
:101D70000001002D0000002D0000002D0000002DAE
:101D80000001002C0000002C0000002C0000002CA2
:101D90000001002B0000002B0000002B0000002B96
:101DA0000001002A0000002A0000002A0000002A8A
:101DB000000100290000002900000029000000297E
:101DC0000000002900010028000000280000002871
:101DD0000000002800000028000100270000002764
:101DE0000000002700000027000000270001002657
:101DF000000000260000002600000026000000264B
:101E0000000100250000002500000025000000253D
:101E1000000000250000002500010024000000242F
:101E20000000002400000024000000240001002322
:101E30000000002300000023000000230000002316
:101E40000000002300000023000100220000002207
:101E500000000022000000220000002200000022FA
:101E600000010021000000210000002100000021ED
:101E700000000021000000210000002100010020DE
:101E800000000020000000200000002000000020D2
:101E90000000002000000020000000200001001FC2
:101EA0000000001F0000001F0000001F0000001FB6
:101EB0000000001F0000001F0001001E0000001EA7
:101EC0000000001E0000001E0000004879737465C9
:101ED00072657369732074656D7065726174757273
:101EE000650A00546865726D616C2072756E617769
:101EF00061792070726F74656374696F6E206279A6
:101F0000204865617465725F49443A0A007C3C3E32
:101F10005E2B3D3F2F5B5D3B2C2A225C00526561AE
:101F2000647920746F204C6F61642F556E6C6F6103
:101F300064200A0053757266696E672030200A00BB
:101F40005430004D383420582059205A204500453F
:101F500072726F7220577269746520454550524FF6
:101F60004D0053657474696E67732053746F7265A6
:101F7000640A00204D696E75746573203A00202054
:101F80004C617374207072696E742074696D652D74
:101F90003E20486F757273203A004C617374207054
:101FA00072696E74206475726174696F6E0A002CB8
:101FB000205468697264204944206E756D626572B0
:101FC00020002C205365636F6E64204944206E7599
:101FD0006D6265723A200020204669727374204950
:101FE00044206E756D6265723A2000554920496E35
:101FF000666F726D6174696F6E2053657269616C92
:10200000204E756D6265723A0A00206D2C204531B4
:10201000207072696E742064697374616E63653ACE
:102020002000206B6D2C204530207072696E74206A
:1020300064697374616E63653A2000206B6D2C20B7
:1020400059207072696E742064697374616E63657F
:102050003A2000206B6D2C205831207072696E740C
:102060002064697374616E63653A200020432C0A12
:10207000205830207072696E742064697374616EC8
:1020800063653A200020432C206D61782074656DD3
:102090007020423A200020432C206D617820746526
:1020A0006D7020523A20002C206D61782074656D8F
:1020B00070204C3A2000682C207072696E74732076
:1020C00066696E69736865643A20002C20707269D5
:1020D0006E74696E672074696D653A200020207007
:1020E00072696E74733A200053544154533A0A0093
:1020F00020432C20525F5052494E543A2000204336
:102100002C20525F4245443A200020432C20525F4D
:1021100052454D4F56453A20002020525F494E53BC
:102120004552543A200054656D70202843293A0ADC
:102130000020432C204C5F5052494E543A2000203E
:10214000432C204C5F4245443A200020432C204C35
:102150005F52454D4F56453A200020204C5F494E76
:10216000534552543A200054656D70202843293A53
:102170000A0020562856657273696F6E2920002068
:1021800052284265642072696768742073637265BF
:102190007729200020204D353331204C28426564BA
:1021A000206C656674207363726577292000426530
:1021B00064204F66667365747320286D6D293A0A32
:1021C000002050285A2070726F62652900205A2022
:1021D000002059200020204D353330205820004F5A
:1021E00066667365747320286D6D293A0A00204471
:1021F00000204900202D204D3330312052494748DE
:102200005420500020440020490020204D3330311C
:10221000204C454654205000504944207365747446
:10222000696E67733A0A00205A0020590020204D39
:10223000323036205800486F6D65206F66667365D2
:102240007420286D6D293A0A00204500205A00208C
:10225000580020420020540020204D3230352053B9
:1022600000416476616E63656420766172696162C3
:102270006C65733A20533D4D696E206665656472E6
:1022800061746520286D6D2F73292C20543D4D6994
:102290006E2074726176656C206665656472617427
:1022A0006520286D6D2F73292C20423D6D696E6964
:1022B0006D756D207365676D656E742074696D65ED
:1022C00020286D73292C20583D6D6178696D756DDE
:1022D000205859206A65726B20286D6D2F73292C48
:1022E00020205A3D6D6178696D756D205A206A65B0
:1022F000726B20286D6D2F73292C2020453D6D6158
:1023000078696D756D2045206A65726B20286D6D4A
:102310002F73290A0020540020204D3230342053DE
:1023200000416363656C65726174696F6E3A205336
:102330003D616363656C65726174696F6E2C2054D6
:102340003D7265747261637420616363656C65726C
:102350006174696F6E0A00204500205A0020590000
:1023600020204D3230312058004D6178696D756DF7
:1023700020416363656C65726174696F6E20286DBE
:102380006D2F7332293A0A00204500205A00205947
:102390000020204D3230332058004D6178696D7532
:1023A0006D2066656564726174657320286D6D2F9C
:1023B00073293A0A00204500205A002059002020A5
:1023C0004D39322058005374657073207065722047
:1023D000756E69743A0A005341564544205052497B
:1023E0004E540A007A70726F62653A20005344209E
:1023F00063617264206F6B0A006F70656E526F6F5D
:1024000074206661696C65640A00766F6C756D6531
:102410002E696E6974206661696C65640A00457294
:10242000726F723A00534420696E69742066616964
:102430006C0A006563686F3A004D3234004D3233E8
:10244000202573006175746F25692E67004D6972D0
:10245000726F72204D6F6465204F4E0A00436F6F9C
:102460006C696E6720446F776E2048656174657291
:102470000A00202D20496E76616C696420657874AD
:102480007275646572206E756D62657220210A0036
:102490004572726F723A00646973706C6179206F73
:1024A00066666C696E650042434E3344205369672B
:1024B0006D610A0073746172740A006563686F3A33
:1024C0000030312D312E332E3052430A00657272A6
:1024D0006F722077726974696E6720746F20666905
:1024E0006C650A00205A3A0020593A0020583A00F8
:1024F000656E6473746F7073206869743A20006548
:1025000063686F3A005468657265206973206E6F66
:10251000742066696C616D656E74206F6E207468DE
:102520006520726967687420657874727564657275
:102530000A005468657265206973206E6F742066A6
:10254000696C616D656E74206F6E20746865206CB7
:102550006566742065787472756465720A00446FEC
:102560006E6520736176696E672066696C652E0AF8
:10257000006F6B0A004D3239000A0020616E7469E9
:10258000686F726172690A3A200020686F72617226
:10259000690A20002F3800766F6C74657320002064
:1025A000566F6C74657320636172676F6C20333A89
:1025B000200020616E7469686F726172690A3A2046
:1025C0000020686F726172690A20002F3800766FF0
:1025D0006C746573200020566F6C746573206361A2
:1025E00072676F6C20323A20000A0020647A333A16
:1025F000200020647A323A200054310054300054D4
:1026000030005430000A0056756974656E73333AB1
:102610002020004170726F78333A202000566F6C92
:10262000746573333A2020000A0056756974656E2C
:1026300073323A2020004170726F78323A202000C5
:10264000566F6C746573323A20200056616C6F725D
:1026500020645A333A20200056616C6F7220645A0D
:10266000323A2020004E6577206F666673657420CD
:1026700076657273696F6E3A20007A335F313A2063
:10268000007A325F313A20005A7363726F6C6C5F6C
:10269000313A20007A335F303A20007A325F303AA4
:1026A00020005A7363726F6C6C5F303A20005A7668
:1026B000616C756520616674657220686F6D653A3E
:1026C00000486F6D6520582F59206265666F7265EE
:1026D000205A0A0000000000008093430000000020
:1026E0000000A0400000A0400000004020004D6F0E
:1026F000766520746F3A2000CDCC984300809343D8
:1027000000005243FF01FF20636F6C642065787402
:10271000727573696F6E2070726576656E7465642C
:102720000A006563686F3A005072696E74657220C2
:1027300068616C7465642E206B696C6C2829206359
:10274000616C6C6564210A004572726F723A0045D3
:10275000787472756465722072656C656173656406
:10276000206163746976653A20005A205349474DC9
:102770004120486F6D65640A004578747275646520
:1027800072206163746976653A200053554343456E
:1027900053530A0056616C756573206F7574206F12
:1027A000662072616E67650A0056616C75657320FC
:1027B0006F7574206F662072616E67650A005661DE
:1027C0006C756573206F7574206F662072616E671B
:1027D000650A0056616C756573206F7574206F66AD
:1027E0002072616E67650A00535543434553530A8F
:1027F0000056616C756573206F7574206F6620726A
:10280000616E67650A0056616C756573206F75743B
:10281000206F662072616E67650A0056616C75658F
:1028200073206F7574206F662072616E67650A0091
:1028300056616C756573206F7574206F66207261C8
:102840006E67650A004D6F64652032203A20637917
:10285000636C652020202D3E205247423A203620CE
:10286000737461746573002A2A2D3E20004D6F64D5
:10287000652031203A2072616E646F6D20202D3EFC
:10288000205247423A202B31202B32202B332C2050
:10289000647572696E67207072696E74696E670024
:1028A0002A2A2D3E20004D6F64652030203A206496
:1028B000656661756C74202D3E205247423A203285
:1028C00035352032353520323535002A2A2D3E2047
:1028D000004C6564206D6F646573203A004D35339C
:1028E00036204C5B6D6F64655D0054696D652069D1
:1028F0006E6163746976650A00507572676520645D
:10290000697374616E63650A005A204F6666736569
:1029100074206F6B0A005A204F6666736574203A04
:10292000200A007A5F6D61783A20007A5F6D696EE7
:102930003A20005A204F666673657400504F534921
:1029400054494F4E20484F4D453A200050494420AD
:102950004175746F74756E652066696E697368651C
:1029600064210A00504944204175746F74756E6586
:10297000206661696C6564212074696D656F75748A
:102980000A0020403A006F6B20543A006F6B2042DF
:102990003A00504944204175746F74756E65206625
:1029A00061696C6564212054656D70657261747530
:1029B000726520746F6F20686967680A00204B6435
:1029C0003A2000204B693A2000204B703A2000202A
:1029D000436C617373696320504944200A0020549A
:1029E000753A2000204B753A2000206D61783A201E
:1029F00000206D696E3A200020643A200020626950
:102A000061733A20003B20472D436F646520676562
:102A10006E6572617465642062792053696D706CB3
:102A200069667933442852292056657273696F6E3E
:102A3000202564002A2A2A2047656E69652044699A
:102A400073636F6E6E65637465642066726F6D206C
:102A50004765744E6578744279746521202A2A2A64
:102A6000002A2A2A2047656E696520456E61626CDE
:102A700065204174746163684576656E7448616E63
:102A8000646C657220212121202A2A2A0043616E6C
:102A90006E6F7420656E74657220737562646972FE
:102AA0003A200057726974696E6720746F206669F6
:102AB0006C653A20002E0A006F70656E20666169B1
:102AC0006C65642C2046696C653A20002E0A006F04
:102AD00070656E206661696C65642C2046696C6562
:102AE0003A200046696C652073656C6563746564A3
:102AF0000A002053697A653A200046696C65206FA8
:102B000070656E65643A20002E0A006F70656E2055
:102B10006661696C65642C2046696C653A20004EDC
:102B20006F772066726573682066696C653A20006D
:102B30004E6F7720646F696E672066696C653A2016
:102B4000002220706F73002220706172656E743AEB
:102B50002200535542524F5554494E452043414C53
:102B60004C207461726765743A2200747279696EE0
:102B70006720746F2063616C6C207375622D6763CE
:102B80006F64652066696C6573207769746820746A
:102B90006F6F206D616E79206C6576656C732E2089
:102BA0004D4158206C6576656C2069733A004D3153
:102BB0003037004E6577206C6179657220646574EA
:102BC00065637465640A003B206C61796572003B43
:102BD0004C4159455200256920686F757273202554
:102BE00069206D696E7574657300446F6E65207041
:102BF00072696E74696E672066696C650A004D3390
:102C000033005061757365207061726B696E670A7D
:102C100000473639005072696E7465722073746FA4
:102C2000707065642064756520746F206572726FC2
:102C300072732E2046697820746865206572726F01
:102C40007220616E6420757365204D3939392074A6
:102C50006F20726573746172742E202854656D70D4
:102C6000657261747572652069732072657365742D
:102C70002E20536574206974206166746572207219
:102C8000657374617274696E67290A006F6B0A005C
:102C90004E6F204C696E65204E756D6265722077AF
:102CA00069746820636865636B73756D2C204C6173
:102CB0007374204C696E653A20004E6F204368653E
:102CC000636B73756D2077697468206C696E65201D
:102CD0006E756D6265722C204C617374204C696E48
:102CE000653A2000636865636B73756D206D697369
:102CF0006D617463682C204C617374204C696E653F
:102D00003A20004C696E65204E756D6265722069CF
:102D100073206E6F74204C617374204C696E652053
:102D20004E756D6265722B312C204C617374204C92
:102D3000696E653A20004D31313000CDCC984300AA
:102D40008093430000524300000000000000000098
:102D50000000000A00207A3A200020793A20002062
:102D6000783A200042656400457874727564657233
:102D70002072656C65617365642061637469766552
:102D80003A20005A205349474D4120486F6D6564F1
:102D90000A0045787472756465722061637469769F
:102DA000653A200053746F726564207365747469AA
:102DB0006E6773207265747269657665640A00488F
:102DC000617264636F6465642044656661756C74E8
:102DD0002053657474696E6773204C6F6164656419
:102DE0000A0048617264636F6465642043616C69C2
:102DF0006220616E64205049442044656661756CB0
:102E0000742053657474696E6773204C6F616465D8
:102E1000640A00526573656E643A20006F6B0A00A5
:102E20004475706C69204D6F6465204F4E0A000A2E
:102E300000205A3A200020593A200020583A200019
:102E4000426564005E02560211241FBECFEFD1E23C
:102E5000DEBFCDBF00E00CBF17E0A0E0B2E0E4EBC6
:102E6000F7EA03E00BBF02C007900D92A639B10745
:102E7000D9F72DE1A6E9B7E001C01D92AB34B20746
:102E8000E1F717E1C3E2D7E100E006C021970109AD
:102E9000802FFE010F94B6D0C232D10780E0080720
:102EA000A9F70F94A4B30D94C9D30C9400002F92EA
:102EB0003F924F925F926F927F928F929F92AF92CA
:102EC000BF92CF92DF92EF92FF920F931F93CF9317
:102ED000DF93CDB7DEB7C352D1400FB6F894DEBF53
:102EE0000FBECDBF2DB73EB7CE5DDE4F39832883F1
:102EF000C252D14011E0109340088091CC0781115B
:102F00000CC00E9406AC6093C8077093C9078093F9
:102F1000CA079093CB071093CC078091C00781110B
:102F20000DC00E9406AC6093BC077093BD078093F0
:102F3000BE079093BF0781E08093C007909146162B
:102F4000409130025091310260913202709133020F
:102F5000911106C080914716882311F40C94AC2778
:102F60004A3951056105710511F40C94A3250CF043
:102F700008C14F3451056105710511F40C94782195
:102F80000CF083C0443251056105710511F40C94B5
:102F9000E522A4F5413151056105710511F40C9448
:102FA000E924A4F4423051056105710509F425C7EF
:102FB000403151056105710509F45CC2413051058C
:102FC0006105710511F00C9478618CC34331510592
:102FD0006105710509F4ABC50CF4C9C54032510552
:102FE0006105710511F40C94942541325105610578
:102FF000710511F40C9482250C9478614D335105C0
:103000006105710509F429C5FCF4423351056105D8
:10301000710509F4F2C644F44133510561057105A7
:1030200009F460C50C94786144335105610571055C
:1030300011F40C94E524453351056105710511F433
:103040000C9439260C94786144345105610571055E
:1030500011F40C9460234CF4413451056105710561
:1030600011F40C9433200C947861463451056105B9
:10307000710511F40C949E204E34510561057105C3
:1030800011F40C9409210C9478614E3851056105B6
:10309000710511F40C94AE21C4F54A355105610552
:1030A000710509F4D0C6A4F44735510561057105D1
:1030B00009F455C5483551056105710509F4F3C496
:1030C000433551056105710511F00C94786126C3F3
:1030D0004B3751056105710509F4B5C644F446370F
:1030E00051056105710509F464C50C9478614E378A
:1030F00051056105710509F4F5C1493851056105AE
:10310000710509F4BCC20C9478614439510561051C
:10311000710511F40C941922D4F44039510561055C
:10312000710511F40C94042214F40C94D921423941
:1031300051056105710511F40C94C3214339510502
:103140006105710511F40C94EE210C9478614639F7
:1031500051056105710511F40C94442214F40C948A
:103160005922473951056105710511F40C941F2648
:10317000483951056105710511F40C940E260C9423
:1031800078614A3E51056105710509F467C20CF08A
:10319000C3C0473A51056105710509F4CFC50CF06C
:1031A0005CC0413A51056105710511F40C942F2260
:1031B0009CF44C3951056105710511F40C94B52549
:1031C00014F40C94AC254D3951056105710511F4C9
:1031D0000C94E2250C947861443A5105610571051F
:1031E00009F4E5C5D4F4433A51056105710511F0C0
:1031F0000C9478618091370890913808A091390833
:10320000B0913A0880648093370890933808A0936F
:103210003908B0933A080C947861453A5105610534
:10322000710509F49EC5463A51056105710511F015
:103230000C9478618091370890913808A0913908F2
:10324000B0913A0880628093370890933808A09331
:103250003908B0933A080C947861433D51056105F3
:10326000710511F40C946827B4F4493A51056105CD
:10327000710509F489C50CF4ADC54A3A51056105DB
:10328000710509F435C54E3B51056105710509F419
:103290001CC40C947861433E51056105710509F425
:1032A000B5C4D4F4423E51056105710511F00C948A
:1032B00078618091370890913808A0913908B091D1
:1032C0003A0882608093370890933808A0933908B1
:1032D000B0933A080C947861443E5105610571053C
:1032E00009F4CDC4453E51056105710511F00C94FA
:1032F00078618091370890913808A0913908B09191
:103300003A0884608093370890933808A09339086E
:10331000B0933A080C947861483F510561057105F6
:1033200009F4D3C40CF03FC0403F5105610571055D
:1033300009F46AC284F44E3E51056105710509F431
:10334000C9C10CF019C24D3E51056105710509F462
:10335000F7C00C947861423F51056105710509F48D
:10336000DDC10CF4BFC1463F51056105710509F48B
:1033700099C4473F51056105710511F00C947861BE
:103380008091370890913808A0913908B0913A0897
:1033900090618093370890933808A0933908B093D0
:1033A0003A080C947861483631E05307610571059D
:1033B00011F40C943026B4F54A3F510561057105AE
:1033C00009F437C40CF4A7C44B3F510561057105DE
:1033D00009F442C4453651406105710511F00C9461
:1033E000786140E050E06AE28AE00E941AF640E02C
:1033F00050E064E581E20E941AF681E08093C10EFC
:103400001092C40E6AEF77E086E20E9422F7809164
:10341000231A9091241A98609093241A8093231A67
:103420000C9478614A36A1E05A076105710509F4E8
:103430007CC00CF48BC74E36E1E05E076105710578
:1034400009F473C0403751406105710511F00C94C7
:10345000786140E050E06EE681E20E941AF68091C9
:10346000231A9091241A92609093241A8093231A1D
:103470000C94786180910C02813419F541E050E0A0
:1034800066E08BE10E941AF641E050E060E181E2E3
:103490000E941AF641E050E062E181E20E941AF6D1
:1034A00041E050E063E181E20E941AF641E050E021
:1034B0006EE781E20E941AF684E480930C020C9479
:1034C0007861843411F00C9478618091231A909182
:1034D000241A80649093241A8093231A1092C10EA8
:1034E0000C94786140E050E066E08BE10E941AF6AF
:1034F00040E050E060E181E20E941AF640E050E0D6
:1035000062E181E20E941AF640E050E063E181E26C
:103510000E941AF640E050E06EE781E20E941AF63F
:1035200081E480930C020C9478618091231A90912D
:10353000241A92609093241A8093231A0C94786131
:1035400080910C02823419F583E480930C0241E0EF
:1035500050E063E08BE10E941AF641E050E067E53D
:1035600081E20E941AF641E050E066E781E20E94A3
:103570001AF641E050E06DEE81E20E941AF641E059
:1035800050E069E881E20E941AF60C947861833475
:1035900011F00C94786111E01093340840E050E091
:1035A00068E981E20E941AF640E050E067E981E2B2
:1035B0000E941AF640E050E06CE981E20E941AF69F
:1035C00040E050E06DE981E20E941AF641E050E0EF
:1035D0006AE481E20E941AF640E050E06CE28AE080
:1035E0000E941AF61093C40E8FEF9FEF9093DF02A4
:1035F0008093DE0240E050E06AE981E20E941AF620
:1036000040E050E06BE981E20E941AF66091951C5F
:103610007091961C8091971C9091981C0F94DECD10
:10362000AB0166E289E00E941AF66091991C7091E4
:103630009A1C80919B1C90919C1C0F94DECDAB0139
:1036400067E289E00E941AF640E050E068E289E013
:103650000E941AF61092C10E0C94786140E050E07E
:103660006EE681E20E941AF68091231A9091241A44
:1036700092609093241A8093231A0C94786180911D
:103680000C02833411F00C94786182E480930C0274
:1036900040E050E063E08BE10E941AF640E050E029
:1036A00067E581E20E941AF640E050E066E781E2B9
:1036B0000E941AF640E050E06DEE81E20E941AF698
:1036C00040E050E069E881E20E941AF61092C40ED0
:1036D0000C94786140E050E064E58AE00E941AF6BC
:1036E0000C9478611092C10E80E00F94652B80914C
:1036F000231A9091241A82609093241A8093231A9B
:1037000081E08093C50840E050E068E08AE00E94D4
:103710001AF681E48093C6080C9478618091281A87
:10372000882311F40C94786140E050E062E58AE06F
:103730000E941AF68091251A8A3019F080E494E0EC
:1037400002C08BE394E09F938F9388EF97E09F9361
:103750008F938E010F5F1F4F1F930F930F9468C5B8
:10376000B80180E00E9422F70F900F900F900F9009
:103770000F900F900C94786189E4809324028091DB
:10378000421C813049F441E050E06CE481E20E9447
:103790001AF640E050E008C040E050E06CE481E2FE
:1037A0000E941AF641E050E06BE481E20E941AF6B2
:1037B00041E050E06DE481E20E941AF640E050E002
:1037C00063E581E20E941AF641E050E061E481E2A3
:1037D0000E941AF641E050E066E481E20E941AF687
:1037E00041E050E06EE481E20E941AF641E050E0D0
:1037F0006FE481E20E941AF640E050E064E18AE062
:103800000E941AF60C9478618091E5079091E60782
:103810009093660F8093650F0E940DFE8091E707DD
:103820009091E8079093680F8093670F0E940DFEB8
:1038300082E480930C0282E58093240281E08093ED
:10384000C40E1092C10E9091251A9A3009F480E0AE
:103850008093421C082F10E0000F111FF801EB5954
:10386000F04F208131813093BB072093BA0781113B
:103870001EC08091891C90918A1C60919008709163
:103880009108681779072CF4BC01990F880B990BE4
:1038900004C0072E000C880B990B0F94BEC50B5962
:1038A000104F0F94DECDD8016D937C931DC0809195
:1038B0008D1C90918E1C60918E0870918F086817F6
:1038C00079072CF4BC01990F880B990B04C0072EC3
:1038D000000C880B990B0F94BEC50B59104F0F9419
:1038E000DECDF801718360830E940DFE81E4809338
:1038F000C60840E050E068E08AE00E941AF640E026
:1039000050E064E581E20E941AF680E090E0A3E4D2
:10391000B3E48093880F9093890FA0938A0FB0939C
:103920008B0F80902E1C90902F1CA090301CB0907C
:10393000311C2091840F3091850F4091860F50915A
:10394000870F6091800F7091810F8091820F90910D
:10395000830FE3E76E2EEFE07E2E7F926F92FCE8FE
:10396000CF2EFFE0DF2EE12CF12C03E413E40F94C3
:103970006A530E94E8FF80E090E0A0E2B1E4809307
:10398000840F9093850FA093860FB093870F80903C
:103990002A1C90902B1CA0902C1CB0902D1CE09009
:1039A000880FF090890F00918A0F10918B0F609112
:1039B000800F7091810F8091820F9091830F7F9281
:1039C0006F9220E030E040E251E40F946A530E948D
:1039D000E8FF0F900F900F900F908091C6088E34E3
:1039E00011F40C94222E1092C6080E947F8240E0AF
:1039F00050E06FE189E00E941AF640E050E068E292
:103A00008AE00E941AF60091421C10E0F801EE0FC5
:103A1000FF1FEE0FFF1FEB56F34E60817181828115
:103A200093810F94DECD7093320860933108000FBC
:103A3000111FF801EB59F04F808191810A97909303
:103A4000300880932F0888E48093C6080E947F8204
:103A500081E0809333080C94786180910C0240E0FF
:103A600050E0813441F469E08AE00E941AF66AEF7E
:103A700077E082E007C06AE28AE00E941AF66AEF05
:103A800077E086E20E9422F78091231A9091241A0F
:103A900098609093241A8093231A1092C40E109267
:103AA000C10E0C9478618091170881110C94786193
:103AB0008091471681110C94786140E050E069E3F1
:103AC0008AE00E941AF60C9478618091170881119F
:103AD0000C94786140E050E061E08AE00E941AF6C0
:103AE0000C9478618091170881110C947861109181
:103AF0000C02113411F00C9478611092C10E1092E6
:103B0000461681E08093471640E050E068E08AE086
:103B10000E941AF61093C6088091231A9091241AD5
:103B200094609093241A8093231A0C947861809166
:103B30000C02813439F440E050E061E08AE00E94F8
:103B40001AF6ADCF843409F0AACF8091231A909150
:103B5000241A90619093241A8093231AA0CF809105
:103B60000C02823441F3833409F099CFEECF809177
:103B70000C02992369F0813459F48091231A9091B1
:103B8000241A88609093241A8093231A0C947861E5
:103B9000843411F00C9478618091231A9091241A46
:103BA00080689093241A8093231A1092C10E0C946B
:103BB000786180914716882311F40C947861809184
:103BC0000C02823459F48091231A9091241A806156
:103BD0009093241A8093231A0C947861833411F003
:103BE0000C94786140E050E066E18AE00E941AF6A9
:103BF00041E050E064E581E20E941AF682E580939C
:103C0000240281E08093C40E0C947861809137087F
:103C100090913808A0913908B0913A088860809353
:103C2000370890933808A0933908B0933A080C9459
:103C300078618091370890913808A0913908B09147
:103C40003A08A1608093370890933808A093390808
:103C5000B0933A080C9478618091370890913808B5
:103C6000A0913908B0913A08A260809337089093E8
:103C70003808A0933908B0933A080C947861809181
:103C8000370890913808A0913908B0913A088160BE
:103C90008093370890933808A0933908B0933A0876
:103CA0000C9478618091370890913808A091390878
:103CB000B0913A0890628093370890933808A093A7
:103CC0003908B0933A080C94786180913708909144
:103CD0003808A0913908B0913A0890648093370869
:103CE00090933808A0933908B0933A080C947861FF
:103CF0008091370890913808A0913908B0913A081E
:103D000080618093370890933808A0933908B09366
:103D10003A080C9478618091370890913808A09106
:103D20003908B0913A089068809337089093380822
:103D3000A0933908B0933A080C94786180913708C1
:103D400090913808A0913908B0913A089160809319
:103D5000370890933808A0933908B0933A080C9428
:103D600078618091370890913808A0913908B09116
:103D70003A0880688093370890933808A0933908F0
:103D8000B0933A080C947861809137089091380884
:103D9000A0913908B0913A089260809337089093C7
:103DA0003808A0933908B0933A080C947861809150
:103DB000370890913808A0913908B0913A0894607A
:103DC0008093370890933808A0933908B0933A0845
:103DD0000C9478618091370890913808A091390847
:103DE000B0913A0898608093370890933808A09370
:103DF0003908B0933A080C94786142305105610556
:103E0000710511F489E406C042335105610571055D
:103E100019F482E58093240240E050E06CE481E2F2
:103E20000E941AF640E050E06BE481E20E941AF62C
:103E300040E050E064E18AE00E941AF68FEF809340
:103E4000421C0C9478614A3551056105710519F4DD
:103E50001092421C03C081E08093421C8091421C5E
:103E6000082F10E0000F111FF801EB59F04F2081CF
:103E700031813093BB072093BA0781111EC0809116
:103E8000891C90918A1C6091900870919108681724
:103E900079072CF4BC01990F880B990B04C0072EED
:103EA000000C880B990B0F94BEC50B59104F0F9443
:103EB000DECDD8016D937C931DC080918D1C9091B7
:103EC0008E1C60918E0870918F08681779072CF40A
:103ED000BC01990F880B990B04C0072E000C880BAE
:103EE000990B0F94BEC50B59104F0F94DECDF801FE
:103EF000718360830E940DFE81E48093C60840E0D8
:103F000050E068E08AE00E941AF640E050E064E584
:103F100081E20E941AF680E090E0A3E4B3E480938B
:103F2000880F9093890FA0938A0FB0938B0F809086
:103F30002E1C90902F1CA090301CB090311C209112
:103F4000840F3091850F4091860F5091870F6091BB
:103F5000800F7091810F8091820F9091830FE3E722
:103F60006E2EEFE07E2E7F926F92FCE8CF2EFFE068
:103F7000DF2EE12CF12C03E413E40F946A530E942A
:103F8000E8FF80E090E0A0E2B1E48093840F90939A
:103F9000850FA093860FB093870F80902A1C909076
:103FA0002B1CA0902C1CB0902D1CE090880FF09042
:103FB000890F00918A0F10918B0F6091800F709183
:103FC000810F8091820F9091830F7F926F9220E0FA
:103FD00030E040E251E40F946A530E94E8FF0F90F2
:103FE0000F900F900F908091C6088E3411F40C94AE
:103FF000222E1092C6080E947F8240E050E06FE1BE
:1040000089E00E941AF640E050E068E28AE00E94EF
:104010001AF60091421C10E0F801EE0FFF1FEE0FA0
:10402000FF1FEB56F34E60817181828193810F9463
:10403000DECD7093320860933108000F111FF80134
:10404000EB59F04F808191810A97909330088093CB
:104050002F0888E48093C6080E947F8281E08093C5
:1040600033080C9478618091421C813091F587ED82
:1040700090E09093651C8093641C9093901C8093B7
:104080008F1C8AEA90E090938E1C80938D1C81E4B3
:1040900090E09093D5078093D4070F9407248091E4
:1040A0008F1C9091901C9093680F8093670F0E94D3
:1040B0000DFE0F94AD9F40E050E06DE481E20E9460
:1040C0001AF640E050E063E581E20E941AF60C9493
:1040D000786181110C94786187ED90E09093681C71
:1040E0008093671C90938C1C80938B1C8AEA90E0D1
:1040F00090938A1C8093891C81E490E09093D70769
:104100008093D6070F94072480918B1C90918C1C70
:104110009093660F8093650F0E940DFE0F94AD9FE4
:1041200040E050E06DE481E20E941AF640E050E089
:1041300063E581E20E941AF60C9478618091421C3A
:10414000813091F584E091E09093651C8093641C2C
:104150009093901C80938F1C86EE90E090938E1C21
:1041600080938D1C8AE590E09093D5078093D407C7
:104170000F94072480918F1C9091901C9093680F4E
:104180008093670F0E940DFE0F94AD9F40E050E0BA
:104190006DE481E20E941AF640E050E063E581E2BE
:1041A0000E941AF60C94786181110C94786184E075
:1041B00091E09093681C8093671C90938C1C809373
:1041C0008B1C86EE90E090938A1C8093891C8AE574
:1041D00090E09093D7078093D6070F94072480919F
:1041E0008B1C90918C1C9093660F8093650F0E949E
:1041F0000DFE0F94AD9F40E050E06DE481E20E941F
:104200001AF640E050E063E581E20E941AF60C9451
:1042100078618091421C8130A1F58CED90E0909303
:10422000651C8093641C86EE90E09093901C8093B4
:104230008F1C80EA90E090938E1C80938D1C8CE301
:1042400090E09093D5078093D4070F940724809132
:104250008F1C9091901C9093680F8093670F0E9421
:104260000DFE0F94AD9F40E050E06DE481E20E94AE
:104270001AF640E050E063E581E20E941AF60C94E1
:10428000786181110C9478618CED90E09093681CBA
:104290008093671C86EE90E090938C1C80938B1C1F
:1042A00080EA90E090938A1C8093891C8CE390E0D4
:1042B0009093D7078093D6070F94072480918B1C87
:1042C00090918C1C9093660F8093650F0E940DFE59
:1042D0000F94AD9F40E050E06DE481E20E941AF639
:1042E00040E050E063E581E20E941AF60C947861A8
:1042F0008091421C823010F00C94786140E050E0D4
:1043000064E38AE00E941AF640910A0250910B027F
:1043100062E289E00E941AF6409108025091090277
:1043200063E289E00E941AF640910602509107026A
:1043300064E289E00E941AF640910402509105025D
:1043400065E289E00E941AF60C94786140E050E042
:1043500064E18AE00E941AF60C94786140910A02A6
:1043600050910B021416150614F00C947861455008
:10437000510950930B0240930A0262E289E00E94C5
:104380001AF60C94786140910A0250910B02463360
:10439000F1E05F0714F00C9478614B5F5F4F50932E
:1043A0000B0240930A0262E289E00E941AF60C9422
:1043B000786140910802509109021416150614F014
:1043C0000C947861455051095093090240930802BA
:1043D00063E289E00E941AF60C9478614091080229
:1043E00050910902463321E0520714F00C94786191
:1043F0004B5F5F4F509309024093080263E289E0EC
:104400000E941AF60C9478614091060250910702BE
:104410001416150614F00C94786145505109509308
:1044200007024093060264E289E00E941AF60C94A7
:1044300078614091060250910702463331E05307FC
:1044400014F00C9478614B5F5F4F509307024093D8
:10445000060264E289E00E941AF60C9478614091A9
:104460000402509105021416150614F00C9478619C
:1044700045505109509305024093040265E289E0DA
:104480000E941AF60C947861409104025091050242
:104490004936510514F00C9478614B5F5F4F50938F
:1044A00005024093040265E289E00E941AF60C942A
:1044B0007861E091421C40910A0250910B022091D8
:1044C0000802309109026091060270910702809102
:1044D000040290910502E11130C06C33A1E07A072B
:1044E00014F06BE371E07093681C6093671C4C33AD
:1044F000B1E05B0714F04BE351E050938C1C409308
:104500008B1C2C33E1E03E0714F02BE331E03093B9
:104510008A1C2093891C8F36910514F08EE690E05A
:104520009093D7078093D60780918B1C90918C1C19
:104530009093660F8093650F34C06C33F1E07F0772
:1045400014F06BE371E07093651C6093641C4C3352
:1045500061E056072CF45093901C40938F1C06C0CA
:104560004BE351E05093651C4093641C2C33A1E055
:104570003A0714F02BE331E030938E1C20938D1C0E
:104580008F36910514F08EE690E09093D5078093D6
:10459000D40780918F1C9091901C9093680F80930A
:1045A000670F0E940DFE0F9407240F94AD9F40E00B
:1045B00050E06DE481E20E941AF640E050E063E5CD
:1045C00081E20E941AF60C94786140E050E060E2CB
:1045D00089E00E941AF640E050E068E28AE00E941A
:1045E0001AF688E48093C6080E947F820091421CDC
:1045F00001111DC080918B1C90918C1C60918808CA
:1046000070918908681779072CF4BC01990F880B01
:10461000990B04C0072E000C880B990B0F94BEC594
:104620000F94DECD7093660F6093650F20C080916C
:104630008F1C9091901C60918C0870918D08681768
:1046400079072CF4BC01990F880B990B04C0072E35
:10465000000C880B990B0F94BEC510E0000F111FC2
:104660000B59104F0F94DECDF801718360830E94C7
:104670000DFE0091421C10E0F801EE0FFF1FEE0F3F
:10468000FF1FEB56F34E60817181828193810F94FD
:10469000DECD7093320860933108000F111FF801CE
:1046A000EB59F04F808191810A9790933008809365
:1046B0002F080E947F8281E0809333080C947861F8
:1046C00080912402893411F00C94786140E050E02C
:1046D00068E08AE00E941AF681E48093C608E091BF
:1046E000421C24E0E29FF0011124EA57FD4F608153
:1046F0007181828193816093800F7093810F809389
:10470000820F9093830FE090880FF090890F0091B3
:104710008A0F10918B0F2091840F3091850F40915B
:10472000860F5091870F0E94D4F7E090880FF09089
:10473000890F00918A0F10918B0F2091840F309177
:10474000850F4091860F5091870F6091800F709177
:10475000810F8091820F9091830FE2E42E2EECE185
:104760003E2E3F922F92812C912CF8E4AF2EF3E451
:10477000BF2EACE8CA2EAFE0DA2E0F946A530E9427
:10478000E8FF20E030E040EF51E460918C0F709141
:104790008D0F80918E0F90918F0F0F9444CC60936A
:1047A0008C0F70938D0F80938E0F90938F0FE090EE
:1047B000880FF090890F00918A0F10918B0F209134
:1047C000840F3091850F4091860F5091870F609133
:1047D000800F7091810F8091820F9091830F3F9293
:1047E0002F92812C912CB0E3AB2EB1E4BB2E0F9411
:1047F0006A530E94E8FF0F900F900F900F908091E6
:10480000C6088E3411F40C94222E20E030E047E5E7
:1048100054E460918C0F70918D0F80918E0F909168
:104820008F0F0F9444CC60938C0F70938D0F8093F7
:104830008E0F90938F0FC090EC09D090ED09E0900F
:10484000EE09F090EF0920E030E846EF53E4C701AD
:10485000B6010F94B8C54090840F5090850F6090BA
:10486000860F7090870F2091800F3091810F4091BB
:10487000820F5091830FC65EDE4F288339834A83AF
:104880005B83CA51D1402091880F3091890F4091AC
:104890008A0F50918B0FC25EDE4F288339834A8383
:1048A0005B83CE51D14018169CF020E030E046EFFB
:1048B00053E4C701B6010F941CCF87FD09C03F9296
:1048C0002F92812C912CB0E2AB2EB2E4BB2E0AC009
:1048D00082E49CE19F938F93812C912CA0E7AA2ED8
:1048E000A2E4BA2EFCE8CF2EFFE0DF2EC25EDE4F40
:1048F000E880F9800A811B81CE51D140A301920149
:10490000C65EDE4F688179818A819B81CA51D14020
:104910000F946A530F900F900E94E8FF8091C60891
:104920008E3411F40C94222E20E030E048E452E45E
:1049300060918C0F70918D0F80918E0F90918F0FE1
:104940000F9444CC60938C0F70938D0F80938E0FD7
:1049500090938F0FE090880FF090890F00918A0F4D
:1049600010918B0F2091840F3091850F4091860F0D
:104970005091870F6091800F7091810F8091820F0D
:104980009091830FE2E4FCE1FF93EF93812C912C53
:10499000A12CB0E4BB2EECE8CE2EEFE0DE2E0F947F
:1049A0006A530E94E8FF0F900F908091C6088E34E2
:1049B00011F40C94222E1092C60840E050E06EE0F4
:1049C0008AE00E941AF60C9478610E9456A40C9416
:1049D00078618091350881FF02C00C9478619091D4
:1049E000031A8091021A98130C94966140E050E0EB
:1049F0006BE084E10E941AF640E050E065E18AE055
:104A00000E941AF682E48093C6088093C11BE0914D
:104A1000421C34E0E39FF0011124EA57FD4F60810E
:104A20007181828193816093800F7093810F809355
:104A3000820F9093830FE090880FF090890F009180
:104A40008A0F10918B0F2091840F3091850F409128
:104A5000860F5091870FE2E4FCE1FF93EF93812CE6
:104A6000912CE8E4AE2EE3E4BE2EFCE8CF2EFFE06E
:104A7000DF2E0F946A53E090880FF090890F009119
:104A80008A0F10918B0F2091840F3091850F4091E8
:104A9000860F5091870FE091730F64E0E69FF0015D
:104AA0001124EA57FD4F60817181828193810E94B8
:104AB000D4F7E091730F84E0E89FF0011124EA57E6
:104AC000FD4F80819181A281B3818093800F90936B
:104AD000810FA093820FB093830FE091421CF0E00E
:104AE000EE0FFF1FEB59F04F8091BA079091BB0773
:104AF000918380830E940DFE0E94E8FF0F900F902B
:104B00000C9478618091350881FF02C00C94786123
:104B10002091031A9091021A29130C949A618061D2
:104B2000809335080C9478618091350881FF02C02C
:104B30000C9478612091031A9091021A29130C9415
:104B40009A610C949D619091031A8091021A9813B6
:104B50000C9478610C9421619091031A8091021A4F
:104B600098130C9478610C94D561E091DE02F09179
:104B7000DF02EF3F9FEFF90711F40C947861EE0F1D
:104B8000FF1FEB59F04F808191818B33A1E09A0791
:104B900014F00C9478610596918380830E940DFE39
:104BA0000E940DFEE091DE02F091DF02EE0FFF1F8A
:104BB000EB59F04F4081518168E289E00E941AF67A
:104BC0000C947861E091DE02F091DF02EF3FBFEFDD
:104BD000FB0711F40C947861EE0FFF1FEB59F04FB7
:104BE000808191811816190614F00C94786105974C
:104BF000918380830E940DFE0E940DFEE091DE02F3
:104C0000F091DF02EE0FFF1FEB59F04F4081518111
:104C100068E289E00E941AF60C9478618091DE02C5
:104C20009091DF02019611F40C9478619091031A2F
:104C30008091021A98130C949A610C94636280918B
:104C4000DE029091DF02019611F40C94786190914C
:104C5000031A8091021A98130C949A610C94696259
:104C60009091031A8091021A98130C9478610C9415
:104C70006F627090C11B22E472120C9478611092E2
:104C8000C6088091231A9091241A8D7F9093241A3C
:104C90008093231A80912402823509F047C089E469
:104CA000809324028091421C813049F441E050E01D
:104CB0006CE481E20E941AF640E050E008C040E057
:104CC00050E06CE481E20E941AF641E050E06BE4AF
:104CD00081E20E941AF641E050E06DE481E20E9418
:104CE0001AF641E050E063E581E20E941AF641E0E5
:104CF00050E061E481E20E941AF641E050E066E48F
:104D000081E20E941AF641E050E06EE481E20E94E6
:104D10001AF641E050E06FE481E20E941AF640E0AA
:104D200050E064E18AE00E941AF6CEC0893409F0AE
:104D3000CBC081E48093C60840E050E068E08AE0A0
:104D40000E941AF62090EE073090EF074090F0078F
:104D50005090F1072092840F3092850F4092860F79
:104D60005092870F20E030E040E752E46091C402A7
:104D70007091C5028091C6029091C7020F9432CD06
:104D80004B015C01E090880FF090890F00918A0F31
:104D900010918B0F6091800F7091810F8091820F25
:104DA0009091830F23E73FE03F932F932CE8C22E8F
:104DB0002FE0D22EA20191010F946A530E94E8FFC6
:104DC0000F900F908091C6088E3409F43BC720E005
:104DD00030E040E251E46091F2077091F307809176
:104DE000F4079091F5070F9444CC7B018C016093FC
:104DF000880F7093890F80938A0F90938B0F809107
:104E0000E90789838090C8029090C902A090CA02E5
:104E1000B090CB022091840F3091850F4091860F86
:104E20005091870F6091800F7091810F8091820F58
:104E30009091830FFE013196FF93EF930F946A5385
:104E40000E94E8FF0F900F908091C6088E3409F4FD
:104E5000F9C61092C60870920C0240E050E063E080
:104E60008BE10E941AF640E050E067E581E20E9483
:104E70001AF640E050E066E781E20E941AF640E050
:104E800050E06DEE81E20E941AF640E050E069E8E1
:104E900081E20E941AF640E050E06AE28AE00E9455
:104EA0001AF681E08093C10E1092C40E6AEF77E08B
:104EB00086E20E9422F78091231A9091241A98602A
:104EC0009093241A8093231A1092C11B0C9478613A
:104ED0008091F30E1092C6088823E9F01092F30E29
:104EE0008091231A9091241A98609093241A8093A9
:104EF000231A80910C0240E050E0813431F469E0E3
:104F00008AE00E941AF60C9478616AE28AE00E94B4
:104F10001AF60C9478611092A51C1092C40EEDEE56
:104F2000F7E084918F01882351F0082E000C990B33
:104F30000F94E1280F5F1F4FF8018491F4CF109276
:104F40003F0881E00E9490A040E050E065E08AE0E8
:104F50000E941AF60C9478619091D807292F287036
:104F600093FF33C28091DC07823008F42EC24B3AA3
:104F700051056105710509F433C1DCF54E35510564
:104F80006105710509F4AEC174F44533510561053D
:104F9000710509F4D9C1473451056105710509F45A
:104FA00093C00C947861423851056105710509F48C
:104FB0007FC0423A51056105710509F44BC04F3578
:104FC00051056105710511F00C94786114E410939A
:104FD000C11B40E050E06BE084E10E941AF640E023
:104FE00050E065E18AE00E941AF61093C6080C941E
:104FF0007861453C510561057105C1F194F4413B6F
:1050000051056105710561F1423B5105610571056D
:1050100011F00C94786180E090E00E94ECA80C9470
:1050200078614E34F1E05F076105710599F144370D
:1050300021E0520761057105F9F04C3C510561050D
:10504000710511F00C94786182E090E00E94ECA868
:105050000C9478618EEF9FEF0E94ECA80C9478611D
:105060008FEF9FEF0E94ECA80C94786181E090E0B4
:105070000E94ECA80C9478618DEF9FEF9093C31B76
:105080008093C21B40E050E06AE08AE00E941AF67A
:105090000C94786183E090E09093C31B8093C21BD3
:1050A00040E050E06AE08AE00E941AF60C947861D1
:1050B0001092C31B1092C21B40E050E06AE08AE0ED
:1050C0000E941AF60C94786140E050E068E08AE0B3
:1050D0000E941AF681E48093C60841E061E081E015
:1050E0000F94AF651092C6080E94E8FF0E9492A537
:1050F0001091C21B8091DC07823011F540E050E036
:1051000061E18AE00E941AF680E58093C60800916A
:10511000D907010F0093D907002E000C110B20E0D6
:1051200030E0A901CA01B9010F944B6940E050E099
:1051300069E18AE00E941AF61092C6080C94786120
:10514000833029F540E050E061E18AE00E941AF6E0
:1051500080E58093C6080091DA07010F0093DA0713
:10516000002E000C110B20E030E04CE553EC60E029
:1051700070E088EA92EC0F944B6940E050E069E1FE
:105180008AE00E941AF61092C6080C947861843066
:1051900011F00C94786140E050E061E18AE00E94F7
:1051A0001AF680E58093C6080091DB07010F009393
:1051B000DB07002E000C110B20E030E04CE553EC37
:1051C00060E070E084EA92E40F944B6940E050E0C4
:1051D00069E18AE00E941AF61092C6080C94786180
:1051E0001092C6088091D9074091DA07042F081B56
:1051F0004091DB07142F181B602F002E000C770B3B
:10520000880B990B0F94BEC52DEC3CEC4CEC5DEB80
:105210000F94A0C06093E1077093E2078093E307C7
:105220009093E407612F012E000C770B880B990BEC
:105230000F94BEC52DEC3CEC4CEC5DEB0F94A0C084
:105240006093DD077093DE078093DF079093E0079C
:105250000023A1F040E050E06FE18AE00E941AF6DE
:1052600007FF07C0802F992781950CF4909508E0DF
:10527000080F402F000F550B64E015C01123B9F043
:1052800040E050E060E28AE00E941AF617FF07C093
:10529000A12FBB27A1950CF4B09518E01A0F412F50
:1052A000110F550B65E08BE10E941AF611C014E452
:1052B0001093C11B40E050E06BE084E10E941AF6BD
:1052C00040E050E065E18AE00E941AF61093C608BB
:1052D00082E890E09093921C8093911C0F94072495
:1052E0000C9478614091DB078091D907142F181B2B
:1052F000C1F040E050E060E28AE00E941AF617FF39
:1053000007C0E12FFF27E1950CF4F09518E01E0F80
:10531000412F110F550B65E08BE10E941AF60C949A
:10532000786114E41093C11B40E050E06BE084E12D
:105330000E941AF640E050E065E18AE00E941AF609
:105340001093C6080C9478618091C11B843411F0CD
:105350000C9478611092DC07977F9093D807109295
:10536000C6081092600F10925F0F0E94C9FD109244
:10537000660F1092650F0E940DFE1092680F10923A
:10538000670F0E940DFE1092A51C1092C40EE2EE53
:10539000F7E084918F01882351F0082E000C990BBF
:1053A0000F94E1280F5F1F4FF8018491F4CF109202
:1053B0003F080E9490A040E050E065E08AE00E9433
:1053C0001AF61092C11B0C9478614837F1E05F0720
:1053D00010F00C947861FA018827EE58FF4F8F4F38
:1053E0000D94B6D080912502909126028260909310
:1053F0002602809325020C94786180912502909179
:105400002602846090932602809325020C94786192
:1054100080912502909126028860909326028093C5
:1054200025020C947861809125029091260280617A
:1054300090932602809325020C9478618091250236
:1054400090912602806290932602809325020C940C
:1054500078610F949D2E009781F4809125029091A0
:105460002602946090932602809325028091500F2B
:1054700081508093500F0C947861019711F00C9437
:105480007861809125029091260294609093260283
:105490008093250240E050E067E381E20E941AF623
:1054A00040E050E061E08BE10E941AF68091500FDD
:1054B00081508093500F0C9478611092A51C10922B
:1054C000C40EE7EDF7E084918F01882351F0082E98
:1054D000000C990B0F94E1280F5F1F4FF801849186
:1054E000F4CF10923F0881E00E9490A040E050E08D
:1054F00065E08AE00E941AF60C9478618091481663
:10550000882311F40C94786141E061E089E496E12C
:105510000F94BE828FEF9FEF9093371680933616CD
:10552000412C512C32017301620100E010E0A5EE24
:10553000AA2EA5E1BA2E9E012F5F3F4F19018824A4
:105540008394912C4091E7185091E8186091E918E4
:105550007091EA188091421890914318A0914418D4
:10556000B091451884179507A607B70708F06DC0D6
:10557000D501E2E31D92EA95E9F70E9492F90196BE
:10558000D9F41092311610923016109233161092F0
:10559000321681E090E09093351680933416109285
:1055A000411610924016109243161092421680E057
:1055B0000F94652B0C948D620115110521F52FEFC9
:1055C0003FEF3A8329833F922F92A5E0BAE2BF933F
:1055D000AF93BF92AF920F9497C589819A810F9034
:1055E0000F900F900F900F900F90019639F09092BE
:1055F00037168092361607E010E021C01092371659
:10560000109236161CC080E00F9403B16B017C0130
:1056100081E00F9403B12B013C0120E030E0A901AF
:10562000C701B6010F941CCF18167CF020E030E0C3
:10563000A901C301B2010F941CCF181634F00F5FFB
:105640001F4F0E3111050CF47DCF80E00F94652BB8
:1056500020E030E0A901C701B6010F94B8C51816C3
:105660005CF020E030E0A901C301B2010F94B8C59D
:10567000181614F00C948D628090E6029090E70268
:10568000A090E802B090E902A5019401C701B6011B
:105690000F94B8C5811114C020E030E0A901C70102
:1056A000B6010F941CCF18165CF420E030E0A9017D
:1056B000C301B2010F94B8C5181614F00C948D6292
:1056C0002091EA023091EB024091EC025091ED0200
:1056D000C65EDE4F288339834A835B83CA51D1403B
:1056E000C301B2010F94B8C581111EC020E030E0A3
:1056F000A901C301B2010F941CCF18165CF420E07D
:1057000030E0A901C701B6010F94B8C5181614F00E
:105710000C948D62A5019401C701B6010F94B8C520
:10572000882311F40C948D6220E030E0A901C701B8
:10573000B6010F94B8C520E030E040E251E41816FD
:105740001CF0C501B40102C0C701B6010F94A0C08E
:105750000F94DECD60930E0220E030E0A901C3017A
:10576000B2010F94B8C520E030E040E251E41816D1
:105770004CF0C65EDE4F688179818A819B81CA5177
:10578000D14002C0C301B2010F94A0C00F94DECD7E
:1057900060930F0240E050E06FE58AE00E941AF645
:1057A0006091E6027091E7028091E8029091E9022F
:1057B0000F94DECDAB016DE489E00E941AF620E083
:1057C00030E040E251E46091E6027091E70280919E
:1057D000E8029091E9020F94A0C00F94DECD0AE098
:1057E00010E0CB01B8010F9487D0AC016EE489E0E2
:1057F0000E941AF66091EA027091EB028091EC022D
:105800009091ED020F94DECDAB016FE489E00E9430
:105810001AF620E030E040E251E46091EA02709133
:10582000EB028091EC029091ED020F94A0C00F94D6
:10583000DECDCB01B8010F9487D0AC0160E589E0E3
:105840000E941AF680910E021AE0612F0F9466D022
:10585000482F880F550B61E589E00E941AF6809168
:105860000E02612F0F9466D0492F990F550B62E5F8
:1058700089E00E941AF680910F02612F0F9466D082
:10588000482F880F550B63E589E00E941AF6809136
:105890000F02612F0F9466D0492F990F550B64E5C5
:1058A00089E00E941AF6CEC180914816882311F42F
:1058B0000C9478618091981681110C947861CDB622
:1058C000DEB680913D0890913E080F94E12EE9E408
:1058D000F6E1DF010D900020E9F78DB79EB78A1B36
:1058E0009B0B9C012B5B394E0FB6F8943EBF0FBE4D
:1058F0002DBF0DB71EB70F5F1F4FFF93EF9388E7C4
:1059000097E09F938F931F930F930F9468C578012F
:1059100034E0E30EF11C0F900F900F900F900F905A
:105920000F90F7018081882349F0082E000C990B15
:105930000F9438D3D7018D937D01F3CFC8010E9416
:1059400002A184E797E00E9493A00FB6F894DEBE10
:105950000FBECDBE0C94786140E050E067E381E279
:105960000E941AF640E050E061E08BE10E941AF6D6
:1059700040E050E062E08AE00E941AF681E0809305
:10598000A51C809125029091260292609093260298
:10599000809325020C9478618091250290912602D3
:1059A000916090932602809325020C9478618091F7
:1059B000250290912602806890932602809325020A
:1059C0000C94786140E050E062E18AE00E941AF6AF
:1059D0000C94786140E050E06CE18AE00E941AF695
:1059E00080E00E9490A01092F20E1092F10E1092A0
:1059F000F00E81E080933F080C9478611092A51C12
:105A00001092C40EE9E6F7E084918F01882351F0EB
:105A1000082E000C990B0F94E1280F5F1F4FF8011F
:105A20008491F4CF10923F080E947F8281E00E940F
:105A300090A040E050E065E08AE00E941AF60C94E5
:105A400078618091650F9091660F892B29F01092F3
:105A5000660F1092650F08C08091671C9091681CBA
:105A60009093660F8093650F0E940DFE1092F20EC8
:105A70000C9478618091670F9091680F892B29F0C1
:105A80001092680F1092670F08C08091641C90916B
:105A9000651C9093680F8093670F0E940DFE109213
:105AA000F10E0C94786180915F0F9091600F892BBB
:105AB00029F01092600F10925F0F1CC08091D607E2
:105AC0009091D7076091D4077091D507681779072F
:105AD0002CF4BC01990F880B990B04C0072E000C05
