:100000000C944A180C947B180C947B180C947B1855
:100010000C947B180C947B180C947B180C947B1814
:100020000C947B180C947B180C947B180C947B1804
:100030000C947B180C947B180C947B180D949C18D2
:100040000C947B180C947B180C947B180C947B18E4
:100050000C947B180C947B180D94F7200D94D51EEE
:100060000C947B180C947EB90C9454B90C947B18A6
:100070000C947B180C947B180C947B180C947B18B4
:100080000D9422000C947B180C947B180C947B1814
:100090000C947B180C947B180C947B180C947B1894
:1000A0000C947B180C947B180C947B180C947B1884
:1000B0000C947B180C947B180C947B180C947B1874
:1000C0000C947B180C947B180C947B180C941FB91F
:1000D0000C94F5B80C947B180C947B180C947B183A
:1000E0000C947B18575E5F61E830AC2EF15BCB2936
:1000F000B85FE1295F615F61735A202ABD295F61A2
:100100002D2722275F611E3B5F615F61AC5AC35F91
:10011000DB41F14107421D42B5423342E15FCD412F
:1001200093445E5E6B3B5C3B49425D42085BD62973
:10013000A327BD298C2E563DA42E755F56509C2EAC
:10014000942E965FF35D5F61DA306E5F895AFD3DF4
:10015000E9294E2738275F61355BFA2A873B5F61C3
:10016000435F175FBA49E5326529CB4D78387A3B52
:10017000E9325F61B45E6D5EA630903190316C31D2
:10018000ED320934982C392A522A2C314E31172756
:1001900043275F615F61BD2920310C2D2E2D7F2A01
:1001A000FB3CDB3C5F61E15FE15FDF5DBF5BE15F2B
:1001B000E15F0E55405D145DE85C645C905CBC5C86
:1001C000295EE2601745A1448D459E47F74681466A
:1001D0005F615F61F15B512D6A2D2031F15BD85F6A
:1001E0005F615F61345F7342AA4C96485F6182270A
:1001F0004D5789429F425F61F942EC60303C283C98
:1002000011612E619C36386142614C61C3361537ED
:10021000003725300F30383CB52E322FB62FE32F64
:10022000975536301A49EB36AE485F615F615F61C2
:100230005F615F615F615F615F615661852A8D2AE1
:10024000B32A27612061C448D848BA49AA4CB64CA1
:10025000BB4D5F61C9502D515C50B050D24EFB6018
:100260005F61EF4E5F610553233A163B4953EE48F9
:100270005F61D75121526D52B952CF5104495F612C
:100280008D538F54CA56F2575F6180566D476D4744
:10029000DB56F3342F2C4250DB4EFB4ECD4FD54F67
:1002A000BD294A505F615F615F615F615F615F614E
:1002B0005F61CF5D5F61B05B205EE83A5F615F6167
:1002C0005F615F615F615F615F61205A5F615F6174
:1002D0005F615F615F615F615F615F615E556F5527
:1002E000BB545F615F615F615F615F615F615F61BF
:1002F0005F615F615F615F615F615F615F615F61FE
:100300005F615F615F615F615F615F615F615F61ED
:100310005F615F615F615F615F615F615F615F61DD
:100320005F615F615F615F615F615F615F615F61CD
:100330005F615F615F615F615F615F618F415141DB
:10034000554417445F617C475F615F617A3B5F2C76
:100350000744CD427A3BCD420A4AE342E342372C7E
:10036000515F4A5FE257EA574B5E8055605F675FB7
:100370002D5F1E5F835B885B8D5B925B975B7E5B13
:100380005B4C7A4CAC2E492B3F2C5F614B5E805509
:10039000FD29CB2C5F615F61015B8D515F615F6106
:1003A0005F61EA575F61AC5A5F619C5BA15B46315C
:1003B000A02C8F559530DD355F6161515F61E2574B
:1003C0005F615F61A65B5F61AB5BCD30354C484CD4
:1003D0004B5E295EAB378D384D51A83C9138512B7F
:1003E000563DB337AB4F1B3A5539ED563F575F611A
:1003F000873B4D51E15F5F61403C672C5551E15FA8
:10040000E30273027502DF0293027B02A7029D02E0
:10041000BF029702EB02ED02A9028B027B02AB0244
:100420007702C302F5027F02D102A502F3027D0228
:10043000CD029102C10287026B02D702F102B7021C
:100440007D02B302CB02D302B10285026D028302A8
:10045000C502AF02DB02F702C9027902CF02AD0288
:100460008902DD028F028D028F026F02C702E10254
:10047000E50271029F02A302B502BD029B02A10226
:10048000E902084AD73B3BCE016E84BCBFFDC12FB9
:100490003D6C74319ABD56833DDA3D00C77F11BE75
:1004A000D9E4BB4C3E916BAAAABE000000803F0578
:1004B000A84CCDB2D44EB93836A9020C50B99186A9
:1004C00088083CA6AAAA2ABE000000803F000D941E
:1004D000B2140D94171D0D943D1E0D94AA210D9478
:1004E000E83A0D94BF3B0D949A1C0D94891C0D9411
:1004F000C81C0D94FE210D94D11C0D94881E0D94E2
:10050000F61D0D94401C0D94B7210D948E210D9471
:10051000331E0D94693A0D94BE1C0D948D3A0D94C2
:10052000293B0D94211E0D94931C0D9476640D941B
:10053000AC1C0D9489D00D942B3A0D94A21C0D94F3
:10054000DD3B0D94CA3A0D94FB3B0D94051E0D94B2
:100550009E1C0D94BA1C0D94C41C0D94EF390D947F
:10056000DE210D9481210D946A1E0D94543C0D944E
:10057000601E0D94321C0D9477640D944B3A0D94CB
:10058000A81C0D94291E0D94CC1C0D94D1210D9402
:10059000003B0D94FC210D94741E0D94191E0D94B6
:1005A00006220D94FB1D0D947E1E0D941F1C0D94B0
:1005B000471E0D9413B30D94F8210D944E3B0D94EA
:1005C0008D1C0D940D3A0D94971C0D94833C0D9445
:1005D000DFBD0D94193C0D94B01C0D94B61C0D9408
:1005E0000F1C0D94561E0D940F1E0D94F11D0D94AD
:1005F000FA214E414E494E495459494E46CDCCCC34
:100600003D0AD7233C17B7D13877CC2B329595E6E6
:10061000241FB14F0A000020410000C84200401CC6
:100620004620BCBE4CCA1B0E5AAEC59D746364699D
:100630006E6F70737578585B003B4C415945523A68
:100640002564003B202020757365526166742C255B
:1006500064004D363035205325640043616C63756A
:100660006C75733A20200043616C63756C75733A46
:1006700020200043616C63756C75733A2020005B29
:100680004D3834325D7B226661696C726561736FCF
:100690006E223A20347D005B4D3834325D7B226619
:1006A00061696C726561736F6E223A20337D005B05
:1006B0004D3834325D7B226661696C726561736F9F
:1006C0006E223A20327D005B4D3834325D7B2266EB
:1006D00061696C726561736F6E223A20317D005BD7
:1006E0004D3834325D7B226661696C726561736F6F
:1006F0006E223A20307D005B4D3834325D7B2270B3
:1007000067223A20227570227D005B4D3834325DBD
:100710007B227067223A2022646F776E227D005B15
:100720004D3834325D7B2273756363657373223A8F
:100730002066616C73657D005B4D3834325D7B22D1
:10074000737461747573223A2022646F6E65227D22
:10075000005B4D3834325D7B227375636365737360
:10076000223A20747275657D0053757266696E67F2
:1007700020300A00417420426F74746F6D205374EE
:1007800069636B657200253033642E253033642530
:100790003033642E2530346400417420426F747409
:1007A0006F6D20537469636B657200253033642E5E
:1007B00025303364253033642E25303464002575AC
:1007C0002E2530327500523139005231362F5231D8
:1007D0003700417420426F74746F6D2053746963E5
:1007E0006B657200253033642E2530336425303339
:1007F000642E253034640053757266696E6720304C
:100800000A00473238205830205930005430005404
:10081000310054300054300053757266696E6720A1
:10082000300A004734330047343100473430004742
:100830003334004734330047343300473431004702
:100840003430004D3834004D3834004D3834005ABF
:1008500032204F66667365743A20004F4B207365F3
:10086000636F6E64204578747275646572210A0046
:100870005A20706F736974696F6E3A20005A207045
:100880006F736974696F6E3A20004D3834005A31C5
:100890002050726F6265206F66667365743A20003F
:1008A0004F4B206669727374204578747275646565
:1008B0007221200A005A20706F736974696F6E3A52
:1008C00020005A20706F736974696F6E3A2000437C
:1008D000616C63756C75733A20200043616C6375BD
:1008E0006C75733A20200043616C63756C75733AC4
:1008F00020200043616C63756C75733A20200036CC
:10090000302064656772656573200A0054300054B6
:10091000300054300043616C6962726174696F6EBB
:10092000205375636365737366756C0A00543000F9
:100930004A756D70206F76657220736372657731CA
:1009400020616E6420736372657732200A004A75F5
:100950006D70206F76657220736372657731200A3F
:1009600000473334004733340047333400543000F9
:100970004733340053757266696E6720300A00533E
:10098000757266696E6720300A0053757266696E0B
:100990006720300A0053757266696E6720300A005E
:1009A00053757266696E6720300A005430005375C3
:1009B0007266696E6720300A004D333400537572D9
:1009C00066696E6720300A004D3234004D323320A4
:1009D0002573004D3234004D323320257300776982
:1009E0006C6C20626520646973746F727465642036
:1009F00062792025642E253164253164206D6D2EA9
:100A000000546865206669727374206C6179657240
:100A1000207072696E7465642077697468207468E8
:100A20006520257320686F74656E64005375726667
:100A3000696E6720300A0053757266696E672030F0
:100A40000A0053757266696E6720300A005265614C
:100A5000647920746F2053746172740A00256420D5
:100A60006B6D2E0067636F646520666F756E640A38
:100A70000020746F20537461727420446973706C29
:100A800061792066726F6D20526573657400546FD2
:100A90006F6B2000646973706C6179206F6E6C6994
:100AA0006E6521002E004732382058302059300022
:100AB0004D33350047373000524553554D450A00F8
:100AC0004D383420582059205A2045004D313037B8
:100AD000005430005374617274696E67205A204369
:100AE000616C6962726174696F6E2057697A6172B4
:100AF000640A000A00205A3A200020593A200020B7
:100B0000583A200042656400456E642066696C6551
:100B1000206C6973740A00426567696E2066696CAF
:100B200065206C6973740A002F0053442070726949
:100B30006E74696E67206279746520004E6F742050
:100B40005344207072696E74696E670A00256920CB
:100B50006D696E2C20256920736563006F6B0046FC
:100B600049524D574152455F4E414D453A4D617294
:100B70006C696E2042434E3344205369676D613B7C
:100B8000204649524D574152455F56455253494FB1
:100B90004E3A30312D322E302E336265723B204674
:100BA00049524D574152455F55524C3A68747470E2
:100BB000733A2F2F6769746875622E636F6D2F42C9
:100BC000434E33442F42434E33445369676D612D86
:100BD0004669726D776172653B2050524F544F43A6
:100BE0004F4C5F56455253494F4E3A312E303B20C1
:100BF0004D414348494E455F545950453A42434E52
:100C00003344205369676D613B2045585452554425
:100C100045525F434F554E543A323B205555494457
:100C20003A00535441544953544943532052455375
:100C300045540A004D6F64652032203A2063796381
:100C40006C652020202D3E205247423A20362073EA
:100C50007461746573002A2A2D3E20004D6F64650F
:100C60002031203A2072616E646F6D20202D3E206D
:100C70005247423A202B31202B32202B332C206438
:100C80007572696E67207072696E74696E67002A8A
:100C90002A2D3E20004D6F64652030203A20646587
:100CA0006661756C74202D3E205247423A203235E1
:100CB000352032353520323535002A2A2D3E2000A8
:100CC0004C6564206D6F646573203A004D35333692
:100CD000204C5B6D6F64655D007D005B4D38343189
:100CE0005D7B226865645F30223A2000504F534993
:100CF00054494F4E20484F4D453A2000220A005596
:100D00006E6B6E6F776E20636F6D6D616E643A20EF
:100D100022000A00207A3A200020793A2000207828
:100D20003A200042656400457874727564657220EB
:100D300072656C6561736564206163746976653A98
:100D400020005A205349474D4120486F6D65640A81
:100D500000457874727564657220616374697665A4
:100D60003A20004D3834005374617274696E672004
:100D7000582043616C6962726174696F6E205769B3
:100D80007A6172640A004D38340053746172746978
:100D90006E6720592043616C6962726174696F6E7D
:100DA0002057697A6172640A00646973706C6179B2
:100DB000206F66666C696E650042434E3344205373
:100DC00069676D610A0073746172740A0065636813
:100DD0006F3A0030312D322E302E336265720A00A8
:100DE0006572726F722077726974696E6720746FB2
:100DF0002066696C650A00205A3A0020593A0020A2
:100E0000583A00656E6473746F7073206869743A41
:100E100020006563686F3A00446F6E6520736176E9
:100E2000696E672066696C652E0A006F6B0A004D5B
:100E3000323900504944204175746F74756E6520D5
:100E400066696E6973686564210A005049442041EF
:100E500075746F74756E65206661696C65642120B8
:100E600074696D656F75740A0020403A006F6B20DD
:100E7000543A006F6B20423A005049442041757447
:100E80006F74756E65206661696C656421205465B8
:100E90006D706572617475726520746F6F2068691A
:100EA00067680A00204B643A2000204B693A200012
:100EB000204B703A200020436C61737369632050AB
:100EC0004944200A002054753A2000204B753A20EE
:100ED00000206D61783A2000206D696E3A20002074
:100EE000643A200020626961733A20004475706C96
:100EF00069204D6F6465204F4E0A004D6972726F14
:100F000072204D6F6465204F4E0A00436F6F6C690D
:100F10006E6720446F776E204865617465720A00C1
:100F20002A2A2A2047656E696520456E61626C65D4
:100F3000204174746163684576656E7448616E64BF
:100F40006C657220212121202A2A2A00496E666FB1
:100F5000206E6F20656E636F6E747261646100460F
:100F6000696E616C204A534F4E0020005B4D38344F
:100F7000305D004E6F20657320656C20636F6D657A
:100F80006E746172696F20636F72726563746F0053
:100F90003B5072696E74496E666F2F004E6F206D04
:100FA000617320636F6D656E746172696F73004762
:100FB0006F206168656164005333442066696C6525
:100FC0002C2065786974004E6F20686561646572D5
:100FD0007320666F756E640046696C6520697320C6
:100FE0006E6F74206F70656E0057656C636F6D6512
:100FF00020746F206461746120616E616C797A6520
:1010000072003B2020204275696C642074696D6514
:101010003A202564202573202564202573003B5049
:1010200072696E742074696D653A20256420257399
:10103000202564202573202564202573003B544916
:101040004D453A256C64003B20472D436F64652075
:1010500067656E6572617465642062792053696D9D
:10106000706C696679334428522920566572736919
:101070006F6E2025640043616E6E6F7420656E7420
:101080006572207375626469723A200057726974E0
:10109000696E6720746F2066696C653A20002E0ABD
:1010A000006F70656E206661696C65642C2046690E
:1010B0006C653A20002E0A006F70656E20666169CB
:1010C0006C65642C2046696C653A200046696C6545
:1010D0002073656C65637465640A002053697A65E2
:1010E0003A200046696C65206F70656E65643A2031
:1010F000002E0A006F70656E206661696C65642C55
:101100002046696C653A20004E6F772066726573E1
:10111000682066696C653A20004E6F7720646F69BD
:101120006E672066696C653A20002220706F73003C
:101130002220706172656E743A2200535542524FFC
:101140005554494E452043414C4C207461726765AB
:10115000743A2200747279696E6720746F2063613B
:101160006C6C207375622D67636F64652066696CB3
:101170006573207769746820746F6F206D616E7974
:10118000206C6576656C732E204D4158206C657619
:10119000656C2069733A00534156454420505249CA
:1011A0004E540A007A70726F62653A2000534420F0
:1011B00063617264206F6B0A006F70656E526F6FAF
:1011C00074206661696C65640A00766F6C756D6584
:1011D0002E696E6974206661696C65640A004572E7
:1011E000726F723A00534420696E697420666169B7
:1011F0006C0A004578747275646572204865617484
:1012000065640A0020573A00204500205A00205902
:1012100000483D5800205A3A0020593A0020436FB8
:10122000756E7420583A200020453A00205A3A0042
:1012300020593A00583A007A5F6D696E3A20007979
:101240005F6D61783A2000785F6D61783A200078B0
:101250005F6D696E3A2000486F74656E64206F663A
:1012600066736574733A00504944204175746F7415
:10127000756E652066696E697368656421205075B6
:101280007420746865206C617374204B702C204B43
:101290006920616E64204B6420636F6E7374616EAD
:1012A00074732066726F6D2061626F766520696E5F
:1012B000746F20436F6E66696775726174696F6ED3
:1012C0002E680A00504944204175746F74756E652C
:1012D000206661696C6564212074696D656F757441
:1012E0000A0020403A006F6B20543A006F6B204296
:1012F0003A00504944204175746F74756E652066DC
:1013000061696C6564212054656D706572617475E6
:10131000726520746F6F20686967680A00204B64EB
:101320003A2000204B693A2000204B703A200020E0
:10133000436C617373696320504944200A00205450
:10134000753A2000204B753A2000206D61783A20D4
:1013500000206D696E3A200020643A200020626906
:1013600061733A20002E0A0044656C6574696F6EE3
:10137000206661696C65642C2046696C653A2000C2
:1013800046696C652064656C657465643A002E0A74
:10139000006F70656E206661696C65642C2046691B
:1013A0006C653A2000473238205830205930000A06
:1013B0000A005374616E64617264204465766961E9
:1013C00074696F6E3A20000A004D65616E3A200024
:1013D0000A002020207A3A20000A00793A2000787A
:1013E0003A20003F537065636966696564206E75D5
:1013F0006D626572206F66206C65677320696E2070
:101400006D6F76656D656E74206E6F7420706C61A3
:10141000757361626C652E0A003F5370656369667F
:10142000696564205920706F736974696F6E206FED
:101430007574206F662072616E67652E0A003F53D7
:101440007065636966696564205820706F7369749C
:10145000696F6E206F7574206F662072616E6765AC
:101460002E0A003F53706563696669656420736185
:101470006D706C652073697A65206E6F7420706C76
:1014800061757361626C652E0A0046756C6C207321
:101490007570706F72742061743A20687474703A59
:1014A0002F2F33647072696E74626F6172642E6381
:1014B0006F6D2F666F72756D2E7068700A004D34F7
:1014C00038205A2D50726F626520526570656174C4
:1014D0006162696C69747920746573742E202020B0
:1014E00056657273696F6E20322E30300A003F5697
:1014F0006572626F7365204C6576656C206E6F74E3
:1015000020706C61757361626C652E0A00426564BF
:10151000204865617465640A0020573A0024F4D4B9
:101520003050C38E20C2A24017828B7011127A9164
:101530000D816CD90AA861E108C75866076151435B
:10154000061E4B5D05C145A7041A411104093D98CB
:1015500003713931034036DB0265339102D43054D4
:1015600002802E1D02632CEE01752AC501B028A051
:1015700001102781018F2564012B244B01E02234C7
:1015800001AC211F018D200D01801FFC00841EED88
:1015900000971DDF00B81CD200E61BC600201BBC54
:1015A00000641AB200B219A8000A19A0006A1899BA
:1015B00000D117910040178B00B516840031167EBC
:1015C00000B31579003A157300C7146F0058146AF8
:1015D00000EE1366008813630025135E00C7125BDC
:1015E000006C12570015125400C111510070114FB8
:1015F0000021114B00D61049008D104700461044C1
:101600000002104200C00F4000800F3E00420F3C1D
:1016100000060F3B00CB0E3800930E37005C0E35F2
:1016200000270E3400F30D3200C10D3100900D3053
:1016300000600D2E00320D2D00050D2C00D90C2B55
:1016400000AE0C2900850C29005C0C2700350C2706
:10165000000E0C2600E80B2400C40B2400A00B2372
:10166000007D0B23005A0B2100390B2100180B20A1
:1016700000F80A1F00D90A1E00BB0A1E009D0A1DA1
:1016800000800A1D00630A1C00470A1B002C0A1B6D
:1016900000110A1A00F7091A00DD091900C4091916
:1016A00000AB091900920917007B0918006309179C
:1016B000004C09160036091600200916000A091503
:1016C00000F5081500E0081400CC081400B8081450
:1016D00000A4081400900813007D0812006B081382
:1016E000005808120046081200340811002308119F
:1016F000001208110001081100F0071000E00710A7
:1017000000D0071000C0071000B0070F00A107109D
:101710000091070E0083070F0074070F0065070E86
:101720000057070E0049070E003B070D002E070E5D
:101730000020070D0013070D0006070D00F9060C29
:1017400000ED060D00E0060C00D4060C00C8060CE7
:1017500000BC060C00B0060C00A4060B0099060C99
:10176000008D060B0082060B0077060B006C060B43
:101770000061060A0057060B004C060A0042060AE2
:101780000038060A002E060A0024060A001A060A75
:10179000001006090007060A00FD050900F4050906
:1017A00000EB050900E2050900D9050900D005098B
:1017B00000C7050900BE050900B5050800AD05080C
:1017C00000A50509009C050800940508008C050883
:1017D00000840508007C050800740508006C0507F6
:1017E00000650508005D050700560508004E050761
:1017F00000470507004005080038050700310507C8
:10180000002A050700230507001C0506001605072A
:10181000000F0507000805060002050700FB040687
:1018200000F5040700EE040600E8040600E20407E1
:1018300000DB040600D5040600CF040600C9040638
:1018400000C3040600BD040600B7040600B1040589
:1018500000AC040600A6040600A00405009B0406D4
:101860000095040500900406008A0405008504051F
:1018700000800406007A0405007504050070040564
:10188000006B04050066040500610405005C0405A6
:101890000057040500520405004D040500480405E6
:1018A00000430405003E0404003A04050035040525
:1018B00000300404002C0405002704040023040560
:1018C000001E0404001A0404001604050011040498
:1018D000000D0404000904050004040400000404CD
:1018E00000FC030400F8030400F4030400F0030404
:1018F00000EC030400E8030400E4030400E0030434
:1019000000DC030400D8030400D4030400D0030463
:1019100000CC030400C8030300C503030024F4043F
:10192000D9201BC40C5C0E9804C4095F02650771C2
:1019300001F405F900FB04B30048048700C1036902
:10194000005803550003034500BE023A00840231EB
:101950000053022A002902250004022000E4011C91
:1019600000C8011900AF0117009801140084011389
:1019700000710110006101100051010E0043010DC2
:101980000036010B002B010B0020010B0015010993
:10199000000C01090003010800FB000800F3000827
:1019A00000EB000700E4000600DE000600D8000699
:1019B00000D2000600CC000500C7000500C20005EB
:1019C00000BD000400B9000400B5000400B100042B
:1019D00000AD000400A9000400A5000300A200035C
:1019E000009F0004009B0003009800030095000284
:1019F0000093000300900003008D0002008B0003A1
:101A000000880002008600020084000300810002BA
:101A1000007F0002007D0002007B000200790002CE
:101A200000770001007600020074000200720001DD
:101A300000710002006F0002006D0001006C0002E6
:101A4000006A0001006900020067000100660001F1
:101A500000650001006400020062000100610001F5
:101A600000600001005F0002005D0001005C0001F9
:101A7000005B0001005A00010059000100580001FC
:101A800000570001005600010055000100540001FC
:101A900000530000005300010052000100510001FA
:101AA00000500001004F0001004E0000004E0001F8
:101AB000004D0001004C0001004B0000004B0001F4
:101AC000004A0001004900010048000000480001F0
:101AD00000470001004600000046000100450000EC
:101AE00000450001004400010043000000430001E4
:101AF00000420000004200010041000000410001DE
:101B000000400001003F0000003F0001003E0000D7
:101B1000003E0001003D0000003D0001003C0000CF
:101B2000003C0000003C0001003B0000003B0001C5
:101B3000003A0000003A00010039000000390001BD
:101B400000380000003800000038000100370000B5
:101B500000370001003600000036000000360001AA
:101B600000350000003500000035000100340000A1
:101B70000034000000340001003300000033000096
:101B8000003300010032000000320000003200018A
:101B90000031000000310000003100010030000081
:101BA0000030000000300001002F0000002F000076
:101BB000002F0000002F0001002E0000002E00006A
:101BC000002E0001002D0000002D0000002D00005F
:101BD000002D0001002C0000002C0000002C000053
:101BE000002C0001002B0000002B0000002B000047
:101BF000002B0001002A0000002A0000002A00003B
:101C0000002A00010029000000290000002900002E
:101C10000029000000290001002800000028000021
:101C20000028000000280000002800010027000014
:101C30000027000000270000002700000027000107
:101C400000260000002600000026000000260000FC
:101C500000260001002500000025000000250000EE
:101C600000250000002500000025000100240000E0
:101C700000240000002400000024000000240001D3
:101C800000230000002300000023000000230000C8
:101C900000230000002300000023000100220000B8
:101CA00000220000002200000022000000220000AC
:101CB000002200010021000000210000002100009E
:101CC000002100000021000000210000002100018F
:101CD0000020000000200000002000000020000084
:101CE0000020000000200000002000000020000173
:101CF000001F0000001F0000001F0000001F000068
:101D0000001F0000001F0000001F0001001E000057
:101D1000001E0000001E0000001E00000048797335
:101D2000746572657369732074656D706572617432
:101D30007572650A00546865726D616C2072756E0B
:101D4000617761792070726F74656374696F6E205A
:101D50006279204865617465725F49443A0A0045BA
:101D600072726F723A003B202020506C617374696C
:101D700063207765696768743A2025642E25646757
:101D8000003B46696C616D656E7420757365643ADD
:101D90002025642E25646D2025642E256467003B74
:101DA00046696C616D656E7420757365643A2025B3
:101DB0006C642E256C646D003B45787472756465A7
:101DC000727320757365643A205425642025642E4F
:101DD0002564205425642025642E2564003B2020A2
:101DE0002065787472756465724469616D657465A7
:101DF000722C25642E25642C25642E2564002E2E3D
:101E00002E2054696D656F757421002A2A2A204797
:101E1000656E69652057726974654F626A6563749F
:101E2000202A2A2A202D2D2D3E002E2E2E204E41F6
:101E30004B2021002A2A2A2047656E6965205772A7
:101E40006974654F626A656374202A2A2A202D2DE1
:101E50002D3E002E2E2E2041434B2021002A2A2ADF
:101E60002047656E69652057726974654F626A65BF
:101E70006374202A2A2A202D2D2D3E002A2A2A206A
:101E800047656E6965204261642042797465202A45
:101E90002A2A202D2D2D3E203078002056616C7589
:101EA000653A200020496E6465783A20002A2A2A83
:101EB0002047656E6965205265706F7274204F62AD
:101EC0006A656374202A2A2A204F626A6563743A1D
:101ED00020002A2A2A2047656E696520436F6E6EAE
:101EE0006563746564202F2053796E6321202A2A4C
:101EF0002A002056616C75653A200020496E6465A1
:101F0000783A20002A2A2A2047656E6965205265A2
:101F1000706F7274204576656E74202A2A2A204FCD
:101F2000626A6563743A2000204C656E6774683A93
:101F300020002A2A2A2047656E696520526563655C
:101F400069766564204D6167696320446F75626CD2
:101F500065204279746573202A2A2A20496E6465B7
:101F6000783A2000204C656E6774683A20002A2A6F
:101F70002A2047656E6965205265636569766564E8
:101F8000204D61676963204279746573202A2A2A8B
:101F900020496E6465783A20002A2A2A2047656E17
:101FA0006965204E414B205265636F7665727920DA
:101FB000212121202A2A2A002A2A2A2047656E69FF
:101FC0006520446973636F6E6E6563746564206633
:101FD000726F6D20446F4576656E747321202A2AD6
:101FE0002A002A2A2A2047656E696520546F6F6B84
:101FF00020746F6F206C6F6E6720746F2072652D78
:10200000656E74657220446F4576656E7473282919
:102010002C207265647563652064656C617973203A
:10202000696E20636F64652C2073656C662D707219
:102030006F74656374696F6E20656E61626C656450
:102040002E202A2A2A002A2A2A2047656E6965201E
:10205000446973636F6E6E65637465642066726F46
:102060006D204765744E6578744279746521202A25
:102070002A2A00496E7374616C6C202564202573D4
:10208000206F6E2074686520257320686F74656EFC
:10209000642E0025752E25303275005231390052DC
:1020A00031362F5231370050757267652046696CA2
:1020B000616D656E740A0053757266696E672031D2
:1020C0000A0053757266696E6720300A00425249F1
:1020D0004748544E4553533A2000220A00656E711A
:1020E0007565696E67202200220A00656E7175654C
:1020F000696E67202200202F0020400020403A0017
:1021000070012C0190012701B0012201C0011D01C5
:10211000F00118011002130130020E0160020901E2
:1021200090020401C002FF000003FA004003F50022
:102130008003F000D003EB002004E6007004E1000F
:10214000E004DC004005D700C005D2004006CD0009
:10215000D006C8008007C3003008BE00F008B900F0
:10216000C009B400B00AAF00B00BAA00D00CA500A3
:10217000000EA000500F9B00C0109600501291005E
:1021800000148C00C0158700B0178200B0197D00C4
:10219000D01B7800001E730040206E009022690062
:1021A000F024640040275F0090295A00E02B55007E
:1021B000102E500020304B0010324600E03341001A
:1021C00090353C001037370070383200A0392D00B0
:1021D000B03A2800A03B2300603C1E00103D1900CF
:1021E000903D1400103E0F00703E0A00C03E0500F6
:1021F000003F00004572726F72283833293A20423E
:10220000656420746865726D6973746F72206E6F97
:10221000742064657465637465640A004572726F46
:1022200072283832293A20526967687420746865C8
:10223000726D6973746F72206E6F7420646574655B
:10224000637465640A004572726F72283831293AE6
:10225000204C65667420746865726D6973746F7262
:10226000206E6F74202064657465637465640A0071
:102270002053544F50205052494E54200A0045726A
:10228000726F72283833293A204265642074686579
:10229000726D6973746F72206E6F742064657465FB
:1022A000637465640A002053544F50205052494EC5
:1022B00054200A004572726F72283832293A20522F
:1022C0006967687420746865726D6973746F7220D1
:1022D0006E6F742064657465637465640A002053CE
:1022E000544F50205052494E54200A004572726F8C
:1022F00072283831293A204C6566742074686572FA
:102300006D6973746F72206E6F74202064657465DC
:10231000637465640A002053544F50205052494E54
:1023200054200A004552524F52283839293A204247
:102330004544206973206E6F742068656174696E0E
:1023400067002053544F50205052494E54200A00E9
:102350004552524F52283839293A20486F74656ED9
:1023600064202564206973206E6F74206865617431
:10237000696E67006563686F3A0000002100240001
:1023800027002A002D003000330001010000040165
:1023900007010A0100002200250028002B002E0062
:1023A0003100340002010000050108010B010000AA
:1023B00020002300260029002C002F0032000001FD
:1023C00000000301060109010505050507050808C8
:1023D0000808020202020A0A0808040404040101AF
:1023E00001010101010103030303030303030407C4
:1023F00007070C0C0C0C0C0C0C0C0202020206065B
:102400000606060606060B0B0B0B0B0B0B0B01024D
:1024100010202008081020401020408002010201F6
:1024200008040201010204081020408080402010AE
:102430000804020180040201804020100804020107
:10244000080402010102040810204080010204086F
:102450001020408000000A0B02090C0D0E08070333
:102460000401000000000000000000000000000067
:10247000000000000000000000000000000000005C
:102480001211100000000000000000000000000019
:10249000000000000000000000002C207361766541
:1024A000645F466C61675F66616E6C617965725FDF
:1024B0006D6972726F723A20002C207361766564C8
:1024C0005F6665656472617465313A20002C207323
:1024D000617665645F6665656472617465303A2033
:1024E000002C2073617665645F66616E6C6179654E
:1024F000723A20002C2073617665645F74656D709C
:102500006265643A20002C2073617665645F7465AF
:102510006D70303A20002C2073617665645F7465BD
:102520006D70313A20002C2073617665645F6669B6
:102530006C65706F736974696F6E3A20002C20733C
:10254000617665645F655F706F736974696F6E3A19
:1025500020002C2073617665645F746F6F6C5F611F
:1025600063746976653A20002C2073617665645F38
:102570007A5F706F736974696F6E3A20002C2073F4
:10258000617665645F795F706F736974696F6E3AC5
:1025900020002C2073617665645F785F706F7369CB
:1025A00074696F6E3A200053415645205052494E8F
:1025B00054204C4F473A0A006563686F3A005072E6
:1025C000696E74207265636F766572792075700A22
:1025D000004E6F74207072696E74207265636F763E
:1025E0006572792075700A00535543434553530A69
:1025F0000056616C756573206F7574206F6620726C
:10260000616E67650A0056616C756573206F75743D
:10261000206F662072616E67650A0056616C756591
:1026200073206F7574206F662072616E67650A0093
:1026300056616C756573206F7574206F66207261CA
:102640006E67650A00535543434553530A0056616C
:102650006C756573206F7574206F662072616E678C
:10266000650A0056616C756573206F7574206F661E
:102670002072616E67650A0056616C756573206F24
:102680007574206F662072616E67650A0056616C12
:10269000756573206F7574206F662072616E676553
:1026A0000A0020502000205A2000205920005365A5
:1026B00074204D35333020582000486F74656E64A7
:1026C000206F6666736574733A0054696D6520699E
:1026D0006E6163746976650A00507572676520647F
:1026E000697374616E63650A005A204F666673658C
:1026F00074206F6B0A005A204F6666736574203A27
:10270000200A007A5F6D61783A20007A5F6D696E09
:102710003A20005A204F666673657400504F534943
:1027200054494F4E20484F4D453A20005265616450
:102730007920746F204C6F61642F556E6C6F6164EB
:10274000200A0053757266696E672030200A0054B3
:1027500030004E6F74205344207072696E74696E3D
:10276000670A004D383420582059205A204500006F
:1027700000000000809343000000000000A0400023
:1027800000A0400000004020004D6F766520746F6F
:102790003A2000CDCC98430080934300005243FF81
:1027A00001FF20636F6C6420657874727573696FC4
:1027B0006E2070726576656E7465640A0065636884
:1027C0006F3A000A0020616E7469686F7261726905
:1027D0000A3A200020686F726172690A20002F385F
:1027E00000766F6C746573200020566F6C7465738F
:1027F00020636172676F6C20333A200020616E7431
:1028000069686F726172690A3A200020686F7261AC
:1028100072690A20002F3800766F6C74657320008F
:1028200020566F6C74657320636172676F6C203221
:102830003A20000A0020647A333A200020647A3279
:102840003A20005431005430005430005430000A13
:102850000056756974656E73333A202000417072BA
:102860006F78333A202000566F6C746573333A20CA
:1028700020000A0056756974656E73323A20200094
:102880004170726F78323A202000566F6C74657315
:10289000323A20200056616C6F7220645A333A201D
:1028A000200056616C6F7220645A323A2020004E2C
:1028B0006577206F66667365742076657273696FDD
:1028C0006E3A20007A335F313A20007A325F313A33
:1028D00020005A7363726F6C6C5F313A20007A3358
:1028E0005F303A20007A325F303A20005A736372C8
:1028F0006F6C6C5F303A20005A76616C75652061B0
:102900006674657220686F6D653A00486F6D65206A
:10291000582F59206265666F7265205A0A00457209
:10292000726F7220577269746520454550524F4D41
:102930000053657474696E67732053746F726564B5
:102940000A00204D696E75746573203A0020204C92
:10295000617374207072696E742074696D652D3EA8
:1029600020486F757273203A004C61737420707246
:10297000696E74206475726174696F6E0A002C2030
:102980005468697264204944206E756D62657220D6
:10299000002C205365636F6E64204944206E756D72
:1029A0006265723A2000202046697273742049449F
:1029B000206E756D6265723A2000554920496E6639
:1029C0006F726D6174696F6E2053657269616C20FE
:1029D0004E756D6265723A0A00206D2C20453120DB
:1029E0007072696E742064697374616E63653A20F5
:1029F00000206B6D2C204530207072696E7420644D
:102A0000697374616E63653A2000206B6D2C2059E8
:102A1000207072696E742064697374616E63653AC4
:102A20002000206B6D2C205831207072696E74204C
:102A300064697374616E63653A200020432C0A2038
:102A40005830207072696E742064697374616E63AB
:102A5000653A200020432C206D61782074656D70EC
:102A600020423A200020432C206D61782074656D4F
:102A70007020523A20002C206D61782074656D70B2
:102A8000204C3A2000682C207072696E74732066A6
:102A9000696E69736865643A20002C207072696EF3
:102AA00074696E672074696D653A20002020707229
:102AB000696E74733A200053544154533A0A00200B
:102AC000432C20525F5052494E543A200020432C50
:102AD00020525F4245443A200020432C20525F524E
:102AE000454D4F56453A20002020525F494E5345F0
:102AF00052543A200054656D70202843293A0A0048
:102B000020432C204C5F5052494E543A2000204321
:102B10002C204C5F4245443A200020432C204C5F3F
:102B200052454D4F56453A200020204C5F494E53A8
:102B30004552543A200054656D70202843293A0AC2
:102B40000020562856657273696F6E292000205246
:102B500028426564207269676874207363726577C0
:102B600029200020204D353331204C284265642037
:102B70006C65667420736372657729200042656412
:102B8000204F66667365747320286D6D293A0A00BC
:102B90002050285A2070726F62652900205A200048
:102BA0002059200020204D353330205820004F661A
:102BB000667365747320286D6D293A0A00204400FD
:102BC000204900202D204D333031205249474854B0
:102BD00020500020440020490020204D3330312077
:102BE0004C45465420500050494420736574746924
:102BF0006E67733A0A00205A0020590020204D3297
:102C00003036205800486F6D65206F6666736574B6
:102C100020286D6D293A0A00204500205A002058CE
:102C20000020420020540020204D32303520530037
:102C3000416476616E636564207661726961626C7D
:102C400065733A20533D4D696E2066656564726117
:102C5000746520286D6D2F73292C20543D4D696EAD
:102C60002074726176656C20666565647261746556
:102C700020286D6D2F73292C20423D6D696E696D82
:102C8000756D207365676D656E742074696D652060
:102C9000286D73292C20583D6D6178696D756D2004
:102CA0005859206A65726B20286D6D2F73292C206E
:102CB000205A3D6D6178696D756D205A206A657284
:102CC0006B20286D6D2F73292C2020453D6D617878
:102CD000696D756D2045206A65726B20286D6D2FBA
:102CE00073290A0020540020204D32303420530034
:102CF000416363656C65726174696F6E3A20533D20
:102D0000616363656C65726174696F6E2C20543DFC
:102D10007265747261637420616363656C6572616E
:102D200074696F6E0A00204500205A002059002067
:102D3000204D3230312058004D6178696D756D201D
:102D4000416363656C65726174696F6E20286D6D97
:102D50002F7332293A0A00204500205A00205900DA
:102D600020204D3230332058004D6178696D756DEB
:102D70002066656564726174657320286D6D2F73BC
:102D8000293A0A00204500205A0020590020204DF1
:102D90003932205800537465707320706572207545
:102DA0006E69743A0A005072696E746572206861C7
:102DB0006C7465642E206B696C6C28292063616CCF
:102DC0006C6564210A004572726F723A006C617919
:102DD0006572206865696768743A20004578747286
:102DE000756465722072656C6561736564206163EA
:102DF000746976653A20005A205349474D4120486E
:102E00006F6D65640A00457874727564657220613F
:102E100063746976653A20007C3C3E5E2B3D3F2F13
:102E20005B5D3B2C2A225C004D38343100496E73C7
:102E300074616C6C202564202573206F6E2074688B
:102E40006520257320686F74656E642E0065636865
:102E50006F3A004D3234004D3233202573006175D6
:102E6000746F25692E67004D313037004E6577202D
:102E70006C617965722064657465637465640A00C9
:102E80003B206C61796572003B4C415945520025ED
:102E90006920686F757273202569206D696E75747D
:102EA000657300446F6E65207072696E74696E6739
:102EB0002066696C650A004D333300504155534517
:102EC0000A00473639005072696E74657220737457
:102ED0006F707065642064756520746F2065727210
:102EE0006F72732E2046697820746865206572724F
:102EF0006F7220616E6420757365204D39393920F9
:102F0000746F20726573746172742E202854656D1D
:102F1000706572617475726520697320726573657E
:102F2000742E205365742069742061667465722064
:102F300072657374617274696E67290A006F6B0A37
:102F4000004E6F204C696E65204E756D6265722073
:102F50007769746820636865636B73756D2C204CAA
:102F6000617374204C696E653A20004E6F2043688F
:102F700065636B73756D2077697468206C696E6525
:102F8000206E756D6265722C204C617374204C69E3
:102F90006E653A2000636865636B73756D206D69BB
:102FA000736D617463682C204C617374204C696E7E
:102FB000653A20004C696E65204E756D6265722021
:102FC0006973206E6F74204C617374204C696E6558
:102FD000204E756D6265722B312C204C617374200C
:102FE0004C696E653A20004D31313000CDCC9843AC
:102FF00000809343000052430000000000000000E6
:103000000000000053746F72656420736574746906
:103010006E6773207265747269657665640A00482C
:10302000617264636F6465642044656661756C7485
:103030002053657474696E6773204C6F61646564B6
:103040000A0048617264636F6465642043616C695F
:103050006220616E64205049442044656661756C4D
:10306000742053657474696E6773204C6F61646576
:10307000640A00526573656E643A20006F6B0A0043
:10308000473639204143544956415445440A0000CB
:10309000E702D90211241FBECFEFD1E2DEBFCDBFC0
:1030A00000E00CBF18E0A0E0B2E0EAE0F6EA03E0DE
:1030B0000BBF02C007900D92A835B107D9F72DE1DB
:1030C000A8E5B8E001C01D92A73FB207E1F718E1FB
:1030D000C9E4D8E100E006C021970109802FFE0174
:1030E0000F94DECFC834D10780E00807A9F70F940A
:1030F00005A70D94F4D20C9400002F923F924F92AA
:103100005F926F927F928F929F92AF92BF92CF9277
:10311000DF92EF92FF920F931F93CF93DF93CDB780
:10312000DEB7C352D1400FB6F894DEBF0FBECDBF9D
:103130002DB73EB7CE5DDE4F39832883C252D140D2
:1031400011E01093AC0880918F0881110CC00F948E
:10315000C91E60938B0870938C0880938D089093A0
:103160008E0810938F088091830881110DC00F94F1
:10317000C91E60937F0870938008809381089093A4
:10318000820881E0809383089091DB194091C70207
:103190005091C8026091C9027091CA02911106C093
:1031A0008091DC19882311F40C947323453A51055E
:1031B0006105710509F44AC60CF0C3C047355105D5
:1031C0006105710509F4B7C40CF05EC041325105C8
:1031D0006105710511F40C948B2134F541315105D1
:1031E0006105710509F4F9C774F4413051056105B1
:1031F000710509F4E8C2403151056105710509F412
:10320000BBC10C945F61433151056105710509F43F
:103210007AC40CF498C4403251056105710511F46B
:103220000C949A210C945F6141345105610571053C
:1032300009F4D8C4ACF4453351056105710511F4A6
:103240000C943F224D3351056105710509F4F1C31A
:10325000413351056105710511F00C945F612EC475
:10326000463451056105710509F4C0C44335510563
:103270006105710509F4C0C2443451056105710549
:1032800009F492C70C945F614739510561057105D6
:1032900011F40C9425224CF5463751056105710552
:1032A00009F473C474F4483551056105710509F4D6
:1032B000E6C34A3551056105710509F413C60C943E
:1032C0005F614E3751056105710509F48DC14938BB
:1032D00051056105710509F443C24B37510561057C
:1032E000710511F00C945F61FDC54C395105610504
:1032F000710511F40C94BB219CF44A395105610508
:10330000710511F40C94A92114F00C94B2214839E0
:1033100051056105710511F40C9414220C945F6140
:10332000433A51056105710509F47DC50CF0B4C53A
:103330004D3951056105710511F40C94E8210C9487
:103340005F614F3E51056105710509F46FC20CF0D4
:1033500088C0433D51056105710511F40C942F237C
:10336000BCF5483A51056105710509F4A8C504F595
:10337000463A51056105710509F4FDC4473A510506
:103380006105710511F00C945F618091A508909121
:10339000A608A091A708B091A80891608093A508FD
:1033A0009093A608A093A708B093A8080C945F6117
:1033B0004A3A51056105710509F409C50CF459C56E
:1033C0004E3B51056105710509F46BC30C945F61B7
:1033D000453E51056105710509F40CC414F5433EE1
:1033E00051056105710509F418C40CF067C4423E2B
:1033F00051056105710511F00C945F618091A5087C
:103400009091A608A091A708B091A8088260809327
:10341000A5089093A608A093A708B093A8080C94B9
:103420005F614D3E51056105710509F40BC10CF05A
:10343000C2C14A3E51056105710511F00C945F61EE
:1034400040E050E06EE681E20F9403108091C809DD
:103450009091C90992609093C9098093C8090C940E
:103460005F614B3F51056105710509F402C484F5A4
:10347000473F51056105710509F433C4A4F4423F87
:1034800051056105710509F4B7C1463F5105610554
:10349000710509F44BC4413F51056105710511F0F7
:1034A0000C945F6190C18091A5089091A608A091AD
:1034B000A708B091A80820917F0230918002493F6F
:1034C00051056105710509F495C40CF467C4B8C3CE
:1034D0004E3631E053076105710509F4A8C0B4F513
:1034E000483691E059076105710509F4BFC74A36AE
:1034F000A1E05A076105710509F499C045365140AC
:103500006105710511F00C945F6140E050E06AE2E2
:103510008AE00F94031040E050E064E581E20F94EC
:10352000031081E08093E6101092E9106AEF78E0D2
:1035300086E20F9411118091C8099091C909986091
:103540009093C9098093C8090C945F614937E1E001
:103550005E076105710509F43CC64538F1E05F0777
:103560006105710509F469C148375140610571056C
:1035700011F00C945F6199C580912402813419F592
:1035800041E050E066E08BE10F94031041E050E031
:1035900060E181E20F94031041E050E062E181E2DA
:1035A0000F94031041E050E063E181E20F940310B7
:1035B00041E050E06EE781E20F94031084E48093D1
:1035C00024020C945F61843411F00C945F6180914B
:1035D000C8099091C90980649093C9098093C8096A
:1035E0001092E6100C945F6140E050E066E08BE1E1
:1035F0000F94031040E050E060E181E20F9403106B
:1036000040E050E062E181E20F94031040E050E0BE
:1036100063E181E20F94031040E050E06EE781E245
:103620000F94031081E4809324020C945F618091D5
:10363000C8099091C90992609093C9098093C809FB
:103640000C945F6180912402823419F583E48093A5
:10365000240241E050E063E08BE10F94031041E06D
:1036600050E067E581E20F94031041E050E066E727
:1036700081E20F94031041E050E06DEE81E20F947F
:10368000031041E050E069E881E20F9403100C94CC
:103690005F61833411F00C945F6111E01093A10815
:1036A00040E050E068E981E20F94031040E050E010
:1036B00067E981E20F94031040E050E06CE981E299
:1036C0000F94031040E050E06DE981E20F94031085
:1036D00041E050E06AE481E20F94031040E050E0E2
:1036E0006CE28AE00F9403101093E9108FEF9FEFC4
:1036F0009093FB028093FA0240E050E06AE981E295
:103700000F94031040E050E06BE981E20F94031046
:103710006091570B7091580B8091590B90915A0BF7
:103720000F9406CDAB0166E289E00F94031060911F
:103730005B0B70915C0B80915D0B90915E0B0F9415
:1037400006CDAB0167E289E00F94031040E050E042
:1037500068E289E00F9403101092E6100C945F6108
:1037600080912402833411F00C945F6182E4809391
:10377000240240E050E063E08BE10F94031040E04E
:1037800050E067E581E20F94031040E050E066E707
:1037900081E20F94031040E050E06DEE81E20F945F
:1037A000031040E050E069E881E20F9403101092AA
:1037B000E9100C945F6140E050E064E58AE00F940A
:1037C00003100C945F611092E6108091C8099091EB
:1037D000C90982609093C9098093C80981E08093E8
:1037E000841140E050E068E08AE00F94031081E427
:1037F000809385110C945F618091CD09882311F429
:103800000C945F6141E050E08091CA098A3011F464
:1038100040E050E069E18BE10F94031040E050E09C
:1038200062E58AE00F9403100C945F6189E4809351
:103830001E020F949B820C945F618091E51D909114
:10384000E61D9093E20B8093E10B0E9450FE809165
:10385000E71D9091E81D9093E40B8093E30B0E9489
:1038600050FE82E48093240282E580931E0281E070
:103870008093E9101092E6108091CA09E1E08A3045
:1038800009F4E0E0E093BA12F0E0EE0FFF1FEF5111
:10389000F44F2081318130937E0820937D088A3057
:1038A00029F4809100129091011204C080910412B9
:1038B00090910512918380830E9450FE81E4809351
:1038C000851140E050E068E08AE00F94031040E08A
:1038D00050E064E581E20F94031080E090E0A3E4FF
:1038E000B3E48093040C9093050CA093060CB09362
:1038F000070C8090A6129090A712A090A812B090EA
:10390000A9122091000C3091010C4091020C5091B1
:10391000030C6091FC0B7091FD0B8091FE0B90915C
:10392000FF0BEFEE6E2EEBE07E2E7F926F92F8E0B3
:10393000CF2EFCE0DF2EE12CF12C03E413E40F94F6
:1039400041470F94020080E090E0A0E2B1E4809350
:10395000000C9093010CA093020CB093030C809088
:10396000A2129090A312A090A412B090A512E09081
:10397000040CF090050C0091060C1091070C60915E
:10398000FC0B7091FD0B8091FE0B9091FF0B7F92D1
:103990006F9220E030E040E251E40F9441470F94F1
:1039A00002000F900F900F900F90809185118E3430
:1039B00011F40C94212B109285110E94C16840E0F3
:1039C00050E060E289E00F94031040E050E064E2D0
:1039D0008AE00F9403100091BA1210E0F801EE0F84
:1039E000FF1FEE0FFF1FE95AF44F60817181828142
:1039F00093810F9406CD70939F0860939E08000FEB
:103A0000111FF801EF51F44F808191810A97909333
:103A10009D0880939C0810929B0810929A0889E454
:103A2000809385110E94C16881E08093A0080C9466
:103A30005F618091240240E050E0813441F469E00C
:103A40008AE00F9403106AEF78E082E007C06AE230
:103A50008AE00F9403106AEF78E086E20F94111168
:103A60008091C8099091C90998609093C909809381
:103A7000C8091092E9101092E6100C945F618091D1
:103A8000130C81110C945F618091DC1981110C94ED
:103A90005F6140E050E069E38AE00F9403100C940A
:103AA0005F618091130C81110C945F6140E050E0E4
:103AB00061E08AE00F9403100C945F618091130C15
:103AC00081110C945F6110912402113411F00C9457
:103AD0005F611092E6101092DB1981E08093DC198F
:103AE00040E050E068E08AE00F94031010938511E5
:103AF0008091C8099091C90994609093C9098093F5
:103B0000C8090C945F6180912402813439F440E04B
:103B100050E061E08AE00F940310ADCF843409F0E7
:103B2000AACF8091C8099091C90990619093C90961
:103B30008093C809A0CF80912402823441F383345A
:103B400009F099CFEECF80912402992369F0813456
:103B500059F48091C8099091C90988609093C90966
:103B60008093C8090C945F61843411F00C945F61F8
:103B70008091C8099091C90980689093C909809380
:103B8000C8091092E6100C945F618091DC198823BB
:103B900011F40C945F6180912402823459F4809175
:103BA000C8099091C90980619093C9098093C80997
:103BB0000C945F61833411F00C945F6140E050E03D
:103BC00066E18AE00F94031041E050E064E581E291
:103BD0000F94031082E580931E0281E08093E91028
:103BE0000C945F610F94991B0C945F610F94231BDD
:103BF0000C945F618091A5089091A608A091A708F8
:103C0000B091A80884608093A5089093A608A0931B
:103C1000A708B093A8080C945F618091A5089091C3
:103C2000A608A091A708B091A80888608093A5086D
:103C30009093A608A093A708B093A8080C945F617E
:103C40002330310559F4A1608093A5089093A6080C
:103C5000A093A708B093A8080C945F618460809338
:103C6000A5089093A608A093A708B093A8080C9461
:103C70005F6120917F02309180028091A508909130
:103C8000A608A091A708B091A8082330310559F4DF
:103C9000A2608093A5089093A608A093A708B0936C
:103CA000A8080C945F6188608093A5089093A6088B
:103CB000A093A708B093A8080C945F618091A50811
:103CC0009091A608A091A708B091A8088160809360
:103CD000A5089093A608A093A708B093A8080C94F1
:103CE0005F6120917F02309180028091A5089091C0
:103CF000A608A091A708B091A8082330310559F46F
:103D000090618093A5089093A608A093A708B0930C
:103D1000A8080C945F6181608093A5089093A60821
:103D2000A093A708B093A8080C945F6120917F022C
:103D3000309180028091A5089091A608A091A708D3
:103D4000B091A8082330310559F490628093A508FA
:103D50009093A608A093A708B093A8080C945F615D
:103D600082608093A5089093A608A093A708B093BB
:103D7000A8080C945F618091A5089091A608A09175
:103D8000A708B091A80880628093A5089093A60820
:103D9000A093A708B093A8080C945F612330310565
:103DA00059F490648093A5089093A608A093A7085F
:103DB000B093A8080C945F6180628093A5089093EB
:103DC000A608A093A708B093A8080C945F618091FF
:103DD000A5089091A608A091A708B091A8088061B5
:103DE0008093A5089093A608A093A708B093A8086D
:103DF0000C945F612330310559F490688093A508D5
:103E00009093A608A093A708B093A8080C945F61AC
:103E100080618093A5089093A608A093A708B0930B
:103E2000A8080C945F618091A5089091A608A091C4
:103E3000A708B091A80880648093A5089093A6086D
:103E4000A093A708B093A8080C945F618091A5087F
:103E50009091A608A091A708B091A80880688093C7
:103E6000A5089093A608A093A708B093A8080C945F
:103E70005F618091A5089091A608A091A708B091D4
:103E8000A80892608093A5089093A608A093A7081D
:103E9000B093A8080C945F618091A5089091A60842
:103EA000A091A708B091A80894608093A50890936A
:103EB000A608A093A708B093A8080C945F6180910E
:103EC000A5089091A608A091A708B091A8089860AD
:103ED0008093A5089093A608A093A708B093A8087C
:103EE0000C945F614A3551056105710519F4109212
:103EF000BA1203C081E08093BA128091BA12E82FFF
:103F0000F0E0EE0FFF1FEF51F44F2081318130932D
:103F10007E0820937D08811105C080910012909148
:103F2000011204C080910412909105129183808344
:103F30000E9450FE81E48093851140E050E068E0EB
:103F40008AE00F94031040E050E064E581E20F94B2
:103F5000031080E090E0A3E4B3E48093040C90931A
:103F6000050CA093060CB093070C8090A6129090BD
:103F7000A712A090A812B090A9122091000C309125
:103F8000010C4091020C5091030C6091FC0B70915C
:103F9000FD0B8091FE0B9091FF0BEFEE6E2EEBE090
:103FA0007E2E7F926F92F8E0CF2EFCE0DF2EE12C88
:103FB000F12C03E413E40F9441470F94020080E0D6
:103FC00090E0A0E2B1E48093000C9093010CA093E8
:103FD000020CB093030C8090A2129090A312A090B8
:103FE000A412B090A512E090040CF090050C009182
:103FF000060C1091070C6091FC0B7091FD0B8091E9
:10400000FE0B9091FF0B7F926F9220E030E040E238
:1040100051E40F9441470F9402000F900F900F90BE
:104020000F90809185118E3411F40C94212B1092F5
:1040300085110E94C16840E050E060E289E00F9481
:10404000031040E050E064E28AE00F940310009116
:10405000BA1210E0F801EE0FFF1FEE0FFF1FE95A32
:10406000F44F60817181828193810F9406CD7093AA
:104070009F0860939E08000F111FF801EF51F44F45
:10408000808191810A9790939D0880939C0810925B
:104090009B0810929A0889E4809385110E94C16858
:1040A00081E08093A0080C945F6140E050E060E202
:1040B00089E00F94031040E050E064E28AE00F943E
:1040C000031089E4809385110E94C1680091BA129F
:1040D00001111DC080910212909103126091191379
:1040E00070911A13681779072CF4BC01990F880B8B
:1040F000990B04C0072E000C880B990B0F94D1C4A8
:104100000F9406CD7093E20B6093E10B20C0809179
:10411000061290910712609113137091141368178F
:1041200079072CF4BC01990F880B990B04C0072E5A
:10413000000C880B990B0F94D1C410E0000F111FD5
:104140000F51144F0F9406CDD8016D937C930E94AC
:1041500050FE0091BA1210E0F801EE0FFF1FEE0FB3
:10416000FF1FE95AF44F60817181828193810F941E
:1041700006CD70939F0860939E08000F111FF801F1
:10418000EF51F44F808191810A9790939D0880931D
:104190009C0810929B0810929A080E94C16881E0C6
:1041A0008093A0080C945F6180913802882311F4F9
:1041B0000C946D618091BA12811102C08AE101C034
:1041C00086E30F94381D892B11F00C946D610C94CB
:1041D0005F610F94BB7D0C945F618091A30881FFA8
:1041E00002C00C945F619091A8098091A70998136F
:1041F0000C94ED6240E050E06BE084E10F9403101A
:1042000040E050E065E18AE00F94031082E480937F
:1042100085118093DD12E091BA1234E0E39FF00142
:104220001124E95AFD4F60817181828193816093ED
:10423000FC0B7093FD0B8093FE0B9093FF0BE090B3
:10424000040CF090050C0091060C1091070C2091C5
:10425000000C3091010C4091020C5091030CEAEBE0
:10426000F2E1FF93EF93812C912CE8E4AE2EE3E48E
:10427000BE2EF8E0CF2EFCE0DF2E0F944147E090F9
:10428000040CF090050C0091060C1091070C209185
:10429000000C3091010C4091020C5091030CE09104
:1042A000EF0B64E0E69FF0011124E95AFD4F6081B5
:1042B0007181828193810F949311E091EF0B84E0DF
:1042C000E89FF0011124E95AFD4F80819181A2817C
:1042D000B3818093FC0B9093FD0BA093FE0BB093E6
:1042E000FF0BE091BA12F0E0EE0FFF1FEF51F44F19
:1042F00080917D0890917E08918380830E9450FE7A
:104300001092CD090F94020081E00F945C160F907B
:104310000F900C945F618091A30881FF02C00C9400
:104320005F619091A8092091A70929130C94F1626B
:104330000C94F4628091A30881FF02C00C945F6129
:104340009091A8092091A70929130C94F1620C946B
:10435000F8629091A8098091A70998130C945F6165
:104360000C94FC629091A8098091A70998130C9471
:104370005F610C948763E091FA02F091FB02EF3FDA
:104380009FEFF90711F40C945F61EE0FFF1FEF51DF
:10439000F44F808191818B33A1E09A0714F00C9443
:1043A0005F610596918380830E9450FE0E9450FEBB
:1043B000E091FA02F091FB02EE0FFF1FEF51F44F74
:1043C0004081518168E289E00F9403100C945F6191
:1043D000E091FA02F091FB02EF3FBFEFFB0711F40F
:1043E0000C945F61EE0FFF1FEF51F44F80819181BC
:1043F0001816190614F00C945F6105979183808359
:104400000E9450FE0E9450FEE091FA02F091FB02E1
:10441000EE0FFF1FEF51F44F4081518168E289E0B8
:104420000F9403100C945F618091FA029091FB024B
:10443000019611F40C945F619091A8098091A709ED
:1044400098130C94F1620C9415648091FA02909187
:10445000FB02019611F40C945F619091A809809180
:10446000A70998130C94F1620C941B649091A8090D
:104470008091A70998130C945F610C94216480913A
:10448000DD12823411F00C945F61109285118091DD
:10449000C8099091C9098D7F9093C9098093C80973
:1044A00080911E02823531F489E480931E020F94BC
:1044B0009B82D1C0893409F0CEC081E480938511FC
:1044C00040E050E068E08AE00F9403104090190942
:1044D00050901A0960901B0970901C094092000CC2
:1044E0005092010C6092020C7092030C20E030E0BC
:1044F00040E752E46091E0027091E1028091E202B3
:104500009091E3020F945ACC4B015C01E090040CB3
:10451000F090050C0091060C1091070C6091FC0BBB
:104520007091FD0B8091FE0B9091FF0B2FEE3BE005
:104530003F932F9338E0C32E3CE0D32EA30192018A
:104540000F9441470F9402000F900F9080918511B6
:104550008E3411F40C94212B20E030E040E251E441
:1045600060911D0970911E0980911F099091200989
:104570000F946CCB7B018C016093040C7093050C41
:104580008093060C9093070C809114098983809086
:10459000E4029090E502A090E602B090E70220913C
:1045A000000C3091010C4091020C5091030C609171
:1045B000FC0B7091FD0B8091FE0B9091FF0BFE01A7
:1045C0003196FF93EF930F9441470F9402000F90A1
:1045D0000F90809185118E3411F40C94212B109240
:1045E000851182E48093240240E050E063E08BE197
:1045F0000F94031040E050E067E581E20F94031050
:1046000040E050E066E781E20F94031040E050E0A4
:104610006DEE81E20F94031040E050E069E881E222
:104620000F94031040E050E06AE28AE00F94031018
:1046300081E08093E6101092E9106AEF78E086E25C
:104640000F9411118091C8099091C90998609093B5
:10465000C9098093C8091092DD120C945F618091A2
:104660001212109285118823E9F010921212809193
:10467000C8099091C90998609093C9098093C809A5
:104680008091240240E050E0813431F469E08AE016
:104690000F9403100C945F616AE28AE00F94031098
:1046A0000C945F611092A20B1092E910E2E4FAE020
:1046B00084918F01882351F0082E000C990B0F94E0
:1046C0006C870F5F1F4FF8018491F4CF1092AB08F5
:1046D00081E00F945C1640E050E065E08AE00F94C2
:1046E00003100C945F618091F508282F287083FFD8
:1046F00091C39091F908923008F48CC3423B510564
:104700006105710509F4B9C07CF5433851056105AF
:10471000710509F4A6C1A4F44E3551056105710572
:1047200009F4F1C24F3551056105710509F41DC346
:10473000453351056105710511F00C945F6128C383
:10474000423A51056105710509F46BC0413B5105C1
:104750006105710509F47BC0403A51056105710599
:1047600011F00C945F61B3C04233F1E05F07610563
:10477000710509F45CC14CF54C3C510561057105AE
:1047800009F48FC0463E51056105710509F45DC10C
:10479000453C51056105710511F00C945F610F9462
:1047A000051B41E050E065EC81E20F94031041E00D
:1047B00050E060EA81E20F94031081E090E0909372
:1047C0000103809300030C945F61463331E053078B
:1047D0006105710509F415C1ACF44333514061051D
:1047E000710511F00C945F618DEF9FEF9093DF12D4
:1047F0008093DE1240E050E06AE08AE00F940310FC
:104800000C945F614A33A1E05A076105710509F410
:1048100030C14E3751406105710509F4F2C10C9465
:104820005F610F94051B41E050E062EA81E20F9462
:10483000031041E050E060EA81E20F9403108EEF34
:104840009FEF90930103809300030C945F610F949A
:10485000051B41E050E061EB81E20F94031041E061
:1048600050E060EA81E20F9403108FEF9FEF909386
:104870000103809300030C945F610F94051B41E0DA
:1048800050E062EB81E20F94031041E050E060EAF7
:1048900081E20F94031010920103109200030C9414
:1048A0005F610F94051B41E050E06CEC81E20F94D6
:1048B000031041E050E060EA81E20F94031082E0CF
:1048C00090E090930103809300030C945F6100914A
:1048D00000031091010398012E5F3F4F25303105F1
:1048E00010F00C945F619230D9F583E08093F90861
:1048F00040E050E061E18AE00F94031080E580938E
:1049000085118091F608800F8093F60800E010E092
:1049100020E030E04CE553EC60E070E088EA92EC97
:104920000F943CB30F94051B80E697E0909301032E
:104930008093000340E050E060EA81E20F940310AE
:1049400042E050E06CE08BE10F94031040E050E057
:1049500069E18AE00F940310109285110C945F6155
:104960009330D9F584E08093F90840E050E061E1AC
:104970008AE00F94031080E5809385118091F708F9
:10498000800F8093F70800E010E020E030E04CE575
:1049900053EC60E070E084EA92E40F943CB30F942F
:1049A000051B80E697E0909301038093000340E0AD
:1049B00050E060EA81E20F94031042E050E06CE0C6
:1049C0008BE10F94031040E050E069E18AE00F941E
:1049D0000310109285110C945F61943011F00C94C7
:1049E0005F618091F808800F8093F80840E050E004
:1049F0006EE28AE00F9403108FE4809385110C948B
:104A00005F610F94051B40E050E060EA81E20F9483
:104A1000031040E050E069E18AE00F94031080E663
:104A200097E090930103809300030C945F6183E00F
:104A300090E09093DF128093DE1240E050E06AE055
:104A40008AE00F9403100C945F611092DF121092B1
:104A5000DE1240E050E06AE08AE00F9403100C940C
:104A60005F6140E050E06DE68AE00F9403100C9423
:104A70005F6140E050E068E08AE00F94031081E459
:104A80008093851141E061E081E00F94C76E109240
:104A900085110F9402000F942B7F1091DE128091EC
:104AA000F9088230B1F540E050E061E18AE00F940E
:104AB000031080E5809385110091F608010F0093A3
:104AC000F608002E000C110B20E030E0A901CA010D
:104AD000B9010F943CB30F94051B80E697E09093C7
:104AE00001038093000340E050E060EA81E20F940C
:104AF000031042E050E06CE08BE10F94031040E0C3
:104B000050E069E18AE00F940310109285110C9433
:104B10005F618330C9F540E050E061E18AE00F94C5
:104B2000031080E5809385110091F708010F009331
:104B3000F708002E000C110B20E030E04CE553ECA0
:104B400060E070E088EA92EC0F943CB30F94051B90
:104B500080E697E0909301038093000340E050E0EB
:104B600060EA81E20F94031042E050E06CE08BE1D8
:104B70000F94031040E050E069E18AE00F940310C5
:104B8000109285110C945F61843011F00C945F6178
:104B900040E050E061E18AE00F94031080E58093EB
:104BA00085110091F808010F0093F808002E000C01
:104BB000110B20E030E04CE553EC60E070E084EA5B
:104BC00092E40F943CB30F94051B80E697E090931A
:104BD00001038093000340E050E060EA81E20F941B
:104BE000031042E050E06CE08BE10F94031040E0D2
:104BF00050E069E18AE00F940310109285110C9443
:104C00005F61109285118091F6084091F708042F9A
:104C1000081B4091F808142F181B602F002E000C61
:104C2000770B880B990B0F94D1C42DEC3CEC4CEC1A
:104C30005DEB0F94D0BF60937509709376098093F4
:104C4000770990937809612F012E000C770B880B60
:104C5000990B0F94D1C42DEC3CEC4CEC5DEB0F9414
:104C6000D0BF609371097093720980937309909318
:104C700074090023A1F040E050E06FE18AE00F9456
:104C8000031007FF07C0E02FFF27E1950CF4F09514
:104C900008E00E0F402F000F550B64E015C01123E4
:104CA000B9F040E050E060E28AE00F94031017FF93
:104CB00007C0212F332721950CF4309518E0120FEF
:104CC000412F110F550B65E08BE10F94031011C0BC
:104CD00014E41093DD1240E050E06BE084E10F94A7
:104CE000031040E050E065E18AE00F940310109358
:104CF000851185E890E09093700980936F090F9477
:104D0000366B0C945F614091F8088091F608142F7F
:104D1000181BC1F040E050E060E28AE00F940310FD
:104D200017FF07C0812F992781950CF4909518E003
:104D3000180F412F110F550B65E08BE10F940310F5
:104D40000C945F6114E41093DD1240E050E06BE0DE
:104D500084E10F94031040E050E065E18AE00F9495
:104D60000310109385110C945F6114E41093DD120D
:104D700040E050E06BE084E10F94031040E050E02D
:104D800065E18AE00F940310109385110C945F6124
:104D90009091DD12943411F00C945F611092F90837
:104DA000877F8093F508109285111092DC0B10928A
:104DB000DB0B0E940CFE1092E20B1092E10B0E94A2
:104DC00050FE1092E40B1092E30B0E9450FE1092E2
:104DD000A20B1092E910E7E3FAE084918F01882397
:104DE00051F0082E000C990B0F946C870F5F1F4F2A
:104DF000F8018491F4CF1092AB0880E00F945C1618
:104E000040E050E065E08AE00F9403101092DD125C
:104E10000C945F614E38F1E05F0710F00C945F6115
:104E2000FA018827EE58FF4F8F4F0D94DECF809107
:104E300022029091230282609093230280932202A7
:104E40000C945F6180912202909123028460909380
:104E50002302809322020C945F6180912202909140
:104E60002302886090932302809322020C945F6156
:104E7000809122029091230280619093230280937B
:104E800022020C945F618091220290912302806241
:104E900090932302809322020C945F610E9464D15C
:104EA000009781F480912202909123029460909364
:104EB0002302809322028091CC0B81508093CC0BF3
:104EC0000C945F61019711F00C945F618091220254
:104ED000909123029460909323028093220240E0F9
:104EE00050E067E381E20F94031040E050E061E09E
:104EF0008BE10F9403108091CC0B81508093CC0BED
:104F00000C945F611092A20B1092E910ECE2FAE0AF
:104F100084918F01882351F0082E000C990B0F9477
:104F20006C870F5F1F4FF8018491F4CF1092AB088C
:104F300081E00F945C1640E050E065E08AE00F9459
:104F400003100C945F618091DD19882311F40C9497
:104F50005F6141E061E08EED99E10E94C1D68FEF83
:104F60009FEF9093CC198093CB19812C912C5401F5
:104F70007501640100E010E08AE7482E89E1582EAF
:104F800092E3392E66246394712C40917C1C5091DD
:104F90007D1C60917E1C70917F1C8091D71B90912D
:104FA000D81BA091D91BB091DA1B84179507A607CF
:104FB000B70708F059C0D201E32D1D92EA95E9F731
:104FC0000E94A6D10196D9F41092C6191092C51963
:104FD0001092C8191092C71981E090E09093CA19F5
:104FE0008093C9191092D6191092D5191092D81918
:104FF0001092D71980E00E940ED00C943E640115E7
:10500000110581F40E9418D2019639F07092CC19E2
:105010006092CB1907E010E021C01092CC191092D9
:10502000CB191CC080E00F9403AE6B017C0181E0C2
:105030000F9403AE4B015C0120E030E0A901C701F1
:10504000B6010F9444CE18167CF020E030E0A901A0
:10505000C501B4010F9444CE181634F00F5F1F4FF2
:105060000E3111050CF491CF80E00E940ED020E0AB
:1050700030E0A901C701B6010F94CBC418165CF04B
:1050800020E030E0A901C501B4010F94CBC418168B
:1050900014F00C943E64409002035090030360901F
:1050A000040370900503A3019201C701B6010F9498
:1050B000CBC4811114C020E030E0A901C701B601C2
:1050C0000F9444CE18165CF420E030E0A901C5012D
:1050D000B4010F94CBC4181614F00C943E64809164
:1050E000060390910703A0910803B0910903C65EDF
:1050F000DE4F88839983AA83BB83CA51D1409C0128
:10510000AD01C501B4010F94CBC481111EC020E0D4
:1051100030E0A901C501B4010F9444CE18165CF427
:1051200020E030E0A901C701B6010F94CBC41816E6
:1051300014F00C943E64A3019201C701B6010F94D0
:10514000CBC4882311F40C943E6420E030E0A90124
:10515000C701B6010F94CBC420E030E040E251E437
:1051600018161CF0C301B20102C0C701B6010F94AA
:10517000D0BF0F9406CD6093080220E030E0A90173
:10518000C501B4010F94CBC420E030E040E251E40B
:1051900018164CF0C65EDE4F688179818A819B814A
:1051A000CA51D14002C0C501B4010F94D0BF0F94C1
:1051B00006CD6093090240E050E06FE58AE00F946D
:1051C0000310609102037091030380910403909196
:1051D00005030F9406CDAB016DE489E00F94031035
:1051E00020E030E040E251E460910203709103035B
:1051F00080910403909105030F94D0BF0F9406CDC6
:105200000AE010E0CB01B8010F94AFCFAC016EE41F
:1052100089E00F9403106091060370910703809159
:105220000803909109030F9406CDAB016FE489E068
:105230000F94031020E030E040E251E46091060357
:105240007091070380910803909109030F94D0BFD8
:105250000F9406CDCB01B8010F94AFCFAC0160E540
:1052600089E00F940310809108021AE0612F0F94D7
:105270008ECF482F880F550B61E589E00F940310FE
:1052800080910802612F0F948ECF492F990F550BF3
:1052900062E589E00F94031080910902612F0F9459
:1052A0008ECF482F880F550B63E589E00F940310CC
:1052B00080910902612F0F948ECF492F990F550BC2
:1052C00064E589E00F940310BCC18091DD19882347
:1052D00011F40C945F6180912D1A81110C945F611F
:1052E000CDB6DEB68091A9089091AA080E943BD65F
:1052F000EEEDF9E1DF010D900020E9F78DB79EB7E3
:105300008A1B9B0B9C012652364E0FB6F8943EBF6B
:105310000FBE2DBF0DB71EB70F5F1F4FFF93EF934B
:105320008CEC99E09F938F931F930F930F947CC401
:10533000780134E0E30EF11C0F900F900F900F9066
:105340000F900F90D7018C91882349F0082E000C04
:10535000990B0F945CD2F70181937F01F3CFC801C1
:105360000F94CE1688EC99E00F945F160FB6F89460
:10537000DEBE0FBECDBE0C945F6181E08093A20BB8
:105380008091220290912302926090932302809355
:1053900022020C945F61809122029091230291601D
:1053A00090932302809322020C945F6180912202E9
:1053B00090912302806890932302809322020C94A0
:1053C0005F6140E050E062E18AE00F9403100C94CA
:1053D0005F6140E050E06CE18AE00F94031080E0F0
:1053E0000F945C16109211121092101210920F125C
:1053F00081E08093AB080C945F611092A20B109235
:10540000E910EDEBF9E084918F01882351F0082E2B
:10541000000C990B0F946C870F5F1F4FF80184915C
:10542000F4CF1092AB080E94C16881E00F945C1623
:1054300040E050E065E08AE00F9403100C945F6157
:105440008091E10B9091E20B892B29F01092E20BF5
:105450001092E10B08C08091EE129091EF129093A0
:10546000E20B8093E10B0E9450FE109211120C94FB
:105470005F618091E30B9091E40B892B29F01092EE
:10548000E40B1092E30B08C08091EB129091EC12A8
:105490009093E40B8093E30B0E9450FE1092101245
:1054A0000C945F618091DB0B9091DC0B892B29F0D0
:1054B0001092DC0B1092DB0B1CC08091F3089091D2
:1054C000F4086091F1087091F208681779072CF4DC
:1054D000BC01990F880B990B04C0072E000C880B98
:1054E000990B0F94D1C40F9406CD7093DC0B60938D
:1054F000DB0B0E940CFE10920F120C945F6189EB83
:1055000099E00F945F160C945F6140E050E06EE10B
:105510008AE00F9403100C945F6140E050E065E076
:105520008AE00F9403101092A20B1092E910EEEA99
:10553000F9E084918F01882351F0082E000C990B1B
:105540000F946C870F5F1F4FF8018491F4CF109276
:10555000AB0888E793E09093D6028093D5020F942E
:10556000366B0C945F6140E050E06AE18AE00F9492
:1055700003100E946DCE8091DD19882311F40C94E4
:105580005F618091CB0B8093CC0BB3EAEB2EBBE039
:10559000FB2E17EBC12E1BE0D12E00E010E0809116
:1055A000CB0B90E008171907FCF46EED79E185E567
:1055B0009AE10F9415775701D7018D919D917D0147
:1055C0000E943BD6F50180819181D6018D939D93F8
:1055D0006D0180912D1A882321F08EED99E10E94B2
:1055E000DCDA0F5F1F4FDBCF87E090E00F94208362
:1055F0000C945F618091D5029091D60280369740DD
:1056000041F488E793E09093D6028093D5020F94FB
:10561000366B40E050E068E08AE00F94031081E4CC
:10562000809385118091F0128823D1F040E061E0F1
:1056300081E00F94C76E0F940200809185118E3423
:1056400089F48FEF9FEFDC018093C7029093C8022B
:10565000A093C902B093CA021092AC080C949C6843
:1056600041E0E5CF81E00F945C16109285118BEA42
:1056700099E00F945F160F940200809185118E348B
:1056800001F340E050E06BE08AE00F9403100C94CB
:105690005F6140E050E064E08AE00F9403100C94F6
:1056A0005F6140E050E064E28AE00F940310809173
:1056B0000E12826080930E1289E48093851140E07F
:1056C00050E060E289E00F9403106091EE12709157
:1056D000EF12072E000C880B990B0F94D1C440E0F9
:1056E00050E00E94EBB20F94366B60EB74E081E502
:1056F00097E10F94718763EB74E081E597E10F9474
:10570000718760914B0270914C0280914D02909193
:105710004E0242E050E00E9466D567EB74E081E5FE
:1057200097E10F9471872DEB37E346E05EE36091DC
:1057300043027091440280914502909146020F9479
:105740005ACC42E050E00E9466D56BEB74E081E5F4
:1057500097E10F9471872DEB37E346E05EE36091AC
:105760003B0270913C0280913D0290913E020F9469
:10577000D0BF42E050E00E9466D56091EB1270917C
:10578000EC12072E000C880B990B0F94D1C441E04A
:1057900050E00E94EBB20F94366B60EB74E081E551
:1057A00097E10F94718763EB74E081E597E10F94C3
:1057B000718760914F0270915002809151029091D7
:1057C000520242E050E00E9466D567EB74E081E54A
:1057D00097E10F9471872DEB37E346E05EE360912C
:1057E0004702709148028091490290914A020F94B9
:1057F0005ACC42E050E00E9466D56BEB74E081E544
:1058000097E10F9471872DEB37E346E05EE36091FB
:105810003F027091400280914102909142020F94A8
:10582000D0BF42E050E00E9466D5109285110E94E0
:10583000C16840E050E06BE084E10F94031040E069
:1058400050E065E18AE00F94031081E00F945C164C
:1058500084E48093DD12809385110C945F6140E0B5
:1058600050E068E28AE00F9403100C945F6140E01E
:1058700050E062E18AE00F9403100C945F61109293
:10588000A20B1092E910E0EAF9E084918F018823DD
:1058900051F0082E000C990B0F946C870F5F1F4F6F
:1058A000F8018491F4CF1092AB080E94C16840E0E7
:1058B00050E065E08AE00F9403100C945F6140E0D3
:1058C00050E062E18AE00F9403100C945F6182E57E
:1058D00080931E0280910E12816080930E1240E030
:1058E00050E06BE581E20F94031040E050E06CE57E
:1058F00081E20F94031040E050E060E08BE10F94F0
:10590000031040E050E06AE781E20F94031040E0AA
:1059100050E069E781E20F94031040E050E06DE150
:105920008AE00F9403108FEF8093BA120C945F619A
:1059300040E050E06CE68AE00F9403100C945F6145
:1059400040E050E062E18AE00F94031040E050E054
:105950006BE581E20F94031040E050E06CE581E2DA
:105960000F94031040E050E060E08BE10F940310CF
:1059700040E050E06AE781E20F94031040E050E01D
:1059800069E781E20F94031080910E128E7F80935D
:105990000E120C945F611092A20B1092E910E5E9CF
:1059A000F9E084918F01882351F0082E000C990BA7
:1059B0000F946C870F5F1F4FF8018491F4CF109202
:1059C000AB0840E050E065E08AE00F94031040E04F
:1059D00050E06BE581E20F94031040E050E06CE58D
:1059E00081E20F94031040E050E060E08BE10F94FF
:1059F000031040E050E06AE781E20F94031040E0BA
:105A000050E069E781E20F94031080910E128E7FBF
:105A100080930E120C945F6141E050E06BE581E2EF
:105A20000F94031040E050E06CE581E20F94031006
:105A300041E050E060E08BE10F94031041E050E062
:105A40006AE781E20F94031041E050E069E781E2E8
:105A50000F9403101092BA120C945F6140E050E072
:105A60006BE581E20F94031041E050E06CE581E2C8
:105A70000F94031041E050E060E08BE10F940310BD
:105A800041E050E06AE781E20F94031041E050E00A
:105A900069E781E20F94031081E08093BA120C94BD
:105AA0005F618091D5029091D6028036974041F493
:105AB00088E793E09093D6028093D5020F94366BDB
:105AC0008091BA128F3F11F40C945F610F94F8BB70
:105AD0000C945F618091D5029091D60280369740F8
