:100000000C9493160C94C4160C94C4160C94C41639
:100010000C94C4160C94C4160C94C4160C94C416F8
:100020000C94C4160C94C4160C94C4160C94C416E8
:100030000C94C4160C94C4160C94C4160C94C416D8
:100040000C94C4160C94C4160C94C4160C94C416C8
:100050000C94C4160C94C4160C9401A10C94DA9E52
:100060000C94C4160C94139D0C94EA9C0C94C41626
:100070000C94C4160C94C4160C94C4160C94C41698
:100080000C94BBD30C94C4160C94C4160C94C416D4
:100090000C94C4160C94C4160C94C4160C94C41678
:1000A0000C94C4160C94C4160C94C4160C94C41668
:1000B0000C94C4160C94C4160C94C4160C94C41658
:1000C0000C94C4160C94C4160C94C4160C94C19CC5
:1000D0000C94989C0C94C4160C94C4160C94C416DE
:1000E0000C94C4169B337457B33390307457CE2A94
:1000F0007457D82A74577457B63E172B74577457D1
:1001000033272E277457BD3F74577457745768456B
:100110007045CA4AD24AC94D7457B745F54533466A
:100120000C4790460440F63F8330CE467457D32A9E
:100130008B27B52A5730DA417830B34A2D516D30CC
:100140006230BB4AC34A7457A5337845543C814258
:10015000E02A422738277457683A072CB24D745763
:10016000BA4D452DDA4A74365D2AF44E213B0652CB
:10017000D5362A4B8045D14D4B2C3D353D35EF349E
:1001800036379B37652D2E2B452BF42A942D2927A6
:100190003D27745774577457E533FA2D1C2E702B76
:1001A0007C4159418845904597459F45A745AF45B6
:1001B0004146494651465946614669467046784629
:1001C0008046884680471A47F647B7494149DB4889
:1001D0007457C24DBC2D3F2E542FE533FC340435EB
:1001E0002235AB4A314D744DA64DA34A043D6A27D2
:1001F0002D577433745774576F55745723411240F9
:100200007838D2382B390338A538FE385839DE39DA
:10021000B239AC329832BB409D3060312A32613203
:100220007655BD3263338639745774577457745793
:1002300074577457745774577457DA41762B7E2B62
:10024000A42BB956F556614D874DDA4AA64DD94DC6
:10025000D84E74579351EE5130517D51F44F135293
:1002600074570D50DF3DBD53BE3E963F005474574A
:1002700074579352DC52275372538C5220524B5274
:10028000435444559856745774574F56745774577F
:10029000A8567457532C1D51FB4F1650BD50C450D7
:1002A000B52A24516D794B7A387B137B6F7AEE7ABD
:1002B000C97A9279B779DC79B37BD87BFD7B227CD4
:1002C000267A017AA47A389C3B9C2A9C2E9C349CEA
:1002D000729C3F9C439C499C4D9C519C579C5B9CB1
:1002E0005F9C729C659C699C6D9CF69DFB9D009E2D
:1002F0000A9E149E8D9E1E9E269E2E9E389E429E77
:100300004C9E5B9E659E8D9E6F9E799E839E8BA16B
:1003100098A1B4A1C1A1DBA1E8A102A204A206A2F6
:1003200008A210A2084AD73B3BCE016E84BCBFFD99
:10033000C12F3D6C74319ABD56833DDA3D00C77FB5
:1003400011BED9E4BB4C3E916BAAAABE000000804E
:100350003F05A84CCDB2D44EB93836A9020C50B9DD
:10036000918688083CA6AAAA2ABE000000803F0009
:100370000D9425930D9415840D9413450D94CE8002
:100380000D9441154E414E494E495459494E46CD62
:10039000CCCC3D0AD7233C17B7D13877CC2B32953C
:1003A00095E6241FB14F0A000020410000C842001A
:1003B000401C4620BCBE4CCA1B0E5AAEC59D746381
:1003C00064696E6F70737578585B003B20202075F0
:1003D0007365526166742C2564004D3630352053A8
:1003E00025640047333400494E464F3A2042454485
:1003F0002043414C4942202D200053757266696E9E
:100400006720300A004732382058302059300054D5
:100410003000543100543000543000537572666916
:100420006E6720300A0047343300473433004734C6
:100430003100473430004733340047343300473409
:10044000330047343100473430004D3834004D38E4
:1004500034004D3834005A32204F66667365743A62
:1004600020004F4B207365636F6E64204578747273
:100470007564657221005A20706F736974696F6EBC
:100480003A20005A20706F736974696F6E3A2000C9
:100490004D3834005A312050726F6265206F6666A5
:1004A0007365743A20004F4B20666972737420455F
:1004B0007874727564657221200A005A20706F7317
:1004C0006974696F6E3A20005A20706F736974699D
:1004D0006F6E3A200043616C63756C75733A20202F
:1004E0000043616C63756C75733A20200043616C46
:1004F00063756C75733A20200043616C63756C758D
:10050000733A202000363020646567726565732079
:100510000A0054300054300054300043616C69626A
:10052000726174696F6E205375636365737366756A
:100530006C0A005430004A756D70206F7665722029
:1005400073637265773120616E64207363726577BF
:1005500032200A004A756D70206F766572207363D1
:1005600072657731200A004733340047333400473F
:1005700033340054300047333400494E464F3A205C
:100580004245442043414C4942202D20004C6F619C
:1005900064696E670A0053757266696E6720300A77
:1005A0000053757266696E6720300A005375726673
:1005B000696E6720300A00253364202563430025D7
:1005C00033642025634300253364202563430050B2
:1005D000757267652046696C616D656E740A0025E9
:1005E00033642025634300253364202563430025BD
:1005F00033642025634300253364202563430025AD
:10060000336420256343002533642025634300259C
:10061000336420256343002533642025634300535E
:10062000757266696E6720300A0053757266696E6E
:100630006720300A00543000466F756E64005375B1
:100640007266696E6720300A004D3334005375724C
:1006500066696E6720300A004D3234004D32332017
:100660002573004D3234004D323320257300546819
:1006700065206669727374206C617965722070728E
:10068000696E7465642077697468207468652025D4
:100690007320486F74656E640A77696C6C206265BC
:1006A00020646973746F72746564206279202564B4
:1006B0002E253164253164206D6D00537572666995
:1006C0006E6720300A0053757266696E6720300AC3
:1006D0000053757266696E6720300A0053554343B4
:1006E0004553530A002533642025634300253364B2
:1006F00020256343002533642025634300253364AC
:10070000202563430025336420256343002533649B
:10071000202563430025336420256343002533648B
:10072000202563430025336420256343004C6F611B
:1007300064696E673A0A0025336420256343002507
:100740003364202563430025336420256343005030
:10075000757267652046696C616D656E74200A006C
:100760005374617274696E67205A2043616C6962C8
:10077000726174696F6E2057697A617264004736DE
:100780003920414354495641544544002E004465A4
:100790006C6574696F6E206661696C65642C2046B7
:1007A000696C653A200046696C652064656C657407
:1007B00065643A002E006F70656E206661696C6535
:1007C000642C2046696C653A20004649524D5741D9
:1007D00052455F4E414D453A4D61726C696E2056EF
:1007E000313B20537072696E7465722F6772626C50
:1007F000206D617368757020666F722067656E3654
:10080000204649524D574152455F55524C3A687403
:100810007470733A2F2F6769746875622E636F6DF9
:100820002F4572696B5A616C6D2F4D61726C696EE8
:100830002F2050524F544F434F4C5F56455253490F
:100840004F4E3A312E30204D414348494E455F547A
:100850005950453A4D656E64656C20455854525563
:100860004445525F434F554E543A32205555494402
:100870003A30303030303030302D303030302D3074
:100880003030302D303030302D303030303030306E
:1008900030303030300A00205A3A0020593A0020D7
:1008A000436F756E7420583A200020453A00205A54
:1008B0003A0020593A00583A007A5F6D696E3A2042
:1008C00000795F6D61783A2000785F6D61783A2039
:1008D00000785F6D696E3A20002C20736176656444
:1008E0005F466C61675F66616E6C617965725F6DB2
:1008F0006972726F723A20002C2073617665645FB2
:1009000066656564726174653A20002C20736176B7
:1009100065645F66616E6C617965723A20002C20B7
:1009200073617665645F74656D706265643A20001A
:100930002C2073617665645F74656D70303A2000B9
:100940002C2073617665645F74656D70313A2000A8
:100950002C2073617665645F66696C65706F73697E
:1009600074696F6E3A20002C2073617665645F6550
:100970005F706F736974696F6E3A20002C20736129
:100980007665645F746F6F6C5F6163746976653AF6
:1009900020002C2073617665645F7A5F706F7369E5
:1009A00074696F6E3A20002C2073617665645F79FC
:1009B0005F706F736974696F6E3A20002C207361E9
:1009C0007665645F785F706F736974696F6E3A20E3
:1009D0000053415645205052494E54204C4F473AFF
:1009E000006563686F3A005072696E7420726563C7
:1009F0006F76657279207570004E6F742070726921
:100A00006E74207265636F7665727920757000531D
:100A10005543434553530056616C756573206F759C
:100A200074206F662072616E67650056616C756533
:100A300073206F7574206F662072616E6765005653
:100A4000616C756573206F7574206F662072616EBE
:100A500067650056616C756573206F7574206F66ED
:100A60002072616E676500535543434553530056EA
:100A7000616C756573206F7574206F662072616E8E
:100A800067650056616C756573206F7574206F66BD
:100A90002072616E67650056616C756573206F75B5
:100AA00074206F662072616E67650056616C7565B3
:100AB00073206F7574206F662072616E67650050D9
:100AC0004F534954494F4E20484F4D453A2000223C
:100AD00000556E6B6E6F776E20636F6D6D616E6427
:100AE0003A20220053757266696E672030200A0032
:100AF00043616C6962726174696F6E2053756363E0
:100B000065737366756C0A005430004D3834205894
:100B10002059205A204500466F726D203221005224
:100B20006561647920746F204C6F61642F556E6C21
:100B30006F6164200A002564252500253364202583
:100B40006343002533642025634300253364256314
:100B500043202F2025336425634300253364256318
:100B600043202F2025336425634300253364256308
:100B700043202F20253364256343005072696E742F
:100B8000204A6F622046696E6973686564004D385B
:100B90003420582059205A2045004D313037005418
:100BA00030000A00205A3A200020593A20002058EC
:100BB0003A200042656400456E642066696C6520D9
:100BC0006C69737400426567696E2066696C6520A4
:100BD0006C6973740043617264204E616D653A20E4
:100BE000002F005344207072696E74696E67206232
:100BF00079746520004E6F74205344207072696EC2
:100C000074696E670047323820583020593000250B
:100C100069206D696E2C20256920736563000A0ABE
:100C2000005374616E646172642044657669617416
:100C3000696F6E3A20000A004D65616E3A20000A25
:100C4000002020207A3A200000793A2000783A20CB
:100C5000003F537065636966696564206E756D62F7
:100C60006572206F66206C65677320696E206D6FFA
:100C700076656D656E74206E6F7420706C6175732F
:100C800061626C652E0A003F537065636966696531
:100C900064205920706F736974696F6E206F75746A
:100CA000206F662072616E67652E0A003F53706583
:100CB000636966696564205820706F736974696F31
:100CC0006E206F7574206F662072616E67652E0AE4
:100CD000003F5370656369666965642073616D7078
:100CE0006C652073697A65206E6F7420706C617515
:100CF0007361626C652E0A0046756C6C20737570AA
:100D0000706F72742061743A20687474703A2F2F77
:100D100033647072696E74626F6172642E636F6D9A
:100D20002F666F72756D2E7068700A004D34382012
:100D30005A2D50726F6265205265706561746162F0
:100D4000696C69747920746573742E20202056654F
:100D50007273696F6E20322E30300A003F56657212
:100D6000626F7365204C6576656C206E6F742070C1
:100D70006C61757361626C652E0A002042403A0016
:100D800020403A00202F003A00205400202F00205D
:100D9000423A00202F006F6B20543A0070012C0162
:100DA00090012701B0012201C0011D01F0011801CD
:100DB0001002130130020E016002090190020401C9
:100DC000C002FF000003FA004003F5008003F000BA
:100DD000D003EB002004E6007004E100E004DC0036
:100DE0004005D700C005D2004006CD00D006C8009F
:100DF0008007C3003008BE00F008B900C009B40085
:100E0000B00AAF00B00BAA00D00CA500000EA000E5
:100E1000500F9B00C01096005012910000148C00DF
:100E2000C0158700B0178200B0197D00D01B780074
:100E3000001E730040206E0090226900F0246400C0
:100E400040275F0090295A00E02B5500102E5000DB
:100E500020304B0010324600E033410090353C001A
:100E60001037370070383200A0392D00B03A280012
:100E7000A03B2300603C1E00103D1900903D140073
:100E8000103E0F00703E0A00C03E0500003F00000B
:100E9000487973746572657369732074656D7065E4
:100EA00072617475726500546865726D616C207250
:100EB000756E617761792070726F74656374696FA4
:100EC0006E206279204865617465725F49443A001A
:100ED0004572726F72283833293A20426564207453
:100EE0006865726D6973746F72206E6F74206465CB
:100EF000746563746564004572726F7228383229B4
:100F00003A20526967687420746865726D697374F9
:100F10006F72206E6F74206465746563746564001D
:100F20004572726F72283831293A204C65667420F8
:100F3000746865726D6973746F72206E6F742020AF
:100F40006465746563746564002053544F50205089
:100F500052494E54200A004572726F722838332964
:100F60003A2042656420746865726D6973746F72AB
:100F7000206E6F742064657465637465640020532B
:100F8000544F50205052494E54200A004572726FFF
:100F900072283832293A205269676874207468656B
:100FA000726D6973746F72206E6F742064657465FE
:100FB00063746564002053544F50205052494E547E
:100FC000200A004572726F72283831293A204C6528
:100FD000667420746865726D6973746F72206E6FC9
:100FE00074202064657465637465640000002100EA
:100FF000240027002A002D003000330001010000EA
:10100000040107010A0100002200250028002B002E
:101010002E003100340002010000050108010B011F
:10102000000020002300260029002C002F003200A1
:10103000000100000301060109010505050507057A
:1010400008080808020202020A0A08080404040444
:101050000101010101010101030303030303030370
:10106000040707070C0C0C0C0C0C0C0C02020202FF
:1010700006060606060606060B0B0B0B0B0B0B0BE8
:10108000010210202008081020401020408002019A
:10109000020108040201010204081020408080407F
:1010A000201008040201800402018040201008047E
:1010B000020108040201010204081020408001021C
:1010C00004081020408000000A0B02090C0D0E08D5
:1010D0000703040100000000000000000000000001
:1010E0000000000000000000000000000000000000
:1010F00000001211100000000000000000000000BD
:10110000000000000000000000000000436F6F6C52
:10111000696E6720446F776E204865617465720060
:101120005072696E7465722068616C7465642E20FB
:101130006B696C6C28292063616C6C6564210045C7
:1011400072726F723A0045787472756465722072BB
:10115000656C6561736564206163746976653A20C6
:10116000005A205349474D4120486F6D6564004542
:1011700078747275646572206163746976653A206B
:10118000000000000000809343000000000000A069
:10119000400000A0400000004020004D6F76652018
:1011A000746F3A2000CDAC0344008093430000529A
:1011B00043FF01FF20636F6C642065787472757360
:1011C000696F6E2070726576656E74656400656324
:1011D000686F3A00202D20496E76616C6964206545
:1011E00078747275646572206E756D626572202107
:1011F000004572726F723A0067636F646520666FB4
:10120000756E640020746F20537461727420446999
:1012100073706C61792066726F6D205265736574AE
:1012200000546F6F6B2000646973706C6179206F7C
:101230006E6C696E6521002E00646973706C617953
:10124000206F66666C696E650042434E33442053DE
:1012500069676D6178007374617274006563686FAB
:101260003A0030322D312E322E38524300657272E0
:101270006F722077726974696E6720746F20666977
:101280006C6500205A3A0020593A0020583A00650F
:101290006E6473746F7073206869743A20006563BC
:1012A000686F3A00446F6E6520736176696E6720DF
:1012B00066696C652E006F6B004D32390024F4D4E2
:1012C0003050C38E20C2A24017828B7011127A91C7
:1012D0000D816CD90AA861E108C7586607615143BE
:1012E000061E4B5D05C145A7041A411104093D982E
:1012F00003713931034036DB0265339102D4305437
:1013000002802E1D02632CEE01752AC501B028A0B3
:1013100001102781018F2564012B244B01E0223429
:1013200001AC211F018D200D01801FFC00841EEDEA
:1013300000971DDF00B81CD200E61BC600201BBCB6
:1013400000641AB200B219A8000A19A0006A18991C
:1013500000D117910040178B00B516840031167E1E
:1013600000B31579003A157300C7146F0058146A5A
:1013700000EE1366008813630025135E00C7125B3E
:10138000006C12570015125400C111510070114F1A
:101390000021114B00D61049008D10470046104423
:1013A0000002104200C00F4000800F3E00420F3C80
:1013B00000060F3B00CB0E3800930E37005C0E3555
:1013C00000270E3400F30D3200C10D3100900D30B6
:1013D00000600D2E00320D2D00050D2C00D90C2BB8
:1013E00000AE0C2900850C29005C0C2700350C2769
:1013F000000E0C2600E80B2400C40B2400A00B23D5
:10140000007D0B23005A0B2100390B2100180B2003
:1014100000F80A1F00D90A1E00BB0A1E009D0A1D03
:1014200000800A1D00630A1C00470A1B002C0A1BCF
:1014300000110A1A00F7091A00DD091900C4091978
:1014400000AB091900920917007B091800630917FE
:10145000004C09160036091600200916000A091565
:1014600000F5081500E0081400CC081400B80814B2
:1014700000A4081400900813007D0812006B0813E4
:101480000058081200460812003408110023081101
:10149000001208110001081100F0071000E0071009
:1014A00000D0071000C0071000B0070F00A1071000
:1014B0000091070E0083070F0074070F0065070EE9
:1014C0000057070E0049070E003B070D002E070EC0
:1014D0000020070D0013070D0006070D00F9060C8C
:1014E00000ED060D00E0060C00D4060C00C8060C4A
:1014F00000BC060C00B0060C00A4060B0099060CFC
:10150000008D060B0082060B0077060B006C060BA5
:101510000061060A0057060B004C060A0042060A44
:101520000038060A002E060A0024060A001A060AD7
:10153000001006090007060A00FD050900F4050968
:1015400000EB050900E2050900D9050900D00509ED
:1015500000C7050900BE050900B5050800AD05086E
:1015600000A50509009C050800940508008C0508E5
:1015700000840508007C050800740508006C050758
:1015800000650508005D050700560508004E0507C3
:10159000004705070040050800380507003105072A
:1015A000002A050700230507001C0506001605078D
:1015B000000F0507000805060002050700FB0406EA
:1015C00000F5040700EE040600E8040600E2040744
:1015D00000DB040600D5040600CF040600C904069B
:1015E00000C3040600BD040600B7040600B10405EC
:1015F00000AC040600A6040600A00405009B040637
:101600000095040500900406008A04050085040581
:1016100000800406007A04050075040500700405C6
:10162000006B04050066040500610405005C040508
:101630000057040500520405004D04050048040548
:1016400000430405003E0404003A04050035040587
:1016500000300404002C04050027040400230405C2
:10166000001E0404001A04040016040500110404FA
:10167000000D04040009040500040404000004042F
:1016800000FC030400F8030400F4030400F0030466
:1016900000EC030400E8030400E4030400E0030496
:1016A00000DC030400D8030400D4030400D00304C6
:1016B00000CC030400C8030300C503030024F404A2
:1016C000D9201BC40C5C0E9804C4095F0265077125
:1016D00001F405F900FB04B30048048700C1036965
:1016E000005803550003034500BE023A008402314E
:1016F0000053022A002902250004022000E4011CF4
:1017000000C8011900AF01170098011400840113EB
:1017100000710110006101100051010E0043010D24
:101720000036010B002B010B0020010B00150109F5
:10173000000C01090003010800FB000800F3000889
:1017400000EB000700E4000600DE000600D80006FB
:1017500000D2000600CC000500C7000500C200054D
:1017600000BD000400B9000400B5000400B100048D
:1017700000AD000400A9000400A5000300A20003BE
:10178000009F0004009B00030098000300950002E6
:101790000093000300900003008D0002008B000303
:1017A000008800020086000200840003008100021D
:1017B000007F0002007D0002007B00020079000231
:1017C0000077000100760002007400020072000140
:1017D00000710002006F0002006D0001006C000249
:1017E000006A000100690002006700010066000154
:1017F0000065000100640002006200010061000158
:1018000000600001005F0002005D0001005C00015B
:10181000005B0001005A000100590001005800015E
:10182000005700010056000100550001005400015E
:10183000005300000053000100520001005100015C
:1018400000500001004F0001004E0000004E00015A
:10185000004D0001004C0001004B0000004B000156
:10186000004A000100490001004800000048000152
:10187000004700010046000000460001004500004E
:101880000045000100440001004300000043000146
:101890000042000000420001004100000041000140
:1018A00000400001003F0000003F0001003E00003A
:1018B000003E0001003D0000003D0001003C000032
:1018C000003C0000003C0001003B0000003B000128
:1018D000003A0000003A0001003900000039000120
:1018E0000038000000380000003800010037000018
:1018F000003700010036000000360000003600010D
:101900000035000000350000003500010034000003
:1019100000340000003400010033000000330000F8
:1019200000330001003200000032000000320001EC
:1019300000310000003100000031000100300000E3
:101940000030000000300001002F0000002F0000D8
:10195000002F0000002F0001002E0000002E0000CC
:10196000002E0001002D0000002D0000002D0000C1
:10197000002D0001002C0000002C0000002C0000B5
:10198000002C0001002B0000002B0000002B0000A9
:10199000002B0001002A0000002A0000002A00009D
:1019A000002A000100290000002900000029000091
:1019B0000029000000290001002800000028000084
:1019C0000028000000280000002800010027000077
:1019D000002700000027000000270000002700016A
:1019E000002600000026000000260000002600005F
:1019F0000026000100250000002500000025000051
:101A00000025000000250000002500010024000042
:101A10000024000000240000002400000024000135
:101A2000002300000023000000230000002300002A
:101A3000002300000023000000230001002200001A
:101A4000002200000022000000220000002200000E
:101A50000022000100210000002100000021000000
:101A600000210000002100000021000000210001F1
:101A700000200000002000000020000000200000E6
:101A800000200000002000000020000000200001D5
:101A9000001F0000001F0000001F0000001F0000CA
:101AA000001F0000001F0000001F0001001E0000BA
:101AB000001E0000001E0000001E000000504944EF
:101AC000204175746F74756E652066696E69736800
:101AD00065642100504944204175746F74756E65CA
:101AE000206661696C6564212074696D656F757429
:101AF0000020403A006F6B20543A006F6B20423A4E
:101B000000504944204175746F74756E652066619C
:101B1000696C6564212054656D70657261747572BD
:101B20006520746F6F206869676800204B643A20F5
:101B300000204B693A2000204B703A200020436C73
:101B400061737369632050494420002054753A2022
:101B500000204B753A2000206D61783A2000206DFE
:101B6000696E3A200020643A200020626961733A6D
:101B700020003B20472D436F64652067656E6572CA
:101B8000617465642062792053696D706C6966794F
:101B900033442852292056657273696F6E2025647C
:101BA000003B5072696E742074696D653A2025643B
:101BB00020257320256420257320256420257300AB
:101BC0003B54494D453A256C64003B20202042752A
:101BD000696C642074696D653A2025642025732042
:101BE0002564202573003B202020506C61737469AC
:101BF00063207765696768743A2025642E256467D9
:101C0000003B46696C616D656E7420757365643A5E
:101C10002025642E25646D2025642E256467003BF5
:101C200046696C616D656E7420757365643A202534
:101C30006C642E256C646D002E2E2E2054696D650B
:101C40006F757421002A2A2A2047656E696520571E
:101C5000726974654F626A656374202A2A2A202D8E
:101C60002D2D3E002E2E2E204E414B2021002A2AC3
:101C70002A2047656E69652057726974654F626AEC
:101C8000656374202A2A2A202D2D2D3E002E2E2E0B
:101C90002041434B2021002A2A2A2047656E69658E
:101CA0002057726974654F626A656374202A2A2A14
:101CB000202D2D2D3E004D31303700473932204543
:101CC00030205A3020522564004E6577206C6179AF
:101CD0006572206465746563746564005A20686F7A
:101CE0007070696E6720646574656374656400254F
:101CF0006920686F757273202569206D696E75742F
:101D0000657300446F6E65207072696E74696E67EA
:101D10002066696C65004D33330070617573652012
:101D20006465746563746564200A00473639005041
:101D300072696E7465722073746F7070656420646C
:101D4000756520746F206572726F72732E204669FC
:101D50007820746865206572726F7220616E6420ED
:101D6000757365204D39393920746F20726573742D
:101D70006172742E202854656D706572617475727D
:101D8000652069732072657365742E205365742015
:101D9000697420616674657220726573746172740F
:101DA000696E6729006F6B004E6F204C696E65206D
:101DB0004E756D626572207769746820636865632B
:101DC0006B73756D2C204C617374204C696E653A91
:101DD00020004E6F20436865636B73756D207769D3
:101DE0007468206C696E65206E756D6265722C205A
:101DF0004C617374204C696E653A200063686563BA
:101E00006B73756D206D69736D617463682C204C04
:101E1000617374204C696E653A20004C696E6520D0
:101E20004E756D626572206973206E6F74204C610F
:101E30007374204C696E65204E756D6265722B312E
:101E40002C204C617374204C696E653A20004D3132
:101E5000313000CDAC034400809343000052430076
:101E600000000000000000000000000A00207A3A94
:101E7000200020793A200020783A20004265640052
:101E800045787472756465722072656C65617365FE
:101E900064206163746976653A20005A205349478B
:101EA0004D4120486F6D65640045787472756465B6
:101EB00072206163746976653A20005365747469B1
:101EC0006E67732053746F72656400204D696E7580
:101ED000746573203A0020204C617374207072691D
:101EE0006E742074696D652D3E20486F7572732085
:101EF0003A004C617374207072696E74206475725C
:101F00006174696F6E002C205468697264204944C2
:101F1000206E756D62657220002C205365636F6EB4
:101F200064204944206E756D6265723A200020205D
:101F30004669727374204944206E756D6265723A09
:101F40002000554920496E666F726D6174696F6E2D
:101F50002053657269616C204E756D6265723A003E
:101F6000206D2C204531207072696E742064697375
:101F700074616E63653A2000206B6D2C2045302023
:101F80007072696E742064697374616E63653A205F
:101F900000206B6D2C2059207072696E742064696A
:101FA0007374616E63653A2000206B6D2C2058318C
:101FB000207072696E742064697374616E63653A2F
:101FC000200020432C0A205830207072696E742043
:101FD00064697374616E63653A200020432C206D40
:101FE00061782074656D7020423A200020432C20D7
:101FF0006D61782074656D7020523A20002C206D40
:1020000061782074656D70204C3A2000682C207037
:1020100072696E74732066696E69736865643A20CC
:10202000002C207072696E74696E672074696D652A
:102030003A200020207072696E74733A2000535465
:102040004154533A0020432C20525F5052494E5481
:102050003A200020432C20525F4245443A20002081
:10206000432C20525F52454D4F56453A20002020C8
:10207000525F494E534552543A200054656D7020CA
:102080002843293A0020432C204C5F5052494E549B
:102090003A200020432C204C5F4245443A20002047
:1020A000432C204C5F52454D4F56453A200020208E
:1020B0004C5F494E534552543A200054656D702090
:1020C0002843293A0020562856657273696F6E2995
:1020D000200020522842656420726967687420736A
:1020E0006372657729200020204D353331204C283C
:1020F000426564206C65667420736372657729207D
:1021000000426564204F66667365747320286D6DA8
:10211000293A002050285A2070726F6265290020E9
:102120005A20002059200020204D353330205820DF
:10213000004F66667365747320286D6D293A002020
:102140004400204900202D204D3330312052494792
:10215000485420500020440020490020204D3330B6
:1021600031204C454654205000504944207365743A
:1021700074696E67733A00205A0020590020204D80
:10218000323036205800486F6D65206F6666736583
:102190007420286D6D293A00204500205A002058EF
:1021A0000020420020540020204D323035205300C2
:1021B000416476616E636564207661726961626C08
:1021C00065733A20533D4D696E20666565647261A2
:1021D000746520286D6D2F73292C20543D4D696E38
:1021E0002074726176656C206665656472617465E1
:1021F00020286D6D2F73292C20423D6D696E696D0D
:10220000756D207365676D656E742074696D6520EA
:10221000286D73292C20583D6D6178696D756D208E
:102220005859206A65726B20286D6D2F73292C20F8
:10223000205A3D6D6178696D756D205A206A65720E
:102240006B20286D6D2F73292C2020453D6D617802
:10225000696D756D2045206A65726B20286D6D2F44
:1022600073290020540020204D3230342053004187
:102270006363656C65726174696F6E3A20533D618A
:102280006363656C65726174696F6E2C20543D7276
:1022900065747261637420616363656C65726174F7
:1022A000696F6E00204500205A0020590020204D03
:1022B0003230312058004D6178696D756D20416371
:1022C00063656C65726174696F6E20286D6D2F7324
:1022D00032293A00204500205A0020590020204D84
:1022E0003230332058004D6178696D756D20666518
:1022F0006564726174657320286D6D2F73293A00CF
:10230000204500205A0020590020204D3932205805
:102310000053746570732070657220756E69743A2D
:10232000005341564544205052494E54007A707231
:102330006F62653A200053442063617264206F6BC2
:10234000006F70656E526F6F74206661696C6564B2
:1023500000766F6C756D652E696E697420666169B3
:102360006C6564004572726F723A00534420696E66
:102370006974206661696C006563686F3A004D326C
:1023800034004D3233202573006175746F25692E3A
:1023900067000A0020616E7469686F726172690A71
:1023A0003A200020686F726172690A20002F38009D
:1023B000766F6C746573200020566F6C74657320A3
:1023C000636172676F6C20333A200020616E74691C
:1023D000686F726172690A3A200020686F726172D8
:1023E000690A20002F3800766F6C74657320002016
:1023F000566F6C74657320636172676F6C20323A3C
:1024000020000A0020647A333A200020647A323AAD
:102410002000543100543000543000543000005635
:10242000756974656E73333A2020004170726F785D
:10243000333A202000566F6C746573333A202000C5
:102440000056756974656E73323A202000417072CF
:102450006F78323A202000566F6C746573323A20E0
:10246000200056616C6F7220645A333A2020005667
:10247000616C6F7220645A323A2020004E657720DA
:102480006F66667365742076657273696F6E3A2045
:10249000007A335F313A20007A325F313A20005AB5
:1024A0007363726F6C6C5F313A20007A335F303A3D
:1024B00020007A325F303A20005A7363726F6C6C7E
:1024C0005F303A2000706C616E654E6F726D616CAA
:1024D0005F312E7A3A2000706C616E654E6F726DBE
:1024E000616C5F312E793A2000706C616E654E6FC1
:1024F000726D616C5F312E783A2000706C616E6590
:102500004E6F726D616C5F302E7A3A2000706C6194
:102510006E654E6F726D616C5F302E793A2000707F
:102520006C616E654E6F726D616C5F302E783A2013
:10253000005A76616C756520616674657220686FFB
:102540006D653A00486F6D6520582F5920626566A9
:102550006F7265205A00496E7374616C6C2025643B
:10256000202573206F6E2074686520257320686FA6
:1025700074656E640043616C63756C75733A2020FA
:102580000043616C63756C75733A20200043616C85
:1025900063756C75733A202000496E7374616C6CBE
:1025A000202564202573206F6E20746865202573B4
:1025B00020686F74656E64002533642025634300D2
:1025C0002533642025634300507572676520466992
:1025D0006C616D656E740A0053757266696E672072
:1025E000310A0053757266696E6720300A00220056
:1025F000656E717565696E672022002200656E71D7
:102600007565696E672022004D383400537461721D
:1026100074696E6720582043616C696272617469E5
:102620006F6E2057697A617264004D3834005374BC
:10263000617274696E6720592043616C69627261CE
:1026400074696F6E2057697A6172640052657365B0
:102650006E643A20006F6B004475616C204D6F64AE
:1026600065204F4E004475616C204D6972726F7227
:10267000204D6F6465204F4E004475616C204D6F96
:102680006465204F4646007C3C3E5E2B3D3F2F5B01
:102690005D3B2C2A225C0025203364202525002563
:1026A000642068202564206D0025203364202525C2
:1026B00000253264202563430025336420256343CD
:1026C00000253364202563430052656164792074DA
:1026D0006F204C6F61642F556E6C6F6164200A002F
:1026E00025642525002533642025634300253364B4
:1026F00020256343002053544F50205052494E54DC
:10270000200A00473238205830205930004D3335E8
:1027100000526573756D65206465746563746564E6
:10272000200A0047373000A1524553554D4521201E
:102730000A00A1504155534521200A002533642049
:10274000256343002533642025634300253364203B
:10275000256343002533642025634300253364202B
:10276000256343002533642025634300253364201B
:10277000256343002533642025634300253364200B
:10278000256343005052494E542053455454494EFA
:102790004753200A0053544154495354494353204A
:1027A000524553455400486F74656E64206F6666E9
:1027B000736574733A0054696D6520696E61637462
:1027C0006976650050757267652064697374616E1F
:1027D0006365005A204F6666736574206F6B005AFC
:1027E000204F6666736574203A20007A5F6D6178C9
:1027F0003A20007A5F6D696E3A20005A204F666673
:1028000073657400504F534954494F4E20484F4D03
:10281000453A2000486F74656E64206F6666736584
:1028200074733A00504944204175746F74756E6535
:102830002066696E69736865642120507574207420
:102840006865206C617374204B702C204B6920618B
:102850006E64204B6420636F6E7374616E747320BA
:1028600066726F6D2061626F766520696E746F208D
:10287000436F6E66696775726174696F6E2E68006A
:10288000504944204175746F74756E6520666169A6
:102890006C6564212074696D656F75740020403A21
:1028A000006F6B20543A006F6B20423A005049444D
:1028B000204175746F74756E65206661696C65641E
:1028C000212054656D706572617475726520746F36
:1028D0006F206869676800204B643A2000204B69CC
:1028E0003A2000204B703A200020436C61737369DA
:1028F000632050494420002054753A2000204B7535
:102900003A2000206D61783A2000206D696E3A20EF
:102910000020643A200020626961733A20002A2A6C
:102920002A2047656E696520446973636F6E6E6522
:10293000637465642066726F6D204765744E6578B8
:10294000744279746521202A2A2A002A2A2A2047DB
:10295000656E696520456E61626C652041747461C5
:1029600063684576656E7448616E646C657220219B
:102970002121202A2A2A0043616E6E6F7420656E21
:10298000746572207375626469723A2000577269C7
:1029900074696E6720746F2066696C653A20002E3A
:1029A000006F70656E206661696C65642C204669F5
:1029B0006C653A20002E006F70656E206661696C50
:1029C00065642C2046696C653A200046696C652078
:1029D00073656C6563746564002053697A653A2099
:1029E0000046696C65206F70656E65643A20002E44
:1029F000006F70656E206661696C65642C204669A5
:102A00006C653A20004E6F772066726573682066A9
:102A1000696C653A20004E6F7720646F696E67209D
:102A200066696C653A20002220706F730022207066
:102A30006172656E743A2200535542524F555449A3
:102A40004E452043414C4C207461726765743A22B4
:102A500000747279696E6720746F2063616C6C20FA
:102A60007375622D67636F64652066696C6573209A
:102A70007769746820746F6F206D616E79206C6562
:102A800076656C732E204D4158206C6576656C2000
:102A900069733A002A2A2A2047656E6965204261D7
:102AA000642042797465202A2A2A202D2D2D3E206B
:102AB0003078002056616C75653A200020496E64BC
:102AC00065783A20002A2A2A2047656E69652052D7
:102AD00065706F7274204F626A656374202A2A2AB7
:102AE000204F626A6563743A20002A2A2A204765CB
:102AF0006E696520436F6E6E6563746564202F2078
:102B000053796E6321202A2A2A002056616C75654C
:102B10003A200020496E6465783A20002A2A2A204B
:102B200047656E6965205265706F727420457665E1
:102B30006E74202A2A2A204F626A6563743A200044
:102B4000204C656E6774683A20002A2A2A2047655F
:102B50006E6965205265636569766564204D6167BD
:102B6000696320446F75626C6520427974657320D7
:102B70002A2A2A20496E6465783A2000204C656E26
:102B80006774683A20002A2A2A2047656E69652002
:102B90005265636569766564204D616769632042AB
:102BA00079746573202A2A2A20496E6465783A2050
:102BB000002A2A2A2047656E6965204E414B205223
:102BC00065636F7665727920212121202A2A2A00E7
:102BD0002A2A2A2047656E696520446973636F6EEF
:102BE0006E65637465642066726F6D20446F457610
:102BF000656E747321202A2A2A002A2A2A20476512
:102C00006E696520546F6F6B20746F6F206C6F6EF0
:102C10006720746F2072652D656E74657220446F35
:102C20004576656E747328292C207265647563651A
:102C30002064656C61797320696E20636F64652C14
:102C40002073656C662D70726F74656374696F6E46
:102C500020656E61626C65642E202A2A2A00426516
:102C600064204865617465640020423A0020453A5A
:102C700000543A0045787472756465722048656145
:102C80007465640020573A0020453A00543A002009
:102C90004500205A00205900483D580053746F7277
:102CA00065642073657474696E67732072657472ED
:102CB00069657665640048617264636F6465642069
:102CC00044656661756C742053657474696E6773CE
:102CD000204C6F616465640048617264636F646571
:102CE000642043616C696220616E64205049442015
:102CF00044656661756C742053657474696E67739E
:102D0000204C6F61646564002564206974656D738F
:102D1000002534643A252E326468202F202564670C
:102D20000000B801BA0111241FBECFEFD1E2DEBF0F
:102D3000CDBF00E00CBF17E0A0E0B2E0E6EDF7E5A4
:102D400003E00BBF02C007900D92A43BB107D9F777
:102D500029E1A4EBB7E001C01D92A23FB207E1F761
:102D600016E1C2E9D6E100E006C021970109802FF3
:102D7000FE010F944EA9C139D10780E00807A9F7D9
:102D80000F9437890D94DAAB0C9400002F923F9288
:102D90004F925F926F927F928F929F92AF92BF926B
:102DA000CF92DF92EF92FF920F931F93CF93DF9317
:102DB000CDB7DEB7C353D1400FB6F894DEBF0FBE18
:102DC000CDBF2DB73EB7CE5CDE4F39832883C253CB
:102DD000D14011E0109367088091EA0781110CC07F
:102DE0000E94CE9E6093E6077093E7078093E80702
:102DF0009093E9071093EA078091DE0781110DC0D7
:102E00000E94CE9E6093DA077093DB078093DC0705
:102E10009093DD0781E08093DE07809198154091C3
:102E2000B6025091B7026091B8027091B902811157
:102E300006C090919915992311F40C94F0244E3802
:102E400051056105710509F466C60CF0D6C04D3315
:102E500051056105710509F4D3C10CF05BC0403226
:102E600051056105710511F40C94E72234F54031E8
:102E700051056105710509F474C174F441305105BF
:102E80006105710509F4A7C142305105610571055D
:102E900009F430C30C947457423151056105710532
:102EA00009F443C214F40C943922433151056105ED
:102EB000710509F40CC20C94745742335105610535
:102EC000710509F417C37CF44132510561057105A0
:102ED00011F40C94D622413351056105710509F4B2
:102EE000D8C10C947457453351056105710511F42F
:102EF0000C949F234A3351056105710511F40C941C
:102F0000821F443351056105710511F00C9474570B
:102F10000C948921483551056105710509F49AC160
:102F200054F5463451056105710509F48EC47CF4ED
:102F3000413451056105710509F414C44434510547
:102F40006105710511F40C9434200C9474574F34BE
:102F500051056105710509F462C5473551056105E3
:102F6000710509F4C4C14E3451056105710511F0B4
:102F70000C947457DDC44B3751056105710509F494
:102F8000DFC274F44A3551056105710509F4D8C2F0
:102F9000463751056105710509F4D6C10C94745783
:102FA000483851056105710509F4E5C049385105F6
:102FB0006105710509F4EAC04C37510561057105D9
:102FC00011F00C94745740E050E06AE28AE00E94ED
:102FD00007DE40E050E06DE781E20E9407DE11E08D
:102FE000109332081092BB0864E078E086E20E94F9
:102FF00010DF109303080C9474574D395105610587
:10300000710511F40C943E230CF04FC04539510565
:103010006105710509F4E6C6F4F44139510561050D
:10302000710509F470C574F44F38510561057105D7
:1030300009F4CAC5403951056105710509F41FC677
:103040000C947457433951056105710509F4E9C5BC
:103050000CF48DC540C6483951056105710511F460
:103060000C9474237CF4463951056105710509F40B
:103070008CC6473951056105710511F40C948523FF
:103080000C9474574B3951056105710511F40C947A
:10309000FE2214F00C9407234A395105610571058D
:1030A00011F40C94F5220C947457463A51056105BD
:1030B000710509F406C21CF5423A51056105710516
:1030C00009F454C07CF4403A51056105710511F4CE
:1030D0000C949623413A51056105710509F428C6FF
:1030E0000C947457443A51056105710509F4FDC10A
:1030F0000CF0F1C181E080938B190C947457493A1C
:1031000051056105710509F4EBC194F4473A510585
:103110006105710509F4DAC1483A51056105710587
:1031200011F00C94745781E0809385190C947457B6
:103130004E3B51056105710509F49EC0433D5105A3
:103140006105710511F40C94B2244A3A51056105E8
:10315000710511F00C94745781E0809384190C94DC
:10316000745781E080938E190C94745781E080939A
:103170008D190C94745781E080938E1941E050E0D2
:1031800069E881E20E9407DE0C94745780910E0278
:10319000833411F00C94745782E480930E0240E063
:1031A00050E067E581E20E9407DE40E050E066E71C
:1031B00081E20E9407DE40E050E068E881E20E9480
:1031C00007DE40E050E069E881E20E9407DE1092ED
:1031D000BB080C9474571092320880E00F94F204EC
:1031E00081E0809381198093C90840E050E068E055
:1031F0008AE00E9407DE81E48093CA080C94745729
:1032000080910E0240E050E0813491F469E08AE060
:103210000E9407DE11E01093320864E078E082E05B
:103220000E9410DF109303081092BB080C9474578F
:103230006AE28AE00E9407DE11E01093320864E03F
:1032400078E086E20E9410DF109303081092BB081A
:103250000C9474578091330881110C9474578091A9
:10326000991581110C94745740E050E069E38AE0AD
:103270000E9407DE0C9474578091330881110C94DE
:10328000745740E050E061E08AE00E9407DE0C9451
:1032900074578091330881110C94745700910E0279
:1032A000013411F00C947457109232081092981552
:1032B00011E01093991540E050E068E08AE00E9428
:1032C00007DE0093CA08109363110C947457809121
:1032D0000E02813411F00C94745740E050E061E02C
:1032E0008AE00E9407DE109232080C947457809195
:1032F0000E02823491F3833411F00C94745740E041
:1033000050E066E18AE00E9407DE41E050E06DE7B0
:1033100081E20E9407DE82E58093110281E08093C2
:10332000BB08109232080C947457882311F40C9443
:10333000745780910E02813411F00C94745781E01F
:10334000809383190C94745780919915882311F4F4
:103350000C94745780910E02823429F481E080939A
:1033600082190C947457833411F00C94745711E043
:1033700010935E0840E050E068E981E20E9407DEB9
:1033800040E050E067E981E20E9407DE40E050E063
:103390006CE981E20E9407DE40E050E06DE981E2E5
:1033A0000E9407DE41E050E067E881E20E9407DE0C
:1033B00040E050E06CE28AE00E9407DE1093BB0818
:1033C0008FEF9FEF9093480280934702EFE4F7E07E
:1033D00084918F01882351F0082E000C990B0F94D3
:1033E0006B020F5F1F4FF8018491F4CF40E050E073
:1033F0006AE981E20E9407DE40E050E06BE981E289
:103400000E9407DE1F92A0EBFA2EFF9260910E1130
:1034100070910F1180911011909111110F9483A64A
:103420007F936F9387E497E09F938F938E010F5F55
:103430001F4F1F930F930F940D9EB8018AE00E94B7
:1034400010DFC8010E947CE31F92FF92609112116D
:103450007091131180911411909115110F9483A6FE
:103460007F936F938FE397E09F938F931F930F93B7
:103470000F940D9EB80181E10E9410DFC8010E94E7
:103480007CE31F92FF921F921F9287E397E09F9326
:103490008F931F930F930F940D9EB80185E00E94A8
:1034A00010DFC8010E947CE3109232082DB73EB7AE
:1034B000285E3F4F0FB6F8943EBF0FBE2DBF0C9451
:1034C000745781E0809388190C94745781E080933D
:1034D00087190C94745781E080938A190C9474575F
:1034E00081E0809386190C94745781E08093891948
:1034F0000C947457423051056105710511F489E44B
:1035000006C0423351056105710519F482E58093C7
:10351000110240E050E06CE481E20E9407DE40E0EE
:1035200050E06BE481E20E9407DE40E050E064E19D
:103530008AE00E9407DE8FEF80939F090C947457F6
:103540004A3551056105710519F410929F0903C0B0
:1035500081E080939F0980919F09082F10E0000F60
:10356000111FF801E954FE4E208131813093D907B3
:103570002093D80781111EC0809138089091390896
:103580006091BE077091BF07681779072CF4BC01E2
:10359000990F880B990B04C0072E000C880B990B10
:1035A0000F94639E09541E4E0F9483A6D8016D9309
:1035B0007C931DC080913C0890913D086091BC07B0
:1035C0007091BD07681779072CF4BC01990F880B1F
:1035D000990B04C0072E000C880B990B0F94639E67
:1035E00009541E4E0F9483A6F8017183608381E411
:1035F0008093CA0840E050E068E08AE00E9407DE5D
:1036000040E050E06DE781E20E9407DE80E090E05C
:10361000A3E4B3E48093DA119093DB11A093DC115F
:10362000B093DD1180908B0990908C09A0908D094A
:10363000B0908E092091D6113091D7114091D811B8
:103640005091D9116091D2117091D3118091D41100
:103650009091D51115EC612E11E1712E7F926F9230
:103660000EEDC02E01E1D02EE12CF12C03E413E489
:103670000E9437BC0E949BD380E090E0A0E2B1E4BE
:103680008093D6119093D711A093D811B093D911EC
:103690008090870990908809A0908909B0908A0944
:1036A000E090DA11F090DB110091DC111091DD1146
:1036B0006091D2117091D3118091D4119091D51154
:1036C0007F926F9220E030E040E251E40E9437BCEC
:1036D0000E949BD30F900F900F900F908091CA087B
:1036E0008E3411F40C9475591092CA080E943478E3
:1036F00064E074E08DE20E9410DF40E050E068E298
:103700008AE00E9407DE00919F0910E0F801EE0FA9
:10371000FF1FEE0FFF1FE25FFE4E6081718182810D
:1037200093810F9483A670935C0860935B08000FED
:10373000111FF801E954FE4E8081918190935A083F
:103740008093590888E48093CA080E94347864EF13
:1037500071E080E090E00E94969E81E080935D0899
:103760000C94745780919F098130B1F540E050E08E
:1037700068E08AE00E9407DE87ED90E09093E80918
:103780008093E70990933F0880933E088AEA90E08F
:1037900090933D0880933C0881E490E09093E40985
:1037A0008093E3090E94B5FD80913E0890913F0807
:1037B0009093BA118093B9110F94911C40E050E09E
:1037C0006EE781E20E9407DE40E050E06DE481E2B6
:1037D0000E9407DE0C94745781110C94745740E0DA
:1037E00050E068E08AE00E9407DE87ED90E0909369
:1037F000EA098093E90990933B0880933A088AEAA2
:1038000090E0909339088093380881E490E0909399
:10381000E6098093E5090E94B5FD80913A089091F0
:103820003B089093B8118093B7110F94911C40E01E
:1038300050E06EE781E20E9407DE40E050E06DE478
:1038400081E20E9407DE0C94745780919F098130B9
:10385000B1F540E050E068E08AE00E9407DE84E0D5
:1038600091E09093E8098093E70990933F08809353
:103870003E0886EE90E090933D0880933C088AE5F0
:1038800090E09093E4098093E3090E94B5FD809154
:103890003E0890913F089093BA118093B9110F940C
:1038A000911C40E050E06EE781E20E9407DE40E0BC
:1038B00050E06DE481E20E9407DE0C9474578111A0
:1038C0000C94745740E050E068E08AE00E9407DE04
:1038D00084E091E09093EA098093E90990933B0892
:1038E00080933A0886EE90E09093390880933808E8
:1038F0008AE590E09093E6098093E5090E94B5FD82
:1039000080913A0890913B089093B8118093B71139
:103910000F94911C40E050E06EE781E20E9407DEC8
:1039200040E050E06DE481E20E9407DE0C947457A1
:1039300080919F098130C1F540E050E068E08AE065
:103940000E9407DE8CED90E09093E8098093E709F0
:1039500086EE90E090933F0880933E0880EA90E0E6
:1039600090933D0880933C088CE390E09093E409A9
:103970008093E3090E94B5FD80913E0890913F0835
:103980009093BA118093B9110F94911C40E050E0CC
:103990006EE781E20E9407DE40E050E06DE481E2E4
:1039A0000E9407DE0C94745781110C94745740E008
:1039B00050E068E08AE00E9407DE8CED90E0909392
:1039C000EA098093E90986EE90E090933B088093A2
:1039D0003A0880EA90E090933908809338088CE3A5
:1039E00090E09093E6098093E5090E94B5FD8091EF
:1039F0003A0890913B089093B8118093B7110F94B7
:103A0000911C40E050E06EE781E20E9407DE40E05A
:103A100050E06DE481E20E9407DE0C9474578091BF
:103A20009F09823010F00C94745740E050E064E33A
:103A30008AE00E9407DE1F92F0EBFF2EFF9280913A
:103A40000D028F9380910C028F9307E014E01F9377
:103A50000F936E01FCEDCF1AFEEFDF0ADF92CF92DB
:103A60000F94AAABB6018DE00E9410DF1F92FF9267
:103A700080910B028F9380910A028F931F930F9373
:103A80006E0126EEC21A2EEFD20ADF92CF920F9469
:103A9000AAABB6018EE00E9410DF1F92FF928091C8
:103AA00009028F93809108028F931F930F936E01E9
:103AB00031E0C30ED31EDF92CF920F94AAABB601B2
:103AC0008FE00E9410DF1F92FF92809107028F9378
:103AD000809106028F931F930F938E010F5F1F4FEC
:103AE0001F930F930F94AAAB4DB75EB7405E5F4F25
:103AF0000FB6F8945EBF0FBE4DBFB80182E10E94C1
:103B000010DF0C94745740E050E064E18AE00E94BA
:103B100007DE0C94745780910C0290910D021816D8
:103B2000190614F00C9474570A9790930D02809321
:103B30000C021F9220EB2F939F938F938EE094E0C3
:103B40009F938F938E010F5F1F4F1F930F930F94BF
:103B5000AAABB8018DE00E9410DF8DB79EB7089622
:103B60000FB6F8949EBF0FBE8DBF0C947457809112
:103B70000C0290910D028633A1E09A0714F00C9488
:103B800074570A9690930D0280930C021F9220EBBB
:103B90002F939F938F938EE094E09F938F938E014A
:103BA0000F5F1F4F1F930F930F94AAABB8018DE0C7
:103BB0000E9410DFEDB7FEB738960FB6F894FEBF3F
:103BC0000FBEEDBF0C94745780910A0290910B02C6
:103BD0001816190614F00C9474570A9790930B0258
:103BE00080930A021F9220EB2F939F938F938EE076
:103BF00094E09F938F938E010F5F1F4F1F930F933E
:103C00000F94AAABB8018EE00E9410DF2DB73EB72B
:103C1000285F3F4F0FB6F8943EBF0FBE2DBF0C94E8
:103C2000745780910A0290910B02863331E093071A
:103C300014F00C9474570A9690930B0280930A0226
:103C40001F9220EB2F939F938F938EE094E09F938E
:103C50008F938E010F5F1F4F1F930F930F94AAAB8B
:103C6000B8018EE00E9410DF4DB75EB7485F5F4F2E
:103C70000FB6F8945EBF0FBE4DBF0C947457809181
:103C80000802909109021816190614F00C94745742
:103C90000A9790930902809308021F9220EB2F93BA
:103CA0009F938F938EE094E09F938F938E010F5F8D
:103CB0001F4F1F930F930F94AAABB8018FE00E9480
:103CC00010DF8DB79EB708960FB6F8949EBF0FBE53
:103CD0008DBF0C947457809108029091090286332D
:103CE000A1E09A0714F00C9474570A969093090275
:103CF000809308021F9220EB2F939F938F938EE067
:103D000094E09F938F938E010F5F1F4F1F930F932C
:103D10000F94AAABB8018FE00E9410DFEDB7FEB799
:103D200038960FB6F894FEBF0FBEEDBF0C947457D3
:103D300080910602909107021816190614F00C944F
:103D400074570A9790930702809306021F9220EB04
:103D50002F939F938F938EE094E09F938F938E0188
:103D60000F5F1F4F1F930F930F94AAABB80182E10F
:103D70000E9410DF2DB73EB7285F3F4F0FB6F89473
:103D80003EBF0FBE2DBF0C947457809106029091D8
:103D900007028936910514F00C9474570A96909393
:103DA0000702809306021F9220EB2F939F938F931D
:103DB0008EE094E09F938F938E010F5F1F4F1F93B0
:103DC0000F930F94AAABB80182E10E9410DF4DB7A8
:103DD0005EB7485F5F4F0FB6F8945EBF0FBE4DBF32
:103DE0000C94745740E050E068E08AE00E9407DEDF
:103DF000E0919F0940910C0250910D0220910A021E
:103E000030910B02609108027091090280910602C4
:103E100090910702E11130C06C33A1E07A0714F0F1
:103E20006BE371E07093EA096093E9094C33B1E008
:103E30005B0714F04BE351E050933B0840933A0882
:103E40002C33E1E03E0714F02BE331E030933908E6
:103E5000209338088F36910514F08EE690E0909309
:103E6000E6098093E50980913A0890913B08909388
:103E7000B8118093B71134C06C33F1E07F0714F0B0
:103E80006BE371E07093E8096093E7094C3361E0FC
:103E900056072CF450933F0840933E0806C04BE36E
:103EA00051E05093E8094093E7092C33A1E03A0729
:103EB00014F02BE331E030933D0820933C088F361B
:103EC000910514F08EE690E09093E4098093E30965
:103ED00080913E0890913F089093BA118093B91158
:103EE0000E94B5FD0F94911C40E050E06EE781E226
:103EF0000E9407DE40E050E06DE481E20E9407DEB0
:103F00000C94745764E074E08DE20E9410DF40E08E
:103F100050E068E28AE00E9407DE88E48093CA08E5
:103F20000E94347800919F0901111DC080913A08C8
:103F300090913B086091BA077091BB0768177907A9
:103F40002CF4BC01990F880B990B04C0072E000CB0
:103F5000880B990B0F94639E0F9483A67093B811EE
:103F60006093B71120C080913E0890913F08609106
:103F7000B8077091B907681779072CF4BC01990F3D
:103F8000880B990B04C0072E000C880B990B0F941B
:103F9000639E10E0000F111F09541E4E0F9483A65C
:103FA000F8017183608380E090E0A8ECB2E4809334
:103FB000D6119093D711A093D811B093D911E09056
:103FC000DA11F090DB110091DC111091DD1160919C
:103FD000D2117091D3118091D4119091D5112FE904
:103FE00039E03F932F93812C20E8922E2BE3A22ED1
:103FF00026E4B22E3EEDC32E31E1D32E20E030E098
:1040000048EC52E40E9437BC0E949BD300919F0968
:1040100010E0F801EE0FFF1FEE0FFF1FE25FFE4EF4
:1040200060817181828193810F9483A670935C0873
:1040300060935B08000F111FF801E954FE4E808168
:10404000918190935A08809359080E94347864EFC4
:1040500071E080E090E00E94969E81E080935D0890
:104060000F900F900C94745780911102893411F0C5
:104070000C94745740E050E068E08AE00E9407DE4C
:1040800081E48093CA0866E272E080E090E00E94DA
:10409000969EE090DA11F090DB110091DC11109106
:1040A000DD112091D6113091D7114091D811509146
:1040B000D911E0919F0964E0E69FF0011124E653D5
:1040C000FD4F60817181828193810E94C3DF80E016
:1040D00090E0A4E8B3E48093D2119093D311A0931D
:1040E000D411B093D511E090DA11F090DB1100916A
:1040F000DC111091DD112091D6113091D711409132
:10410000D8115091D9118FE999E09F938F93812C09
:10411000A0E89A2EABE3AA2EA6E4BA2EBEEDCB2ED3
:10412000B1E1DB2E60E070E084E893E40E9437BCEC
:104130000E949BD3EDE2F7E084910F900F908F01E6
:10414000882351F0082E000C990B0F946B020F5F1F
:104150001F4FF8018491F4CF20E030E040EF51E4AC
:104160006091DE117091DF118091E0119091E11169
:104170000F94E9A46093DE117093DF118093E01136
:104180009093E111E090DA11F090DB110091DC11D5
:104190001091DD112091D6113091D7114091D81195
:1041A0005091D9116091D2117091D3118091D41195
:1041B0009091D511BFE96B2EB9E07B2E7F926F9263
:1041C000812C912CE0E3AE2EE1E4BE2EFEEDCF2E4D
:1041D000F1E1DF2E0E9437BC0E949BD30F900F901D
:1041E0008091CA088E3411F40C94755920E030E4A3
:1041F00046E754E46091DE117091DF118091E01187
:104200009091E1110F94E9A4AB01BC014093DE1140
:104210005093DF116093E0117093E1118EE894E107
:104220000F94B804E090DA11F090DB110091DC11EA
:104230001091DD112091D6113091D7114091D811F4
:104240005091D9116091D2117091D3118091D411F4
:104250009091D5117F926F92812C912CA6EAAA2E73
:10426000A2E4BA2E0E9437BC0E949BD30F900F90FD
:104270008091CA088E3411F40C94755920E030E016
:1042800048E452E46091DE117091DF118091E011F9
:104290009091E1110F94E9A46093DE117093DF1106
:1042A0008093E0119093E111E090DA11F090DB112E
:1042B0000091DC111091DD112091D6113091D711B0
:1042C0004091D8115091D9116091D2117091D311B0
:1042D0008091D4119091D5117F926F92812C912C65
:1042E000A12CF0E4BF2E0E9437BC0E949BD30F90FC
:1042F0000F908091CA088E3411F40C947559109265
:10430000CA0840E050E06EE08AE00E9407DE0C94AC
:10431000745780911102823511F00C94745740E06B
:1043200050E068E08AE00E9407DE81E48093CA08DA
:1043300066E272E080E090E00E94969E20E030E02D
:1043400046E954E46091DE117091DF118091E01133
:104350009091E1110F94E8A46093DE117093DF1146
:104360008093E0119093E111E090DA11F090DB116D
:104370000091DC111091DD112091D6113091D711EF
:104380004091D8115091D9116091D2117091D311EF
:104390008091D4119091D511EFE9F9E0FF93EF935B
:1043A000812C912CB6EAAB2EB2E4BB2EEEEDCE2ED4
:1043B000E1E1DE2E0E9437BC0E949BD30F900F904C
:1043C0008091CA088E3411F40C94755986E090E0FF
:1043D00090930502809304021092CA0812E410938D
:1043E00009190E94347840E050E065E18AE00E94BB
:1043F00007DE40E050E06BE084E10E9407DE1093AE
:10440000CA0880919F0981111AC080913A08909141
:104410003B089093BB078093BA078091380890912E
:1044200039089093BF078093BE078091E909909166
:10443000EA099093B7078093B6070C94745780915C
:104440003E0890913F089093B9078093B8078091F8
:104450003C0890913D089093BD078093BC078091E4
:10446000E7099091E8099093B5078093B4070C94FD
:1044700074578091540881110C94745740E050E0B7
:1044800068E08AE00E9407DE81E48093CA08E09138
:104490009F0924E0E29FF0011124E653FD4F608163
:1044A0007181828193816093D2117093D311809333
:1044B000D4119093D511E090DA11F090DB110091B6
:1044C000DC111091DD112091D6113091D71140915E
:1044D000D8115091D911EFE9F9E0FF93EF93812CB6
:1044E000E0E89E2EEBE3AE2EE6E4BE2EFEEDCF2EF0
:1044F000F1E1DF2E0E9437BCE090DA11F090DB1181
:104500000091DC111091DD112091D6113091D7115D
:104510004091D8115091D911E091C51164E0E69F06
:10452000F0011124E653FD4F6081718182819381F6
:104530000E94C3DFE091C51184E0E89FF0011124DF
:10454000E653FD4F80819181A281B3818093D21186
:104550009093D311A093D411B093D511E0919F09FA
:10456000F0E0EE0FFF1FE954FE4E8091D8079091C6
:10457000D907918380830E949BD31092CA080E941E
:10458000347812E41093091940E050E065E18AE0C4
:104590000E9407DE40E050E06BE084E10E9407DE0D
:1045A0001093CA080F900F900C9474578091540880
:1045B00081110C9474579091E2098091E10998134C
:1045C0000C94925781E0809360080C94745780910A
:1045D000540881110C9474579091E2098091E1097B
:1045E00098130C9492570C9495579091E2098091EE
:1045F000E10998130C9474570C9499579091E2091F
:104600008091E10998130C9474570C946958E091C7
:104610004702F0914802EF3F5FEFF50711F40C9469
:104620007457EE0FFF1FE954FE4E808191818B334A
:1046300061E0960714F00C9474570596918380837B
:104640001F9220EB2F939F938F938DEE96E09F9375
:104650008F938E010F5F1F4F1F930F930F940D9E2B
:10466000B80185E00E9410DF8DB79EB708960FB69F
:10467000F8949EBF0FBE8DBF0C947457E091470213
:10468000F0914802EF3F9FEFF90711F40C94745733
:10469000EE0FFF1FE954FE4E808191811816190616
:1046A00014F00C9474570597918380831F9220EB2C
:1046B0002F939F938F9385EE96E09F938F938E0118
:1046C0000F5F1F4F1F930F930F940D9EB80185E04E
:1046D0000E9410DFADB7BEB718960FB6F894BEBFF4
:1046E0000FBEADBF0C947457809147029091480261
:1046F000019611F40C9474579091E2098091E109AC
:1047000098130C9492570C943E59809147029091C3
:104710004802019611F40C9474579091E20980912B
:10472000E10998130C9492570C9442599091E20924
:104730008091E10998130C9474570C944659809118
:104740000919823411F00C947457ECEDF6E0849161
:104750008F01882351F0082E000C990B0F946B02E7
:104760000F5F1F4FF8018491F4CF1092CA08109286
:10477000540880911102823509F047C089E4809382
:10478000110280919F09813049F441E050E06CE4CE
:1047900081E20E9407DE40E050E008C040E050E0C7
:1047A0006CE481E20E9407DE41E050E06BE481E2CC
:1047B0000E9407DE41E050E06EE781E20E9407DEE2
:1047C00041E050E06DE481E20E9407DE41E050E00C
:1047D00061E481E20E9407DE41E050E066E481E2AC
:1047E0000E9407DE41E050E06EE481E20E9407DEB5
:1047F00041E050E06FE481E20E9407DE40E050E0DB
:1048000064E18AE00E9407DEA9C0893409F0A6C0ED
:1048100081E48093CA0840E050E068E08AE00E94AA
:1048200007DE40902408509025086090260870907C
:1048300027084092D6115092D7116092D8117092E9
:10484000D91120E030E040E752E4609131027091EC
:10485000320280913302909134020F94D7A54B011C
:104860005C01E090DA11F090DB110091DC11109105
:10487000DD116091D2117091D3118091D41190917A
:10488000D51125EC31E13F932F93EEEDCE2EE1E1F2
:10489000DE2EA30192010E9437BC0E949BD30F9091
:1048A0000F908091CA088E3411F40C94755920E051
:1048B00030E040E251E4609128087091290880912D
:1048C0002A0890912B080F94E9A47B018C01609336
:1048D000DA117093DB118093DC119093DD118091DC
:1048E000000889838090350290903602A0903702AC
:1048F000B09038022091D6113091D7114091D81143
:104900005091D9116091D2117091D3118091D4112D
:104910009091D511FE013196FF93EF930E9437BC21
:104920000E949BD30F900F908091CA088E3411F48F
:104930000C9475591092CA0840E050E06AE28AE08F
:104940000E9407DE11E0109332081092BB0864E069
:1049500078E086E20E9410DF109303081092091994
:104960000C94745780918C191092CA088823B9F05E
:1049700010928C1981E080938D1980910E0240E095
:1049800050E0813431F469E08AE00E9407DE0C9443
:1049900074576AE28AE00E9407DE0C947457109202
:1049A000E2191092BB08E1EDF6E084918F018823B3
:1049B00051F0082E000C990B0F946B020F5F1F4FE4
:1049C000F8018491F4CF1092660881E00F94691782
:1049D00040E050E065E08AE00E9407DE0C947457E6
:1049E0009091F207992309F428C28091F60782304A
:1049F00008F423C2473451056105710509F4A3C0C9
:104A00009CF54B3251056105710509F462C09CF4B7
:104A1000473151056105710509F467C048315105F9
:104A20006105710511F00C94745782E090E00F94C9
:104A3000311C0C947457403351056105710509F41C
:104A40004EC0453351056105710509F4BCC14F32B3
:104A500051056105710511F00C9474578FEF9FEFAC
:104A60000F94311C0C947457403851056105710541
:104A700009F441C004F54E3551056105710509F48D
:104A800070C14F3551056105710511F00C947457D3
:104A900014E41093091940E050E06BE084E10E94B7
:104AA00007DE40E050E065E18AE00E9407DE1093F7
:104AB000CA080C9474574238510561057105B9F163
:104AC00044F14B3A51056105710509F4C8C00C94D5
:104AD00074578EEF9FEF0F94311C0C94745780E045
:104AE00090E00F94311C0C94745781E090E00F9487
:104AF000311C0C9474578DEF9FEF90930B1980939A
:104B00000A1940E050E06AE08AE00E9407DE0C9457
:104B1000745783E090E090930B1980930A1940E05A
:104B200050E06AE08AE00E9407DE0C94745710920D
:104B30000B1910920A1940E050E06AE08AE00E94E6
:104B400007DE0C94745740E050E068E08AE00E9471
:104B500007DE81E48093CA0841E061E081E00E94C1
:104B6000CFA61092CA080E949BD30F94BE18109132
:104B70000A198091F607823011F540E050E061E1BA
:104B80008AE00E9407DE80E58093CA080091F3075F
:104B9000010F0093F307002E000C110B20E030E012
:104BA000A901CA01B9010E9462AA40E050E069E18E
:104BB0008AE00E9407DE1092CA080C947457833072
:104BC00029F540E050E061E18AE00E9407DE80E5DF
:104BD0008093CA080091F407010F0093F407002E98
:104BE000000C110B20E030E04CE553EC60E070E08D
:104BF00088E393EC0E9462AA40E050E069E18AE019
:104C00000E9407DE1092CA080C947457843011F089
:104C10000C94745740E050E061E18AE00E9407DEA6
:104C200080E58093CA080091F507010F0093F5070E
:104C3000002E000C110B20E030E04CE553EC60E05E
:104C400070E080E493E40E9462AA40E050E069E1F1
:104C50008AE00E9407DE1092CA080C9474571092E2
:104C6000CA088091F3074091F407042F081B409174
:104C7000F507142F181B602F002E000C770B880BE4
:104C8000990B0F94639E2DEC3CEC4CEC5DEB0F9478
:104C900053996093FB077093FC078093FD079093F3
:104CA000FE07612F012E000C770B880B990B0F94D8
:104CB000639E2DEC3CEC4CEC5DEB0F9453996093B0
:104CC000F7077093F8078093F9079093FA0700238A
:104CD000A1F040E050E06FE18AE00E9407DE07FFAC
:104CE00007C0202F332721950CF4309508E0020FE0
:104CF000402F000F550B64E015C01123B9F040E0C0
:104D000050E060E28AE00E9407DE17FF07C0812FB3
:104D1000992781950CF4909518E0180F412F110FE9
:104D2000550B65E08BE10E9407DE11C014E410937F
:104D3000091940E050E06BE084E10E9407DE40E0AA
:104D400050E065E18AE00E9407DE1093CA0880E81F
:104D500090E09093DD198093DC190E94B5FD0C94CE
:104D600074574091F5078091F307142F181BC1F079
:104D700040E050E060E28AE00E9407DE17FF07C0D3
:104D8000A12FBB27A1950CF4B09518E01A0F412F65
:104D9000110F550B65E08BE10E9407DE0C947457F0
:104DA00014E41093091940E050E06BE084E10E94A4
:104DB00007DE40E050E065E18AE00E9407DE1093E4
:104DC000CA080C94745780910919843411F00C941A
:104DD00074571092F6071092F2071092CA081092B8
:104DE000B2111092B1111092B8111092B711109225
:104DF000BA111092B9111092E2191092BB08E6ECA8
:104E0000F6E084918F01882351F0082E000C990B55
:104E10000F946B020F5F1F4FF8018491F4CF109233
:104E200066080F94691740E050E065E08AE00E9450
:104E300007DE109209190C947457403E510510F08A
:104E40000C947457FA018827EE58FF4F8F4F0D943A
:104E50004EA981E080934F080C94745781E08093B1
:104E60004E080C94745781E080934D080C9474574D
:104E700081E080934C080C94745781E080934B0838
:104E80000C9474570F942708009751F481E0809395
:104E900050088091A41181508093A4110C947457F0
:104EA000019711F00C94745781E08093500840E012
:104EB00050E067E381E20E9407DE40E050E061E0FD
:104EC0008BE10E9407DE8091A41181508093A41190
:104ED0000C9474571092E2191092BB08EBEBF6E0B9
:104EE00084918F01882351F0082E000C990B0F94A8
:104EF0006B020F5F1F4FF8018491F4CF1092660888
:104F000081E00F94691740E050E065E08AE00E947C
:104F100007DE0C94745780919A15882311F40C9431
:104F2000745741E061E08BE995E10F94AB668FEF38
:104F30009FEF9093891580938815E12CF12C07E35E
:104F400015E19E012F5F3F4F590188248A94982CC8
:104F500022242394312C5AEDC52E53E0D52E4091B6
:104F6000391850913A1860913B1870913C18809113
:104F7000941790919517A0919617B0919717841751
:104F80009507A607B70708F0C8C0D801E2E31D924D
:104F9000EA95E9F725E1422E512C809137158D34A1
:104FA00029F4E114F10409F07FC05FC04091391881
:104FB00050913A1860913B1870913C188091941769
:104FC00090919517A0919617B09197178417950710
:104FD000A607B70730F797E3692E95E1792E809100
:104FE000941790919517A0919617B09197174091AB
:104FF000391850913A1860913B1870913C188417F9
:105000009507A607B70788F4809341189093421834
:10501000A0934318B09344188CE897E10F94DF42B3
:10502000D3018D933D018A3029F4B1E04B1A510828
:1050300029F4B7CFA856B541C1F3D1CF4091391863
:1050400050913A1860913B1870913C1880919417D8
:1050500090919517A0919617B0919717841795077F
:10506000A607B70708F499CF9CCF9A828982BF928E
:10507000AF92A2E7BBE1BF93AF931F930F930F943F
:105080003C9E89819A810F900F900F900F900F9006
:105090000F90019629F0309289152092881504C04E
:1050A00010928915109288159A828982BF92AF92C8
:1050B000DF92CF921F930F930F943C9E89819A8128
:1050C0000F900F900F900F900F900F90059711F485
:1050D0000C945D599A828982BF92AF92DF92CF92EF
:1050E0001F930F930F943C9E89819A810F900F908C
:1050F0000F900F900F900F90069711F40C945D593C
:105100002EE0E216F10409F486C13FEFE31AF30A38
:105110004FE0E416F1040CF422CF109241181092E3
:105120004218109243181092441840E050E0BA011F
:105130008CE897E10F944A428091881590918915E7
:10514000892B49F40CE310E0B7E3EB2EB5E1FB2E1D
:1051500082E3D82E98C00AEF10E057E3E52E55E120
:10516000F52E62E3362E44244A94542CAE014F5F50
:105170005F4F6A01EBECAE2EE3E0BE2E4091391892
:1051800050913A1860913B1870913C188091941797
:1051900090919517A0919617B0919717841795073E
:1051A000A607B70708F03FC0A7E38A2EA5E19A2E0D
:1051B000D701E32D1D92EA95E9F70E94D6E001960A
:1051C00021F480E00F94F20426C15A824982DF92D2
:1051D000CF92FBEC6F2EF3E07F2EBF92AF92FF9247
:1051E000EF920F943C9E89819A810F900F900F90BF
:1051F0000F900F900F90019659F18FEF9FEF9A83C8
:105200008983DF92CF927F926F929F928F920F94B9
:105210003C9E89819A810F900F900F900F900F9074
:105220000F90892B71F680E00F94F204C090DE029B
:10523000D090DF02E090E002F090E10220E030E068
:10524000A901C701B6010F94C1A7181694F13CC07B
:105250000150110909F092CFE6CFD701ED2D1D9233
:10526000EA95E9F70E94D6E0019609F4AACF67E330
:1052700075E186E194E00F94CB9D892B09F4A1CFD1
:105280000150110981F24091391850913A186091FA
:105290003B1870913C188091941790919517A091AC
:1052A0009617B091971784179507A607B707A8F226
:1052B000BACF2DEC3CEC4CE45DE3C701B6010F9492
:1052C000C1A718165CF0A7C02DEC3CEC4CE45DEBDC
:1052D000C701B6010F945D9E87FF9DC040E050E07E
:1052E00067E18AE00E9407DE8090DE029090DF0294
:1052F000A090E002B090E10220E030E0A901C501F9
:10530000B4010F94C1A718162CF520E030E048EC4A
:1053100052E4C501B4010F9453990F9483A60AE097
:1053200010E0CB01B8010F941FA9F82EE92E20E060
:1053300030E040E251E4C501B4010F9453990F9459
:1053400083A6CB01B8010F941FA9082FD92EC50140
:10535000B4012AC02401350177FA709477F870946B
:1053600020E030E048EC52E4C301B2010F945399BD
:105370000F9483A60AE010E0CB01B8010F941FA997
:10538000F82EE92E20E030E040E251E4C301B20102
:105390000F9453990F9483A6CB01B8010F941FA9C2
:1053A000082FD92EC301B2010F9483A6162FC72E42
:1053B00020E030E0A901C501B4010F945D9E87FD96
:1053C00003C08EEF93E002C089EF93E0EF92FF926B
:1053D000DF920F93CF921F939F938F938EE696E069
:1053E0009F938F938E010F5F1F4F1F930F930F9407
:1053F0000D9EC8010E947CE3B80180E30E9410DF8B
:105400002DB73EB7245F3F4F0FB6F8943EBF0FBE97
:105410002DBF0C9475598091EA1581110C94745725
:10542000CDB6DEB68091490890914A080F946B087A
:10543000EBE9F5E1DF010D900020E9F78DB79EB7AC
:105440008A1B9B0BAC0149565A4E0FB6F8945EBFAF
:105450000FBE4DBF0DB71EB70F5F1F4FFF93EF93EA
:1054600087E696E09F938F931F930F930F940D9E63
:10547000780154E0E50EF11C0F900F900F900F9003
:105480000F900F90F7018081882349F0082E000CBF
:10549000990B0F9449ABD7018D937D01F3CFC801D0
:1054A0000F94DF1783E696E00F946C170FB6F8940D
:1054B000DEBE0FBECDBE0C94745780919A15882322
:1054C00011F40C9474578091EA1581110C9474575F
:1054D000CDB6DEB68091490890914A080F946B08CA
:1054E000EBE9F5E1DF010D900020E9F78DB79EB7FC
:1054F0008A1B9B0B9C0129563A4E0FB6F8943EBF6F
:105500000FBE2DBF0DB71EB70F5F1F4FFF93EF9359
:105510008CE596E09F938F931F930F930F940D9EAE
:10552000780134E0E30EF11C0F900F900F900F9074
:105530000F900F90F7018081882349F0082E000C0E
:10554000990B0F9449ABD7018D937D01F3CFC8011F
:105550000F94DF1788E596E00F946C170FB6F89458
:10556000DEBE0FBECDBE0C94745740E050E067E342
:1055700081E20E9407DE40E050E061E08BE10E94A2
:1055800007DE40E050E062E08AE00E9407DE81E052
:105590008093E219809351080C94745781E08093B2
:1055A00053080C94745781E0809352080C947457FC
:1055B00040E050E062E18AE00E9407DE0C947457FC
:1055C00040E050E06CE18AE00E9407DE80E00F944A
:1055D000691710926508109264081092630881E0C0
:1055E000809366080C9474571092E2191092BB08CD
:1055F000EDE4F6E084918F01882351F0082E000C31
:10560000990B0F946B020F5F1F4FF8018491F4CF39
:10561000109266080E94347881E00F94691740E088
:1056200050E065E08AE00E9407DE0C947457809198
:10563000B7119091B811892B29F01092B8111092DE
:10564000B71108C08091E9099091EA099093B811C7
:105650008093B711109265080C9474578091B9111A
:105660009091BA11892B29F01092BA111092B911A8
:1056700008C08091E7099091E8099093BA1180934E
:10568000B911109264080C9474578091B1119091E3
:10569000B211892B29F01092B2111092B1111CC0D5
:1056A0008091E5099091E6096091E3097091E40920
:1056B000681779072CF4BC01990F880B990B04C06B
:1056C000072E000C880B990B0F94639E0F9483A6F2
:1056D0007093B2116093B111109263080C947457D7
:1056E00089E496E00F946C170C94745740E050E0F6
:1056F0006EE18AE00E9407DE0C94745740E050E0AF
:1057000065E08AE00E9407DE1092E2191092BB0861
:10571000EEE3F6E084918F01882351F0082E000C0F
:10572000990B0F946B020F5F1F4FF8018491F4CF18
:105730001092660888E793E090935D0280935C0284
:105740000E94B5FD0C94745740E050E06AE18AE095
:105750000E9407DE0F94460380919A15882311F466
:105760000C9474578091A3118093A4112BE7E22E1F
:1057700021E1F22E3FE8C32E31E1D32E00E010E00C
:1057800048E3842E46E0942E8091A31190E0081700
:105790001907BCF56BE975E182E196E10F94E147E9
:1057A0005701D7018D919D917D010F946B08F501F3
:1057B00080819181D6018D939D936D018091EA1531
:1057C000811118C0F401849198E3A92E96E0B92EB6
:1057D000882359F0082E000C990B0F946B02FFEFF1
:1057E000AF1ABF0AF5018491F3CF8AE090E00F94DD
:1057F0006B0204C08BE995E10F94C26A0F5F1F4FE3
:10580000C3CF87E090E00F94231D0C9474578091D0
:105810005C0290915D028036974041F488E793E006
:1058200090935D0280935C020E94B5FD40E050E0E1
:1058300068E08AE00E9407DE81E48093CA088091D4
:105840000609882331F140E061E081E00E94CFA6A3
:105850000E949BD38091CA088E3411F40C94755920
:1058600081E00F9469171092CA0885E396E00F94BF
:105870006C170E949BD38091CA088E3411F40C944B
:10588000755940E050E06BE08AE00E9407DE0C941E
:10589000745741E0D9CF40E050E064E08AE00E94D4
:1058A00007DE0C94745740E050E064E28AE00E9406
:1058B00007DE81E08093D70789E48093CA081F92AE
:1058C0001F928CE194E09F938F938E010F5F1F4F87
:1058D0001F930F930F94AAABB8018EE20E9410DFC2
:1058E0006091E9097091EA09072E000C880B990B69
:1058F0000F94639E00E010E028EC31E440E050E0BB
:105900000E9450E40E94B5FD61E274E08EE894E1EB
:105910000F94718264E274E08EE894E10F947182D6
:1059200060917C0270917D0280917E0290917F0255
:1059300042E050E00F949D6B68E274E08EE894E1E1
:105940000F9471822DEB37E346E05EE360917402C1
:105950007091750280917602909177020F94D7A58D
:1059600042E050E00F949D6B6CE274E08EE894E1AD
:105970000F9471822DEB37E346E05EE360916C0299
:1059800070916D0280916E0290916F020F94539905
:1059900042E050E00F949D6B6091E7097091E80937
:1059A000072E000C880B990B0F94639E00E010E00B
:1059B00028EC31E441E050E00E9450E40E94B5FD43
:1059C00061E274E08EE894E10F94718264E274E025
:1059D0008EE894E10F94718260918002709181024F
:1059E000809182029091830242E050E00F949D6B7F
:1059F00068E274E08EE894E10F9471822DEB37E356
:105A000046E05EE3609178027091790280917A02BB
:105A100090917B020F94D7A542E050E00F949D6BCC
:105A20006CE274E08EE894E10F9471822DEB37E321
:105A300046E05EE3609170027091710280917202A3
:105A4000909173020F94539942E050E00F949D6B34
:105A50001092CA080E94347840E050E06BE084E184
:105A60000E9407DE40E050E065E18AE00E9407DE28
:105A700084E4809309198093CA080F900F900F90C7
:105A80000F900F900F900C9474571092E21910928F
:105A9000BB08EAE2F6E084918F01882351F0082EDA
:105AA000000C990B0F946B020F5F1F4FF80184914C
:105AB000F4CF109266080E94347840E050E065E030
:105AC0008AE00E9407DE0C94745782E580931102ED
:105AD00081E08093D60740E050E06BE581E20E94D0
