:100000000C941B180C944C180C944C180C944C1811
:100010000C944C180C944C180C944C180C944C18D0
:100020000C944C180C944C180C944C180C944C18C0
:100030000C944C180C944C180C944C180D94086C9F
:100040000C944C180C944C180C944C180C944C18A0
:100050000C944C180C944C180C944EB90C9427B773
:100060000C944C180C94EED90C94C5D90C944C18E3
:100070000C944C180C944C180C944C180C944C1870
:100080000D948B420C944C180C944C180C944C18F6
:100090000C944C180C944C180C944C180C944C1850
:1000A0000C944C180C944C180C944C180C944C1840
:1000B0000C944C180C944C180C944C180C944C1830
:1000C0000C944C180C944C180C944C180C9490D91B
:1000D0000C9467D90C944C180C944C180C944C1834
:1000E0000C944C18165BD95D1A35EC32E4572D2E62
:1000F0000F5B432ED95DD95D4C3D822ED95DD95D14
:10010000B22AA72AD95D443ED95DD95DD95D5F5C2D
:10011000945CC95CFE5C335DD95D685D815AD044F6
:10012000A9451D5B8F3E803EC65DBC5D023A382E00
:10013000282B0D2EBF326F40D7329D5D4850CF32F5
:10014000C732AC5D2F5AD95D0C35585C483C16411E
:100150004B2ED32ABD2AD95D0A3A732F9E3ED95D14
:10016000495C2C5C9D490337B52DCC4DC33A3751C2
:100170006437ED49E25B2C5BD834BC35BC3598352F
:10018000C5372A38C2309B2EB42E58357A359C2A72
:10019000C82AD95DD95D0D2E4C355F318131E12EF4
:1001A0000E40E83FB52D425C335CB759BE57CC5981
:1001B000CC594A591E59F258C65842586E589A5846
:1001C000D95DD95D2D46B745A346794803488D478B
:1001D000D95DD95DD95DA431BD314C35D95DD95DCD
:1001E000D95D6E49D95DD95D7A4C66494C3C072B87
:1001F000D356D95DD95DD95DD95DD95DAF3F9E3EFE
:10020000CD38F8382339D95DE2380D3938397839A5
:10021000633947343134473FF9327233F2331234A1
:100220001B555834D95D4E39D95DD95DD95DD95D3D
:10023000D95DD95DD95DD95DD95D6F40E72EEF2ECF
:10024000152F61569D56D95DD95D9D497A4CAD4CAF
:10025000B04DD95DB8501A514E509F50CD4E4551BA
:10026000D95DEA4EC53CF752543D1A3E3B53D95D29
:10027000D95DC95113525F52AB52C151D95DD95D9D
:100280007F5381544056D95DD95DF755D95DD95D0D
:100290005056D95DBF2F3450D64EF64EC14FC94F80
:1002A0000D2E3C50D95DD95DD95DD95DD95DD95D43
:1002B000D95DD95DD95DAF574A5AD95DD95DD95D50
:1002C000D95DD95DD95DD95DD95D6757D95DD95DF6
:1002D000D95DD95DD95DD95DD95DD95DE254F3545D
:1002E000AD54D95DD95DD95DD95DD95DD95DD95D93
:1002F000D95DD95DD95DD95DD95DD95DD95DD95D4E
:10030000D95DD95DD95DD95DD95DD95DD95DD95D3D
:10031000D95DD95DD95DD95DD95DD95DD95DD95D2D
:10032000D95DD95DD95DD95DD95DD95DD95DD95D1D
:10033000D95DD95DD95DD95DD95DD95D924454440B
:100340006B452D4576497E498D4986499549054439
:100350001D44254415440D442D4434443C44444438
:100360004C4425451D4515450D450645DE44E644EE
:10037000EE44F644FE44A54C9D4C964C8E4C864C67
:100380002B4C4A4CDF32B72FA230D95D755A045539
:100390005F2E1E31D95DD95DE4577F51D95DD95D9E
:1003A000D95DD95DD95D535AD95DD95DD95D7235B5
:1003B000F3301355C7345838D95D5351D95DD95DE1
:1003C000D95DD95D755AD95DE457FF34054C184C99
:1003D000755A535A2D85E3859D86788607867886DB
:1003E0005A864B8569858785328750876E878B87CC
:1003F000C585A5853C8676B579B568B56CB572B509
:10040000B0B57DB581B587B58BB58FB595B599B5C7
:100410009DB5B0B5A3B5A7B5ABB543B648B64DB617
:1004200057B661B6DAB66BB673B67BB685B68FB61D
:1004300099B6A8B6B2B6DAB6BCB6C6B6D0B6D8B912
:10044000E5B901BA0EBA28BA35BA4FBA51BA53BA99
:1004500055BA5DBA084AD73B3BCE016E84BCBFFD9E
:10046000C12F3D6C74319ABD56833DDA3D00C77F84
:1004700011BED9E4BB4C3E916BAAAABE000000801D
:100480003F05A84CCDB2D44EB93836A9020C50B9AC
:10049000918688083CA6AAAA2ABE000000803F00D8
:1004A0000D943B120D942A510D9471AA0D949AAAA1
:1004B0000D9459530D943A120D947FC80D94916682
:1004C0004E414E494E495459494E46CDCCCC3D0A39
:1004D000D7233C17B7D13877CC2B329595E6241F1C
:1004E000B14F0A000020410000C84200401C4620D5
:1004F000BCBE4CCA1B0E5AAEC59D746364696E6F58
:1005000070737578585B003B4578747275646572DA
:100510007320757365643A205425642025642E2564
:1005200064205425642025642E2564003B2020206F
:1005300065787472756465724469616D657465721D
:100540002C25642E25642C25642E2564003B4578DB
:100550007472756465727320757365643A205425EE
:10056000642025642E2564205425642025642E25CE
:1005700064003B202020657874727564657244695C
:10058000616D657465722C25642E25642C25642E9E
:100590002564003B202020757365526166742C250C
:1005A00064004D36303520532564005375726669FA
:1005B0006E6720300A0047333400494E464F3A20D8
:1005C0004245442043414C4942202D20005375723E
:1005D00066696E6720300A0047323820583020594B
:1005E0003000543000543100543000543000537502
:1005F0007266696E6720300A00473433004734332F
:100600000047343100473430004733340047343337
:10061000004734330047343100473430004D38341C
:10062000004D3834004D3834005A32204F6666731E
:1006300065743A20004F4B207365636F6E642045EC
:1006400078747275646572210A005A20706F73693C
:1006500074696F6E3A20005A20706F736974696F05
:100660006E3A20004D3834005A312050726F626566
:10067000206F66667365743A20004F4B206669727E
:10068000737420457874727564657221200A005A6B
:1006900020706F736974696F6E3A20005A20706F12
:1006A000736974696F6E3A200043616C63756C7591
:1006B000733A20200043616C63756C75733A202097
:1006C0000043616C63756C75733A20200043616C64
:1006D00063756C75733A202000363020646567724C
:1006E000656573200A0054300054300054300043D4
:1006F000616C6962726174696F6E205375636365C2
:10070000737366756C0A005430004A756D70206F03
:100710007665722073637265773120616E64207331
:100720006372657732200A004A756D70206F7665B6
:100730007220736372657731200A004733340047B3
:100740003334004733340054300047333400494ECB
:10075000464F3A204245442043414C4942202D20F7
:10076000004C6F6164696E670A0053757266696E4A
:100770006720300A0053757266696E6720300A0080
:1007800053757266696E6720300A0050757267652E
:100790002046696C616D656E740A005375726669F6
:1007A0006E6720300A0053757266696E6720300AE2
:1007B00000543000466F756E640A005375726669A6
:1007C0006E6720300A004D33340053757266696ECF
:1007D0006720300A004D3234004D3233202573003B
:1007E0004D3234004D323320257300546865206645
:1007F00069727374206C61796572207072696E74AD
:1008000065642077697468207468652025732048C2
:100810006F74656E640A77696C6C20626520646928
:1008200073746F727465642062792025642E25319B
:1008300064253164206D6D0053757266696E6720A2
:10084000300A0053757266696E6720300A0053756E
:100850007266696E6720300A00535543434553530F
:100860000A004C6F6164696E673A0A0050757267DE
:10087000652046696C616D656E74200A00257320E1
:100880006578747275646572004578747275646514
:10089000722072656C65617365642061637469764A
:1008A000653A20005A205349474D4120486F6D65F5
:1008B000640A0045787472756465722061637469B6
:1008C00076653A20005374617274696E67205A200D
:1008D00043616C6962726174696F6E2057697A61F5
:1008E00072640A00257320657874727564657200FD
:1008F000473639204143544956415445440A000A79
:1009000000205A3A200020593A200020583A20006E
:1009100042656400456E642066696C65206C69738D
:10092000740A00426567696E2066696C65206C69AF
:1009300073740A002E0A0044656C6574696F6E203A
:100940006661696C65642C2046696C653A200046D6
:10095000696C652064656C657465643A002E0A00F4
:100960006F70656E206661696C65642C2046696CE9
:10097000653A200047323820583020593000205A3C
:100980003A0020593A0020436F756E7420583A207F
:100990000020453A00205A3A0020593A00583A00BF
:1009A0007A5F6D696E3A2000795F6D61783A200058
:1009B000785F6D61783A2000785F6D696E3A20004B
:1009C000504F534954494F4E20484F4D453A20000F
:1009D000220A00556E6B6E6F776E20636F6D6D61CE
:1009E0006E643A202200526561647920746F20534E
:1009F000746172740A0067636F646520666F756E58
:100A0000640A0020746F2053746172742044697307
:100A1000706C61792066726F6D2052657365740029
:100A2000546F6F6B2000646973706C6179206F6E16
:100A30006C696E6521002E00466F726D2032210AAE
:100A400000526561647920746F204C6F61642F558A
:100A50006E6C6F6164200A005072696E74204A6F78
:100A6000622046696E6973686564004D38342058A9
:100A70002059205A2045004D313037005430005362
:100A8000757266696E672030200A0043616C696286
:100A9000726174696F6E20537563636573736675F5
:100AA0006C0A005430004D383420582059205A2008
:100AB0004500526561647920746F204C6F61642F2A
:100AC000556E6C6F6164200A002053544F502050C3
:100AD00052494E54200A00473238205830205930AD
:100AE000004D33350047373000524553554D4520B2
:100AF0005052494E54204A4F420A005041555345E6
:100B0000205052494E54204A4F420A005741524EFB
:100B1000494E47283838293A2054656D706572610E
:100B200074757265206E6F742072656163686564A8
:100B3000206279204865617465725F49443A2025D6
:100B4000640053544154495354494353205245532C
:100B500045540A002C2073617665645F466C6167BA
:100B60005F66616E6C617965725F6D6972726F72DA
:100B70003A20002C2073617665645F666565647257
:100B8000617465313A20002C2073617665645F667C
:100B900065656472617465303A20002C207361765B
:100BA00065645F66616E6C617965723A20002C2025
:100BB00073617665645F74656D706265643A200088
:100BC0002C2073617665645F74656D70303A200027
:100BD0002C2073617665645F74656D70313A200016
:100BE0002C2073617665645F66696C65706F7369EC
:100BF00074696F6E3A20002C2073617665645F65BE
:100C00005F706F736974696F6E3A20002C20736196
:100C10007665645F746F6F6C5F6163746976653A63
:100C200020002C2073617665645F7A5F706F736952
:100C300074696F6E3A20002C2073617665645F7969
:100C40005F706F736974696F6E3A20002C20736156
:100C50007665645F785F706F736974696F6E3A2050
:100C60000053415645205052494E54204C4F473A6C
:100C70000A006563686F3A005072696E742072658D
:100C8000636F766572792075700A004E6F742070FC
:100C900072696E74207265636F7665727920757003
:100CA0000A00535543434553530A0056616C75651A
:100CB00073206F7574206F662072616E67650A001D
:100CC00056616C756573206F7574206F6620726154
:100CD0006E67650A0056616C756573206F757420C8
:100CE0006F662072616E67650A0056616C75657388
:100CF000206F7574206F662072616E67650A0053FD
:100D00005543434553530A0056616C756573206F14
:100D10007574206F662072616E67650A0056616C9B
:100D2000756573206F7574206F662072616E6765DC
:100D30000A0056616C756573206F7574206F6620AC
:100D400072616E67650A0056616C756573206F7518
:100D500074206F662072616E67650A002050200063
:100D6000205A200020592000536574204D3533301F
:100D7000205820004D6F64652032203A206379634B
:100D80006C652020202D3E205247423A20362073A9
:100D90007461746573002A2A2D3E20004D6F6465CE
:100DA0002031203A2072616E646F6D20202D3E202C
:100DB0005247423A202B31202B32202B332C2064F7
:100DC0007572696E67207072696E74696E67002A49
:100DD0002A2D3E20004D6F64652030203A20646546
:100DE0006661756C74202D3E205247423A203235A0
:100DF000352032353520323535002A2A2D3E200067
:100E00004C6564206D6F646573203A004D35333650
:100E1000204C5B6D6F64655D00486F74656E642087
:100E20006F6666736574733A0054696D6520696E08
:100E30006163746976650A0050757267652064693C
:100E40007374616E63650A005A204F666673657439
:100E5000206F6B0A005A204F6666736574203A2033
:100E60000A007A5F6D61783A20007A5F6D696E3AA8
:100E700020005A204F666673657400504F534954E2
:100E8000494F4E20484F4D453A200070012C0190AB
:100E9000012701B0012201C0011D01F0011801105C
:100EA00002130130020E016002090190020401C028
:100EB00002FF000003FA004003F5008003F000D0B9
:100EC00003EB002004E6007004E100E004DC0040D5
:100ED00005D700C005D2004006CD00D006C800806E
:100EE00007C3003008BE00F008B900C009B400B064
:100EF0000AAF00B00BAA00D00CA500000EA0005055
:100F00000F9B00C01096005012910000148C00C07E
:100F1000158700B0178200B0197D00D01B78000043
:100F20001E730040206E0090226900F0246400408F
:100F3000275F0090295A00E02B5500102E5000200A
:100F4000304B0010324600E033410090353C001039
:100F500037370070383200A0392D00B03A2800A091
:100F60003B2300603C1E00103D1900903D14001012
:100F70003E0F00703E0A00C03E0500003F000045E5
:100F800072726F72283833293A204265642074687F
:100F900065726D6973746F72206E6F74206465740E
:100FA00065637465640A004572726F72283832296D
:100FB0003A20526967687420746865726D69737449
:100FC0006F72206E6F742064657465637465640A63
:100FD000004572726F72283831293A204C65667468
:100FE00020746865726D6973746F72206E6F7420FF
:100FF0002064657465637465640A002053544F501F
:10100000205052494E54200A004572726F7228389F
:1010100033293A2042656420746865726D6973747F
:101020006F72206E6F742064657465637465640A02
:10103000002053544F50205052494E54200A00452E
:1010400072726F72283832293A20526967687420A8
:10105000746865726D6973746F72206E6F7420644A
:10106000657465637465640A002053544F502050C2
:1010700052494E54200A004572726F722838312945
:101080003A204C65667420746865726D6973746F7C
:1010900072206E6F74202064657465637465640AE1
:1010A000002053544F50205052494E54200A0045BE
:1010B00052524F52283839293A2042454420697308
:1010C000206E6F742068656174696E6700205354E8
:1010D0004F50205052494E54200A004552524F5210
:1010E000283839293A20486F74656E6420256420B9
:1010F0006973206E6F742068656174696E6700653E
:1011000063686F3A0000002100240027002A002DA8
:10111000003000330001010000040107010A010052
:10112000002200250028002B002E00310034000290
:10113000010000050108010B01CDAC0344008093C0
:1011400043000052430000000000000000000000C7
:10115000000A00207A3A200020793A200020783ACC
:101160002000426564004D38340053746172746924
:101170006E6720582043616C6962726174696F6E9A
:101180002057697A6172640A004D383400537461E3
:101190007274696E6720592043616C696272617470
:1011A000696F6E2057697A6172640A00000020003E
:1011B0002300260029002C002F003200000100002F
:1011C00003010601090105050505070508080808CA
:1011D000020202020A0A08080404040401010101CF
:1011E00001010101030303030303030304070707CA
:1011F0000C0C0C0C0C0C0C0C02020202060606066F
:10120000060606060B0B0B0B0B0B0B0B010210203B
:10121000200808102040102040800201020108042C
:1012200002010102040810204080804020100804C0
:101230000201800402018040201008040201080419
:10124000020101020408102040800102040810205D
:10125000408000000A0B02090C0D0E080703040170
:10126000000000000000000000000000000000007E
:10127000000000000000000000000000000012114B
:10128000100000000000000000000000000000004E
:101290000000000000000000202D20496E76616CE7
:1012A0006964206578747275646572206E756D620C
:1012B000657220210A004572726F723A0064697388
:1012C000706C6179206F66666C696E650042434E92
:1012D0003344205369676D61780A007374617274D6
:1012E0000A006563686F3A0030322D312E332E309C
:1012F00052430A006572726F722077726974696E68
:101300006720746F2066696C650A00205A3A0020D5
:10131000593A0020583A00656E6473746F707320F8
:101320006869743A20006563686F3A0054686572B2
:1013300065206973206E6F742066696C616D656EDF
:1013400074206F6E20746865207269676874206508
:10135000787472756465720A0054686572652069F4
:1013600073206E6F742066696C616D656E74206F9A
:101370006E20746865206C6566742065787472757B
:101380006465720A00446F6E6520736176696E67EA
:101390002066696C652E0A006F6B0A004D323900B9
:1013A0007C3C3E5E2B3D3F2F5B5D3B2C2A225C004C
:1013B0004475616C204D6972726F72204D6F646567
:1013C000204F4E0A004475616C204D6F6465204FBC
:1013D00046460A00436F6F6C696E6720446F776EF4
:1013E000204865617465720A005072696E74657296
:1013F0002068616C7465642E206B696C6C282920F0
:1014000063616C6C6564210A004572726F723A0008
:101410002E2E2E2054696D656F757421002A2A2A9C
:101420002047656E69652057726974654F626A6509
:101430006374202A2A2A202D2D2D3E002E2E2E20A8
:101440004E414B2021002A2A2A2047656E696520DB
:1014500057726974654F626A656374202A2A2A206C
:101460002D2D2D3E002E2E2E2041434B2021002AD3
:101470002A2A2047656E69652057726974654F6234
:101480006A656374202A2A2A202D2D2D3E002A2ADF
:101490002A2047656E69652042616420427974653F
:1014A000202A2A2A202D2D2D3E203078002056611A
:1014B0006C75653A200020496E6465783A20002AF0
:1014C0002A2A2047656E6965205265706F72742004
:1014D0004F626A656374202A2A2A204F626A656314
:1014E000743A20002A2A2A2047656E696520436FD6
:1014F0006E6E6563746564202F2053796E632120BE
:101500002A2A2A002056616C75653A200020496E0F
:101510006465783A20002A2A2A2047656E6965208A
:101520005265706F7274204576656E74202A2A2A7F
:10153000204F626A6563743A2000204C656E6774C0
:10154000683A20002A2A2A2047656E69652052657C
:10155000636569766564204D6167696320446F75D2
:10156000626C65204279746573202A2A2A20496EAC
:101570006465783A2000204C656E6774683A2000F4
:101580002A2A2A2047656E69652052656365697657
:101590006564204D61676963204279746573202A10
:1015A0002A2A20496E6465783A20002A2A2A204790
:1015B000656E6965204E414B205265636F7665729A
:1015C0007920212121202A2A2A002A2A2A20476537
:1015D0006E696520446973636F6E6E6563746564DC
:1015E0002066726F6D20446F4576656E747321209E
:1015F0002A2A2A002A2A2A2047656E696520546F04
:101600006F6B20746F6F206C6F6E6720746F207229
:10161000652D656E74657220446F4576656E7473D2
:1016200028292C207265647563652064656C617976
:101630007320696E20636F64652C2073656C662D62
:1016400070726F74656374696F6E20656E61626C31
:1016500065642E202A2A2A002A2A2A2047656E69D4
:101660006520446973636F6E6E656374656420669C
:10167000726F6D204765744E657874427974652188
:10168000202A2A2A002569206D696E2C20256920D0
:10169000736563000A0A005374616E6461726420AA
:1016A000446576696174696F6E3A20000A004D6581
:1016B000616E3A20000A002020207A3A20000A00B9
:1016C000793A2000783A20003F5370656369666973
:1016D0006564206E756D626572206F66206C65674B
:1016E0007320696E206D6F76656D656E74206E6F08
:1016F0007420706C61757361626C652E0A003F53D3
:101700007065636966696564205920706F736974D8
:10171000696F6E206F7574206F662072616E6765E9
:101720002E0A003F5370656369666965642058201E
:10173000706F736974696F6E206F7574206F6620A7
:1017400072616E67652E0A003F5370656369666952
:1017500065642073616D706C652073697A65206EB5
:101760006F7420706C61757361626C652E0A00463F
:10177000756C6C20737570706F72742061743A2090
:10178000687474703A2F2F33647072696E74626F6C
:101790006172642E636F6D2F666F72756D2E706847
:1017A000700A004D3438205A2D50726F62652052F5
:1017B00065706561746162696C69747920746573C0
:1017C000742E20202056657273696F6E20322E3081
:1017D000300A003F566572626F7365204C6576650E
:1017E0006C206E6F7420706C61757361626C652E15
:1017F0000A006F6B00426564204865617465640A85
:101800000020573A00457874727564657220486507
:10181000617465640A0020573A004572726F722045
:10182000577269746520454550524F4D0053657499
:1018300074696E67732053746F7265640A00204D7B
:10184000696E75746573203A0020204C61737420B2
:101850007072696E742074696D652D3E20486F75D5
:101860007273203A004C617374207072696E742038
:101870006475726174696F6E0A002C205468697215
:1018800064204944206E756D62657220002C2053DF
:1018900065636F6E64204944206E756D6265723AAF
:1018A000200020204669727374204944206E756DB3
:1018B0006265723A2000554920496E666F726D610B
:1018C00074696F6E2053657269616C204E756D622C
:1018D00065723A0A00206D2C204531207072696EC5
:1018E000742064697374616E63653A2000206B6DC7
:1018F0002C204530207072696E74206469737461A5
:101900006E63653A2000206B6D2C2059207072693F
:101910006E742064697374616E63653A2000206B95
:101920006D2C205831207072696E74206469737454
:10193000616E63653A200020432C0A2058302070E5
:1019400072696E742064697374616E63653A200015
:1019500020432C206D61782074656D7020423A2000
:101960000020432C206D61782074656D7020523A00
:1019700020002C206D61782074656D70204C3A2019
:1019800000682C207072696E74732066696E6973CA
:101990006865643A20002C207072696E74696E6705
:1019A0002074696D653A200020207072696E74732E
:1019B0003A200053544154533A0A0020432C2052F9
:1019C0005F5052494E543A200020432C20525F422F
:1019D00045443A200020432C20525F52454D4F563B
:1019E000453A20002020525F494E534552543A2038
:1019F0000054656D70202843293A0A0020432C20AA
:101A00004C5F5052494E543A200020432C204C5FEA
:101A10004245443A200020432C204C5F52454D4F14
:101A200056453A200020204C5F494E534552543AC7
:101A3000200054656D70202843293A0A002056285A
:101A400056657273696F6E292000205228426564C2
:101A5000207269676874207363726577292000209B
:101A6000204D353331204C28426564206C65667406
:101A7000207363726577292000426564204F666693
:101A80007365747320286D6D293A0A002050285A16
:101A90002070726F62652900205A200020592000B2
:101AA00020204D353330205820004F666673657412
:101AB0007320286D6D293A0A002044002049002037
:101AC0002D204D33303120524947485420500020BA
:101AD000440020490020204D333031204C454654ED
:101AE0002050005049442073657474696E67733ADE
:101AF0000A00205A0020590020204D32303620584C
:101B000000486F6D65206F666673657420286D6D83
:101B1000293A0A00204500205A002058002042009F
:101B200020540020204D323035205300416476612E
:101B30006E636564207661726961626C65733A20D8
:101B4000533D4D696E206665656472617465202839
:101B50006D6D2F73292C20543D4D696E2074726178
:101B600076656C20666565647261746520286D6DAC
:101B70002F73292C20423D6D696E696D756D207340
:101B800065676D656E742074696D6520286D7329B5
:101B90002C20583D6D6178696D756D205859206A0B
:101BA00065726B20286D6D2F73292C20205A3D6D96
:101BB0006178696D756D205A206A65726B20286D99
:101BC0006D2F73292C2020453D6D6178696D756DF1
:101BD0002045206A65726B20286D6D2F73290A00DD
:101BE00020540020204D323034205300416363657F
:101BF0006C65726174696F6E3A20533D6163636511
:101C00006C65726174696F6E2C20543D72657472DC
:101C100061637420616363656C65726174696F6E82
:101C20000A00204500205A0020590020204D323063
:101C3000312058004D6178696D756D204163636591
:101C40006C65726174696F6E20286D6D2F73322917
:101C50003A0A00204500205A0020590020204D3229
:101C600030332058004D6178696D756D206665656B
:101C700064726174657320286D6D2F73293A0A00B0
:101C8000204500205A0020590020204D393220588C
:101C90000053746570732070657220756E69743AB4
:101CA0000A000A0020616E7469686F726172690AC5
:101CB0003A200020686F726172690A20002F380094
:101CC000766F6C746573200020566F6C746573209A
:101CD000636172676F6C20333A200020616E746913
:101CE000686F726172690A3A200020686F726172CF
:101CF000690A20002F3800766F6C7465732000200D
:101D0000566F6C74657320636172676F6C20323A32
:101D100020000A0020647A333A200020647A323AA4
:101D200020005431005430005430005430000A0078
:101D300056756974656E73333A2020004170726F76
:101D400078333A202000566F6C746573333A202044
:101D5000000A0056756974656E73323A202000419E
:101D600070726F78323A202000566F6C746573324F
:101D70003A20200056616C6F7220645A333A20205A
:101D80000056616C6F7220645A323A2020004E6512
:101D900077206F66667365742076657273696F6EFF
:101DA0003A20007A335F313A20007A325F313A20AC
:101DB000005A7363726F6C6C5F313A20007A335F44
:101DC000303A20007A325F303A20005A7363726FE3
:101DD0006C6C5F303A2000706C616E654E6F726D96
:101DE000616C5F312E7A3A2000706C616E654E6FC7
:101DF000726D616C5F312E793A2000706C616E6596
:101E00004E6F726D616C5F312E783A2000706C619C
:101E10006E654E6F726D616C5F302E7A3A20007085
:101E20006C616E654E6F726D616C5F302E793A2019
:101E300000706C616E654E6F726D616C5F302E78F4
:101E40003A20005A76616C7565206166746572206F
:101E5000686F6D653A00486F6D6520582F59206294
:101E600065666F7265205A0A0000000000008093CA
:101E700043000000000000A0400000A0400000005F
:101E80004020004D6F766520746F3A2000CDAC0382
:101E9000440080934300005243FF01FF20636F6CB6
:101EA0006420657874727573696F6E2070726576E0
:101EB000656E7465640A006563686F3A0024F4D443
:101EC0003050C38E20C2A24017828B7011127A91BB
:101ED0000D816CD90AA861E108C7586607615143B2
:101EE000061E4B5D05C145A7041A411104093D9822
:101EF00003713931034036DB0265339102D430542B
:101F000002802E1D02632CEE01752AC501B028A0A7
:101F100001102781018F2564012B244B01E022341D
:101F200001AC211F018D200D01801FFC00841EEDDE
:101F300000971DDF00B81CD200E61BC600201BBCAA
:101F400000641AB200B219A8000A19A0006A189910
:101F500000D117910040178B00B516840031167E12
:101F600000B31579003A157300C7146F0058146A4E
:101F700000EE1366008813630025135E00C7125B32
:101F8000006C12570015125400C111510070114F0E
:101F90000021114B00D61049008D10470046104417
:101FA0000002104200C00F4000800F3E00420F3C74
:101FB00000060F3B00CB0E3800930E37005C0E3549
:101FC00000270E3400F30D3200C10D3100900D30AA
:101FD00000600D2E00320D2D00050D2C00D90C2BAC
:101FE00000AE0C2900850C29005C0C2700350C275D
:101FF000000E0C2600E80B2400C40B2400A00B23C9
:10200000007D0B23005A0B2100390B2100180B20F7
:1020100000F80A1F00D90A1E00BB0A1E009D0A1DF7
:1020200000800A1D00630A1C00470A1B002C0A1BC3
:1020300000110A1A00F7091A00DD091900C409196C
:1020400000AB091900920917007B091800630917F2
:10205000004C09160036091600200916000A091559
:1020600000F5081500E0081400CC081400B80814A6
:1020700000A4081400900813007D0812006B0813D8
:1020800000580812004608120034081100230811F5
:10209000001208110001081100F0071000E00710FD
:1020A00000D0071000C0071000B0070F00A10710F4
:1020B0000091070E0083070F0074070F0065070EDD
:1020C0000057070E0049070E003B070D002E070EB4
:1020D0000020070D0013070D0006070D00F9060C80
:1020E00000ED060D00E0060C00D4060C00C8060C3E
:1020F00000BC060C00B0060C00A4060B0099060CF0
:10210000008D060B0082060B0077060B006C060B99
:102110000061060A0057060B004C060A0042060A38
:102120000038060A002E060A0024060A001A060ACB
:10213000001006090007060A00FD050900F405095C
:1021400000EB050900E2050900D9050900D00509E1
:1021500000C7050900BE050900B5050800AD050862
:1021600000A50509009C050800940508008C0508D9
:1021700000840508007C050800740508006C05074C
:1021800000650508005D050700560508004E0507B7
:10219000004705070040050800380507003105071E
:1021A000002A050700230507001C05060016050781
:1021B000000F0507000805060002050700FB0406DE
:1021C00000F5040700EE040600E8040600E2040738
:1021D00000DB040600D5040600CF040600C904068F
:1021E00000C3040600BD040600B7040600B10405E0
:1021F00000AC040600A6040600A00405009B04062B
:102200000095040500900406008A04050085040575
:1022100000800406007A04050075040500700405BA
:10222000006B04050066040500610405005C0405FC
:102230000057040500520405004D0405004804053C
:1022400000430405003E0404003A0405003504057B
:1022500000300404002C04050027040400230405B6
:10226000001E0404001A04040016040500110404EE
:10227000000D040400090405000404040000040423
:1022800000FC030400F8030400F4030400F003045A
:1022900000EC030400E8030400E4030400E003048A
:1022A00000DC030400D8030400D4030400D00304BA
:1022B00000CC030400C8030300C503030024F40496
:1022C000D9201BC40C5C0E9804C4095F0265077119
:1022D00001F405F900FB04B30048048700C1036959
:1022E000005803550003034500BE023A0084023142
:1022F0000053022A002902250004022000E4011CE8
:1023000000C8011900AF01170098011400840113DF
:1023100000710110006101100051010E0043010D18
:102320000036010B002B010B0020010B00150109E9
:10233000000C01090003010800FB000800F300087D
:1023400000EB000700E4000600DE000600D80006EF
:1023500000D2000600CC000500C7000500C2000541
:1023600000BD000400B9000400B5000400B1000481
:1023700000AD000400A9000400A5000300A20003B2
:10238000009F0004009B00030098000300950002DA
:102390000093000300900003008D0002008B0003F7
:1023A0000088000200860002008400030081000211
:1023B000007F0002007D0002007B00020079000225
:1023C0000077000100760002007400020072000134
:1023D00000710002006F0002006D0001006C00023D
:1023E000006A000100690002006700010066000148
:1023F000006500010064000200620001006100014C
:1024000000600001005F0002005D0001005C00014F
:10241000005B0001005A0001005900010058000152
:102420000057000100560001005500010054000152
:102430000053000000530001005200010051000150
:1024400000500001004F0001004E0000004E00014E
:10245000004D0001004C0001004B0000004B00014A
:10246000004A000100490001004800000048000146
:102470000047000100460000004600010045000042
:10248000004500010044000100430000004300013A
:102490000042000000420001004100000041000134
:1024A00000400001003F0000003F0001003E00002E
:1024B000003E0001003D0000003D0001003C000026
:1024C000003C0000003C0001003B0000003B00011C
:1024D000003A0000003A0001003900000039000114
:1024E000003800000038000000380001003700000C
:1024F0000037000100360000003600000036000101
:1025000000350000003500000035000100340000F7
:1025100000340000003400010033000000330000EC
:1025200000330001003200000032000000320001E0
:1025300000310000003100000031000100300000D7
:102540000030000000300001002F0000002F0000CC
:10255000002F0000002F0001002E0000002E0000C0
:10256000002E0001002D0000002D0000002D0000B5
:10257000002D0001002C0000002C0000002C0000A9
:10258000002C0001002B0000002B0000002B00009D
:10259000002B0001002A0000002A0000002A000091
:1025A000002A000100290000002900000029000085
:1025B0000029000000290001002800000028000078
:1025C000002800000028000000280001002700006B
:1025D000002700000027000000270000002700015E
:1025E0000026000000260000002600000026000053
:1025F0000026000100250000002500000025000045
:102600000025000000250000002500010024000036
:102610000024000000240000002400000024000129
:10262000002300000023000000230000002300001E
:10263000002300000023000000230001002200000E
:102640000022000000220000002200000022000002
:1026500000220001002100000021000000210000F4
:1026600000210000002100000021000000210001E5
:1026700000200000002000000020000000200000DA
:1026800000200000002000000020000000200001C9
:10269000001F0000001F0000001F0000001F0000BE
:1026A000001F0000001F0000001F0001001E0000AE
:1026B000001E0000001E0000001E000000455252D7
:1026C0004F52283838293A2054656D70657261740C
:1026D000757265206E6F7420726561636865642031
:1026E0006279204865617465725F49443A202564C7
:1026F000004552524F52283838293A2054656D709F
:1027000065726174757265206E6F742072656163A5
:10271000686564206279204865617465725F494428
:102720003A20256400487973746572657369732073
:1027300074656D70657261747572650A00546865C0
:10274000726D616C2072756E617761792070726F45
:1027500074656374696F6E20627920486561746581
:10276000725F49443A0A0053415645442050524949
:102770004E540A007A70726F62653A20005344200A
:1027800063617264206F6B0A006F70656E526F6FC9
:1027900074206661696C65640A00766F6C756D659E
:1027A0002E696E6974206661696C65640A00457201
:1027B000726F723A00534420696E697420666169D1
:1027C0006C0A006563686F3A004D3234004D323355
:1027D000202573006175746F25692E670050494488
:1027E000204175746F74756E652066696E697368D3
:1027F0006564210A00504944204175746F74756EF8
:1028000065206661696C6564212074696D656F750A
:10281000740A0020403A006F6B20543A006F6B201E
:10282000423A00504944204175746F74756E6520BA
:102830006661696C6564212054656D7065726174B0
:1028400075726520746F6F20686967680A00204B95
:10285000643A2000204B693A2000204B703A200057
:1028600020436C617373696320504944200A00203F
:1028700054753A2000204B753A2000206D61783A5B
:102880002000206D696E3A200020643A200020620A
:102890006961733A20003B20472D436F64652067D0
:1028A000656E6572617465642062792053696D702C
:1028B0006C69667933442852292056657273696FB2
:1028C0006E202564003B5072696E742074696D65DA
:1028D0003A20256420257320256420257320256453
:1028E000202573003B54494D453A256C64003B203C
:1028F00020204275696C642074696D653A202564F6
:10290000202573202564202573003B202020506C57
:102910006173746963207765696768743A20256418
:102920002E256467003B46696C616D656E74207589
:102930007365643A2025642E25646D2025642E2558
:102940006467003B46696C616D656E7420757365E4
:10295000643A20256C642E256C646D00496E737496
:10296000616C6C202564202573206F6E207468656F
:1029700020257320686F74656E640043616C637515
:102980006C75733A20200043616C63756C75733A03
:1029900020200043616C63756C75733A202000251C
:1029A0007320657874727564657200496E73746122
:1029B0006C6C202564202573206F6E207468652060
:1029C000257320686F74656E640025752E2530327E
:1029D000752073746570732F75005369676D617826
:1029E000005369676D61205231362F52313700250F
:1029F000642E253032642073746570732F75005314
:102A000069676D6178005369676D61205231362FB7
:102A100052313700253033642E253033642530336E
:102A2000642E253034640050757267652046696CE9
:102A3000616D656E740A0053757266696E67203148
:102A40000A0053757266696E6720300A00220A0018
:102A5000656E717565696E67202200220A00656ED9
:102A6000717565696E67202200202F0020400020CC
:102A7000403A00204500205A00205900483D5800A7
:102A80004649524D574152455F4E414D453A4D6181
:102A9000726C696E2042434E3344205369676D6106
:102AA000783B204649524D574152455F5645525357
:102AB000494F4E3A30322D312E332E3052433B2087
:102AC0004649524D574152455F55524C3A687474CD
:102AD00070733A2F2F6769746875622E636F6D2F5C
:102AE00042434E33442F42434E33445369676D6132
:102AF000782D4669726D776172653B2050524F5454
:102B00004F434F4C5F56455253494F4E3A312E304A
:102B10003B204D414348494E455F545950453A4248
:102B2000434E3344205369676D61783B20455854C8
:102B300052554445525F434F554E543A323B20550F
:102B40005549443A00486F74656E64206F66667339
:102B50006574733A00504944204175746F74756E02
:102B6000652066696E6973686564212050757420FC
:102B7000746865206C617374204B702C204B692045
:102B8000616E64204B6420636F6E7374616E747346
:102B90002066726F6D2061626F766520696E746F5A
:102BA00020436F6E66696775726174696F6E2E6817
:102BB0000A00504944204175746F74756E65206633
:102BC00061696C6564212074696D656F75740A00B4
:102BD00020403A006F6B20543A006F6B20423A005D
:102BE000504944204175746F74756E652066616943
:102BF0006C6564212054656D7065726174757265D1
:102C000020746F6F20686967680A00204B643A205F
:102C100000204B693A2000204B703A200020436C82
:102C2000617373696320504944200A002054753A47
:102C30002000204B753A2000206D61783A2000205A
:102C40006D696E3A200020643A2000206269617349
:102C50003A200045787472756465722072656C65FF
:102C600061736564206163746976653A20005A2057
:102C70005349474D4120486F6D65640A004578749B
:102C80007275646572206163746976653A20002A02
:102C90002A2A2047656E696520456E61626C652051
:102CA0004174746163684576656E7448616E646CE6
:102CB000657220212121202A2A2A0043616E6E6F2D
:102CC0007420656E746572207375626469723A204F
:102CD0000057726974696E6720746F2066696C654D
:102CE0003A20002E0A006F70656E206661696C657F
:102CF000642C2046696C653A20002E0A006F7065CE
:102D00006E206661696C65642C2046696C653A20AA
:102D10000046696C652073656C65637465640A00C0
:102D20002053697A653A200046696C65206F7065AA
:102D30006E65643A20002E0A006F70656E20666131
:102D4000696C65642C2046696C653A20004E6F778B
:102D50002066726573682066696C653A20004E6F64
:102D60007720646F696E672066696C653A2000227F
:102D700020706F73002220706172656E743A2200B9
:102D8000535542524F5554494E452043414C4C20D7
:102D90007461726765743A2200747279696E672093
:102DA000746F2063616C6C207375622D67636F6450
:102DB000652066696C6573207769746820746F6F2D
:102DC000206D616E79206C6576656C732E204D41A7
:102DD00058206C6576656C2069733A0043617264B3
:102DE000204E616D653A20002F00534420707269B7
:102DF0006E74696E67206279746520004E6F74206E
:102E00005344207072696E74696E670A0053746F60
:102E10007265642073657474696E6773207265747B
:102E20007269657665640A0048617264636F6465FF
:102E3000642044656661756C742053657474696EB2
:102E40006773204C6F616465640A00486172646353
:102E50006F6465642043616C696220616E64205018
:102E600049442044656661756C74205365747469C7
:102E70006E6773204C6F616465640A004D313037B2
:102E800000473932204530205A3020522564004E08
:102E90006577206C6179657220646574656374651B
:102EA000640A003B206C61796572003B4C415945D6
:102EB0005200256920686F757273202569206D693D
:102EC0006E7574657300446F6E65207072696E7400
:102ED000696E672066696C650A004D333300506186
:102EE000757365207061726B696E670A00473639C9
:102EF000005072696E7465722073746F70706564CF
:102F00002064756520746F206572726F72732E2055
:102F100046697820746865206572726F7220616EF0
:102F20006420757365204D39393920746F207265BE
:102F300073746172742E202854656D7065726174AB
:102F40007572652069732072657365742E205365F0
:102F5000742069742061667465722072657374618F
:102F60007274696E67290A006F6B0A004E6F204CFD
:102F7000696E65204E756D62657220776974682090
:102F8000636865636B73756D2C204C617374204CA2
:102F9000696E653A20004E6F20436865636B7375F8
:102FA0006D2077697468206C696E65206E756D623E
:102FB00065722C204C617374204C696E653A200058
:102FC000636865636B73756D206D69736D617463A0
:102FD000682C204C617374204C696E653A20004C5B
:102FE000696E65204E756D626572206973206E6F23
:102FF00074204C617374204C696E65204E756D624F
:1030000065722B312C204C617374204C696E653ACB
:1030100020004D31313000526573656E643A2000F6
:103020006F6B0A004475616C204D6F6465204F4ED4
:103030000A005602540211241FBECFEFD1E2DEBFB8
:10304000CDBF00E00CBF17E0A0E0B2E0EEEDF5E987
:1030500003E00BBF02C007900D92A03EB107D9F765
:103060002DE1A0EEB7E001C01D92AB39B207E1F748
:1030700018E1CAE1D8E100E006C021970109802FDC
:10308000FE010F94D4C7C931D10780E00807A9F722
:103090000F943CA30D94DECA0C9400002F923F9233
:1030A0004F925F926F927F928F929F92AF92BF9258
:1030B000CF92DF92EF92FF920F931F93CF93DF9304
:1030C000CDB7DEB7CF52D1400FB6F894DEBF0FBEFA
:1030D000CDBF2DB73EB7C25DDE4F39832883CE52B8
:1030E000D14011E0109371088091060881110CC045
:1030F0000E941BB760930208709303088093040832
:1031000090930508109306088091FA0781110DC06D
:103110000E941BB76093F6077093F7078093F80738
:103120009093F90781E08093FA078091FE1840910F
:10313000F4025091F5026091F6027091F70281114C
:1031400006C09091FF18992311F40C9459284A391C
:1031500051056105710511F40C9457260CF007C157
:103160004F3451056105710511F40C941D220CF0CA
:1031700082C0443251056105710511F40C94882315
:10318000A4F5413151056105710511F40C94A62592
:10319000A4F4423051056105710509F4E2C64031DD
:1031A00051056105710509F46EC241305105610593
:1031B000710511F00C94D95DCBC243315105610505
:1031C000710509F4F5C40CF421C5403251056105BF
:1031D000710511F40C9448264132510561057105C1
:1031E00011F40C9436260C94D95D4D3351056105CC
:1031F000710509F461C4FCF44233510561057105A0
:1032000009F4AFC644F4413351056105710509F471
:10321000AAC40C94D95D443351056105710511F4BC
:103220000C94A225453351056105710511F40C94E8
:10323000D3260C94D95D443451056105710511F410
:103240000C94012444F4413451056105710509F4DD
:10325000BBC70C94D95D463451056105710511F465
:103260000C944B214E3451056105710511F40C94F9
:10327000B2210C94D95D4E3851056105710511F4E8
:103280000C945322C4F54A3551056105710509F4C2
:103290008EC6A4F4473551056105710509F498C43B
:1032A000483551056105710509F43EC443355105A2
:1032B0006105710511F00C94D95D66C24B3751055B
:1032C0006105710509F473C644F44637510561057B
:1032D000710509F4B0C40C94D95D483851056105F5
:1032E000710509F4E6C1493851056105710509F414
:1032F000FCC10C94D95D443951056105710511F487
:103300000C94BE22D4F4403951056105710511F4C5
:103310000C94A92214F40C947E22423951056105C3
:10332000710511F40C94682243395105610571054A
:1033300011F40C9493220C94D95D46395105610522
:10334000710511F40C94E92214F40C94FE2247390F
:1033500051056105710511F40C94B92648395105E0
:103360006105710511F40C94A8260C94D95D453EB5
:1033700051056105710509F4EAC40CF0BBC0473A78
:1033800051056105710509F48DC50CF05CC0413A29
:1033900051056105710511F40C94D4229CF44C394B
:1033A00051056105710511F40C94692614F40C940F
:1033B00060264D3951056105710511F40C9489267B
:1033C0000C94D95D443A51056105710509F4A3C512
:1033D000D4F4433A51056105710511F00C94D95D9F
:1033E0008091CD089091CE08A091CF08B091D008DF
:1033F00080648093CD089093CE08A093CF08B093BB
:10340000D0080C94D95D453A51056105710509F460
:103410005CC5463A51056105710511F00C94D95D02
:103420008091CD089091CE08A091CF08B091D0089E
:1034300080628093CD089093CE08A093CF08B0937C
:10344000D0080C94D95D433D51056105710511F417
:103450000C941528B4F4493A51056105710509F435
:1034600047C50CF46BC54A3A51056105710509F46D
:10347000F3C44E3B51056105710509F467C30C9413
:10348000D95D423E51056105710509F4ACC494F45F
:10349000413E51056105710511F00C94D95D809193
:1034A000220A9091230A80689093230A8093220A2B
:1034B0000C94D95D433E51056105710509F45AC468
:1034C000443E51056105710511F00C94D95D809160
:1034D000CD089091CE08A091CF08B091D00881601E
:1034E0008093CD089093CE08A093CF08B093D008D6
:1034F0000C94D95D483F51056105710509F499C4E3
:103500000CF05CC0403F51056105710509F4B2C182
:103510006CF54D3E51056105710509F4D5C0C4F443
:103520004A3E51056105710511F00C94D95D40E0EA
:1035300050E065E38EE10E9452FF8091220A909153
:10354000230A92609093230A8093220A0C94D95DF7
:103550004E3E51056105710509F4F2C04F3E51051B
:103560006105710509F43EC10C94D95D423F5105D6
:103570006105710509F408C10CF4EAC0463F510524
:103580006105710509F442C4473F510561057105A4
:1035900011F00C94D95D8091CD089091CE08A09146
:1035A000CF08B091D00890618093CD089093CE0859
:1035B000A093CF08B093D0080C94D95D483631E081
:1035C00053076105710511F40C94CA26B4F54A3FFE
:1035D00051056105710509F4E0C30CF450C44B3F7B
:1035E00051056105710509F4EBC34536514061058C
:1035F000710511F00C94D95D40E050E06AE28AE078
:103600000E9452FF40E050E064E581E20E9452FFD8
:1036100081E08093F51C1092B4116FE178E086E2AE
:103620000F9457008091220A9091230A98609093FA
:10363000230A8093220A0C94D95D4A36A1E05A07E6
:103640006105710559F10CF426C74E36E1E05E07BD
:103650006105710519F1403751406105710511F09F
:103660000C94D95D40E050E065E38EE10E9452FF8A
:103670008091220A9091230A92609093230A80936A
:10368000220A0C94D95D8091220A9091230A8064C9
:103690009093230A8093220A0C94D95D8091220A88
:1036A0009091230A92609093230A8093220A0C94AB
:1036B000D95D8091220A9091230A80649093230A15
:1036C0008093220A0C94D95D8091220A9091230A5A
:1036D00091609093230A8093220A41E050E069E8C8
:1036E00081E20E9452FF0C94D95D80910C028334D8
:1036F00011F00C94D95D82E480930C0240E050E01C
:1037000067E581E20E9452FF40E050E066E781E217
:103710000E9452FF40E050E06DEE81E20E9452FFB5
:1037200040E050E068E881E20E9452FF40E050E053
:1037300069E881E20E9452FF1092B4110C94D95DA5
:1037400040E050E064E58AE00E9452FF0C94D95DAD
:103750001092F51C80E00F94A84D8091220A909160
:10376000230A82609093230A8093220A81E0809347
:103770003D0940E050E068E08AE00E9452FF81E4A9
:1037800080933E090C94D95D8091270A882311F417
:103790000C94D95D40E050E062E58AE00E9452FF5F
:1037A0008091240A8A3019F080E494E002C08BE30F
:1037B00094E09F938F938DE798E09F938F938E0172
:1037C0000F5F1F4F1F930F930F9486BCB80180E0CB
:1037D0000F9457000F900F900F900F900F900F9035
:1037E0000C94D95D89E4809314028091C00C8130DF
:1037F00049F441E050E06CE481E20E9452FF40E075
:1038000050E008C040E050E06CE481E20E9452FFCA
:1038100041E050E06BE481E20E9452FF41E050E061
:103820006DE481E20E9452FF40E050E063E581E2F6
:103830000E9452FF41E050E061E481E20E9452FFA9
:1038400041E050E066E481E20E9452FF41E050E036
:103850006EE481E20E9452FF41E050E06FE481E2B9
:103860000E9452FF40E050E064E18AE00E9452FF73
:103870000C94D95D80911B0890911C0890931E12A6
:1038800080931D1280911D0890911E089093201224
:1038900080931F1282E480930C0282E580931402CD
:1038A00081E08093B4111092F51C9091240A9A3013
:1038B00009F480E08093C00C082F10E0000F111F66
:1038C000F801E35EFD4E208131813093F5072093AE
:1038D000F40781111EC080911F0990912009609109
:1038E000971C7091981C681779072CF4BC01990FEC
:1038F000880B990B04C0072E000C880B990B0F94B2
:10390000DCBC035E1D4E0F94FCC4D8016D937C9308
:103910001DC080912309909124096091951C70919C
:10392000961C681779072CF4BC01990F880B990B2A
:1039300004C0072E000C880B990B0F94DCBC035EAF
:103940001D4E0F94FCC4F8017183608381E4809361
:103950003E0940E050E068E08AE00E9452FF40E00B
:1039600050E064E581E20E9452FF80E090E0A3E431
:10397000B3E48093401290934112A0934212B0930B
:1039800043128090AC0C9090AD0CA090AE0CB09017
:10399000AF0C20913C1230913D1240913E1250915B
:1039A0003F12609138127091391280913A129091C1
:1039B0003B12EBE26E2EE2E17E2E7F926F92F4E4F8
:1039C000CF2EF2E1DF2EE12CF12C03E413E40F946F
:1039D000932C0F946B4280E090E0A0E2B1E48093DE
:1039E0003C1290933D12A0933E12B0933F128090F0
:1039F000A80C9090A90CA090AA0CB090AB0CE090F1
:103A00004012F090411200914212109143126091C5
:103A100038127091391280913A1290913B127F9234
:103A20006F9220E030E040E251E40F94932C0F9429
:103A30006B420F900F900F900F9080913E098E3443
:103A400011F40C94475F10923E090E94F68040E00A
:103A500050E06FE189E00E9452FF40E050E068E2F0
:103A60008AE00E9452FF0091C00C10E0F801EE0FB6
:103A7000FF1FEE0FFF1FE359F34E608171818281BA
:103A800093810F94FCC47093680860936708000FDB
:103A9000111FF801E35EFD4E8081918190936608CD
:103AA0008093650888E480933E090E94F68081E057
:103AB000809369080C94D95D80910C0240E050E03D
:103AC0008134C9F469E08AE00E9452FF81E080936A
:103AD000F51C6FE178E082E00F9457008091220A94
:103AE0009091230A98609093230A8093220A10925F
:103AF000B4110C94D95D6AE28AE00E9452FF81E021
:103B00008093F51C6FE178E086E20F945700809176
:103B1000220A9091230A98609093230A8093220AA4
:103B20001092B4110C94D95D80913B0C81110C94CE
:103B3000D95D8091FF1881110C94D95D40E050E06F
:103B400069E38AE00E9452FF0C94D95D80913B0C9E
:103B500081110C94D95D40E050E061E08AE00E9460
:103B600052FF0C94D95D80913B0C81110C94D95D6E
:103B700010910C02113411F00C94D95D1092F51CC7
:103B80001092FE1881E08093FF1840E050E068E05A
:103B90008AE00E9452FF10933E098091220A909180
:103BA000230A94609093230A8093220A0C94D95D8F
:103BB00080910C02813411F00C94D95D40E050E00A
:103BC00061E08AE00E9452FF1092F51C0C94D95DCE
:103BD00080910C02823491F3833411F00C94D95DFE
:103BE00040E050E066E18AE00E9452FF41E050E090
:103BF00064E581E20E9452FF82E58093140281E035
:103C00008093B4111092F51C0C94D95D882311F4A3
:103C10000C94D95D80910C02813411F00C94D95D23
:103C20008091220A9091230A88609093230A8093BE
:103C3000220A0C94D95D8091FF18882311F40C940A
:103C4000D95D80910C02823459F48091220A9091BE
:103C5000230A80619093230A8093220A0C94D95DF1
:103C6000833411F00C94D95D11E010936A0840E0A0
:103C700050E068E981E20E9452FF40E050E067E9CD
:103C800081E20E9452FF40E050E06CE981E20E9434
:103C900052FF40E050E06DE981E20E9452FF41E0B6
:103CA00050E06AE481E20E9452FF40E050E06CE2A2
:103CB0008AE00E9452FF1093B4118FEF9FEF909310
:103CC000B6028093B502ECE6F8E084918F01882378
:103CD00051F0082E000C990B0F94234B0F5F1F4FD0
:103CE000F8018491F4CF40E050E06AE981E20E945B
:103CF00052FF40E050E06BE981E20E9452FF609188
:103D00006D1C70916E1C80916F1C9091701C0F94B3
:103D1000FCC4AB0166E289E00E9452FF6091711C15
:103D20007091721C8091731C9091741C0F94FCC450
:103D3000AB0167E289E00E9452FF40E050E068E298
:103D400089E00E9452FF1092F51C0C94D95D80917D
:103D5000CD089091CE08A091CF08B091D008846092
:103D60008093CD089093CE08A093CF08B093D0084D
:103D70000C94D95D8091CD089091CE08A091CF0888
:103D8000B091D00888608093CD089093CE08A0931E
:103D9000CF08B093D0080C94D95D8091CD08909154
:103DA000CE08A091CF08B091D008A1608093CD0833
:103DB0009093CE08A093CF08B093D0080C94D95D0F
:103DC0008091CD089091CE08A091CF08B091D008F5
:103DD000A2608093CD089093CE08A093CF08B093B3
:103DE000D0080C94D95D8091CD089091CE08A09117
:103DF000CF08B091D00882608093CD089093CE0810
:103E0000A093CF08B093D0080C94D95D8091CD08D1
:103E10009091CE08A091CF08B091D0089062809385
:103E2000CD089093CE08A093CF08B093D0080C94FF
:103E3000D95D8091CD089091CE08A091CF08B09126
:103E4000D00890648093CD089093CE08A093CF08BB
:103E5000B093D0080C94D95D8091CD089091CE0894
:103E6000A091CF08B091D00880618093CD08909345
:103E7000CE08A093CF08B093D0080C94D95D809160
:103E8000CD089091CE08A091CF08B091D00890684D
:103E90008093CD089093CE08A093CF08B093D0081C
:103EA0000C94D95D8091CD089091CE08A091CF0857
:103EB000B091D00891608093CD089093CE08A093E4
:103EC000CF08B093D0080C94D95D8091CD08909123
:103ED000CE08A091CF08B091D00880688093CD081B
:103EE0009093CE08A093CF08B093D0080C94D95DDE
:103EF0008091CD089091CE08A091CF08B091D008C4
:103F000092608093CD089093CE08A093CF08B09391
:103F1000D0080C94D95D8091CD089091CE08A091E5
:103F2000CF08B091D00894608093CD089093CE08CC
:103F3000A093CF08B093D0080C94D95D8091CD08A0
:103F40009091CE08A091CF08B091D008986080934E
:103F5000CD089093CE08A093CF08B093D0080C94CE
:103F6000D95D423051056105710511F489E406C03F
:103F7000423351056105710519F482E580931402FD
:103F800040E050E06CE481E20E9452FF40E050E0EB
:103F90006BE481E20E9452FF40E050E064E18AE07D
:103FA0000E9452FF8FEF8093C00C0C94D95D4A356C
:103FB00051056105710519F41092C00C03C081E030
:103FC0008093C00C8091C00C082F10E0000F111FCF
:103FD000F801E35EFD4E208131813093F507209397
:103FE000F40781111EC080911F09909120096091F2
:103FF000971C7091981C681779072CF4BC01990FD5
:10400000880B990B04C0072E000C880B990B0F949A
:10401000DCBC035E1D4E0F94FCC4D8016D937C93F1
:104020001DC080912309909124096091951C709185
:10403000961C681779072CF4BC01990F880B990B13
:1040400004C0072E000C880B990B0F94DCBC035E98
:104050001D4E0F94FCC4F8017183608381E480934A
:104060003E0940E050E068E08AE00E9452FF40E0F4
:1040700050E064E581E20E9452FF80E090E0A3E41A
:10408000B3E48093401290934112A0934212B093F4
:1040900043128090AC0C9090AD0CA090AE0CB09000
:1040A000AF0C20913C1230913D1240913E12509144
:1040B0003F12609138127091391280913A129091AA
:1040C0003B12EBE26E2EE2E17E2E7F926F92F4E4E1
:1040D000CF2EF2E1DF2EE12CF12C03E413E40F9458
:1040E000932C0F946B4280E090E0A0E2B1E48093C7
:1040F0003C1290933D12A0933E12B0933F128090D9
:10410000A80C9090A90CA090AA0CB090AB0CE090D9
:104110004012F090411200914212109143126091AE
:1041200038127091391280913A1290913B127F921D
:104130006F9220E030E040E251E40F94932C0F9412
:104140006B420F900F900F900F9080913E098E342C
:1041500011F40C94475F10923E090E94F68040E0F3
:1041600050E06FE189E00E9452FF40E050E068E2D9
:104170008AE00E9452FF0091C00C10E0F801EE0F9F
:10418000FF1FEE0FFF1FE359F34E608171818281A3
:1041900093810F94FCC47093680860936708000FC4
:1041A000111FF801E35EFD4E8081918190936608B6
:1041B0008093650888E480933E090E94F68081E040
:1041C000809369080C94D95D8091C00C813081F591
:1041D00087ED90E090931108809310089093260942
:1041E000809325098AEA90E090932409809323091B
:1041F00081E490E090930F0880930E080F94F918D3
:1042000080912509909126099093201280931F1286
:104210000F94166340E050E06DE481E20E9452FF8B
:1042200040E050E063E581E20E9452FF0C94D95DCA
:1042300081110C94D95D87ED90E0909315088093DF
:10424000140890932209809321098AEA90E09093C0
:10425000200980931F0981E490E0909313088093D4
:1042600012080F94F91880912109909122099093D6
:104270001E1280931D120F94166340E050E06DE40F
:1042800081E20E9452FF40E050E063E581E20E943B
:1042900052FF0C94D95D8091C00C813081F584E08F
:1042A00091E09093110880931008909326098093D1
:1042B000250986EE90E090932409809323098AE5EE
:1042C00090E090930F0880930E080F94F918809156
:1042D0002509909126099093201280931F120F9424
:1042E000166340E050E06DE481E20E9452FF40E03E
:1042F00050E063E581E20E9452FF0C94D95D811188
:104300000C94D95D84E091E0909315088093140893
:10431000909322098093210986EE90E090932009E2
:1043200080931F098AE590E0909313088093120808
:104330000F94F918809121099091220990931E12EF
:1043400080931D120F94166340E050E06DE481E20B
:104350000E9452FF40E050E063E581E20E9452FF7C
:104360000C94D95D8091C00C813091F58CED90E07A
:10437000909311088093100886EE90E090932609A0
:104380008093250980EA90E0909324098093230983
:104390008CE390E090930F0880930E080F94F91827
:1043A00080912509909126099093201280931F12E5
:1043B0000F94166340E050E06DE481E20E9452FFEA
:1043C00040E050E063E581E20E9452FF0C94D95D29
:1043D00081110C94D95D8CED90E090931508809339
:1043E000140886EE90E0909322098093210980EAD8
:1043F00090E09093200980931F098CE390E09093C4
:104400001308809312080F94F91880912109909154
:10441000220990931E1280931D120F94166340E0A0
:1044200050E06DE481E20E9452FF40E050E063E51D
:1044300081E20E9452FF0C94D95D8091C00C8230C1
:1044400010F00C94D95D40E050E064E38AE00E94F3
:1044500052FF40910A0250910B0262E289E00E94F1
:1044600052FF409108025091090263E289E00E94E4
:1044700052FF409106025091070264E289E00E94D7
:1044800052FF409104025091050265E289E00E94CA
:1044900052FF0C94D95D40E050E064E18AE00E9454
:1044A00052FF0C94D95D40910A0250910B021416F0
:1044B000150614F00C94D95D4A50510950930B0223
:1044C00040930A0262E289E00E9452FF0C94D95D97
:1044D00040910A0250910B024633F1E05F0714F05D
:1044E0000C94D95D465F5F4F50930B0240930A02D4
:1044F00062E289E00E9452FF0C94D95D409108026B
:10450000509109021416150614F00C94D95D4A5006
:104510005109509309024093080263E289E00E9426
:1045200052FF0C94D95D4091080250910902463324
:1045300021E0520714F00C94D95D465F5F4F509311
:1045400009024093080263E289E00E9452FF0C9442
:10455000D95D40910602509107021416150614F019
:104560000C94D95D4A5051095093070240930602BA
:1045700064E289E00E9452FF0C94D95D40910602EA
:1045800050910702463331E0530714F00C94D95D83
:10459000465F5F4F509307024093060264E289E052
:1045A0000E9452FF0C94D95D409104025091050283
:1045B0001416150614F00C94D95D4A505109509305
:1045C00005024093040265E289E00E9452FF0C94C8
:1045D000D95D40910402509105024936510514F00D
:1045E0000C94D95D465F5F4F5093050240930402DF
:1045F00065E289E00E9452FF0C94D95DE091C00C05
:1046000040910A0250910B02209108023091090258
:104610006091060270910702809104029091050258
:10462000E11130C06C33A1E07A0714F06BE371E064
:1046300070931508609314084C33B1E05B0714F0D5
:104640004BE351E050932209409321092C33E1E0E0
:104650003E0714F02BE331E03093200920931F092B
:104660008F36910514F08EE690E0909313088093B6
:104670001208809121099091220990931E12809333
:104680001D1234C06C33F1E07F0714F06BE371E06E
:1046900070931108609310084C3361E056072CF4B6
:1046A000509326094093250906C04BE351E05093EF
:1046B0001108409310082C33A1E03A0714F02BE3C3
:1046C00031E030932409209323098F36910514F0AB
:1046D0008EE690E090930F0880930E088091250954
:1046E000909126099093201280931F120F94F9182D
:1046F0000F94166340E050E06DE481E20E9452FFA7
:1047000040E050E063E581E20E9452FF0C94D95DE5
:1047100040E050E060E289E00E9452FF40E050E05B
:1047200068E28AE00E9452FF88E480933E090E947A
:10473000F6808091C00C082F10E081111DC080917F
:1047400021099091220960918F1C7091901C68172B
:1047500079072CF4BC01990F880B990B04C0072E24
:10476000000C880B990B0F94DCBC0F94FCC4709365
:104770001E1260931D1222C0809125099091260976
:104780006091931C7091941C681779072CF4BC01FC
:10479000990F880B990B04C0072E000C880B990BFE
:1047A0000F94DCBC9801220F331FF901E35EFD4E2C
:1047B0007F010F94FCC4D7016D937C93F801EE0F39
:1047C000FF1FEE0FFF1FE359F34E6081718182815D
:1047D00093810F94FCC47093680860936708F80194
:1047E000EE0FFF1FE35EFD4E80819181909366087E
:1047F000809365080E94F68081E0809369080C949C
:10480000D95D80911402893411F00C94D95D40E097
:1048100050E068E08AE00E9452FF81E480933E0904
:10482000E091C00CB4E0EB9FF0011124EA5BFD4F76
:104830006081718182819381609338127093391203
:1048400080933A1290933B12E0904012F090411204
:10485000009142121091431220913C1230913D126E
:1048600040913E1250913F120F940901E090401286
:10487000F0904112009142121091431220913C128B
:1048800030913D1240913E1250913F12609138128A
:104890007091391280913A1290913B12E0ECFCE059
:1048A000FF93EF93812C912CB8E4AB2EB3E4BB2E95
:1048B000E4E4CE2EE2E1DE2E0F94932C0F946B42B3
:1048C000E2E6F8E084910F900F908F01882351F079
:1048D000082E000C990B0F94234B0F5F1F4FF8010C
:1048E0008491F4CF20E030E040EF51E46091441235
:1048F0007091451280914612909147120F9462C3B5
:10490000609344127093451280934612909347121D
:10491000E0904012F0904112009142121091431227
:1049200020913C1230913D1240913E1250913F1225
:10493000609138127091391280913A1290913B1225
:10494000E0EC2E2EECE03E2E3F922F92812C912C0B
:10495000F0E3AF2EF1E4BF2EA4E4CA2EA2E1DA2EDA
:104960000F94932C0F946B420F900F9080913E09FF
:104970008E3411F40C94475F20E030E641E854E4B3
:1049800060914412709145128091461290914712A5
:104990000F9462C3AB01BC01409344125093451283
:1049A000609346127093471284E796E10F946E4D20
:1049B000C0902B0CD0902C0CE0902D0CF0902E0C75
:1049C00020E030E846EF53E4C701B6010F94D6BCAF
:1049D00040903C1250903D1260903E1270903F12F9
:1049E000209138123091391240913A1250913B1275
:1049F000CA5DDE4F288339834A835B83C652D14028
:104A00002091401230914112409142125091431234
:104A1000C65DDE4F288339834A835B83CA52D14007
:104A200018169CF020E030E046EF53E4C701B601D1
:104A30000F943AC687FD09C03F922F92812C912C8A
:104A4000B0E2AB2EB2E4BB2E0AC080EC9CE09F9398
:104A50008F93812C912CA0E7AA2EA2E4BA2EF4E425
:104A6000CF2EF2E1DF2EC65DDE4FE880F9800A81AD
:104A70001B81CA52D140A3019201CA5DDE4F6881F9
:104A800079818A819B81C652D1400F94932C0F90DB
:104A90000F900F946B4280913E098E3411F40C9468
:104AA000475F20E030E048E452E4609144127091A6
:104AB000451280914612909147120F9462C3609301
:104AC0004412709345128093461290934712E090DF
:104AD0004012F09041120091421210914312209125
:104AE0003C1230913D1240913E1250913F12609124
:104AF00038127091391280913A1290913B12E0EC89
:104B0000FCE0FF93EF93812C912CA12CB0E4BB2E01
:104B1000E4E4CE2EE2E1DE2E0F94932C0F946B4250
:104B20000F900F9080913E098E3411F40C94475FE2
:104B300010923E0940E050E06EE08AE00E9452FF91
:104B40000C94D95D0F941D5E0C94D95D80916B0817
:104B500081FF02C00C94D95D40E050E065E18AE03D
:104B60000E9452FF40E050E06BE084E10E9452FF5F
:104B700082E480933E0980933F0CE091C00C34E0C6
:104B8000E39FF0011124EA5BFD4F60817181828116
:104B90009381609338127093391280933A129093F4
:104BA0003B12E0904012F09041120091421210919D
:104BB000431220913C1230913D1240913E1250918F
:104BC0003F12E0ECFCE0FF93EF93812C912CE8E4A2
:104BD000AE2EE3E4BE2EF4E4CF2EF2E1DF2E0F94EE
:104BE000932CE0904012F0904112009142121091EB
:104BF000431220913C1230913D1240913E1250914F
:104C00003F12E0912B1264E0E69FF0011124EA5B71
:104C1000FD4F60817181828193810F940901E09140
:104C20002B1284E0E89FF0011124EA5BFD4F8081A4
:104C30009181A281B3818093381290933912A0930D
:104C40003A12B0933B12E091C00CF0E0EE0FFF1F60
:104C5000E35EFD4E8091F4079091F5079183808388
:104C60000F946B420F900F900C94D95D80916B085C
:104C700081FF02C00C94D95D2091020A9091010A33
:104C800029130C94F75D806180936B080C94D95DB7
:104C900080916B0881FF02C00C94D95D2091020ABB
:104CA0009091010A29130C94F75D0C94FA5D909190
:104CB000020A8091010A98130C94D95D0C94FE5D50
:104CC0009091020A8091010A98130C94D95D0C947A
:104CD000855EE091B502F091B602EF3F9FEFF907D4
:104CE00011F40C94D95DEE0FFF1FE35EFD4E408181
:104CF00051814B33A1E05A0714F00C94D95D4B5FFE
:104D00005F4F5183408368E289E00E9452FF0C9418
:104D1000D95DE091B502F091B602EF3FBFEFFB071E
:104D200011F40C94D95DEE0FFF1FE35EFD4E408140
:104D300051811416150614F00C94D95D4550510993
:104D40005183408368E289E00E9452FF0C94D95D50
:104D50008091B5029091B602019611F40C94D95D40
:104D60009091020A8091010A98130C94F75D0C94BB
:104D70000F5F8091B5029091B602019611F40C94E8
:104D8000D95D9091020A8091010A98130C94F75D05
:104D90000C94155F9091020A8091010A98130C946B
:104DA000D95D0C941B5F80913F0C823411F00C9400
:104DB000D95DE9E5F8E084918F01882351F0082E50
:104DC000000C990B0F94234B0F5F1F4FF801849138
:104DD000F4CF10923E098091220A9091230A8D7F90
:104DE0009093230A8093220A80911402823509F05D
:104DF00047C089E4809314028091C00C813049F44B
:104E000041E050E06CE481E20E9452FF40E050E05B
:104E100008C040E050E06CE481E20E9452FF41E0B3
:104E200050E06BE481E20E9452FF41E050E06DE40B
:104E300081E20E9452FF41E050E063E581E20E947E
:104E400052FF41E050E061E481E20E9452FF41E004
:104E500050E066E481E20E9452FF41E050E06EE4DF
:104E600081E20E9452FF41E050E06FE481E20E9443
:104E700052FF40E050E064E18AE00E9452FFD1C05E
:104E8000893409F0CEC081E480933E0940E050E0CF
:104E900068E08AE00E9452FF40903C0850903D0834
:104EA00060903E0870903F0840923C1250923D1234
:104EB00060923E1270923F1220E030E040E752E4F0
:104EC00060919B0270919C0280919D0290919E0244
:104ED0000F9450C44B015C01E0904012F0904112DD
:104EE0000091421210914312609138127091391260
:104EF00080913A1290913B122BE232E13F932F9333
:104F000034E4C32E32E1D32EA30192010F94932CEB
:104F10000F946B420F900F9080913E098E3411F4E4
:104F20000C94475F20E030E040E251E4609140089B
:104F30007091410880914208909143080F9462C398
:104F40007B018C0160934012709341128093421256
:104F50009093431280913708898380909F029090AC
:104F6000A002A090A102B090A20220913C12309128
:104F70003D1240913E1250913F1260913812709153
:104F8000391280913A1290913B12FE013196FF93B3
:104F9000EF930F94932C0F946B420F900F9080918E
:104FA0003E098E3411F40C94475F10923E0982E45E
:104FB00080930C0240E050E067E581E20E9452FFDE
:104FC00040E050E066E781E20E9452FF40E050E09E
:104FD0006DEE81E20E9452FF40E050E068E881E21D
:104FE0000E9452FF40E050E069E881E20E9452FFD7
:104FF00040E050E06AE28AE00E9452FF81E0809344
:10500000F51C1092B4116FE178E086E20F9457001E
:105010008091220A9091230A98609093230A8093AA
:10502000220A10923F0C0C94D95D8091D108109205
:105030003E098823E9F01092D1088091220A9091CC
:10504000230A98609093230A8093220A80910C028D
:1050500040E050E0813431F469E08AE00E9452FF80
:105060000C94D95D6AE28AE00E9452FF0C94D95DEB
:105070001092E81C1092B411EEE4F8E084918F01D4
:10508000882351F0082E000C990B0F94234B0F5FCF
:105090001F4FF8018491F4CF10926F0881E00F94B4
:1050A000856940E050E065E08AE00E9452FF0C9480
:1050B000D95D90911608292F287093FF30C28091F6
:1050C0001A08823008F42BC24033F1E05F07610513
:1050D000710509F46FC0DCF54E35510561057105A8
:1050E00009F4B0C174F4453351056105710509F443
:1050F000DBC1473451056105710509F495C00C9475
:10510000D95D423851056105710509F481C04B3AFA
:1051100051056105710509F413C14F35510561054C
:10512000710511F00C94D95D14E410933F0C40E02C
:1051300050E06BE084E10E9452FF40E050E065E106
:105140008AE00E9452FF10933E090C94D95D4333CC
:1051500031E0530761057105C9F19CF4413391E0D9
:1051600059076105710561F14233514061057105CF
:1051700011F00C94D95D81E090E00F94B6620C942C
:10518000D95D4E34B1E05B076105710599F1443793
:10519000E1E05E0761057105F9F0443351406105B6
:1051A000710511F00C94D95D82E090E00F94B66225
:1051B0000C94D95D8EEF9FEF0F94B6620C94D95D7D
:1051C0008FEF9FEF0F94B6620C94D95D80E090E072
:1051D0000F94B6620C94D95D8DEF9FEF9093410CC4
:1051E0008093400C40E050E06AE08AE00E9452FF69
:1051F0000C94D95D83E090E09093410C8093400C37
:1052000040E050E06AE08AE00E9452FF0C94D95DD1
:105210001092410C1092400C40E050E06AE08AE0AD
:105220000E9452FF0C94D95D40E050E068E08AE0B3
:105230000E9452FF81E480933E0941E061E081E0F9
:105240000F94477610923E090F946B420F94595F6A
:105250001091400C80911A08823011F540E050E026
:1052600061E18AE00E9452FF80E580933E0900914F
:105270001708010F00931708002E000C110B20E0F7
:1052800030E0A901CA01B9010F94E77940E050E08C
:1052900069E18AE00E9452FF10923E090C94D95DA8
:1052A000833029F540E050E061E18AE00E9452FF3E
:1052B00080E580933E0900911808010F00931808BB
:1052C000002E000C110B20E030E04CE553EC60E0C8
:1052D00070E088E393EC0F94E77940E050E069E1F7
:1052E0008AE00E9452FF10923E090C94D95D8430EE
:1052F00011F00C94D95D40E050E061E18AE00E9439
:1053000052FF80E580933E0900911908010F009338
:105310001908002E000C110B20E030E04CE553EC96
:1053200060E070E080E493E40F94E77940E050E0BF
:1053300069E18AE00E9452FF10923E090C94D95D07
:1053400010923E098091170840911808042F081BFD
:1053500040911908142F181B602F002E000C770B9A
:10536000880B990B0F94DCBC2DEC3CEC4CEC5DEB0A
:105370000F94BEB760935008709351088093520801
:1053800090935308612F012E000C770B880B990B1B
:105390000F94DCBC2DEC3CEC4CEC5DEB0F94BEB7F9
:1053A00060934C0870934D0880934E0890934F087B
:1053B0000023A1F040E050E06FE18AE00E9452FF3C
:1053C00007FF07C0202F332721950CF4309508E004
:1053D000020F402F000F550B64E015C01123B9F0E8
:1053E00040E050E060E28AE00E9452FF17FF07C0F1
:1053F000812F992781950CF4909518E0180F412F73
:10540000110F550B65E08BE10E9452FF11C014E4AF
:1054100010933F0C40E050E06BE084E10E9452FFAB
:1054200040E050E065E18AE00E9452FF10933E099F
:1054300080E099E090934B0880934A080F94F91804
:105440000C94D95D4091190880911708142F181BEE
:10545000C1F040E050E060E28AE00E9452FF17FF96
:1054600007C0A12FBB27A1950CF4B09518E01A0F27
:10547000412F110F550B65E08BE10E9452FF0C94F8
:10548000D95D14E410933F0C40E050E06BE084E100
:105490000E9452FF40E050E065E18AE00E9452FF26
:1054A00010933E090C94D95D80913F0C843411F027
:1054B0000C94D95D10921A08977F90931608109259
:1054C0003E09109218121092171210921E1210928A
:1054D0001D121092201210921F121092E81C1092AE
:1054E000B411E3E4F8E084918F01882351F0082E91
:1054F000000C990B0F94234B0F5F1F4FF801849101
:10550000F4CF10926F080F94856940E050E065E099
:105510008AE00E9452FF10923F0C0C94D95D4837EC
:10552000F1E05F0710F00C94D95DFA018827EE587E
:10553000FF4F8F4F0D94D4C78091120290911302A8
:10554000826090931302809312020C94D95D809133
:1055500012029091130284609093130280931202BE
:105560000C94D95D809112029091130288609093FF
:105570001302809312020C94D95D809112029091D3
:105580001302806190931302809312020C94D95DF0
:105590008091120290911302806290931302809383
:1055A00012020C94D95D0F94E650009781F480911B
:1055B000120290911302946090931302809312024E
:1055C000809108128150809308120C94D95D019744
:1055D00011F00C94D95D80911202909113029460A5
:1055E000909313028093120240E050E067E381E25F
:1055F0000E9452FF40E050E061E08BE10E9452FFC8
:10560000809108128150809308120C94D95D1092F9
:10561000E81C1092B411E8E3F8E084918F0188232C
:1056200051F0082E000C990B0F94234B0F5F1F4F66
:10563000F8018491F4CF10926F0881E00F9485698E
:1056400040E050E065E08AE00E9452FF0C94D95D92
:1056500080910019882311F40C94D95D41E061E038
:1056600081E099E10F94E07F8FEF9FEF9093EF1827
:105670008093EE18412C512C320153014201CA5D36
:10568000DE4F19821882C652D1409E01205E3E4FE5
:10569000CE5DDE4F39832883C252D1400FEF1FEF1A
:1056A000AE01425E5E4FCC5DDE4F59834883C452EB
:1056B000D1407E0154EEE51A5EEFF50A6E0166EE0A
:1056C000C61A6EEFD60A1E0181E0280E381E4091E0
:1056D0009F1B5091A01B6091A11B7091A21B8091F8
:1056E000FA1A9091FB1AA091FC1AB091FD1A841736
:1056F0009507A607B70708F0D6C182E3ADE9B8E180
:105700001D928A95E9F70F94F5530196D9F41092FA
:10571000E9181092E8181092EB181092EA1881E03C
:1057200090E09093ED188093EC181092F918109275
:10573000F8181092FB181092FA1880E00F94A84DF8
:105740000C94555FCA5DDE4FE881F981C652D140A5
:10575000EF2B81F51A83098321E030E02C0F3D1FE8
:105760003F932F9386E998E29F938F93ADE9B8E139
:10577000BF93AF930F94B5BC89819A810F900F901E
:105780000F900F900F900F90019679F081E090E0CC
:105790009093EF188093EE1827E030E0CA5DDE4F5B
:1057A00039832883C652D1406CC11092EF181092F1
:1057B000EE1867C1C05EDE4F19830883C052D14026
:1057C000C25EDE4F19830883CE51D140D7010D93BD
:1057D0001C93F60111830083D1010D931C931A834E
:1057E00009838091EE189091EF18892BD9F0E1E0B0
:1057F000F0E0EC0FFD1FFF93EF933F922F92DF92AB
:10580000CF92FF92EF9282E795E09F938F93ADE95D
:10581000B8E1BF93AF930F94B5BC2DB73EB7245FEB
:105820003F4F32C041E050E04C0F5D1F5F934F93FC
:105830003F922F92CB5DDE4F5881C552D1405F938E
:10584000CC5DDE4F6881C452D1406F93DF92CF921E
:10585000FF92EF92CD5DDE4F8881C352D1408F938E
:10586000CE5DDE4F9881C252D1409F938DE495E08A
:105870009F938F93ADE9B8E1BF93AF930F94B5BCFD
:105880002DB73EB7205F3F4F0FB6F8943EBF0FBE17
:105890002DBFC05EDE4F88819981C052D1400197F3
:1058A00031F4D7010D931C93F60111830083C25E7E
:1058B000DE4F88819981CE51D140892B59F4D10195
:1058C0008D919C91F7019183808389819A81D60182
:1058D0008D939C93F70160817181072E000C880BDA
:1058E000990B0F94DCBC4B015C01D6016D917C914E
:1058F000072E000C880B990B0F94DCBC20E030E0E5
:1059000040E251E40F9450C49B01AC01C501B401C5
:105910000F9462C34B015C01C05EDE4F19830883A4
:10592000C052D140C25EDE4F19830883CE51D140B0
:10593000F70111830083D6010D931C93F1011183AC
:1059400000831A8309838091EE189091EF18892BB8
:10595000D9F021E030E02C0F3D1F3F932F933F9271
:105960002F92DF92CF92FF92EF928CE295E09F937D
:105970008F93ADE9B8E1BF93AF930F94B5BC2DB74A
:105980003EB7245F3F4F32C041E050E04C0F5D1FF7
:105990005F934F933F922F92CB5DDE4F5881C5525C
:1059A000D1405F93CC5DDE4F6881C452D1406F938C
:1059B000DF92CF92FF92EF92CD5DDE4F8881C3528E
:1059C000D1408F93CE5DDE4F9881C252D1409F93DC
:1059D00087E095E09F938F93ADE9B8E1BF93AF93D4
:1059E0000F94B5BC2DB73EB7205F3F4F0FB6F8946C
:1059F0003EBF0FBE2DBFC05EDE4F88819981C05271
:105A0000D140019759F4D7018D919C91F101918377
:105A10008083D6018D919C919A838983F101608165
:105A20007181072E000C880B990B0F94DCBC2B01A5
:105A30003C0169817A81072E000C880B990B0F9429
:105A4000DCBC20E030E040E251E40F9450C49B0104
:105A5000AC01C301B2010F9462C32B013C0120E0F1
:105A600030E0A901C501B4010F943AC61816DCF064
:105A700020E030E0A901C301B2010F943AC6181624
:105A800094F0CA5DDE4F28813981C652D1402F5F24
:105A90003F4FCA5DDE4F39832883C652D1402E3135
:105AA00031050CF414CE80E00F94A84D20E030E0D6
:105AB000A901C501B4010F94D6BC18165CF020E012
:105AC00030E0A901C301B2010F94D6BC181614F03E
:105AD0000C94555FC0900903D0900A03E0900B032B
