:100000000C9404170C9435170C9435170C94351771
:100010000C9435170C9435170C9435170C94351730
:100020000C9435170C9435170C9435170C94351720
:100030000C9435170C9435170C9435170D9419053D
:100040000C9435170C9435170C9435170C94351700
:100050000C9435170C9435170D946D3D0C9445DFB9
:100060000C9435170C9473DD0C944ADD0C94351701
:100070000C9435170C9435170C9435170C943517D0
:100080000C94B5E00C9435170C9435170C94351777
:100090000C9435170C9435170C9435170C943517B0
:1000A0000C9435170C9435170C9435170C943517A0
:1000B0000C9435170C9435170C9435170C94351790
:1000C0000C9435170C9435170C9435170C9415DDDA
:1000D0000C94ECDC0C9435170C9435170C943517F4
:1000E0000C943517545ADD5CB82F7C2DFE579B2895
:1000F000B75BB128DD5CDD5CDD5CF0288D28DD5C64
:10010000E925DE25DD5C9C39DD5CDD5CDD5CC25B08
:10011000514067407D4093402B41A940E05B434004
:1001200009435B5AE939DA39BF40D340DD5CA62880
:100130005F268D285C2DD43B742D745BCC4E6C2DCA
:10014000642D955BF059DD5CAA2F6D5BDD5C7B3C1B
:10015000B9280A26F425DD5CDD5CCA29053ADD5C98
:10016000425B165B3048B5313528414CF636F839DC
:10017000B931DD5CB35A6A5A762F603060303C305A
:10018000BD31C132682B09292229FC2F1E30D3250D
:10019000FF25DD5CDD5C8D28F02FDC2BFE2B4F294D
:1001A000793B593BDD5CC9567457DD59DD5CE05B3A
:1001B000E05B3D591159E558B958355861588D588B
:1001C000265A47578D431743034414466D45F74459
:1001D000DD5CDD5CFE57212C3A2CF02FEC56D75B12
:1001E000DD5CDD5C335BE940204B0C47DD5C3E268B
:1001F000FA54FF401541DD5C6F41DD5CAE3AA63A32
:10020000DD5CDD5C2435DD5CDD5CDD5C4B359D3526
:100210008835F52EDF2EB63A852D022E862EB32E8A
:100220004653062F904773352447DD5CDD5CDD5C6B
:10023000DD5CDD5CDD5CDD5CDD5CDD5C55295D2964
:100240008329DD5CDD5C3A474E473048204B2C4B20
:10025000314CDD5C3F4FA34FD24E264F484DDD5C05
:10026000DD5C654DDD5C7B51A1389439BF5164473D
:10027000DD5C4D509750E3502F5145507A47DD5C7F
:100280000352055379549C55DD5C2F54E345E345F7
:100290008A549333FF2AB84E514D714D434E4B4E05
:1002A0008D28C04EDD5CDD5CDD5CDD5CDD5CDD5C35
:1002B0006639DD5CDD5CEF571D5ADD5CDD5CDD5CC5
:1002C000DD5CDD5CDD5CDD5CDD5C6056B356DD5C19
:1002D000DD5CDD5CDD5CDD5CDD5CDD5CDD5CDD5C56
:1002E000DD5CDD5CDD5CDD5CDD5CDD5CDD5CDD5C46
:1002F000DD5CDD5CDD5CDD5CDD5CDD5CDD5CDD5C36
:10030000DD5CDD5CDD5CDD5CDD5CDD5CDD5CDD5C25
:10031000DD5CDD5CDD5CDD5CDD5CDD5CDD5CDD5C15
:10032000DD5CDD5CDD5CDD5CDD5CDD5CDD5CDD5C05
:10033000DD5CDD5CDD5CDD5CDD5CDD5C0540C73F1C
:10034000CB428D42DD5CF245DD5CDD5CF8392F2B64
:100350007D424341F8394341DD5C59415941072B06
:10036000505B495B5F5B665BC257C757CC57D15741
:100370002C5B1D5BDB57E057E557EA57D657BD5757
:10038000D14AF04A7C2D192A0F2BDD5C485A315393
:10039000CD289B2BDD5CDD5C40570350DD5CDD5CD4
:1003A000DD5C9555DD5CEC56DD5CDD5CDD5C1630BE
:1003B000702B3E53652F6534DD5CD74FDD5C8E5569
:1003C000DD5CDD5CDD5CDD5CDD5C9D2FAB4ABE4A47
:1003D000485A265A29360B37C34F263B0F37212A56
:1003E000D43B3136214E9938D3379C54ED54DD5CE3
:1003F000053AC34F8048E05BBE3A372BCB4FE05BFA
:100400008CDC8FDC7EDC82DC88DCC6DC93DC97DC79
:100410009DDCA1DCA5DCABDCAFDCB3DCC6DCB9DC8D
:10042000BDDCC1DC61DE66DE6BDE75DE7FDEF8DE44
:1004300089DE91DE99DEA3DEADDEB7DEC6DED0DE7C
:10044000F8DEDADEE4DEEEDE91028B029702730262
:10045000950273028102770287027D029902A3024C
:1004600089028F026D02A7027502830279029B0244
:100470007102A102AD02850267026F02A502AB0202
:100480006B02084AD73B3BCE016E84BCBFFDC12F37
:100490003D6C74319ABD56833DDA3D00C77F11BE75
:1004A000D9E4BB4C3E916BAAAABE000000803F0578
:1004B000A84CCDB2D44EB93836A9020C50B99186A9
:1004C00088083CA6AAAA2ABE000000803F000D941E
:1004D0006E3E0D9428010D947C3E0D94F71B0D94F7
:1004E000703E0D94203E0D94D51C0D94761C0D94F9
:1004F000AC1C0D94F73D0D94AC880D942F1E0D94FB
:10050000A9C70D94941C0D94C51D0D94543E0D94D3
:10051000B91B0D94A71D0D94151C0D94FB5F0D9434
:10052000001E0D949B1B0D94F0A70D94391C0D9487
:10053000FA1C0D946B1D0D94043E0D941BB40D9488
:10054000FC5F0D942D3E0D94891D0D94723E0D940B
:10055000D71B0D9482880D94743E0D94473E4E41F6
:100560004E494E495459494E46CDCCCC3D0AD7232D
:100570003C17B7D13877CC2B329595E6241FB14F75
:100580000A000020410000C84200401C4620BCBEBA
:100590004CCA1B0E5AAEC59D746364696E6F70734E
:1005A0007578585B003B4C415945523A2564003BF5
:1005B000202020757365526166742C2564004D36C9
:1005C0003035205325640043616C63756C75733A54
:1005D00020200043616C63756C75733A20200043E2
:1005E000616C63756C75733A20200053757266698F
:1005F0006E6720300A00417420426F74746F6D2062
:10060000537469636B657200253033642E25303373
:1006100064253033642E2530346400417420426FE9
:1006200074746F6D20537469636B65720025303389
:10063000642E25303364253033642E253034640035
:1006400053757266696E6720300A00473238205849
:1006500030205930005430005431005430005430B0
:100660000053757266696E6720300A0047343300A4
:1006700047343100473430004733340047343300C7
:100680004734330047343100473430004D383400AC
:100690004D3834004D3834005A32204F6666736549
:1006A000743A20004F4B207365636F6E6420457869
:1006B000747275646572210A005A20706F736974D0
:1006C000696F6E3A20005A20706F736974696F6E9B
:1006D0003A20004D3834005A312050726F62652044
:1006E0006F66667365743A20004F4B2066697273BB
:1006F0007420457874727564657221200A005A204E
:10070000706F736974696F6E3A20005A20706F734E
:100710006974696F6E3A200043616C63756C757320
:100720003A20200043616C63756C75733A20200099
:1007300043616C63756C75733A20200043616C6390
:10074000756C75733A2020003630206465677265D9
:100750006573200A00543000543000543000436167
:100760006C6962726174696F6E205375636365733F
:100770007366756C0A005430004A756D70206F7690
:1007800065722073637265773120616E64207363D4
:1007900072657732200A004A756D70206F76657237
:1007A00020736372657731200A0047333400473382
:1007B00034004733340054300047333400537572EB
:1007C00066696E6720300A0053757266696E67202D
:1007D000300A0053757266696E6720300A005375DF
:1007E0007266696E6720300A0053757266696E67BB
:1007F00020300A0054300053757266696E672030ED
:100800000A004D33340053757266696E6720300AF2
:10081000004D3234004D3233202573004D32340008
:100820004D32332025730077696C6C20626520643B
:100830006973746F727465642062792025642E2553
:100840003164253164206D6D2E0054686520666921
:10085000727374206C61796572207072696E746550
:100860006420776974682074686520257320686F38
:1008700074656E640053757266696E6720300A0095
:1008800053757266696E6720300A00537572666927
:100890006E6720300A00526561647920746F2053BE
:1008A000746172740A002564206B6D2E0067636F9B
:1008B000646520666F756E640A0020746F2053743F
:1008C00061727420446973706C61792066726F6D17
:1008D00020526573657400546F6F6B2000646973F8
:1008E000706C6179206F6E6C696E6521002E00203E
:1008F00053544F50205052494E54200A004732382A
:10090000205830205930004D3335004737300052E1
:100910004553554D450A0050415553450A004D3841
:100920003420582059205A2045004D31303700548A
:1009300030005374617274696E67205A2043616C91
:100940006962726174696F6E2057697A6172640AB4
:10095000000A00205A3A200020593A200020583A34
:10096000200042656400456E642066696C65206CF9
:100970006973740A00426567696E2066696C652058
:100980006C6973740A002F005344207072696E748E
:10099000696E67206279746520004E6F742053443D
:1009A000207072696E74696E670A002569206D692E
:1009B0006E2C20256920736563006F6B00464952D9
:1009C0004D574152455F4E414D453A4D61726C69FC
:1009D0006E2042434E3344205369676D61783B205B
:1009E0004649524D574152455F56455253494F4E25
:1009F0003A30322D322E302E3352433B204649526C
:100A00004D574152455F55524C3A68747470733A71
:100A10002F2F6769746875622E636F6D2F42434E86
:100A200033442F42434E33445369676D61782D46FA
:100A300069726D776172653B2050524F544F434F3E
:100A40004C5F56455253494F4E3A312E303B204D64
:100A5000414348494E455F545950453A42434E330D
:100A600044205369676D61783B2045585452554482
:100A700045525F434F554E543A323B2055554944F9
:100A80003A00535441544953544943532052455317
:100A900045540A004D6F64652032203A2063796323
:100AA0006C652020202D3E205247423A203620738C
:100AB0007461746573002A2A2D3E20004D6F6465B1
:100AC0002031203A2072616E646F6D20202D3E200F
:100AD0005247423A202B31202B32202B332C2064DA
:100AE0007572696E67207072696E74696E67002A2C
:100AF0002A2D3E20004D6F64652030203A20646529
:100B00006661756C74202D3E205247423A20323582
:100B1000352032353520323535002A2A2D3E200049
:100B20004C6564206D6F646573203A004D35333633
:100B3000204C5B6D6F64655D00504F534954494FC5
:100B40004E20484F4D453A2000220A00556E6B6EEC
:100B50006F776E20636F6D6D616E643A2022000ABC
:100B600000207A3A200020793A200020783A2000AC
:100B70004265640045787472756465722072656CB4
:100B80006561736564206163746976653A20005A13
:100B9000205349474D4120486F6D65640A004578F0
:100BA000747275646572206163746976653A2000B9
:100BB0004D3834005374617274696E672058204355
:100BC000616C6962726174696F6E2057697A6172D3
:100BD000640A004D3834005374617274696E672082
:100BE000592043616C6962726174696F6E20576944
:100BF0007A6172640A00457874727564657220487F
:100C000065617465640A0020573A00204500205A47
:100C100000205900483D5800205A3A0020593A0017
:100C200020436F756E7420583A200020453A00200A
:100C30005A3A0020593A00583A007A5F6D696E3A84
:100C40002000795F6D61783A2000785F6D61783AB5
:100C50002000785F6D696E3A2000486F74656E649D
:100C6000206F6666736574733A005049442041757D
:100C7000746F74756E652066696E6973686564214A
:100C80002050757420746865206C617374204B70FB
:100C90002C204B6920616E64204B6420636F6E735F
:100CA00074616E74732066726F6D2061626F766519
:100CB00020696E746F20436F6E6669677572617428
:100CC000696F6E2E680A00504944204175746F7434
:100CD000756E65206661696C6564212074696D6557
:100CE0006F75740A0020403A006F6B20543A006F11
:100CF0006B20423A00504944204175746F74756E00
:100D000065206661696C6564212054656D7065724B
:100D1000617475726520746F6F20686967680A0076
:100D2000204B643A2000204B693A2000204B703A57
:100D3000200020436C617373696320504944200A8A
:100D4000002054753A2000204B753A2000206D6138
:100D5000783A2000206D696E3A200020643A200025
:100D600020626961733A2000436F6F6C696E67207F
:100D7000446F776E204865617465720A005072692D
:100D80006E7465722068616C7465642E206B696C8A
:100D90006C28292063616C6C6564210A00457272BD
:100DA0006F723A006C617965722068656967687472
:100DB0003A200045787472756465722072656C65BE
:100DC00061736564206163746976653A20005A2016
:100DD0005349474D4120486F6D65640A004578745A
:100DE0007275646572206163746976653A200000EB
:100DF00000000000809343000000000000A04000BD
:100E000000A0400000004020004D6F766520746F08
:100E10003A2000CDAC03440080934300005243FFCE
:100E200001FF20636F6C6420657874727573696F5D
:100E30006E2070726576656E7465640A006563681D
:100E40006F3A0000002100240027002A002D003006
:100E500000330001010000040107010A0100002223
:100E600000250028002B002E003100340002010074
:100E700000050108010B01000020002300260029C5
:100E8000002C002F003200000100000301060109C0
:100E90000105050505070508080808020202020AFF
:100EA0000A0808040404040101010101010101030D
:100EB00003030303030303040707070C0C0C0C0CC8
:100EC0000C0C0C0202020206060606060606060BBB
:100ED0000B0B0B0B0B0B0B01021020200808102032
:100EE00040102040800201020108040201010204B6
:100EF0000810204080804020100804020180040275
:100F000001804020100804020108040201010204CB
:100F10000810204080010204081020408000000AD0
:100F20000B02090C0D0E080703040100000000006D
:100F300000000000000000000000000000000000B1
:100F4000000000000000000000121110000000006E
:100F50000000000000000000000000000000000091
:100F6000000000646973706C6179206F66666C695B
:100F70006E650042434E3344205369676D61780AC1
:100F80000073746172740A006563686F3A003032EE
:100F90002D322E302E3352430A006572726F72204A
:100FA00077726974696E6720746F2066696C650A70
:100FB00000205A3A0020593A0020583A00656E64E1
:100FC00073746F7073206869743A20006563686F8A
:100FD0003A00446F6E6520736176696E67206669BA
:100FE0006C652E0A006F6B0A004D32390024F4D470
:100FF0003050C38E20C2A24017828B7011127A919A
:101000000D816CD90AA861E108C758660761514390
:10101000061E4B5D05C145A7041A411104093D9800
:1010200003713931034036DB0265339102D4305409
:1010300002802E1D02632CEE01752AC501B028A086
:1010400001102781018F2564012B244B01E02234FC
:1010500001AC211F018D200D01801FFC00841EEDBD
:1010600000971DDF00B81CD200E61BC600201BBC89
:1010700000641AB200B219A8000A19A0006A1899EF
:1010800000D117910040178B00B516840031167EF1
:1010900000B31579003A157300C7146F0058146A2D
:1010A00000EE1366008813630025135E00C7125B11
:1010B000006C12570015125400C111510070114FED
:1010C0000021114B00D61049008D104700461044F6
:1010D0000002104200C00F4000800F3E00420F3C53
:1010E00000060F3B00CB0E3800930E37005C0E3528
:1010F00000270E3400F30D3200C10D3100900D3089
:1011000000600D2E00320D2D00050D2C00D90C2B8A
:1011100000AE0C2900850C29005C0C2700350C273B
:10112000000E0C2600E80B2400C40B2400A00B23A7
:10113000007D0B23005A0B2100390B2100180B20D6
:1011400000F80A1F00D90A1E00BB0A1E009D0A1DD6
:1011500000800A1D00630A1C00470A1B002C0A1BA2
:1011600000110A1A00F7091A00DD091900C409194B
:1011700000AB091900920917007B091800630917D1
:10118000004C09160036091600200916000A091538
:1011900000F5081500E0081400CC081400B8081485
:1011A00000A4081400900813007D0812006B0813B7
:1011B00000580812004608120034081100230811D4
:1011C000001208110001081100F0071000E00710DC
:1011D00000D0071000C0071000B0070F00A10710D3
:1011E0000091070E0083070F0074070F0065070EBC
:1011F0000057070E0049070E003B070D002E070E93
:101200000020070D0013070D0006070D00F9060C5E
:1012100000ED060D00E0060C00D4060C00C8060C1C
:1012200000BC060C00B0060C00A4060B0099060CCE
:10123000008D060B0082060B0077060B006C060B78
:101240000061060A0057060B004C060A0042060A17
:101250000038060A002E060A0024060A001A060AAA
:10126000001006090007060A00FD050900F405093B
:1012700000EB050900E2050900D9050900D00509C0
:1012800000C7050900BE050900B5050800AD050841
:1012900000A50509009C050800940508008C0508B8
:1012A00000840508007C050800740508006C05072B
:1012B00000650508005D050700560508004E050796
:1012C00000470507004005080038050700310507FD
:1012D000002A050700230507001C05060016050760
:1012E000000F0507000805060002050700FB0406BD
:1012F00000F5040700EE040600E8040600E2040717
:1013000000DB040600D5040600CF040600C904066D
:1013100000C3040600BD040600B7040600B10405BE
:1013200000AC040600A6040600A00405009B040609
:101330000095040500900406008A04050085040554
:1013400000800406007A0405007504050070040599
:10135000006B04050066040500610405005C0405DB
:101360000057040500520405004D0405004804051B
:1013700000430405003E0404003A0405003504055A
:1013800000300404002C0405002704040023040595
:10139000001E0404001A04040016040500110404CD
:1013A000000D040400090405000404040000040402
:1013B00000FC030400F8030400F4030400F0030439
:1013C00000EC030400E8030400E4030400E0030469
:1013D00000DC030400D8030400D4030400D0030499
:1013E00000CC030400C8030300C503030024F40475
:1013F000D9201BC40C5C0E9804C4095F02650771F8
:1014000001F405F900FB04B30048048700C1036937
:10141000005803550003034500BE023A0084023120
:101420000053022A002902250004022000E4011CC6
:1014300000C8011900AF01170098011400840113BE
:1014400000710110006101100051010E0043010DF7
:101450000036010B002B010B0020010B00150109C8
:10146000000C01090003010800FB000800F300085C
:1014700000EB000700E4000600DE000600D80006CE
:1014800000D2000600CC000500C7000500C2000520
:1014900000BD000400B9000400B5000400B1000460
:1014A00000AD000400A9000400A5000300A2000391
:1014B000009F0004009B00030098000300950002B9
:1014C0000093000300900003008D0002008B0003D6
:1014D00000880002008600020084000300810002F0
:1014E000007F0002007D0002007B00020079000204
:1014F0000077000100760002007400020072000113
:1015000000710002006F0002006D0001006C00021B
:10151000006A000100690002006700010066000126
:10152000006500010064000200620001006100012A
:1015300000600001005F0002005D0001005C00012E
:10154000005B0001005A0001005900010058000131
:101550000057000100560001005500010054000131
:10156000005300000053000100520001005100012F
:1015700000500001004F0001004E0000004E00012D
:10158000004D0001004C0001004B0000004B000129
:10159000004A000100490001004800000048000125
:1015A0000047000100460000004600010045000021
:1015B0000045000100440001004300000043000119
:1015C0000042000000420001004100000041000113
:1015D00000400001003F0000003F0001003E00000D
:1015E000003E0001003D0000003D0001003C000005
:1015F000003C0000003C0001003B0000003B0001FB
:10160000003A0000003A00010039000000390001F2
:1016100000380000003800000038000100370000EA
:1016200000370001003600000036000000360001DF
:1016300000350000003500000035000100340000D6
:1016400000340000003400010033000000330000CB
:1016500000330001003200000032000000320001BF
:1016600000310000003100000031000100300000B6
:101670000030000000300001002F0000002F0000AB
:10168000002F0000002F0001002E0000002E00009F
:10169000002E0001002D0000002D0000002D000094
:1016A000002D0001002C0000002C0000002C000088
:1016B000002C0001002B0000002B0000002B00007C
:1016C000002B0001002A0000002A0000002A000070
:1016D000002A000100290000002900000029000064
:1016E0000029000000290001002800000028000057
:1016F000002800000028000000280001002700004A
:10170000002700000027000000270000002700013C
:101710000026000000260000002600000026000031
:101720000026000100250000002500000025000023
:101730000025000000250000002500010024000015
:101740000024000000240000002400000024000108
:1017500000230000002300000023000000230000FD
:1017600000230000002300000023000100220000ED
:1017700000220000002200000022000000220000E1
:1017800000220001002100000021000000210000D3
:1017900000210000002100000021000000210001C4
:1017A00000200000002000000020000000200000B9
:1017B00000200000002000000020000000200001A8
:1017C000001F0000001F0000001F0000001F00009D
:1017D000001F0000001F0000001F0001001E00008D
:1017E000001E0000001E0000001E0000002E0A0067
:1017F00044656C6574696F6E206661696C65642C04
:101800002046696C653A200046696C652064656C09
:10181000657465643A002E0A006F70656E2066611B
:10182000696C65642C2046696C653A200047323843
:10183000205830205930000A0A005374616E6461E8
:10184000726420446576696174696F6E3A20000A9B
:10185000004D65616E3A20000A002020207A3A206F
:10186000000A00793A2000783A20003F53706563FF
:101870006966696564206E756D626572206F6620A9
:101880006C65677320696E206D6F76656D656E742B
:10189000206E6F7420706C61757361626C652E0AC6
:1018A000003F537065636966696564205920706FF5
:1018B000736974696F6E206F7574206F6620726132
:1018C0006E67652E0A003F537065636966696564DB
:1018D000205820706F736974696F6E206F75742063
:1018E0006F662072616E67652E0A003F53706563F4
:1018F00069666965642073616D706C652073697ACF
:1019000065206E6F7420706C61757361626C652EFA
:101910000A0046756C6C20737570706F727420616C
:10192000743A20687474703A2F2F33647072696E41
:1019300074626F6172642E636F6D2F666F72756D66
:101940002E7068700A004D3438205A2D50726F6224
:1019500065205265706561746162696C6974792093
:10196000746573742E20202056657273696F6E2023
:10197000322E30300A003F566572626F7365204C1C
:101980006576656C206E6F7420706C617573616232
:101990006C652E0A00426564204865617465640ABE
:1019A0000020573A00496E7374616C6C20256420E6
:1019B0002573206F6E2074686520257320686F740E
:1019C000656E642E0050757267652046696C616DA6
:1019D000656E740A0053757266696E6720310A007D
:1019E00053757266696E6720300A00425249474853
:1019F000544E4553533A2000220A00656E717565B6
:101A0000696E67202200220A00656E717565696E35
:101A100067202200202F0020400020403A0052651D
:101A200073656E643A20006F6B0A004475706C69D0
:101A3000204D6F6465204F4E0A004D6972726F72BF
:101A4000204D6F6465204F4E0A0052656164792015
:101A5000746F204C6F61642F556E6C6F6164200A47
:101A60000053757266696E672030200A005430009A
:101A70004D383420582059205A2045002C207361BD
:101A80007665645F466C61675F66616E6C617965FF
:101A9000725F6D6972726F723A20002C20736176EA
:101AA00065645F6665656472617465313A20002C17
:101AB0002073617665645F66656564726174653024
:101AC0003A20002C2073617665645F66616E6C61FC
:101AD0007965723A20002C2073617665645F7465C5
:101AE0006D706265643A20002C2073617665645FD6
:101AF00074656D70303A20002C2073617665645FE8
:101B000074656D70313A20002C2073617665645FD6
:101B100066696C65706F736974696F6E3A20002C2A
:101B20002073617665645F655F706F736974696F58
:101B30006E3A20002C2073617665645F746F6F6C61
:101B40005F6163746976653A20002C207361766565
:101B5000645F7A5F706F736974696F6E3A20002CEE
:101B60002073617665645F795F706F736974696F04
:101B70006E3A20002C2073617665645F785F706F29
:101B8000736974696F6E3A20005341564520505274
:101B9000494E54204C4F473A0A006563686F3A003B
:101BA0005072696E74207265636F76657279207504
:101BB000700A004E6F74207072696E7420726563D3
:101BC0006F766572792075700A005355434345530B
:101BD000530A0056616C756573206F7574206F66CB
:101BE0002072616E67650A0056616C756573206FBF
:101BF0007574206F662072616E67650A0056616CAD
:101C0000756573206F7574206F662072616E6765ED
:101C10000A0056616C756573206F7574206F6620BD
:101C200072616E67650A00535543434553530A007A
:101C300056616C756573206F7574206F66207261D4
:101C40006E67650A0056616C756573206F75742048
:101C50006F662072616E67650A0056616C75657308
:101C6000206F7574206F662072616E67650A00567A
:101C7000616C756573206F7574206F662072616E7C
:101C800067650A0020502000205A200020592000BB
:101C9000536574204D35333020582000486F7465EB
:101CA0006E64206F6666736574733A0054696D657F
:101CB00020696E6163746976650A005075726765A4
:101CC0002064697374616E63650A005A204F66660A
:101CD000736574206F6B0A005A204F6666736574D3
:101CE000203A200A007A5F6D61783A20007A5F6DB1
:101CF000696E3A20005A204F666673657400504F33
:101D0000534954494F4E20484F4D453A20002A2A06
:101D10002A2047656E696520446973636F6E6E653E
:101D2000637465642066726F6D204765744E6578D4
:101D3000744279746521202A2A2A002A2A2A2047F7
:101D4000656E696520456E61626C652041747461E1
:101D500063684576656E7448616E646C65722021B7
:101D60002121202A2A2A0043616E6E6F7420656E3D
:101D7000746572207375626469723A2000577269E3
:101D800074696E6720746F2066696C653A20002E56
:101D90000A006F70656E206661696C65642C204670
:101DA000696C653A20002E0A006F70656E206661CE
:101DB000696C65642C2046696C653A200046696C44
:101DC000652073656C65637465640A002053697AE5
:101DD000653A200046696C65206F70656E65643AEF
:101DE00020002E0A006F70656E206661696C656464
:101DF0002C2046696C653A20004E6F77206672652C
:101E000073682066696C653A20004E6F7720646FB6
:101E1000696E672066696C653A20002220706F73D6
:101E2000002220706172656E743A2200535542524E
:101E30004F5554494E452043414C4C2074617267C4
:101E400065743A2200747279696E6720746F20633A
:101E5000616C6C207375622D67636F6465206669C1
:101E60006C6573207769746820746F6F206D616E84
:101E700079206C6576656C732E204D4158206C6519
:101E800076656C2069733A005341564544205052A0
:101E9000494E540A007A70726F62653A20005344CA
:101EA0002063617264206F6B0A006F70656E526F01
:101EB0006F74206661696C65640A00766F6C756D7D
:101EC000652E696E6974206661696C65640A0045F7
:101ED00072726F723A00534420696E6974206661B1
:101EE000696C0A0070012C0190012701B0012201E8
:101EF000C0011D01F00118011002130130020E0192
:101F00006002090190020401C002FF000003FA0010
:101F10004003F5008003F000D003EB002004E6004E
:101F20007004E100E004DC004005D700C005D200E9
:101F30004006CD00D006C8008007C3003008BE00B0
:101F4000F008B900C009B400B00AAF00B00BAA0095
:101F5000D00CA500000EA000500F9B00C0109600F2
:101F60005012910000148C00C0158700B017820039
:101F7000B0197D00D01B7800001E730040206E0059
:101F800090226900F024640040275F0090295A00E5
:101F9000E02B5500102E500020304B001032460030
:101FA000E033410090353C00103737007038320084
:101FB000A0392D00B03A2800A03B2300603C1E0051
:101FC000103D1900903D1400103E0F00703E0A00B5
:101FD000C03E0500003F0000487973746572657368
:101FE00069732074656D70657261747572650A003D
:101FF000546865726D616C2072756E6177617920CD
:1020000070726F74656374696F6E206279204865C1
:10201000617465725F49443A0A004572726F723AA0
:10202000004572726F72283833293A204265642065
:10203000746865726D6973746F72206E6F7420645A
:10204000657465637465640A004572726F7228383E
:1020500032293A20526967687420746865726D6924
:1020600073746F72206E6F74206465746563746539
:10207000640A004572726F72283831293A204C6523
:10208000667420746865726D6973746F72206E6F08
:1020900074202064657465637465640A0020535479
:1020A0004F50205052494E54200A004572726F72B0
:1020B000283833293A2042656420746865726D6956
:1020C00073746F72206E6F742064657465637465D9
:1020D000640A002053544F50205052494E54200A55
:1020E000004572726F72283832293A205269676847
:1020F0007420746865726D6973746F72206E6F748A
:102100002064657465637465640A002053544F50FD
:10211000205052494E54200A004572726F7228387E
:1021200031293A204C65667420746865726D697354
:10213000746F72206E6F74202064657465637465BB
:10214000640A002053544F50205052494E54200AE4
:10215000004552524F52283839293A2042454420EE
:102160006973206E6F742068656174696E67002002
:1021700053544F50205052494E54200A0045525259
:102180004F52283839293A20486F74656E642025EB
:1021900064206973206E6F742068656174696E676E
:1021A000006563686F3A000A0020616E7469686FA9
:1021B000726172690A3A200020686F726172690A5E
:1021C00020002F3800766F6C746573200020566FE6
:1021D0006C74657320636172676F6C20333A200002
:1021E00020616E7469686F726172690A3A2000201A
:1021F000686F726172690A20002F3800766F6C7404
:102200006573200020566F6C74657320636172677C
:102210006F6C20323A20000A0020647A333A2000A2
:1022200020647A323A200054310054300054300097
:102230005430000A0056756974656E73333A202075
:10224000004170726F78333A202000566F6C7465CD
:1022500073333A2020000A0056756974656E733234
:102260003A2020004170726F78323A202000566F79
:102270006C746573323A20200056616C6F72206472
:102280005A333A20200056616C6F7220645A323AF9
:102290002020004E6577206F666673657420766532
:1022A0007273696F6E3A20007A335F313A20007A98
:1022B000325F313A20005A7363726F6C6C5F313A4F
:1022C00020007A335F303A20007A325F303A2000C3
:1022D0005A7363726F6C6C5F303A20005A76616C8F
:1022E000756520616674657220686F6D653A004897
:1022F0006F6D6520582F59206265666F7265205A90
:102300000A003B2020204275696C642074696D6569
:102310003A202564202573202564202573003B5036
:1023200072696E742074696D653A20256420257386
:10233000202564202573202564202573003B544903
:102340004D453A256C64003B202020506C6173742D
:102350006963207765696768743A2025642E25646F
:1023600067003B46696C616D656E742075736564CA
:102370003A2025642E25646D2025642E256467008F
:102380003B46696C616D656E7420757365643A20B7
:10239000256C642E256C646D003B45787472756401
:1023A00065727320757365643A2054256420256432
:1023B0002E2564205425642025642E2564003B20AE
:1023C000202065787472756465724469616D657406
:1023D00065722C25642E25642C25642E2564002E20
:1023E0002E2E2054696D656F757421002A2A2A20CB
:1023F00047656E69652057726974654F626A6563E7
:1024000074202A2A2A202D2D2D3E002E2E2E204EDD
:10241000414B2021002A2A2A2047656E69652057F2
:10242000726974654F626A656374202A2A2A202DB6
:102430002D2D3E002E2E2E2041434B2021002A2AF6
:102440002A2047656E69652057726974654F626A14
:10245000656374202A2A2A202D2D2D3E002A2A2A3F
:102460002047656E69652042616420427974652069
:102470002A2A2A202D2D2D3E203078002056616CEE
:1024800075653A200020496E6465783A20002A2A52
:102490002A2047656E6965205265706F7274204FFF
:1024A000626A656374202A2A2A204F626A6563740F
:1024B0003A20002A2A2A2047656E696520436F6EFC
:1024C0006E6563746564202F2053796E6321202A22
:1024D0002A2A002056616C75653A200020496E64F6
:1024E00065783A20002A2A2A2047656E69652052BD
:1024F00065706F7274204576656E74202A2A2A20D2
:102500004F626A6563743A2000204C656E67746898
:102510003A20002A2A2A2047656E696520526563A1
:102520006569766564204D6167696320446F7562F3
:102530006C65204279746573202A2A2A20496E64CA
:1025400065783A2000204C656E6774683A20002A4E
:102550002A2A2047656E696520526563656976653C
:1025600064204D61676963204279746573202A2A6B
:102570002A20496E6465783A20002A2A2A20476575
:102580006E6965204E414B205265636F76657279A6
:1025900020212121202A2A2A002A2A2A2047656E62
:1025A000696520446973636F6E6E6563746564204A
:1025B00066726F6D20446F4576656E747321202AB4
:1025C0002A2A002A2A2A2047656E696520546F6FDF
:1025D0006B20746F6F206C6F6E6720746F20726554
:1025E0002D656E74657220446F4576656E74732830
:1025F000292C207265647563652064656C6179734C
:1026000020696E20636F64652C2073656C662D7085
:10261000726F74656374696F6E20656E61626C655C
:10262000642E202A2A2A004572726F72205772691E
:10263000746520454550524F4D0053657474696E62
:1026400067732053746F7265640A00204D696E755C
:10265000746573203A0020204C6173742070726995
:102660006E742074696D652D3E20486F75727320FD
:102670003A004C617374207072696E7420647572D4
:102680006174696F6E0A002C205468697264204975
:1026900044206E756D62657220002C205365636F57
:1026A0006E64204944206E756D6265723A20002088
:1026B000204669727374204944206E756D6265729C
:1026C0003A2000554920496E666F726D6174696FDA
:1026D0006E2053657269616C204E756D6265723A49
:1026E0000A00206D2C204531207072696E742064C0
:1026F000697374616E63653A2000206B6D2C204510
:1027000030207072696E742064697374616E6365E1
:102710003A2000206B6D2C2059207072696E742055
:1027200064697374616E63653A2000206B6D2C20C0
:102730005831207072696E742064697374616E63BD
:10274000653A200020432C0A205830207072696EB0
:10275000742064697374616E63653A200020432CB1
:10276000206D61782074656D7020423A200020430E
:102770002C206D61782074656D7020523A20002CF9
:10278000206D61782074656D70204C3A2000682CB3
:10279000207072696E74732066696E69736865640F
:1027A0003A20002C207072696E74696E672074691B
:1027B0006D653A200020207072696E74733A2000B3
:1027C00053544154533A0A0020432C20525F505234
:1027D000494E543A200020432C20525F4245443A4F
:1027E000200020432C20525F52454D4F56453A2041
:1027F000002020525F494E534552543A2000546500
:102800006D70202843293A0A0020432C204C5F5049
:1028100052494E543A200020432C204C5F424544FC
:102820003A200020432C204C5F52454D4F56453AEC
:10283000200020204C5F494E534552543A2000540A
:10284000656D70202843293A0A0020562856657283
:1028500073696F6E292000205228426564207269D6
:1028600067687420736372657729200020204D35D6
:102870003331204C28426564206C65667420736394
:10288000726577292000426564204F66667365741F
:102890007320286D6D293A0A002050285A20707242
:1028A0006F62652900205A20002059200020204D09
:1028B000353330205820004F6666736574732028C6
:1028C0006D6D293A0A00204400204900202D204D3A
:1028D00033303120524947485420500020440020D2
:1028E000490020204D333031204C454654205000C3
:1028F0005049442073657474696E67733A0A002006
:102900005A0020590020204D323036205800486FA0
:102910006D65206F666673657420286D6D293A0AAF
:1029200000204500205A002058002042002054007A
:1029300020204D323035205300416476616E63654E
:1029400064207661726961626C65733A20533D4D13
:10295000696E20666565647261746520286D6D2FEF
:1029600073292C20543D4D696E2074726176656C1C
:1029700020666565647261746520286D6D2F73290A
:102980002C20423D6D696E696D756D207365676DB4
:10299000656E742074696D6520286D73292C20582C
:1029A0003D6D6178696D756D205859206A65726B4F
:1029B00020286D6D2F73292C20205A3D6D61786978
:1029C0006D756D205A206A65726B20286D6D2F73AE
:1029D000292C2020453D6D6178696D756D2045205D
:1029E0006A65726B20286D6D2F73290A00205400D0
:1029F00020204D323034205300416363656C657292
:102A00006174696F6E3A20533D616363656C6572F2
:102A10006174696F6E2C20543D72657472616374C9
:102A200020616363656C65726174696F6E0A002072
:102A30004500205A0020590020204D3230312058C6
:102A4000004D6178696D756D20416363656C6572D9
:102A50006174696F6E20286D6D2F7332293A0A00F8
:102A6000204500205A0020590020204D32303320CC
:102A700058004D6178696D756D2066656564726199
:102A800074657320286D6D2F73293A0A0020450064
:102A9000205A0020590020204D393220580053740C
:102AA0006570732070657220756E69743A0A004D06
:102AB000313037004E6577206C617965722064652E
:102AC0007465637465640A003B206C61796572000B
:102AD0003B4C4159455200256920686F757273203F
:102AE0002569206D696E7574657300446F6E65208D
:102AF0007072696E74696E672066696C650A004D54
:102B00003333005061757365207061726B696E6755
:102B10000A00473639005072696E7465722073740A
:102B20006F707065642064756520746F20657272C3
:102B30006F72732E20466978207468652065727202
:102B40006F7220616E6420757365204D39393920AC
:102B5000746F20726573746172742E202854656DD1
:102B60007065726174757265206973207265736532
:102B7000742E205365742069742061667465722018
:102B800072657374617274696E67290A006F6B0AEB
:102B9000004E6F204C696E65204E756D6265722027
:102BA0007769746820636865636B73756D2C204C5E
:102BB000617374204C696E653A20004E6F20436843
:102BC00065636B73756D2077697468206C696E65D9
:102BD000206E756D6265722C204C617374204C6997
:102BE0006E653A2000636865636B73756D206D696F
:102BF000736D617463682C204C617374204C696E32
:102C0000653A20004C696E65204E756D62657220D4
:102C10006973206E6F74204C617374204C696E650B
:102C2000204E756D6265722B312C204C61737420BF
:102C30004C696E653A20004D31313000CDAC034413
:102C40000080934300005243000000000000000099
:102C5000000000007C3C3E5E2B3D3F2F5B5D3B2C2B
:102C60002A225C006563686F3A004D3234004D32B1
:102C700033202573006175746F25692E6700496ED6
:102C80007374616C6C202564202573206F6E207432
:102C9000686520257320686F74656E642E00504946
:102CA00044204175746F74756E652066696E697332
:102CB000686564210A00504944204175746F747539
:102CC0006E65206661696C6564212074696D656F4D
:102CD00075740A0020403A006F6B20543A006F6B05
:102CE00020423A00504944204175746F74756E65F6
:102CF000206661696C6564212054656D7065726140
:102D00007475726520746F6F20686967680A0020A7
:102D10004B643A2000204B693A2000204B703A2047
:102D20000020436C617373696320504944200A009A
:102D30002054753A2000204B753A2000206D6178B0
:102D40003A2000206D696E3A200020643A2000206D
:102D5000626961733A20003B20472D436F64652010
:102D600067656E6572617465642062792053696D70
:102D7000706C6966793344285229205665727369EC
:102D80006F6E2025640053746F72656420736574E0
:102D900074696E6773207265747269657665640A1A
:102DA0000048617264636F646564204465666175A0
:102DB0006C742053657474696E6773204C6F616422
:102DC00065640A0048617264636F646564204361EE
:102DD0006C696220616E64205049442044656661DC
:102DE000756C742053657474696E6773204C6F61E1
:102DF0006465640A004736392041435449564154BA
:102E000045440A009D02930211241FBECFEFD1E278
:102E1000DEBFCDBF00E00CBF18E0A0E0B2E0EAE307
:102E2000F4E903E00BBF02C007900D92A232B10794
:102E3000D9F72DE1A2E2B8E001C01D92AB3BB20789
:102E4000E1F717E1C3E0D7E100E006C021970109EF
:102E5000802FFE010F94FEC6C230D10780E0080724
:102E6000A9F70F9419A80D940CCA0C9400002F9286
:102E70003F924F925F926F927F928F929F92AF920A
:102E8000BF92CF92DF92EF92FF920F931F93CF9357
:102E9000DF93CDB7DEB7C352D1400FB6F894DEBF93
:102EA0000FBECDBF2DB73EB7CE5DDE4F3983288331
:102EB000C252D14011E010937608809158088111D8
:102EC0000CC00E9439DF60935408709355088093BA
:102ED0005608909357081093580880914C08811118
:102EE0000DC00E9439DF60934808709349088093B1
:102EF0004A0890934B0881E080934C0890910C1AFB
:102F000040919702509198026091990270919A02B3
:102F1000911106C080910D1A882311F40C9430226F
:102F2000453A51056105710509F44DC60CF0C3C061
:102F3000473551056105710509F4BAC40CF05EC04E
:102F4000413251056105710511F40C94482034F5A6
:102F5000413151056105710509F4FCC774F4413034
:102F600051056105710509F4E8C24031510561055B
:102F7000710509F4BBC10C94DD5C43315105610559
:102F8000710509F47DC40CF49BC440325105610500
:102F9000710511F40C9457200C94DD5C41345105FB
:102FA0006105710509F4DBC4ACF4453351056105D5
:102FB000710511F40C94FC204D3351056105710528
:102FC00009F4F4C3413351056105710511F00C9406
:102FD000DD5C31C4463451056105710509F4C3C493
:102FE000433551056105710509F4C3C244345105E7
:102FF0006105710509F495C70C94DD5C47395105ED
:103000006105710511F40C94E2204CF54637510529
:103010006105710509F476C474F4483551056105FC
:10302000710509F4E9C34A3551056105710509F4D3
:1030300016C60C94DD5C4E3751056105710509F427
:103040008DC1493851056105710509F443C24B37FB
:1030500051056105710511F00C94DD5C00C64C3919
:1030600051056105710511F40C9478209CF44A39DE
:1030700051056105710511F40C94662014F00C944F
:103080006F20483951056105710511F40C94D12068
:103090000C94DD5C433A51056105710509F480C566
:1030A0000CF0B7C54D3951056105710511F40C944B
:1030B000A5200C94DD5C4F3E51056105710509F4B6
:1030C00072C20CF088C0433D51056105710511F4D1
:1030D0000C94EC21BCF5483A51056105710509F4E1
:1030E000ABC504F5463A51056105710509F400C503
:1030F000473A51056105710511F00C94DD5C809132
:103100006F0890917008A0917108B0917208916059
:1031100080936F0890937008A0937108B093720821
:103120000C94DD5C4A3A51056105710509F40CC542
:103130000CF45CC54E3B51056105710509F46EC385
:103140000C94DD5C453E51056105710509F40FC421
:1031500014F5433E51056105710509F41BC40CF0DB
:103160006AC4423E51056105710511F00C94DD5CA5
:1031700080916F0890917008A0917108B0917208C9
:10318000826080936F0890937008A0937108B09349
:1031900072080C94DD5C4D3E51056105710509F422
:1031A0000BC10CF0C2C14A3E51056105710511F019
:1031B0000C94DD5C40E050E06EE681E20F94865AAC
:1031C0008091470A9091480A92609093480A8093B0
:1031D000470A0C94DD5C4B3F51056105710509F40C
:1031E00005C484F5473F51056105710509F436C4EE
:1031F000A4F4423F51056105710509F4BAC1463F87
:1032000051056105710509F44EC4413F5105610541
:10321000710511F00C94DD5C90C180916F08909164
:103220007008A0917108B09172082091C602309187
:10323000C702493F51056105710509F498C40CF4B2
:103240006AC4BBC34E3631E053076105710509F40A
:10325000A8C0B4F5483691E059076105710509F435
:10326000C2C74A36A1E05A076105710509F499C041
:10327000453651406105710511F00C94DD5C40E06C
:1032800050E06AE28AE00F94865A40E050E064E53C
:1032900081E20F94865A81E08093EB111092EE1137
:1032A00064EC78E086E20F94945B8091470A9091F9
:1032B000480A98609093480A8093470A0C94DD5C12
:1032C0004937E1E05E076105710509F43FC64538FD
:1032D000F1E05F076105710509F46CC148375140A1
:1032E0006105710511F00C94DD5C9CC58091230291
:1032F000813419F541E050E066E08BE10F94865A85
:1033000041E050E060E181E20F94865A41E050E0F4
:1033100062E181E20F94865A41E050E063E181E28C
:103320000F94865A41E050E06EE781E20F94865A8E
:1033300084E4809323020C94DD5C843411F00C94BB
:10334000DD5C8091470A9091480A80649093480A16
:103350008093470A1092EB110C94DD5C40E050E042
:1033600066E08BE10F94865A40E050E060E181E234
:103370000F94865A40E050E062E181E20F94865A51
:1033800040E050E063E181E20F94865A40E050E073
:103390006EE781E20F94865A81E4809323020C94B5
:1033A000DD5C8091470A9091480A92609093480AA8
:1033B0008093470A0C94DD5C80912302823419F5D6
:1033C00083E48093230241E050E063E08BE10F94BB
:1033D000865A41E050E067E581E20F94865A41E069
:1033E00050E066E781E20F94865A41E050E06DEECE
:1033F00081E20F94865A41E050E069E881E20F943F
:10340000865A0C94DD5C833411F00C94DD5C11E081
:1034100010936B0840E050E068E981E20F94865A0F
:1034200040E050E067E981E20F94865A40E050E0C6
:103430006CE981E20F94865A40E050E06DE981E248
:103440000F94865A41E050E06AE481E20F94865A74
:1034500040E050E06CE28AE00F94865A1093EE113F
:103460008FEF9FEF909379028093780240E050E0D5
:103470006AE981E20F94865A40E050E06BE981E20C
:103480000F94865A6091991D70919A1D80919B1D91
:1034900090919C1D0F9426C4AB0166E289E00F94C5
:1034A000865A60919D1D70919E1D80919F1D9091E7
:1034B000A01D0F9426C4AB0167E289E00F94865AE1
:1034C00040E050E068E289E00F94865A1092EB11D8
:1034D0000C94DD5C80912302833411F00C94DD5C4C
:1034E00082E48093230240E050E063E08BE10F949C
:1034F000865A40E050E067E581E20F94865A40E04A
:1035000050E066E781E20F94865A40E050E06DEEAD
:1035100081E20F94865A40E050E069E881E20F941E
:10352000865A1092EE110C94DD5C40E050E064E5A8
:103530008AE00F94865A0C94DD5C1092EB1180E0C7
:103540000F94CF338091470A9091480A82609093FC
:10355000480A8093470A81E08093F21140E050E0EE
:1035600068E08AE00F94865A81E48093F3110C940A
:10357000DD5C80914C0A882311F40C94DD5C41E001
:1035800050E08091490A8A3011F440E050E066E151
:103590008BE10F94865A40E050E062E58AE00F9498
:1035A000865A0C94DD5C89E480931D020F94128589
:1035B0000C94DD5C8091A91D9091AA1D9093BA1185
:1035C0008093B9110F941E3F8091AB1D9091AC1D5B
:1035D0009093BC118093BB110F941E3F82E48093A3
:1035E000230282E580931D0281E08093EE11109208
:1035F000EB118091490AE1E08A3009F4E0E0E093C0
:10360000040AF0E0EE0FFF1FE754FE4E20813181E7
:1036100030934708209346088A3029F480916C1132
:1036200090916D1104C080917011909171119183EE
:1036300080830F941E3F81E48093F31140E050E0BB
:1036400068E08AE00F94865A40E050E064E581E249
:103650000F94865A80E090E0A3E4B3E48093DC11F9
:103660009093DD11A093DE11B093DF118090F009EB
:103670009090F109A090F209B090F3092091D8112F
:103680003091D9114091DA115091DB116091D41130
:103690007091D5118091D6119091D711E7EC6E2ED3
:1036A000E1E17E2E7F926F92F0EECF2EF1E1DF2EE0
:1036B000E12CF12C03E413E40E9442C60F948442EF
:1036C00080E090E0A0E2B1E48093D8119093D9110A
:1036D000A093DA11B093DB118090EC099090ED0982
:1036E000A090EE09B090EF09E090DC11F090DD11B0
:1036F0000091DE111091DF116091D4117091D511FC
:103700008091D6119091D7117F926F9220E030E096
:1037100040E251E40E9442C60F9484420F900F9001
:103720000F900F908091F3118E3411F40C94F129C5
:103730001092F3110E94566440E050E060E289E08C
:103740000F94865A40E050E064E28AE00F94865A73
:103750000091040A10E0F801EE0FFF1FEE0FFF1FAB
:10376000E756F24E60817181828193810F9426C465
:103770007093690860936808000F111FF801E754FF
:10378000FE4E808191810A97909367088093660826
:10379000109265081092640889E48093F3110E94E6
:1037A000566481E080936A080C94DD5C809123026A
:1037B00040E050E0813441F469E08AE00F94865A99
:1037C00064EC78E082E007C06AE28AE00F94865AEF
:1037D00064EC78E086E20F94945B8091470A9091C4
:1037E000480A98609093480A8093470A1092EE1115
:1037F0001092EB110C94DD5C80914F0981110C94B7
:10380000DD5C80910D1A81110C94DD5C40E050E08C
:1038100069E38AE00F94865A0C94DD5C80914F092D
:1038200081110C94DD5C40E050E061E08AE00F948F
:10383000865A0C94DD5C80914F0981110C94DD5CFB
:1038400010912302113411F00C94DD5C1092EB11F5
:1038500010920C1A81E080930D1A40E050E068E06D
:103860008AE00F94865A1093F3118091470A909141
:10387000480A94609093480A8093470A0C94DD5C50
:1038800080912302813439F440E050E061E08AE025
:103890000F94865AADCF843409F0AACF8091470A9D
:1038A0009091480A90619093480A8093470AA0CF6C
:1038B00080912302823441F3833409F099CFEECF13
:1038C00080912302992369F0813459F48091470A49
:1038D0009091480A88609093480A8093470A0C9414
:1038E000DD5C843411F00C94DD5C8091470A90918A
:1038F000480A80689093480A8093470A1092EB1117
:103900000C94DD5C80910D1A882311F40C94DD5C1D
:1039100080912302823459F48091470A9091480A99
:1039200080619093480A8093470A0C94DD5C83344D
:1039300011F00C94DD5C40E050E066E18AE00F9409
:10394000865A41E050E064E581E20F94865A82E5B0
:1039500080931D0281E08093EE110C94DD5C0F9446
:1039600022080C94DD5C0F94AC070C94DD5C809114
:103970006F0890917008A0917108B09172088460EE
:1039800080936F0890937008A0937108B0937208A9
:103990000C94DD5C80916F0890917008A091710883
:1039A000B0917208886080936F0890937008A0931C
:1039B0007108B09372080C94DD5C2330310559F422
:1039C000A16080936F0890937008A0937108B093E2
:1039D00072080C94DD5C846080936F08909370088B
:1039E000A0937108B09372080C94DD5C2091C6021C
:1039F0003091C70280916F0890917008A091710872
:103A0000B09172082330310559F4A26080936F0899
:103A100090937008A0937108B09372080C94DD5CC9
:103A2000886080936F0890937008A0937108B0939A
:103A300072080C94DD5C80916F0890917008A091E1
:103A40007108B0917208816080936F08909370083C
:103A5000A0937108B09372080C94DD5C2091C602AB
:103A60003091C70280916F0890917008A091710801
:103A7000B09172082330310559F4906180936F083A
:103A800090937008A0937108B09372080C94DD5C59
:103A9000816080936F0890937008A0937108B09331
:103AA00072080C94DD5C2091C6023091C7028091AF
:103AB0006F0890917008A0917108B091720823303E
:103AC000310559F4906280936F0890937008A09329
:103AD0007108B09372080C94DD5C826080936F086B
:103AE00090937008A0937108B09372080C94DD5CF9
:103AF00080916F0890917008A0917108B091720840
:103B0000806280936F0890937008A0937108B093BF
:103B100072080C94DD5C2330310559F49064809375
:103B20006F0890937008A0937108B09372080C947A
:103B3000DD5C806280936F0890937008A093710899
:103B4000B09372080C94DD5C80916F0890917008BE
:103B5000A0917108B0917208806180936F08909372
:103B60007008A0937108B09372080C94DD5C233048
:103B7000310559F4906880936F0890937008A09372
:103B80007108B09372080C94DD5C806180936F08BB
:103B900090937008A0937108B09372080C94DD5C48
:103BA00080916F0890917008A0917108B09172088F
:103BB000806480936F0890937008A0937108B0930D
:103BC00072080C94DD5C80916F0890917008A09150
:103BD0007108B0917208806880936F0890937008A4
:103BE000A0937108B09372080C94DD5C80916F080B
:103BF00090917008A0917108B091720892608093C2
:103C00006F0890937008A0937108B09372080C9499
:103C1000DD5C80916F0890917008A0917108B0915F
:103C20007208946080936F0890937008A093710855
:103C3000B09372080C94DD5C80916F0890917008CD
:103C4000A0917108B0917208986080936F0890936A
:103C50007008A0937108B09372080C94DD5C4A352B
:103C600051056105710519F41092040A03C081E041
:103C70008093040A8091040AE82FF0E0EE0FFF1F02
:103C8000E754FE4E20813181309347082093460847
:103C9000811105C080916C1190916D1104C08091CB
:103CA000701190917111918380830F941E3F81E474
:103CB0008093F31140E050E068E08AE00F94865A68
:103CC00040E050E064E581E20F94865A80E090E0A5
:103CD000A3E4B3E48093DC119093DD11A093DE1193
:103CE000B093DF118090F0099090F109A090F20953
:103CF000B090F3092091D8113091D9114091DA1187
:103D00005091DB116091D4117091D5118091D61131
:103D10009091D711E7EC6E2EE1E17E2E7F926F92AB
:103D2000F0EECF2EF1E1DF2EE12CF12C03E413E4D1
:103D30000E9442C60F94844280E090E0A0E2B1E489
:103D40008093D8119093D911A093DA11B093DB111D
:103D50008090EC099090ED09A090EE09B090EF09E9
:103D6000E090DC11F090DD110091DE111091DF1177
:103D70006091D4117091D5118091D6119091D71185
:103D80007F926F9220E030E040E251E40E9442C610
:103D90000F9484420F900F900F900F908091F31129
:103DA0008E3411F40C94F1291092F3110E94566490
:103DB00040E050E060E289E00F94865A40E050E035
:103DC00064E28AE00F94865A0091040A10E0F80138
:103DD000EE0FFF1FEE0FFF1FE756F24E608171815D
:103DE000828193810F9426C4709369086093680858
:103DF000000F111FF801E754FE4E808191810A9750
:103E00009093670880936608109265081092640882
:103E100089E48093F3110E94566481E080936A08DC
:103E20000C94DD5C40E050E060E289E00F94865A3B
:103E300040E050E064E28AE00F94865A89E480937F
:103E4000F3110E9456640091040A01111DC0809173
:103E50006E1190916F116091851D7091861D68178C
:103E600079072CF4BC01990F880B990B04C0072E1D
:103E7000000C880B990B0F94F1BB0F9426C4709320
:103E8000BA116093B91120C0809172119091731191
:103E900060917F1D7091801D681779072CF4BC011B
:103EA000990F880B990B04C0072E000C880B990BF7
:103EB0000F94F1BB10E0000F111F07541E4E0F941A
:103EC00026C4D8016D937C930F941E3F0091040A81
:103ED00010E0F801EE0FFF1FEE0FFF1FE756F24E46
:103EE00060817181828193810F9426C470936908E7
:103EF00060936808000F111FF801E754FE4E80819F
:103F000091810A97909367088093660810926508DC
:103F1000109264080E94566481E080936A080C94B1
:103F2000DD5C80918B02882311F40C94EB5C809112
:103F3000040A811102C08AE101C086E30E94A8DD63
:103F4000892B11F00C94EB5C0C94DD5C0F94C47F16
:103F50000C94DD5C80916D0881FF02C00C94DD5CE7
:103F60009091270A8091260A98130C946C5E40E089
:103F700050E06BE084E10F94865A40E050E065E148
:103F80008AE00F94865A82E48093F311809373122F
:103F9000E091040A34E0E39FF0011124E555FD4F60
:103FA00060817181828193816093D4117093D51166
:103FB0008093D6119093D711E090DC11F090DD1131
:103FC0000091DE111091DF112091D8113091D9119B
:103FD0004091DA115091DB11E4E0FAE0FF93EF93A6
:103FE000812C912CE8E4AE2EE3E4BE2EF0EECF2E31
:103FF000F1E1DF2E0E9442C6E090DC11F090DD116D
:104000000091DE111091DF112091D8113091D9115A
:104010004091DA115091DB11E091C71164E0E69F05
:10402000F0011124E555FD4F6081718182819381FA
:104030000F94165CE091C71184E0E89FF001112411
:10404000E555FD4F80819181A281B3818093D41188
:104050009093D511A093D611B093D711E091040A93
:10406000F0E0EE0FFF1FE754FE4E8091460890915E
:104070004708918380830F941E3F10924C0A0F943F
:10408000844281E00F94D9020F900F900C94DD5C74
:1040900080916D0881FF02C00C94DD5C9091270A2D
:1040A0002091260A29130C94705E0C94735E809103
:1040B0006D0881FF02C00C94DD5C9091270A20916D
:1040C000260A29130C94705E0C94775E9091270A4F
:1040D0008091260A98130C94DD5C0C947B5E909181
:1040E000270A8091260A98130C94DD5C0C94065FD5
:1040F000E0917802F0917902EF3F9FEFF90711F418
:104100000C94DD5CEE0FFF1FE754FE4E8081918121
:104110008B33A1E09A0714F00C94DD5C0596918333
:1041200080830F941E3F0F941E3FE0917802F09120
:104130007902EE0FFF1FE754FE4E4081518168E285
:1041400089E00F94865A0C94DD5CE0917802F0913E
:104150007902EF3FBFEFFB0711F40C94DD5CEE0F2B
:10416000FF1FE754FE4E808191811816190614F046
:104170000C94DD5C0597918380830F941E3F0F9410
:104180001E3FE0917802F0917902EE0FFF1FE75495
:10419000FE4E4081518168E289E00F94865A0C946A
:1041A000DD5C8091780290917902019611F40C9473
:1041B000DD5C9091270A8091260A98130C94705E1A
:1041C0000C94945F8091780290917902019611F499
:1041D0000C94DD5C9091270A8091260A98130C9428
:1041E000705E0C949A5F9091270A8091260A98132A
:1041F0000C94DD5C0C94A05F80917312823411F0FA
:104200000C94DD5C1092F3118091470A9091480A5A
:104210008D7F9093480A8093470A80911D028235D2
:1042200031F489E480931D020F941285D1C0893442
:1042300009F0CEC081E48093F31140E050E068E0E3
:104240008AE00F94865A4090E3085090E40860900A
:10425000E5087090E6084092D8115092D91160920A
:10426000DA117092DB1120E030E040E752E4609117
:104270005E0270915F0280916002909161020F94E2
:104280007AC34B015C01E090DC11F090DD110091EC
:10429000DE111091DF116091D4117091D5118091D0
:1042A000D6119091D71127EC31E13F932F9320EE57
:1042B000C22E21E1D22EA30192010E9442C60F9488
:1042C00084420F900F908091F3118E3411F40C946E
:1042D000F12920E030E040E251E46091E70870917C
:1042E000E8088091E9089091EA080F948CC27B015C
:1042F0008C016093DC117093DD118093DE1190933B
:10430000DF118091DE0889838090620290906302C1
:10431000A0906402B09065022091D8113091D9111B
:104320004091DA115091DB116091D4117091D51147
:104330008091D6119091D711FE013196FF93EF93A2
:104340000E9442C60F9484420F900F908091F31107
:104350008E3411F40C94F1291092F31182E48093BD
:10436000230240E050E063E08BE10F94865A40E086
:1043700050E067E581E20F94865A40E050E066E73E
:1043800081E20F94865A40E050E06DEE81E20F9496
:10439000865A40E050E069E881E20F94865A40E096
:1043A00050E06AE28AE00F94865A81E08093EB1134
:1043B0001092EE1164EC78E086E20F94945B8091A9
:1043C000470A9091480A98609093480A8093470A58
:1043D000109273120C94DD5C809138111092F311DD
:1043E0008823E9F0109238118091470A9091480A89
:1043F00098609093480A8093470A8091230240E096
:1044000050E0813431F469E08AE00F94865A0C94CC
:10441000DD5C6AE28AE00F94865A0C94DD5C1092AF
:104420007A111092EE11EBE8F8E084918F01882365
:1044300051F0082E000C990B0F94D67B0F5F1F4F85
:10444000F8018491F4CF1092750881E00F94D9029D
:1044500040E050E065E08AE00F94865A0C94DD5C01
:104460008091BF08282F287083FF90C39091C308C4
:10447000923008F48BC3413B51056105710509F485
:10448000A8C0B4F5443651056105710509F4A1C110
:10449000A4F44E3551056105710509F4F0C24F359C
:1044A00051056105710509F41CC3453351056105CA
:1044B000710511F00C94DD5C27C3403A510561058C
:1044C000710509F4C8C0423A51056105710509F446
:1044D0006AC0433851056105710511F00C94DD5C2B
:1044E00040E050E06DE68AE00F94865A0C94DD5C63
:1044F0004233F1E05F076105710509F45CC13CF5E9
:10450000453C51056105710509F479C04C3C5105E4
:104510006105710509F489C0423B510561057105CA
:1045200011F00C94DD5C0F948E0741E050E062EBDB
:1045300081E20F94865A41E050E060EA81E20F94F4
:10454000865A10924402109243020C94DD5C46336A
:1045500031E053076105710509F417C1ACF4433329
:1045600051406105710511F00C94DD5C8DEF9FEFFA
:10457000909375128093741240E050E06AE08AE0F4
:104580000F94865A0C94DD5C4E37A1E05A07610502
:10459000710509F4F2C1483851406105710509F40B
:1045A00024C10C94DD5C0F948E0741E050E062EA78
:1045B00081E20F94865A41E050E060EA81E20F9474
:1045C000865A8EEF9FEF90934402809343020C949F
:1045D000DD5C0F948E0741E050E061EB81E20F94C7
:1045E000865A41E050E060EA81E20F94865A8FEFEC
:1045F0009FEF90934402809343020C94DD5C0F94F0
:104600008E0741E050E065EC81E20F94865A41E06C
:1046100050E060EA81E20F94865A81E090E0909346
:104620004402809343020C94DD5C0F948E0741E0BA
:1046300050E06CEC81E20F94865A41E050E060EA71
:1046400081E20F94865A82E090E090934402809336
:1046500043020C94DD5C00914302109144029801E6
:104660002E5F3F4F2530310510F00C94DD5C923009
:10467000D9F583E08093C30840E050E061E18AE02F
:104680000F94865A80E58093F3118091C008800FC3
:104690008093C00800E010E020E030E04CE553ECEF
:1046A00060E070E088E393EC0F940D9F0F948E0709
:1046B00080E697E0909344028093430240E050E00C
:1046C00060EA81E20F94865A42E050E06CE08BE1B0
:1046D0000F94865A40E050E069E18AE00F94865AD0
:1046E0001092F3110C94DD5C9330D9F584E0809343
:1046F000C30840E050E061E18AE00F94865A80E50B
:104700008093F3118091C108800F8093C10800E06D
:1047100010E020E030E04CE553EC60E070E080E435
:1047200093E40F940D9F0F948E0780E697E090938B
:1047300044028093430240E050E060EA81E20F943B
:10474000865A42E050E06CE08BE10F94865A40E0DC
:1047500050E069E18AE00F94865A1092F3110C94AC
:10476000DD5C943011F00C94DD5C8091C208800F08
:104770008093C20840E050E06EE28AE00F94865ACF
:104780008FE48093F3110C94DD5C0F948E0740E06E
:1047900050E060EA81E20F94865A40E050E069E11F
:1047A0008AE00F94865A80E697E0909344028093C3
:1047B00043020C94DD5C83E090E09093751280934B
:1047C000741240E050E06AE08AE00F94865A0C943C
:1047D000DD5C109275121092741240E050E06AE0B5
:1047E0008AE00F94865A0C94DD5C40E050E068E06B
:1047F0008AE00F94865A81E48093F31141E061E0EE
:1048000081E00E94FDD71092F3110F9484420F941F
:10481000A281109174128091C3088230B1F540E0FA
:1048200050E061E18AE00F94865A80E58093F311AD
:104830000091C008010F0093C008002E000C110B5E
:1048400020E030E0A901CA01B9010F940D9F0F9437
:104850008E0780E697E0909344028093430240E005
:1048600050E060EA81E20F94865A42E050E06CE04A
:104870008BE10F94865A40E050E069E18AE00F94A2
:10488000865A1092F3110C94DD5C8330C9F540E038
:1048900050E061E18AE00F94865A80E58093F3113D
:1048A0000091C108010F0093C108002E000C110BEC
:1048B00020E030E04CE553EC60E070E088E393ECFE
:1048C0000F940D9F0F948E0780E697E0909344021B
:1048D0008093430240E050E060EA81E20F94865A00
:1048E00042E050E06CE08BE10F94865A40E050E0EB
:1048F00069E18AE00F94865A1092F3110C94DD5C02
:10490000843011F00C94DD5C40E050E061E18AE01D
:104910000F94865A80E58093F3110091C208010F2D
:104920000093C208002E000C110B20E030E04CE593
:1049300053EC60E070E080E493E40F940D9F0F94DB
:104940008E0780E697E0909344028093430240E014
:1049500050E060EA81E20F94865A42E050E06CE059
:104960008BE10F94865A40E050E069E18AE00F94B1
:10497000865A1092F3110C94DD5C1092F311809121
:10498000C0084091C108042F081B4091C208142F91
:10499000181B602F002E000C770B880B990B0F94BF
:1049A000F1BB2DEC3CEC4CEC5DEB0F94F9B6609355
:1049B0003F09709340098093410990934209612F08
:1049C000012E000C770B880B990B0F94F1BB2DEC8B
:1049D0003CEC4CEC5DEB0F94F9B660933B097093A3
:1049E0003C0980933D0990933E090023A1F040E0EB
:1049F00050E06FE18AE00F94865A07FF07C0E02F6E
:104A0000FF27E1950CF4F09508E00E0F402F000F02
:104A1000550B64E015C01123B9F040E050E060E2AE
:104A20008AE00F94865A17FF07C0212F332721955C
:104A30000CF4309518E0120F412F110F550B65E063
:104A40008BE10F94865A11C014E41093731240E066
:104A500050E06BE084E10F94865A40E050E065E15D
:104A60008AE00F94865A1093F31189EE90E09093A8
:104A70003A09809339090F94BB660C94DD5C409130
:104A8000C2088091C008142F181BC1F040E050E00C
:104A900060E28AE00F94865A17FF07C0812F99279A
:104AA00081950CF4909518E0180F412F110F550BBC
:104AB00065E08BE10F94865A0C94DD5C14E410934E
:104AC000731240E050E06BE084E10F94865A40E0BE
:104AD00050E065E18AE00F94865A1093F3110C942C
:104AE000DD5C14E41093731240E050E06BE084E16D
:104AF0000F94865A40E050E065E18AE00F94865AB0
:104B00001093F3110C94DD5C90917312943411F0B6
:104B10000C94DD5C1092C308877F8093BF081092CD
:104B2000F3111092B4111092B3110F94DA3E109257
:104B3000BA111092B9110F941E3F1092BC1110922D
:104B4000BB110F941E3F10927A111092EE11E0E803
:104B5000F8E084918F01882351F0082E000C990B06
:104B60000F94D67B0F5F1F4FF8018491F4CF109202
:104B7000750880E00F94D90240E050E065E08AE0DB
:104B80000F94865A109273120C94DD5C4E38F1E04B
:104B90005F0710F00C94DD5CFA018827EE58FF4F98
:104BA0008F4F0D94FEC68091210290912202826067
:104BB00090932202809321020C94DD5C809121026B
:104BC00090912202846090932202809321020C949F
:104BD000DD5C8091210290912202886090932202F4
:104BE000809321020C94DD5C80912102909122023D
:104BF000806190932202809321020C94DD5C80916D
:104C000021029091220280629093220280932102DD
:104C10000C94DD5C0F942535009781F4809121027E
:104C200090912202946090932202809321028091BD
:104C3000A41181508093A4110C94DD5C019711F0B4
:104C40000C94DD5C809121029091220294609093FB
:104C500022028093210240E050E067E381E20F945A
:104C6000865A40E050E061E08BE10F94865A8091D3
:104C7000A41181508093A4110C94DD5C10927A11E0
:104C80001092EE11E5E7F8E084918F01882351F04E
:104C9000082E000C990B0F94D67B0F5F1F4FF80165
:104CA0008491F4CF1092750881E00F94D90240E00E
:104CB00050E065E08AE00F94865A0C94DD5C8091A8
:104CC0000E1A882311F40C94DD5C41E061E08FE062
:104CD0009AE10F94B8378FEF9FEF9093FD1980936F
:104CE000FC19412C512C32017301620100E010E0EB
:104CF0008BEAA82E89E1B82E9E012F5F3F4F190144
:104D000088248394912C4091AD1C5091AE1C6091ED
:104D1000AF1C7091B01C8091081C9091091CA0914F
:104D20000A1CB0910B1C84179507A607B70708F05B
:104D30006DC0D501E2E31D92EA95E9F70F949C5D01
:104D40000196D9F41092F7191092F6191092F919E8
:104D50001092F81981E090E09093FB198093FA1972
:104D60001092071A1092061A1092091A1092081A35
:104D700080E00F94CF330C94BD5F0115110521F530
:104D80002FEF3FEF3A8329833F922F9247E55DE271
:104D90005F934F93BF92AF920F94CABB89819A8160
:104DA0000F900F900F900F900F900F90019639F089
:104DB0009092FD198092FC1907E010E021C010923A
:104DC000FD191092FC191CC080E00F9465B36B01B3
:104DD0007C0181E00F9465B32B013C0120E030E0C1
:104DE000A901C701B6010F9464C518167CF020E034
:104DF00030E0A901C301B2010F9464C5181634F064
:104E00000F5F1F4F0E3111050CF47DCF80E00F9422
:104E1000CF3320E030E0A901C701B6010F94EBBB0E
:104E200018165CF020E030E0A901C301B2010F9434
:104E3000EBBB181614F00C94BD5F80904502909067
:104E40004602A0904702B0904802A5019401C70114
:104E5000B6010F94EBBB811114C020E030E0A90132
:104E6000C701B6010F9464C518165CF420E030E069
:104E7000A901C301B2010F94EBBB181614F00C94F6
:104E8000BD5F2091490230914A0240914B025091FE
:104E90004C02C65EDE4F288339834A835B83CA5146
:104EA000D140C301B2010F94EBBB81111EC020E0C1
:104EB00030E0A901C301B2010F9464C518165CF477
:104EC00020E030E0A901C701B6010F94EBBB181632
:104ED00014F00C94BD5FA5019401C701B6010F94B5
:104EE000EBBB882311F40C94BD5F20E030E0A901F6
:104EF000C701B6010F94EBBB20E030E040E251E483
:104F000018161CF0C501B40102C0C701B6010F9408
:104F1000F9B60F9426C46093080220E030E0A9019E
:104F2000C301B2010F94EBBB20E030E040E251E45A
:104F300018164CF0C65EDE4F688179818A819B81AC
:104F4000CA51D14002C0C301B2010F94F9B60F9407
:104F500026C46093090240E050E06FE58AE00F94B8
:104F6000865A609145027091460280914702909165
:104F700048020F9426C4AB016DE489E00F94865A71
:104F800020E030E040E251E4609145027091460239
:104F900080914702909148020F94F9B60F9426C46D
:104FA0000AE010E0CB01B8010F94CFC6AC016EE46B
:104FB00089E00F94865A6091490270914A0280916B
:104FC0004B0290914C020F9426C4AB016FE489E030
:104FD0000F94865A20E030E040E251E460914902AB
:104FE00070914A0280914B0290914C020F94F9B655
:104FF0000F9426C4CB01B8010F94CFC6AC0160E575
:1050000089E00F94865A809108021AE0612F0F946C
:10501000AEC6482F880F550B61E589E00F94865A7C
:1050200080910802612F0F94AEC6492F990F550B3E
:1050300062E589E00F94865A80910902612F0F94EE
:10504000AEC6482F880F550B63E589E00F94865A4A
:1050500080910902612F0F94AEC6492F990F550B0D
:1050600064E589E00F94865ABCC180910E1A8823AA
:1050700011F40C94DD5C80915E1A81110C94DD5C5E
:10508000CDB6DEB680917308909174080F943237D4
:10509000EFE0FAE1DF010D900020E9F78DB79EB750
:1050A0008A1B9B0B9C01255F354E0FB6F8943EBFC3
:1050B0000FBE2DBF0DB71EB70F5F1F4FFF93EF93AE
:1050C00085E198E09F938F931F930F930F949CBB60
:1050D000780134E0E30EF11C0F900F900F900F90C9
:1050E0000F900F90D7018C91882349F0082E000C67
:1050F000990B0F947CC9F70181937F01F3CFC8010D
:105100000F944B0381E198E00F94DC020FB6F89402
:10511000DEBE0FBECDBE0C94DD5C81E080937A11C3
:1051200080912102909122029260909322028093BA
:1051300021020C94DD5C8091210290912202916009
:1051400090932202809321020C94DD5C80912102D5
:1051500090912202806890932202809321020C9405
:10516000DD5C40E050E062E18AE00F94865A0C94E6
:10517000DD5C40E050E06CE18AE00F94865A80E00C
:105180000F94D902109237111092361110923511E6
:1051900081E0809375080C94DD5C10927A11109276
:1051A000EE11E6E0F8E084918F01882351F0082E9B
:1051B000000C990B0F94D67B0F5F1F4FF801849161
:1051C000F4CF109275080E94566481E00F94D902C2
:1051D00040E050E065E08AE00F94865A0C94DD5C74
:1051E0008091B9119091BA11892B29F01092BA11BE
:1051F0001092B91108C080916B0990916C0990933D
:10520000BA118093B9110F941E3F109237110C946C
:10521000DD5C8091BB119091BC11892B29F010921B
:10522000BC111092BB1108C0809168099091690966
:105230009093BC118093BB110F941E3F10923611B6
:105240000C94DD5C8091B3119091B411892B29F0FD
:105250001092B4111092B3111CC08091BD089091AE
:10526000BE086091BB087091BC08681779072CF4E0
:10527000BC01990F880B990B04C0072E000C880BFA
:10528000990B0F94F1BB0F9426C47093B4116093E3
:10529000B3110F94DA3E109235110C94DD5C82E06C
:1052A00098E00F94DC020C94DD5C40E050E06EE18D
:1052B0008AE00F94865A0C94DD5C40E050E065E093
:1052C0008AE00F94865A10927A111092EE11E7EF4D
:1052D000F7E084918F01882351F0082E000C990B80
:1052E0000F94D67B0F5F1F4FF8018491F4CF10927B
:1052F000750888E793E09093C5028093C4020F94E9
:10530000BB660C94DD5C40E050E06AE18AE00F94FB
:10531000865A0F942E3280910E1A882311F40C9421
:10532000DD5C8091A3118093A411BBE7EB2EB1E16A
:10533000FB2E1FE8C12E11E1D12E00E010E080917C
:10534000A31190E008171907FCF46FE07AE186E8F2
:105350009AE10F94A3735701D7018D919D917D011F
:105360000F943237F50180819181D6018D939D9301
:105370006D0180915E1A882321F08FE09AE10F94ED
:10538000C73B0F5F1F4FDBCF87E090E00F94938503
:105390000C94DD5C8091C4029091C50280369740E8
:1053A00041F488E793E09093C5028093C4020F9480
:1053B000BB6640E050E068E08AE00F94865A81E4E2
:1053C0008093F311809171098823D1F040E061E06E
:1053D00081E00E94FDD70F9484428091F3118E34B6
:1053E00089F48FEF9FEFDC018093970290939802EE
:1053F000A0939902B0939A02109276080C943164AB
:1054000041E0E5CF81E00F94D9021092F31184EFCF
:1054100097E00F94DC020F9484428091F3118E3454
:1054200001F340E050E06BE08AE00F94865A0C9460
:10543000DD5C40E050E064E08AE00F94865A0C9412
:10544000DD5C40E050E064E28AE00F94865A80918F
:10545000341182608093341189E48093F31140E029
:1054600050E060E289E00F94865A60916B09709178
:105470006C09072E000C880B990B0F94F1BB40E0D0
:1054800050E00F94EE8B0F94BB666BE974E082E8FA
:1054900097E10F94DB7B6EE974E082E897E10F946B
:1054A000DB7B609116037091170380911803909134
:1054B000190342E050E00F94883562EA74E082E814
:1054C00097E10F94DB7B2DEB37E346E05EE36091E1
:1054D0000E0370910F0380911003909111030F94AC
:1054E0007AC342E050E00F94883566EA74E082E8BF
:1054F00097E10F94DB7B2DEB37E346E05EE36091B1
:1055000006037091070380910803909109030F949B
:10551000F9B642E050E00F948835609168097091C7
:105520006909072E000C880B990B0F94F1BB41E021
:1055300050E00F94EE8B0F94BB666BE974E082E849
:1055400097E10F94DB7B6EE974E082E897E10F94BA
:10555000DB7B60911A0370911B0380911C03909177
:105560001D0342E050E00F94883562EA74E082E85F
:1055700097E10F94DB7B2DEB37E346E05EE3609130
:1055800012037091130380911403909115030F94EB
:105590007AC342E050E00F94883566EA74E082E80E
:1055A00097E10F94DB7B2DEB37E346E05EE3609100
:1055B0000A0370910B0380910C0390910D030F94DB
:1055C000F9B642E050E00F9488351092F3110E9432
:1055D000566440E050E06BE084E10F94865A40E06E
:1055E00050E065E18AE00F94865A81E00F94D90279
:1055F00084E4809373128093F3110C94DD5C40E09B
:1056000050E068E28AE00F94865A0C94DD5C40E03A
:1056100050E062E18AE00F94865A0C94DD5C1092AF
:105620007A111092EE11E9EEF7E084918F01882350
:1056300051F0082E000C990B0F94D67B0F5F1F4F73
:10564000F8018491F4CF109275080E94566440E0EE
:1056500050E065E08AE00F94865A0C94DD5C40E0EF
:1056600050E062E18AE00F94865A0C94DD5C82E59A
:1056700080931D028091341181608093341140E049
:1056800050E06BE581E20F94865A40E050E06CE513
:1056900081E20F94865A40E050E060E08BE10F9485
:1056A000865A40E050E06AE781E20F94865A40E073
:1056B00050E069E781E20F94865A40E050E06DE1E6
:1056C0008AE00F94865A8FEF8093040A0C94DD5C75
:1056D00040E050E06CE68AE00F94865A0C94DD5C62
:1056E00040E050E062E18AE00F94865A40E050E0EA
:1056F0006BE581E20F94865A40E050E06CE581E270
:105700000F94865A40E050E060E08BE10F94865A97
:1057100040E050E06AE781E20F94865A40E050E0B2
:1057200069E781E20F94865A809134118E7F8093CD
:1057300034110C94DD5C10927A111092EE11EEEDA2
:10574000F7E084918F01882351F0082E000C990B0B
:105750000F94D67B0F5F1F4FF8018491F4CF109206
:10576000750840E050E065E08AE00F94865A40E01A
:1057700050E06BE581E20F94865A40E050E06CE522
:1057800081E20F94865A40E050E060E08BE10F9494
:10579000865A40E050E06AE781E20F94865A40E082
:1057A00050E069E781E20F94865A809134118E7F30
:1057B000809334110C94DD5C41E050E06BE581E2B4
:1057C0000F94865A40E050E06CE581E20F94865ACF
:1057D00041E050E060E08BE10F94865A41E050E0F8
:1057E0006AE781E20F94865A41E050E069E781E27E
:1057F0000F94865A1092040A0C94DD5C40E050E04D
:105800006BE581E20F94865A41E050E06CE581E25D
:105810000F94865A41E050E060E08BE10F94865A85
:1058200041E050E06AE781E20F94865A41E050E09F
:1058300069E781E20F94865A81E08093040A0C9410
:10584000DD5C8091C4029091C5028036974041F49E
:1058500088E793E09093C5028093C4020F94BB66DF
:105860008091040A8F3F11F40C94DD5C0F94B1B168
:105870000C94DD5C8091C4029091C5028036974003
:1058800041F488E793E09093C5028093C4020F949B
:10589000BB66E091040AEF3F11F40C94DD5C81E0FB
:1058A0008093F111F0E0EE0FFF1FE754FE4E84E00D
:1058B00091E0918380830F941E3F81E48093F311E4
:1058C00040E050E068E08AE00F94865A80917109C8
:1058D000882311F040E001C041E061E081E00E94D6
:1058E000FDD70F9484428091F3118E3409F479CD61
:1058F00080E090E0A3E4B3E48093DC119093DD11A9
:10590000A093DE11B093DF118090F0099090F1091F
:10591000A090F209B090F3092091D8113091D911DB
:105920004091DA115091DB116091D4117091D51131
:105930008091D6119091D711A7EC6A2EA1E17A2E11
:105940007F926F92B0EECB2EB1E1DB2EE12CF12CE9
:1059500003E413E40E9442C60F9484420F900F9018
:105960008091F3118E3409F43CCD80E090E0A0E208
:10597000B1E48093D8119093D911A093DA11B09328
:10598000DB118090EC099090ED09A090EE09B090A9
:10599000EF09E090DC11F090DD110091DE11109123
:1059A000DF116091D4117091D5118091D611909131
:1059B000D7117F926F9220E030E040E251E40E94E4
:1059C00042C60F9484420F900F908091F3118E3451
:1059D00009F407CD8091040A811111C080E090E0A4
:1059E0000F94501780E090E0ADE9B2E48093D411B9
:1059F0009093D511A093D611B093D71120C081E018
:105A000090E00F94501720E030E048EC51E46091B2
:105A1000AF027091B0028091B1029091B2020F94E6
:105A20008BC220E030E046E552E40F948BC26093D5
:105A3000D4117093D5118093D6119093D711E09023
:105A4000DC11F090DD110091DE111091DF11209139
:105A5000D8113091D9114091DA115091DB11609138
:105A6000D4117091D5118091D6119091D711E4E0A5
:105A7000FAE0FF93EF93812C912CE8E4AE2EE3E45F
:105A8000BE2EF0EECF2EF1E1DF2E0E9442C60F9423
:105A900084420F900F908091F3118E3409F4A1CCC1
:105AA0001092F3110E94566440E050E065E28AE0F3
:105AB0000F94865A0C94DD5C80913411877C84604D
:105AC000809334110C94DD5C80913411837D80616E
:105AD000809334110C94DD5C80913411837E80625C
