:100000000C942B170C945C170C945C170C945C17D5
:100010000C945C170C945C170C945C170C945C1794
:100020000C945C170C945C170C945C170C945C1784
:100030000C945C170C945C170C945C170D94CE3BDD
:100040000C945C170C945C170C945C170C945C1764
:100050000C945C170C945C170D94E41C0D94BD1A61
:100060000C945C170C945ECC0C9435CC0C945C17FF
:100070000C945C170C945C170C945C170C945C1734
:100080000C94FDD10C945C170C945C170C945C17C9
:100090000C945C170C945C170C945C170C945C1714
:1000A0000C945C170C945C170C945C170C945C1704
:1000B0000C945C170C945C170C945C170C945C17F4
:1000C0000C945C170C945C170C945C170C9400CC8B
:1000D0000C94D7CB0C945C170C945C170C945C17A5
:1000E0000C945C1709359F572435F6329F57392DEC
:1000F0009F574F2D9F579F57DE3D8E2D9F579F57E0
:1001000068295D299F57D63E9F579F579F57704438
:100110007844F849004A084D9F57BF44FD443B4589
:1001200014469845213F123FE932D645E53A442D21
:10013000DE29192DC932FD40E132E1499C50D93206
:10014000D132E949F1499F5716358044DA3CA44140
:10015000572D892973299F57ED3A792EF14C9F57D6
:10016000F94CB32F084AE637C12C334EA73B7A51DE
:100170004738584A8844104DC82EAE36AE366036E1
:10018000A8380D39D32FA52DBC2D6B2D0430522945
:100190007E299F579F579F57563570309230E72DD5
:1001A0009C407640904498449F44A744AF44B74451
:1001B00049455145594561456945714578458045F1
:1001C00088459045984622460E47E4486E48F847D1
:1001D0009F57014D2F30B530CA3156356D367536C3
:1001E0009336D949704C964CE54CD149DE3CBD293B
:1001F0009E56E2349F579F57E3549F573D40303FF0
:10020000B039DB39063A3B39C539F0391B3A5B3A2C
:10021000463A51343B34D53F03337C33FC331C34F2
:10022000EA546234D134313A9F579F579F579F57B2
:100230009F579F579F579F579F57FD40ED2DF52D77
:100240001B2E2C566856834CB54C084AE54C184D6D
:10025000174E9F5702515F519F50EC50344F8751BA
:100260009F57514F573D3153E63DAC3E74539F5716
:100270009F57075250529B52E65200529451BF5121
:10028000B753B8540B569F579F57C2559F579F5708
:100290001B569F57D02E8C503D4F5B4F21502850FE
:1002A000192D93509F579F579F579F579F579F5761
:1002B0009F579F579F577A578957995792579F57DC
:1002C0009F579F579F579F579F573257427CF87CA5
:1002D000B27D8D7D1C7D8D7D6F7D607C7E7C9C7C68
:1002E000477E657E837EA07EDA7CBA7C517DCC0120
:1002F0002A022602240210021C021402D401F40174
:10030000DE010602DA0130020A021C02D6010202F4
:100310000E0204022802FE01E801E2011602F801C1
:1003200012020802EC01E6010C02FA012C0216028C
:100330001802D0011E02F201E40132022002000282
:10034000D801D201CE01EE012E02FC01084AD73BB2
:100350003BCE016E84BCBFFDC12F3D6C74319ABD94
:1003600056833DDA3D00C77F11BED9E4BB4C3E91B8
:100370006BAAAABE000000803F05A84CCDB2D44EA7
:10038000B93836A9020C50B9918688083CA6AAAAA9
:100390002ABE000000803F000D940C190D94E71D4B
:1003A0000D945C1A0D94E51D0D9417190D943919CF
:1003B0000D94CB1D0D942B190D94002C0D94211927
:1003C0000D9498B60D94F7190D947B1D0D94251A74
:1003D0000D94ED190D94FD960D941B1A0D94E91DC5
:1003E0000D94F5990D946E1D0D941D190D94B5364F
:1003F0000D94011A0D943E1A0D94F31D0D94E319FA
:100400000D94BE1D0D943D190D94D9190D94251907
:100410000D94111A0D9433190D942F1A0D9441193E
:100420000D9408190D94091A0D9413190D94701A4E
:100430000D94521A0D94FE960D9446190D94661A59
:100440000D94A41D0D94CC990D9402190D94FE18D1
:100450000D94DE190D940F190D94481A0D94EB1D8F
:100460000D942F190D94971D4E414E494E495459E4
:10047000494E46CDCCCC3D0AD7233C17B7D138776F
:10048000CC2B329595E6241FB14F0A000020410085
:1004900000C84200401C4620BCBE4CCA1B0E5AAECF
:1004A000C59D746364696E6F70737578585B003BAB
:1004B000202020757365526166742C2564004D36CA
:1004C0003035205325640047333400494E464F3AB7
:1004D000204245442043414C4942202D2000537581
:1004E0007266696E6720300A004732382058302023
:1004F000593000543000543100543000543000530F
:10050000757266696E6720300A00473433004734DD
:100510003300473431004734300047333400473428
:1005200033004734330047343100473430004D380E
:1005300034004D3834004D3834005A32204F66664E
:100540007365743A20004F4B207365636F6E6420AF
:100550004578747275646572210A005A20706F7351
:100560006974696F6E3A20005A20706F73697469FC
:100570006F6E3A20004D3834005A312050726F624D
:1005800065206F66667365743A20004F4B2066697C
:1005900072737420457874727564657221200A0044
:1005A0005A20706F736974696F6E3A20005A207018
:1005B0006F736974696F6E3A200043616C63756C88
:1005C00075733A20200043616C63756C75733A2033
:1005D000200043616C63756C75733A2020004361A1
:1005E0006C63756C75733A20200036302064656743
:1005F00072656573200A0054300054300054300096
:1006000043616C6962726174696F6E2053756363D4
:1006100065737366756C0A005430004A756D7020FE
:100620006F7665722073637265773120616E642026
:10063000736372657732200A004A756D70206F7699
:10064000657220736372657731200A004733340086
:1006500047333400473334005430004733340049C3
:100660004E464F3A204245442043414C4942202DBA
:1006700020004C6F6164696E670A00537572666989
:100680006E6720300A0053757266696E6720300A03
:100690000053757266696E6720300A005075726784
:1006A000652046696C616D656E740A0053757266EB
:1006B000696E6720300A0053757266696E67203074
:1006C0000A00543000466F756E640A0053757266F6
:1006D000696E6720300A004D3334005375726669C5
:1006E0006E6720300A004D3234004D3233202573BE
:1006F000004D3234004D323320257300546865209C
:100700006669727374206C61796572207072696EAB
:100710007465642077697468207468652025732087
:10072000486F74656E640A77696C6C20626520643A
:100730006973746F727465642062792025642E2554
:100740003164253164206D6D0053757266696E6782
:1007500020300A0053757266696E6720300A0053B4
:10076000757266696E6720300A00535543434553DE
:10077000530A004C6F6164696E673A0A00507572E3
:1007800067652046696C616D656E74200A0025738B
:10079000206578747275646572005374617274694F
:1007A0006E67205A2043616C6962726174696F6E72
:1007B0002057697A6172640A002573206578747223
:1007C0007564657200473639204143544956415497
:1007D00045440A000A00205A3A200020593A2000D5
:1007E00020583A200042656400456E642066696CBA
:1007F00065206C6973740A00426567696E206669DA
:100800006C65206C6973740A0047323820583020B8
:100810005930002569206D696E2C2025692073658B
:100820006300426564204865617465640A0020576E
:100830003A004649524D574152455F4E414D453A67
:100840004D61726C696E2042434E33442053696798
:100850006D613B204649524D574152455F564552C6
:1008600053494F4E3A30312D312E332E3052433BC7
:10087000204649524D574152455F55524C3A687493
:100880007470733A2F2F6769746875622E636F6D89
:100890002F42434E33442F42434E33445369676DD6
:1008A000612D4669726D776172653B2050524F54DD
:1008B0004F434F4C5F56455253494F4E3A312E30BD
:1008C0003B204D414348494E455F545950453A42BB
:1008D000434E3344205369676D613B204558545261
:1008E000554445525F434F554E543A323B2055557F
:1008F00049443A007A5F6D696E3A2000795F6D6114
:10090000783A2000785F6D61783A2000785F6D69F1
:100910006E3A2000504F534954494F4E20484F4D96
:10092000453A2000220A00556E6B6E6F776E206389
:100930006F6D6D616E643A202200526561647920AA
:10094000746F2053746172740A0067636F6465206A
:10095000666F756E640A0020746F20537461727440
:1009600020446973706C61792066726F6D205265E6
:1009700073657400546F6F6B2000646973706C61F1
:1009800079206F6E6C696E6521002E00466F726D66
:100990002032210A00526561647920746F204C6F07
:1009A00061642F556E6C6F6164200A005072696E2D
:1009B00074204A6F622046696E6973686564004DF1
:1009C000383420582059205A2045004D3130370006
:1009D00054300053757266696E672030200A0043F8
:1009E000616C6962726174696F6E205375636365CF
:1009F000737366756C0A005430004D3834205820EB
:100A000059205A204500526561647920746F204C4A
:100A10006F61642F556E6C6F6164200A002053541F
:100A20004F50205052494E54200A00473238205827
:100A300030205930004D3335004737300052455390
:100A4000554D45205052494E54204A4F420A0050BD
:100A500041555345205052494E54204A4F420A00B6
:100A60005741524E494E47283838293A2054656D2F
:100A70007065726174757265206E6F742072656145
:100A800063686564206279204865617465725F49B6
:100A9000443A20256400457874727564657220724A
:100AA000656C6561736564206163746976653A207D
:100AB000005A205349474D4120486F6D65640A0034
:100AC0004578747275646572206163746976653AFD
:100AD00020004D3834005374617274696E67205879
:100AE0002043616C6962726174696F6E2057697A24
:100AF0006172640A004D3834005374617274696E17
:100B00006720592043616C6962726174696F6E205D
:100B100057697A6172640A004475616C204D6F6494
:100B200065204F4E0A004475616C204D6972726FEA
:100B300072204D6F6465204F4E0A004475616C2031
:100B40004D6F6465204F46460A00436F6F6C696EB7
:100B50006720446F776E204865617465720A0000F3
:100B60000020002300260029002C002F0032000066
:100B70000100000301060109010505050507050837
:100B8000080808020202020A0A0808040404040110
:100B90000101010101010103030303030303030432
:100BA0000707070C0C0C0C0C0C0C0C0202020206C2
:100BB000060606060606060B0B0B0B0B0B0B0B01B2
:100BC000021020200808102040102040800201025E
:100BD0000108040201010204081020408080402026
:100BE0001008040201800402018040201008040261
:100BF00001080402010102040810204080010204DF
:100C0000081020408000000A0B02090C0D0E080796
:100C100003040100000000000000000000000000CC
:100C200000000000000000000000000000000000C4
:100C30000012111000000000000000000000000081
:100C40000000000000000000000000202D20496E80
:100C500076616C6964206578747275646572206E63
:100C6000756D62657220210A004572726F723A00DA
:100C7000646973706C6179206F66666C696E65007B
:100C800042434E3344205369676D610A00737461B7
:100C900072740A006563686F3A0030312D312E336B
:100CA0002E3052430A006572726F72207772697437
:100CB000696E6720746F2066696C650A00205A3A75
:100CC0000020593A0020583A00656E6473746F70C2
:100CD00073206869743A20006563686F3A0054684D
:100CE000657265206973206E6F742066696C616D32
:100CF000656E74206F6E2074686520726967687411
:100D00002065787472756465720A0054686572654E
:100D1000206973206E6F742066696C616D656E74F6
:100D2000206F6E20746865206C6566742065787429
:100D300072756465720A00446F6E6520736176692E
:100D40006E672066696C652E0A006F6B0A004D3273
:100D5000390024F4D43050C38E20C2A24017828BB5
:100D60007011127A910D816CD90AA861E108C758F7
:100D70006607615143061E4B5D05C145A7041A4134
:100D80001104093D9803713931034036DB026533A4
:100D90009102D4305402802E1D02632CEE01752A7C
:100DA000C501B028A001102781018F2564012B24E3
:100DB0004B01E0223401AC211F018D200D01801F69
:100DC000FC00841EED00971DDF00B81CD200E61B5E
:100DD000C600201BBC00641AB200B219A8000A1990
:100DE000A0006A189900D117910040178B00B51622
:100DF000840031167E00B31579003A157300C714CC
:100E00006F0058146A00EE13660088136300251300
:100E10005E00C7125B006C12570015125400C1111E
:100E2000510070114F0021114B00D61049008D1058
:100E300047004610440002104200C00F4000800FDF
:100E40003E00420F3C00060F3B00CB0E3800930ED5
:100E500037005C0E3500270E3400F30D3200C10D53
:100E60003100900D3000600D2E00320D2D00050D6B
:100E70002C00D90C2B00AE0C2900850C29005C0C31
:100E80002700350C27000E0C2600E80B2400C40BAD
:100E90002400A00B23007D0B23005A0B2100390BEB
:100EA0002100180B2000F80A1F00D90A1E00BB0AF7
:100EB0001E009D0A1D00800A1D00630A1C00470ACF
:100EC0001B002C0A1B00110A1A00F7091A00DD0981
:100ED0001900C4091900AB091900920917007B0910
:100EE0001800630917004C0916003609160020097E
:100EF00016000A091500F5081500E0081400CC08D2
:100F00001400B8081400A4081400900813007D0809
:100F100012006B081300580812004608120034082B
:100F20001100230811001208110001081100F00738
:100F30001000E0071000D0071000C0071000B00735
:100F40000F00A107100091070E0083070F00740720
:100F50000F0065070E0057070E0049070E003B07FC
:100F60000D002E070E0020070D0013070D000607C9
:100F70000D00F9060C00ED060D00E0060C00D4068D
:100F80000C00C8060C00BC060C00B0060C00A40641
:100F90000B0099060C008D060B0082060B007706ED
:100FA0000B006C060B0061060A0057060B004C068E
:100FB0000A0042060A0038060A002E060A00240625
:100FC0000A001A060A001006090007060A00FD05B5
:100FD0000900F4050900EB050900E2050900D9053F
:100FE0000900D0050900C7050900BE050900B505BF
:100FF0000800AD050800A50509009C05080094053A
:1010000008008C050800840508007C0508007405AC
:1010100008006C050700650508005D05070056051A
:1010200008004E0507004705070040050800380581
:101030000700310507002A050700230507001C05E6
:101040000600160507000F05070008050600020543
:101050000700FB040600F5040700EE040600E804A0
:101060000600E2040700DB040600D5040600CF04F6
:101070000600C9040600C3040600BD040600B70448
:101080000600B1040500AC040600A6040600A00496
:1010900005009B04060095040500900406008A04E0
:1010A000050085040500800406007A040500750427
:1010B0000500700405006B0405006604050061046A
:1010C00005005C04050057040500520405004D04AA
:1010D000050048040500430405003E0404003A04EA
:1010E000050035040500300404002C040500270425
:1010F0000400230405001E0404001A04040016045E
:101100000500110404000D04040009040500040492
:10111000040000040400FC030400F8030400F403CA
:101120000400F0030400EC030400E8030400E403FB
:101130000400E0030400DC030400D8030400D4032B
:101140000400D0030400CC030400C8030300C5035B
:10115000030024F404D9201BC40C5C0E9804C409B9
:101160005F0265077101F405F900FB04B300480450
:101170008700C10369005803550003034500BE0200
:101180003A008402310053022A0029022500040299
:101190002000E4011C00C8011900AF0117009801EC
:1011A000140084011300710110006101100051014D
:1011B0000E0043010D0036010B002B010B00200136
:1011C0000B00150109000C01090003010800FB00D8
:1011D0000800F3000800EB000700E4000600DE0052
:1011E0000600D8000600D2000600CC000500C700AB
:1011F0000500C2000500BD000400B9000400B500F0
:101200000400B1000400AD000400A9000400A50022
:101210000300A20003009F0004009B00030098004D
:1012200003009500020093000300900003008D006E
:1012300002008B0003008800020086000200840088
:101240000300810002007F0002007D0002007B009D
:1012500002007900020077000100760002007400AD
:10126000020072000100710002006F0002006D00B8
:1012700001006C0002006A000100690002006700C2
:1012800001006600010065000100640002006200C8
:10129000010061000100600001005F0002005D00CC
:1012A00001005C0001005B0001005A0001005900D0
:1012B00001005800010057000100560001005500D0
:1012C00001005400010053000000530001005200CF
:1012D000010051000100500001004F0001004E00CC
:1012E00000004E0001004D0001004C0001004B00C9
:1012F00000004B0001004A000100490001004800C5
:1013000000004800010047000100460000004600C0
:1013100001004500000045000100440001004300B9
:1013200000004300010042000000420001004100B3
:10133000000041000100400001003F0000003F00AC
:1013400001003E0000003E0001003D0000003D00A5
:1013500001003C0000003C0000003C0001003B009C
:1013600000003B0001003A0000003A000100390093
:10137000000039000100380000003800000038008B
:101380000100370000003700010036000000360081
:101390000000360001003500000035000000350077
:1013A000010034000000340000003400010033006C
:1013B0000000330000003300010032000000320062
:1013C0000000320001003100000031000000310057
:1013D00001003000000030000000300001002F004C
:1013E00000002F0000002F0000002F0001002E0041
:1013F00000002E0000002E0001002D0000002D0036
:1014000000002D0000002D0001002C0000002C0029
:1014100000002C0000002C0001002B0000002B001D
:1014200000002B0000002B0001002A0000002A0011
:1014300000002A0000002A00010029000000290005
:1014400000002900000029000000290001002800F8
:1014500000002800000028000000280000002800EC
:1014600001002700000027000000270000002700DF
:1014700000002700010026000000260000002600D2
:1014800000002600000026000100250000002500C5
:1014900000002500000025000000250000002500B8
:1014A00001002400000024000000240000002400AB
:1014B000000024000100230000002300000023009E
:1014C0000000230000002300000023000000230090
:1014D0000100220000002200000022000000220083
:1014E0000000220000002200010021000000210075
:1014F0000000210000002100000021000000210068
:101500000000210001002000000020000000200059
:10151000000020000000200000002000000020004B
:101520000000200001001F0000001F0000001F003D
:1015300000001F0000001F0000001F0000001F002F
:1015400001001E0000001E0000001E0000001E0022
:101550000000000000000080934300000000000035
:10156000A0400000A0400000004020004D6F7665C4
:1015700020746F3A2000CDCC984300809343000044
:101580005243FF01FF20636F6C64206578747275AD
:1015900073696F6E2070726576656E7465640A009B
:1015A0006563686F3A004572726F72205772697492
:1015B0006520454550524F4D0053657474696E6700
:1015C000732053746F7265640A00204D696E7574E0
:1015D0006573203A0020204C617374207072696E2C
:1015E000742074696D652D3E20486F757273203AC2
:1015F000004C617374207072696E7420647572613E
:1016000074696F6E0A002C20546869726420494422
:10161000206E756D62657220002C205365636F6EBD
:1016200064204944206E756D6265723A2000202066
:101630004669727374204944206E756D6265723A12
:101640002000554920496E666F726D6174696F6E36
:101650002053657269616C204E756D6265723A0A3D
:1016600000206D2C204531207072696E74206469F1
:101670007374616E63653A2000206B6D2C204530D9
:10168000207072696E742064697374616E63653A68
:101690002000206B6D2C2059207072696E742064BC
:1016A000697374616E63653A2000206B6D2C20585D
:1016B00031207072696E742064697374616E636541
:1016C0003A200020432C0A205830207072696E7432
:1016D0002064697374616E63653A200020432C2096
:1016E0006D61782074656D7020423A200020432C93
:1016F000206D61782074656D7020523A20002C2096
:101700006D61782074656D70204C3A2000682C2043
:101710007072696E74732066696E69736865643A85
:1017200020002C207072696E74696E672074696D78
:10173000653A200020207072696E74733A2000535D
:10174000544154533A0A0020432C20525F505249CE
:101750004E543A200020432C20525F4245443A2008
:101760000020432C20525F52454D4F56453A2000F1
:101770002020525F494E534552543A200054656D23
:1017800070202843293A0A0020432C204C5F5052F5
:10179000494E543A200020432C204C5F4245443AA5
:1017A000200020432C204C5F52454D4F56453A2097
:1017B0000020204C5F494E534552543A2000546556
:1017C0006D70202843293A0A002056285665727306
:1017D000696F6E2920002052284265642072696773
:1017E000687420736372657729200020204D35339B
:1017F00031204C28426564206C65667420736372E6
:101800006577292000426564204F666673657473AE
:1018100020286D6D293A0A002050285A2070726FD6
:1018200062652900205A20002059200020204D35D3
:101830003330205820004F66667365747320286D1E
:101840006D293A0A00204400204900202D204D3304
:10185000303120524947485420500020440020494C
:101860000020204D333031204C454654205000504C
:1018700049442073657474696E67733A0A00205A8C
:101880000020590020204D323036205800486F6D1E
:1018900065206F666673657420286D6D293A0A00AD
:1018A000204500205A0020580020420020540020EB
:1018B000204D323035205300416476616E6365649B
:1018C000207661726961626C65733A20533D4D699F
:1018D0006E20666565647261746520286D6D2F7376
:1018E000292C20543D4D696E2074726176656C2000
:1018F000666565647261746520286D6D2F73292C8F
:1019000020423D6D696E696D756D207365676D650B
:101910006E742074696D6520286D73292C20583DE4
:101920006D6178696D756D205859206A65726B20FC
:10193000286D6D2F73292C20205A3D6D6178696DBB
:10194000756D205A206A65726B20286D6D2F732982
:101950002C2020453D6D6178696D756D2045206AAC
:1019600065726B20286D6D2F73290A0020540020AA
:10197000204D323034205300416363656C657261E1
:1019800074696F6E3A20533D616363656C65726183
:1019900074696F6E2C20543D72657472616374209B
:1019A000616363656C65726174696F6E0A002045DE
:1019B00000205A0020590020204D3230312058009C
:1019C0004D6178696D756D20416363656C65726109
:1019D00074696F6E20286D6D2F7332293A0A0020CA
:1019E0004500205A0020590020204D323033205825
:1019F000004D6178696D756D20666565647261740E
:101A0000657320286D6D2F73293A0A002045002048
:101A10005A0020590020204D393220580053746557
:101A200070732070657220756E69743A0A000A003E
:101A300020616E7469686F726172690A3A200020D1
:101A4000686F726172690A20002F3800766F6C74BB
:101A50006573200020566F6C746573206361726734
:101A60006F6C20333A200020616E7469686F726178
:101A700072690A3A200020686F726172690A200058
:101A80002F3800766F6C746573200020566F6C746D
:101A9000657320636172676F6C20323A20000A0020
:101AA00020647A333A200020647A323A200054319C
:101AB000005430005430005430000A0056756974E8
:101AC000656E73333A2020004170726F78333A208C
:101AD0002000566F6C746573333A2020000A00565C
:101AE000756974656E73323A2020004170726F78A8
:101AF000323A202000566F6C746573323A20200011
:101B000056616C6F7220645A333A20200056616C23
:101B10006F7220645A323A2020004E6577206F663B
:101B2000667365742076657273696F6E3A20007A09
:101B3000335F313A20007A325F313A20005A7363C2
:101B4000726F6C6C5F313A20007A335F303A20005C
:101B50007A325F303A20005A7363726F6C6C5F3078
:101B60003A2000706C616E654E6F726D616C5F3112
:101B70002E7A3A2000706C616E654E6F726D616CEA
:101B80005F312E793A2000706C616E654E6F726D18
:101B9000616C5F312E783A2000706C616E654E6F1B
:101BA000726D616C5F302E7A3A2000706C616E65E8
:101BB0004E6F726D616C5F302E793A2000706C61EF
:101BC0006E654E6F726D616C5F302E783A20005AF0
:101BD00076616C756520616674657220686F6D65ED
:101BE0003A00486F6D6520582F59206265666F7204
:101BF00065205A0A005341564544205052494E54DC
:101C00000A007A70726F62653A2000534420636163
:101C10007264206F6B0A006F70656E526F6F742074
:101C20006661696C65640A00766F6C756D652E6916
:101C30006E6974206661696C65640A004572726F32
:101C4000723A00534420696E6974206661696C0AB7
:101C5000006563686F3A004D3234004D3233202501
:101C600073006175746F25692E67007C3C3E5E2BA6
:101C70003D3F2F5B5D3B2C2A225C0070012C0190C4
:101C8000012701B0012201C0011D01F0011801105E
:101C900002130130020E016002090190020401C02A
:101CA00002FF000003FA004003F5008003F000D0BB
:101CB00003EB002004E6007004E100E004DC0040D7
:101CC00005D700C005D2004006CD00D006C8008070
:101CD00007C3003008BE00F008B900C009B400B066
:101CE0000AAF00B00BAA00D00CA500000EA0005057
:101CF0000F9B00C01096005012910000148C00C081
:101D0000158700B0178200B0197D00D01B78000045
:101D10001E730040206E0090226900F02464004091
:101D2000275F0090295A00E02B5500102E5000200C
:101D3000304B0010324600E033410090353C00103B
:101D400037370070383200A0392D00B03A2800A093
:101D50003B2300603C1E00103D1900903D14001014
:101D60003E0F00703E0A00C03E0500003F000048E4
:101D70007973746572657369732074656D706572CB
:101D800061747572650A00546865726D616C2072C9
:101D9000756E617761792070726F74656374696FB5
:101DA0006E206279204865617465725F49443A0A21
:101DB000004572726F72283833293A2042656420D8
:101DC000746865726D6973746F72206E6F742064CD
:101DD000657465637465640A004572726F722838B1
:101DE00032293A20526967687420746865726D6997
:101DF00073746F72206E6F742064657465637465AC
:101E0000640A004572726F72283831293A204C6595
:101E1000667420746865726D6973746F72206E6F7A
:101E200074202064657465637465640A00205354EB
:101E30004F50205052494E54200A004572726F7222
:101E4000283833293A2042656420746865726D69C8
:101E500073746F72206E6F7420646574656374654B
:101E6000640A002053544F50205052494E54200AC7
:101E7000004572726F72283832293A2052696768B9
:101E80007420746865726D6973746F72206E6F74FC
:101E90002064657465637465640A002053544F5070
:101EA000205052494E54200A004572726F722838F1
:101EB00031293A204C65667420746865726D6973C7
:101EC000746F72206E6F742020646574656374652E
:101ED000640A0000002100240027002A002D0030A1
:101EE00000330001010000040107010A0100002283
:101EF00000250028002B002E0031003400020100D4
:101F000000050108010B012E2E2E2054696D656F0E
:101F1000757421002A2A2A2047656E696520577248
:101F20006974654F626A656374202A2A2A202D2D00
:101F30002D3E002E2E2E204E414B2021002A2A2AF3
:101F40002047656E69652057726974654F626A65DE
:101F50006374202A2A2A202D2D2D3E002E2E2E207D
:101F600041434B2021002A2A2A2047656E696520BB
:101F700057726974654F626A656374202A2A2A2041
:101F80002D2D2D3E002A2A2A2047656E69652042A4
:101F900061642042797465202A2A2A202D2D2D3E45
:101FA000203078002056616C75653A200020496E1B
:101FB0006465783A20002A2A2A2047656E696520E0
:101FC0005265706F7274204F626A656374202A2AAA
:101FD0002A204F626A6563743A20002A2A2A204721
:101FE000656E696520436F6E6E6563746564202F4E
:101FF0002053796E6321202A2A2A002056616C75AD
:10200000653A200020496E6465783A20002A2A2A21
:102010002047656E6965205265706F727420457641
:10202000656E74202A2A2A204F626A6563743A20FA
:1020300000204C656E6774683A20002A2A2A2047DF
:10204000656E6965205265636569766564204D61DA
:1020500067696320446F75626C65204279746573AB
:10206000202A2A2A20496E6465783A2000204C658F
:102070006E6774683A20002A2A2A2047656E6965CF
:10208000205265636569766564204D6167696320E8
:102090004279746573202A2A2A20496E6465783A49
:1020A00020002A2A2A2047656E6965204E414B2070
:1020B0005265636F7665727920212121202A2A2AB0
:1020C000002A2A2A2047656E696520446973636F78
:1020D0006E6E65637465642066726F6D20446F4533
:1020E00076656E747321202A2A2A002A2A2A20471C
:1020F000656E696520546F6F6B20746F6F206C6F15
:102100006E6720746F2072652D656E746572204451
:102110006F4576656E747328292C2072656475632B
:10212000652064656C61797320696E20636F6465F6
:102130002C2073656C662D70726F74656374696FA3
:102140006E20656E61626C65642E202A2A2A00501A
:102150004944204175746F74756E652066696E69B7
:1021600073686564210A00504944204175746F7496
:10217000756E65206661696C6564212074696D65A2
:102180006F75740A0020403A006F6B20543A006F5C
:102190006B20423A00504944204175746F74756E4B
:1021A00065206661696C6564212054656D70657297
:1021B000617475726520746F6F20686967680A00C2
:1021C000204B643A2000204B693A2000204B703AA3
:1021D000200020436C617373696320504944200AD6
:1021E000002054753A2000204B753A2000206D6184
:1021F000783A2000206D696E3A200020643A200071
:1022000020626961733A20003B20472D436F64656B
:102210002067656E65726174656420627920536918
:102220006D706C6966793344285229205665727343
:10223000696F6E202564003B5072696E742074696A
:102240006D653A20256420257320256420257320A0
:102250002564202573003B54494D453A256C6400A4
:102260003B2020204275696C642074696D653A20BA
:102270002564202573202564202573003B20202021
:10228000506C6173746963207765696768743A207C
:1022900025642E256467003B46696C616D656E742C
:1022A00020757365643A2025642E25646D202564AD
:1022B0002E256467003B46696C616D656E74207500
:1022C0007365643A20256C642E256C646D0025735B
:1022D00020657874727564657200496E7374616C00
:1022E0006C202564202573206F6E2074686520257E
:1022F0007320686F74656E640025642E2530326427
:102300002073746570732F75005369676D61205277
:102310003138005369676D61205231362F523137A1
:1023200000253033642E25303364253033642E2568
:102330003034640050757267652046696C616D6564
:102340006E740A0053757266696E6720310A005315
:10235000757266696E6720300A00220A00656E7128
:102360007565696E67202200220A00656E717565C9
:10237000696E67202200202F0020400020403A0094
:102380006F6B00457874727564657220486561747E
:1023900065640A0020573A00204500205A00205961
:1023A00000483D5800205A3A0020593A0020436F17
:1023B000756E7420583A200020453A00205A3A00A1
:1023C00020593A00583A00486F74656E64206F6671
:1023D00066736574733A0043617264204E616D6583
:1023E0003A20002F005344207072696E74696E6742
:1023F000206279746520004E6F74205344207072FF
:10240000696E74696E670A002E0A0044656C657413
:10241000696F6E206661696C65642C2046696C6525
:102420003A200046696C652064656C657465643AA1
:10243000002E0A006F70656E206661696C65642C01
:102440002046696C653A20000A0A005374616E6484
:1024500061726420446576696174696F6E3A200028
:102460000A004D65616E3A20000A002020207A3A69
:1024700020000A00793A2000783A20003F53706526
:10248000636966696564206E756D626572206F664A
:10249000206C65677320696E206D6F76656D656E63
:1024A00074206E6F7420706C61757361626C652E40
:1024B0000A003F537065636966696564205920703E
:1024C0006F736974696F6E206F7574206F66207208
:1024D000616E67652E0A003F5370656369666965C2
:1024E00064205820706F736974696F6E206F757403
:1024F000206F662072616E67652E0A003F5370651B
:102500006369666965642073616D706C65207369C9
:102510007A65206E6F7420706C61757361626C6592
:102520002E0A0046756C6C20737570706F72742083
:1025300061743A20687474703A2F2F336470726932
:102540006E74626F6172642E636F6D2F666F727549
:102550006D2E7068700A004D3438205A2D50726FFD
:102560006265205265706561746162696C69747935
:1025700020746573742E20202056657273696F6E07
:1025800020322E30300A003F566572626F7365202C
:102590004C6576656C206E6F7420706C617573612C
:1025A000626C652E0A00504944204175746F747541
:1025B0006E652066696E6973686564212050757464
:1025C00020746865206C617374204B702C204B69FB
:1025D00020616E64204B6420636F6E7374616E744F
:1025E000732066726F6D2061626F766520696E740C
:1025F0006F20436F6E66696775726174696F6E2EC6
:10260000680A00504944204175746F74756E6520E6
:102610006661696C6564212074696D656F75740A03
:102620000020403A006F6B20543A006F6B20423A12
:1026300000504944204175746F74756E6520666161
:10264000696C6564212054656D7065726174757282
:102650006520746F6F20686967680A00204B643AD0
:102660002000204B693A2000204B703A2000204384
:102670006C617373696320504944200A00205475CB
:102680003A2000204B753A2000206D61783A2000F6
:10269000206D696E3A200020643A20002062696152
:1026A000733A2000535441544953544943532052E0
:1026B000455345540A002C2073617665645F466C6F
:1026C00061675F66616E6C617965725F6D69727278
:1026D0006F723A20002C2073617665645F666565D1
:1026E0006472617465313A20002C207361766564F0
:1026F0005F6665656472617465303A20002C2073F2
:10270000617665645F66616E6C617965723A20001E
:102710002C2073617665645F74656D706265643AE0
:1027200020002C2073617665645F74656D70303AAB
:1027300020002C2073617665645F74656D70313A9A
:1027400020002C2073617665645F66696C65706F2C
:10275000736974696F6E3A20002C2073617665642A
:102760005F655F706F736974696F6E3A20002C202B
:1027700073617665645F746F6F6C5F6163746976B3
:10278000653A20002C2073617665645F7A5F706F14
:10279000736974696F6E3A20002C207361766564EA
:1027A0005F795F706F736974696F6E3A20002C20D7
:1027B00073617665645F785F706F736974696F6E5B
:1027C0003A200053415645205052494E54204C4F18
:1027D000473A0A006563686F3A005072696E742068
:1027E0007265636F766572792075700A004E6F743A
:1027F000207072696E74207265636F7665727920DD
:1028000075700A00535543434553530A0056616C93
:10281000756573206F7574206F662072616E6765D1
:102820000A0056616C756573206F7574206F6620A1
:1028300072616E67650A0056616C756573206F750D
:1028400074206F662072616E67650A0056616C7550
:102850006573206F7574206F662072616E67650AFC
:1028600000535543434553530A0056616C756573D5
:10287000206F7574206F662072616E67650A00565E
:10288000616C756573206F7574206F662072616E60
:1028900067650A0056616C756573206F7574206FEB
:1028A000662072616E67650A0056616C75657320FB
:1028B0006F7574206F662072616E67650A005072D2
:1028C000696E7465722068616C7465642E206B6932
:1028D0006C6C28292063616C6C6564210A00457268
:1028E000726F723A00457874727564657220726511
:1028F0006C6561736564206163746976653A200074
:102900005A205349474D4120486F6D65640A004580
:1029100078747275646572206163746976653A20B3
:1029200000496E7374616C6C202564202573206FE0
:102930006E2074686520257320686F74656E64006E
:1029400043616C63756C75733A20200043616C635E
:10295000756C75733A20200043616C63756C7573F8
:102960003A2020002A2A2A2047656E69652044699A
:1029700073636F6E6E65637465642066726F6D203D
:102980004765744E6578744279746521202A2A2A35
:10299000002A2A2A2047656E696520456E61626CAF
:1029A00065204174746163684576656E7448616E34
:1029B000646C657220212121202A2A2A0043616E3D
:1029C0006E6F7420656E74657220737562646972CF
:1029D0003A200057726974696E6720746F206669C7
:1029E0006C653A20002E0A006F70656E2066616982
:1029F0006C65642C2046696C653A20002E0A006FD5
:102A000070656E206661696C65642C2046696C6532
:102A10003A200046696C652073656C656374656473
:102A20000A002053697A653A200046696C65206F78
:102A300070656E65643A20002E0A006F70656E2026
:102A40006661696C65642C2046696C653A20004EAD
:102A50006F772066726573682066696C653A20003E
:102A60004E6F7720646F696E672066696C653A20E7
:102A7000002220706F73002220706172656E743ABC
:102A80002200535542524F5554494E452043414C24
:102A90004C207461726765743A2200747279696EB1
:102AA0006720746F2063616C6C207375622D67639F
:102AB0006F64652066696C6573207769746820743B
:102AC0006F6F206D616E79206C6576656C732E205A
:102AD0004D4158206C6576656C2069733A00205032
:102AE0002000205A200020592000536574204D35C5
:102AF0003330205820004D6F64652032203A206327
:102B000079636C652020202D3E205247423A2036C2
:102B100020737461746573002A2A2D3E20004D6F66
:102B200064652031203A2072616E646F6D20202D23
:102B30003E205247423A202B31202B32202B332C7F
:102B400020647572696E67207072696E74696E6751
:102B5000002A2A2D3E20004D6F64652030203A2047
:102B600064656661756C74202D3E205247423A20A0
:102B70003235352032353520323535002A2A2D3E82
:102B800020004C6564206D6F646573203A004D35FC
:102B90003336204C5B6D6F64655D00486F74656E05
:102BA00064206F6666736574733A0054696D6520BE
:102BB000696E6163746976650A0050757267652095
:102BC00064697374616E63650A005A204F666673A8
:102BD0006574206F6B0A005A204F66667365742017
:102BE0003A200A007A5F6D61783A20007A5F6D6959
:102BF0006E3A20005A204F666673657400504F533A
:102C00004954494F4E20484F4D453A200053746F68
:102C10007265642073657474696E6773207265747D
:102C20007269657665640A0048617264636F646501
:102C3000642044656661756C742053657474696EB4
:102C40006773204C6F616465640A00486172646355
:102C50006F6465642043616C696220616E6420501A
:102C600049442044656661756C74205365747469C9
:102C70006E6773204C6F616465640A004D313037B4
:102C800000473932204530205A3020522564004E0A
:102C90006577206C6179657220646574656374651D
:102CA000640A003B206C61796572003B4C415945D8
:102CB0005200256920686F757273202569206D693F
:102CC0006E7574657300446F6E65207072696E7402
:102CD000696E672066696C650A004D333300506188
:102CE000757365207061726B696E670A00473639CB
:102CF000005072696E7465722073746F70706564D1
:102D00002064756520746F206572726F72732E2057
:102D100046697820746865206572726F7220616EF2
:102D20006420757365204D39393920746F207265C0
:102D300073746172742E202854656D7065726174AD
:102D40007572652069732072657365742E205365F2
:102D50007420697420616674657220726573746191
:102D60007274696E67290A006F6B0A004E6F204CFF
:102D7000696E65204E756D62657220776974682092
:102D8000636865636B73756D2C204C617374204CA4
:102D9000696E653A20004E6F20436865636B7375FA
:102DA0006D2077697468206C696E65206E756D6240
:102DB00065722C204C617374204C696E653A20005A
:102DC000636865636B73756D206D69736D617463A2
:102DD000682C204C617374204C696E653A20004C5D
:102DE000696E65204E756D626572206973206E6F25
:102DF00074204C617374204C696E65204E756D6251
:102E000065722B312C204C617374204C696E653ACD
:102E100020004D31313000526573656E643A2000F8
:102E20006F6B0A00CDCC984300809343000052435F
:102E30000000000000000000000000000A00207AEE
:102E40003A200020793A200020783A200042656438
:102E50000000F001220211241FBECFEFD1E2DEBF3D
:102E6000CDBF00E00CBF17E0A0E0B2E0E8EFF1E773
:102E700003E00BBF02C007900D92AC3CB107D9F73D
:102E80002DE1ACECB7E001C01D92A138B207E1F72B
:102E900017E1CAE2D7E100E006C021970109802FBF
:102EA000FE010F94EDB5C932D10780E00807A9F7FC
:102EB0000F9475900D94EBB80C9400002F923F92F4
:102EC0004F925F926F927F928F929F92AF92BF923A
:102ED000CF92DF92EF92FF920F931F93CF93DF93E6
:102EE000CDB7DEB7CF51D1400FB6F894DEBF0FBEDD
:102EF000CDBF2DB73EB7C25EDE4F39832883CE519A
:102F0000D14011E0109371088091F20781110CC03B
:102F10000F94B11A6093EE077093EF078093F00758
:102F20009093F1071093F2078091E60781110DC08D
:102F30000F94B11A6093E2077093E3078093E4075C
:102F40009093E50781E08093E607809159184091BE
:102F5000F8025091F9026091FA027091FB0281111E
:102F600006C090915A18992311F40C9417274739E9
:102F700051056105710511F40C9477250CF01EC103
:102F80004E3451056105710511F40C94C9200CF003
:102F900081C0443251056105710511F40C949722EA
:102FA000A4F5413151056105710511F40C946324B8
:102FB000A4F4423051056105710509F4E9C64031B8
:102FC00051056105710509F44BC241305105610598
:102FD000710511F00C949F57B1C243315105610541
:102FE000710509F4DBC40CF407C5403251056105D5
:102FF000710511F40C9406254132510561057105E6
:1030000011F40C94F4240C949F574D335105610531
:10301000710509F447C4FCF442335105610571059B
:1030200009F4B6C644F4413351056105710509F44C
:1030300090C40C949F57443351056105710511F4F8
:103040000C945F24453351056105710511F40C940E
:1030500091250C949F57443451056105710511F475
:103060000C94102344F4413451056105710509F4B1
:10307000C2C70C949F57463451056105710511F480
:103080000C9462204D3451056105710509F472C23A
:103090000C949F57493851056105710509F423C205
:1030A0000CF043C04A3551056105710509F496C617
:1030B000ACF4473551056105710509F47FC4483505
:1030C00051056105710509F425C44F3451056105A9
:1030D000710511F00C949F570C9434214B37510516
:1030E0006105710509F47AC644F446375105610556
:1030F000710509F496C40C949F574C37510561052E
:10310000710509F424C6483851056105710511F0AF
:103110000C949F5780916B0990916C0980649093F7
:103120006C0980936B090C949F57423951056105D6
:10313000710511F40C9477213CF54F385105610568
:10314000710511F40C948D214CF44E385105610534
:10315000710511F40C9462210C949F57403951056C
:103160006105710511F40C94B821413951056105CF
:10317000710511F00C949F5740E050E064E18AE043
:103180000F9459270C949F574439510561057105D7
:1031900011F40C94CD2114F40C94A221453951055D
:1031A0006105710511F40C940D2246395105610534
:1031B000710511F40C94F8210C949F57413E510570
:1031C0006105710509F457C10CF088C0433A5105F7
:1031D0006105710509F45CC5DCF54C3951056105E3
:1031E000710511F40C9427259CF44A3951056105A9
:1031F000710511F40C94152514F00C941E25483912
:1032000051056105710511F40C9466250C949F57C6
:10321000403A51056105710511F40C9488254CF470
:103220004D3951056105710511F40C9447250C9435
:103230009F57413A51056105710511F40C94E32142
:10324000423A51056105710509F420C10C949F575C
:10325000483A51056105710509F466C544F5453ADA
:1032600051056105710509F426C50CF44AC5463AB5
:1032700051056105710509F4BFC4473A510561055F
:10328000710511F00C949F578091CD089091CE0854
:10329000A091CF08B091D00891608093CD08909311
:1032A000CE08A093CF08B093D0080C949F574A3A09
:1032B00051056105710509F4C5C40CF40FC54E3BF9
:1032C00051056105710509F437C3433D5105610599
:1032D000710511F40C94D3260C949F574F3E510561
:1032E0006105710509F474C10CF063C0463E5105D7
:1032F0006105710509F4CAC044F5433E51056105F5
:10330000710509F41AC40CF464C4443E5105610506
:10331000710509F438C4453E51056105710511F088
:103320000C949F578091CD089091CE08A091CF0822
:10333000B091D00884608093CD089093CE08A0937C
:10334000CF08B093D0080C949F574B3E51056105B0
:10335000710509F4B7C0C4F44A3E51056105710511
:1033600011F00C949F5740E050E06CEE81E20F9416
:10337000592780916B0990916C09926090936C0928
:1033800080936B090C949F574D3E51056105710563
:1033900009F487C04E3E51056105710511F00C948A
:1033A0009F5740E050E064E58AE00F9459270C9461
:1033B0009F57473F51056105710509F4F7C344F56F
:1033C000413F51056105710509F4B8C00CF448C1CD
:1033D000423F51056105710509F4CCC0463F5105D6
:1033E0006105710511F00C949F578091CD08909163
:1033F000CE08A091CF08B091D00890628093CD08FC
:103400009093CE08A093CF08B093D0080C949F5708
:10341000493F51056105710509F427C40CF4FFC348
:103420004A3F51056105710509F49AC34B3F5105A7
:103430006105710511F00C949F578091CD08909112
:10344000CE08A091CF08B091D008A2608093CD089B
:103450009093CE08A093CF08B093D0080C949F57B8
:1034600080916B0990916C09806490936C098093B2
:103470006B090C949F5780916B0990916C0980683F
:1034800090936C0980936B090C949F5780916B0902
:1034900090916C09926090936C0980936B090C94E5
:1034A0009F5780916B0990916C09916090936C0982
:1034B00080936B0941E050E069E881E20F9459275D
:1034C0000C949F5740E050E06CEE81E20F94592736
:1034D00080916B0990916C09926090936C09809334
:1034E0006B090C949F5780910C02833411F00C945B
:1034F0009F5782E480930C0240E050E067E581E250
:103500000F94592740E050E066E781E20F94592775
:1035100040E050E06DEE81E20F94592740E050E02A
:1035200068E881E20F94592740E050E069E881E2C1
:103530000F9459271092CB1B0C949F5710923C0864
:1035400080E00F94DB0A80916B0990916C09826096
:1035500090936C0980936B0981E08093D31B40E0CA
:1035600050E068E08AE00F94592781E48093D41BEF
:103570000C949F5780917009882311F40C949F57E5
:1035800040E050E062E58AE00F94592780916D0990
:103590008A3019F082E394E002C08DE294E09F93B8
:1035A0008F938EE897E09F938F938E010F5F1F4F4D
:1035B0001F930F930F94ACAAB80180E00F94612879
:1035C0000F900F900F900F900F900F900C949F57AB
:1035D00089E48093170280910A11813049F441E017
:1035E00050E06CE481E20F94592740E050E008C0BD
:1035F00040E050E06CE481E20F94592741E050E054
:103600006BE481E20F94592741E050E06EE781E2DC
:103610000F94592740E050E06DE481E20F94592760
:1036200041E050E061E481E20F94592741E050E02D
:1036300066E481E20F94592741E050E06EE481E2B4
:103640000F94592741E050E06FE481E20F9459272D
:1036500040E050E064E18AE00F9459270C949F57B2
:1036600080910B0890910C089093791180937811B8
:1036700080910D0890910E0890937B1180937A11A0
:1036800082E480930C0282E58093170281E08093AC
:10369000CB1B10923C0890916D099A3009F480E0A0
:1036A00080930A11082F10E0000F111FF801E8584D
:1036B000FE4E208131813093E1072093E007811194
:1036C0001EC08091B81C9091B91C6091571C7091DC
:1036D000581C681779072CF4BC01990F880B990BBB
:1036E00004C0072E000C880B990B0F9402AB0858EE
:1036F0001E4E0F9422B3D8016D937C931DC0809110
:10370000BC1C9091BD1C60915D1C70915E1C681783
:1037100079072CF4BC01990F880B990B04C0072E74
:10372000000C880B990B0F9402AB08581E4E0F9497
:1037300022B3F8017183608381E48093D41B40E05D
:1037400050E068E08AE00F94592740E050E06DE7D0
:1037500081E20F94592780E090E0A3E4B3E48093E2
:103760009B1190939C11A0939D11B0939E118090FA
:10377000F6109090F710A090F810B090F9102091EA
:103780009711309198114091991150919A1160912F
:103790009311709194118091951190919611E6E892
:1037A0006E2EE1E17E2E7F926F92FFE9CF2EF1E146
:1037B000DF2EE12CF12C03E413E40E949EDE0E9434
:1037C000DDD180E090E0A0E2B1E480939711909386
:1037D0009811A0939911B0939A118090F210909043
:1037E000F310A090F410B090F510E0909B11F090C1
:1037F0009C1100919D1110919E11609193117091F7
:10380000941180919511909196117F926F9220E082
:1038100030E040E251E40E949EDE0E94DDD10F9034
:103820000F900F900F908091D41B8E3411F40C9454
:10383000A02E1092D41B0E941E7840E050E06FE151
:1038400089E00F94592740E050E068E28AE00F9445
:10385000592700910A1110E0F801EE0FFF1FEE0F3B
:10386000FF1FEB5BF34E60817181828193810F9426
:1038700022B37093680860936708000F111FF80166
:10388000E858FE4E80819181909366088093650888
:1038900088E48093D41B0E941E7881E0809369089D
:1038A0000C949F5780910C0240E050E08134C9F4A1
:1038B00069E08AE00F94592781E080933C0860E139
:1038C00078E082E00F94612880916B0990916C09F7
:1038D000986090936C0980936B091092CB1B0C94A9
:1038E0009F576AE28AE00F94592781E080933C0851
:1038F00060E178E086E20F94612880916B099091F5
:103900006C09986090936C0980936B091092CB1BA3
:103910000C949F578091881081110C949F5780912F
:103920005A1881110C949F5740E050E069E38AE0F7
:103930000F9459270C949F578091881081110C94F3
:103940009F5740E050E061E08AE00F9459270C94C3
:103950009F578091881081110C949F5710910C02F1
:10396000113411F00C949F5710923C081092591882
:1039700081E080935A1840E050E068E08AE00F94BC
:1039800059271093D41B80916B0990916C09946016
:1039900090936C0980936B090C949F5780910C0253
:1039A000813411F00C949F5740E050E061E08AE0D0
:1039B0000F94592710923C080C949F5780910C0249
:1039C000823491F3833411F00C949F5740E050E01F
:1039D00066E18AE00F94592741E050E06DE781E20B
:1039E0000F94592782E58093170281E08093CB1BC7
:1039F00010923C080C949F57882311F40C949F5705
:103A000080910C02813411F00C949F5780916B09C6
:103A100090916C09886090936C0980936B090C9469
:103A20009F5780915A18882311F40C949F578091C6
:103A30000C02823459F480916B0990916C09806179
:103A400090936C0980936B090C949F57833411F009
:103A50000C949F5711E010936A0840E050E068E929
:103A600081E20F94592740E050E067E981E20F942A
:103A7000592740E050E06CE981E20F94592740E07B
:103A800050E06DE981E20F94592741E050E067E88A
:103A900081E20F94592740E050E06CE28AE00F94F5
:103AA00059271093CB1B8FEF9FEF90939D0280932C
:103AB0009C02EDE7F7E084918F01882351F0082EF6
:103AC000000C990B0F9461080F5F1F4FF801849150
:103AD000F4CF40E050E06AE981E20F94592740E0DA
:103AE00050E06BE981E20F9459276091451C709179
:103AF000461C8091471C9091481C0F9422B3AB0147
:103B000066E289E00F9459276091491C70914A1C24
:103B100080914B1C90914C1C0F9422B3AB0167E237
:103B200089E00F94592740E050E068E289E00F9463
:103B3000592710923C080C949F578091CD08909182
:103B4000CE08A091CF08B091D00888608093CD08AE
:103B50009093CE08A093CF08B093D0080C949F57B1
:103B60008091CD089091CE08A091CF08B091D00857
:103B7000A1608093CD089093CE08A093CF08B09316
:103B8000D0080C949F578091CD089091CE08A091B9
:103B9000CF08B091D00881608093CD089093CE0873
:103BA000A093CF08B093D0080C949F578091CD0874
:103BB0009091CE08A091CF08B091D00890618093E9
:103BC000CD089093CE08A093CF08B093D0080C9462
:103BD0009F578091CD089091CE08A091CF08B091C9
:103BE000D00882608093CD089093CE08A093CF0830
:103BF000B093D0080C949F578091CD089091CE0837
:103C0000A091CF08B091D00880628093CD089093A6
:103C1000CE08A093CF08B093D0080C949F57809102
:103C2000CD089091CE08A091CF08B091D0089064B3
:103C30008093CD089093CE08A093CF08B093D0087E
:103C40000C949F578091CD089091CE08A091CF08F9
:103C5000B091D00880618093CD089093CE08A09356
:103C6000CF08B093D0080C949F578091CD089091C5
:103C7000CE08A091CF08B091D00890688093CD086D
:103C80009093CE08A093CF08B093D0080C949F5780
:103C90008091CD089091CE08A091CF08B091D00826
:103CA00080648093CD089093CE08A093CF08B09302
:103CB000D0080C949F578091CD089091CE08A09188
:103CC000CF08B091D00880688093CD089093CE083B
:103CD000A093CF08B093D0080C949F578091CD0843
:103CE0009091CE08A091CF08B091D00892608093B7
:103CF000CD089093CE08A093CF08B093D0080C9431
:103D00009F578091CD089091CE08A091CF08B09197
:103D1000D00894608093CD089093CE08A093CF08EC
:103D2000B093D0080C949F578091CD089091CE0805
:103D3000A091CF08B091D00898608093CD0890935F
:103D4000CE08A093CF08B093D0080C949F5740E0C2
:103D500050E06AE28AE00F94592740E050E06DE7B6
:103D600081E20F94592781E080933C081092CB1B8D
:103D700060E178E086E20F94612880916B09909170
:103D80006C09986090936C0980936B090C949F5711
:103D9000423051056105710511F489E406C04233D2
:103DA00051056105710519F482E58093170240E021
:103DB00050E06CE481E20F94592740E050E06BE45E
:103DC00081E20F94592740E050E064E18AE00F94CB
:103DD00059278FEF80930A110C949F574A3551054C
:103DE0006105710519F410920A1103C081E08093F6
:103DF0000A1180910A11082F10E0000F111FF8011D
:103E0000E858FE4E208131813093E1072093E0078E
:103E100081111EC08091B81C9091B91C6091571CF3
:103E20007091581C681779072CF4BC01990F880B06
:103E3000990B04C0072E000C880B990B0F9402AB52
:103E400008581E4E0F9422B3D8016D937C931DC069
:103E50008091BC1C9091BD1C60915D1C70915E1C9A
:103E6000681779072CF4BC01990F880B990B04C0D3
:103E7000072E000C880B990B0F9402AB08581E4EAE
:103E80000F9422B3F8017183608381E48093D41B83
:103E900040E050E068E08AE00F94592740E050E0AD
:103EA0006DE781E20F94592780E090E0A3E4B3E44A
:103EB00080939B1190939C11A0939D11B0939E11A0
:103EC0008090F6109090F710A090F810B090F91034
:103ED00020919711309198114091991150919A1118
:103EE0006091931170919411809195119091961118
:103EF000E6E86E2EE1E17E2E7F926F92FFE9CF2EF3
:103F0000F1E1DF2EE12CF12C03E413E40E949EDEAC
:103F10000E94DDD180E090E0A0E2B1E480939711AF
:103F200090939811A0939911B0939A118090F210E8
:103F30009090F310A090F410B090F510E0909B11C9
:103F4000F0909C1100919D1110919E116091931120
:103F50007091941180919511909196117F926F922A
:103F600020E030E040E251E40E949EDE0E94DDD17C
:103F70000F900F900F900F908091D41B8E3411F4FE
:103F80000C94A02E1092D41B0E941E7840E050E0AA
:103F90006FE189E00F94592740E050E068E28AE041
:103FA0000F94592700910A1110E0F801EE0FFF1F3E
:103FB000EE0FFF1FEB5BF34E608171818281938175
:103FC0000F9422B37093680860936708000F111F65
:103FD000F801E858FE4E80819181909366088093A5
:103FE000650888E48093D41B0E941E7881E080934A
:103FF00069080C949F5780910A11813081F587EDF3
:1040000090E09093FB078093FA079093BF1C8093F6
:10401000BE1C8AEA90E09093BD1C8093BC1C81E496
:1040200090E090933908809338080E94A2F780911D
:10403000BE1C9091BF1C90937B1180937A110F94BA
:10404000CF6840E050E06EE781E20F94592740E0EE
:1040500050E06DE481E20F9459270C949F57811131
:104060000C949F5787ED90E09093FD078093FC0799
:104070009093BB1C8093BA1C8AEA90E09093B91C81
:104080008093B81C81E490E090933B0880933A08B9
:104090000E94A2F78091BA1C9091BB1C9093791159
:1040A000809378110F94CF6840E050E06EE781E292
:1040B0000F94592740E050E06DE481E20F945927B6
:1040C0000C949F5780910A11813081F584E091E032
:1040D0009093FB078093FA079093BF1C8093BE1CBC
:1040E00086EE90E09093BD1C8093BC1C8AE590E026
:1040F00090933908809338080E94A2F78091BE1CE3
:104100009091BF1C90937B1180937A110F94CF688C
:1041100040E050E06EE781E20F94592740E050E024
:104120006DE481E20F9459270C949F5781110C94F0
:104130009F5784E091E09093FD078093FC07909354
:10414000BB1C8093BA1C86EE90E09093B91C8093C0
:10415000B81C8AE590E090933B0880933A080E944F
:10416000A2F78091BA1C9091BB1C90937911809317
:1041700078110F94CF6840E050E06EE781E20F9431
:10418000592740E050E06DE481E20F9459270C94E8
:104190009F5780910A11813091F58CED90E09093BA
:1041A000FB078093FA0786EE90E09093BF1C809304
:1041B000BE1C80EA90E09093BD1C8093BC1C8CE3F5
:1041C00090E090933908809338080E94A2F780917C
:1041D000BE1C9091BF1C90937B1180937A110F9419
:1041E000CF6840E050E06EE781E20F94592740E04D
:1041F00050E06DE481E20F9459270C949F57811190
:104200000C949F578CED90E09093FD078093FC07F2
:1042100086EE90E09093BB1C8093BA1C80EA90E0FD
:104220009093B91C8093B81C8CE390E090933B086A
:1042300080933A080E94A2F78091BA1C9091BB1C0F
:1042400090937911809378110F94CF6840E050E0FB
:104250006EE781E20F94592740E050E06DE481E27F
:104260000F9459270C949F5780910A11823010F0B7
:104270000C949F5740E050E064E38AE00F94592784
:1042800040910A0250910B0262E289E00F94592793
:10429000409108025091090263E289E00F94592786
:1042A000409106025091070264E289E00F94592779
:1042B000409104025091050265E289E00F9459276C
:1042C0000C949F5740910A0250910B021416150648
:1042D00014F00C949F574A50510950930B0240938D
:1042E0000A0262E289E00F9459270C949F5740918B
:1042F0000A0250910B024633F1E05F0714F00C9470
:104300009F57465F5F4F50930B0240930A0262E251
:1043100089E00F9459270C949F57409108025091BF
:1043200009021416150614F00C949F574A505109AF
:10433000509309024093080263E289E00F945927E1
:104340000C949F574091080250910902463321E096
:10435000520714F00C949F57465F5F4F5093090229
:104360004093080263E289E00F9459270C949F5709
:1043700040910602509107021416150614F00C9491
:104380009F574A505109509307024093060264E236
:1043900089E00F9459270C949F5740910602509141
:1043A0000702463331E0530714F00C949F57465FE1
:1043B0005F4F509307024093060264E289E00F9436
:1043C00059270C949F5740910402509105021416EE
:1043D000150614F00C949F574A505109509305024A
:1043E0004093040265E289E00F9459270C949F578B
:1043F00040910402509105024936510514F00C9485
:104400009F57465F5F4F509305024093040265E259
:1044100089E00F9459270C949F57E0910A1140911D
:104420000A0250910B02209108023091090260911A
:104430000602709107028091040290910502E11139
:1044400030C06C33A1E07A0714F06BE371E0709335
:10445000FD076093FC074C33B1E05B0714F04BE3BE
:1044600051E05093BB1C4093BA1C2C33E1E03E0753
:1044700014F02BE331E03093B91C2093B81C8F3635
:10448000910514F08EE690E090933B0880933A08F3
:104490008091BA1C9091BB1C9093791180937811F4
:1044A00034C06C33F1E07F0714F06BE371E070937C
:1044B000FB076093FA074C3361E056072CF45093E6
:1044C000BF1C4093BE1C06C04BE351E05093FB075A
:1044D0004093FA072C33A1E03A0714F02BE331E0C4
:1044E0003093BD1C2093BC1C8F36910514F08EE6D2
:1044F00090E090933908809338088091BE1C909189
:10450000BF1C90937B1180937A110E94A2F70F94A5
:10451000CF6840E050E06EE781E20F94592740E019
:1045200050E06DE481E20F9459270C949F5740E0CE
:1045300050E060E289E00F94592740E050E068E2E3
:104540008AE00F94592788E48093D41B0E941E7838
:1045500080910A11082F10E081111DC08091BA1CB2
:104560009091BB1C6091591C70915A1C6817790777
:104570002CF4BC01990F880B990B04C0072E000C7A
:10458000880B990B0F9402AB0F9422B3709379119F
:104590006093781122C08091BE1C9091BF1C6091E5
:1045A0005F1C7091601C681779072CF4BC01990F8F
:1045B000880B990B04C0072E000C880B990B0F94E5
:1045C00002AB9801220F331FF901E858FE4E7F011C
:1045D0000F9422B3D7016D937C93F801EE0FFF1F68
:1045E000EE0FFF1FEB5BF34E60817181828193813F
:1045F0000F9422B37093680860936708F801EE0F78
:10460000FF1FE858FE4E8081918190936608809349
:1046100065080E941E7881E0809369080C949F577A
:1046200080911702893411F00C949F5740E050E0BC
:1046300068E08AE00F94592781E48093D41BE091CD
:104640000A11B4E0EB9FF0011124EE59FD4F608197
:1046500071818281938160939311709394118093FF
:10466000951190939611E0909B11F0909C11009100
:104670009D1110919E1120919711309198114091A8
:10468000991150919A110F941329E0909B11F09079
:104690009C1100919D1110919E11209197113091C4
:1046A00098114091991150919A11609193117091C4
:1046B00094118091951190919611EAE0F1E1FF93A8
:1046C000EF93812CE0E89E2EEBE3AE2EE6E4BE2EC7
:1046D000FFE9CF2EF1E1DF2E0E949EDE0E94DDD1A8
:1046E000E3E7F7E084910F900F908F01882351F05A
:1046F000082E000C990B0F9461080F5F1F4FF801F3
:104700008491F4CF20E030E040EF51E460919F11BC
:104710007091A0118091A1119091A2110F9488B174
:1047200060939F117093A0118093A1119093A21197
:10473000E0909B11F0909C1100919D1110919E11A1
:1047400020919711309198114091991150919A119F
:10475000609193117091941180919511909196119F
:10476000FAE06F2EF1E17F2E7F926F92812C912CD7
:10477000A0E3AA2EA1E4BA2EBFE9CB2EB1E1DB2E35
:104780000E949EDE0E94DDD10F900F908091D41B7D
:104790008E3411F40C94A02E20E030E84AE454E466
:1047A00060919F117091A0118091A1119091A2111F
:1047B0000F9488B1AB01BC0140939F115093A0119D
:1047C0006093A1117093A2118FEC95E10F94A10A4F
:1047D000E0909B11F0909C1100919D1110919E1101
:1047E00020919711309198114091991150919A11FF
:1047F00060919311709194118091951190919611FF
:104800007F926F92812C912CE0E2AE2EE2E4BE2EDC
:104810000E949EDE0E94DDD10F900F908091D41BEC
:104820008E3411F40C94A02E20E030E048E452E4E1
:1048300060919F117091A0118091A1119091A2118E
:104840000F9488B160939F117093A0118093A11170
:104850009093A211E0909B11F0909C1100919D11FA
:1048600010919E11209197113091981140919911BA
:1048700050919A11609193117091941180919511BA
:10488000909196117F926F92812C912CA12CB0E483
:10489000BB2E0E949EDE0E94DDD10F900F90809172
:1048A000D41B8E3411F40C94A02E1092D41B40E033
:1048B00050E06EE08AE00F9459270C949F570F94B4
:1048C0001D3D0C949F5780916B0881FF02C00C9492
:1048D0009F5740E050E065E18AE00F94592740E09F
:1048E00050E06BE084E10F94592782E48093D41B5D
:1048F00080932D11E0910A1124E0E29FF001112430
:10490000EE59FD4F60817181828193816093931193
:10491000709394118093951190939611E0909B1150
:10492000F0909C1100919D1110919E112091971172
:10493000309198114091991150919A11EAE0F1E16A
:10494000FF93EF93812CE0E89E2EEBE3AE2EE6E49E
:10495000BE2EFFE9CF2EF1E1DF2E0E949EDEE09019
:104960009B11F0909C1100919D1110919E1120912E
:104970009711309198114091991150919A11E091AD
:10498000861164E0E69FF0011124EE59FD4F60812D
:104990007181828193810F941329E091861184E0C3
:1049A000E89FF0011124EE59FD4F80819181A28191
:1049B000B3818093931190939411A0939511B09328
:1049C0009611E0910A11F0E0EE0FFF1FE858FE4E3D
:1049D0008091E0079091E107918380830E94DDD16F
:1049E0000F900F900C949F5780916B0881FF02C02D
:1049F0000C949F57209149099091480929130C94D0
:104A0000BD57806180936B080C949F5780916B0811
:104A100081FF02C00C949F57209149099091480949
:104A200029130C94BD570C94C0579091490980915B
:104A3000480998130C949F570C94C45790914909B6
:104A40008091480998130C949F570C944B58E0910F
:104A50009C02F0919D02EF3F9FEFF90711F40C9437
:104A60009F57EE0FFF1FE858FE4E408151814B3398
:104A7000A1E05A0714F00C949F574B5F5F4F51838E
:104A8000408368E289E00F9459270C949F57E09186
:104A90009C02F0919D02EF3FBFEFFB0711F40C94D5
:104AA0009F57EE0FFF1FE858FE4E408151811416AC
:104AB000150614F00C949F574550510951834083BB
:104AC00068E289E00F9459270C949F5780919C02CB
:104AD00090919D02019611F40C949F579091490971
:104AE0008091480998130C94BD570C94D558809127
:104AF0009C0290919D02019611F40C949F57909105
:104B000049098091480998130C94BD570C94DB58BF
:104B1000909149098091480998130C949F570C94DF
:104B2000E15880912D11823411F00C949F57EAE6E0
:104B3000F7E084918F01882351F0082E000C990B27
:104B40000F9461080F5F1F4FF8018491F4CF10920A
:104B5000D41B80916B0990916C098D7F90936C09A7
:104B600080936B0980911702823509F047C089E470
:104B70008093170280910A11813049F441E050E09E
:104B80006CE481E20F94592740E050E008C040E017
:104B900050E06CE481E20F94592741E050E06BE46F
:104BA00081E20F94592741E050E06EE781E20F94D3
:104BB000592741E050E06DE481E20F94592741E02C
:104BC00050E061E481E20F94592741E050E066E44F
:104BD00081E20F94592741E050E06EE481E20F94A6
:104BE000592741E050E06FE481E20F94592740E0FB
:104BF00050E064E18AE00F945927D1C0893409F06C
:104C0000CEC081E48093D41B40E050E068E08AE0AD
:104C10000F94592740902C0850902D0860902E0832
:104C200070902F08409297115092981160929911AC
:104C300070929A1120E030E040E752E460918202E5
:104C40007091830280918402909185020F9476B2D4
:104C50004B015C01E0909B11F0909C1100919D1123
:104C600010919E1160919311709194118091951102
:104C70009091961126E831E13F932F93EFE9CE2EE4
:104C8000E1E1DE2EA30192010E949EDE0E94DDD1B1
:104C90000F900F908091D41B8E3411F40C94A02EA1
:104CA00020E030E040E251E460913008709131083A
:104CB00080913208909133080F9488B17B018C0168
:104CC00060939B1170939C1180939D1190939E1102
:104CD00080910F0889838090860290908702A0902F
:104CE0008802B090890220919711309198114091DB
:104CF000991150919A116091931170919411809132
:104D0000951190919611FE013196FF93EF930E94B9
:104D10009EDE0E94DDD10F900F908091D41B8E34C7
:104D200011F40C94A02E1092D41B82E480930C02F8
:104D300040E050E067E581E20F94592740E050E001
:104D400066E781E20F94592740E050E06DEE81E282
:104D50000F94592740E050E068E881E20F9459270A
:104D600040E050E069E881E20F94592740E050E0CC
:104D70006AE28AE00F94592781E080933C08109200
:104D8000CB1B60E178E086E20F94612880916B098B
:104D900090916C09986090936C0980936B091092C4
:104DA0002D110C949F578091D1081092D41B882309
:104DB000E9F01092D10880916B0990916C0998608C
:104DC00090936C0980936B0980910C0240E050E055
:104DD000813431F469E08AE00F9459270C949F578D
:104DE0006AE28AE00F9459270C949F571092E81CAE
:104DF0001092CB1BEFE5F7E084918F01882351F0EF
:104E0000082E000C990B0F9461080F5F1F4FF801DB
:104E10008491F4CF10926F0881E00F944C3940E0F8
:104E200050E065E08AE00F9459270C949F579091C9
:104E3000FE07292F287093FF29C280910208823033
:104E400008F424C2473451056105710509F4A3C073
:104E50009CF54B3251056105710509F462C09CF463
:104E6000473151056105710509F467C048315105A5
:104E70006105710511F00C949F5782E090E00F944A
:104E80006F680C949F57403351056105710509F413
:104E90004EC0453351056105710509F4BCC14F325F
:104EA00051056105710511F00C949F578FEF9FEF2D
:104EB0000F946F680C949F57403851056105710538
:104EC00009F441C004F54E3551056105710509F439
:104ED00070C14F3551056105710511F00C949F5754
:104EE00014E410932D1140E050E06BE084E10F9446
:104EF000592740E050E065E18AE00F94592710936C
:104F0000D41B0C949F574238510561057105B9F1C6
:104F100044F14B3A51056105710509F4C8C00C9480
:104F20009F578EEF9FEF0F946F680C949F5780E010
:104F300090E00F946F680C949F5781E090E00F947D
:104F40006F680C949F578DEF9FEF90932F11809374
:104F50002E1140E050E06AE08AE00F9459270C944B
:104F60009F5783E090E090932F1180932E1140E0A3
:104F700050E06AE08AE00F9459270C949F571092F2
:104F80002F1110922E1140E050E06AE08AE00F9459
:104F900059270C949F5740E050E068E08AE00F9456
:104FA000592781E48093D41B41E061E081E00F94B4
:104FB000CD5B1092D41B0E94DDD10F94126510912D
:104FC0002E1180910208823011F540E050E061E13D
:104FD0008AE00F94592780E58093D41B0091FF0746
:104FE000010F0093FF07002E000C110B20E030E0B2
:104FF000A901CA01B9010F946D5F40E050E069E179
:105000008AE00F9459271092D41B0C949F57833039
:1050100029F540E050E061E18AE00F94592780E5EE
:105020008093D41B00910008010F00930008002E0C
:10503000000C110B20E030E04CE553EC60E070E038
:1050400088EA92EC0F946D5F40E050E069E18AE0FD
:105050000F9459271092D41B0C949F57843011F051
:105060000C949F5740E050E061E18AE00F9459278B
:1050700080E58093D41B00910108010F0093010883
:10508000002E000C110B20E030E04CE553EC60E00A
:1050900070E084EA92E40F946D5F40E050E069E1D3
:1050A0008AE00F9459271092D41B0C949F571092AA
:1050B000D41B8091FF0740910008042F081B4091EA
:1050C0000108142F181B602F002E000C770B880B83
:1050D000990B0F9402AB2DEC3CEC4CEC5DEB0F9478
:1050E000E4A56093070870930808809309089093DB
:1050F0000A08612F012E000C770B880B990B0F9477
:1051000002AB2DEC3CEC4CEC5DEB0F94E4A5609312
:105110000308709304088093050890930608002301
:10512000A1F040E050E06FE18AE00F94592707FFBB
:1051300007C0202F332721950CF4309508E0020F8B
:10514000402F000F550B64E015C01123B9F040E06B
:1051500050E060E28AE00F94592717FF07C0812FC3
:10516000992781950CF4909518E0180F412F110F95
:10517000550B65E08BE10F94592711C014E410938F
:105180002D1140E050E06BE084E10F94592740E09E
:1051900050E065E18AE00F9459271093D41B86E113
:1051A00095E09093EA1C8093E91C0E94A2F70C946E
:1051B0009F57409101088091FF07142F181BC1F0E1
:1051C00040E050E060E28AE00F94592717FF07C0E3
:1051D000A12FBB27A1950CF4B09518E01A0F412F11
:1051E000110F550B65E08BE10F9459270C949F57D5
:1051F00014E410932D1140E050E06BE084E10F9433
:10520000592740E050E065E18AE00F945927109358
:10521000D41B0C949F5780912D11843411F00C9461
:105220009F5710920208977F9093FE071092D41B0D
:1052300010927311109272111092791110927811CC
:1052400010927B1110927A111092E81C1092CB1BD5
:10525000E4E5F7E084918F01882351F0082E000CDB
:10526000990B0F9461080F5F1F4FF8018491F4CFE1
:1052700010926F080F944C3940E050E065E08AE0EE
:105280000F94592710922D110C949F57443F5105AC
:1052900010F00C949F57FA018827EE58FF4F8F4F5C
:1052A0000D94EDB580911502909116028260909355
:1052B0001602809315020C949F57809115029091CD
:1052C0001602846090931602809315020C949F57E7
:1052D0008091150290911602886090931602809337
:1052E00015020C949F5780911502909116028061CF
:1052F00090931602809315020C949F57809115028B
:1053000090911602806290931602809315020C947D
:105310009F570F94140E009781F48091150290917D
:105320001602946090931602809315028091631187
:105330008150809363110C949F57019711F00C9446
:105340009F578091150290911602946090931602D7
:105350008093150240E050E067E381E20F94592703
:1053600040E050E061E08BE10F9459278091631198
:105370008150809363110C949F571092E81C1092F7
:10538000CB1BE9E4F7E084918F01882351F0082ECC
:10539000000C990B0F9461080F5F1F4FF801849167
:1053A000F4CF10926F0881E00F944C3940E050E048
:1053B00065E08AE00F9459270C949F5780915B1801
:1053C000882311F40C949F5741E061E08CE598E14B
:1053D0000F941B6C8FEF9FEF90934A18809349189E
:1053E000E12CF12C08EF17E19E012F5F3F4F59018F
:1053F00088248A94982C22242394312C5EEBC52E89
:1054000054E0D52E4091FA1A5091FB1A6091FC1A83
:105410007091FD1A8091551A9091561AA091571AC1
:10542000B091581A84179507A607B70708F00EC160
:10543000D801E2E31D92EA95E9F72DE2422E5524C8
:1054400053948091F8178D3409F4A5C04091FA1A4D
:105450005091FB1A6091FC1A7091FD1A8091551AB7
:105460009091561AA091571AB091581A841795071F
:10547000A607B70708F08FC098EF692E97E1792E3D
:105480008091551A9091561AA091571AB091581AB6
:105490004091FA1A5091FB1A6091FC1A7091FD1A12
:1054A00084179507A607B70788F48093021B90938B
:1054B000031BA093041BB093051B8DE49AE10F948A
:1054C000F015D3018D933D018A3029F4B1E04B1AD8
:1054D000510829F45CC0A952B841C1F3D1CF409121
:1054E000FA1A5091FB1A6091FC1A7091FD1A809182
:1054F000551A9091561AA091571AB091581A8417BC
:105500009507A607B70708F49CCF41C05A82498285
:10551000DF92CF92FFEA6F2EF4E07F2EBF92AF9220
:10552000FF92EF920F94DBAA89819A810F900F90DE
:105530000F900F900F900F90019609F0B9C0015095
:10554000110909F4CCC04091FA1A5091FB1A6091EC
:10555000FC1A7091FD1A8091551A9091561AA091DB
:10556000571AB091581A84179507A607B70708F07D
:10557000B6C0A8EF8A2EA7E19A2ED701E32D1D927F
:10558000EA95E9F70F94C62C019609F0BFCF80E0A9
:105590000F94DB0AA4C1E114F104F9F49A82898220
:1055A000BF92AF92A8E0B2E2BF93AF931F930F9365
:1055B0000F94DBAA89819A810F900F900F900F9022
:1055C0000F900F90019629F030924A1820924918B6
:1055D00004C010924A18109249189A828982BF9288
:1055E000AF92DF92CF921F930F930F94DBAA898122
:1055F0009A810F900F900F900F900F900F9005973A
:1056000011F40C94FF589A828982BF92AF92DF9274
:10561000CF921F930F930F94DBAA89819A810F90E9
:105620000F900F900F900F900F90069711F40C941D
:10563000FF582EE0E216F10409F451C13FEFE31ADE
:10564000F30A4FE0E416F1040CF4DCCE1092021BD6
:105650001092031B1092041B1092051B40E050E0B7
:10566000BA018DE49AE10F945610809149189091F7
:105670004A18892B49F40CE310E0B8EFEB2EB7E1A0
:10568000FB2E82E3D82E56C00AEF10E058EFE52E2D
:1056900057E1F52E62E3362E44244A94542CAE0191
:1056A0004F5F5F4F6A01EFEAAE2EE4E0BE2E4BCFB4
:1056B0008FEF9FEF9A838983DF92CF927F926F92D1
:1056C0009F928F920F94DBAA89819A810F900F90FD
:1056D0000F900F900F900F90892B09F058CF80E01A
:1056E0000F94DB0AC0907602D0907702E0907802A7
:1056F000F090790220E030E0A901C701B6010F94D3
:1057000060B418166CF137C0D701ED2D1D92EA95E3
:10571000E9F70F94C62C019609F439CF68EF77E1C9
:1057200088E394E00F945CAA892B09F430CF0150F0
:105730001109A9F24091FA1A5091FB1A6091FC1AD2
:105740007091FD1A8091551A9091561AA091571A8E
:10575000B091581A84179507A607B707A8F2BFCFCC
:105760002DEC3CEC4CE45DE3C701B6010F9460B452
:1057700018165CF0B4C02DEC3CEC4CE45DEBC701BA
:10578000B6010F94FCAA87FFAAC040E050E067E191
:105790008AE00F9459278090760290907702A0902B
:1057A0007802B090790220E030E0A901C501B4018F
:1057B0000F9460B418162CF520E030E048EC52E469
:1057C000C501B4010F94E4A50F9422B30AE010E0E0
:1057D000CB01B8010F94BEB5F82EE92E20E030E0E1
:1057E00040E251E4C501B4010F94E4A50F9422B343
:1057F000CB01B8010F94BEB5082FD92EC501B40155
:105800002AC02401350177FA709477F8709420E06B
:1058100030E048EC52E4C301B2010F94E4A50F94C8
:1058200022B30AE010E0CB01B8010F94BEB5F82E08
:10583000E92E20E030E040E251E4C301B2010F94D0
:10584000E4A50F9422B3CB01B8010F94BEB5082F85
:10585000D92EC301B2010F9422B3162FC72E20E018
:1058600030E0A901C501B4010F94FCAA87FD03C073
:1058700082E394E002C08DE294E0EF92FF92DF9227
:105880000F93CF921F939F938F938CEF96E09F93EC
:105890008F938E010F5F1F4F1F930F930F94ACAA2E
:1058A000C8010F949436B80180E30F9461288FEFFC
:1058B0009FEFDC018093F8029093F902A093FA0223
:1058C000B093FB02109271082DB73EB7245F3F4F93
:1058D0000FB6F8943EBF0FBE2DBF0C94195980919E
:1058E000AB1881110C949F57CDB6DEB6809162083B
:1058F000909163080F94580EECE5F8E1DF010D90EC
:105900000020E9F78DB79EB78A1B9B0BAC01485A64
:10591000574E0FB6F8945EBF0FBE4DBF0DB71EB702
:105920000F5F1F4FFF93EF9385EF96E09F938F9349
:105930001F930F930F94ACAA780154E0E50EF11C6D
:105940000F900F900F900F900F900F90F7018081A4
:10595000882349F0082E000C990B0F945AB8D701F0
:105960008D937D01F3CFC8010F94BE3981EF96E08E
:105970000F944F390FB6F894DEBE0FBECDBE0C9417
:105980009F5780915B18882311F40C949F57809146
:10599000AB1881110C949F57CDB6DEB6809162088A
:1059A000909163080F94580EECE5F8E1DF010D903B
:1059B0000020E9F78DB79EB78A1B9B0B9C01285AE4
:1059C000374E0FB6F8943EBF0FBE2DBF0DB71EB7B2
:1059D0000F5F1F4FFF93EF938AEE96E09F938F9395
:1059E0001F930F930F94ACAA780134E0E30EF11CDF
:1059F0000F900F900F900F900F900F90F7018081F4
:105A0000882349F0082E000C990B0F945AB8D7013F
:105A10008D937D01F3CFC8010F94BE3986EE96E0D9
:105A20000F944F390FB6F894DEBE0FBECDBE0C9466
:105A30009F5740E050E067E381E20F94592740E030
:105A400050E061E08BE10F94592740E050E062E0C4
:105A50008AE00F94592781E08093E81C8091150219
:105A600090911602926090931602809315020C9406
:105A70009F578091150290911602916090931602A3
:105A8000809315020C949F578091150290911602F5
:105A9000806890931602809315020C949F5740E003
:105AA00050E062E18AE00F9459270C949F5740E040
:105AB00050E06CE18AE00F94592780E00F944C3954
:105AC00010926E0810926D0810926C0881E080931D
:105AD0006F080C949F571092E81C1092CB1BEBEDB3
