:100000000C9406170C9437170C9437170C94371769
:100010000C9437170C9437170C9437170C94371728
:100020000C9437170C9437170C9437170C94371718
:100030000C9437170C9437170C9437170C949CA01A
:100040000C9437170C9437170C9437170C943717F8
:100050000C9437170C9437170C943DD00C9416CE93
:100060000C9437170D94830B0D945A0B0C9437177F
:100070000C9437170C9437170C9437170C943717C8
:100080000D949C010C9437170C9437170C94371768
:100090000C9437170C9437170C9437170C943717A8
:1000A0000C9437170C9437170C9437170C94371798
:1000B0000C9437170C9437170C9437170C94371788
:1000C0000C9437170C9437170C9437170D94250B95
:1000D0000D94FC0A0C9437170C9437170C943717AF
:1000E0000C943717D95CE760AE2F722D885A8C2894
:1000F000415EA228E760E7600A59E1287E28E760B0
:10010000DA25CF25E7609339E760E76043594C5E15
:10011000614077408D40A3403B41B9406A5E534007
:100120002C43E05CE039D139CF40E3409F59972818
:1001300050267E28522DDD3B6A2DFE5DEF4E622D4E
:100140005A2D1F5E755CE760A02FF75D2059843C37
:10015000AA28FB25E525E760CC59BB29FC39E760D7
:10016000CC5DA05D5348A6312628644CE336EF39B8
:10017000AA31E7603D5DEF5C6C2F5630563032306F
:10018000AE31B2325E2BFA281329F22F1430C42577
:10019000F025E760E7607E28E62FD22BF42B40297C
:1001A0007C3B563BE7606A5E6A5E615C565A6A5EFB
:1001B0006A5EA653D25BA65B7A5BF65A225B4E5B05
:1001C000AB5C685FB0433A432644374690451A45D6
:1001D000E760E760885A172C302CE62F885A615E5A
:1001E000E760E760BD5DF940434B2F47E7602F268E
:1001F000E2550F412541E7607F41E760A53A9D3A0E
:10020000E760E7601535E760E760E7603C358E350D
:100210007935EB2ED52EAD3A7B2DF82D7C2EA92EDF
:100220002F54FC2EB34764354747E760E760E7602B
:10023000E760E760E760E760E760E76046294E292E
:100240007429E760E7605D4771475348434B4F4B64
:10025000544CE760624FC64FF54E494F6B4DE76017
:10026000E760884DE7609D5194388B39E1518747AD
:10027000E7606F50B9500551515167509D47E76095
:10028000255227535F558756E760155506460646A3
:1002900070558433F52ADB4E744D944D664E6E4E88
:1002A0007E28E34EE760E760E760E760E760E760CD
:1002B000E760615CE760475AA25C5D39E760E76030
:1002C000E760E760E760E760E760B758E760E7602E
:1002D000E760E760E760E760E760E760F6530754D0
:1002E0005353E760E760E760E760E760E760E76077
:1002F000E760E760E760E760E760E760E760E760C6
:10030000E760E760E760E760E760E760E760E760B5
:10031000E760E760E760E760E760E760E760E760A5
:10032000E760E760E760E760E760E760E760E76095
:10033000E760E760E760E760E760E7601540D73FA8
:10034000EE42B042E7601546E760E760EF39252BE3
:10035000A0425341EF395341A34869416941FD2A05
:10036000DA5DD35D77567F56CD5C1854E95DF05D5C
:10037000B65DA75D1A5A1F5A245A295A2E5A155A81
:10038000F44A134B722D0A2A052BE760CD5C1854F2
:10039000BE28912BE760E76098592550E760E76039
:1003A000E7607F56E7604359E760335A385A0C30AC
:1003B000662B27545B2F5634E760F94FE76077567A
:1003C000E760E7603D5AE760425A932FCE4AE14A20
:1003D000CD5CAB5C1A36F836E34F1D3BFC36122A77
:1003E000DD3B2236444E8C38C4378255D455E76005
:1003F000FC39E34F6A5EE760B53A2D2BEB4F6A5E3E
:1004000087C8FDC8D2C9AEC920C9AEC970C987C9DD
:10041000A4C806CB49CA66CA83CAD9CAE0C8C1C83B
:1004200053C9A0CA18CC1BCC0ACC0ECC14CC52CCCD
:100430001FCC23CC29CC2DCC31CC37CC3BCC3FCCE2
:1004400052CC45CC49CC4DCC32CD37CD3CCD46CD30
:1004500050CDC9CD5ACD62CD6ACD74CD7ECD88CD7B
:1004600097CDA1CDC9CDABCDB5CDBFCDC7D0D4D063
:10047000F0D0FDD017D124D13ED140D142D144D1CA
:100480004CD1084AD73B3BCE016E84BCBFFDC12F87
:100490003D6C74319ABD56833DDA3D00C77F11BE75
:1004A000D9E4BB4C3E916BAAAABE000000803F0578
:1004B000A84CCDB2D44EB93836A9020C50B99186A9
:1004C00088083CA6AAAA2ABE000000803F000D941E
:1004D0004F0A0D9411C30D94F6090D94BFD50D94D8
:1004E000E8B70D94930A0D94170A0D94B80B0D9468
:1004F000B90B0D94090A0D9402630D94E6094E415F
:100500004E494E495459494E46CDCCCC3D0AD7238D
:100510003C17B7D13877CC2B329595E6241FB14FD5
:100520000A000020410000C84200401C4620BCBE1A
:100530004CCA1B0E5AAEC59D746364696E6F7073AE
:100540007578585B003B4C415945523A2564003B55
:10055000202020757365526166742C2564004D3629
:100560003035205325640043616C63756C75733AB4
:1005700020200043616C63756C75733A2020004342
:10058000616C63756C75733A2020005375726669EF
:100590006E6720300A00417420426F74746F6D20C2
:1005A000537469636B657200253033642E253033D4
:1005B00064253033642E2530346400417420426F4A
:1005C00074746F6D20537469636B657200253033EA
:1005D000642E25303364253033642E253034640096
:1005E00025752E2530327500523139005231362FA3
:1005F00052313700417420426F74746F6D20537410
:1006000069636B657200253033642E2530336425B1
:100610003033642E253034640053757266696E671A
:1006200020300A00473238205830205930005430EA
:100630000054310054300054300053757266696EB6
:100640006720300A004734330047343100473430E4
:1006500000473334004734330047343300473431E4
:1006600000473430004D3834004D3834004D3834B4
:10067000005A32204F66667365743A20004F4B2053
:100680007365636F6E64204578747275646572215A
:100690000A005A20706F736974696F6E3A20005AAD
:1006A00020706F736974696F6E3A20004D383400A2
:1006B0005A312050726F6265206F66667365743AB6
:1006C00020004F4B206669727374204578747275F0
:1006D00064657221200A005A20706F736974696F13
:1006E0006E3A20005A20706F736974696F6E3A20F9
:1006F0000043616C63756C75733A20200043616C34
:1007000063756C75733A20200043616C63756C757A
:10071000733A20200043616C63756C75733A202036
:100720000036302064656772656573200A005430B6
:100730000054300054300043616C69627261746926
:100740006F6E205375636365737366756C0A00542E
:1007500030004A756D70206F766572207363726524
:10076000773120616E6420736372657732200A00EE
:100770004A756D70206F766572207363726577318C
:10078000200A0047333400473334004733340054E1
:1007900030004733340053757266696E6720300A43
:1007A0000053757266696E6720300A005375726671
:1007B000696E6720300A0053757266696E67203073
:1007C0000A0053757266696E6720300A0054300063
:1007D00053757266696E6720300A004D33340053DA
:1007E000757266696E6720300A004D3234004D32F2
:1007F00033202573004D3234004D323320257300F1
:1008000077696C6C20626520646973746F727465BB
:10081000642062792025642E253164253164206DA1
:100820006D2E00546865206669727374206C61795E
:100830006572207072696E746564207769746820CF
:1008400074686520257320686F74656E6400537545
:100850007266696E6720300A0053757266696E674A
:1008600020300A0053757266696E6720300A0053A3
:1008700074617274696E67205A2043616C69627298
:100880006174696F6E2057697A6172640A00473635
:1008900039204143544956415445440A00456E6449
:1008A0002066696C65206C6973740A00426567692B
:1008B0006E2066696C65206C6973740A002F0053A2
:1008C00044207072696E74696E6720627974652065
:1008D000004E6F74205344207072696E74696E67A5
:1008E0000A00473238205830205930002569206DE1
:1008F000696E2C20256920736563006F6B00457855
:10090000747275646572204865617465640A0020BC
:10091000573A00426564204865617465640A0020A6
:10092000573A00204500205A00205900483D580001
:100930007A5F6D696E3A2000795F6D61783A2000C8
:10094000785F6D61783A2000785F6D696E3A2000BB
:10095000504F534954494F4E20484F4D453A20007F
:10096000220A00556E6B6E6F776E20636F6D6D613E
:100970006E643A2022002053544F50205052494E6A
:1009800054200A00473238205830205930004D3367
:10099000350047373000524553554D450A00504108
:1009A0005553450A004D383420582059205A2045C7
:1009B000004D31303700543000496E7374616C6CF7
:1009C000202564202573206F6E20746865202573B0
:1009D00020686F74656E642E00496E7374616C6C70
:1009E000202564202573206F6E2074686520257390
:1009F00020686F74656E642E0025752E2530327563
:100A000000523139005231362F5231370050757251
:100A100067652046696C616D656E740A0053757276
:100A200066696E6720310A0053757266696E6720C9
:100A3000300A004252494748544E4553533A200029
:100A400045787472756465722072656C6561736552
:100A500064206163746976653A20005A20534947DF
:100A60004D4120486F6D65640A0045787472756465
:100A70006572206163746976653A20004D383400F0
:100A80005374617274696E6720582043616C6962A7
:100A9000726174696F6E2057697A6172640A004DE1
:100AA0003834005374617274696E67205920436151
:100AB0006C6962726174696F6E2057697A617264E1
:100AC0000A00220A00656E717565696E6720220052
:100AD000220A00656E717565696E67202200202FFD
:100AE0000020400020403A00526561647920746F14
:100AF0002053746172740A002564206B6D2E0067A8
:100B0000636F646520666F756E640A0020746F20E1
:100B1000537461727420446973706C6179206672D9
:100B20006F6D20526573657400546F6F6B200064A5
:100B30006973706C6179206F6E6C696E6521002E2F
:100B40000053757266696E672030200A00543000C9
:100B50004D383420582059205A20450070012C016E
:100B600090012701B0012201C0011D01F00118010F
:100B70001002130130020E0160020901900204010B
:100B8000C002FF000003FA004003F5008003F000FC
:100B9000D003EB002004E6007004E100E004DC0078
:100BA0004005D700C005D2004006CD00D006C800E1
:100BB0008007C3003008BE00F008B900C009B400C7
:100BC000B00AAF00B00BAA00D00CA500000EA00028
:100BD000500F9B00C01096005012910000148C0022
:100BE000C0158700B0178200B0197D00D01B7800B7
:100BF000001E730040206E0090226900F024640003
:100C000040275F0090295A00E02B5500102E50001D
:100C100020304B0010324600E033410090353C005C
:100C20001037370070383200A0392D00B03A280054
:100C3000A03B2300603C1E00103D1900903D1400B5
:100C4000103E0F00703E0A00C03E0500003F00004D
:100C50004572726F72283833293A204265642074D5
:100C60006865726D6973746F72206E6F742064654D
:100C70007465637465640A004572726F7228383255
:100C8000293A20526967687420746865726D6973C7
:100C9000746F72206E6F742064657465637465642C
:100CA0000A004572726F72283831293A204C656605
:100CB0007420746865726D6973746F72206E6F74DE
:100CC000202064657465637465640A002053544F82
:100CD00050205052494E54200A004572726F7228BB
:100CE0003833293A2042656420746865726D6973EF
:100CF000746F72206E6F74206465746563746564CC
:100D00000A002053544F50205052494E54200A009C
:100D10004572726F72283832293A205269676874B6
:100D200020746865726D6973746F72206E6F7420C1
:100D300064657465637465640A002053544F5020E1
:100D40005052494E54200A004572726F7228383151
:100D5000293A204C65667420746865726D697374F5
:100D60006F72206E6F7420206465746563746564AF
:100D70000A002053544F50205052494E54200A002C
:100D80004552524F52283839293A20424544206969
:100D900073206E6F742068656174696E67002053FC
:100DA000544F50205052494E54200A004552524F41
:100DB00052283839293A20486F74656E64202564BA
:100DC000206973206E6F742068656174696E6700B6
:100DD0006563686F3A0000002100240027002A00A4
:100DE0002D003000330001010000040107010A0159
:100DF00000002200250028002B002E0031003400C6
:100E000002010000050108010B0100002000230081
:100E1000260029002C002F003200000100000301F1
:100E2000060109010505050507050808080802026D
:100E300002020A0A08080404040401010101010174
:100E400001010303030303030303040707070C0C57
:100E50000C0C0C0C0C0C020202020606060606061E
:100E600006060B0B0B0B0B0B0B0B010210202008C3
:100E700008102040102040800201020108040201F5
:100E80000102040810204080804020100804020164
:100E900080040201804020100804020108040201BD
:100EA0000102040810204080010204081020408044
:100EB00000000A0B02090C0D0E08070304010000D4
:100EC0000000000000000000000000000000000022
:100ED00000000000000000000000000012111000DF
:100EE0000000000000000000000000000000000002
:100EF0000000000000004D6972726F72204D6F6437
:100F000065204F4E0A00436F6F6C696E6720446F17
:100F1000776E204865617465720A005072696E745C
:100F200065722068616C7465642E206B696C6C2836
:100F3000292063616C6C6564210A004572726F72CE
:100F40003A00504944204175746F74756E6520668F
:100F5000696E6973686564210A00504944204175CF
:100F6000746F74756E65206661696C6564212074A8
:100F7000696D656F75740A0020403A006F6B2054EC
:100F80003A006F6B20423A00504944204175746F1B
:100F900074756E65206661696C6564212054656DA9
:100FA000706572617475726520746F6F206869670F
:100FB000680A00204B643A2000204B693A20002048
:100FC0004B703A200020436C617373696320504971
:100FD00044200A002054753A2000204B753A200026
:100FE000206D61783A2000206D696E3A20002064FF
:100FF0003A200020626961733A20003B20472D436C
:101000006F64652067656E657261746564206279DE
:101010002053696D706C69667933442852292056D3
:10102000657273696F6E202564003B202020427535
:10103000696C642074696D653A20256420257320ED
:101040002564202573003B5072696E742074696DAD
:10105000653A2025642025732025642025732025EA
:1010600064202573003B54494D453A256C64003B90
:10107000202020506C61737469632077656967680C
:10108000743A2025642E256467003B46696C616DC7
:10109000656E7420757365643A2025642E25646D31
:1010A0002025642E256467003B46696C616D656E82
:1010B0007420757365643A20256C642E256C646D0C
:1010C000003B45787472756465727320757365644E
:1010D0003A205425642025642E256420542564205C
:1010E00025642E2564003B20202065787472756489
:1010F00065724469616D657465722C25642E256482
:101100002C25642E25640024F4D43050C38E20C2D4
:10111000A24017828B7011127A910D816CD90AA8A6
:1011200061E108C7586607615143061E4B5D05C162
:1011300045A7041A411104093D9803713931034050
:1011400036DB0265339102D4305402802E1D0263D7
:101150002CEE01752AC501B028A001102781018F4E
:101160002564012B244B01E0223401AC211F018DA9
:10117000200D01801FFC00841EED00971DDF00B8CC
:101180001CD200E61BC600201BBC00641AB200B2D1
:1011900019A8000A19A0006A189900D117910040F7
:1011A000178B00B516840031167E00B31579003A0E
:1011B000157300C7146F0058146A00EE1366008898
:1011C00013630025135E00C7125B006C12570015F5
:1011D000125400C111510070114F0021114B00D663
:1011E0001049008D1047004610440002104200C014
:1011F0000F4000800F3E00420F3C00060F3B00CB2B
:101200000E3800930E37005C0E3500270E3400F3C5
:101210000D3200C10D3100900D3000600D2E0032F6
:101220000D2D00050D2C00D90C2B00AE0C290085CE
:101230000C29005C0C2700350C27000E0C2600E85A
:101240000B2400C40B2400A00B23007D0B23005AA9
:101250000B2100390B2100180B2000F80A1F00D9C0
:101260000A1E00BB0A1E009D0A1D00800A1D0063A5
:101270000A1C00470A1B002C0A1B00110A1A00F75F
:10128000091A00DD091900C4091900AB09190092F7
:101290000917007B091800630917004C091600366E
:1012A000091600200916000A091500F5081500E0C6
:1012B000081400CC081400B8081400A40814009006
:1012C0000813007D0812006B08130058081200462E
:1012D000081200340811002308110012081100013F
:1012E000081100F0071000E0071000D0071000C040
:1012F000071000B0070F00A107100091070E008330
:10130000070F0074070F0065070E0057070E00490E
:10131000070E003B070D002E070E0020070D0013DF
:10132000070D0006070D00F9060C00ED060D00E0A4
:10133000060C00D4060C00C8060C00BC060C00B05D
:10134000060C00A4060B0099060C008D060B00820B
:10135000060B0077060B006C060B0061060A0057AF
:10136000060B004C060A0042060A0038060A002E48
:10137000060A0024060A001A060A001006090007D9
:10138000060A00FD050900F4050900EB050900E265
:10139000050900D9050900D0050900C7050900BEE7
:1013A000050900B5050800AD050800A50509009C64
:1013B000050800940508008C050800840508007CD9
:1013C000050800740508006C050700650508005D48
:1013D000050700560508004E0507004705070040B1
:1013E00005080038050700310507002A0507002316
:1013F0000507001C050600160507000F0507000875
:1014000005060002050700FB040600F5040700EED0
:10141000040600E8040600E2040700DB040600D529
:10142000040600CF040600C9040600C3040600BD7C
:10143000040600B7040600B1040500AC040600A6CB
:10144000040600A00405009B040600950405009016
:101450000406008A04050085040500800406007A5D
:1014600004050075040500700405006B04050066A2
:10147000040500610405005C0405005704050052E2
:101480000405004D04050048040500430405003E22
:101490000404003A04050035040500300404002C5F
:1014A00004050027040400230405001E0404001A98
:1014B00004040016040500110404000D04040009CE
:1014C0000405000404040000040400FC030400F804
:1014D000030400F4030400F0030400EC030400E838
:1014E000030400E4030400E0030400DC030400D868
:1014F000030400D4030400D0030400CC030400C898
:10150000030300C503030024F404D9201BC40C5CAE
:101510000E9804C4095F0265077101F405F900FB28
:1015200004B30048048700C1036900580355000351
:10153000034500BE023A008402310053022A00290A
:1015400002250004022000E4011C00C8011900AFBC
:10155000011700980114008401130071011000614B
:1015600001100051010E0043010D0036010B002B4C
:10157000010B0020010B00150109000C01090003FB
:10158000010800FB000800F3000800EB000700E47E
:10159000000600DE000600D8000600D2000600CCDF
:1015A000000500C7000500C2000500BD000400B929
:1015B000000400B5000400B1000400AD000400A95F
:1015C000000400A5000300A20003009F0004009B8C
:1015D00000030098000300950002009300030090B0
:1015E0000003008D0002008B0003008800020086CB
:1015F00000020084000300810002007F0002007DE1
:101600000002007B000200790002007700010076F2
:101610000002007400020072000100710002006FFD
:101620000002006D0001006C0002006A0001006908
:10163000000200670001006600010065000100640F
:101640000002006200010061000100600001005F13
:101650000002005D0001005C0001005B0001005A17
:101660000001005900010058000100570001005618
:101670000001005500010054000100530000005318
:101680000001005200010051000100500001004F14
:101690000001004E0000004E0001004D0001004C12
:1016A0000001004B0000004B0001004A000100490E
:1016B000000100480000004800010047000100460A
:1016C0000000004600010045000000450001004404
:1016D00000010043000000430001004200000042FE
:1016E0000001004100000041000100400001003FF6
:1016F0000000003F0001003E0000003E0001003DF0
:101700000000003D0001003C0000003C0000003CE7
:101710000001003B0000003B0001003A0000003ADD
:1017200000010039000000390001003800000038D5
:1017300000000038000100370000003700010036CB
:1017400000000036000000360001003500000035C2
:1017500000000035000100340000003400000034B7
:1017600000010033000000330000003300010032AC
:1017700000000032000000320001003100000031A2
:101780000000003100010030000000300000003097
:101790000001002F0000002F0000002F0000002F8C
:1017A0000001002E0000002E0000002E0001002D80
:1017B0000000002D0000002D0000002D0001002C75
:1017C0000000002C0000002C0000002C0001002B69
:1017D0000000002B0000002B0000002B0001002A5D
:1017E0000000002A0000002A0000002A0001002951
:1017F0000000002900000029000000290000002945
:101800000001002800000028000000280000002837
:10181000000000280001002700000027000000272A
:10182000000000270000002700010026000000261D
:101830000000002600000026000000260001002510
:101840000000002500000025000000250000002504
:1018500000000025000100240000002400000024F6
:1018600000000024000000240001002300000023E9
:1018700000000023000000230000002300000023DC
:1018800000000023000100220000002200000022CE
:1018900000000022000000220000002200010021C0
:1018A00000000021000000210000002100000021B4
:1018B00000000021000000210001002000000020A5
:1018C0000000002000000020000000200000002098
:1018D00000000020000000200001001F0000001F89
:1018E0000000001F0000001F0000001F0000001F7C
:1018F0000000001F0001001E0000001E0000001E6E
:101900000000001E000000487973746572657369F9
:10191000732074656D70657261747572650A005428
:101920006865726D616C2072756E61776179207087
:10193000726F74656374696F6E20627920486561A7
:101940007465725F49443A0A00202D20496E766121
:101950006C6964206578747275646572206E756D4B
:1019600062657220210A004572726F723A006469E2
:1019700073706C6179206F66666C696E65004243B6
:101980004E3344205369676D610A00737461727449
:101990000A006563686F3A0030312D322E302E31E7
:1019A0000A006572726F722077726974696E6720BF
:1019B000746F2066696C650A00205A3A0020593A13
:1019C0000020583A00656E6473746F707320686904
:1019D000743A20006563686F3A00446F6E65207347
:1019E0006176696E672066696C652E0A006F6B0A06
:1019F000004D3239004572726F72205772697465FA
:101A000020454550524F4D0053657474696E67739D
:101A10002053746F7265640A00204D696E75746599
:101A200073203A0020204C617374207072696E74C8
:101A30002074696D652D3E20486F757273203A00E1
:101A40004C617374207072696E7420647572617475
:101A5000696F6E0A002C2054686972642049442022
:101A60006E756D62657220002C205365636F6E6425
:101A7000204944206E756D6265723A200020204630
:101A800069727374204944206E756D6265723A20E4
:101A900000554920496E666F726D6174696F6E20E2
:101AA00053657269616C204E756D6265723A0A0009
:101AB000206D2C204531207072696E74206469732A
:101AC00074616E63653A2000206B6D2C20453020D8
:101AD0007072696E742064697374616E63653A2014
:101AE00000206B6D2C2059207072696E742064691F
:101AF0007374616E63653A2000206B6D2C20583141
:101B0000207072696E742064697374616E63653AE3
:101B1000200020432C0A205830207072696E7420F7
:101B200064697374616E63653A200020432C206DF4
:101B300061782074656D7020423A200020432C208B
:101B40006D61782074656D7020523A20002C206DF4
:101B500061782074656D70204C3A2000682C2070EC
:101B600072696E74732066696E69736865643A2081
:101B7000002C207072696E74696E672074696D65DF
:101B80003A200020207072696E74733A200053541A
:101B90004154533A0A0020432C20525F5052494E80
:101BA000543A200020432C20525F4245443A200002
:101BB00020432C20525F52454D4F56453A2000207D
:101BC00020525F494E534552543A200054656D707F
:101BD000202843293A0A0020432C204C5F505249C8
:101BE0004E543A200020432C204C5F4245443A207A
:101BF0000020432C204C5F52454D4F56453A200063
:101C000020204C5F494E534552543A200054656D94
:101C100070202843293A0A002056285665727369B5
:101C20006F6E29200020522842656420726967681F
:101C30007420736372657729200020204D3533317D
:101C4000204C28426564206C65667420736372655D
:101C500077292000426564204F666673657473209F
:101C6000286D6D293A0A002050285A2070726F6240
:101C7000652900205A20002059200020204D3533AE
:101C800030205820004F66667365747320286D6D90
:101C9000293A0A00204400204900202D204D3330ED
:101CA0003120524947485420500020440020490028
:101CB00020204D333031204C4546542050005049AF
:101CC000442073657474696E67733A0A00205A0081
:101CD00020590020204D323036205800486F6D6565
:101CE000206F666673657420286D6D293A0A00209E
:101CF0004500205A00205800204200205400202097
:101D00004D323035205300416476616E6365642046
:101D10007661726961626C65733A20533D4D696EFC
:101D200020666565647261746520286D6D2F732966
:101D30002C20543D4D696E2074726176656C20666E
:101D40006565647261746520286D6D2F73292C2080
:101D5000423D6D696E696D756D207365676D656E69
:101D6000742074696D6520286D73292C20583D6D91
:101D70006178696D756D205859206A65726B2028ED
:101D80006D6D2F73292C20205A3D6D6178696D751A
:101D90006D205A206A65726B20286D6D2F73292C77
:101DA0002020453D6D6178696D756D2045206A651F
:101DB000726B20286D6D2F73290A0020540020209B
:101DC0004D323034205300416363656C6572617439
:101DD000696F6E3A20533D616363656C657261742F
:101DE000696F6E2C20543D7265747261637420615A
:101DF0006363656C65726174696F6E0A00204500EB
:101E0000205A0020590020204D3230312058004DFA
:101E10006178696D756D20416363656C657261748D
:101E2000696F6E20286D6D2F7332293A0A002045A4
:101E300000205A0020590020204D32303320580015
:101E40004D6178696D756D20666565647261746554
:101E50007320286D6D2F73293A0A00204500205AFF
:101E60000020590020204D393220580053746570ED
:101E7000732070657220756E69743A0A002C2073A5
:101E8000617665645F466C61675F66616E6C6179FF
:101E900065725F6D6972726F723A20002C207361F7
:101EA0007665645F6665656472617465313A2000C9
:101EB0002C2073617665645F666565647261746524
:101EC000303A20002C2073617665645F66616E6C29
:101ED000617965723A20002C2073617665645F74C5
:101EE000656D706265643A20002C207361766564CC
:101EF0005F74656D70303A20002C207361766564E4
:101F00005F74656D70313A20002C207361766564D2
:101F10005F66696C65706F736974696F6E3A2000F3
:101F20002C2073617665645F655F706F7369746997
:101F30006F6E3A20002C2073617665645F746F6F5A
:101F40006C5F6163746976653A20002C207361765A
:101F500065645F7A5F706F736974696F6E3A2000B1
:101F60002C2073617665645F795F706F7369746943
:101F70006F6E3A20002C2073617665645F785F7025
:101F80006F736974696F6E3A200053415645205053
:101F900052494E54204C4F473A0A006563686F3AE5
:101FA000005072696E74207265636F766572792075
:101FB00075700A004E6F74207072696E74207265BD
:101FC000636F766572792075700A005355434345F7
:101FD00053530A0056616C756573206F7574206FDA
:101FE000662072616E67650A0056616C75657320C4
:101FF0006F7574206F662072616E67650A005661A6
:102000006C756573206F7574206F662072616E67E2
:10201000650A0056616C756573206F7574206F6674
:102020002072616E67650A00535543434553530A56
:102030000056616C756573206F7574206F66207231
:10204000616E67650A0056616C756573206F757403
:10205000206F662072616E67650A0056616C756557
:1020600073206F7574206F662072616E67650A0059
:1020700056616C756573206F7574206F6620726190
:102080006E67650A0020502000205A200020592049
:1020900000536574204D353330205820004D6F6457
:1020A000652032203A206379636C652020202D3E24
:1020B000205247423A203620737461746573002AB7
:1020C0002A2D3E20004D6F64652031203A20726138
:1020D0006E646F6D20202D3E205247423A202B31F6
:1020E000202B32202B332C20647572696E67207090
:1020F00072696E74696E67002A2A2D3E20004D6F4A
:1021000064652030203A2064656661756C74202D0A
:102110003E205247423A2032353520323535203282
:102120003535002A2A2D3E20004C6564206D6F64F1
:102130006573203A004D353336204C5B6D6F646516
:102140005D00486F74656E64206F666673657473B6
:102150003A0054696D6520696E6163746976650A39
:102160000050757267652064697374616E63650AF7
:10217000005A204F6666736574206F6B0A005A2000
:102180004F6666736574203A200A007A5F6D617845
:102190003A20007A5F6D696E3A20005A204F6666D9
:1021A00073657400504F534954494F4E20484F4D6A
:1021B000453A2000526561647920746F204C6F614C
:1021C000642F556E6C6F6164200A000000A040000F
:1021D00000A0400000004020004D6F766520746F25
:1021E0003A2000CDCC98430080934300005243FF37
:1021F00001FF20636F6C6420657874727573696F7A
:102200006E2070726576656E7465640A0065636839
:102210006F3A002A2A2A2047656E6965204469734F
:10222000636F6E6E65637465642066726F6D2047C0
:1022300065744E6578744279746521202A2A2A00D3
:102240002A2A2A2047656E696520456E61626C65A1
:10225000204174746163684576656E7448616E648C
:102260006C657220212121202A2A2A0043616E6E8A
:102270006F7420656E746572207375626469723A5A
:10228000200057726974696E6720746F2066696CEC
:10229000653A20002E0A006F70656E206661696CD9
:1022A00065642C2046696C653A20002E0A006F7028
:1022B000656E206661696C65642C2046696C653AC0
:1022C000200046696C652073656C65637465640AFB
:1022D000002053697A653A200046696C65206F706A
:1022E000656E65643A20002E0A006F70656E206688
:1022F00061696C65642C2046696C653A20004E6FFC
:10230000772066726573682066696C653A20004EB6
:102310006F7720646F696E672066696C653A20008C
:102320002220706F73002220706172656E743A22F1
:1023300000535542524F5554494E452043414C4C51
:10234000207461726765743A2200747279696E67ED
:1023500020746F2063616C6C207375622D67636FEE
:1023600064652066696C6573207769746820746F92
:102370006F206D616E79206C6576656C732E204DD3
:102380004158206C6576656C2069733A000A00201C
:10239000616E7469686F726172690A3A2000206820
:1023A0006F726172690A20002F3800766F6C746555
:1023B00073200020566F6C74657320636172676FC1
:1023C0006C20333A200020616E7469686F7261720C
:1023D000690A3A200020686F726172690A20002F32
:1023E0003800766F6C746573200020566F6C7465CE
:1023F0007320636172676F6C20323A20000A0020FC
:10240000647A333A200020647A323A200054310052
:102410005430005430005430000A00567569746519
:102420006E73333A2020004170726F78333A202067
:1024300000566F6C746573333A2020000A0056759D
:102440006974656E73323A2020004170726F783281
:102450003A202000566F6C746573323A2020005683
:10246000616C6F7220645A333A20200056616C6FA1
:102470007220645A323A2020004E6577206F6666DB
:102480007365742076657273696F6E3A20007A33D3
:102490005F313A20007A325F313A20005A7363721A
:1024A0006F6C6C5F313A20007A335F303A20007AEB
:1024B000325F303A20005A7363726F6C6C5F303A4F
:1024C00020005A76616C75652061667465722068BB
:1024D0006F6D653A00486F6D6520582F5920626511
:1024E000666F7265205A0A007C3C3E5E2B3D3F2F92
:1024F0005B5D3B2C2A225C000A0A005374616E6407
:1025000061726420446576696174696F6E3A200077
:102510000A004D65616E3A20000A002020207A3AB8
:1025200020000A00793A2000783A20003F53706575
:10253000636966696564206E756D626572206F6699
:10254000206C65677320696E206D6F76656D656EB2
:1025500074206E6F7420706C61757361626C652E8F
:102560000A003F537065636966696564205920708D
:102570006F736974696F6E206F7574206F66207257
:10258000616E67652E0A003F537065636966696511
:1025900064205820706F736974696F6E206F757452
:1025A000206F662072616E67652E0A003F5370656A
:1025B0006369666965642073616D706C6520736919
:1025C0007A65206E6F7420706C61757361626C65E2
:1025D0002E0A0046756C6C20737570706F727420D3
:1025E00061743A20687474703A2F2F336470726982
:1025F0006E74626F6172642E636F6D2F666F727599
:102600006D2E7068700A004D3438205A2D50726F4C
:102610006265205265706561746162696C69747984
:1026200020746573742E20202056657273696F6E56
:1026300020322E30300A003F566572626F7365207B
:102640004C6576656C206E6F7420706C617573617B
:10265000626C652E0A004649524D574152455F4E05
:10266000414D453A4D61726C696E2042434E334490
:10267000205369676D613B204649524D5741524591
:102680005F56455253494F4E3A30312D322E302E3F
:10269000313B204649524D574152455F55524C3AC5
:1026A00068747470733A2F2F6769746875622E634B
:1026B0006F6D2F42434E33442F42434E3344536990
:1026C000676D612D4669726D776172653B2050526E
:1026D0004F544F434F4C5F56455253494F4E3A313A
:1026E0002E303B204D414348494E455F545950459B
:1026F0003A42434E3344205369676D613B2045584D
:102700005452554445525F434F554E543A323B2044
:10271000555549443A00205A3A0020593A0020437E
:102720006F756E7420583A200020453A00205A3ABE
:102730000020593A00583A004D313037004E657745
:10274000206C617965722064657465637465640AE0
:10275000003B206C61796572003B4C415945520049
:10276000256920686F757273202569206D696E7503
:1027700074657300446F6E65207072696E74696E63
:10278000672066696C650A004D33330050617573CC
:1027900065207061726B696E670A004736390050B8
:1027A00072696E7465722073746F707065642064F2
:1027B000756520746F206572726F72732E20466982
:1027C0007820746865206572726F7220616E642073
:1027D000757365204D39393920746F2072657374B3
:1027E0006172742E202854656D7065726174757203
:1027F000652069732072657365742E20536574209B
:102800006974206166746572207265737461727494
:10281000696E67290A006F6B0A004E6F204C696E63
:1028200065204E756D6265722077697468206368F3
:1028300065636B73756D2C204C617374204C696EED
:10284000653A20004E6F20436865636B73756D2099
:1028500077697468206C696E65206E756D6265724B
:102860002C204C617374204C696E653A20006368BB
:1028700065636B73756D206D69736D617463682C2E
:10288000204C617374204C696E653A20004C696E6F
:1028900065204E756D626572206973206E6F7420BD
:1028A0004C617374204C696E65204E756D62657263
:1028B0002B312C204C617374204C696E653A2000DA
:1028C0004D31313000CDCC9843008093430000520D
:1028D000430000000000000000000000000A00208B
:1028E0007A3A200020793A200020783A2000426588
:1028F0006400486F74656E64206F666673657473F8
:102900003A00504944204175746F74756E652066B5
:10291000696E6973686564212050757420746865F8
:10292000206C617374204B702C204B6920616E64A5
:10293000204B6420636F6E7374616E7473206672D3
:102940006F6D2061626F766520696E746F20436FD2
:102950006E66696775726174696F6E2E680A0050E1
:102960004944204175746F74756E65206661696CA9
:102970006564212074696D656F75740A0020403AA2
:10298000006F6B20543A006F6B20423A005049446C
:10299000204175746F74756E65206661696C65643D
:1029A000212054656D706572617475726520746F55
:1029B0006F20686967680A00204B643A2000204B4A
:1029C000693A2000204B703A200020436C617373F9
:1029D000696320504944200A002054753A200020A1
:1029E0004B753A2000206D61783A2000206D696EA9
:1029F0003A200020643A200020626961733A200086
:102A00005354415449535449435320524553455418
:102A10000A006C61796572206865696768743A209C
:102A20000045787472756465722072656C656173B7
:102A30006564206163746976653A20005A205349C1
:102A4000474D4120486F6D65640A00457874727582
:102A5000646572206163746976653A200000000045
:102A60000000809343000000002E2E2E2054696D3C
:102A7000656F757421002A2A2A2047656E696520D2
:102A800057726974654F626A656374202A2A2A2026
:102A90002D2D2D3E002E2E2E204E414B2021002A82
:102AA0002A2A2047656E69652057726974654F62EE
:102AB0006A656374202A2A2A202D2D2D3E002E2E91
:102AC0002E2041434B2021002A2A2A2047656E6987
:102AD000652057726974654F626A656374202A2A9B
:102AE0002A202D2D2D3E002A2A2A2047656E696551
:102AF000204261642042797465202A2A2A202D2DE3
:102B00002D3E203078002056616C75653A200020FB
:102B1000496E6465783A20002A2A2A2047656E6942
:102B200065205265706F7274204F626A656374200D
:102B30002A2A2A204F626A6563743A20002A2A2AC8
:102B40002047656E696520436F6E6E6563746564CA
:102B5000202F2053796E6321202A2A2A00205661D3
:102B60006C75653A200020496E6465783A20002A29
:102B70002A2A2047656E6965205265706F7274203D
:102B80004576656E74202A2A2A204F626A6563742E
:102B90003A2000204C656E6774683A20002A2A2A81
:102BA0002047656E696520526563656976656420B6
:102BB0004D6167696320446F75626C65204279746A
:102BC0006573202A2A2A20496E6465783A200020FD
:102BD0004C656E6774683A20002A2A2A2047656E81
:102BE0006965205265636569766564204D61676932
:102BF00063204279746573202A2A2A20496E64650D
:102C0000783A20002A2A2A2047656E6965204E41BD
:102C10004B205265636F7665727920212121202A2D
:102C20002A2A002A2A2A2047656E6965204469738A
:102C3000636F6E6E65637465642066726F6D2044A9
:102C40006F4576656E747321202A2A2A002A2A2A63
:102C50002047656E696520546F6F6B20746F6F201D
:102C60006C6F6E6720746F2072652D656E7465726F
:102C700020446F4576656E747328292C2072656434
:102C80007563652064656C61797320696E20636F7C
:102C900064652C2073656C662D70726F7465637447
:102CA000696F6E20656E61626C65642E202A2A2A27
:102CB000005341564544205052494E540A007A7000
:102CC000726F62653A200053442063617264206F22
:102CD0006B0A006F70656E526F6F74206661696C6D
:102CE00065640A00766F6C756D652E696E69742077
:102CF0006661696C65640A004572726F723A0053CE
:102D00004420696E6974206661696C0A00656368B5
:102D10006F3A004D3234004D323320257300617517
:102D2000746F25692E670053746F72656420736534
:102D30007474696E67732072657472696576656410
:102D40000A0048617264636F64656420446566616B
:102D5000756C742053657474696E6773204C6F6171
:102D60006465640A0048617264636F64656420434B
:102D7000616C696220616E6420504944204465663C
:102D800061756C742053657474696E6773204C6F41
:102D9000616465640A000A00205A3A200020593A0A
:102DA000200020583A2000426564002E0A00446545
:102DB0006C6574696F6E206661696C65642C204671
:102DC000696C653A200046696C652064656C6574C1
:102DD00065643A002E0A006F70656E206661696C4A
:102DE00065642C2046696C653A2000526573656EF7
:102DF000643A20006F6B0A004475706C69204D6F57
:102E00006465204F4E0A000069026F0211241FBE44
:102E1000CFEFD1E2DEBFCDBF00E00CBF18E0A0E0F5
:102E2000B2E0E0E7F0EB03E00BBF02C007900D92C9
:102E3000A235B107D9F72EE1A2E5B8E001C01D9295
:102E4000A331B207E1F717E1C5E0D7E100E006C022
:102E500021970109802FFE010F9414D5C430D107AA
:102E600080E00807A9F70F9493B10D9427D80C942C
:102E700000002F923F924F925F926F927F928F92BB
:102E80009F92AF92BF92CF92DF92EF92FF920F93F9
:102E90001F93CF93DF93CDB7DEB7C352D1400FB6A8
:102EA000F894DEBF0FBECDBF2DB73EB7CE5DDE4F6F
:102EB00039832883C252D14011E010934B0980918D
:102EC000880881110CC00E940ACE60938408709318
:102ED00085088093860890938708109388088091CE
:102EE0007C0881110DC00E940ACE6093780870930F
:102EF000790880937A0890937B0881E080937C081E
:102F00009091711A409125025091260260912702FA
:102F100070912802911106C08091721A882311F4D1
:102F20000C942122453A51056105710509F449C601
:102F30000CF0C3C0473551056105710509F4B6C4ED
:102F40000CF05EC0413251056105710511F40C941D
:102F5000392034F5413151056105710509F4F0C797
:102F600074F4413051056105710509F4E8C240313E
:102F700051056105710509F4BBC10C94E76043314B
:102F800051056105710509F479C40CF497C4403208
:102F900051056105710511F40C9448200C94E7600B
:102FA000413451056105710509F4D7C4ACF44533CA
:102FB00051056105710511F40C94ED204D33510557
:102FC0006105710509F4F0C34133510561057105CF
:102FD00011F00C94E7602DC446345105610571056C
:102FE00009F4BFC4433551056105710509F4C3C235
:102FF000443451056105710509F489C70C94E760F3
:10300000473951056105710511F40C94D3204CF535
:10301000463751056105710509F472C474F44835E9
:1030200051056105710509F4E5C34A35510561058E
:10303000710509F412C60C94E7604E37510561051D
:10304000710509F48DC1493851056105710509F40F
:1030500043C24B3751056105710511F00C94E760CF
:10306000FCC54C3951056105710511F40C946920BA
:103070009CF44A3951056105710511F40C945720EF
:1030800014F00C946020483951056105710511F464
:103090000C94C2200C94E760433A51056105710518
:1030A00009F47CC50CF0B3C54D39510561057105B6
:1030B00011F40C9496200C94E7604F3E5105610585
:1030C000710509F472C20CF088C0433D51056105D9
:1030D000710511F40C94DD21BCF5483A51056105E8
:1030E000710509F4A7C504F5463A51056105710556
:1030F00009F4FCC4473A51056105710511F00C94BF
:10310000E7608091ED089091EE08A091EF08B091F2
:10311000F00891608093ED089093EE08A093EF087B
:10312000B093F0080C94E7604A3A510561057105C7
:1031300009F408C50CF458C54E3B510561057105ED
:1031400009F46AC30C94E760453E510561057105B9
:1031500009F40BC414F5433E51056105710509F4EA
:1031600017C40CF066C4423E51056105710511F0AB
:103170000C94E7608091ED089091EE08A091EF0823
:10318000B091F00882608093ED089093EE08A093D0
:10319000EF08B093F0080C94E7604D3E51056105CF
:1031A000710509F40BC10CF0C2C14A3E510561051D
:1031B000710511F00C94E76040E050E06EE681E2AA
:1031C0000F94438D80910710909108109260909316
:1031D0000810809307100C94E7604B3F5105610580
:1031E000710509F401C484F5473F51056105710576
:1031F00009F432C4A4F4423F51056105710509F494
:10320000BAC1463F51056105710509F44AC4413F01
:1032100051056105710511F00C94E76090C1809132
:10322000ED089091EE08A091EF08B091F008209180
:10323000050330910603493F51056105710509F405
:1032400094C40CF466C4B7C34E3631E0530761052D
:10325000710509F4A8C0B4F5483691E05907610535
:10326000710509F4B1C74A36A1E05A076105710535
:1032700009F499C0453651406105710511F00C946F
:10328000E76040E050E06AE28AE00F94438D40E05E
:1032900050E064E581E20F94438D81E08093970FC5
:1032A00010929A0F6DE978E086E20F944B8E809130
:1032B0000710909108109860909308108093071061
:1032C0000C94E7604937E1E05E076105710509F498
:1032D00033C64538F1E05F076105710509F46CC13B
:1032E000483751406105710511F00C94E76094C5B1
:1032F00080910C02813419F541E050E066E08BE1E9
:103300000F94438D41E050E060E181E20F94438DE2
:1033100041E050E062E181E20F94438D41E050E0F2
:1033200063E181E20F94438D41E050E06EE781E27A
:103330000F94438D84E480930C020C94E7608434F2
:1033400011F00C94E7608091071090910810806450
:1033500090930810809307101092970F0C94E760D9
:1033600040E050E066E08BE10F94438D40E050E098
:1033700060E181E20F94438D40E050E062E181E240
:103380000F94438D40E050E063E181E20F94438D60
:1033900040E050E06EE781E20F94438D81E480933A
:1033A0000C020C94E76080910710909108109260D5
:1033B00090930810809307100C94E76080910C02A2
:1033C000823419F583E480930C0241E050E063E01D
:1033D0008BE10F94438D41E050E067E581E20F946B
:1033E000438D41E050E066E781E20F94438D41E078
:1033F00050E06DEE81E20F94438D41E050E069E8CA
:1034000081E20F94438D0C94E760833411F00C94A7
:10341000E76011E01093430940E050E068E981E281
:103420000F94438D40E050E067E981E20F94438DB3
:1034300040E050E06CE981E20F94438D40E050E0C1
:103440006DE981E20F94438D41E050E06AE481E24E
:103450000F94438D40E050E06CE28AE00F94438D7E
:1034600010939A0F8FEF9FEF9093E3028093E20205
:1034700040E050E06AE981E20F94438D40E050E083
:103480006BE981E20F94438D6091720A7091730A27
:103490008091740A9091750A0F943CD2AB0166E258
:1034A00089E00F94438D6091760A7091770A80913C
:1034B000780A9091790A0F943CD2AB0167E289E0D7
:1034C0000F94438D40E050E068E289E00F94438D13
:1034D0001092970F0C94E76080910C02833411F0E6
:1034E0000C94E76082E480930C0240E050E063E0DB
:1034F0008BE10F94438D40E050E067E581E20F944B
:10350000438D40E050E066E781E20F94438D40E058
:1035100050E06DEE81E20F94438D40E050E069E8A9
:1035200081E20F94438D10929A0F0C94E76040E073
:1035300050E064E58AE00F94438D0C94E7601092AC
:10354000970F80E00F94B39280910710909108102C
:103550008260909308108093071081E08093A20905
:1035600040E050E068E08AE00F94438D81E480936E
:10357000A3090C94E76080910C10882311F40C943B
:10358000E76041E050E0809109108A3011F440E09A
:1035900050E069E18BE10F94438D40E050E062E53B
:1035A0008AE00F94438D0C94E76089E48093BC0219
:1035B0000F94E2220C94E7608091B5089091B608D0
:1035C00090939113809390130E94A1FF8091B7086C
:1035D0009091B80890939313809392130E94A1FF47
:1035E00082E480930C0282E58093BC0281E08093A8
:1035F0009A0F1092970F909109109A3009F480E079
:1036000080933D12E82FF0E0EE0FFF1FE057FC4ED5
:10361000208131813093770820937608811105C08D
:103620008091A4119091A51104C08091A81190914E
:10363000A911918380830E94A1FF81E48093A30953
:1036400040E050E068E08AE00F94438D40E050E0B5
:1036500064E581E20F94438D80E090E0A3E4B3E45D
:103660008093B3139093B413A093B513B093B61390
:103670008090291290902A12A0902B12B0902C12B8
:103680002091AF133091B0134091B1135091B21308
:103690006091AB137091AC138091AD139091AE1308
:1036A000EEE96E2EE3E17E2E7F926F92F7EBCF2E46
:1036B000F3E1DF2EE12CF12C03E413E40F946032EC
:1036C0000F947C0180E090E0A0E2B1E48093AF131E
:1036D0009093B013A093B113B093B21380902512BE
:1036E00090902612A0902712B0902812E090B31369
:1036F000F090B4130091B5131091B6136091AB1311
:103700007091AC138091AD139091AE137F926F9234
:1037100020E030E040E251E40F9460320F947C01ED
:103720000F900F900F900F908091A3098E3411F499
:103730000C94E2291092A3090E9482C140E050E05B
:1037400060E289E00F94438D40E050E064E28AE05B
:103750000F94438D00913D1210E0F801EE0FFF1F12
:10376000EE0FFF1FEE58F54F6081718182819381CA
:103770000F943CD27093290960932809000F111F00
:10378000F801E057FC4E808191810A9790932709B8
:103790008093260989E48093A3090E9482C181E075
:1037A000809344090C94E76080910C0240E050E063
:1037B000813441F469E08AE00F94438D6DE978E04B
:1037C00082E007C06AE28AE00F94438D6DE978E0F9
:1037D00086E20F944B8E80910710909108109860AC
:1037E000909308108093071010929A0F1092970FE1
:1037F0000C94E7608091E10881110C94E76080915E
:10380000721A81110C94E76040E050E069E38AE0AD
:103810000F94438D0C94E7608091E10881110C9422
:10382000E76040E050E061E08AE00F94438D0C9443
:10383000E7608091E10881110C94E76010910C021F
:10384000113411F00C94E7601092970F1092711AD6
:1038500081E08093721A40E050E068E08AE00F94C3
:10386000438D1093A30980910710909108109460E4
:1038700090930810809307100C94E76080910C02DD
:10388000813439F440E050E061E08AE00F94438DE8
:10389000ADCF843409F0AACF809107109091081021
:1038A00090619093081080930710A0CF80910C0234
:1038B000823441F3833409F099CFEECF80910C022A
:1038C000992369F0813459F4809107109091081080
:1038D000886090930810809307100C94E7608434FC
:1038E00011F00C94E76080910710909108108068A7
:1038F00090930810809307101092970F0C94E76034
:103900008091721A882311F40C94E76080910C0264
:10391000823459F48091071090910810806190933F
:103920000810809307100C94E760833411F00C9416
:10393000E76040E050E066E18AE00F94438D41E0AB
:1039400050E064E581E20F94438D82E58093BC02F0
:1039500081E080939A0F0C94E7600E94A5A30C94D9
:10396000E7600E942FA30C94E7608091ED0890918E
:10397000EE08A091EF08B091F00884608093ED0804
:103980009093EE08A093EF08B093F0080C94E760D2
:103990008091ED089091EE08A091EF08B091F008A9
:1039A00088608093ED089093EE08A093EF08B093A1
:1039B000F0080C94E7602330310559F4A16080933E
:1039C000ED089093EE08A093EF08B093F0080C94E4
:1039D000E76084608093ED089093EE08A093EF0871
:1039E000B093F0080C94E760209105033091060332
:1039F0008091ED089091EE08A091EF08B091F00849
:103A00002330310559F4A2608093ED089093EE08BD
:103A1000A093EF08B093F0080C94E760886080935F
:103A2000ED089093EE08A093EF08B093F0080C9483
:103A3000E7608091ED089091EE08A091EF08B091B9
:103A4000F00881608093ED089093EE08A093EF0852
:103A5000B093F0080C94E7602091050330910603C1
:103A60008091ED089091EE08A091EF08B091F008D8
:103A70002330310559F490618093ED089093EE085E
:103A8000A093EF08B093F0080C94E76081608093F6
:103A9000ED089093EE08A093EF08B093F0080C9413
:103AA000E76020910503309106038091ED08909125
:103AB000EE08A091EF08B091F0082330310559F4D9
:103AC00090628093ED089093EE08A093EF08B09376
:103AD000F0080C94E76082608093ED089093EE0804
:103AE000A093EF08B093F0080C94E7608091ED0884
:103AF0009091EE08A091EF08B091F0088062809359
:103B0000ED089093EE08A093EF08B093F0080C94A2
:103B1000E7602330310559F490648093ED08909369
:103B2000EE08A093EF08B093F0080C94E760806271
:103B30008093ED089093EE08A093EF08B093F008FF
:103B40000C94E7608091ED089091EE08A091EF0849
:103B5000B091F00880618093ED089093EE08A093F7
:103B6000EF08B093F0080C94E7602330310559F466
:103B700090688093ED089093EE08A093EF08B093BF
:103B8000F0080C94E76080618093ED089093EE0854
:103B9000A093EF08B093F0080C94E7608091ED08D3
:103BA0009091EE08A091EF08B091F00880648093A6
:103BB000ED089093EE08A093EF08B093F0080C94F2
:103BC000E7608091ED089091EE08A091EF08B09128
:103BD000F00880688093ED089093EE08A093EF08BA
:103BE000B093F0080C94E7608091ED089091EE0896
:103BF000A091EF08B091F00892608093ED08909347
:103C0000EE08A093EF08B093F0080C94E760809161
:103C1000ED089091EE08A091EF08B091F008946043
:103C20008093ED089093EE08A093EF08B093F0080E
:103C30000C94E7608091ED089091EE08A091EF0858
:103C4000B091F00898608093ED089093EE08A093EF
:103C5000EF08B093F0080C94E7604A355105610510
:103C6000710519F410923D1203C081E080933D125A
:103C700080913D12E82FF0E0EE0FFF1FE057FC4E61
:103C8000208131813093770820937608811105C017
:103C90008091A4119091A51104C08091A8119091D8
:103CA000A911918380830E94A1FF81E48093A309DD
:103CB00040E050E068E08AE00F94438D40E050E03F
:103CC00064E581E20F94438D80E090E0A3E4B3E4E7
:103CD0008093B3139093B413A093B513B093B6131A
:103CE0008090291290902A12A0902B12B0902C1242
:103CF0002091AF133091B0134091B1135091B21392
:103D00006091AB137091AC138091AD139091AE1391
:103D1000EEE96E2EE3E17E2E7F926F92F7EBCF2ECF
:103D2000F3E1DF2EE12CF12C03E413E40F94603275
:103D30000F947C0180E090E0A0E2B1E48093AF13A7
:103D40009093B013A093B113B093B2138090251247
:103D500090902612A0902712B0902812E090B313F2
:103D6000F090B4130091B5131091B6136091AB139A
:103D70007091AC138091AD139091AE137F926F92BE
:103D800020E030E040E251E40F9460320F947C0177
:103D90000F900F900F900F908091A3098E3411F423
:103DA0000C94E2291092A3090E9482C140E050E0E5
:103DB00060E289E00F94438D40E050E064E28AE0E5
:103DC0000F94438D00913D1210E0F801EE0FFF1F9C
:103DD000EE0FFF1FEE58F54F608171818281938154
:103DE0000F943CD27093290960932809000F111F8A
:103DF000F801E057FC4E808191810A979093270942
:103E00008093260989E48093A3090E9482C181E0FE
:103E1000809344090C94E76040E050E060E289E060
:103E20000F94438D40E050E064E28AE00F94438DAC
:103E300089E48093A3090E9482C100913D1201117F
:103E40001DC08091A6119091A71160911E097091DB
:103E50001F09681779072CF4BC01990F880B990B7F
:103E600004C0072E000C880B990B0F941CCA0F94EA
:103E70003CD2709391136093901320C08091AA114B
:103E80009091AB1160912409709125096817790709
:103E90002CF4BC01990F880B990B04C0072E000C61
:103EA000880B990B0F941CCA10E0000F111F0057CC
:103EB0001C4E0F943CD2D8016D937C930E94A1FFBD
:103EC00000913D1210E0F801EE0FFF1FEE0FFF1FF3
:103ED000EE58F54F60817181828193810F943CD2BD
:103EE0007093290960932809000F111FF801E0570A
:103EF000FC4E808191810A9790932709809326092F
:103F00000E9482C181E0809344090C94E760809113
:103F1000BB02882311F40C94725F80913D128823B8
:103F200011F086E301C08AE10E9478CC892B11F060
:103F30000C94725F0C94E7600E941BA40C94E760E1
:103F40008091B61181FF02C00C94E7609091E70F59
:103F50008091E60F98130C94106140E050E06BE004
:103F600084E10F94438D40E050E065E18AE00F94D6
:103F7000438D82E48093A30980936112E0913D1206
:103F800034E0E39FF0011124EC5BFD4F608171810F
:103F9000828193816093AB137093AC138093AD13C4
:103FA0009093AE13E090B313F090B4130091B51357
:103FB0001091B6132091AF133091B0134091B1130B
:103FC0005091B213EDE3F2E1FF93EF93812C912C2A
:103FD000E8E4AE2EE3E4BE2EF7EBCF2EF3E1DF2EC6
:103FE0000F946032E090B313F090B4130091B513C6
:103FF0001091B6132091AF133091B0134091B113CB
:104000005091B213E0919E1364E0E69FF0011124F9
:10401000EC5BFD4F60817181828193810E94D5F0BC
:10402000E0919E1384E0E89FF0011124EC5BFD4FCA
:1040300080819181A281B3818093AB139093AC1363
:10404000A093AD13B093AE13E0913D12F0E0EE0FEC
:10405000FF1FE057FC4E809176089091770891837E
:1040600080830E94A1FF0F947C010F900F900C940D
:10407000E7608091B61181FF02C00C94E760209147
:10408000E70F9091E60F29130C9414610C941761BB
:104090008091B61181FF02C00C94E7602091E70F78
:1040A0009091E60F29130C9414610C941B6190916C
:1040B000E70F8091E60F98130C94E7600C941F6152
:1040C0009091E70F8091E60F98130C94E7600C94A1
:1040D000AA61E091E202F091E302EF3F9FEFF9075E
:1040E00011F40C94E760EE0FFF1FE057FC4E808147
:1040F00091818B33A1E09A0714F00C94E760059648
:10410000918380830E94A1FF0E94A1FFE091E202BF
:10411000F091E302EE0FFF1FE057FC4E408151810A
:1041200068E289E00F94438D0C94E760E091E2022D
:10413000F091E302EF3FBFEFFB0711F40C94E7604F
:10414000EE0FFF1FE057FC4E808191811816190673
:1041500014F00C94E7600597918380830E94A1FF7F
:104160000E94A1FFE091E202F091E302EE0FFF1F37
:10417000E057FC4E4081518168E289E00F94438D05
:104180000C94E7608091E2029091E302019611F4B1
:104190000C94E7609091E70F8091E60F98130C94D0
:1041A00014610C9438628091E2029091E3020196CE
:1041B00011F40C94E7609091E70F8091E60F98134B
:1041C0000C9414610C943E629091E70F8091E60F7D
:1041D00098130C94E7600C944462809161128234CD
:1041E00011F00C94E7601092A30980910710909150
:1041F00008108D7F90930810809307108091BC0267
:10420000823531F489E48093BC020F94E222D1C05C
:10421000893409F0CEC081E48093A30940E050E0E6
:1042200068E08AE00F94438D4090C0085090C10828
:104230006090C2087090C3084092AF135092B013C0
:104240006092B1137092B21320E030E040E752E484
:104250006091C8027091C9028091CA029091CB020C
:104260000F9490D14B015C01E090B313F090B41324
:104270000091B5131091B6136091AB137091AC130C
:104280008091AD139091AE132EE933E13F932F93BC
:1042900027EBC22E23E1D22EA30192010F946032AC
:1042A0000F947C010F900F908091A3098E3411F42C
:1042B0000C94E22920E030E040E251E46091C4082F
:1042C0007091C5088091C6089091C7080F94A2D03C
:1042D0007B018C016093B3137093B4138093B51377
:1042E0009093B6138091B90889838090CC02909006
:1042F000CD02A090CE02B090CF022091AF133091AA
:10430000B0134091B1135091B2136091AB137091FF
:10431000AC138091AD139091AE13FE013196FF93D3
:10432000EF930F9460320F947C010F900F90809167
:10433000A3098E3411F40C94E2291092A30982E4AB
:1043400080930C0240E050E063E08BE10F94438DDA
:1043500040E050E067E581E20F94438D40E050E09B
:1043600066E781E20F94438D40E050E06DEE81E21C
:104370000F94438D40E050E069E881E20F94438D53
:1043800040E050E06AE28AE00F94438D81E0809340
:10439000970F10929A0F6DE978E086E20F944B8E9A
:1043A0008091071090910810986090930810809366
:1043B0000710109261120C94E760809149091092E5
:1043C000A3098823E9F01092490980910710909180
:1043D00008109860909308108093071080910C0249
:1043E00040E050E0813431F469E08AE00F94438D7D
:1043F0000C94E7606AE28AE00F94438D0C94E760C6
:1044000010925E1210929A0FE4E6F8E084918F0108
:10441000882351F0082E000C990B0F942E900F5FFB
:104420001F4FF8018491F4CF1092480981E00E9457
:1044300010C140E050E065E08AE00F94438D0C9499
:10444000E76080919008282F287083FF90C3909197
:104450009408923008F48BC3423B51056105710505
:1044600009F4B9C07CF5433851056105710509F4BB
:10447000A6C1A4F44E3551056105710509F4F1C2D8
:104480004F3551056105710509F41DC345335105CB
:104490006105710511F00C94E76028C3423A51059B
:1044A0006105710509F46BC0413B5105610571055A
:1044B00009F47BC0403A51056105710511F00C9477
:1044C000E760B3C04233F1E05F076105710509F4AD
:1044D0005CC14CF54C3C51056105710509F48FC078
:1044E000463E51056105710509F45DC1453C510524
:1044F0006105710511F00C94E7600E9411A341E081
:1045000050E065EC81E20F94438D41E050E060EAB9
:1045100081E20F94438D81E090E09093F3028093C9
:10452000F2020C94E760463331E0530761057105F0
:1045300009F415C1ACF4433351406105710511F024
:104540000C94E7608DEF9FEF90936312809362125B
:1045500040E050E06AE08AE00F94438D0C94E760FD
:104560004A33A1E05A076105710509F430C14E379D
:1045700051406105710509F4F2C10C94E7600E9495
:1045800011A341E050E062EA81E20F94438D41E0E3
:1045900050E060EA81E20F94438D8EEF9FEF90939D
:1045A000F3028093F2020C94E7600E9411A341E0B1
:1045B00050E061EB81E20F94438D41E050E060EA0E
:1045C00081E20F94438D8FEF9FEF9093F3028093DE
:1045D000F2020C94E7600E9411A341E050E062EB0C
:1045E00081E20F94438D41E050E060EA81E20F9454
:1045F000438D1092F3021092F2020C94E7600E9435
:1046000011A341E050E06CEC81E20F94438D41E056
:1046100050E060EA81E20F94438D82E090E0909355
:10462000F3028093F2020C94E7600091F202109181
:10463000F30298012E5F3F4F2530310510F00C94A6
:10464000E7609230D9F583E08093940840E050E031
:1046500061E18AE00F94438D80E58093A309809106
:104660009108080F0093910800E010E020E030E08E
:104670004CE553EC60E070E088EA92EC0F9411B8DE
:104680000E9411A380E697E09093F3028093F202D8
:1046900040E050E060EA81E20F94438D42E050E058
:1046A0006CE08BE10F94438D40E050E069E18AE0DB
:1046B0000F94438D1092A3090C94E7609330D9F5C1
:1046C00084E08093940840E050E061E18AE00F9438
:1046D000438D80E58093A30980919208080F009391
:1046E000920800E010E020E030E04CE553EC60E0A0
:1046F00070E084EA92E40F9411B80E9411A380E65E
:1047000097E09093F3028093F20240E050E060EA79
:1047100081E20F94438D42E050E06CE08BE10F9416
:10472000438D40E050E069E18AE00F94438D1092A0
:10473000A3090C94E760943011F00C94E760809129
:104740009308080F0093930840E050E06EE28AE07F
:104750000F94438D8FE48093A3090C94E7600E942B
:1047600011A340E050E060EA81E20F94438D40E005
:1047700050E069E18AE00F94438D80E697E09093E2
:10478000F3028093F2020C94E76083E090E0909350
:1047900063128093621240E050E06AE08AE00F9476
:1047A000438D0C94E760109263121092621240E005
:1047B00050E06AE08AE00F94438D0C94E76040E09B
:1047C00050E06DE68AE00F94438D0C94E76040E082
:1047D00050E068E08AE00F94438D81E48093A30960
:1047E00041E061E081E00F9405851092A3090F94E8
:1047F0007C010E9489A510916212809194088230F8
:10480000B1F540E050E061E18AE00F94438D80E52E
:104810008093A30900919108010F00939108002E45
:10482000000C110B20E030E0A901CA01B9010F947E
:1048300011B80E9411A380E697E09093F302809351
:10484000F20240E050E060EA81E20F94438D42E0E2
:1048500050E06CE08BE10F94438D40E050E069E163
:104860008AE00F94438D1092A3090C94E760833083
:10487000C9F540E050E061E18AE00F94438D80E5A6
:104880008093A30900919208010F00939208002ED3
:10489000000C110B20E030E04CE553EC60E070E0E0
:1048A00088EA92EC0F9411B80E9411A380E697E079
:1048B0009093F3028093F20240E050E060EA81E2DC
:1048C0000F94438D42E050E06CE08BE10F94438DF8
:1048D00040E050E069E18AE00F94438D1092A30913
:1048E0000C94E760843011F00C94E76040E050E0F5
:1048F00061E18AE00F94438D80E58093A3090091E4
:104900009308010F00939308002E000C110B20E078
:1049100030E04CE553EC60E070E084EA92E40F9400
:1049200011B80E9411A380E697E09093F302809360
:10493000F20240E050E060EA81E20F94438D42E0F1
:1049400050E06CE08BE10F94438D40E050E069E172
:104950008AE00F94438D1092A3090C94E7601092A3
:10496000A3098091910840919208042F081B40915F
:104970009308142F181B602F002E000C770B880B48
:10498000990B0F941CCA2DEC3CEC4CEC5DEB0F9496
:1049900007C56093990870939A0880939B08909339
:1049A0009C08612F012E000C770B880B990B0F943C
:1049B0001CCA2DEC3CEC4CEC5DEB0F9407C56093EE
:1049C0009508709396088093970890939808002311
:1049D000A1F040E050E06FE18AE00F94438D07FFC3
:1049E00007C0E02FFF27E1950CF4F09508E00E0FCB
:1049F000402F000F550B64E015C01123B9F040E0C3
:104A000050E060E28AE00F94438D17FF07C0212F2A
:104A1000332721950CF4309518E0120F412F110F18
:104A2000550B65E08BE10F94438D11C014E4109396
:104A3000611240E050E06BE084E10F94438D40E070
:104A400050E065E18AE00F94438D1093A30983E859
:104A500090E09093AD118093AC110F9477120C9469
:104A6000E7604091930880919108142F181BC1F0C2
:104A700040E050E060E28AE00F94438D17FF07C0EA
:104A8000812F992781950CF4909518E0180F412FEC
:104A9000110F550B65E08BE10F94438D0C94E7608B
:104AA00014E41093611240E050E06BE084E10F9455
:104AB000438D40E050E065E18AE00F94438D109310
:104AC000A3090C94E76014E41093611240E050E0F5
:104AD0006BE084E10F94438D40E050E065E18AE0B3
:104AE0000F94438D1093A3090C94E7609091611289
:104AF000943411F00C94E76010929408877F8093AF
:104B000090081092A30910928B1310928A130E949E
:104B10005DFF10929113109290130E94A1FF1092CA
:104B20009313109292130E94A1FF10925E121092A2
:104B30009A0FE9E5F8E084918F01882351F0082E5F
:104B4000000C990B0F942E900F5F1F4FF80184916A
:104B5000F4CF109248090E9410C140E050E065E097
:104B60008AE00F94438D109261120C94E7604E38E6
:104B7000F1E05F0710F00C94E760FA018827EE5827
:104B8000FF4F8F4F0D9414D58091BE029091BF02BC
:104B900082609093BF028093BE020C94E760809184
:104BA000BE029091BF0284609093BF028093BE02C8
:104BB0000C94E7608091BE029091BF028860909350
:104BC000BF028093BE020C94E7608091BE02909178
:104BD000BF0280619093BF028093BE020C94E76095
:104BE0008091BE029091BF0280629093BF02809339
:104BF000BE020C94E7600F942746009781F48091E1
:104C0000BE029091BF0294609093BF028093BE0257
:104C100080917B13815080937B130C94E760019704
:104C200011F00C94E7608091BE029091BF029460F5
:104C30009093BF028093BE0240E050E067E381E2C0
:104C40000F94438D40E050E061E08BE10F94438D81
:104C500080917B13815080937B130C94E7601092BA
:104C60005E1210929A0FEEE4F8E084918F0188238F
:104C700051F0082E000C990B0F942E900F5F1F4FD0
:104C8000F8018491F4CF1092480981E00E9410C18C
:104C900040E050E065E08AE00F94438D0C94E760BB
:104CA0008091731A882311F40C94E76041E061E06D
:104CB00084E79AE10F9426478FEF9FEF9093621A53
:104CC0008093611A412C512C32017301620100E082
:104CD00010E080E1A82E8AE1B82E9E012F5F3F4FA1
:104CE000190188248394912C4091121D5091131D19
:104CF0006091141D7091151D80916D1C90916E1C1A
:104D0000A0916F1CB091701C84179507A607B70778
:104D100008F06DC0D501E2E31D92EA95E9F70E9423
:104D200022F20196D9F410925C1A10925B1A10923A
:104D30005E1A10925D1A81E090E09093601A809361
:104D40005F1A10926C1A10926B1A10926E1A1092CF
:104D50006D1A80E00F94B3920C94626201151105F4
:104D600021F52FEF3FEF3A8329833F922F92ABEF4C
:104D7000BFE0BF93AF93BF92AF920F94F5C9898103
:104D80009A810F900F900F900F900F900F900196B7
:104D900039F09092621A8092611A07E010E021C007
:104DA0001092621A1092611A1CC080E00F94E5B054
:104DB0006B017C0181E00F94E5B02B013C0120E008
:104DC00030E0A901C701B6010F947AD318167CF020
:104DD00020E030E0A901C301B2010F947AD3181684
:104DE00034F00F5F1F4F0E3111050CF47DCF80E0C2
:104DF0000F94B39220E030E0A901C701B6010F94EF
:104E000016CA18165CF020E030E0A901C301B20117
:104E10000F9416CA181614F00C9462628090F40273
:104E20009090F502A090F602B090F702A5019401CF
:104E3000C701B6010F9416CA811114C020E030E0FA
:104E4000A901C701B6010F947AD318165CF420E0CB
:104E500030E0A901C301B2010F9416CA181614F06C
:104E60000C9462622091F8023091F9024091FA02AA
:104E70005091FB02C65EDE4F288339834A835B83F1
:104E8000CA51D140C301B2010F9416CA81111EC08C
:104E900020E030E0A901C301B2010F947AD31816C3
:104EA0005CF420E030E0A901C701B6010F9416CAF6
:104EB000181614F00C946262A5019401C701B601A2
:104EC0000F9416CA882311F40C94626220E030E03B
:104ED000A901C701B6010F9416CA20E030E040E2F4
:104EE00051E418161CF0C501B40102C0C701B60197
:104EF0000F9407C50F943CD26093290220E030E064
:104F0000A901C301B2010F9416CA20E030E040E2CB
:104F100051E418164CF0C65EDE4F688179818A81B3
:104F20009B81CA51D14002C0C301B2010F9407C591
:104F30000F943CD260932A0240E050E06FE58AE093
:104F40000F94438D6091F4027091F5028091F60206
:104F50009091F7020F943CD2AB016DE489E00F947D
:104F6000438D20E030E040E251E46091F402709122
:104F7000F5028091F6029091F7020F9407C50F9405
:104F80003CD20AE010E0CB01B8010F94E5D4AC01AB
:104F90006EE489E00F94438D6091F8027091F902FC
:104FA0008091FA029091FB020F943CD2AB016FE426
:104FB00089E00F94438D20E030E040E251E46091BD
:104FC000F8027091F9028091FA029091FB020F941D
:104FD00007C50F943CD2CB01B8010F94E5D4AC01C6
:104FE00060E589E00F94438D809129021AE0612FDA
:104FF0000F94C4D4482F880F550B61E589E00F94B6
:10500000438D80912902612F0F94C4D4492F990FA9
:10501000550B62E589E00F94438D80912A02612F40
:105020000F94C4D4482F880F550B63E589E00F9483
:10503000438D80912A02612F0F94C4D4492F990F78
:10504000550B64E589E00F94438DBCC18091731AC0
:10505000882311F40C94E7608091C31A81110C9499
:10506000E760CDB6DEB68091BA119091BB110F9476
:105070006B46E4E7FAE1DF010D900020E9F78DB718
:105080009EB78A1B9B0B9C012059354E0FB6F89496
:105090003EBF0FBE2DBF0DB71EB70F5F1F4FFF9353
:1050A000EF938EEE97E09F938F931F930F930F9440
:1050B000C6C9780134E0E30EF11C0F900F900F90F9
:1050C0000F900F900F90F7018081882349F0082EF0
:1050D000000C990B0F9496D7D7018D937D01F3CFD8
:1050E000C8010E9442CB8AEE97E00E9413C10FB61E
:1050F000F894DEBE0FBECDBE0C94E76081E08093D5
:105100005E128091BE029091BF0292609093BF02A6
:105110008093BE020C94E7608091BE029091BF0222
:1051200091609093BF028093BE020C94E7608091DF
:10513000BE029091BF0280689093BF028093BE022E
:105140000C94E76040E050E062E18AE00F94438D08
:105150000C94E76040E050E06CE18AE00F94438DEE
:1051600080E00E9410C11092B9111092B8111092F3
:10517000B71181E0809348090C94E76010925E12A9
:1051800010929A0FEFEDF7E084918F01882351F090
:10519000082E000C990B0F942E900F5F1F4FF801F3
:1051A0008491F4CF109248090E9482C181E00E944C
:1051B00010C140E050E065E08AE00F94438D0C940C
:1051C000E7608091901390919113892B29F01092B0
:1051D00091131092901308C080912513909126137B
:1051E00090939113809390130E94A1FF1092B91194
:1051F0000C94E7608091921390919313892B29F07E
:10520000109293131092921308C0809122139091E0
:10521000231390939313809392130E94A1FF1092F3
:10522000B8110C94E76080918A1390918B13892BAD
:1052300029F010928B1310928A131CC08091CF0812
:105240009091D0086091CD087091CE0868177907C9
:105250002CF4BC01990F880B990B04C0072E000C8D
:10526000880B990B0F941CCA0F943CD270938B132C
:1052700060938A130E945DFF1092B7110C94E7604F
:105280008BED97E00E9413C10C94E76040E050E082
:105290006EE18AE00F94438D0C94E76040E050E0AB
:1052A00065E08AE00F94438D10925E1210929A0F7F
:1052B000E0EDF7E084918F01882351F0082E000C77
:1052C000990B0F942E900F5F1F4FF8018491F4CF2C
:1052D0001092480988E793E090930E0280930D02A4
:1052E0000F9477120C94E76040E050E06AE18AE0A6
:1052F0000F94438D0F940A918091731A882311F4AF
:105300000C94E76080917A1380937B13B2E5EB2EC7
:10531000B3E1FB2E16E6C12E13E1D12E00E010E022
:1053200080917A1390E008171907FCF464E77AE19A
:105330008BEE9AE10F94295E5701D7018D919D91D3
:105340007D010F946B46F50180819181D6018D938B
:105350009D936D018091C31A882321F084E79AE11F
:105360000F94354B0F5F1F4FDBCF87E090E00F941A
:1053700074230C94E76080910D0290910E028036A8
:10538000974041F488E793E090930E0280930D02DA
:105390000F94771240E050E068E08AE00F94438D6C
:1053A00081E48093A309809127138823D1F040E002
:1053B00061E081E00F9405850F947C018091A30941
:1053C0008E3489F48FEF9FEFDC0180932502909358
:1053D0002602A0932702B093280210924B090C9446
:1053E000D46641E0E5CF81E00E9410C11092A3098C
:1053F0008DEC97E00E9413C10F947C018091A3096A
:105400008E3401F340E050E06BE08AE00F94438D6E
:105410000C94E76040E050E064E08AE00F94438D34
:105420000C94E76040E050E064E28AE00F94438D22
:105430008091B41182608093B41189E48093A309B0
:1054400040E050E060E289E00F94438D60912513C5
:1054500070912613072E000C880B990B0F941CCA11
:1054600000E010E028EC31E440E050E00E948AF8CF
:105470000F94771266EC74E087EE97E10E94C3F513
:1054800069EC74E087EE97E10E94C3F560917E02BB
:1054900070917F02809180029091810242E050E001
:1054A0000F940E4C6DEC74E087EE97E10E94C3F50B
:1054B0002DEB37E346E05EE3609176027091770270
:1054C00080917802909179020F9490D142E050E05F
:1054D0000F940E4C61ED74E087EE97E10E94C3F5E6
:1054E0002DEB37E346E05EE360916E0270916F0250
:1054F00080917002909171020F9407C542E050E0D4
:105500000F940E4C6091221370912313072E000C00
:10551000880B990B0F941CCA00E010E028EC31E4D2
:1055200041E050E00E948AF80F94771266EC74E034
:1055300087EE97E10E94C3F569EC74E087EE97E18E
:105540000E94C3F56091820270918302809184026F
:105550009091850242E050E00F940E4C6DEC74E0A7
:1055600087EE97E10E94C3F52DEB37E346E05EE35B
:1055700060917A0270917B0280917C0290917D0211
:105580000F9490D142E050E00F940E4C61ED74E026
:1055900087EE97E10E94C3F52DEB37E346E05EE32B
:1055A0006091720270917302809174029091750201
:1055B0000F9407C542E050E00F940E4C1092A309DF
:1055C0000E9482C140E050E06BE084E10F94438D83
:1055D00040E050E065E18AE00F94438D84E48093DD
:1055E00061128093A3090C94E76040E050E068E208
:1055F0008AE00F94438D0C94E76040E050E062E154
:105600008AE00F94438D0C94E76010925E12109222
:105610009A0FE2ECF7E084918F01882351F0082E75
:10562000000C990B0F942E900F5F1F4FF80184917F
:10563000F4CF109248090E9482C140E050E065E03A
:105640008AE00F94438D0C94E76040E050E062E103
:105650008AE00F94438D0C94E76082E58093BC024E
:105660008091B41181608093B41140E050E06BE50B
:1056700081E20F94438D40E050E06CE581E20F94AD
:10568000438D40E050E060E08BE10F94438D40E0BB
:1056900050E06AE781E20F94438D40E050E069E713
:1056A00081E20F94438D40E050E06DE18AE00F9479
:1056B000438D8FEF80933D120C94E76040E050E003
:1056C0006CE68AE00F94438D0C94E76040E050E074
:1056D00062E18AE00F94438D40E050E06BE581E2A7
:1056E0000F94438D40E050E06CE581E20F94438DD0
:1056F00040E050E060E08BE10F94438D40E050E0EB
:105700006AE781E20F94438D40E050E069E781E26F
:105710000F94438D8091B4118E7F8093B4110C94BB
:10572000E76010925E1210929A0FE7EBF7E0849117
:105730008F01882351F0082E000C990B0F942E90A6
:105740000F5F1F4FF8018491F4CF1092480940E099
:1057500050E065E08AE00F94438D40E050E06BE557
:1057600081E20F94438D40E050E06CE581E20F94BC
:10577000438D40E050E060E08BE10F94438D40E0CA
:1057800050E06AE781E20F94438D40E050E069E722
:1057900081E20F94438D8091B4118E7F8093B41178
:1057A0000C94E76041E050E06BE581E20F94438D9B
:1057B00040E050E06CE581E20F94438D41E050E021
:1057C00060E08BE10F94438D41E050E06AE781E2B5
:1057D0000F94438D41E050E069E781E20F94438DDF
:1057E00010923D120C94E76040E050E06BE581E2DE
:1057F0000F94438D41E050E06CE581E20F94438DBE
:1058000041E050E060E08BE10F94438D41E050E0D7
:105810006AE781E20F94438D41E050E069E781E25D
:105820000F94438D81E080933D120C94E76080914A
:105830000D0290910E028036974041F488E793E084
:1058400090930E0280930D020F94771280913D1277
:105850008F3F11F40C94E7600F9437AE0C94E7601F
:1058600080910D0290910E028036974041F488E7B6
:1058700093E090930E0280930D020F947712E091C3
:105880003D12EF3F11F40C94E76081E08093A10991
:10589000F0E0EE0FFF1FE057FC4E84E091E09183B3
:1058A00080830E94A1FF81E48093A30940E050E03F
:1058B00068E08AE00F94438D80912713882311F0CC
:1058C00040E001C041E061E081E00F9405850F9464
:1058D0007C018091A3098E3409F474CD80E090E0BE
:1058E000A3E4B3E48093B3139093B413A093B513DC
:1058F000B093B6138090291290902A12A0902B1288
:10590000B0902C122091AF133091B0134091B1138D
:105910005091B2136091AB137091AC138091AD13A1
:105920009091AE13AEE96A2EA3E17A2E7F926F9228
:10593000B7EBCB2EB3E1DB2EE12CF12C03E413E427
:105940000F9460320F947C010F900F908091A30907
:105950008E3409F437CD80E090E0A0E2B1E480938A
:10596000AF139093B013A093B113B093B213809080
:10597000251290902612A0902712B0902812E09045
:10598000B313F090B4130091B5131091B613609156
:10599000AB137091AC138091AD139091AE137F92C5
:1059A0006F9220E030E040E251E40F9460320F94B7
:1059B0007C010F900F908091A3098E3409F402CDE1
:1059C00080913D12811111C080E090E00F9408A7F2
:1059D00080E090E0A0E9B2E48093AB139093AC1325
:1059E000A093AD13B093AE1320C081E090E00F946C
:1059F00008A720E030E048EC51E460914802709143
:105A0000490280914A0290914B020F94A1D020E06C
:105A100030E04CE352E40F94A1D06093AB13709349
:105A2000AC138093AD139093AE13E090B313F0904A
:105A3000B4130091B5131091B6132091AF133091A8
:105A4000B0134091B1135091B2136091AB137091A8
:105A5000AC138091AD139091AE13EDE3F2E1FF939F
:105A6000EF93812C912CE8E4AE2EE3E4BE2EF7EB0D
:105A7000CF2EF3E1DF2E0F9460320F947C010F9054
:105A80000F908091A3098E3409F49CCC1092A30945
:105A90000E9482C140E050E065E28AE00F94438DAD
:105AA0000C94E7608091B411877C84608093B4117A
:105AB0000C94E7608091B411837D80618093B41170
:105AC0000C94E7608091B411837E80628093B4115E
:105AD0000C94E7608091B4118B7C88608093B41142
