:100000000C94850D0C94B60D0C94B60D0C94B60D95
:100010000C94B60D0C94B60D0C94B60D0C94B60D54
:100020000C94B60D0C94B60D0C94B60D0C94B60D44
:100030000C94B60D0C94B60D0C94B60D0C94B60D34
:100040000C94B60D0D94C5010C94B60D0C94B60D20
:100050000C94B60D0C94B60D0D949A190D944E2275
:100060000C94B60D0D946C260D94A2260C94B60D2E
:100070000C94B60D0C94B60D0C94B60D0C94B60DF4
:100080000C94B60D0C94B60D0C94B60D0C94B60DE4
:100090000C94B60D0C94B60D0C94B60D0D94202155
:1000A0000C94B60D0C94B60D0C94B60D0C94B60DC4
:1000B0000C94B60D0C94B60D0C94B60D0C94B60DB4
:1000C0000C94B60D0C94B60D0C94B60D0D94172728
:1000D0000D944D270C94B60D0C94B60D0C94B60DE2
:1000E0000C94B60D3D010D01D1002F011901EB005B
:1000F0003901D900270125011D012D01D500CD00B1
:10010000F500FF002B01DF00CB00F900C900FD0066
:10011000330117010B012B01E10007010101C700A9
:100120000F011301F700E500FB00CF00DB003101F8
:10013000E300EF001101F1003501FB003B01E70096
:10014000D300084AD73B3BCE016E84BCBFFDC12F14
:100150003D6C74319ABD56833DDA3D00C77F11BEB8
:10016000D9E4BB4C3E916BAAAABE000000803F05BB
:10017000A84CCDB2D44EB93836A9020C50B99186EC
:1001800088083CA6AAAA2ABE000000803F000D9461
:100190002B240D94B4230D94A2230D947C230D9451
:1001A00032240D944B1A0D9460240D9477230D94F2
:1001B000D4260D949B1A0D9436240D94F4200D949E
:1001C0009A230D94EB230D9440240D9427240D9431
:1001D0005C240D9407250D947F1A0D94CB260D9465
:1001E00044240D944E240D94FC240D9486230D94E8
:1001F00021240D94AA230D9465240D94BE230D94FF
:1002000090230D94FF230D948A200D9415250D94B1
:10021000F5230D9489200D94E1230D942F1A0D944C
:100220002E240D944A240D941D240D9429250D94FB
:10023000D7230D94721A0D9476270D94A71A0D9456
:10024000B6200D945F200D9485250D949F1A0D9472
:100250009D1A0D94A6250D9409240D9472230D94D6
:10026000581A0D943C240D94C8230D9452240D94D7
:100270007A200D94991A0D9458240D94221A0D94F5
:10028000CF270D947F270D9467204D3834205820B8
:1002900059205A2045004D313037005430004D313F
:1002A0003037004D3234004D3233202573006175F4
:1002B000746F25692E67006572726F72207772699C
:1002C00074696E6720746F2066696C65004E6F7488
:1002D000205344207072696E74696E67002F00535A
:1002E00044207072696E74696E672062797465204B
:1002F000002E0044656C6574696F6E206661696CE0
:1003000065642C2046696C653A200046696C65205E
:1003100064656C657465643A002E006F70656E20CC
:100320006661696C65642C2046696C653A200057EB
:10033000726974696E6720746F2066696C653A2013
:10034000002E006F70656E206661696C65642C20FC
:1003500046696C653A20002E006F70656E206661FC
:10036000696C65642C2046696C653A200046696CAE
:10037000652073656C6563746564002053697A65F4
:100380003A200046696C65206F70656E65643A209E
:10039000002E006F70656E206661696C65642C20AC
:1003A00046696C653A20004E6F7720667265736807
:1003B0002066696C653A20004E6F7720646F696E25
:1003C000672066696C653A20002220706F730022F6
:1003D00020706172656E743A2200535542524F5537
:1003E00054494E452043414C4C20746172676574FA
:1003F0003A2200747279696E6720746F2063616CB1
:100400006C207375622D67636F64652066696C6527
:1004100073207769746820746F6F206D616E792026
:100420006C6576656C732E204D4158206C65766541
:100430006C2069733A0053442063617264206F6BCF
:10044000006F70656E526F6F74206661696C6564D1
:1004500000766F6C756D652E696E697420666169D2
:100460006C656400534420696E6974206661696C30
:10047000006563686F3A004572726F723A004861B6
:100480007264636F6465642043616C696220616EAD
:1004900064205049442044656661756C742053653E
:1004A0007474696E6773204C6F61646564004861A1
:1004B0007264636F6465642044656661756C742062
:1004C00053657474696E6773204C6F616465640072
:1004D00053746F7265642073657474696E677320FA
:1004E0007265747269657665640020525F50524986
:1004F0004E54200020525F424544200020525F525B
:10050000454D4F5645200020525F494E53455254A9
:10051000200054656D702028EFBFBD43293A0020AC
:100520004C5F5052494E542000204C5F42454420BD
:1005300000204C5F52454D4F56452000204C5F49EE
:100540004E53455254200054656D702028EFBFBDB6
:1005500043293A00205A200020592000205820002A
:100560004F66667365747320286D6D293A002044C8
:1005700000204900202D204D33303120524947487A
:1005800054205000204400204900204D33303120B9
:100590004C4546542050005049442073657474699A
:1005A0006E67733A00205A0020590020204D3230E7
:1005B00036205800486F6D65206F6666736574203D
:1005C000286D6D293A00204500205A00205800204F
:1005D000420020540020204D323035205300416429
:1005E00076616E636564207661726961626C6573C1
:1005F0003A20533D4D696E2066656564726174658D
:1006000020286D6D2F73292C20543D4D696E207468
:10061000726176656C206665656472617465202818
:100620006D6D2F73292C20423D6D696E696D756D5E
:10063000207365676D656E742074696D6520286D23
:1006400073292C20583D6D6178696D756D2058595E
:10065000206A65726B20286D6D2F73292C20205A1B
:100660003D6D6178696D756D205A206A65726B20E9
:10067000286D6D2F73292C2020453D6D6178696DA3
:10068000756D2045206A65726B20286D6D2F73296A
:100690000020540020204D32303420530041636349
:1006A000656C65726174696F6E3A20533D61636376
:1006B000656C65726174696F6E2C20543D7265744F
:1006C0007261637420616363656C65726174696FE4
:1006D0006E00204500205A0020590020204D323065
:1006E000312058004D6178696D756D2041636365F7
:1006F0006C65726174696F6E20286D6D2F7332297D
:100700003A00204500205A0020590020204D323068
:10071000332058004D6178696D756D20666565649C
:10072000726174657320286D6D2F73293A0020451E
:1007300000205A0020590020204D39322058005303
:10074000746570732070657220756E69743A005319
:10075000657474696E67732053746F7265640065A5
:1007600063686F3A005072696E7465722068616CDC
:100770007465642E206B696C6C28292063616C6C35
:10078000656421006F6B00526573656E643A2000EA
:100790000A00207A3A200020793A200020783A2076
:1007A00000426564002200556E6B6E6F776E2063A9
:1007B0006F6D6D616E643A202200486F74656E64DF
:1007C000206F6666736574733A005A204F666673CD
:1007D0006574203A20007A5F6D61783A20007A5F74
:1007E0006D696E3A20005A204F6666736574005A30
:1007F000204F6666736574206F6B00486F74656E7A
:1008000064206F6666736574733A007A5F6D696E13
:100810003A2000795F6D61783A2000785F6D6178E9
:100820003A2000785F6D696E3A2000205A3A002025
:10083000593A0020436F756E7420583A20002045C5
:100840003A00205A3A0020593A00583A0046495294
:100850004D574152455F4E414D453A4D61726C696D
:100860006E2056313B20537072696E7465722F672B
:1008700072626C206D617368757020666F7220679C
:10088000656E36204649524D574152455F55524C90
:100890003A68747470733A2F2F6769746875622EA2
:1008A000636F6D2F4572696B5A616C6D2F4D61726C
:1008B0006C696E2F2050524F544F434F4C5F56453A
:1008C0005253494F4E3A312E30204D414348494E04
:1008D000455F545950453A4D656E64656C204558E6
:1008E0005452554445525F434F554E543A32205569
:1008F0005549443A30303030303030302D3030309F
:10090000302D303030302D303030302D30303030F0
:1009100030303030303030300A0020423A0020454C
:100920003A00543A0020573A0020453A00543A0021
:100930002042403A0020403A00202F003A00205444
:1009400000202F0020423A00202F006F6B20543AE5
:10095000000A0A005374616E646172642044657613
:10096000696174696F6E3A20000A004D65616E3AE4
:1009700020000A002020207A3A200000793A200046
:10098000783A20003F537065636966696564206E3C
:10099000756D626572206F66206C65677320696E85
:1009A000206D6F76656D656E74206E6F7420706C4F
:1009B00061757361626C652E0A003F5370656369EF
:1009C00066696564205920706F736974696F6E2061
:1009D0006F7574206F662072616E67652E0A003F26
:1009E000537065636966696564205820706F736928
:1009F00074696F6E206F7574206F662072616E6708
:100A0000652E0A003F5370656369666965642073EB
:100A1000616D706C652073697A65206E6F742070EB
:100A20006C61757361626C652E0A0046756C6C2092
:100A3000737570706F72742061743A20687474708A
:100A40003A2F2F33647072696E74626F6172642E14
:100A5000636F6D2F666F72756D2E7068700A004D32
:100A60003438205A2D50726F62652052657065616E
:100A7000746162696C69747920746573742E2020C6
:100A80002056657273696F6E20322E30300A003F37
:100A9000566572626F7365204C6576656C206E6F6B
:100AA0007420706C61757361626C652E0A00256933
:100AB000206D696E2C2025692073656300456E6486
:100AC0002066696C65206C69737400426567696EA5
:100AD0002066696C65206C697374000A00205A3ABC
:100AE000200020593A200020583A20004265640036
:100AF000486F6D6520582F59206265666F726520BA
:100B00005A000A0020616E7469686F726172690A26
:100B10003A200020686F726172690A20002F380045
:100B2000766F6C746573200020566F6C746573204B
:100B3000636172676F6C20333A200020616E7469C4
:100B4000686F726172690A3A200020686F72617280
:100B5000690A20002F3800766F6C746573200020BE
:100B6000566F6C74657320636172676F6C20323AE4
:100B7000200020616E7469686F726172690A3A20A0
:100B80000020686F726172690A20002F3800766F4A
:100B90006C746573200020566F6C746573206361FC
:100BA00072676F6C20313A20000A0020647A333A71
:100BB000200020647A323A200020647A313A200002
:100BC0000A00207A633A2000486F6D6520582F593B
:100BD000206265666F7265205A00486F6D65205807
:100BE0002F59206265666F7265205A00256920685A
:100BF0006F757273202569206D696E757465730059
:100C0000446F6E65207072696E74696E67206669E4
:100C10006C6500473639005072696E7465722073D6
:100C2000746F707065642064756520746F206572E0
:100C3000726F72732E204669782074686520657221
:100C4000726F7220616E6420757365204D39393979
:100C500020746F20726573746172742E202854653D
:100C60006D70657261747572652069732072657349
:100C700065742E20536574206974206166746572F2
:100C80002072657374617274696E6729006F6B00FE
:100C90004E6F204C696E65204E756D6265722077CF
:100CA00069746820636865636B73756D2C204C6193
:100CB0007374204C696E653A20004E6F204368655E
:100CC000636B73756D2077697468206C696E65203D
:100CD0006E756D6265722C204C617374204C696E68
:100CE000653A2000636865636B73756D206D697389
:100CF0006D617463682C204C617374204C696E655F
:100D00003A20004C696E65204E756D6265722069EF
:100D100073206E6F74204C617374204C696E652073
:100D20004E756D6265722B312C204C617374204CB2
:100D3000696E653A20004D31313000446F6E652098
:100D4000736176696E672066696C652E006F6B0053
:100D50004D3239007374617274007A20666C6F775B
:100D600020313030002200656E717565696E672034
:100D700022002200656E717565696E67202200474A
:100D800034300054300047343000543000473430A1
:100D900000543000473430005430004734300054A1
:100DA000300054310054300054300054310054317C
:100DB000005430005430005431004734330047347D
:100DC0003300473431004734300047343100473472
:100DD0003100473431004734310047343100473463
:100DE0003100473431004734310047343100473453
:100DF0003100543000543000473334005430004741
:100E00003334005430004733340054300047333417
:100E10000054300047343300473433004733340044
:100E20004D3234004D3233202573004D3834205874
:100E30002059205A2045004D31303700543000549D
:100E40003000543100473730004D38342058205995
:100E5000205A20450054300047323820583020595D
:100E60003000FF01FF0000A0400000A04000000093
:100E70004033F39743008093430000524300000047
:100E800000008093430000000033F39743008093F9
:100E9000430000524300000000000000000000007A
:100EA000006563686F3A004572726F723A002063A2
:100EB0006F6C6420657874727573696F6E207072E0
:100EC0006576656E746564006563686F3A007C3CA6
:100ED0003E5E2B3D3F2F5B5D3B2C2A225C00205A5F
:100EE0003A0020593A0020583A00656E6473746FD6
:100EF0007073206869743A200024F4D43050C38E93
:100F000020C2A24017828B7011127A910D816CD988
:100F10000AA861E108C7586607615143061E4B5D88
:100F200005C145A7041A411104093D9803713931DF
:100F3000034036DB0265339102D4305402802E1D0B
:100F400002632CEE01752AC501B028A0011027818B
:100F5000018F2564012B244B01E0223401AC211FB9
:100F6000018D200D01801FFC00841EED00971DDF08
:100F700000B81CD200E61BC600201BBC00641AB2DD
:100F800000B219A8000A19A0006A189900D1179197
:100F90000040178B00B516840031167E00B315791A
:100FA000003A157300C7146F0058146A00EE1366F8
:100FB000008813630025135E00C7125B006C125794
:100FC0000015125400C111510070114F0021114B36
:100FD00000D61049008D1047004610440002104210
:100FE00000C00F4000800F3E00420F3C00060F3B48
:100FF00000CB0E3800930E37005C0E3500270E3400
:1010000000F30D3200C10D3100900D3000600D2E47
:1010100000320D2D00050D2C00D90C2B00AE0C2933
:1010200000850C29005C0C2700350C27000E0C26CF
:1010300000E80B2400C40B2400A00B23007D0B232D
:10104000005A0B2100390B2100180B2000F80A1F51
:1010500000D90A1E00BB0A1E009D0A1D00800A1D41
:1010600000630A1C00470A1B002C0A1B00110A1A05
:1010700000F7091A00DD091900C4091900AB0919A4
:1010800000920917007B091800630917004C091624
:101090000036091600200916000A091500F5081582
:1010A00000E0081400CC081400B8081400A40814C8
:1010B00000900813007D0812006B081300580812F6
:1010C000004608120034081100230811001208110C
:1010D0000001081100F0071000E0071000D0071011
:1010E00000C0071000B0070F00A107100091070E05
:1010F0000083070F0074070F0065070E0057070EE7
:101100000049070E003B070D002E070E0020070DBB
:101110000013070D0006070D00F9060C00ED060D83
:1011200000E0060C00D4060C00C8060C00BC060C3F
:1011300000B0060C00A4060B0099060C008D060BEF
:101140000082060B0077060B006C060B0061060A96
:101150000057060B004C060A0042060A0038060A31
:10116000002E060A0024060A001A060A00100609C4
:101170000007060A00FD050900F4050900EB050952
:1011800000E2050900D9050900D0050900C70509D5
:1011900000BE050900B5050800AD050800A5050954
:1011A000009C050800940508008C050800840508CB
:1011B000007C050800740508006C0507006505083B
:1011C000005D050700560508004E050700470507A6
:1011D000004005080038050700310507002A05070B
:1011E00000230507001C050600160507000F05076C
:1011F000000805060002050700FB040600F50407C9
:1012000000EE040600E8040600E2040700DB040622
:1012100000D5040600CF040600C9040600C3040676
:1012200000BD040600B7040600B1040500AC0406C6
:1012300000A6040600A00405009B04060095040512
:1012400000900406008A0405008504050080040659
:10125000007A04050075040500700405006B0405A0
:101260000066040500610405005C040500570405E0
:1012700000520405004D0405004804050043040520
:10128000003E0404003A040500350405003004045F
:10129000002C04050027040400230405001E040498
:1012A000001A04040016040500110404000D0404CF
:1012B00000090405000404040000040400FC030405
:1012C00000F8030400F4030400F0030400EC03043A
:1012D00000E8030400E4030400E0030400DC03046A
:1012E00000D8030400D4030400D0030400CC03049A
:1012F00000C8030300C503030024F404D9201BC461
:101300000C5C0E9804C4095F0265077101F405F9CD
:1013100000FB04B30048048700C10369005803556B
:101320000003034500BE023A008402310053022A42
:10133000002902250004022000E4011C00C8011954
:1013400000AF01170098011400840113007101100F
:10135000006101100051010E0043010D0036010B28
:10136000002B010B0020010B00150109000C0109E5
:101370000003010800FB000800F3000800EB000771
:1013800000E4000600DE000600D8000600D20006D9
:1013900000CC000500C7000500C2000500BD000428
:1013A00000B9000400B5000400B1000400AD000461
:1013B00000A9000400A5000300A20003009F000490
:1013C000009B0003009800030095000200930003B7
:1013D00000900003008D0002008B000300880002D3
:1013E000008600020084000300810002007F0002EA
:1013F000007D0002007B00020079000200770001FE
:101400000076000200740002007200010071000208
:10141000006F0002006D0001006C0002006A000114
:10142000006900020067000100660001006500011C
:101430000064000200620001006100010060000120
:10144000005F0002005D0001005C0001005B000124
:10145000005A000100590001005800010057000126
:101460000056000100550001005400010053000027
:101470000053000100520001005100010050000122
:10148000004F0001004E0000004E0001004D000121
:10149000004C0001004B0000004B0001004A00011D
:1014A0000049000100480000004800010047000119
:1014B0000046000000460001004500000045000114
:1014C000004400010043000000430001004200000E
:1014D0000042000100410000004100010040000105
:1014E000003F0000003F0001003E0000003E000100
:1014F000003D0000003D0001003C0000003C0000F9
:10150000003C0001003B0000003B0001003A0000ED
:10151000003A0001003900000039000100380000E5
:1015200000380000003800010037000000370001DB
:1015300000360000003600000036000100350000D3
:1015400000350000003500010034000000340000C8
:1015500000340001003300000033000000330001BC
:1015600000320000003200000032000100310000B3
:1015700000310000003100010030000000300000A8
:1015800000300001002F0000002F0000002F00009D
:10159000002F0001002E0000002E0000002E000190
:1015A000002D0000002D0000002D0000002D000186
:1015B000002C0000002C0000002C0000002C00017A
:1015C000002B0000002B0000002B0000002B00016E
:1015D000002A0000002A0000002A0000002A000162
:1015E0000029000000290000002900000029000057
:1015F0000029000100280000002800000028000049
:10160000002800000028000100270000002700003B
:10161000002700000027000000270001002600002E
:101620000026000000260000002600000026000121
:101630000025000000250000002500000025000016
:101640000025000000250001002400000024000007
:1016500000240000002400000024000100230000FA
:1016600000230000002300000023000000230000EE
:1016700000230000002300010022000000220000DF
:1016800000220000002200000022000000220001D1
:1016900000210000002100000021000000210000C6
:1016A00000210000002100000021000100200000B6
:1016B00000200000002000000020000000200000AA
:1016C000002000000020000000200001001F00009A
:1016D000001F0000001F0000001F0000001F00008E
:1016E000001F0000001F0001001E0000001E00007F
:1016F000001E0000001E0000006563686F3A005085
:101700004944204175746F74756E652066696E6911
:10171000736865642100504944204175746F747585
:101720006E65206661696C6564212074696D656F02
:1017300075740020403A006F6B20543A006F6B20A4
:10174000423A00504944204175746F74756E6520AB
:101750006661696C6564212054656D7065726174A1
:1017600075726520746F6F206869676800204B642C
:101770003A2000204B693A2000204B703A2000208C
:10178000436C617373696320504944200020547591
:101790003A2000204B753A2000206D61783A2000F5
:1017A000206D696E3A200020643A20002062696151
:1017B000733A2000504944204175746F74756E650A
:1017C0002066696E697368656421205075742074A1
:1017D0006865206C617374204B702C204B6920610C
:1017E0006E64204B6420636F6E7374616E7473203B
:1017F00066726F6D2061626F766520696E746F200E
:10180000436F6E66696775726174696F6E2E6800EA
:10181000504944204175746F74756E652066616926
:101820006C6564212074696D656F75740020403AA1
:10183000006F6B20543A006F6B20423A00504944CD
:10184000204175746F74756E65206661696C65649E
:10185000212054656D706572617475726520746FB6
:101860006F206869676800204B643A2000204B694C
:101870003A2000204B703A200020436C617373695A
:10188000632050494420002054753A2000204B75B5
:101890003A2000206D61783A2000206D696E3A2070
:1018A0000020643A200020626961733A20007001D0
:1018B0002C0190012701B0012201C0011D01F0019E
:1018C00018011002130130020E016002090190029A
:1018D0000401C002FF000003FA004003F50080038A
:1018E000F000D003EB002004E6007004E100E00407
:1018F000DC004005D700C005D2004006CD00D00670
:10190000C8008007C3003008BE00F008B900C00955
:10191000B400B00AAF00B00BAA00D00CA500000EB6
:10192000A000500F9B00C0109600501291000014B0
:101930008C00C0158700B0178200B0197D00D01B45
:101940007800001E730040206E0090226900F02491
:10195000640040275F0090295A00E02B5500102EAC
:10196000500020304B0010324600E03341009035EB
:101970003C001037370070383200A0392D00B03AE3
:101980002800A03B2300603C1E00103D1900903D44
:101990001400103E0F00703E0A00C03E0500003FDC
:1019A000000000000A0B02090C0D0E0807030401D9
:1019B0000000000000000000000000000000000027
:1019C00000000000000000000000000000001211F4
:1019D00010000000000000000000000000000000F7
:1019E0000000000000000000010210202008081084
:1019F000204010204080020102010804020101027F
:101A00000408102040808040201008040201800457
:101A100002018040201008040201080402010102B2
:101A200004081020408001020408102040800505B1
:101A30000505070508080808020202020A0A080844
:101A40000404040401010101010101010303030372
:101A500003030303040707070C0C0C0C0C0C0C0C01
:101A60000202020206060606060606060B0B0B0B12
:101A70000B0B0B0B000020002300260029002C007C
:101A80002F003200000100000301060109010000DF
:101A90002200250028002B002E0031003400020116
:101AA0000000050108010B010000210024002700AF
:101AB0002A002D003000330001010000040107015D
:101AC0000A014E414E494E495459494E46CDCCCC5F
:101AD0003D0AD7233C17B7D13877CC2B329595E602
:101AE000241FB14F0A000020410000C84200401CE2
:101AF0004620BCBE4CCA1B0E5AAEC59D7400FA26C9
:101B00006B7EDD00D70041017F7E11241FBECFEF29
:101B1000D1E2DEBFCDBF00E00CBF1CE0A0E0B2E030
:101B2000E6E1F0E702E00BBF02C007900D92A83299
:101B3000B107D9F72CE1A8E2BCE001C01D92A93899
:101B4000B207E1F71AE1C8E0DBE100E006C0229746
:101B50000109FE010BBF0F94972FCE3FD10780E004
:101B60000807A9F70F94C3270D94F9370C940000C8
:101B7000DC01ED91FC910190F081E02D1994FC01C4
:101B8000148217821382128280EA9BE09183808301
:101B9000089520EA3BE0FC01318320832781222342
:101BA00019F004960C94F1F70895CF92DF92EF921A
:101BB000FF920F931F93CF93DF93EC01895A9F4FAE
:101BC000DEDFCE0188589F4FDADF7E0127E9E20E83
:101BD000F11C87016E0133E3C31A3EEFD30AC8013B
:101BE000CEDF015E1F4F0C151D05C9F7FE01E15345
:101BF000FE4F89E1818314823596178ACE018E507B
:101C00009E4FBDDFFE01ED55FD4F10821182128205
:101C10001382389610821182128213821A821B82DA
:101C20001C82188219826E0189E5C81A8DEFD80AC4
:101C3000F6011082118212821382F8011182108241
:101C4000FE01EF5EFD4F108286E391E0F7019C01FB
:101C5000119221503040E1F7FE01E155FD4F81E046
:101C60008083CB5ADF4F198218820F9498226857CD
:101C70007C4E8F4F9F4FF6016083718382839383E5
:101C8000DF91CF911F910F91FF90EF90DF90CF9058
:101C90000895FC0120E03EE2DB014C91403241F02E
:101CA000283011F430833196DB014C91408331961A
:101CB0002F5F6F5F7F4F2B3079F7108208952F923F
:101CC0003F924F925F926F927F928F929F92AF92CC
:101CD000BF92CF92DF92EF92FF920F931F93CF9319
:101CE000DF93CDB7DEB7C858D1090FB6F894DEBF81
:101CF0000FBECDBF8C016B017A01CA57DF4F18822E
:101D0000C658D04084E0E80EF11C180192E1290E7B
:101D1000311CF801EC5AFF4FC957DF4FF983E883B4
:101D2000C758D0405801F0E5AF1AFDEFBF0A38019F
:101D30008EE4681A8DEF780A80E4482E512C4C0E00
:101D40005D1E94E0490E511CA101BE016F5F7F4FE3
:101D5000C7010E945BF618160CF009C12C85322FC2
:101D60003871303109F091C0F5018081918101977E
:101D7000029708F48AC0BE016F5F7F4FCE0187587B
:101D80009F4F87DFA0961FAEA097F601808181113B
:101D900007C06DE073E0CE01815A9F4F0F94AD34C0
:101DA000B601CE01815A9F4F0F94AD34BE016758E2
:101DB0007F4FCE01815A9F4F0F94AD346DE073E099
:101DC000CE01815A9F4F0F94AD34CE01805C9F4F5E
:101DD000D6DE21E0AE0147585F4FB701C2010E9435
:101DE000E8F981112EC0F50180819181892B49F597
:101DF000E1E7F4E064914F01662361F0772767FD26
:101E0000709589E49BE1B4DEFFEF8F1A9F0AF4011D
:101E10006491F2CF6FE073E089E49BE10F940D28A9
:101E20006AE070E089E49BE1A3DEBE0167587F4F62
:101E300089E49BE10F940D286AE070E089E49BE15E
:101E400097DE8BE1FE01EC5BFF4FDE019596019082
:101E50000D928A95E1F724968EAD9FAD24979CA3B1
:101E60008BA380EA9BE09AA389A3AE014F5D5F4FED
:101E7000BE01615A7F4FC80122DFCE01819689DE03
:101E8000CE01805C9F4F85DE5FCF8981882309F476
:101E90006EC0853E09F458CF8E3209F455CF8F3588
:101EA00009F452CFF8018289882331F08E3209F487
:101EB0004BCF8F3509F448CF23FD46CF81E0303139
:101EC00009F080E0C957DF4FE881F981C758D04059
:101ED0008083811108C08985873409F035CF8A85D0
:101EE0008E3709F431CF4801F5E08F0E911CBE0109
:101EF0006F5F7F4FC401CDDEF50180819181009736
:101F000081F4B60189E49BE10F940D28B40189E4C2
:101F10009BE10F940D286AE070E089E49BE128DEE4
:101F200013CF8130910539F4F301808191810196BD
:101F30009183808309CF029709F006CFCA57DF4FFC
:101F4000F881C658D0402F2F30E0F3018081918175
:101F50002817390761F0CA57DF4FF881C658D040BB
:101F6000FF5FCA57DF4FF883C658D040EDCEC85741
:101F7000DF4F0FB6F894DEBF0FBECDBFDF91CF911C
:101F80001F910F91FF90EF90DF90CF90BF90AF9097
:101F90009F908F907F906F905F904F903F902F9089
:101FA00008950F931F93CF93DF93CDB7DEB76F974D
:101FB0000FB6F894DEBF0FBECDBF8C01FC01E0551B
:101FC000FD4F1182108240E050E0BA01855A9F4FC8
:101FD0000E940EF7C801895A9F4F2BE1FC013496ED
:101FE000DE01159601900D922A95E1F7FC018281A0
:101FF00093819C838B8380EA9BE09A838983AE01E3
:102000004F5F5F4F60EC7AE0C80159DECE01019668
:10201000C0DD6F960FB6F894DEBF0FBECDBFDF9167
:10202000CF911F910F9108952BE1FB013496DC01B4
:10203000149601900D922A95E1F7FB0122813381DC
:10204000FC01338322830895EF92FF920F931F9335
:10205000CF93DF93EC011C82FC01E25AFF4F808199
:10206000882329F0CE01855A9F4F0E94F1F77E0107
:1020700081E3E81A8EEFF80A45E360E0C7010E94A9
:1020800072F281113AC0E1E7F4E064918F016623B6
:1020900059F0772767FD709589E49BE169DD0F5F53
:1020A0001F4FF8016491F3CFE4E6F4E064918F01EF
:1020B000662359F0772767FD709589E49BE158DD29
:1020C0000F5F1F4FF8016491F3CF6AE070E089E47D
:1020D0009BE14EDD8E01095A1F4FB801CE01885891
:1020E0009F4FA2DFCA58DF4F19830883DF91CF913A
:1020F0001F910F91FF90EF9008958E010C521E4F8B
:1021000041E0B701C8010E94DBFF81112AC040E015
:10211000B701C8010E94DBFF811123C0E7E7F4E0AB
:1021200064918F01662359F0772767FD709589E4E4
:102130009BE11EDD0F5F1F4FF8016491F3CFE1E5D6
:10214000F4E064918F01662309F4BFCF772767FD20
:10215000709589E49BE10CDD0F5F1F4FF8016491DE
:10216000F2CFB801CE01855A9F4F0E94FFF4811132
:1021700023C0E7E7F4E064918F01662359F07727E5
:1021800067FD709589E49BE1F3DC0F5F1F4FF80159
:102190006491F3CFE1E4F4E064918F01662309F4E4
:1021A00094CF772767FD709589E49BE1E1DC0F5FB1
:1021B0001F4FF8016491F2CF81E08C83E1E7F4E0F6
:1021C00064918F01662359F0772767FD709589E444
:1021D0009BE1CEDC0F5F1F4FF8016491F3CFE6E384
:1021E000F4E064918F01662309F46FCF772767FDD0
:1021F000709589E49BE1BCDC0F5F1F4FF80164918F
:10220000F2CFFC01128214820895FC01848188239C
:1022100019F081E0828313820895FC018281882372
:1022200019F0128281E083830895AF92BF92CF921A
:10223000DF92EF92FF920F931F93CF93DF931F9242
:10224000CDB7DEB78C018FE2FB0181935F01D12C0A
:1022500041E07801F3E3EF1AFEEFFF0A9FE1C92E98
:102260002D2D30E0F7018081918128173907D8F4AE
:10227000C29EC001C39E900D112485569F4FB5018B
:10228000800F911F49830E94A6F4C50149815C011A
:102290000196F5012081222321F04D3810F44F5F83
:1022A000F6CFD394DDCF47FD11C0B501C8018A50E8
:1022B0009E4F0F90DF91CF911F910F91FF90EF9064
:1022C000DF90CF90BF90AF900C94A6F4F5011082F0
:1022D0000F90DF91CF911F910F91FF90EF90DF90C2
:1022E000CF90BF90AF9008953F924F925F926F92C0
:1022F0007F928F929F92AF92BF92CF92DF92EF9296
:10230000FF920F931F93CF93DF93CDB7DEB7AC97B8
:102310000FB6F894DEBF0FBECDBF8C016B01342E1B
:10232000FC018481882309F4D0C2E750FE4F8081EC
:10233000882309F407C12111D1C07801FFEEEF1AFB
:10234000FDEFFF0AF7018081882309F432C0E7E737
:10235000F4E064918F01662359F0772767FD70954B
:1023600089E49BE105DC0F5F1F4FF8016491F3CF17
:10237000E3EFF3E064918F01662359F0772767FD5F
:10238000709589E49BE1F4DB0F5F1F4FF8016491C6
:10239000F3CF4AE050E061E070E089E49BE10F9404
:1023A000D5286AE070E089E49BE1E2DB0E94F23B21
:1023B0008CC2E1E7F4E064915F01662361F0772766
:1023C00067FD709589E49BE1D3DBFFEFAF1ABF0A8D
:1023D000F5016491F2CFEAEDF3E064915F016623C9
:1023E00061F0772767FD709589E49BE1C1DBFFEF22
:1023F000AF1ABF0AF5016491F2CFB60189E49BE1FF
:102400000F940D28EFECF3E064915F01662361F017
:10241000772767FD709589E49BE1AADBFFEFAF1A90
:10242000BF0AF5016491F2CFF70180812DE8B22E49
:10243000B801B89E600D711D11246A5E7D4FC80100
:10244000F4DEF7018081B801B89E600D711D112482
:102450006A5E7D4F89E49BE10F940D28E9ECF3E07F
:1024600064915F01662361F0772767FD709589E4C9
:102470009BE17EDBFFEFAF1ABF0AF5016491F2CF5B
:102480005801F5E5AF1AFDEFBF0AF5014081518112
:10249000628173812AE030E089E49BE10F94F228A5
:1024A0006AE070E089E49BE163DBF7012081F801D9
:1024B00084E0289FE00DF11D1124AF014E5E5D4FB9
:1024C000F50180819181A281B381FA01808391839A
:1024D000A283B3832F5FF70120832EC0E1E7F4E0EE
:1024E00064917F01662361F0772767FD709589E429
:1024F0009BE13EDBFFEFEF1AFF0AF7016491F2CF99
:10250000E8EBF3E064917F01662361F0772767FDD4
:10251000709589E49BE12CDBFFEFEF1AFF0AF701CE
:102520006491F2CFB60189E49BE10F940D286AE033
:1025300070E089E49BE11CDBC8018A509E4F0E9439
:10254000F1F732C0F801EF5EFD4F1082E1E7F4E0F1
:1025500064917F01662361F0772767FD709589E4B8
:102560009BE106DBFFEFEF1AFF0AF7016491F2CF60
:10257000E7EAF3E064917F01662361F0772767FD66
:10258000709589E49BE1F4DAFFEFEF1AFF0AF70197
:102590006491F2CFB60189E49BE10F940D286AE0C3
:1025A00070E089E49BE1E4DAF8011282CE01019641
:1025B0005C01E5DA280196E7490E511CC801895AE9
:1025C0009F4FF20191838083F60180818F3209F061
:1025D0007BC06FE270E0C6010F94B83401967C01B5
:1025E000E114F10409F476C06FE270E0C7010F94C2
:1025F000B8344C01009709F46EC0E816F90608F0EB
:102600006AC03C016E187F08A301B701CE01809615
:102610000F94E134E0E2F0E0EC0FFD1FE60DF71D52
:102620001082BE01605E7F4F89E49BE10F940D280C
:102630006AE070E089E49BE19BDAF20160817181DC
:102640006115710519F06C5F7F4F02C060E070E0AA
:1026500021E0AE01405E5F4FCE0105960E94E8F991
:1026600081112AC0E3E9F3E064918F01662359F0F8
:10267000772767FD709589E49BE17ADA0F5F1F4F3A
:10268000F8016491F3CFBE01605E7F4F89E49BE166
:102690000F940D28E1E9F3E064918F01662309F4BA
:1026A0000DC1772767FD709589E49BE161DA0F5FC3
:1026B0001F4FF8016491F2CFF201B182A082740140
:1026C000FFEFEF1AFF0A8CCFC80188589F4FF20125
:1026D000918380837601C8018A509E4F4C01F2019C
:1026E00060817181332009F49AC06115710519F078
:1026F0006C5F7F4F02C060E070E021E0A701C40181
:102700000E94E8F9882309F462C0F4018189928962
:10271000A389B489F801ED55FD4F80839183A2838D
:10272000B383E3E8F3E064914F01C8018D559D4FF9
:102730006C01662361F0772767FD709589E49BE162
:1027400017DA9FEF891A990AF4016491F2CFB70161
:1027500089E49BE10F940D28EBE7F3E064917F019E
:10276000662361F0772767FD709589E49BE100DAC5
:10277000FFEFEF1AFF0AF7016491F2CFF6014081F3
:102780005181628173812AE030E089E49BE10F94FA
:10279000F2286AE070E089E49BE1EAD9F801E555A6
:1027A000FD4F1082118212821382EDE6F3E06491F4
:1027B0008F01662309F482C0772767FD709589E44D
:1027C0009BE1D6D90F5F1F4FF8016491F2CFE9E585
:1027D000F3E064918F01662359F0772767FD7095C8
:1027E00089E49BE1C5D90F5F1F4FF8016491F3CFD6
:1027F000B70189E49BE10F940D28E7E5F3E06491CC
:102800008F01662309F45AC0772767FD709589E424
:102810009BE1AED90F5F1F4FF8016491F2CF6115B4
:10282000710519F06C5F7F4F02C060E070E026E533
:10283000A701C4010E94E8F9811127C0E3E4F3E095
:1028400064918F01662359F0772767FD709589E4BD
:102850009BE18ED90F5F1F4FF8016491F3CFB70151
:1028600089E49BE10F940D28E1E4F3E064918F018A
:10287000662321F1772767FD709589E49BE178D97C
:102880000F5F1F4FF8016491F3CF81E0F80180835F
:10289000EFE2F3E064918F01662359F0772767FD3B
:1028A000709589E49BE164D90F5F1F4FF801649133
:1028B000F3CFB60189E49BE10F940D286AE070E044
:1028C00089E49BE155D9C50164D9AC960FB6F8945B
:1028D000DEBF0FBECDBFDF91CF911F910F91FF9053
:1028E000EF90DF90CF90BF90AF909F908F907F90B0
:1028F0006F905F904F903F90089521E0FC012183FD
:1029000040E0F2CC4F925F926F927F928F929F92B3
:10291000AF92BF92CF92DF92EF92FF920F931F93ED
:10292000CF93DF93CDB7DEB7AC970FB6F894DEBF89
:102930000FBECDBF7C015B01FC018481882309F4BB
:10294000F9C0C7018A509E4F0E94F1F7F701128229
:10295000CE0101966C0113D9270196E7490E511C4F
:10296000C701895A9F4FF20191838083F5018081CD
:102970008F3209F077C06FE270E0C5010F94B83470
:102980008C010F5F1F4F09F473C06FE270E0C80144
:102990000F94B8344C01009709F46BC0081719075D
:1029A00008F067C03C01601A710AA301B801CE01AA
:1029B00080960F94E134E0E2F0E0EC0FFD1FE60DAD
:1029C000F71D1082BE01605E7F4F89E49BE10F948A
:1029D0000D286AE070E089E49BE1CAD8F2016081C9
:1029E00071816115710519F06C5F7F4F02C060E065
:1029F00070E021E0AE01405E5F4FCE0105960E947F
:102A0000E8F981112AC0EBE1F3E064918F016623BC
:102A100059F0772767FD709589E49BE1A9D80F5F8E
:102A20001F4FF8016491F3CFBE01605E7F4F89E4D0
:102A30009BE10F940D28E9E1F3E064918F01662397
:102A400009F471C0772767FD709589E49BE190D800
:102A50000F5F1F4FF8016491F2CFF201D182C08263
:102A600084018FCFC70188589F4FF20191838083E3
:102A70008501F20180819181009711F0049602C0D6
:102A800080E090E0B8010E94BEFA882321F1EBE0DB
:102A9000F3E064915F01662361F0772767FD70952D
:102AA00089E49BE165D8FFEFAF1ABF0AF501649195
:102AB000F2CFB80189E49BE10F940D286AE070E041
:102AC00089E49BE155D8F701E555FD4F108211824D
:102AD000128213822DC0E3EFF2E064917F0166233E
:102AE00061F0772767FD709589E49BE141D8FFEF9E
:102AF000EF1AFF0AF7016491F2CFB80189E49BE174
:102B00000F940D28E1EFF2E064918F01662359F0F4
:102B1000772767FD709589E49BE12AD80F5F1F4FE7
:102B2000F8016491F3CF6AE070E089E49BE120D87A
:102B3000C6012FD8AC960FB6F894DEBF0FBECDBF3E
:102B4000DF91CF911F910F91FF90EF90DF90CF9089
:102B5000BF90AF909F908F907F906F905F904F90BD
:102B600008950F931F93CF93DF93EC018C818823FB
:102B700009F43EC0EFEDF2E064918F01662361F04D
:102B8000772767FD709589E49BE10E94B80D0F5F80
:102B90001F4FF8016491F2CFFE01E555FD4F4081D2
:102BA0005181628173812AE030E089E49BE10F94D6
:102BB000F228EDEDF2E064918F01662361F0772752
:102BC00067FD709589E49BE10E94B80D0F5F1F4F70
:102BD000F8016491F2CFCD55DD4F488159816A816A
:102BE0007B812AE030E089E49BE10F94F22811C058
:102BF000EDECF2E06491EF01662359F0772767FD71
:102C0000709589E49BE10E94B80D2196FE016491C4
:102C1000F3CF6AE070E089E49BE1DF91CF911F91EF
:102C20000F910C94B80DAF92BF92CF92DF92EF92BA
:102C3000FF920F931F93CF93DF935C01EB01FB0196
:102C400001900020E9F78F0101501109061B170BB5
:102C50006C01FAE0CF1AFEEFDF0AF60110826EE493
:102C600070E0CE010F94B8347C01009729F4F8018C
:102C70003197EC0FFD1F0DC060E270E00F94B83487
:102C8000EC0121966AE270E0C7010F94B834FC01B0
:102C900031978DE081838AE082831382BE01C50172
:102CA0008E509E4F0E9484FCF6018081882391F112
:102CB000E7E7F4E06491EF01662359F0772767FDB9
:102CC000709589E49BE10E94B80D2196FE01649104
:102CD000F3CFE7EBF2E06491EF01662359F0772739
:102CE00067FD709589E49BE10E94B80D2196FE0175
:102CF0006491F3CF6AE070E089E49BE1DF91CF91CA
:102D00001F910F91FF90EF90DF90CF90BF90AF9009
:102D10000C94B80DDF91CF911F910F91FF90EF9020
:102D2000DF90CF90BF90AF9008952F923F924F9237
:102D30005F926F927F928F929F92AF92BF92CF924B
:102D4000DF92EF92FF920F931F93CF93DF93CDB754
:102D5000DEB7CC55D1090FB6F894DEBF0FBECDBF9C
:102D60004C018C0101551D4F662339F0F80110828A
:102D7000F401848181111DC015C0F8018081882370
:102D800009F4AFC0F401E955FD4FC080D180E28065
:102D9000F3800F949822C616D706E806F90608F4C1
:102DA000A0C0E4CFC40150D9F4018481882309F480
:102DB00098C07401F5E5EF0EF11CF70181818F9346
:102DC00080818F938EEA92E09F938F938E01015CB6
:102DD0001F4F1F930F930F941E350F900F900F905E
:102DE0000F900F900F90B12CF80101900020E9F79F
:102DF0003197E01BF10BBE1684F46801CB0CD11C9B
:102E0000B7FCDA94F6018081992787FD90950F949D
:102E10005634F6018083B394E7CFFBE58F0E911C07
:102E200040E050E0BA01C4010E940EF7512CCE01DF
:102E300001966C0137EA632E32E0732E5E0191E257
:102E4000A90EB11C40E050E0B601C4010E945BF63F
:102E50001816DCF5412CF60101900020E9F73197B6
:102E6000EC19FD094E1674F41601240C311C47FCB4
:102E70003A94F101808190E00F945634F1018083FF
:102E80004394E9CF8A858E37E9F245E050E0B801F6
:102E9000C6010F94D334892BA9F61F930F937F9209
:102EA0006F92BF92AF920F941E35C5010E945D2AAA
:102EB00083EA92E00E94D92A0F900F900F900F9012
:102EC0000F900F9055245394BDCF511004C08FEF35
:102ED0009FEFF70104C0F7018081918101969183F2
:102EE0008083C45ADF4F0FB6F894DEBF0FBECDBF4C
:102EF000DF91CF911F910F91FF90EF90DF90CF90D6
:102F0000BF90AF909F908F907F906F905F904F9009
:102F10003F902F9008950F931F93CF93DF93EC0171
:102F20008C010A501E4FC8010E94A7F7C8010E94D9
:102F3000F1F718821982DF91CF911F910F910895B7
:102F4000EF92FF920F931F93CF93DF93CDB7DEB72E
:102F50006F970FB6F894DEBF0FBECDBF8C017C011A
:102F600086E7E80EF11CC80188589F4FF70191834E
:102F70008083E65CFD4F22E030E03183208332968F
:102F800070E07183608340E050E0BA0104960E94D3
:102F90000EF7F701808191812BE1FC013496DE016F
:102FA000159601900D922A95E1F7FC01828193819B
:102FB0009C838B8380EA9BE09A838983AE014F5F79
:102FC0005F4F60EC7AE0C8010E945F0ECE0101966F
:102FD0000E94C90D6F960FB6F894DEBF0FBECDBF2D
:102FE000DF91CF911F910F91FF90EF900895CF92B5
:102FF000DF92EF92FF920F931F93CF93DF93CDB7A2
:10300000DEB76F970FB6F894DEBF0FBECDBF8C0151
:103010006C0126E7C20ED11C88589F4FF6019183A0
:103020008083E65CFD4F21E030E03183208378012E
:10303000FEE4EF1AFDEFFF0AF7011182108240E073
:1030400050E0BA0104960E940EF7F601808191814A
:103050002BE1FC013496DE01159601900D922A9524
:10306000E1F7FC01828193819C838B8380EA9BE062
:103070009A838983AE014F5F5F4F60EC7AE0C801AD
:103080000E945F0ECE0101960E94C90DF70180815A
:1030900091816F960FB6F894DEBF0FBECDBFDF9162
:1030A000CF911F910F91FF90EF90DF90CF900895F7
:1030B000EF92FF920F931F93CF93DF93EC018EE972
:1030C00092E00E94D92A0F9459098E010F5E1D4F7C
:1030D000F80180819E012A503E4F7901882399F1A1
:1030E000C9010E94F1F7F801808181508083BE01FF
:1030F000FDE88F9F600D711D11246A5E7D4F21E0F8
:1031000041E0CE01F1D8F8018081FE0124E0829FE8
:10311000E00DF11D1124EE5EFD4F40815181628171
:103120007381FE01E555FD4F4083518362837383B4
:10313000C7010E940EF7CE01DF91CF911F910F9131
:10314000FF90EF9062C80F94E909C7010E94F1F760
:103150001A8221E030E045E050E06AE070E08FEA5A
:1031600091E10E9459258BE992E00E94D92A0F949F
:10317000590986E992E00E94D92A0F9459091092C0
:103180007E1A10927D1A1092801A10927F1A109255
:103190007C1A10927B1A8AE892E00E94D92A8091C8
:1031A0000A178823F9F010920A17C091700ED0E028
:1031B000CC0FDD1FC358D54E68817981882777FDF4
:1031C0008095982F0F94102C2091710230917202EB
:1031D00040917302509174020F94712D181614F4DB
:1031E00019821882DF91CF911F910F91FF90EF907C
:1031F0000895EF92FF920F931F93CF93DF931F9247
:10320000CDB7DEB78C017B01460FF70161917F01DD
:10321000F8018081918149830F944237F8018081C0
:10322000918101969183808349814E11EECF0F9059
:10323000DF91CF911F910F91FF90EF900895EF9242
:10324000FF920F931F93CF93DF931F92CDB7DEB7FB
:103250008C017B01460FF8018081918149830F9495
:103260003A37F70181937F01F801808191810196BE
:103270009183808349814E11EECF0F90DF91CF91E2
:103280001F910F91FF90EF9008950F931F93CF938D
:10329000DF93CDB7DEB768970FB6F894DEBF0FBEE9
:1032A000CDBF80E390E3A0E3B0E08D839E83AF8346
:1032B000B88704E610E0188F0F8B44E0BE016B5F07
:1032C0007F4FCE01479695DF40E16BE677E1CE0177
:1032D00047968FDF40E16BE777E1CE01479689DFC4
:1032E00040E16BE577E1CE01479683DF44E063E59B
:1032F00077E1CE0147967DDF44E06FE477E1CE01D0
:10330000479677DF44E067E577E1CE01479671DFC6
:1033100044E06FE377E1CE0147966BDF44E06BE872
:1033200077E1CE01479665DF44E06BE477E1CE01BB
:1033300047965FDF44E067E477E1CE01479659DFC7
:1033400044E063E477E1CE01479653DF4CE068E860
:103350007EE0CE0147964DDF87ED90E09E8B8D8B12
:103360008DE290E09C8B8B8B1A8A198A80EF90E01B
:10337000988B8F8786E490E09E878D871C861B86BE
:1033800042E0BE016B5E7F4FCE01479632DF42E0E6
:10339000BE016D5E7F4FCE0147962BDF42E0BE013E
:1033A0006F5E7F4FCE01479624DF42E0BE01615F32
:1033B0007F4FCE0147961DDF42E0BE01635F7F4F26
:1033C000CE01479616DF42E0BE01655F7F4FCE011A
:1033D00047960FDF44E065E77EE0CE01479609DFC0
:1033E00044E06EE172E0CE01479603DF44E066E21E
:1033F00072E0CE014796FDDE44E06EE272E0CE015F
:103400004796F7DE42E065ED7EE0CE014796F1DEBD
:1034100042E069ED7EE0CE014796EBDE42E067EDEB
:103420007EE0CE014796E5DE42E063ED7EE0CE0130
:103430004796DFDE42E065EC7EE0CE014796D9DEBE
:1034400042E069EC7EE0CE014796D3DE42E067ECD5
:103450007EE0CE014796CDDE42E063EC7EE0CE0119
:103460004796C7DE42E06DEC7EE0CE014796C1DEB6
:1034700042E061ED7EE0CE014796BBDE42E06FECBC
:103480007EE0CE014796B5DE42E06BEC7EE0CE01F9
:103490004796AFDE42E06DEB7EE0CE014796A9DEB7
:1034A00042E061EC7EE0CE014796A3DE42E06FEBA6
:1034B0007EE0CE0147969DDE42E06BEB7EE0CE01E2
:1034C000479697DE44E060ED72E0CE01479691DECC
:1034D00044E068EC72E0CE0147968BDE44E060EC9D
:1034E00072E0CE01479685DE44E064ED72E0CE01E5
:1034F00047967FDE44E06CEC72E0CE01479679DEC1
:1035000044E064EC72E0CE01479673DE80E290E026
:103510009A87898742E0BE01675F7F4FCE01479659
:1035200068DE86E591E3A2E3B0E089839A83AB830A
:10353000BC83188F0F8B44E0BE016F5F7F4FCE01BD
:10354000479657DEEFE5F7E064918F01662361F05F
:10355000772767FD709589E49BE10E94B80D0F5FA6
:103560001F4FF8016491F2CFEFE4F7E064918F010F
:10357000662361F0772767FD709589E49BE10E94DF
:10358000B80D0F5F1F4FF8016491F2CF6AE070E051
:1035900089E49BE10E94B80D68960FB6F894DEBFEF
:1035A0000FBECDBFDF91CF911F910F9108950F9363
:1035B0001F93CF93DF93CFE5D7E0FE0164918E0197
:1035C000662361F0772767FD709589E49BE10E948F
:1035D000B80D0F5F1F4FF8016491F2CFEFE3F7E0F2
:1035E00064918F01662361F0772767FD709589E408
:1035F0009BE10E94B80D0F5F1F4FF8016491F2CF5D
:103600006AE070E089E49BE10E94B80DFE016491DC
:103610000FE517E0662361F0772767FD709589E471
:103620009BE10E94B80D0F5F1F4FF8016491F2CF2C
:1036300040916B1750916C1760916D1770916E17D8
:1036400087E397E00E94F12940916F17509170171E
:10365000609171177091721784E397E00E94F129CD
:103660004091731750917417609175177091761788
:1036700081E397E00E94F1294091771750917817E4
:103680006091791770917A178EE297E00E94F12984
:1036900060EC7AE089E49BE10F940D286AE070E029
:1036A00089E49BE10E94B80DFE0164910FE517E0EB
:1036B000662361F0772767FD709589E49BE10E949E
:1036C000B80D0F5F1F4FF8016491F2CFE4E1F7E00E
:1036D00064918F01662361F0772767FD709589E417
:1036E0009BE10E94B80D0F5F1F4FF8016491F2CF6C
:1036F0006AE070E089E49BE10E94B80DFE016491EC
:103700000FE517E0662361F0772767FD709589E480
:103710009BE10E94B80D0F5F1F4FF8016491F2CF3B
:1037200040917B1750917C1760917D1770917E17A7
:103730008BE097E00E94F12940917F17509180170C
:10374000609181177091821788E097E00E94F129BB
:103750004091831750918417609185177091861757
:1037600085E097E00E94F1294091871750918817D2
:103770006091891770918A1782E097E00E94F12981
:1037800060EC7AE089E49BE10F940D286AE070E038
:1037900089E49BE10E94B80DFE0164910FE517E0FA
:1037A000662361F0772767FD709589E49BE10E94AD
:1037B000B80D0F5F1F4FF8016491F2CFE4EEF6E011
:1037C00064918F01662361F0772767FD709589E426
:1037D0009BE10E94B80D0F5F1F4FF8016491F2CF7B
:1037E0006AE070E089E49BE10E94B80DFE016491FB
:1037F0000FE517E0662361F0772767FD709589E490
:103800009BE10E94B80D0F5F1F4FF8016491F2CF4A
:1038100040915B1750915C1760915D1770915E1736
:103820008BED96E00E94392A40915F175091601706
:10383000609161177091621788ED96E00E94392AB5
:1038400040916317509164176091651770916617E6
:1038500085ED96E00E94392A4091671750916817CC
:103860006091691770916A1782ED96E00E94392A7B
:1038700060EC7AE089E49BE10F940D286AE070E047
:1038800089E49BE10E94B80DFE0164910FE517E009
:10389000662361F0772767FD709589E49BE10E94BC
:1038A000B80D0F5F1F4FF8016491F2CFEDE9F6E01C
:1038B00064918F01662361F0772767FD709589E435
:1038C0009BE10E94B80D0F5F1F4FF8016491F2CF8A
:1038D0006AE070E089E49BE10E94B80DFE0164910A
:1038E0000FE517E0662361F0772767FD709589E49F
:1038F0009BE10E94B80D0F5F1F4FF8016491F2CF5A
:103900004091531750915417609155177091561765
:1039100084E996E00E94F12940914F175091501789
:10392000609151177091521781E996E00E94F12938
:1039300060EC7AE089E49BE10F940D286AE070E086
:1039400089E49BE10E94B80DFE0164910FE517E048
:10395000662361F0772767FD709589E49BE10E94FB
:10396000B80D0F5F1F4FF8016491F2CFEEEDF5E057
:1039700064918F01662361F0772767FD709589E474
:103980009BE10E94B80D0F5F1F4FF8016491F2CFC9
:103990006AE070E089E49BE10E94B80DFE01649149
:1039A0000FE517E0662361F0772767FD709589E4DE
:1039B0009BE10E94B80D0F5F1F4FF8016491F2CF99
:1039C00040915717509158176091591770915A1795
:1039D00085ED95E00E94F12940913F1750914017E5
:1039E000609141177091421782ED95E00E94F12994
:1039F00040918B1750918C1760918D1770918E1795
:103A00008FEC95E00E94392A40914B1750914C174A
:103A100060914D1770914E178CEC95E00E94F12942
:103A200040914717509148176091491770914A1774
:103A300089EC95E00E94F129409143175091441779
:103A4000609145177091461786EC95E00E94F12928
:103A500060EC7AE089E49BE10F940D286AE070E065
:103A600089E49BE10E94B80DFE0164910FE517E027
:103A7000662361F0772767FD709589E49BE10E94DA
:103A8000B80D0F5F1F4FF8016491F2CFE4EBF5E042
:103A900064918F01662361F0772767FD709589E453
:103AA0009BE10E94B80D0F5F1F4FF8016491F2CFA8
:103AB0006AE070E089E49BE10E94B80DFE01649128
:103AC0000FE517E0662361F0772767FD709589E4BD
:103AD0009BE10E94B80D0F5F1F4FF8016491F2CF78
:103AE0004091880E5091890E60918A0E70918B0ED4
:103AF0008BEA95E00E94F12940918C0E50918D0E39
:103B000060918E0E70918F0E88EA95E00E94F129E7
:103B10004091900E5091910E6091920E7091930E83
:103B200085EA95E00E94F12960EC7AE089E49BE166
:103B30000F940D286AE070E089E49BE10E94B80DC3
:103B4000FE0164910FE517E0662361F0772767FDBA
:103B5000709589E49BE10E94B80D0F5F1F4FF8013B
:103B60006491F2CFE7E9F5E064918F01662361F09B
:103B7000772767FD709589E49BE10E94B80D0F5F80
:103B80001F4FF8016491F2CF6AE070E089E49BE195
:103B90000E94B80DFE0164910FE517E0662361F005
:103BA000772767FD709589E49BE10E94B80D0F5F50
:103BB0001F4FF8016491F2CF4091D0025091D10291
:103BC0006091D2027091D3028AE895E00E94F129B7
:103BD0006091C8027091C9028091CA029091CB0293
:103BE0000F94131BAB01BC0187E895E00E94F129FB
:103BF0006091C0027091C1028091C2029091C30293
:103C00000F941F1BAB01BC0184E895E00E94F129D1
:103C10004091D4025091D5026091D6027091D702A2
:103C200084E795E00E94F1296091CC027091CD0269
:103C30008091CE029091CF020F94131BAB01BC0177
:103C400081E795E00E94F1296091C4027091C5025C
:103C50008091C6029091C7020F941F1BAB01BC015B
:103C60008EE695E00E94F12960EC7AE089E49BE120
:103C70000F940D286AE070E089E49BE10E94B80D82
:103C8000FE0164910FE517E0662361F0772767FD79
:103C9000709589E49BE10E94B80D0F5F1F4FF801FA
:103CA0006491F2CFE0E6F5E064918F01662361F064
:103CB000772767FD709589E49BE10E94B80D0F5F3F
:103CC0001F4FF8016491F2CF6AE070E089E49BE154
:103CD0000E94B80DFE0164910FE517E0662361F0C4
:103CE000772767FD709589E49BE10E94B80D0F5F0F
:103CF0001F4FF8016491F2CF40911E0250911F02B4
:103D000060912002709121028CE595E00E94F129DA
:103D10004091260250912702609128027091290259
:103D200088E595E00E94F12940912E0250912F02E2
:103D3000609130027091310284E595E00E94F12992
:103D400060EC7AE089E49BE10F940D286AE070E072
:103D500089E49BE10E94B80DFE0164910FE517E034
:103D6000662361F0772767FD709589E49BE10E94E7
:103D7000B80D0F5F1F4FF8016491F2CFE7E4F5E053
:103D800064918F01662361F0772767FD709589E460
:103D90009BE10E94B80D0F5F1F4FF8016491F2CFB5
:103DA0006AE070E089E49BE10E94B80DFE01649135
:103DB0000FE517E0662361F0772767FD709589E4CA
:103DC0009BE10E94B80D0F5F1F4FF8016491F2CF85
:103DD0006091D90E7091DA0E882777FD8095982F23
:103DE0000F94102CAB01BC018CE395E00E94F129EB
:103DF0006091D70E7091D80E882777FD8095982F07
:103E00000F94102CAB01BC0181E395E00E94F129D5
:103E10006091D30E7091D40E882777FD8095982FEE
:103E20000F94102CAB01BC0189E295E00E94F129AE
:103E30006091D50E7091D60E882777FD8095982FCA
:103E40000F94102CAB01BC018FE195E00E94F12989
:103E500060EC7AE089E49BE10F940D286AE070E061
:103E600089E49BE10E94B80DFE0164910FE517E023
:103E7000662361F0772767FD709589E49BE10E94D6
:103E8000B80D0F5F1F4FF8016491F2CFE2E1F5E04A
:103E900064918F01662361F0772767FD709589E44F
:103EA0009BE10E94B80D0F5F1F4FF8016491F2CFA4
:103EB0006AE070E089E49BE10E94B80DFE01C491C4
:103EC0000FE517E0CC2369F06C2F772767FD70951D
:103ED00089E49BE10E94B80D0F5F1F4FF801C49168
:103EE000F1CF6091D10E7091D20E882777FD809529
:103EF000982F0F94102CAB01BC0187E095E00E9435
:103F0000F1296091CF0E7091D00E882777FD8095B2
:103F1000982F0F94102CAB01BC018CEF94E00E9401
:103F2000F1296091CB0E7091CC0E882777FD80959A
:103F3000982F0F94102CAB01BC0184EF94E00E94E9
:103F4000F1296091CD0E7091CE0E882777FD809576
:103F5000982F0F94102CAB01BC018AEE94E00E94C4
:103F6000F12960EC7AE089E49BE10F940D286AE086
:103F700070E089E49BE1DF91CF911F910F910C9448
:103F8000B80DAF92BF92CF92DF92EF92FF920F9354
:103F90001F93CF93DF93CDB7DEB7E0970FB6F894BA
:103FA000DEBF0FBECDBF80E1E8EDF2E0DE0191960D
:103FB00001900D928A95E1F780E1E8EEF2E0DE01F2
:103FC000519601900D928A95E1F780E1E8EFF2E0D9
:103FD000DE01119601900D928A95E1F76E0181E262
:103FE000C80ED11C8BE6E82E87E1F82E8E010F5EFD
:103FF0001F4F6BE777E1AE014F5F5F4F9BE5A92E47
:1040000097E1B92E20E030E0F60181919191A191E4
:10401000B1916F01F70181939193A193B1937F01C6
:10402000F80181919191A191B1918F01FB0181934F
:104030009193A193B193BF01FA0181919191A191C3
:10404000B191AF01F50181939193A193B1935F0178
:104050002F5F3F4F24303105B9F60E943DF180E0DB
:1040600090E8ABEBB4E48093531790935417A0936C
:104070005517B093561780E090E0AAEFB4E4809310
:104080004F1790935017A0935117B0935217109257
:104090005717109258171092591710925A1780E21A
:1040A0009EE4A0E0B0E080938B1790938C17A093D0
:1040B0008D17B0938E1710923F17109240171092E1
:1040C00041171092421780E090E0A0EAB0E480939C
:1040D0004B1790934C17A0934D17B0934E174DEC80
:1040E0005CEC6CEC7EE34093471750934817609369
:1040F000491770934A178093431790934417A093DE
:104100004517B09346171092900E1092910E109290
:10411000920E1092930E10928C0E10928D0E1092A1
:104120008E0E10928F0E1092880E1092890E1092A1
:104130008A0E10928B0E67ED70E07093D60E60932E
:10414000D50E4CED50E05093DA0E4093D90E2AEA8A
:1041500030E03093D80E2093D70E82E390E0909316
:10416000D40E8093D30E7093C60E6093C50E5093F9
:10417000CA0E4093C90E3093C80E2093C70E909379
:10418000C40E8093C30E7093CE0E6093CD0E5093E9
:10419000D20E4093D10E3093D00E2093CF0E909339
:1041A000CC0E8093CB0E7093BE0E6093BD0E5093D9
:1041B000C20E4093C10E3093C00E2093BF0E909359
:1041C000BC0E8093BB0E8AE999E9A9E3B0EC809319
:1041D000750E9093760EA093770EB093780EEFE560
:1041E000F7E064918F01662361F0772767FD709592
:1041F00089E49BE10E94B80D0F5F1F4FF8016491A5
:10420000F2CFEEEAF4E064918F01662361F0772744
:1042100067FD709589E49BE10E94B80D0F5F1F4F09
:10422000F8016491F2CF6AE070E089E49BE1E096E6
:104230000FB6F894DEBF0FBECDBFDF91CF911F91B7
:104240000F91FF90EF90DF90CF90BF90AF900C94C4
:10425000B80DCF92DF92EF92FF92CF93DF9383E37B
:1042600093EFA7E9B3E480931E0290931F02A093FB
:104270002002B09321028AE999E9A9E1BEEB80937B
:10428000260290932702A0932802B09329028DEC76
:104290009CECACECBDEB80932E0290932F02A0938C
:1042A0003002B09331022CE5C22E2FE8D22E22E745
:1042B000E22E21E4F22EC092D002D092D102E092FE
:1042C000D202F092D30261EE7AE784E99FE30F9481
:1042D0000D1B6093C8027093C9028093CA02909329
:1042E000CB026FE175E885E492E40F94191B6093AB
:1042F000C0027093C1028093C2029093C302C09225
:10430000D402D092D502E092D602F092D70261EEAA
:104310007AE784E99FE30F940D1B6093CC027093BE
:10432000CD028093CE029093CF026FE175E885E4D1
:1043300092E40F94191B6093C4027093C50280939A
:10434000C6029093C70280E090E0A0E8BFE38093AC
:10435000B8029093B902A093BA02B093BB028093C3
:10436000BC029093BD02A093BE02B093BF02EFE5E2
:10437000F7E06491EF01662359F0772767FD7095A8
:1043800089E49BE10E94B80D2196FE016491F3CF70
:10439000EEE7F4E06491EF01662359F0772767FDBB
:1043A000709589E49BE10E94B80D2196FE0164910D
:1043B000F3CF6AE070E089E49BE1DF91CF91FF9059
:1043C000EF90DF90CF900C94B80D0F931F93CF9385
:1043D000DF93CDB7DEB768970FB6F894DEBF0FBE98
:1043E000CDBF84E690E0988F8F8B86E591E3A2E3C2
:1043F000B0E089839A83AB83BC8344E0BE016B5FEA
:104400007F4FCE0147960E941F1943E050E0BE0146
:104410006B5F7F4FCE0101960F94D334892B09F047
:1044200071C140E16BE677E1CE0147960E941F190A
:1044300040E16BE777E1CE0147960E941F1940E10A
:104440006BE577E1CE0147960E941F190E943DF16E
:1044500044E063E577E1CE0147960E941F1944E0EE
:104460006FE477E1CE0147960E941F1944E067E5AB
:1044700077E1CE0147960E941F1944E06FE377E190
:10448000CE0147960E941F1944E06BE877E1CE0108
:1044900047960E941F1944E06BE477E1CE014796EE
:1044A0000E941F1944E067E477E1CE0147960E941D
:1044B0001F1944E063E477E1CE0147960E941F197B
:1044C0004CE068E87EE0CE0147960E941F1942E06A
:1044D000BE016B5E7F4FCE0147960E941F1942E0DE
:1044E000BE016D5E7F4FCE0147960E941F1942E0CC
:1044F000BE016F5E7F4FCE0147960E941F1942E0BA
:10450000BE01615F7F4FCE0147960E941F1942E0B6
:10451000BE01635F7F4FCE0147960E941F1942E0A4
:10452000BE01655F7F4FCE0147960E941F1944E090
:1045300065E77EE0CE0147960E941F1944E06EE1D8
:1045400072E0CE0147960E941F1944E066E272E0D5
:10455000CE0147960E941F1944E06EE272E0CE0140
:1045600047960E941F1942E065ED7EE0CE01479616
:104570000E941F1942E069ED7EE0CE0147960E943D
:104580001F1942E067ED7EE0CE0147960E941F1999
:1045900042E063ED7EE0CE0147960E941F1942E0A3
:1045A00065EC7EE0CE0147960E941F1942E069EC5F
:1045B0007EE0CE0147960E941F1942E067EC7EE044
:1045C000CE0147960E941F1942E063EC7EE0CE01C7
:1045D00047960E941F1942E06DEC7EE0CE0147969F
:1045E0000E941F1942E061ED7EE0CE0147960E94D5
:1045F0001F1942E06FEC7EE0CE0147960E941F1922
:1046000042E06BEC7EE0CE0147960E941F1942E02B
:104610006DEB7EE0CE0147960E941F1942E061ECEF
:104620007EE0CE0147960E941F1942E06FEB7EE0CC
:10463000CE0147960E941F1942E06BEB7EE0CE014F
:1046400047960E941F1944E060ED72E0CE01479644
:104650000E941F1944E068EC72E0CE0147960E9468
:104660001F1944E060EC72E0CE0147960E941F19CA
:1046700044E064ED72E0CE0147960E941F1944E0C9
:104680006CEC72E0CE0147960E941F1944E064EC86
:1046900072E0CE0147960E941F1942E0BE01675F9B
:1046A0007F4FCE0147960E941F190F94D30BEFE561
:1046B000F7E064918F01662361F0772767FD7095BD
:1046C00089E49BE10E94B80D0F5F1F4FF8016491D0
:1046D000F2CFE0EDF4E064918F01662361F077277B
:1046E00067FD709589E49BE10E94B80D0F5F1F4F35
:1046F000F8016491F2CF6AE070E089E49BE10E94E6
:10470000B80D04C03EDCA5DD0E94451968960FB6C1
:10471000F894DEBF0FBECDBFDF91CF911F910F91F7
:104720000895FC01EB58FF4F118210823D979C01C8
:104730002D593F4F31832083329628EE33E0318369
:104740002083329611821082329611821082329624
:1047500010823196118210820895FB01838190E0CE
:10476000982F88272481820F911D0895FC01E85914
:10477000FF4FA081B1818D599F4F8A179B0780F40D
:104780008FEF8C93808191810197918380838091B9
:104790002F0C9091300C01979093300C80932F0C3C
:1047A00008950F931F93CF93DF938C01EC01CD58A5
:1047B000DF4F88819981DC01ED91FC910480F581C6
:1047C000E02D1995892B41F4F801E259FF4F8DEF47
:1047D0009FEF918380830AC088819981DC01ED91EC
:1047E000FC910680F781E02D19959927DF91CF91F3
:1047F0001F910F910895FC01E259FF4F1182108221
:10480000D0CF0895CF93DF93EC01CE59DF4F2881AD
:104810002223D1F09C01205A3F4FF901508146E0FC
:10482000FC01459FE00DF11D1124DB0101900D926B
:104830004A95E1F7F90180818F5F8F7080838881CD
:104840008150888381E001C080E0DF91CF9108959D
:10485000CF93DF93EC01CE59DF4F28812E30D0F477
:104860009C012F593F4FF901508146E0DC01459FE3
:10487000A00DB11D1124FB0101900D924A95E1F7A5
:10488000F90180818F5F8F70808388818F5F88833B
:1048900081E008C0FC01E259FF4F2BEF3FEF31836D
:1048A000208380E0DF91CF910895FC01E859FF4F0C
:1048B0000190F081E02D60836350710962307105D1
:1048C00020F4FC01E059FF4F1082089520912F0C35
:1048D0003091300C2F5F3F4F3093300C20932F0CD2
:1048E000FC01E859FF4F208131812F5F3F4F318319
:1048F000208370E0DACFCF92DF92EF92FF921F9386
:10490000CF93DF93EC0177DF182F6E018EE6C80E90
:10491000D11CD6012D913C912D3F3F4F81F4FE01DA
:10492000EE59FF4F8081882309F459C0C958DF4FE1
:10493000E881F981309709F452C0199550C07E0181
:10494000E8E6EE0EF11CD701ED91FC9180818130FB
:1049500021F0A8F0823089F01BC0173091F015319A
:1049600021F0163009F045C037C0CE01FFDE8CEFD4
:104970009FEFF601918380833CC0153021F0173002
:10498000C1F564E003C0CE01F1DE63E0CE019EDF3D
:10499000D701ED91FC9180818350823008F02EC0C8
:1049A0007E01F0E7EF0EF11CD7012C91222321F1BB
:1049B00080912E0C812780932E0CE22FF0E0E85D91
:1049C000F34F1083253091F481110BC068E27CE035
:1049D000CE013EDFF7011082CE01C8DE0AC080E0C2
:1049E00009C088EF9FEFD6018D939C932F5FF7014D
:1049F000208381E090E002C0812FDDCFDF91CF9155
:104A00001F91FF90EF90DF90CF900895AF92BF92EB
:104A1000CF92DF92EF92FF920F931F93CF93DF938A
:104A2000EC010F9498226B017C018E0106591F4FF7
:104A3000D8018D919C91AA2797FDA095BA2FC80EF9
:104A4000D91EEA1EFB1E5E01B8E6AB0EB11C0F9428
:104A500098226C157D058E059F05D0F4CE014BDFA5
:104A6000019779F40F9498226B017C01F801808101
:104A70009181AA2797FDA095BA2FC80ED91EEA1ECC
:104A8000FB1ED501ED91FC9180818111E0CF06C024
:104A9000C259DF4F8FEF9FEF99838883DF91CF91CA
:104AA0001F910F91FF90EF90DF90CF90BF90AF904C
:104AB0000895BF92CF92DF92EF92FF920F931F93D0
:104AC000CF93DF938C01D62EC42E79019FDFF8019E
:104AD000E259FF4F11821082E801CD58DF4F8881E3
:104AE0009981DC01ED91FC910190F081E02D61E074
:104AF000199588819981DC01ED91FC910190F081FB
:104B0000E02D6D2D199588819981DC01ED91FC9145
:104B10000190F081E02D6C2D1995BB24B394BC2439
:104B2000BD2488819981DC01ED91FC910190F08197
:104B3000E02D6F2D1995BF2488819981FF24DC0118
:104B4000ED91FC910190F081E02D6E2D19958881F9
:104B50009981DC01ED91FC916B2D6E250190F08126
:104B6000E02D199561E0C801B1DEDF91CF911F9171
:104B70000F91FF90EF90DF90CF90BF900895AF928C
:104B8000BF92CF92DF92EF92FF920F931F93CF933A
:104B9000DF935C016B017A01EA0109900020E9F7DB
:104BA0002197C41BD50BCF3FD10511F00CF048C0A5
:104BB0002DDF85010D581F4FD8018D919C91DC018F
:104BC000ED91FC910190F081E02D62E01995F801E2
:104BD00080819181DC01ED91FC910190F081E02DCB
:104BE0006C2D1995B2E0CB26F80180819181DC0112
:104BF000ED91FC910190F081E02D6C2F1995CC2660
:104C0000DD26D7016C91F80180819181DC01ED9165
:104C1000FC910190F081E02D662351F01995F70188
:104C200081917F01992787FD9095C826D926E9CFE4
:104C30006C2D199561E0C50149DE80E090E002C06D
:104C40008FEF9FEFDF91CF911F910F91FF90EF902A
:104C5000DF90CF90BF90AF90089589589F4FFC018F
:104C6000718360830895CF93DF93EC01FC01ED58CD
:104C7000FF4F7183608360E029DEFE01E05AFF4F41
:104C8000108231961082CE59DF4F1882DF91CF917A
:104C900008950F931F93CF93DF938C01CBE6D7E159
:104CA000F80161917191819191918F0129913991CF
:104CB000499159910F94432E0F94DD2BF80164878D
:104CC000758786879787F7E1CB37DF0749F7DF914D
:104CD000CF911F910F9108952F923F924F925F9223
:104CE0006F927F928F929F92AF92BF92CF92DF92FC
:104CF000EF92FF920F931F93CF93DF93CDB7DEB761
:104D00003C01CB01BA0118012901F30160837183D1
:104D1000828393830483158326833783C086D18659
:104D2000E286F38684869586A686B78611E020E023
:104D300030E0A9010F946E2B811101C010E020E03A
:104D400030E0A901C201B1010F946E2B882311F04C
:104D500092E001C090E0192B20E030E0A901C701EA
:104D6000B6010F946E2B882311F094E001C090E0FF
:104D7000192B20E030E0A901C501B4010F946E2B7E
:104D8000882311F088E001C080E0182BF30111A303
:104D9000C301DF91CF911F910F91FF90EF90DF90B2
:104DA000CF90BF90AF909F908F907F906F905F90CB
:104DB0004F903F902F906DCF8F929F92AF92BF9266
:104DC000CF92DF92EF92FF920F931F93CF93DF93D7
:104DD000CDB7DEB7FC0110A27FDFDF91CF911F912D
:104DE0000F91FF90EF90DF90CF90BF90AF909F908A
:104DF0008F9008958F929F92AF92BF92CF92DF9241
:104E0000EF92FF920F931F93812C912C5401750107
:104E100064010AE919E929E13EE3B501A40181E34E
:104E20009CE0CADF1F910F91FF90EF90DF90CF9031
:104E3000BF90AF909F908F900895FC016591759100
:104E40008591949108954F925F926F927F928F9285
:104E50009F92AF92BF92CF92DF92EF92FF920F9309
:104E60001F934090150250901602609017027090A8
:104E70001802812CE0E89E2EEBE3AE2EE6E4BE2E77
:104E80008092150290921602A0921702B092180218
:104E90006093A40E7093A50E8093A60E9093A70E18
:104EA0002093A80E3093A90E4093AA0E5093AB0EF8
:104EB000E092AC0EF092AD0E0093AE0E1093AF0EDA
:104EC000E0E7FEE0FF93EF93812C912CF8E4AF2E06
:104ED000F3E4BF2EA0EBCA2EAEE0DA2E0E94BFE5AF
:104EE0000F945909409215025092160260921702CF
:104EF000709218020F900F901F910F91FF90EF90FA
:104F0000DF90CF90BF90AF909F908F907F906F90E9
:104F10005F904F9008958091150290911602A09194
:104F20001702B09118028093440E9093450EA093FF
:104F3000460EB093470E80914C0290914D02909393
:104F4000B50E8093B40E84E690E090934D0280936A
:104F50004C020F9498226093A30C7093A40C80933E
:104F6000A50C9093A60C81E00D94BC0180E00F94F9
:104F7000BC018091440E9091450EA091460EB091D7
:104F8000470E8093150290931602A0931702B093D8
:104F900018028091B40E9091B50E90934D028093BB
:104FA0004C020F9498226093A30C7093A40C8093EE
:104FB000A50C9093A60C08952F923F924F925F926A
:104FC0006F927F928F929F92AF92BF92CF92DF9219
:104FD000EF92FF920F931F93CF93DF9389E792E0B5
:104FE0000F94731EE6E5F2E0608171818281938106
:104FF0006093150270931602809317029093180223
:1050000020E030E040E752E40F94752B4B015C0147
:10501000C8EADEE0288139814A815B81E4EAFEE06A
:105020006081718182819381B0E72B2EBEE03B2E9F
:105030003F922F9210EBC12E1EE0D12EE12CF12CCD
:1050400000E211EC0E94BFE50F94590982E00F9431
:10505000C1094B015C01288139814A815B81E4EA05
:10506000FEE06081718182819381850174010E94DB
:1050700036F08DE69EE0E1DE20E030E040E05FE3E8
:105080000F94432E9B01AC01C501B4010F94952AE6
:105090002B013C0120E030E040EC5FE36091150221
:1050A0007091160280911702909118020F94432E6E
:1050B00020E030E040E752E40F94752B4B015C0197
:1050C000288139814A815B81E4EAFEE06081718157
:1050D000828193813F922F92830172010E94BFE5EA
:1050E0000F94590920E030E040E85EE3E6E5F2E0A5
:1050F00060817181828193810F94432E4B015C0109
:105100006093150270931602809317029093180211
:105110008DE69EE092DE6B017C0120E030E040EC09
:105120005FE3C501B4010F94432E20E030E040E777
:1051300052E40F94752B4B015C01A7019601C70146
:10514000B6010F94952A9B01AC01C301B2010F94E3
:10515000942A7B018C01288139814A815B81E4EAB0
:10516000FEE060817181828193813F922F92F0EB0A
:10517000CF2EFEE0DF2E0E94BFE50F94590982E09A
:105180000F94C1097B018C016093AC0E7093AD0E3E
:105190008093AE0E9093AF0E288139814A815B8156
:1051A000E4EAFEE060817181828193810E9436F0A1
:1051B0000F900F900F900F900F900F90DF91CF9165
:1051C0001F910F91FF90EF90DF90CF90BF90AF9025
:1051D0009F908F907F906F905F904F903F902F9017
:1051E00008958DE79EE029DE2091880E3091890E8A
:1051F00040918A0E50918B0E0D94952A4F925F929A
:105200006F927F928F929F92AF92BF92CF92DF92D6
:10521000EF92FF920F931F93CF93DF9300D01F92D3
:10522000CDB7DEB72B013C0149015A012091A80EF0
:105230003091A90E4091AA0E5091AB0E6091A40E30
:105240007091A50E8091A60E9091A70EFCDD809125
:10525000700EC090AC0ED090AD0EE090AE0EF090FF
:10526000AF0E20E030E040EC51E4811111C0C501E7
:10527000B4010F94942A69837A838B839C8320E002
:1052800030E048E851E4C301B2010F94942A10C001
:10529000C501B4010F94942A69837A838B839C831C
:1052A00020E030E048E551E4C301B2010F94952AB3
:1052B0008701760129813A814B815C81C4DD7CDEE6
:1052C000C090AC0ED090AD0EE090AE0EF090AF0E50
:1052D000E1EAF7E064918F01662361F0772767FDCB
:1052E000709589E49BE10E94B80D0F5F1F4FF80194
:1052F0006491F2CFECE9F7E064918F01662361F0ED
:10530000772767FD709589E49BE10E94B80D0F5FD8
:105310001F4FF8016491F2CF22E030E0B301A20107
:1053200089E49BE10F94EF29E7E9F7E064918F01AD
:10533000662361F0772767FD709589E49BE10E9401
:10534000B80D0F5F1F4FF8016491F2CF22E030E0FB
:10535000B501A40189E49BE10F94EF29E2E9F7E0AC
:1053600064918F01662361F0772767FD709589E46A
:105370009BE10E94B80D0F5F1F4FF8016491F2CFBF
:1053800022E030E0B701A60189E49BE10F94EF2908
:10539000E0E9F7E064918F01662361F0772767FD0C
:1053A000709589E49BE10E94B80D0F5F1F4FF801D3
:1053B0006491F2CFC701B6010F900F900F900F903C
:1053C000DF91CF911F910F91FF90EF90DF90CF90E1
:1053D000BF90AF909F908F907F906F905F904F9015
:1053E0000895CF92DF92EF92FF92CF93DF93EC017B
:1053F0006A017B01FE016491662349F0772767FD0E
:10540000709589E49BE10E94B80D2196F3CF22E0CC
:1054100030E0B701A60189E49BE1DF91CF91FF90D5
:10542000EF90DF90CF900D94EF29CF92DF92EF9223
:10543000FF92CF93DF93EC016A017B01FE0164913F
:10544000662349F0772767FD709589E49BE10E9408
:10545000B80D2196F3CF22E030E0B701A60189E430
:105460009BE1DF91CF91FF90EF90DF90CF900D9473
:10547000EF29CF92DF92EF92FF92CF93DF93EC016F
:105480006A017B01FE016491662349F0772767FD7D
:10549000709589E49BE10E94B80D2196F3CF2AE034
:1054A00030E0B701A60189E49BE1DF91CF91FF9045
:1054B000EF90DF90CF900D94F228CF93DF9320915F
:1054C000AD0C3091AE0C243031050CF06FC0409122
:1054D000AF0C5091B00C60E6649F9001659F300D59
:1054E0001124BC01C9018954934F0F94CC34E1EAD3
:1054F000FEE06491EF01662359F0772767FD709510
:1055000089E49BE10E94B80D2196FE016491F3CFDE
:10551000E4E7FDE06491EF01662359F0772767FD2A
:10552000709589E49BE10E94B80D2196FE0164917B
:10553000F3CF8091AF0C9091B00C20E6289FB00182
:10554000299F700D11246954734F89E49BE10F94D6
:105550000D28E2E7FDE06491EF01662359F077271B
:1055600067FD709589E49BE10E94B80D2196FE01CC
:105570006491F3CF6AE070E089E49BE10E94B80D8A
:105580008091AF0C9091B00C019664E070E00F94A4
:10559000302F9093B00C8093AF0C8091AD0C909114
:1055A000AE0C01969093AE0C8093AD0CDF91CF9131
:1055B0000895CF93DF932091AD0C3091AE0C243041
:1055C00031050CF06FC04091AF0C5091B00C60E60B
:1055D000649F9001659F300D1124BC01C90189545D
:1055E000934F0F945E34E1EAFEE06491EF0166238D
:1055F00059F0772767FD709589E49BE10E94B80D0B
:105600002196FE016491F3CFE7E6FDE06491EF019E
:10561000662359F0772767FD709589E49BE10E9426
:10562000B80D2196FE016491F3CF8091AF0C90915B
:10563000B00C20E6289FB001299F700D11246954F9
:10564000734F89E49BE10F940D28E5E6FDE064913A
:10565000EF01662359F0772767FD709589E49BE198
:105660000E94B80D2196FE016491F3CF6AE070E0CC
:1056700089E49BE10E94B80D8091AF0C9091B00C31
:10568000019664E070E00F94302F9093B00C8093FB
:10569000AF0C8091AD0C9091AE0C01969093AE0C36
:1056A0008093AD0CDF91CF910895CF93DF9326E0E7
:1056B00040E950ED63E070E089E49BE10F940A2635
:1056C000EAE5FDE06491EF01662359F0772767FD75
:1056D000709589E49BE10E94B80D2196FE016491CA
:1056E000F3CF6AE070E089E49BE10E94B80DE1EA43
:1056F000FEE06491EF01662359F0772767FD70950E
:1057000089E49BE10E94B80D2196FE016491F3CFDC
:10571000E4E5FDE06491EF01662359F0772767FD2A
:10572000709589E49BE10E94B80D2196FE01649179
:10573000F3CF6AE070E089E49BE10E94B80D69E470
:1057400073E089E49BE10F94272826E040E45DE0C4
:1057500063E070E086EE9BE10F940A2666EE7BE143
:105760008FEA91E180DA62E77DE48FEA91E175DA10
:1057700061E089E00F94662460E089E00F949F2443
:1057800064E670E080E090E00F94C72261E089E079
:105790000F949F2464E971E180E090E00F94C722A8
:1057A00045E553E063E070E08FEA91E1E8D964EC0D
:1057B00079E080E090E00F94C72220E030E045E0FF
:1057C00050E06AE070E08FEA91E173D90E94E52130
:1057D0000F94040F0E9405E40F94B90861E08CE077
:1057E0000F94662461E08BE00F94662461E08DE005
:1057F0000F94662461E08CE00F949F2461E08BE0BD
:105800000F949F2461E08DE00F949F2461E08AE073
:105810000F94662460E08AE00F949F2461E070E0BA
:1058200080E090E00F94C72261E08AE0DF91CF91A1
:105830000D949F247F928F929F92AF92BF92CF92AE
:10584000DF92EF92FF920F931F93CF93DF93CDB729
:10585000DEB7DA950FB6F894DEBF0FBECDBF8091EC
:105860008C0C81110DC00F94982260935E0C709384
:105870005F0C8093600C9093610C81E080938C0CA2
:105880008091840C81110DC00F94982260935A0C62
:1058900070935B0C80935C0C90935D0C81E0809323
:1058A000840C8091FB0E882309F4D8C00F949822B1
:1058B00000915E0C10915F0C2091600C3091610C96
:1058C000601771078207930708F484C26091731A06
:1058D0007091741A8091751A9091761A0F94DD2B3D
:1058E000C62EB72E20E030E040E05FE36091691AF9
:1058F00070916A1A80916B1A90916C1A0F94952A84
:105900000F94DD2BA62E972E1F9230EBD32EDF9215
:1059100060916F1A7091701A8091711A9091721A39
:105920000F94DD2B7F936F9340E6E42E43E0F42E3B
:10593000FF92EF928E010F5F1F4F1F930F930F94F3
:10594000F034A80160E070E08FEA91E118D91F926D
:10595000DF92BF92CF92FF92EF921F930F930F941B
:10596000F034A80162E270E08FEA91E108D91F9259
:10597000DF929F92AF9288E693E09F938F931F935D
:105980000F930F94F034A80169E070E08FEA91E181
:10599000F6D80FB6F894DEBF0FBECDBF8091F210DF
:1059A000882319F180919C1190919D11A0919E11D5
:1059B000B0919F110097A105B105B9F0BC01CD01CF
:1059C0006D597F4F8F4F9F4F24E630E040E050E00D
:1059D0000F94432F6091A4117091A5118091A6118D
:1059E0009091A7110F94432F01C020E01F922F9395
:1059F00020E7E22E23E0F22EFF92EF921F930F9307
:105A00000F94F034A80165E270E08FEA91E1B7D815
:105A100080914D028F9380914C028F93FF92EF9271
:105A20001F930F930F94F034A80164E270E08FEAA3
:105A300091E1A5D80F94982268577C4E8F4F9F4FC5
:105A400060935E0C70935F0C8093600C9093610C7C
:105A50000FB6F894DEBF0FBECDBFBCC18091F80E6B
:105A6000882309F4B7C10F94982200915E0C10911D
:105A70005F0C2091600C3091610C601771078207F8
:105A8000930708F4A7C160916F1A7091701A809102
:105A9000711A9091721A0F94DD2BA62E972E609199
:105AA000731A7091741A8091751A9091761A0F94E6
:105AB000DD2BC62EB72E20E030E040E05FE36091A2
:105AC000691A70916A1A80916B1A90916C1A0F94EE
:105AD000952A0F94DD2B862E772E1F92A0EBDA2EBF
